{
	"sosh/SSTAPE.sol": {
		"SST": {
			"abi": [
				{
					"inputs": [],
					"stateMutability": "nonpayable",
					"type": "constructor"
				},
				{
					"anonymous": false,
					"inputs": [
						{
							"indexed": true,
							"internalType": "address",
							"name": "owner",
							"type": "address"
						},
						{
							"indexed": true,
							"internalType": "address",
							"name": "spender",
							"type": "address"
						},
						{
							"indexed": false,
							"internalType": "uint256",
							"name": "value",
							"type": "uint256"
						}
					],
					"name": "Approval",
					"type": "event"
				},
				{
					"anonymous": false,
					"inputs": [
						{
							"indexed": true,
							"internalType": "address",
							"name": "previousOwner",
							"type": "address"
						},
						{
							"indexed": true,
							"internalType": "address",
							"name": "newOwner",
							"type": "address"
						}
					],
					"name": "OwnershipTransferred",
					"type": "event"
				},
				{
					"anonymous": false,
					"inputs": [
						{
							"indexed": true,
							"internalType": "address",
							"name": "from",
							"type": "address"
						},
						{
							"indexed": true,
							"internalType": "address",
							"name": "to",
							"type": "address"
						},
						{
							"indexed": false,
							"internalType": "uint256",
							"name": "value",
							"type": "uint256"
						}
					],
					"name": "Transfer",
					"type": "event"
				},
				{
					"inputs": [],
					"name": "APE_MINT_PRICE_PER_TOKEN",
					"outputs": [
						{
							"internalType": "uint256",
							"name": "",
							"type": "uint256"
						}
					],
					"stateMutability": "view",
					"type": "function"
				},
				{
					"inputs": [],
					"name": "GAS_FEE_TAP",
					"outputs": [
						{
							"internalType": "uint256",
							"name": "",
							"type": "uint256"
						}
					],
					"stateMutability": "view",
					"type": "function"
				},
				{
					"inputs": [],
					"name": "MINT_PRICE_PER_TOKEN",
					"outputs": [
						{
							"internalType": "uint256",
							"name": "",
							"type": "uint256"
						}
					],
					"stateMutability": "view",
					"type": "function"
				},
				{
					"inputs": [
						{
							"internalType": "address",
							"name": "owner",
							"type": "address"
						},
						{
							"internalType": "address",
							"name": "spender",
							"type": "address"
						}
					],
					"name": "allowance",
					"outputs": [
						{
							"internalType": "uint256",
							"name": "",
							"type": "uint256"
						}
					],
					"stateMutability": "view",
					"type": "function"
				},
				{
					"inputs": [],
					"name": "ape",
					"outputs": [
						{
							"internalType": "contract ERC20",
							"name": "",
							"type": "address"
						}
					],
					"stateMutability": "view",
					"type": "function"
				},
				{
					"inputs": [
						{
							"internalType": "address",
							"name": "spender",
							"type": "address"
						},
						{
							"internalType": "uint256",
							"name": "amount",
							"type": "uint256"
						}
					],
					"name": "approve",
					"outputs": [
						{
							"internalType": "bool",
							"name": "",
							"type": "bool"
						}
					],
					"stateMutability": "nonpayable",
					"type": "function"
				},
				{
					"inputs": [
						{
							"internalType": "address",
							"name": "account",
							"type": "address"
						}
					],
					"name": "balanceOf",
					"outputs": [
						{
							"internalType": "uint256",
							"name": "",
							"type": "uint256"
						}
					],
					"stateMutability": "view",
					"type": "function"
				},
				{
					"inputs": [
						{
							"internalType": "uint256",
							"name": "amount",
							"type": "uint256"
						},
						{
							"internalType": "address",
							"name": "destinationAddress",
							"type": "address"
						}
					],
					"name": "burn",
					"outputs": [],
					"stateMutability": "nonpayable",
					"type": "function"
				},
				{
					"inputs": [
						{
							"internalType": "uint256",
							"name": "amount",
							"type": "uint256"
						},
						{
							"internalType": "address",
							"name": "destinationAddress",
							"type": "address"
						}
					],
					"name": "burnWithApe",
					"outputs": [],
					"stateMutability": "nonpayable",
					"type": "function"
				},
				{
					"inputs": [],
					"name": "decimals",
					"outputs": [
						{
							"internalType": "uint8",
							"name": "",
							"type": "uint8"
						}
					],
					"stateMutability": "view",
					"type": "function"
				},
				{
					"inputs": [
						{
							"internalType": "address",
							"name": "spender",
							"type": "address"
						},
						{
							"internalType": "uint256",
							"name": "subtractedValue",
							"type": "uint256"
						}
					],
					"name": "decreaseAllowance",
					"outputs": [
						{
							"internalType": "bool",
							"name": "",
							"type": "bool"
						}
					],
					"stateMutability": "nonpayable",
					"type": "function"
				},
				{
					"inputs": [
						{
							"internalType": "address",
							"name": "spender",
							"type": "address"
						},
						{
							"internalType": "uint256",
							"name": "addedValue",
							"type": "uint256"
						}
					],
					"name": "increaseAllowance",
					"outputs": [
						{
							"internalType": "bool",
							"name": "",
							"type": "bool"
						}
					],
					"stateMutability": "nonpayable",
					"type": "function"
				},
				{
					"inputs": [
						{
							"internalType": "uint256",
							"name": "tokenAmount",
							"type": "uint256"
						},
						{
							"internalType": "address",
							"name": "aAWallet",
							"type": "address"
						}
					],
					"name": "mint",
					"outputs": [],
					"stateMutability": "payable",
					"type": "function"
				},
				{
					"inputs": [
						{
							"internalType": "uint256",
							"name": "tokenAmount",
							"type": "uint256"
						},
						{
							"internalType": "address",
							"name": "aAWallet",
							"type": "address"
						}
					],
					"name": "mintWithApe",
					"outputs": [],
					"stateMutability": "payable",
					"type": "function"
				},
				{
					"inputs": [
						{
							"internalType": "uint256",
							"name": "tokenAmount",
							"type": "uint256"
						},
						{
							"internalType": "address",
							"name": "aAWallet",
							"type": "address"
						}
					],
					"name": "mintWithGasTap",
					"outputs": [],
					"stateMutability": "payable",
					"type": "function"
				},
				{
					"inputs": [],
					"name": "name",
					"outputs": [
						{
							"internalType": "string",
							"name": "",
							"type": "string"
						}
					],
					"stateMutability": "view",
					"type": "function"
				},
				{
					"inputs": [],
					"name": "owner",
					"outputs": [
						{
							"internalType": "address",
							"name": "",
							"type": "address"
						}
					],
					"stateMutability": "view",
					"type": "function"
				},
				{
					"inputs": [],
					"name": "renounceOwnership",
					"outputs": [],
					"stateMutability": "nonpayable",
					"type": "function"
				},
				{
					"inputs": [],
					"name": "symbol",
					"outputs": [
						{
							"internalType": "string",
							"name": "",
							"type": "string"
						}
					],
					"stateMutability": "view",
					"type": "function"
				},
				{
					"inputs": [],
					"name": "totalSupply",
					"outputs": [
						{
							"internalType": "uint256",
							"name": "",
							"type": "uint256"
						}
					],
					"stateMutability": "view",
					"type": "function"
				},
				{
					"inputs": [
						{
							"internalType": "address",
							"name": "to",
							"type": "address"
						},
						{
							"internalType": "uint256",
							"name": "amount",
							"type": "uint256"
						}
					],
					"name": "transfer",
					"outputs": [
						{
							"internalType": "bool",
							"name": "",
							"type": "bool"
						}
					],
					"stateMutability": "nonpayable",
					"type": "function"
				},
				{
					"inputs": [
						{
							"internalType": "address",
							"name": "from",
							"type": "address"
						},
						{
							"internalType": "address",
							"name": "to",
							"type": "address"
						},
						{
							"internalType": "uint256",
							"name": "amount",
							"type": "uint256"
						}
					],
					"name": "transferFrom",
					"outputs": [
						{
							"internalType": "bool",
							"name": "",
							"type": "bool"
						}
					],
					"stateMutability": "nonpayable",
					"type": "function"
				},
				{
					"inputs": [
						{
							"internalType": "address",
							"name": "newOwner",
							"type": "address"
						}
					],
					"name": "transferOwnership",
					"outputs": [],
					"stateMutability": "nonpayable",
					"type": "function"
				}
			],
			"devdoc": {
				"events": {
					"Approval(address,address,uint256)": {
						"details": "Emitted when the allowance of a `spender` for an `owner` is set by a call to {approve}. `value` is the new allowance."
					},
					"Transfer(address,address,uint256)": {
						"details": "Emitted when `value` tokens are moved from one account (`from`) to another (`to`). Note that `value` may be zero."
					}
				},
				"kind": "dev",
				"methods": {
					"allowance(address,address)": {
						"details": "See {IERC20-allowance}."
					},
					"approve(address,uint256)": {
						"details": "See {IERC20-approve}. NOTE: If `amount` is the maximum `uint256`, the allowance is not updated on `transferFrom`. This is semantically equivalent to an infinite approval. Requirements: - `spender` cannot be the zero address."
					},
					"balanceOf(address)": {
						"details": "See {IERC20-balanceOf}."
					},
					"decimals()": {
						"details": "Returns the number of decimals used to get its user representation. For example, if `decimals` equals `2`, a balance of `505` tokens should be displayed to a user as `5.05` (`505 / 10 ** 2`). Tokens usually opt for a value of 18, imitating the relationship between Ether and Wei. This is the value {ERC20} uses, unless this function is overridden; NOTE: This information is only used for _display_ purposes: it in no way affects any of the arithmetic of the contract, including {IERC20-balanceOf} and {IERC20-transfer}."
					},
					"decreaseAllowance(address,uint256)": {
						"details": "Atomically decreases the allowance granted to `spender` by the caller. This is an alternative to {approve} that can be used as a mitigation for problems described in {IERC20-approve}. Emits an {Approval} event indicating the updated allowance. Requirements: - `spender` cannot be the zero address. - `spender` must have allowance for the caller of at least `subtractedValue`."
					},
					"increaseAllowance(address,uint256)": {
						"details": "Atomically increases the allowance granted to `spender` by the caller. This is an alternative to {approve} that can be used as a mitigation for problems described in {IERC20-approve}. Emits an {Approval} event indicating the updated allowance. Requirements: - `spender` cannot be the zero address."
					},
					"name()": {
						"details": "Returns the name of the token."
					},
					"owner()": {
						"details": "Returns the address of the current owner."
					},
					"renounceOwnership()": {
						"details": "Leaves the contract without owner. It will not be possible to call `onlyOwner` functions anymore. Can only be called by the current owner. NOTE: Renouncing ownership will leave the contract without an owner, thereby removing any functionality that is only available to the owner."
					},
					"symbol()": {
						"details": "Returns the symbol of the token, usually a shorter version of the name."
					},
					"totalSupply()": {
						"details": "See {IERC20-totalSupply}."
					},
					"transfer(address,uint256)": {
						"details": "See {IERC20-transfer}. Requirements: - `to` cannot be the zero address. - the caller must have a balance of at least `amount`."
					},
					"transferFrom(address,address,uint256)": {
						"details": "See {IERC20-transferFrom}. Emits an {Approval} event indicating the updated allowance. This is not required by the EIP. See the note at the beginning of {ERC20}. NOTE: Does not update the allowance if the current allowance is the maximum `uint256`. Requirements: - `from` and `to` cannot be the zero address. - `from` must have a balance of at least `amount`. - the caller must have allowance for ``from``'s tokens of at least `amount`."
					},
					"transferOwnership(address)": {
						"details": "Transfers ownership of the contract to a new account (`newOwner`). Can only be called by the current owner."
					}
				},
				"version": 1
			},
			"evm": {
				"assembly": "    /* \"sosh/SSTAPE.sol\":180:3576  contract SST is ERC20, Ownable {... */\n  mstore(0x40, 0x80)\n    /* \"sosh/SSTAPE.sol\":484:604  constructor() ERC20(\"SoSH SST\", \"SST\") {... */\n  callvalue\n  dup1\n  iszero\n  tag_1\n  jumpi\n  0x00\n  dup1\n  revert\ntag_1:\n  pop\n    /* \"@openzeppelin/contracts@4.7.0/token/ERC20/ERC20.sol\":1978:2091  constructor(string memory name_, string memory symbol_) {... */\n  mload(0x40)\n  dup1\n  0x40\n  add\n  0x40\n  mstore\n  dup1\n  0x08\n  dup2\n  mstore\n  0x20\n  add\n  shl(0xc2, 0x14dbd4d20814d4d5)\n  dup2\n  mstore\n  pop\n  mload(0x40)\n  dup1\n  0x40\n  add\n  0x40\n  mstore\n  dup1\n  0x03\n  dup2\n  mstore\n  0x20\n  add\n  shl(0xea, 0x14d4d5)\n  dup2\n  mstore\n  pop\n    /* \"@openzeppelin/contracts@4.7.0/token/ERC20/ERC20.sol\":2052:2057  name_ */\n  dup2\n    /* \"@openzeppelin/contracts@4.7.0/token/ERC20/ERC20.sol\":2044:2049  _name */\n  0x03\n    /* \"@openzeppelin/contracts@4.7.0/token/ERC20/ERC20.sol\":2044:2057  _name = name_ */\n  swap1\n  dup2\n  tag_6\n  swap2\n  swap1\n  tag_7\n  jump\t// in\ntag_6:\n  pop\n    /* \"@openzeppelin/contracts@4.7.0/token/ERC20/ERC20.sol\":2067:2074  _symbol */\n  0x04\n    /* \"@openzeppelin/contracts@4.7.0/token/ERC20/ERC20.sol\":2067:2084  _symbol = symbol_ */\n  tag_8\n    /* \"@openzeppelin/contracts@4.7.0/token/ERC20/ERC20.sol\":2077:2084  symbol_ */\n  dup3\n    /* \"@openzeppelin/contracts@4.7.0/token/ERC20/ERC20.sol\":2067:2074  _symbol */\n  dup3\n    /* \"@openzeppelin/contracts@4.7.0/token/ERC20/ERC20.sol\":2067:2084  _symbol = symbol_ */\n  tag_7\n  jump\t// in\ntag_8:\n  pop\n    /* \"@openzeppelin/contracts@4.7.0/token/ERC20/ERC20.sol\":1978:2091  constructor(string memory name_, string memory symbol_) {... */\n  pop\n  pop\n    /* \"@openzeppelin/contracts@4.7.0/access/Ownable.sol\":936:968  _transferOwnership(_msgSender()) */\n  tag_10\n    /* \"@openzeppelin/contracts@4.7.0/access/Ownable.sol\":955:967  _msgSender() */\n  tag_11\n    /* \"@openzeppelin/contracts@4.7.0/access/Ownable.sol\":955:965  _msgSender */\n  shl(0x20, tag_12)\n    /* \"@openzeppelin/contracts@4.7.0/access/Ownable.sol\":955:967  _msgSender() */\n  0x20\n  shr\n  jump\t// in\ntag_11:\n    /* \"@openzeppelin/contracts@4.7.0/access/Ownable.sol\":936:954  _transferOwnership */\n  tag_13\n    /* \"@openzeppelin/contracts@4.7.0/access/Ownable.sol\":936:968  _transferOwnership(_msgSender()) */\n  jump\t// in\ntag_10:\n    /* \"sosh/SSTAPE.sol\":533:536  ape */\n  0x06\n    /* \"sosh/SSTAPE.sol\":533:597  ape = ERC20(address(0x01e61008F78A83E0DaBd2FBd7ef81B64cdD2e1F4)) */\n  dup1\n  sload\n  not(sub(shl(0xa0, 0x01), 0x01))\n  and\n    /* \"sosh/SSTAPE.sol\":553:595  0x01e61008F78A83E0DaBd2FBd7ef81B64cdD2e1F4 */\n  0x01e61008f78a83e0dabd2fbd7ef81b64cdd2e1f4\n    /* \"sosh/SSTAPE.sol\":533:597  ape = ERC20(address(0x01e61008F78A83E0DaBd2FBd7ef81B64cdD2e1F4)) */\n  or\n  swap1\n  sstore\n    /* \"sosh/SSTAPE.sol\":180:3576  contract SST is ERC20, Ownable {... */\n  jump(tag_23)\n    /* \"@openzeppelin/contracts@4.7.0/utils/Context.sol\":640:736  function _msgSender() internal view virtual returns (address) {... */\ntag_12:\n    /* \"@openzeppelin/contracts@4.7.0/utils/Context.sol\":719:729  msg.sender */\n  caller\n  swap1\n    /* \"@openzeppelin/contracts@4.7.0/utils/Context.sol\":640:736  function _msgSender() internal view virtual returns (address) {... */\n  jump\t// out\n    /* \"@openzeppelin/contracts@4.7.0/access/Ownable.sol\":2433:2620  function _transferOwnership(address newOwner) internal virtual {... */\ntag_13:\n    /* \"@openzeppelin/contracts@4.7.0/access/Ownable.sol\":2525:2531  _owner */\n  0x05\n  dup1\n  sload\n  sub(shl(0xa0, 0x01), 0x01)\n    /* \"@openzeppelin/contracts@4.7.0/access/Ownable.sol\":2541:2558  _owner = newOwner */\n  dup4\n  dup2\n  and\n  not(sub(shl(0xa0, 0x01), 0x01))\n  dup4\n  and\n  dup2\n  or\n  swap1\n  swap4\n  sstore\n    /* \"@openzeppelin/contracts@4.7.0/access/Ownable.sol\":2573:2613  OwnershipTransferred(oldOwner, newOwner) */\n  mload(0x40)\n    /* \"@openzeppelin/contracts@4.7.0/access/Ownable.sol\":2525:2531  _owner */\n  swap2\n  and\n  swap2\n    /* \"@openzeppelin/contracts@4.7.0/access/Ownable.sol\":2541:2558  _owner = newOwner */\n  swap1\n    /* \"@openzeppelin/contracts@4.7.0/access/Ownable.sol\":2525:2531  _owner */\n  dup3\n  swap1\n    /* \"@openzeppelin/contracts@4.7.0/access/Ownable.sol\":2573:2613  OwnershipTransferred(oldOwner, newOwner) */\n  0x8be0079c531659141344cd1fd0a4f28419497f9722a3daafe3b4186f6b6457e0\n  swap1\n    /* \"@openzeppelin/contracts@4.7.0/access/Ownable.sol\":2506:2522  address oldOwner */\n  0x00\n  swap1\n    /* \"@openzeppelin/contracts@4.7.0/access/Ownable.sol\":2573:2613  OwnershipTransferred(oldOwner, newOwner) */\n  log3\n    /* \"@openzeppelin/contracts@4.7.0/access/Ownable.sol\":2496:2620  {... */\n  pop\n    /* \"@openzeppelin/contracts@4.7.0/access/Ownable.sol\":2433:2620  function _transferOwnership(address newOwner) internal virtual {... */\n  pop\n  jump\t// out\n    /* \"#utility.yul\":14:141   */\ntag_18:\n    /* \"#utility.yul\":75:85   */\n  0x4e487b71\n    /* \"#utility.yul\":70:73   */\n  0xe0\n    /* \"#utility.yul\":66:86   */\n  shl\n    /* \"#utility.yul\":63:64   */\n  0x00\n    /* \"#utility.yul\":56:87   */\n  mstore\n    /* \"#utility.yul\":106:110   */\n  0x41\n    /* \"#utility.yul\":103:104   */\n  0x04\n    /* \"#utility.yul\":96:111   */\n  mstore\n    /* \"#utility.yul\":130:134   */\n  0x24\n    /* \"#utility.yul\":127:128   */\n  0x00\n    /* \"#utility.yul\":120:135   */\n  revert\n    /* \"#utility.yul\":146:526   */\ntag_19:\n    /* \"#utility.yul\":225:226   */\n  0x01\n    /* \"#utility.yul\":221:233   */\n  dup2\n  dup2\n  shr\n  swap1\n    /* \"#utility.yul\":268:280   */\n  dup3\n  and\n  dup1\n    /* \"#utility.yul\":289:350   */\n  tag_26\n  jumpi\n    /* \"#utility.yul\":343:347   */\n  0x7f\n    /* \"#utility.yul\":335:341   */\n  dup3\n    /* \"#utility.yul\":331:348   */\n  and\n    /* \"#utility.yul\":321:348   */\n  swap2\n  pop\n    /* \"#utility.yul\":289:350   */\ntag_26:\n    /* \"#utility.yul\":396:398   */\n  0x20\n    /* \"#utility.yul\":388:394   */\n  dup3\n    /* \"#utility.yul\":385:399   */\n  lt\n    /* \"#utility.yul\":365:383   */\n  dup2\n    /* \"#utility.yul\":362:400   */\n  sub\n    /* \"#utility.yul\":359:520   */\n  tag_27\n  jumpi\n    /* \"#utility.yul\":442:452   */\n  0x4e487b71\n    /* \"#utility.yul\":437:440   */\n  0xe0\n    /* \"#utility.yul\":433:453   */\n  shl\n    /* \"#utility.yul\":430:431   */\n  0x00\n    /* \"#utility.yul\":423:454   */\n  mstore\n    /* \"#utility.yul\":477:481   */\n  0x22\n    /* \"#utility.yul\":474:475   */\n  0x04\n    /* \"#utility.yul\":467:482   */\n  mstore\n    /* \"#utility.yul\":505:509   */\n  0x24\n    /* \"#utility.yul\":502:503   */\n  0x00\n    /* \"#utility.yul\":495:510   */\n  revert\n    /* \"#utility.yul\":359:520   */\ntag_27:\n  pop\n    /* \"#utility.yul\":146:526   */\n  swap2\n  swap1\n  pop\n  jump\t// out\n    /* \"#utility.yul\":657:1175   */\ntag_21:\n    /* \"#utility.yul\":759:761   */\n  0x1f\n    /* \"#utility.yul\":754:757   */\n  dup3\n    /* \"#utility.yul\":751:762   */\n  gt\n    /* \"#utility.yul\":748:1169   */\n  iszero\n  tag_30\n  jumpi\n    /* \"#utility.yul\":795:800   */\n  dup1\n    /* \"#utility.yul\":792:793   */\n  0x00\n    /* \"#utility.yul\":785:801   */\n  mstore\n    /* \"#utility.yul\":839:843   */\n  0x20\n    /* \"#utility.yul\":836:837   */\n  0x00\n    /* \"#utility.yul\":826:844   */\n  keccak256\n    /* \"#utility.yul\":909:911   */\n  0x1f\n    /* \"#utility.yul\":897:907   */\n  dup5\n    /* \"#utility.yul\":893:912   */\n  add\n    /* \"#utility.yul\":890:891   */\n  0x05\n    /* \"#utility.yul\":886:913   */\n  shr\n    /* \"#utility.yul\":880:884   */\n  dup2\n    /* \"#utility.yul\":876:914   */\n  add\n    /* \"#utility.yul\":945:949   */\n  0x20\n    /* \"#utility.yul\":933:943   */\n  dup6\n    /* \"#utility.yul\":930:950   */\n  lt\n    /* \"#utility.yul\":927:974   */\n  iszero\n  tag_31\n  jumpi\n  pop\n    /* \"#utility.yul\":968:972   */\n  dup1\n    /* \"#utility.yul\":927:974   */\ntag_31:\n    /* \"#utility.yul\":1023:1025   */\n  0x1f\n    /* \"#utility.yul\":1018:1021   */\n  dup5\n    /* \"#utility.yul\":1014:1026   */\n  add\n    /* \"#utility.yul\":1011:1012   */\n  0x05\n    /* \"#utility.yul\":1007:1027   */\n  shr\n    /* \"#utility.yul\":1001:1005   */\n  dup3\n    /* \"#utility.yul\":997:1028   */\n  add\n    /* \"#utility.yul\":987:1028   */\n  swap2\n  pop\n    /* \"#utility.yul\":1078:1159   */\ntag_32:\n    /* \"#utility.yul\":1096:1098   */\n  dup2\n    /* \"#utility.yul\":1089:1094   */\n  dup2\n    /* \"#utility.yul\":1086:1099   */\n  lt\n    /* \"#utility.yul\":1078:1159   */\n  iszero\n  tag_34\n  jumpi\n    /* \"#utility.yul\":1155:1156   */\n  0x00\n    /* \"#utility.yul\":1141:1157   */\n  dup2\n  sstore\n    /* \"#utility.yul\":1122:1123   */\n  0x01\n    /* \"#utility.yul\":1111:1124   */\n  add\n    /* \"#utility.yul\":1078:1159   */\n  jump(tag_32)\ntag_34:\n    /* \"#utility.yul\":1082:1085   */\n  pop\n  pop\n    /* \"#utility.yul\":748:1169   */\ntag_30:\n    /* \"#utility.yul\":657:1175   */\n  pop\n  pop\n  pop\n  jump\t// out\n    /* \"#utility.yul\":1351:2696   */\ntag_7:\n    /* \"#utility.yul\":1471:1481   */\n  dup2\n  mload\n  sub(shl(0x40, 0x01), 0x01)\n    /* \"#utility.yul\":1493:1523   */\n  dup2\n  gt\n    /* \"#utility.yul\":1490:1546   */\n  iszero\n  tag_38\n  jumpi\n    /* \"#utility.yul\":1526:1544   */\n  tag_38\n  tag_18\n  jump\t// in\ntag_38:\n    /* \"#utility.yul\":1555:1652   */\n  tag_39\n    /* \"#utility.yul\":1645:1651   */\n  dup2\n    /* \"#utility.yul\":1605:1643   */\n  tag_40\n    /* \"#utility.yul\":1637:1641   */\n  dup5\n    /* \"#utility.yul\":1631:1642   */\n  sload\n    /* \"#utility.yul\":1605:1643   */\n  tag_19\n  jump\t// in\ntag_40:\n    /* \"#utility.yul\":1599:1603   */\n  dup5\n    /* \"#utility.yul\":1555:1652   */\n  tag_21\n  jump\t// in\ntag_39:\n    /* \"#utility.yul\":1707:1711   */\n  0x20\n  dup1\n    /* \"#utility.yul\":1764:1766   */\n  0x1f\n    /* \"#utility.yul\":1753:1767   */\n  dup4\n  gt\n    /* \"#utility.yul\":1781:1782   */\n  0x01\n    /* \"#utility.yul\":1776:2439   */\n  dup2\n  eq\n  tag_42\n  jumpi\n    /* \"#utility.yul\":2483:2484   */\n  0x00\n    /* \"#utility.yul\":2500:2506   */\n  dup5\n    /* \"#utility.yul\":2497:2586   */\n  iszero\n  tag_43\n  jumpi\n  pop\n    /* \"#utility.yul\":2552:2571   */\n  dup6\n  dup4\n  add\n    /* \"#utility.yul\":2546:2572   */\n  mload\n    /* \"#utility.yul\":2497:2586   */\ntag_43:\n  not(0x00)\n    /* \"#utility.yul\":1308:1309   */\n  0x03\n    /* \"#utility.yul\":1304:1315   */\n  dup7\n  swap1\n  shl\n    /* \"#utility.yul\":1300:1324   */\n  shr\n    /* \"#utility.yul\":1296:1325   */\n  not\n    /* \"#utility.yul\":1286:1326   */\n  and\n    /* \"#utility.yul\":1332:1333   */\n  0x01\n    /* \"#utility.yul\":1328:1339   */\n  dup6\n  swap1\n  shl\n    /* \"#utility.yul\":1283:1340   */\n  or\n    /* \"#utility.yul\":2599:2680   */\n  dup6\n  sstore\n    /* \"#utility.yul\":1746:2690   */\n  jump(tag_41)\n    /* \"#utility.yul\":1776:2439   */\ntag_42:\n    /* \"#utility.yul\":604:605   */\n  0x00\n    /* \"#utility.yul\":597:611   */\n  dup6\n  dup2\n  mstore\n    /* \"#utility.yul\":641:645   */\n  0x20\n    /* \"#utility.yul\":628:646   */\n  dup2\n  keccak256\n  not(0x1f)\n    /* \"#utility.yul\":1812:1832   */\n  dup7\n  and\n  swap2\n    /* \"#utility.yul\":1930:2166   */\ntag_46:\n    /* \"#utility.yul\":1944:1951   */\n  dup3\n    /* \"#utility.yul\":1941:1942   */\n  dup2\n    /* \"#utility.yul\":1938:1952   */\n  lt\n    /* \"#utility.yul\":1930:2166   */\n  iszero\n  tag_48\n  jumpi\n    /* \"#utility.yul\":2033:2052   */\n  dup9\n  dup7\n  add\n    /* \"#utility.yul\":2027:2053   */\n  mload\n    /* \"#utility.yul\":2012:2054   */\n  dup3\n  sstore\n    /* \"#utility.yul\":2125:2152   */\n  swap5\n  dup5\n  add\n  swap5\n    /* \"#utility.yul\":2093:2094   */\n  0x01\n    /* \"#utility.yul\":2081:2095   */\n  swap1\n  swap2\n  add\n  swap1\n    /* \"#utility.yul\":1960:1979   */\n  dup5\n  add\n    /* \"#utility.yul\":1930:2166   */\n  jump(tag_46)\ntag_48:\n    /* \"#utility.yul\":1934:1937   */\n  pop\n    /* \"#utility.yul\":2194:2200   */\n  dup6\n    /* \"#utility.yul\":2185:2192   */\n  dup3\n    /* \"#utility.yul\":2182:2201   */\n  lt\n    /* \"#utility.yul\":2179:2380   */\n  iszero\n  tag_49\n  jumpi\n    /* \"#utility.yul\":2255:2274   */\n  dup8\n  dup6\n  add\n    /* \"#utility.yul\":2249:2275   */\n  mload\n  not(0x00)\n    /* \"#utility.yul\":2338:2339   */\n  0x03\n    /* \"#utility.yul\":2334:2348   */\n  dup9\n  swap1\n  shl\n    /* \"#utility.yul\":2350:2353   */\n  0xf8\n    /* \"#utility.yul\":2330:2354   */\n  and\n    /* \"#utility.yul\":2326:2363   */\n  shr\n    /* \"#utility.yul\":2322:2364   */\n  not\n    /* \"#utility.yul\":2307:2365   */\n  and\n    /* \"#utility.yul\":2292:2366   */\n  dup2\n  sstore\n    /* \"#utility.yul\":2179:2380   */\ntag_49:\n  pop\n  pop\n    /* \"#utility.yul\":2426:2427   */\n  0x01\n    /* \"#utility.yul\":2417:2423   */\n  dup5\n    /* \"#utility.yul\":2414:2415   */\n  0x01\n    /* \"#utility.yul\":2410:2424   */\n  shl\n    /* \"#utility.yul\":2406:2428   */\n  add\n    /* \"#utility.yul\":2400:2404   */\n  dup6\n    /* \"#utility.yul\":2393:2429   */\n  sstore\n    /* \"#utility.yul\":1746:2690   */\ntag_41:\n  pop\n  pop\n  pop\n  pop\n    /* \"#utility.yul\":1351:2696   */\n  pop\n  pop\n  jump\t// out\ntag_23:\n    /* \"sosh/SSTAPE.sol\":180:3576  contract SST is ERC20, Ownable {... */\n  dataSize(sub_0)\n  dup1\n  dataOffset(sub_0)\n  0x00\n  codecopy\n  0x00\n  return\nstop\n\nsub_0: assembly {\n        /* \"sosh/SSTAPE.sol\":180:3576  contract SST is ERC20, Ownable {... */\n      mstore(0x40, 0x80)\n      jumpi(tag_1, lt(calldatasize, 0x04))\n      shr(0xe0, calldataload(0x00))\n      dup1\n      0x70a08231\n      gt\n      tag_25\n      jumpi\n      dup1\n      0x974900b6\n      gt\n      tag_26\n      jumpi\n      dup1\n      0x974900b6\n      eq\n      tag_19\n      jumpi\n      dup1\n      0xa457c2d7\n      eq\n      tag_20\n      jumpi\n      dup1\n      0xa9059cbb\n      eq\n      tag_21\n      jumpi\n      dup1\n      0xdd62ed3e\n      eq\n      tag_22\n      jumpi\n      dup1\n      0xf2fde38b\n      eq\n      tag_23\n      jumpi\n      dup1\n      0xfcd3533c\n      eq\n      tag_24\n      jumpi\n      0x00\n      dup1\n      revert\n    tag_26:\n      dup1\n      0x70a08231\n      eq\n      tag_13\n      jumpi\n      dup1\n      0x715018a6\n      eq\n      tag_14\n      jumpi\n      dup1\n      0x79babd2c\n      eq\n      tag_15\n      jumpi\n      dup1\n      0x8da5cb5b\n      eq\n      tag_16\n      jumpi\n      dup1\n      0x94bf804d\n      eq\n      tag_17\n      jumpi\n      dup1\n      0x95d89b41\n      eq\n      tag_18\n      jumpi\n      0x00\n      dup1\n      revert\n    tag_25:\n      dup1\n      0x313ce567\n      gt\n      tag_27\n      jumpi\n      dup1\n      0x313ce567\n      eq\n      tag_7\n      jumpi\n      dup1\n      0x39509351\n      eq\n      tag_8\n      jumpi\n      dup1\n      0x4bfa5bdb\n      eq\n      tag_9\n      jumpi\n      dup1\n      0x4fa1d436\n      eq\n      tag_10\n      jumpi\n      dup1\n      0x6572c9b2\n      eq\n      tag_11\n      jumpi\n      dup1\n      0x695d2f13\n      eq\n      tag_12\n      jumpi\n      0x00\n      dup1\n      revert\n    tag_27:\n      dup1\n      0x06fdde03\n      eq\n      tag_2\n      jumpi\n      dup1\n      0x0802c2cd\n      eq\n      tag_3\n      jumpi\n      dup1\n      0x095ea7b3\n      eq\n      tag_4\n      jumpi\n      dup1\n      0x18160ddd\n      eq\n      tag_5\n      jumpi\n      dup1\n      0x23b872dd\n      eq\n      tag_6\n      jumpi\n    tag_1:\n      0x00\n      dup1\n      revert\n        /* \"@openzeppelin/contracts@4.7.0/token/ERC20/ERC20.sol\":2156:2254  function name() public view virtual override returns (string memory) {... */\n    tag_2:\n      callvalue\n      dup1\n      iszero\n      tag_28\n      jumpi\n      0x00\n      dup1\n      revert\n    tag_28:\n      pop\n      tag_29\n      tag_30\n      jump\t// in\n    tag_29:\n      mload(0x40)\n      tag_31\n      swap2\n      swap1\n      tag_32\n      jump\t// in\n    tag_31:\n      mload(0x40)\n      dup1\n      swap2\n      sub\n      swap1\n      return\n        /* \"sosh/SSTAPE.sol\":217:279  uint256 public constant MINT_PRICE_PER_TOKEN = 675000000000000 */\n    tag_3:\n      callvalue\n      dup1\n      iszero\n      tag_33\n      jumpi\n      0x00\n      dup1\n      revert\n    tag_33:\n      pop\n      tag_34\n        /* \"sosh/SSTAPE.sol\":264:279  675000000000000 */\n      0x0265e8af393000\n        /* \"sosh/SSTAPE.sol\":217:279  uint256 public constant MINT_PRICE_PER_TOKEN = 675000000000000 */\n      dup2\n      jump\n    tag_34:\n      mload(0x40)\n        /* \"#utility.yul\":713:738   */\n      swap1\n      dup2\n      mstore\n        /* \"#utility.yul\":701:703   */\n      0x20\n        /* \"#utility.yul\":686:704   */\n      add\n        /* \"sosh/SSTAPE.sol\":217:279  uint256 public constant MINT_PRICE_PER_TOKEN = 675000000000000 */\n      tag_31\n        /* \"#utility.yul\":567:744   */\n      jump\n        /* \"@openzeppelin/contracts@4.7.0/token/ERC20/ERC20.sol\":4433:4630  function approve(address spender, uint256 amount) public virtual override returns (bool) {... */\n    tag_4:\n      callvalue\n      dup1\n      iszero\n      tag_38\n      jumpi\n      0x00\n      dup1\n      revert\n    tag_38:\n      pop\n      tag_39\n      tag_40\n      calldatasize\n      0x04\n      tag_41\n      jump\t// in\n    tag_40:\n      tag_42\n      jump\t// in\n    tag_39:\n      mload(0x40)\n        /* \"#utility.yul\":1351:1365   */\n      swap1\n      iszero\n        /* \"#utility.yul\":1344:1366   */\n      iszero\n        /* \"#utility.yul\":1326:1367   */\n      dup2\n      mstore\n        /* \"#utility.yul\":1314:1316   */\n      0x20\n        /* \"#utility.yul\":1299:1317   */\n      add\n        /* \"@openzeppelin/contracts@4.7.0/token/ERC20/ERC20.sol\":4433:4630  function approve(address spender, uint256 amount) public virtual override returns (bool) {... */\n      tag_31\n        /* \"#utility.yul\":1186:1373   */\n      jump\n        /* \"@openzeppelin/contracts@4.7.0/token/ERC20/ERC20.sol\":3244:3350  function totalSupply() public view virtual override returns (uint256) {... */\n    tag_5:\n      callvalue\n      dup1\n      iszero\n      tag_45\n      jumpi\n      0x00\n      dup1\n      revert\n    tag_45:\n      pop\n        /* \"@openzeppelin/contracts@4.7.0/token/ERC20/ERC20.sol\":3331:3343  _totalSupply */\n      sload(0x02)\n        /* \"@openzeppelin/contracts@4.7.0/token/ERC20/ERC20.sol\":3244:3350  function totalSupply() public view virtual override returns (uint256) {... */\n      jump(tag_34)\n        /* \"@openzeppelin/contracts@4.7.0/token/ERC20/ERC20.sol\":5192:5478  function transferFrom(... */\n    tag_6:\n      callvalue\n      dup1\n      iszero\n      tag_49\n      jumpi\n      0x00\n      dup1\n      revert\n    tag_49:\n      pop\n      tag_39\n      tag_51\n      calldatasize\n      0x04\n      tag_52\n      jump\t// in\n    tag_51:\n      tag_53\n      jump\t// in\n        /* \"@openzeppelin/contracts@4.7.0/token/ERC20/ERC20.sol\":3093:3184  function decimals() public view virtual override returns (uint8) {... */\n    tag_7:\n      callvalue\n      dup1\n      iszero\n      tag_55\n      jumpi\n      0x00\n      dup1\n      revert\n    tag_55:\n      pop\n      mload(0x40)\n        /* \"@openzeppelin/contracts@4.7.0/token/ERC20/ERC20.sol\":3175:3177  18 */\n      0x12\n        /* \"#utility.yul\":1853:1889   */\n      dup2\n      mstore\n        /* \"#utility.yul\":1841:1843   */\n      0x20\n        /* \"#utility.yul\":1826:1844   */\n      add\n        /* \"@openzeppelin/contracts@4.7.0/token/ERC20/ERC20.sol\":3093:3184  function decimals() public view virtual override returns (uint8) {... */\n      tag_31\n        /* \"#utility.yul\":1711:1895   */\n      jump\n        /* \"@openzeppelin/contracts@4.7.0/token/ERC20/ERC20.sol\":5873:6107  function increaseAllowance(address spender, uint256 addedValue) public virtual returns (bool) {... */\n    tag_8:\n      callvalue\n      dup1\n      iszero\n      tag_60\n      jumpi\n      0x00\n      dup1\n      revert\n    tag_60:\n      pop\n      tag_39\n      tag_62\n      calldatasize\n      0x04\n      tag_41\n      jump\t// in\n    tag_62:\n      tag_63\n      jump\t// in\n        /* \"sosh/SSTAPE.sol\":1082:1390  function mintWithApe(uint256 tokenAmount, address aAWallet) public payable {... */\n    tag_9:\n      tag_65\n      tag_66\n      calldatasize\n      0x04\n      tag_67\n      jump\t// in\n    tag_66:\n      tag_68\n      jump\t// in\n    tag_65:\n      stop\n        /* \"sosh/SSTAPE.sol\":1959:2756  function mintWithGasTap(uint256 tokenAmount, address aAWallet) public payable {... */\n    tag_10:\n      tag_65\n      tag_70\n      calldatasize\n      0x04\n      tag_67\n      jump\t// in\n    tag_70:\n      tag_71\n      jump\t// in\n        /* \"sosh/SSTAPE.sol\":1452:1876  function burnWithApe(uint256 amount, address destinationAddress) public {... */\n    tag_11:\n      callvalue\n      dup1\n      iszero\n      tag_72\n      jumpi\n      0x00\n      dup1\n      revert\n    tag_72:\n      pop\n      tag_65\n      tag_74\n      calldatasize\n      0x04\n      tag_67\n      jump\t// in\n    tag_74:\n      tag_75\n      jump\t// in\n        /* \"sosh/SSTAPE.sol\":401:449  uint256 public constant GAS_FEE_TAP = 0.02 ether */\n    tag_12:\n      callvalue\n      dup1\n      iszero\n      tag_76\n      jumpi\n      0x00\n      dup1\n      revert\n    tag_76:\n      pop\n      tag_34\n        /* \"sosh/SSTAPE.sol\":439:449  0.02 ether */\n      0x470de4df820000\n        /* \"sosh/SSTAPE.sol\":401:449  uint256 public constant GAS_FEE_TAP = 0.02 ether */\n      dup2\n      jump\n        /* \"@openzeppelin/contracts@4.7.0/token/ERC20/ERC20.sol\":3408:3533  function balanceOf(address account) public view virtual override returns (uint256) {... */\n    tag_13:\n      callvalue\n      dup1\n      iszero\n      tag_80\n      jumpi\n      0x00\n      dup1\n      revert\n    tag_80:\n      pop\n      tag_34\n      tag_82\n      calldatasize\n      0x04\n      tag_83\n      jump\t// in\n    tag_82:\n      sub(shl(0xa0, 0x01), 0x01)\n        /* \"@openzeppelin/contracts@4.7.0/token/ERC20/ERC20.sol\":3508:3526  _balances[account] */\n      and\n        /* \"@openzeppelin/contracts@4.7.0/token/ERC20/ERC20.sol\":3482:3489  uint256 */\n      0x00\n        /* \"@openzeppelin/contracts@4.7.0/token/ERC20/ERC20.sol\":3508:3526  _balances[account] */\n      swap1\n      dup2\n      mstore\n      0x20\n      dup2\n      swap1\n      mstore\n      0x40\n      swap1\n      keccak256\n      sload\n      swap1\n        /* \"@openzeppelin/contracts@4.7.0/token/ERC20/ERC20.sol\":3408:3533  function balanceOf(address account) public view virtual override returns (uint256) {... */\n      jump\n        /* \"@openzeppelin/contracts@4.7.0/access/Ownable.sol\":1831:1932  function renounceOwnership() public virtual onlyOwner {... */\n    tag_14:\n      callvalue\n      dup1\n      iszero\n      tag_86\n      jumpi\n      0x00\n      dup1\n      revert\n    tag_86:\n      pop\n      tag_65\n      tag_88\n      jump\t// in\n        /* \"sosh/SSTAPE.sol\":461:477  ERC20 public ape */\n    tag_15:\n      callvalue\n      dup1\n      iszero\n      tag_89\n      jumpi\n      0x00\n      dup1\n      revert\n    tag_89:\n      pop\n      sload(0x06)\n      tag_90\n      swap1\n      sub(shl(0xa0, 0x01), 0x01)\n      and\n      dup2\n      jump\n    tag_90:\n      mload(0x40)\n      sub(shl(0xa0, 0x01), 0x01)\n        /* \"#utility.yul\":2527:2559   */\n      swap1\n      swap2\n      and\n        /* \"#utility.yul\":2509:2560   */\n      dup2\n      mstore\n        /* \"#utility.yul\":2497:2499   */\n      0x20\n        /* \"#utility.yul\":2482:2500   */\n      add\n        /* \"sosh/SSTAPE.sol\":461:477  ERC20 public ape */\n      tag_31\n        /* \"#utility.yul\":2350:2566   */\n      jump\n        /* \"@openzeppelin/contracts@4.7.0/access/Ownable.sol\":1201:1286  function owner() public view virtual returns (address) {... */\n    tag_16:\n      callvalue\n      dup1\n      iszero\n      tag_94\n      jumpi\n      0x00\n      dup1\n      revert\n    tag_94:\n      pop\n        /* \"@openzeppelin/contracts@4.7.0/access/Ownable.sol\":1273:1279  _owner */\n      and(sub(shl(0xa0, 0x01), 0x01), sload(0x05))\n        /* \"@openzeppelin/contracts@4.7.0/access/Ownable.sol\":1201:1286  function owner() public view virtual returns (address) {... */\n      jump(tag_90)\n        /* \"sosh/SSTAPE.sol\":645:1076  function mint(uint256 tokenAmount, address aAWallet) public payable {... */\n    tag_17:\n      tag_65\n      tag_100\n      calldatasize\n      0x04\n      tag_67\n      jump\t// in\n    tag_100:\n      tag_101\n      jump\t// in\n        /* \"@openzeppelin/contracts@4.7.0/token/ERC20/ERC20.sol\":2367:2469  function symbol() public view virtual override returns (string memory) {... */\n    tag_18:\n      callvalue\n      dup1\n      iszero\n      tag_102\n      jumpi\n      0x00\n      dup1\n      revert\n    tag_102:\n      pop\n      tag_29\n      tag_104\n      jump\t// in\n        /* \"sosh/SSTAPE.sol\":308:376  uint256 public constant APE_MINT_PRICE_PER_TOKEN = 10000000000000000 */\n    tag_19:\n      callvalue\n      dup1\n      iszero\n      tag_106\n      jumpi\n      0x00\n      dup1\n      revert\n    tag_106:\n      pop\n      tag_34\n        /* \"sosh/SSTAPE.sol\":359:376  10000000000000000 */\n      0x2386f26fc10000\n        /* \"sosh/SSTAPE.sol\":308:376  uint256 public constant APE_MINT_PRICE_PER_TOKEN = 10000000000000000 */\n      dup2\n      jump\n        /* \"@openzeppelin/contracts@4.7.0/token/ERC20/ERC20.sol\":6594:7021  function decreaseAllowance(address spender, uint256 subtractedValue) public virtual returns (bool) {... */\n    tag_20:\n      callvalue\n      dup1\n      iszero\n      tag_110\n      jumpi\n      0x00\n      dup1\n      revert\n    tag_110:\n      pop\n      tag_39\n      tag_112\n      calldatasize\n      0x04\n      tag_41\n      jump\t// in\n    tag_112:\n      tag_113\n      jump\t// in\n        /* \"@openzeppelin/contracts@4.7.0/token/ERC20/ERC20.sol\":3729:3918  function transfer(address to, uint256 amount) public virtual override returns (bool) {... */\n    tag_21:\n      callvalue\n      dup1\n      iszero\n      tag_115\n      jumpi\n      0x00\n      dup1\n      revert\n    tag_115:\n      pop\n      tag_39\n      tag_117\n      calldatasize\n      0x04\n      tag_41\n      jump\t// in\n    tag_117:\n      tag_118\n      jump\t// in\n        /* \"@openzeppelin/contracts@4.7.0/token/ERC20/ERC20.sol\":3976:4125  function allowance(address owner, address spender) public view virtual override returns (uint256) {... */\n    tag_22:\n      callvalue\n      dup1\n      iszero\n      tag_120\n      jumpi\n      0x00\n      dup1\n      revert\n    tag_120:\n      pop\n      tag_34\n      tag_122\n      calldatasize\n      0x04\n      tag_123\n      jump\t// in\n    tag_122:\n      tag_124\n      jump\t// in\n        /* \"@openzeppelin/contracts@4.7.0/access/Ownable.sol\":2081:2279  function transferOwnership(address newOwner) public virtual onlyOwner {... */\n    tag_23:\n      callvalue\n      dup1\n      iszero\n      tag_126\n      jumpi\n      0x00\n      dup1\n      revert\n    tag_126:\n      pop\n      tag_65\n      tag_128\n      calldatasize\n      0x04\n      tag_83\n      jump\t// in\n    tag_128:\n      tag_129\n      jump\t// in\n        /* \"sosh/SSTAPE.sol\":2818:3277  function burn(uint256 amount, address destinationAddress) public {... */\n    tag_24:\n      callvalue\n      dup1\n      iszero\n      tag_130\n      jumpi\n      0x00\n      dup1\n      revert\n    tag_130:\n      pop\n      tag_65\n      tag_132\n      calldatasize\n      0x04\n      tag_67\n      jump\t// in\n    tag_132:\n      tag_133\n      jump\t// in\n        /* \"@openzeppelin/contracts@4.7.0/token/ERC20/ERC20.sol\":2156:2254  function name() public view virtual override returns (string memory) {... */\n    tag_30:\n        /* \"@openzeppelin/contracts@4.7.0/token/ERC20/ERC20.sol\":2210:2223  string memory */\n      0x60\n        /* \"@openzeppelin/contracts@4.7.0/token/ERC20/ERC20.sol\":2242:2247  _name */\n      0x03\n        /* \"@openzeppelin/contracts@4.7.0/token/ERC20/ERC20.sol\":2235:2247  return _name */\n      dup1\n      sload\n      tag_135\n      swap1\n      tag_136\n      jump\t// in\n    tag_135:\n      dup1\n      0x1f\n      add\n      0x20\n      dup1\n      swap2\n      div\n      mul\n      0x20\n      add\n      mload(0x40)\n      swap1\n      dup2\n      add\n      0x40\n      mstore\n      dup1\n      swap3\n      swap2\n      swap1\n      dup2\n      dup2\n      mstore\n      0x20\n      add\n      dup3\n      dup1\n      sload\n      tag_137\n      swap1\n      tag_136\n      jump\t// in\n    tag_137:\n      dup1\n      iszero\n      tag_138\n      jumpi\n      dup1\n      0x1f\n      lt\n      tag_139\n      jumpi\n      0x0100\n      dup1\n      dup4\n      sload\n      div\n      mul\n      dup4\n      mstore\n      swap2\n      0x20\n      add\n      swap2\n      jump(tag_138)\n    tag_139:\n      dup3\n      add\n      swap2\n      swap1\n      0x00\n      mstore\n      keccak256(0x00, 0x20)\n      swap1\n    tag_140:\n      dup2\n      sload\n      dup2\n      mstore\n      swap1\n      0x01\n      add\n      swap1\n      0x20\n      add\n      dup1\n      dup4\n      gt\n      tag_140\n      jumpi\n      dup3\n      swap1\n      sub\n      0x1f\n      and\n      dup3\n      add\n      swap2\n    tag_138:\n      pop\n      pop\n      pop\n      pop\n      pop\n      swap1\n      pop\n        /* \"@openzeppelin/contracts@4.7.0/token/ERC20/ERC20.sol\":2156:2254  function name() public view virtual override returns (string memory) {... */\n      swap1\n      jump\t// out\n        /* \"@openzeppelin/contracts@4.7.0/token/ERC20/ERC20.sol\":4433:4630  function approve(address spender, uint256 amount) public virtual override returns (bool) {... */\n    tag_42:\n        /* \"@openzeppelin/contracts@4.7.0/token/ERC20/ERC20.sol\":4516:4520  bool */\n      0x00\n        /* \"@openzeppelin/contracts@4.7.0/utils/Context.sol\":719:729  msg.sender */\n      caller\n        /* \"@openzeppelin/contracts@4.7.0/token/ERC20/ERC20.sol\":4570:4602  _approve(owner, spender, amount) */\n      tag_144\n        /* \"@openzeppelin/contracts@4.7.0/utils/Context.sol\":719:729  msg.sender */\n      dup2\n        /* \"@openzeppelin/contracts@4.7.0/token/ERC20/ERC20.sol\":4586:4593  spender */\n      dup6\n        /* \"@openzeppelin/contracts@4.7.0/token/ERC20/ERC20.sol\":4595:4601  amount */\n      dup6\n        /* \"@openzeppelin/contracts@4.7.0/token/ERC20/ERC20.sol\":4570:4578  _approve */\n      tag_145\n        /* \"@openzeppelin/contracts@4.7.0/token/ERC20/ERC20.sol\":4570:4602  _approve(owner, spender, amount) */\n      jump\t// in\n    tag_144:\n        /* \"@openzeppelin/contracts@4.7.0/token/ERC20/ERC20.sol\":4619:4623  true */\n      0x01\n        /* \"@openzeppelin/contracts@4.7.0/token/ERC20/ERC20.sol\":4612:4623  return true */\n      swap2\n      pop\n      pop\n        /* \"@openzeppelin/contracts@4.7.0/token/ERC20/ERC20.sol\":4433:4630  function approve(address spender, uint256 amount) public virtual override returns (bool) {... */\n    tag_141:\n      swap3\n      swap2\n      pop\n      pop\n      jump\t// out\n        /* \"@openzeppelin/contracts@4.7.0/token/ERC20/ERC20.sol\":5192:5478  function transferFrom(... */\n    tag_53:\n        /* \"@openzeppelin/contracts@4.7.0/token/ERC20/ERC20.sol\":5319:5323  bool */\n      0x00\n        /* \"@openzeppelin/contracts@4.7.0/utils/Context.sol\":719:729  msg.sender */\n      caller\n        /* \"@openzeppelin/contracts@4.7.0/token/ERC20/ERC20.sol\":5375:5413  _spendAllowance(from, spender, amount) */\n      tag_149\n        /* \"@openzeppelin/contracts@4.7.0/token/ERC20/ERC20.sol\":5391:5395  from */\n      dup6\n        /* \"@openzeppelin/contracts@4.7.0/utils/Context.sol\":719:729  msg.sender */\n      dup3\n        /* \"@openzeppelin/contracts@4.7.0/token/ERC20/ERC20.sol\":5406:5412  amount */\n      dup6\n        /* \"@openzeppelin/contracts@4.7.0/token/ERC20/ERC20.sol\":5375:5390  _spendAllowance */\n      tag_150\n        /* \"@openzeppelin/contracts@4.7.0/token/ERC20/ERC20.sol\":5375:5413  _spendAllowance(from, spender, amount) */\n      jump\t// in\n    tag_149:\n        /* \"@openzeppelin/contracts@4.7.0/token/ERC20/ERC20.sol\":5423:5450  _transfer(from, to, amount) */\n      tag_151\n        /* \"@openzeppelin/contracts@4.7.0/token/ERC20/ERC20.sol\":5433:5437  from */\n      dup6\n        /* \"@openzeppelin/contracts@4.7.0/token/ERC20/ERC20.sol\":5439:5441  to */\n      dup6\n        /* \"@openzeppelin/contracts@4.7.0/token/ERC20/ERC20.sol\":5443:5449  amount */\n      dup6\n        /* \"@openzeppelin/contracts@4.7.0/token/ERC20/ERC20.sol\":5423:5432  _transfer */\n      tag_152\n        /* \"@openzeppelin/contracts@4.7.0/token/ERC20/ERC20.sol\":5423:5450  _transfer(from, to, amount) */\n      jump\t// in\n    tag_151:\n      pop\n        /* \"@openzeppelin/contracts@4.7.0/token/ERC20/ERC20.sol\":5467:5471  true */\n      0x01\n      swap5\n        /* \"@openzeppelin/contracts@4.7.0/token/ERC20/ERC20.sol\":5192:5478  function transferFrom(... */\n      swap4\n      pop\n      pop\n      pop\n      pop\n      jump\t// out\n        /* \"@openzeppelin/contracts@4.7.0/token/ERC20/ERC20.sol\":5873:6107  function increaseAllowance(address spender, uint256 addedValue) public virtual returns (bool) {... */\n    tag_63:\n        /* \"@openzeppelin/contracts@4.7.0/token/ERC20/ERC20.sol\":5961:5965  bool */\n      0x00\n        /* \"@openzeppelin/contracts@4.7.0/utils/Context.sol\":719:729  msg.sender */\n      caller\n        /* \"@openzeppelin/contracts@4.7.0/token/ERC20/ERC20.sol\":6015:6079  _approve(owner, spender, allowance(owner, spender) + addedValue) */\n      tag_144\n        /* \"@openzeppelin/contracts@4.7.0/utils/Context.sol\":719:729  msg.sender */\n      dup2\n        /* \"@openzeppelin/contracts@4.7.0/token/ERC20/ERC20.sol\":6031:6038  spender */\n      dup6\n        /* \"@openzeppelin/contracts@4.7.0/token/ERC20/ERC20.sol\":6068:6078  addedValue */\n      dup6\n        /* \"@openzeppelin/contracts@4.7.0/token/ERC20/ERC20.sol\":6040:6065  allowance(owner, spender) */\n      tag_157\n        /* \"@openzeppelin/contracts@4.7.0/utils/Context.sol\":719:729  msg.sender */\n      dup4\n        /* \"@openzeppelin/contracts@4.7.0/token/ERC20/ERC20.sol\":6031:6038  spender */\n      dup4\n        /* \"@openzeppelin/contracts@4.7.0/token/ERC20/ERC20.sol\":6040:6049  allowance */\n      tag_124\n        /* \"@openzeppelin/contracts@4.7.0/token/ERC20/ERC20.sol\":6040:6065  allowance(owner, spender) */\n      jump\t// in\n    tag_157:\n        /* \"@openzeppelin/contracts@4.7.0/token/ERC20/ERC20.sol\":6040:6078  allowance(owner, spender) + addedValue */\n      tag_158\n      swap2\n      swap1\n      tag_159\n      jump\t// in\n    tag_158:\n        /* \"@openzeppelin/contracts@4.7.0/token/ERC20/ERC20.sol\":6015:6023  _approve */\n      tag_145\n        /* \"@openzeppelin/contracts@4.7.0/token/ERC20/ERC20.sol\":6015:6079  _approve(owner, spender, allowance(owner, spender) + addedValue) */\n      jump\t// in\n        /* \"sosh/SSTAPE.sol\":1082:1390  function mintWithApe(uint256 tokenAmount, address aAWallet) public payable {... */\n    tag_68:\n        /* \"sosh/SSTAPE.sol\":1245:1252  1 ether */\n      0x0de0b6b3a7640000\n        /* \"sosh/SSTAPE.sol\":1204:1242  APE_MINT_PRICE_PER_TOKEN * tokenAmount */\n      tag_161\n        /* \"sosh/SSTAPE.sol\":1231:1242  tokenAmount */\n      dup4\n        /* \"sosh/SSTAPE.sol\":359:376  10000000000000000 */\n      0x2386f26fc10000\n        /* \"sosh/SSTAPE.sol\":1204:1242  APE_MINT_PRICE_PER_TOKEN * tokenAmount */\n      tag_162\n      jump\t// in\n    tag_161:\n        /* \"sosh/SSTAPE.sol\":1204:1252  APE_MINT_PRICE_PER_TOKEN * tokenAmount / 1 ether */\n      tag_163\n      swap2\n      swap1\n      tag_164\n      jump\t// in\n    tag_163:\n        /* \"sosh/SSTAPE.sol\":1175:1178  ape */\n      sload(0x06)\n        /* \"sosh/SSTAPE.sol\":1175:1200  ape.balanceOf(msg.sender) */\n      mload(0x40)\n      shl(0xe0, 0x70a08231)\n      dup2\n      mstore\n        /* \"sosh/SSTAPE.sol\":1189:1199  msg.sender */\n      caller\n        /* \"sosh/SSTAPE.sol\":1175:1200  ape.balanceOf(msg.sender) */\n      0x04\n      dup3\n      add\n        /* \"#utility.yul\":2509:2560   */\n      mstore\n      sub(shl(0xa0, 0x01), 0x01)\n        /* \"sosh/SSTAPE.sol\":1175:1178  ape */\n      swap1\n      swap2\n      and\n      swap1\n        /* \"sosh/SSTAPE.sol\":1175:1188  ape.balanceOf */\n      0x70a08231\n      swap1\n        /* \"#utility.yul\":2482:2500   */\n      0x24\n      add\n        /* \"sosh/SSTAPE.sol\":1175:1200  ape.balanceOf(msg.sender) */\n      0x20\n      mload(0x40)\n      dup1\n      dup4\n      sub\n      dup2\n      dup7\n      gas\n      staticcall\n      iszero\n      dup1\n      iszero\n      tag_167\n      jumpi\n      returndatasize\n      0x00\n      dup1\n      returndatacopy\n      revert(0x00, returndatasize)\n    tag_167:\n      pop\n      pop\n      pop\n      pop\n      mload(0x40)\n      returndatasize\n      not(0x1f)\n      0x1f\n      dup3\n      add\n      and\n      dup3\n      add\n      dup1\n      0x40\n      mstore\n      pop\n      dup2\n      add\n      swap1\n      tag_168\n      swap2\n      swap1\n      tag_169\n      jump\t// in\n    tag_168:\n        /* \"sosh/SSTAPE.sol\":1175:1252  ape.balanceOf(msg.sender) >= APE_MINT_PRICE_PER_TOKEN * tokenAmount / 1 ether */\n      lt\n      iszero\n        /* \"sosh/SSTAPE.sol\":1167:1278  require(ape.balanceOf(msg.sender) >= APE_MINT_PRICE_PER_TOKEN * tokenAmount / 1 ether, \"Insufficient APE sent\") */\n      tag_170\n      jumpi\n      mload(0x40)\n      shl(0xe5, 0x461bcd)\n      dup2\n      mstore\n        /* \"#utility.yul\":4477:4479   */\n      0x20\n        /* \"sosh/SSTAPE.sol\":1167:1278  require(ape.balanceOf(msg.sender) >= APE_MINT_PRICE_PER_TOKEN * tokenAmount / 1 ether, \"Insufficient APE sent\") */\n      0x04\n      dup3\n      add\n        /* \"#utility.yul\":4459:4480   */\n      mstore\n        /* \"#utility.yul\":4516:4518   */\n      0x15\n        /* \"#utility.yul\":4496:4514   */\n      0x24\n      dup3\n      add\n        /* \"#utility.yul\":4489:4519   */\n      mstore\n      shl(0x5a, 0x125b9cdd59999a58da595b9d08105411481cd95b9d)\n        /* \"#utility.yul\":4535:4553   */\n      0x44\n      dup3\n      add\n        /* \"#utility.yul\":4528:4579   */\n      mstore\n        /* \"#utility.yul\":4596:4614   */\n      0x64\n      add\n        /* \"sosh/SSTAPE.sol\":1167:1278  require(ape.balanceOf(msg.sender) >= APE_MINT_PRICE_PER_TOKEN * tokenAmount / 1 ether, \"Insufficient APE sent\") */\n    tag_171:\n      mload(0x40)\n      dup1\n      swap2\n      sub\n      swap1\n      revert\n    tag_170:\n        /* \"sosh/SSTAPE.sol\":1288:1291  ape */\n      sload(0x06)\n        /* \"sosh/SSTAPE.sol\":1288:1344  ape.transferFrom(msg.sender, address(this), tokenAmount) */\n      mload(0x40)\n      shl(0xe0, 0x23b872dd)\n      dup2\n      mstore\n        /* \"sosh/SSTAPE.sol\":1305:1315  msg.sender */\n      caller\n        /* \"sosh/SSTAPE.sol\":1288:1344  ape.transferFrom(msg.sender, address(this), tokenAmount) */\n      0x04\n      dup3\n      add\n        /* \"#utility.yul\":4865:4899   */\n      mstore\n        /* \"sosh/SSTAPE.sol\":1325:1329  this */\n      address\n        /* \"#utility.yul\":4915:4933   */\n      0x24\n      dup3\n      add\n        /* \"#utility.yul\":4908:4951   */\n      mstore\n        /* \"#utility.yul\":4967:4985   */\n      0x44\n      dup2\n      add\n        /* \"#utility.yul\":4960:4994   */\n      dup5\n      swap1\n      mstore\n      sub(shl(0xa0, 0x01), 0x01)\n        /* \"sosh/SSTAPE.sol\":1288:1291  ape */\n      swap1\n      swap2\n      and\n      swap1\n        /* \"sosh/SSTAPE.sol\":1288:1304  ape.transferFrom */\n      0x23b872dd\n      swap1\n        /* \"#utility.yul\":4800:4818   */\n      0x64\n      add\n        /* \"sosh/SSTAPE.sol\":1288:1344  ape.transferFrom(msg.sender, address(this), tokenAmount) */\n      0x20\n      mload(0x40)\n      dup1\n      dup4\n      sub\n      dup2\n      0x00\n      dup8\n      gas\n      call\n      iszero\n      dup1\n      iszero\n      tag_176\n      jumpi\n      returndatasize\n      0x00\n      dup1\n      returndatacopy\n      revert(0x00, returndatasize)\n    tag_176:\n      pop\n      pop\n      pop\n      pop\n      mload(0x40)\n      returndatasize\n      not(0x1f)\n      0x1f\n      dup3\n      add\n      and\n      dup3\n      add\n      dup1\n      0x40\n      mstore\n      pop\n      dup2\n      add\n      swap1\n      tag_177\n      swap2\n      swap1\n      tag_178\n      jump\t// in\n    tag_177:\n      pop\n        /* \"sosh/SSTAPE.sol\":1355:1383  _mint(aAWallet, tokenAmount) */\n      tag_179\n        /* \"sosh/SSTAPE.sol\":1361:1369  aAWallet */\n      dup2\n        /* \"sosh/SSTAPE.sol\":1371:1382  tokenAmount */\n      dup4\n        /* \"sosh/SSTAPE.sol\":1355:1360  _mint */\n      tag_180\n        /* \"sosh/SSTAPE.sol\":1355:1383  _mint(aAWallet, tokenAmount) */\n      jump\t// in\n    tag_179:\n        /* \"sosh/SSTAPE.sol\":1082:1390  function mintWithApe(uint256 tokenAmount, address aAWallet) public payable {... */\n      pop\n      pop\n      jump\t// out\n        /* \"sosh/SSTAPE.sol\":1959:2756  function mintWithGasTap(uint256 tokenAmount, address aAWallet) public payable {... */\n    tag_71:\n        /* \"sosh/SSTAPE.sol\":2047:2068  uint256 totalMintCost */\n      0x00\n        /* \"sosh/SSTAPE.sol\":2108:2115  1 ether */\n      0x0de0b6b3a7640000\n        /* \"sosh/SSTAPE.sol\":2071:2105  MINT_PRICE_PER_TOKEN * tokenAmount */\n      tag_182\n        /* \"sosh/SSTAPE.sol\":2094:2105  tokenAmount */\n      dup5\n        /* \"sosh/SSTAPE.sol\":264:279  675000000000000 */\n      0x0265e8af393000\n        /* \"sosh/SSTAPE.sol\":2071:2105  MINT_PRICE_PER_TOKEN * tokenAmount */\n      tag_162\n      jump\t// in\n    tag_182:\n        /* \"sosh/SSTAPE.sol\":2071:2115  MINT_PRICE_PER_TOKEN * tokenAmount / 1 ether */\n      tag_183\n      swap2\n      swap1\n      tag_164\n      jump\t// in\n    tag_183:\n        /* \"sosh/SSTAPE.sol\":2047:2115  uint256 totalMintCost = MINT_PRICE_PER_TOKEN * tokenAmount / 1 ether */\n      swap1\n      pop\n        /* \"sosh/SSTAPE.sol\":2125:2139  uint256 gasFee */\n      0x00\n        /* \"sosh/SSTAPE.sol\":2172:2179  1 ether */\n      0x0de0b6b3a7640000\n        /* \"sosh/SSTAPE.sol\":2142:2169  totalMintCost * GAS_FEE_TAP */\n      tag_184\n        /* \"sosh/SSTAPE.sol\":439:449  0.02 ether */\n      0x470de4df820000\n        /* \"sosh/SSTAPE.sol\":2047:2115  uint256 totalMintCost = MINT_PRICE_PER_TOKEN * tokenAmount / 1 ether */\n      dup5\n        /* \"sosh/SSTAPE.sol\":2142:2169  totalMintCost * GAS_FEE_TAP */\n      tag_162\n      jump\t// in\n    tag_184:\n        /* \"sosh/SSTAPE.sol\":2142:2179  totalMintCost * GAS_FEE_TAP / 1 ether */\n      tag_185\n      swap2\n      swap1\n      tag_164\n      jump\t// in\n    tag_185:\n        /* \"sosh/SSTAPE.sol\":2125:2179  uint256 gasFee = totalMintCost * GAS_FEE_TAP / 1 ether */\n      swap1\n      pop\n        /* \"sosh/SSTAPE.sol\":2255:2277  totalMintCost + gasFee */\n      tag_186\n        /* \"sosh/SSTAPE.sol\":2125:2179  uint256 gasFee = totalMintCost * GAS_FEE_TAP / 1 ether */\n      dup2\n        /* \"sosh/SSTAPE.sol\":2255:2268  totalMintCost */\n      dup4\n        /* \"sosh/SSTAPE.sol\":2255:2277  totalMintCost + gasFee */\n      tag_159\n      jump\t// in\n    tag_186:\n        /* \"sosh/SSTAPE.sol\":2242:2251  msg.value */\n      callvalue\n        /* \"sosh/SSTAPE.sol\":2242:2277  msg.value >= totalMintCost + gasFee */\n      lt\n      iszero\n        /* \"sosh/SSTAPE.sol\":2234:2303  require(msg.value >= totalMintCost + gasFee, \"Insufficient ETH sent\") */\n      tag_187\n      jumpi\n      mload(0x40)\n      shl(0xe5, 0x461bcd)\n      dup2\n      mstore\n        /* \"#utility.yul\":5489:5491   */\n      0x20\n        /* \"sosh/SSTAPE.sol\":2234:2303  require(msg.value >= totalMintCost + gasFee, \"Insufficient ETH sent\") */\n      0x04\n      dup3\n      add\n        /* \"#utility.yul\":5471:5492   */\n      mstore\n        /* \"#utility.yul\":5528:5530   */\n      0x15\n        /* \"#utility.yul\":5508:5526   */\n      0x24\n      dup3\n      add\n        /* \"#utility.yul\":5501:5531   */\n      mstore\n      shl(0x5a, 0x125b9cdd59999a58da595b9d08115512081cd95b9d)\n        /* \"#utility.yul\":5547:5565   */\n      0x44\n      dup3\n      add\n        /* \"#utility.yul\":5540:5591   */\n      mstore\n        /* \"#utility.yul\":5608:5626   */\n      0x64\n      add\n        /* \"sosh/SSTAPE.sol\":2234:2303  require(msg.value >= totalMintCost + gasFee, \"Insufficient ETH sent\") */\n      tag_171\n        /* \"#utility.yul\":5287:5632   */\n      jump\n        /* \"sosh/SSTAPE.sol\":2234:2303  require(msg.value >= totalMintCost + gasFee, \"Insufficient ETH sent\") */\n    tag_187:\n        /* \"sosh/SSTAPE.sol\":2315:2343  _mint(aAWallet, tokenAmount) */\n      tag_190\n        /* \"sosh/SSTAPE.sol\":2321:2329  aAWallet */\n      dup4\n        /* \"sosh/SSTAPE.sol\":2331:2342  tokenAmount */\n      dup6\n        /* \"sosh/SSTAPE.sol\":2315:2320  _mint */\n      tag_180\n        /* \"sosh/SSTAPE.sol\":2315:2343  _mint(aAWallet, tokenAmount) */\n      jump\t// in\n    tag_190:\n        /* \"sosh/SSTAPE.sol\":2363:2376  bool success1 */\n      0x00\n        /* \"sosh/SSTAPE.sol\":2390:2398  aAWallet */\n      dup4\n      sub(shl(0xa0, 0x01), 0x01)\n        /* \"sosh/SSTAPE.sol\":2382:2404  payable(aAWallet).call */\n      and\n        /* \"sosh/SSTAPE.sol\":2413:2419  gasFee */\n      dup3\n        /* \"sosh/SSTAPE.sol\":2382:2425  payable(aAWallet).call{value: (gasFee)}(\"\") */\n      mload(0x40)\n      0x00\n      mload(0x40)\n      dup1\n      dup4\n      sub\n      dup2\n      dup6\n      dup8\n      gas\n      call\n      swap3\n      pop\n      pop\n      pop\n      returndatasize\n      dup1\n      0x00\n      dup2\n      eq\n      tag_195\n      jumpi\n      mload(0x40)\n      swap2\n      pop\n      and(add(returndatasize, 0x3f), not(0x1f))\n      dup3\n      add\n      0x40\n      mstore\n      returndatasize\n      dup3\n      mstore\n      returndatasize\n      0x00\n      0x20\n      dup5\n      add\n      returndatacopy\n      jump(tag_194)\n    tag_195:\n      0x60\n      swap2\n      pop\n    tag_194:\n      pop\n        /* \"sosh/SSTAPE.sol\":2362:2425  (bool success1, ) = payable(aAWallet).call{value: (gasFee)}(\"\") */\n      pop\n      swap1\n      pop\n        /* \"sosh/SSTAPE.sol\":2443:2451  success1 */\n      dup1\n        /* \"sosh/SSTAPE.sol\":2435:2474  require(success1, \"Unable to send gas\") */\n      tag_196\n      jumpi\n      mload(0x40)\n      shl(0xe5, 0x461bcd)\n      dup2\n      mstore\n        /* \"#utility.yul\":6049:6051   */\n      0x20\n        /* \"sosh/SSTAPE.sol\":2435:2474  require(success1, \"Unable to send gas\") */\n      0x04\n      dup3\n      add\n        /* \"#utility.yul\":6031:6052   */\n      mstore\n        /* \"#utility.yul\":6088:6090   */\n      0x12\n        /* \"#utility.yul\":6068:6086   */\n      0x24\n      dup3\n      add\n        /* \"#utility.yul\":6061:6091   */\n      mstore\n      shl(0x70, 0x556e61626c6520746f2073656e6420676173)\n        /* \"#utility.yul\":6107:6125   */\n      0x44\n      dup3\n      add\n        /* \"#utility.yul\":6100:6148   */\n      mstore\n        /* \"#utility.yul\":6165:6183   */\n      0x64\n      add\n        /* \"sosh/SSTAPE.sol\":2435:2474  require(success1, \"Unable to send gas\") */\n      tag_171\n        /* \"#utility.yul\":5847:6189   */\n      jump\n        /* \"sosh/SSTAPE.sol\":2435:2474  require(success1, \"Unable to send gas\") */\n    tag_196:\n        /* \"sosh/SSTAPE.sol\":2546:2568  totalMintCost + gasFee */\n      tag_199\n        /* \"sosh/SSTAPE.sol\":2562:2568  gasFee */\n      dup3\n        /* \"sosh/SSTAPE.sol\":2546:2559  totalMintCost */\n      dup5\n        /* \"sosh/SSTAPE.sol\":2546:2568  totalMintCost + gasFee */\n      tag_159\n      jump\t// in\n    tag_199:\n        /* \"sosh/SSTAPE.sol\":2534:2543  msg.value */\n      callvalue\n        /* \"sosh/SSTAPE.sol\":2534:2568  msg.value > totalMintCost + gasFee */\n      gt\n        /* \"sosh/SSTAPE.sol\":2530:2750  if (msg.value > totalMintCost + gasFee) {... */\n      iszero\n      tag_200\n      jumpi\n        /* \"sosh/SSTAPE.sol\":2585:2601  bool successBack */\n      0x00\n        /* \"sosh/SSTAPE.sol\":2615:2625  msg.sender */\n      caller\n        /* \"sosh/SSTAPE.sol\":2666:2672  gasFee */\n      dup4\n        /* \"sosh/SSTAPE.sol\":2638:2663  msg.value - totalMintCost */\n      tag_201\n        /* \"sosh/SSTAPE.sol\":2650:2663  totalMintCost */\n      dup7\n        /* \"sosh/SSTAPE.sol\":2638:2647  msg.value */\n      callvalue\n        /* \"sosh/SSTAPE.sol\":2638:2663  msg.value - totalMintCost */\n      tag_202\n      jump\t// in\n    tag_201:\n        /* \"sosh/SSTAPE.sol\":2638:2672  msg.value - totalMintCost + gasFee */\n      tag_203\n      swap2\n      swap1\n      tag_159\n      jump\t// in\n    tag_203:\n        /* \"sosh/SSTAPE.sol\":2607:2677  payable(msg.sender).call{value:msg.value - totalMintCost + gasFee}(\"\") */\n      mload(0x40)\n      0x00\n      dup2\n      dup2\n      dup2\n      dup6\n      dup8\n      gas\n      call\n      swap3\n      pop\n      pop\n      pop\n      returndatasize\n      dup1\n      0x00\n      dup2\n      eq\n      tag_207\n      jumpi\n      mload(0x40)\n      swap2\n      pop\n      and(add(returndatasize, 0x3f), not(0x1f))\n      dup3\n      add\n      0x40\n      mstore\n      returndatasize\n      dup3\n      mstore\n      returndatasize\n      0x00\n      0x20\n      dup5\n      add\n      returndatacopy\n      jump(tag_206)\n    tag_207:\n      0x60\n      swap2\n      pop\n    tag_206:\n      pop\n        /* \"sosh/SSTAPE.sol\":2584:2677  (bool successBack, ) = payable(msg.sender).call{value:msg.value - totalMintCost + gasFee}(\"\") */\n      pop\n      swap1\n      pop\n        /* \"sosh/SSTAPE.sol\":2699:2710  successBack */\n      dup1\n        /* \"sosh/SSTAPE.sol\":2691:2739  require(successBack, \"Unable to send back fund\") */\n      tag_208\n      jumpi\n      mload(0x40)\n      shl(0xe5, 0x461bcd)\n      dup2\n      mstore\n        /* \"#utility.yul\":6529:6531   */\n      0x20\n        /* \"sosh/SSTAPE.sol\":2691:2739  require(successBack, \"Unable to send back fund\") */\n      0x04\n      dup3\n      add\n        /* \"#utility.yul\":6511:6532   */\n      mstore\n        /* \"#utility.yul\":6568:6570   */\n      0x18\n        /* \"#utility.yul\":6548:6566   */\n      0x24\n      dup3\n      add\n        /* \"#utility.yul\":6541:6571   */\n      mstore\n        /* \"#utility.yul\":6607:6633   */\n      0x556e61626c6520746f2073656e64206261636b2066756e640000000000000000\n        /* \"#utility.yul\":6587:6605   */\n      0x44\n      dup3\n      add\n        /* \"#utility.yul\":6580:6634   */\n      mstore\n        /* \"#utility.yul\":6651:6669   */\n      0x64\n      add\n        /* \"sosh/SSTAPE.sol\":2691:2739  require(successBack, \"Unable to send back fund\") */\n      tag_171\n        /* \"#utility.yul\":6327:6675   */\n      jump\n        /* \"sosh/SSTAPE.sol\":2691:2739  require(successBack, \"Unable to send back fund\") */\n    tag_208:\n        /* \"sosh/SSTAPE.sol\":2570:2750  {... */\n      pop\n        /* \"sosh/SSTAPE.sol\":2530:2750  if (msg.value > totalMintCost + gasFee) {... */\n    tag_200:\n        /* \"sosh/SSTAPE.sol\":2037:2756  {... */\n      pop\n      pop\n      pop\n        /* \"sosh/SSTAPE.sol\":1959:2756  function mintWithGasTap(uint256 tokenAmount, address aAWallet) public payable {... */\n      pop\n      pop\n      jump\t// out\n        /* \"sosh/SSTAPE.sol\":1452:1876  function burnWithApe(uint256 amount, address destinationAddress) public {... */\n    tag_75:\n        /* \"sosh/SSTAPE.sol\":1552:1562  msg.sender */\n      caller\n        /* \"@openzeppelin/contracts@4.7.0/token/ERC20/ERC20.sol\":3482:3489  uint256 */\n      0x00\n        /* \"@openzeppelin/contracts@4.7.0/token/ERC20/ERC20.sol\":3508:3526  _balances[account] */\n      swap1\n      dup2\n      mstore\n      0x20\n      dup2\n      swap1\n      mstore\n      0x40\n      swap1\n      keccak256\n      sload\n        /* \"sosh/SSTAPE.sol\":1567:1573  amount */\n      dup3\n      gt\n        /* \"sosh/SSTAPE.sol\":1542:1573  balanceOf(msg.sender) >= amount */\n      iszero\n        /* \"sosh/SSTAPE.sol\":1534:1609  require(balanceOf(msg.sender) >= amount, \"Insufficient SST tokens to burn\") */\n      tag_213\n      jumpi\n      mload(0x40)\n      shl(0xe5, 0x461bcd)\n      dup2\n      mstore\n        /* \"#utility.yul\":6882:6884   */\n      0x20\n        /* \"sosh/SSTAPE.sol\":1534:1609  require(balanceOf(msg.sender) >= amount, \"Insufficient SST tokens to burn\") */\n      0x04\n      dup3\n      add\n        /* \"#utility.yul\":6864:6885   */\n      mstore\n        /* \"#utility.yul\":6921:6923   */\n      0x1f\n        /* \"#utility.yul\":6901:6919   */\n      0x24\n      dup3\n      add\n        /* \"#utility.yul\":6894:6924   */\n      mstore\n        /* \"#utility.yul\":6960:6993   */\n      0x496e73756666696369656e742053535420746f6b656e7320746f206275726e00\n        /* \"#utility.yul\":6940:6958   */\n      0x44\n      dup3\n      add\n        /* \"#utility.yul\":6933:6994   */\n      mstore\n        /* \"#utility.yul\":7011:7029   */\n      0x64\n      add\n        /* \"sosh/SSTAPE.sol\":1534:1609  require(balanceOf(msg.sender) >= amount, \"Insufficient SST tokens to burn\") */\n      tag_171\n        /* \"#utility.yul\":6680:7035   */\n      jump\n        /* \"sosh/SSTAPE.sol\":1534:1609  require(balanceOf(msg.sender) >= amount, \"Insufficient SST tokens to burn\") */\n    tag_213:\n        /* \"sosh/SSTAPE.sol\":1619:1644  _burn(msg.sender, amount) */\n      tag_216\n        /* \"sosh/SSTAPE.sol\":1625:1635  msg.sender */\n      caller\n        /* \"sosh/SSTAPE.sol\":1637:1643  amount */\n      dup4\n        /* \"sosh/SSTAPE.sol\":1619:1624  _burn */\n      tag_217\n        /* \"sosh/SSTAPE.sol\":1619:1644  _burn(msg.sender, amount) */\n      jump\t// in\n    tag_216:\n        /* \"sosh/SSTAPE.sol\":1655:1672  uint256 apeAmount */\n      0x00\n        /* \"sosh/SSTAPE.sol\":1711:1718  1 ether */\n      0x0de0b6b3a7640000\n        /* \"sosh/SSTAPE.sol\":1675:1708  amount * APE_MINT_PRICE_PER_TOKEN */\n      tag_218\n        /* \"sosh/SSTAPE.sol\":359:376  10000000000000000 */\n      0x2386f26fc10000\n        /* \"sosh/SSTAPE.sol\":1675:1681  amount */\n      dup6\n        /* \"sosh/SSTAPE.sol\":1675:1708  amount * APE_MINT_PRICE_PER_TOKEN */\n      tag_162\n      jump\t// in\n    tag_218:\n        /* \"sosh/SSTAPE.sol\":1675:1718  amount * APE_MINT_PRICE_PER_TOKEN / 1 ether */\n      tag_219\n      swap2\n      swap1\n      tag_164\n      jump\t// in\n    tag_219:\n        /* \"sosh/SSTAPE.sol\":1736:1739  ape */\n      sload(0x06)\n        /* \"sosh/SSTAPE.sol\":1736:1764  ape.balanceOf(address(this)) */\n      mload(0x40)\n      shl(0xe0, 0x70a08231)\n      dup2\n      mstore\n        /* \"sosh/SSTAPE.sol\":1758:1762  this */\n      address\n        /* \"sosh/SSTAPE.sol\":1736:1764  ape.balanceOf(address(this)) */\n      0x04\n      dup3\n      add\n        /* \"#utility.yul\":2509:2560   */\n      mstore\n        /* \"sosh/SSTAPE.sol\":1655:1718  uint256 apeAmount = amount * APE_MINT_PRICE_PER_TOKEN / 1 ether */\n      swap2\n      swap3\n      pop\n      dup3\n      swap2\n      sub(shl(0xa0, 0x01), 0x01)\n        /* \"sosh/SSTAPE.sol\":1736:1739  ape */\n      swap1\n      swap2\n      and\n      swap1\n        /* \"sosh/SSTAPE.sol\":1736:1749  ape.balanceOf */\n      0x70a08231\n      swap1\n        /* \"#utility.yul\":2482:2500   */\n      0x24\n      add\n        /* \"sosh/SSTAPE.sol\":1736:1764  ape.balanceOf(address(this)) */\n      0x20\n      mload(0x40)\n      dup1\n      dup4\n      sub\n      dup2\n      dup7\n      gas\n      staticcall\n      iszero\n      dup1\n      iszero\n      tag_222\n      jumpi\n      returndatasize\n      0x00\n      dup1\n      returndatacopy\n      revert(0x00, returndatasize)\n    tag_222:\n      pop\n      pop\n      pop\n      pop\n      mload(0x40)\n      returndatasize\n      not(0x1f)\n      0x1f\n      dup3\n      add\n      and\n      dup3\n      add\n      dup1\n      0x40\n      mstore\n      pop\n      dup2\n      add\n      swap1\n      tag_223\n      swap2\n      swap1\n      tag_169\n      jump\t// in\n    tag_223:\n        /* \"sosh/SSTAPE.sol\":1736:1777  ape.balanceOf(address(this)) >= apeAmount */\n      lt\n      iszero\n        /* \"sosh/SSTAPE.sol\":1728:1815  require(ape.balanceOf(address(this)) >= apeAmount, \"Contract does not have enough APE\") */\n      tag_224\n      jumpi\n      mload(0x40)\n      shl(0xe5, 0x461bcd)\n      dup2\n      mstore\n        /* \"#utility.yul\":7242:7244   */\n      0x20\n        /* \"sosh/SSTAPE.sol\":1728:1815  require(ape.balanceOf(address(this)) >= apeAmount, \"Contract does not have enough APE\") */\n      0x04\n      dup3\n      add\n        /* \"#utility.yul\":7224:7245   */\n      mstore\n        /* \"#utility.yul\":7281:7283   */\n      0x21\n        /* \"#utility.yul\":7261:7279   */\n      0x24\n      dup3\n      add\n        /* \"#utility.yul\":7254:7284   */\n      mstore\n        /* \"#utility.yul\":7320:7354   */\n      0x436f6e747261637420646f6573206e6f74206861766520656e6f756768204150\n        /* \"#utility.yul\":7300:7318   */\n      0x44\n      dup3\n      add\n        /* \"#utility.yul\":7293:7355   */\n      mstore\n      shl(0xf8, 0x45)\n        /* \"#utility.yul\":7371:7389   */\n      0x64\n      dup3\n      add\n        /* \"#utility.yul\":7364:7395   */\n      mstore\n        /* \"#utility.yul\":7412:7431   */\n      0x84\n      add\n        /* \"sosh/SSTAPE.sol\":1728:1815  require(ape.balanceOf(address(this)) >= apeAmount, \"Contract does not have enough APE\") */\n      tag_171\n        /* \"#utility.yul\":7040:7437   */\n      jump\n        /* \"sosh/SSTAPE.sol\":1728:1815  require(ape.balanceOf(address(this)) >= apeAmount, \"Contract does not have enough APE\") */\n    tag_224:\n        /* \"sosh/SSTAPE.sol\":1826:1829  ape */\n      sload(0x06)\n        /* \"sosh/SSTAPE.sol\":1826:1869  ape.transfer(destinationAddress, apeAmount) */\n      mload(0x40)\n      shl(0xe0, 0xa9059cbb)\n      dup2\n      mstore\n      sub(shl(0xa0, 0x01), 0x01)\n        /* \"#utility.yul\":7634:7666   */\n      dup5\n      dup2\n      and\n        /* \"sosh/SSTAPE.sol\":1826:1869  ape.transfer(destinationAddress, apeAmount) */\n      0x04\n      dup4\n      add\n        /* \"#utility.yul\":7616:7667   */\n      mstore\n        /* \"#utility.yul\":7683:7701   */\n      0x24\n      dup3\n      add\n        /* \"#utility.yul\":7676:7710   */\n      dup5\n      swap1\n      mstore\n        /* \"sosh/SSTAPE.sol\":1826:1829  ape */\n      swap1\n      swap2\n      and\n      swap1\n        /* \"sosh/SSTAPE.sol\":1826:1838  ape.transfer */\n      0xa9059cbb\n      swap1\n        /* \"#utility.yul\":7589:7607   */\n      0x44\n      add\n        /* \"sosh/SSTAPE.sol\":1826:1869  ape.transfer(destinationAddress, apeAmount) */\n      0x20\n      mload(0x40)\n      dup1\n      dup4\n      sub\n      dup2\n      0x00\n      dup8\n      gas\n      call\n      iszero\n      dup1\n      iszero\n      tag_230\n      jumpi\n      returndatasize\n      0x00\n      dup1\n      returndatacopy\n      revert(0x00, returndatasize)\n    tag_230:\n      pop\n      pop\n      pop\n      pop\n      mload(0x40)\n      returndatasize\n      not(0x1f)\n      0x1f\n      dup3\n      add\n      and\n      dup3\n      add\n      dup1\n      0x40\n      mstore\n      pop\n      dup2\n      add\n      swap1\n      tag_231\n      swap2\n      swap1\n      tag_178\n      jump\t// in\n    tag_231:\n      pop\n        /* \"sosh/SSTAPE.sol\":1524:1876  {... */\n      pop\n        /* \"sosh/SSTAPE.sol\":1452:1876  function burnWithApe(uint256 amount, address destinationAddress) public {... */\n      pop\n      pop\n      jump\t// out\n        /* \"@openzeppelin/contracts@4.7.0/access/Ownable.sol\":1831:1932  function renounceOwnership() public virtual onlyOwner {... */\n    tag_88:\n        /* \"@openzeppelin/contracts@4.7.0/access/Ownable.sol\":1094:1107  _checkOwner() */\n      tag_234\n        /* \"@openzeppelin/contracts@4.7.0/access/Ownable.sol\":1094:1105  _checkOwner */\n      tag_235\n        /* \"@openzeppelin/contracts@4.7.0/access/Ownable.sol\":1094:1107  _checkOwner() */\n      jump\t// in\n    tag_234:\n        /* \"@openzeppelin/contracts@4.7.0/access/Ownable.sol\":1895:1925  _transferOwnership(address(0)) */\n      tag_237\n        /* \"@openzeppelin/contracts@4.7.0/access/Ownable.sol\":1922:1923  0 */\n      0x00\n        /* \"@openzeppelin/contracts@4.7.0/access/Ownable.sol\":1895:1913  _transferOwnership */\n      tag_238\n        /* \"@openzeppelin/contracts@4.7.0/access/Ownable.sol\":1895:1925  _transferOwnership(address(0)) */\n      jump\t// in\n    tag_237:\n        /* \"@openzeppelin/contracts@4.7.0/access/Ownable.sol\":1831:1932  function renounceOwnership() public virtual onlyOwner {... */\n      jump\t// out\n        /* \"sosh/SSTAPE.sol\":645:1076  function mint(uint256 tokenAmount, address aAWallet) public payable {... */\n    tag_101:\n        /* \"sosh/SSTAPE.sol\":781:788  1 ether */\n      0x0de0b6b3a7640000\n        /* \"sosh/SSTAPE.sol\":744:778  MINT_PRICE_PER_TOKEN * tokenAmount */\n      tag_241\n        /* \"sosh/SSTAPE.sol\":767:778  tokenAmount */\n      dup4\n        /* \"sosh/SSTAPE.sol\":264:279  675000000000000 */\n      0x0265e8af393000\n        /* \"sosh/SSTAPE.sol\":744:778  MINT_PRICE_PER_TOKEN * tokenAmount */\n      tag_162\n      jump\t// in\n    tag_241:\n        /* \"sosh/SSTAPE.sol\":744:788  MINT_PRICE_PER_TOKEN * tokenAmount / 1 ether */\n      tag_242\n      swap2\n      swap1\n      tag_164\n      jump\t// in\n    tag_242:\n        /* \"sosh/SSTAPE.sol\":731:740  msg.value */\n      callvalue\n        /* \"sosh/SSTAPE.sol\":731:788  msg.value >= MINT_PRICE_PER_TOKEN * tokenAmount / 1 ether */\n      lt\n      iszero\n        /* \"sosh/SSTAPE.sol\":723:814  require(msg.value >= MINT_PRICE_PER_TOKEN * tokenAmount / 1 ether, \"Insufficient ETH sent\") */\n      tag_243\n      jumpi\n      mload(0x40)\n      shl(0xe5, 0x461bcd)\n      dup2\n      mstore\n        /* \"#utility.yul\":5489:5491   */\n      0x20\n        /* \"sosh/SSTAPE.sol\":723:814  require(msg.value >= MINT_PRICE_PER_TOKEN * tokenAmount / 1 ether, \"Insufficient ETH sent\") */\n      0x04\n      dup3\n      add\n        /* \"#utility.yul\":5471:5492   */\n      mstore\n        /* \"#utility.yul\":5528:5530   */\n      0x15\n        /* \"#utility.yul\":5508:5526   */\n      0x24\n      dup3\n      add\n        /* \"#utility.yul\":5501:5531   */\n      mstore\n      shl(0x5a, 0x125b9cdd59999a58da595b9d08115512081cd95b9d)\n        /* \"#utility.yul\":5547:5565   */\n      0x44\n      dup3\n      add\n        /* \"#utility.yul\":5540:5591   */\n      mstore\n        /* \"#utility.yul\":5608:5626   */\n      0x64\n      add\n        /* \"sosh/SSTAPE.sol\":723:814  require(msg.value >= MINT_PRICE_PER_TOKEN * tokenAmount / 1 ether, \"Insufficient ETH sent\") */\n      tag_171\n        /* \"#utility.yul\":5287:5632   */\n      jump\n        /* \"sosh/SSTAPE.sol\":723:814  require(msg.value >= MINT_PRICE_PER_TOKEN * tokenAmount / 1 ether, \"Insufficient ETH sent\") */\n    tag_243:\n        /* \"sosh/SSTAPE.sol\":825:853  _mint(aAWallet, tokenAmount) */\n      tag_245\n        /* \"sosh/SSTAPE.sol\":831:839  aAWallet */\n      dup2\n        /* \"sosh/SSTAPE.sol\":841:852  tokenAmount */\n      dup4\n        /* \"sosh/SSTAPE.sol\":825:830  _mint */\n      tag_180\n        /* \"sosh/SSTAPE.sol\":825:853  _mint(aAWallet, tokenAmount) */\n      jump\t// in\n    tag_245:\n        /* \"sosh/SSTAPE.sol\":933:967  MINT_PRICE_PER_TOKEN * tokenAmount */\n      tag_246\n        /* \"sosh/SSTAPE.sol\":956:967  tokenAmount */\n      dup3\n        /* \"sosh/SSTAPE.sol\":264:279  675000000000000 */\n      0x0265e8af393000\n        /* \"sosh/SSTAPE.sol\":933:967  MINT_PRICE_PER_TOKEN * tokenAmount */\n      tag_162\n      jump\t// in\n    tag_246:\n        /* \"sosh/SSTAPE.sol\":921:930  msg.value */\n      callvalue\n        /* \"sosh/SSTAPE.sol\":921:967  msg.value > MINT_PRICE_PER_TOKEN * tokenAmount */\n      gt\n        /* \"sosh/SSTAPE.sol\":917:1070  if (msg.value > MINT_PRICE_PER_TOKEN * tokenAmount) {... */\n      iszero\n      tag_179\n      jumpi\n        /* \"sosh/SSTAPE.sol\":991:1001  msg.sender */\n      caller\n        /* \"sosh/SSTAPE.sol\":983:1059  payable(msg.sender).transfer(msg.value - MINT_PRICE_PER_TOKEN * tokenAmount) */\n      0x08fc\n        /* \"sosh/SSTAPE.sol\":1024:1058  MINT_PRICE_PER_TOKEN * tokenAmount */\n      tag_248\n        /* \"sosh/SSTAPE.sol\":1047:1058  tokenAmount */\n      dup5\n        /* \"sosh/SSTAPE.sol\":264:279  675000000000000 */\n      0x0265e8af393000\n        /* \"sosh/SSTAPE.sol\":1024:1058  MINT_PRICE_PER_TOKEN * tokenAmount */\n      tag_162\n      jump\t// in\n    tag_248:\n        /* \"sosh/SSTAPE.sol\":1012:1058  msg.value - MINT_PRICE_PER_TOKEN * tokenAmount */\n      tag_249\n      swap1\n        /* \"sosh/SSTAPE.sol\":1012:1021  msg.value */\n      callvalue\n        /* \"sosh/SSTAPE.sol\":1012:1058  msg.value - MINT_PRICE_PER_TOKEN * tokenAmount */\n      tag_202\n      jump\t// in\n    tag_249:\n        /* \"sosh/SSTAPE.sol\":983:1059  payable(msg.sender).transfer(msg.value - MINT_PRICE_PER_TOKEN * tokenAmount) */\n      mload(0x40)\n      dup2\n      iszero\n      swap1\n      swap3\n      mul\n      swap2\n      0x00\n      dup2\n      dup2\n      dup2\n      dup6\n      dup9\n      dup9\n      call\n      swap4\n      pop\n      pop\n      pop\n      pop\n      iszero\n      dup1\n      iszero\n      tag_251\n      jumpi\n      returndatasize\n      0x00\n      dup1\n      returndatacopy\n      revert(0x00, returndatasize)\n    tag_251:\n      pop\n        /* \"sosh/SSTAPE.sol\":645:1076  function mint(uint256 tokenAmount, address aAWallet) public payable {... */\n      pop\n      pop\n      jump\t// out\n        /* \"@openzeppelin/contracts@4.7.0/token/ERC20/ERC20.sol\":2367:2469  function symbol() public view virtual override returns (string memory) {... */\n    tag_104:\n        /* \"@openzeppelin/contracts@4.7.0/token/ERC20/ERC20.sol\":2423:2436  string memory */\n      0x60\n        /* \"@openzeppelin/contracts@4.7.0/token/ERC20/ERC20.sol\":2455:2462  _symbol */\n      0x04\n        /* \"@openzeppelin/contracts@4.7.0/token/ERC20/ERC20.sol\":2448:2462  return _symbol */\n      dup1\n      sload\n      tag_135\n      swap1\n      tag_136\n      jump\t// in\n        /* \"@openzeppelin/contracts@4.7.0/token/ERC20/ERC20.sol\":6594:7021  function decreaseAllowance(address spender, uint256 subtractedValue) public virtual returns (bool) {... */\n    tag_113:\n        /* \"@openzeppelin/contracts@4.7.0/token/ERC20/ERC20.sol\":6687:6691  bool */\n      0x00\n        /* \"@openzeppelin/contracts@4.7.0/utils/Context.sol\":719:729  msg.sender */\n      caller\n        /* \"@openzeppelin/contracts@4.7.0/token/ERC20/ERC20.sol\":6687:6691  bool */\n      dup2\n        /* \"@openzeppelin/contracts@4.7.0/token/ERC20/ERC20.sol\":6768:6793  allowance(owner, spender) */\n      tag_260\n        /* \"@openzeppelin/contracts@4.7.0/utils/Context.sol\":719:729  msg.sender */\n      dup3\n        /* \"@openzeppelin/contracts@4.7.0/token/ERC20/ERC20.sol\":6785:6792  spender */\n      dup7\n        /* \"@openzeppelin/contracts@4.7.0/token/ERC20/ERC20.sol\":6768:6777  allowance */\n      tag_124\n        /* \"@openzeppelin/contracts@4.7.0/token/ERC20/ERC20.sol\":6768:6793  allowance(owner, spender) */\n      jump\t// in\n    tag_260:\n        /* \"@openzeppelin/contracts@4.7.0/token/ERC20/ERC20.sol\":6741:6793  uint256 currentAllowance = allowance(owner, spender) */\n      swap1\n      pop\n        /* \"@openzeppelin/contracts@4.7.0/token/ERC20/ERC20.sol\":6831:6846  subtractedValue */\n      dup4\n        /* \"@openzeppelin/contracts@4.7.0/token/ERC20/ERC20.sol\":6811:6827  currentAllowance */\n      dup2\n        /* \"@openzeppelin/contracts@4.7.0/token/ERC20/ERC20.sol\":6811:6846  currentAllowance >= subtractedValue */\n      lt\n      iszero\n        /* \"@openzeppelin/contracts@4.7.0/token/ERC20/ERC20.sol\":6803:6888  require(currentAllowance >= subtractedValue, \"ERC20: decreased allowance below zero\") */\n      tag_261\n      jumpi\n      mload(0x40)\n      shl(0xe5, 0x461bcd)\n      dup2\n      mstore\n        /* \"#utility.yul\":7923:7925   */\n      0x20\n        /* \"@openzeppelin/contracts@4.7.0/token/ERC20/ERC20.sol\":6803:6888  require(currentAllowance >= subtractedValue, \"ERC20: decreased allowance below zero\") */\n      0x04\n      dup3\n      add\n        /* \"#utility.yul\":7905:7926   */\n      mstore\n        /* \"#utility.yul\":7962:7964   */\n      0x25\n        /* \"#utility.yul\":7942:7960   */\n      0x24\n      dup3\n      add\n        /* \"#utility.yul\":7935:7965   */\n      mstore\n        /* \"#utility.yul\":8001:8035   */\n      0x45524332303a2064656372656173656420616c6c6f77616e63652062656c6f77\n        /* \"#utility.yul\":7981:7999   */\n      0x44\n      dup3\n      add\n        /* \"#utility.yul\":7974:8036   */\n      mstore\n      shl(0xd8, 0x207a65726f)\n        /* \"#utility.yul\":8052:8070   */\n      0x64\n      dup3\n      add\n        /* \"#utility.yul\":8045:8080   */\n      mstore\n        /* \"#utility.yul\":8097:8116   */\n      0x84\n      add\n        /* \"@openzeppelin/contracts@4.7.0/token/ERC20/ERC20.sol\":6803:6888  require(currentAllowance >= subtractedValue, \"ERC20: decreased allowance below zero\") */\n      tag_171\n        /* \"#utility.yul\":7721:8122   */\n      jump\n        /* \"@openzeppelin/contracts@4.7.0/token/ERC20/ERC20.sol\":6803:6888  require(currentAllowance >= subtractedValue, \"ERC20: decreased allowance below zero\") */\n    tag_261:\n        /* \"@openzeppelin/contracts@4.7.0/token/ERC20/ERC20.sol\":6922:6982  _approve(owner, spender, currentAllowance - subtractedValue) */\n      tag_151\n        /* \"@openzeppelin/contracts@4.7.0/token/ERC20/ERC20.sol\":6931:6936  owner */\n      dup3\n        /* \"@openzeppelin/contracts@4.7.0/token/ERC20/ERC20.sol\":6938:6945  spender */\n      dup7\n        /* \"@openzeppelin/contracts@4.7.0/token/ERC20/ERC20.sol\":6966:6981  subtractedValue */\n      dup7\n        /* \"@openzeppelin/contracts@4.7.0/token/ERC20/ERC20.sol\":6947:6963  currentAllowance */\n      dup5\n        /* \"@openzeppelin/contracts@4.7.0/token/ERC20/ERC20.sol\":6947:6981  currentAllowance - subtractedValue */\n      sub\n        /* \"@openzeppelin/contracts@4.7.0/token/ERC20/ERC20.sol\":6922:6930  _approve */\n      tag_145\n        /* \"@openzeppelin/contracts@4.7.0/token/ERC20/ERC20.sol\":6922:6982  _approve(owner, spender, currentAllowance - subtractedValue) */\n      jump\t// in\n        /* \"@openzeppelin/contracts@4.7.0/token/ERC20/ERC20.sol\":3729:3918  function transfer(address to, uint256 amount) public virtual override returns (bool) {... */\n    tag_118:\n        /* \"@openzeppelin/contracts@4.7.0/token/ERC20/ERC20.sol\":3808:3812  bool */\n      0x00\n        /* \"@openzeppelin/contracts@4.7.0/utils/Context.sol\":719:729  msg.sender */\n      caller\n        /* \"@openzeppelin/contracts@4.7.0/token/ERC20/ERC20.sol\":3862:3890  _transfer(owner, to, amount) */\n      tag_144\n        /* \"@openzeppelin/contracts@4.7.0/utils/Context.sol\":719:729  msg.sender */\n      dup2\n        /* \"@openzeppelin/contracts@4.7.0/token/ERC20/ERC20.sol\":3879:3881  to */\n      dup6\n        /* \"@openzeppelin/contracts@4.7.0/token/ERC20/ERC20.sol\":3883:3889  amount */\n      dup6\n        /* \"@openzeppelin/contracts@4.7.0/token/ERC20/ERC20.sol\":3862:3871  _transfer */\n      tag_152\n        /* \"@openzeppelin/contracts@4.7.0/token/ERC20/ERC20.sol\":3862:3890  _transfer(owner, to, amount) */\n      jump\t// in\n        /* \"@openzeppelin/contracts@4.7.0/token/ERC20/ERC20.sol\":3976:4125  function allowance(address owner, address spender) public view virtual override returns (uint256) {... */\n    tag_124:\n      sub(shl(0xa0, 0x01), 0x01)\n        /* \"@openzeppelin/contracts@4.7.0/token/ERC20/ERC20.sol\":4091:4109  _allowances[owner] */\n      swap2\n      dup3\n      and\n        /* \"@openzeppelin/contracts@4.7.0/token/ERC20/ERC20.sol\":4065:4072  uint256 */\n      0x00\n        /* \"@openzeppelin/contracts@4.7.0/token/ERC20/ERC20.sol\":4091:4109  _allowances[owner] */\n      swap1\n      dup2\n      mstore\n        /* \"@openzeppelin/contracts@4.7.0/token/ERC20/ERC20.sol\":4091:4102  _allowances */\n      0x01\n        /* \"@openzeppelin/contracts@4.7.0/token/ERC20/ERC20.sol\":4091:4109  _allowances[owner] */\n      0x20\n      swap1\n      dup2\n      mstore\n      0x40\n      dup1\n      dup4\n      keccak256\n        /* \"@openzeppelin/contracts@4.7.0/token/ERC20/ERC20.sol\":4091:4118  _allowances[owner][spender] */\n      swap4\n      swap1\n      swap5\n      and\n      dup3\n      mstore\n      swap2\n      swap1\n      swap2\n      mstore\n      keccak256\n      sload\n      swap1\n        /* \"@openzeppelin/contracts@4.7.0/token/ERC20/ERC20.sol\":3976:4125  function allowance(address owner, address spender) public view virtual override returns (uint256) {... */\n      jump\t// out\n        /* \"@openzeppelin/contracts@4.7.0/access/Ownable.sol\":2081:2279  function transferOwnership(address newOwner) public virtual onlyOwner {... */\n    tag_129:\n        /* \"@openzeppelin/contracts@4.7.0/access/Ownable.sol\":1094:1107  _checkOwner() */\n      tag_270\n        /* \"@openzeppelin/contracts@4.7.0/access/Ownable.sol\":1094:1105  _checkOwner */\n      tag_235\n        /* \"@openzeppelin/contracts@4.7.0/access/Ownable.sol\":1094:1107  _checkOwner() */\n      jump\t// in\n    tag_270:\n      sub(shl(0xa0, 0x01), 0x01)\n        /* \"@openzeppelin/contracts@4.7.0/access/Ownable.sol\":2169:2191  newOwner != address(0) */\n      dup2\n      and\n        /* \"@openzeppelin/contracts@4.7.0/access/Ownable.sol\":2161:2234  require(newOwner != address(0), \"Ownable: new owner is the zero address\") */\n      tag_272\n      jumpi\n      mload(0x40)\n      shl(0xe5, 0x461bcd)\n      dup2\n      mstore\n        /* \"#utility.yul\":8329:8331   */\n      0x20\n        /* \"@openzeppelin/contracts@4.7.0/access/Ownable.sol\":2161:2234  require(newOwner != address(0), \"Ownable: new owner is the zero address\") */\n      0x04\n      dup3\n      add\n        /* \"#utility.yul\":8311:8332   */\n      mstore\n        /* \"#utility.yul\":8368:8370   */\n      0x26\n        /* \"#utility.yul\":8348:8366   */\n      0x24\n      dup3\n      add\n        /* \"#utility.yul\":8341:8371   */\n      mstore\n        /* \"#utility.yul\":8407:8441   */\n      0x4f776e61626c653a206e6577206f776e657220697320746865207a65726f2061\n        /* \"#utility.yul\":8387:8405   */\n      0x44\n      dup3\n      add\n        /* \"#utility.yul\":8380:8442   */\n      mstore\n      shl(0xd0, 0x646472657373)\n        /* \"#utility.yul\":8458:8476   */\n      0x64\n      dup3\n      add\n        /* \"#utility.yul\":8451:8487   */\n      mstore\n        /* \"#utility.yul\":8504:8523   */\n      0x84\n      add\n        /* \"@openzeppelin/contracts@4.7.0/access/Ownable.sol\":2161:2234  require(newOwner != address(0), \"Ownable: new owner is the zero address\") */\n      tag_171\n        /* \"#utility.yul\":8127:8529   */\n      jump\n        /* \"@openzeppelin/contracts@4.7.0/access/Ownable.sol\":2161:2234  require(newOwner != address(0), \"Ownable: new owner is the zero address\") */\n    tag_272:\n        /* \"@openzeppelin/contracts@4.7.0/access/Ownable.sol\":2244:2272  _transferOwnership(newOwner) */\n      tag_275\n        /* \"@openzeppelin/contracts@4.7.0/access/Ownable.sol\":2263:2271  newOwner */\n      dup2\n        /* \"@openzeppelin/contracts@4.7.0/access/Ownable.sol\":2244:2262  _transferOwnership */\n      tag_238\n        /* \"@openzeppelin/contracts@4.7.0/access/Ownable.sol\":2244:2272  _transferOwnership(newOwner) */\n      jump\t// in\n    tag_275:\n        /* \"@openzeppelin/contracts@4.7.0/access/Ownable.sol\":2081:2279  function transferOwnership(address newOwner) public virtual onlyOwner {... */\n      pop\n      jump\t// out\n        /* \"sosh/SSTAPE.sol\":2818:3277  function burn(uint256 amount, address destinationAddress) public {... */\n    tag_133:\n        /* \"sosh/SSTAPE.sol\":2911:2921  msg.sender */\n      caller\n        /* \"@openzeppelin/contracts@4.7.0/token/ERC20/ERC20.sol\":3482:3489  uint256 */\n      0x00\n        /* \"@openzeppelin/contracts@4.7.0/token/ERC20/ERC20.sol\":3508:3526  _balances[account] */\n      swap1\n      dup2\n      mstore\n      0x20\n      dup2\n      swap1\n      mstore\n      0x40\n      swap1\n      keccak256\n      sload\n        /* \"sosh/SSTAPE.sol\":2926:2932  amount */\n      dup3\n      gt\n        /* \"sosh/SSTAPE.sol\":2901:2932  balanceOf(msg.sender) >= amount */\n      iszero\n        /* \"sosh/SSTAPE.sol\":2893:2968  require(balanceOf(msg.sender) >= amount, \"Insufficient SST tokens to burn\") */\n      tag_278\n      jumpi\n      mload(0x40)\n      shl(0xe5, 0x461bcd)\n      dup2\n      mstore\n        /* \"#utility.yul\":6882:6884   */\n      0x20\n        /* \"sosh/SSTAPE.sol\":2893:2968  require(balanceOf(msg.sender) >= amount, \"Insufficient SST tokens to burn\") */\n      0x04\n      dup3\n      add\n        /* \"#utility.yul\":6864:6885   */\n      mstore\n        /* \"#utility.yul\":6921:6923   */\n      0x1f\n        /* \"#utility.yul\":6901:6919   */\n      0x24\n      dup3\n      add\n        /* \"#utility.yul\":6894:6924   */\n      mstore\n        /* \"#utility.yul\":6960:6993   */\n      0x496e73756666696369656e742053535420746f6b656e7320746f206275726e00\n        /* \"#utility.yul\":6940:6958   */\n      0x44\n      dup3\n      add\n        /* \"#utility.yul\":6933:6994   */\n      mstore\n        /* \"#utility.yul\":7011:7029   */\n      0x64\n      add\n        /* \"sosh/SSTAPE.sol\":2893:2968  require(balanceOf(msg.sender) >= amount, \"Insufficient SST tokens to burn\") */\n      tag_171\n        /* \"#utility.yul\":6680:7035   */\n      jump\n        /* \"sosh/SSTAPE.sol\":2893:2968  require(balanceOf(msg.sender) >= amount, \"Insufficient SST tokens to burn\") */\n    tag_278:\n        /* \"sosh/SSTAPE.sol\":2978:3003  _burn(msg.sender, amount) */\n      tag_280\n        /* \"sosh/SSTAPE.sol\":2984:2994  msg.sender */\n      caller\n        /* \"sosh/SSTAPE.sol\":2996:3002  amount */\n      dup4\n        /* \"sosh/SSTAPE.sol\":2978:2983  _burn */\n      tag_217\n        /* \"sosh/SSTAPE.sol\":2978:3003  _burn(msg.sender, amount) */\n      jump\t// in\n    tag_280:\n        /* \"sosh/SSTAPE.sol\":3014:3031  uint256 ethAmount */\n      0x00\n        /* \"sosh/SSTAPE.sol\":3034:3063  amount * MINT_PRICE_PER_TOKEN */\n      tag_281\n        /* \"sosh/SSTAPE.sol\":264:279  675000000000000 */\n      0x0265e8af393000\n        /* \"sosh/SSTAPE.sol\":3034:3040  amount */\n      dup5\n        /* \"sosh/SSTAPE.sol\":3034:3063  amount * MINT_PRICE_PER_TOKEN */\n      tag_162\n      jump\t// in\n    tag_281:\n        /* \"sosh/SSTAPE.sol\":3014:3063  uint256 ethAmount = amount * MINT_PRICE_PER_TOKEN */\n      swap1\n      pop\n        /* \"sosh/SSTAPE.sol\":3106:3115  ethAmount */\n      dup1\n        /* \"sosh/SSTAPE.sol\":3081:3102  address(this).balance */\n      selfbalance\n        /* \"sosh/SSTAPE.sol\":3081:3115  address(this).balance >= ethAmount */\n      lt\n      iszero\n        /* \"sosh/SSTAPE.sol\":3073:3153  require(address(this).balance >= ethAmount, \"Contract does not have enough ETH\") */\n      tag_282\n      jumpi\n      mload(0x40)\n      shl(0xe5, 0x461bcd)\n      dup2\n      mstore\n        /* \"#utility.yul\":8736:8738   */\n      0x20\n        /* \"sosh/SSTAPE.sol\":3073:3153  require(address(this).balance >= ethAmount, \"Contract does not have enough ETH\") */\n      0x04\n      dup3\n      add\n        /* \"#utility.yul\":8718:8739   */\n      mstore\n        /* \"#utility.yul\":8775:8777   */\n      0x21\n        /* \"#utility.yul\":8755:8773   */\n      0x24\n      dup3\n      add\n        /* \"#utility.yul\":8748:8778   */\n      mstore\n        /* \"#utility.yul\":8814:8848   */\n      0x436f6e747261637420646f6573206e6f74206861766520656e6f756768204554\n        /* \"#utility.yul\":8794:8812   */\n      0x44\n      dup3\n      add\n        /* \"#utility.yul\":8787:8849   */\n      mstore\n      shl(0xfb, 0x09)\n        /* \"#utility.yul\":8865:8883   */\n      0x64\n      dup3\n      add\n        /* \"#utility.yul\":8858:8889   */\n      mstore\n        /* \"#utility.yul\":8906:8925   */\n      0x84\n      add\n        /* \"sosh/SSTAPE.sol\":3073:3153  require(address(this).balance >= ethAmount, \"Contract does not have enough ETH\") */\n      tag_171\n        /* \"#utility.yul\":8534:8931   */\n      jump\n        /* \"sosh/SSTAPE.sol\":3073:3153  require(address(this).balance >= ethAmount, \"Contract does not have enough ETH\") */\n    tag_282:\n        /* \"sosh/SSTAPE.sol\":3165:3174  bool sent */\n      0x00\n        /* \"sosh/SSTAPE.sol\":3180:3198  destinationAddress */\n      dup3\n      sub(shl(0xa0, 0x01), 0x01)\n        /* \"sosh/SSTAPE.sol\":3180:3203  destinationAddress.call */\n      and\n        /* \"sosh/SSTAPE.sol\":3211:3220  ethAmount */\n      dup3\n        /* \"sosh/SSTAPE.sol\":3180:3225  destinationAddress.call{value: ethAmount}(\"\") */\n      mload(0x40)\n      0x00\n      mload(0x40)\n      dup1\n      dup4\n      sub\n      dup2\n      dup6\n      dup8\n      gas\n      call\n      swap3\n      pop\n      pop\n      pop\n      returndatasize\n      dup1\n      0x00\n      dup2\n      eq\n      tag_288\n      jumpi\n      mload(0x40)\n      swap2\n      pop\n      and(add(returndatasize, 0x3f), not(0x1f))\n      dup3\n      add\n      0x40\n      mstore\n      returndatasize\n      dup3\n      mstore\n      returndatasize\n      0x00\n      0x20\n      dup5\n      add\n      returndatacopy\n      jump(tag_287)\n    tag_288:\n      0x60\n      swap2\n      pop\n    tag_287:\n      pop\n        /* \"sosh/SSTAPE.sol\":3164:3225  (bool sent, ) = destinationAddress.call{value: ethAmount}(\"\") */\n      pop\n      swap1\n      pop\n        /* \"sosh/SSTAPE.sol\":3243:3247  sent */\n      dup1\n        /* \"sosh/SSTAPE.sol\":3235:3270  require(sent, \"Failed to send ETH\") */\n      tag_231\n      jumpi\n      mload(0x40)\n      shl(0xe5, 0x461bcd)\n      dup2\n      mstore\n        /* \"#utility.yul\":9138:9140   */\n      0x20\n        /* \"sosh/SSTAPE.sol\":3235:3270  require(sent, \"Failed to send ETH\") */\n      0x04\n      dup3\n      add\n        /* \"#utility.yul\":9120:9141   */\n      mstore\n        /* \"#utility.yul\":9177:9179   */\n      0x12\n        /* \"#utility.yul\":9157:9175   */\n      0x24\n      dup3\n      add\n        /* \"#utility.yul\":9150:9180   */\n      mstore\n      shl(0x73, 0x08cc2d2d8cac840e8de40e6cadcc8408aa89)\n        /* \"#utility.yul\":9196:9214   */\n      0x44\n      dup3\n      add\n        /* \"#utility.yul\":9189:9237   */\n      mstore\n        /* \"#utility.yul\":9254:9272   */\n      0x64\n      add\n        /* \"sosh/SSTAPE.sol\":3235:3270  require(sent, \"Failed to send ETH\") */\n      tag_171\n        /* \"#utility.yul\":8936:9278   */\n      jump\n        /* \"@openzeppelin/contracts@4.7.0/token/ERC20/ERC20.sol\":10110:10480  function _approve(... */\n    tag_145:\n      sub(shl(0xa0, 0x01), 0x01)\n        /* \"@openzeppelin/contracts@4.7.0/token/ERC20/ERC20.sol\":10241:10260  owner != address(0) */\n      dup4\n      and\n        /* \"@openzeppelin/contracts@4.7.0/token/ERC20/ERC20.sol\":10233:10301  require(owner != address(0), \"ERC20: approve from the zero address\") */\n      tag_294\n      jumpi\n      mload(0x40)\n      shl(0xe5, 0x461bcd)\n      dup2\n      mstore\n        /* \"#utility.yul\":9485:9487   */\n      0x20\n        /* \"@openzeppelin/contracts@4.7.0/token/ERC20/ERC20.sol\":10233:10301  require(owner != address(0), \"ERC20: approve from the zero address\") */\n      0x04\n      dup3\n      add\n        /* \"#utility.yul\":9467:9488   */\n      mstore\n        /* \"#utility.yul\":9524:9526   */\n      0x24\n        /* \"#utility.yul\":9504:9522   */\n      dup1\n      dup3\n      add\n        /* \"#utility.yul\":9497:9527   */\n      mstore\n        /* \"#utility.yul\":9563:9597   */\n      0x45524332303a20617070726f76652066726f6d20746865207a65726f20616464\n        /* \"#utility.yul\":9543:9561   */\n      0x44\n      dup3\n      add\n        /* \"#utility.yul\":9536:9598   */\n      mstore\n      shl(0xe0, 0x72657373)\n        /* \"#utility.yul\":9614:9632   */\n      0x64\n      dup3\n      add\n        /* \"#utility.yul\":9607:9641   */\n      mstore\n        /* \"#utility.yul\":9658:9677   */\n      0x84\n      add\n        /* \"@openzeppelin/contracts@4.7.0/token/ERC20/ERC20.sol\":10233:10301  require(owner != address(0), \"ERC20: approve from the zero address\") */\n      tag_171\n        /* \"#utility.yul\":9283:9683   */\n      jump\n        /* \"@openzeppelin/contracts@4.7.0/token/ERC20/ERC20.sol\":10233:10301  require(owner != address(0), \"ERC20: approve from the zero address\") */\n    tag_294:\n      sub(shl(0xa0, 0x01), 0x01)\n        /* \"@openzeppelin/contracts@4.7.0/token/ERC20/ERC20.sol\":10319:10340  spender != address(0) */\n      dup3\n      and\n        /* \"@openzeppelin/contracts@4.7.0/token/ERC20/ERC20.sol\":10311:10379  require(spender != address(0), \"ERC20: approve to the zero address\") */\n      tag_297\n      jumpi\n      mload(0x40)\n      shl(0xe5, 0x461bcd)\n      dup2\n      mstore\n        /* \"#utility.yul\":9890:9892   */\n      0x20\n        /* \"@openzeppelin/contracts@4.7.0/token/ERC20/ERC20.sol\":10311:10379  require(spender != address(0), \"ERC20: approve to the zero address\") */\n      0x04\n      dup3\n      add\n        /* \"#utility.yul\":9872:9893   */\n      mstore\n        /* \"#utility.yul\":9929:9931   */\n      0x22\n        /* \"#utility.yul\":9909:9927   */\n      0x24\n      dup3\n      add\n        /* \"#utility.yul\":9902:9932   */\n      mstore\n        /* \"#utility.yul\":9968:10002   */\n      0x45524332303a20617070726f766520746f20746865207a65726f206164647265\n        /* \"#utility.yul\":9948:9966   */\n      0x44\n      dup3\n      add\n        /* \"#utility.yul\":9941:10003   */\n      mstore\n      shl(0xf0, 0x7373)\n        /* \"#utility.yul\":10019:10037   */\n      0x64\n      dup3\n      add\n        /* \"#utility.yul\":10012:10044   */\n      mstore\n        /* \"#utility.yul\":10061:10080   */\n      0x84\n      add\n        /* \"@openzeppelin/contracts@4.7.0/token/ERC20/ERC20.sol\":10311:10379  require(spender != address(0), \"ERC20: approve to the zero address\") */\n      tag_171\n        /* \"#utility.yul\":9688:10086   */\n      jump\n        /* \"@openzeppelin/contracts@4.7.0/token/ERC20/ERC20.sol\":10311:10379  require(spender != address(0), \"ERC20: approve to the zero address\") */\n    tag_297:\n      sub(shl(0xa0, 0x01), 0x01)\n        /* \"@openzeppelin/contracts@4.7.0/token/ERC20/ERC20.sol\":10390:10408  _allowances[owner] */\n      dup4\n      dup2\n      and\n      0x00\n      dup2\n      dup2\n      mstore\n        /* \"@openzeppelin/contracts@4.7.0/token/ERC20/ERC20.sol\":10390:10401  _allowances */\n      0x01\n        /* \"@openzeppelin/contracts@4.7.0/token/ERC20/ERC20.sol\":10390:10408  _allowances[owner] */\n      0x20\n      swap1\n      dup2\n      mstore\n      0x40\n      dup1\n      dup4\n      keccak256\n        /* \"@openzeppelin/contracts@4.7.0/token/ERC20/ERC20.sol\":10390:10417  _allowances[owner][spender] */\n      swap5\n      dup8\n      and\n      dup1\n      dup5\n      mstore\n      swap5\n      dup3\n      mstore\n      swap2\n      dup3\n      swap1\n      keccak256\n        /* \"@openzeppelin/contracts@4.7.0/token/ERC20/ERC20.sol\":10390:10426  _allowances[owner][spender] = amount */\n      dup6\n      swap1\n      sstore\n        /* \"@openzeppelin/contracts@4.7.0/token/ERC20/ERC20.sol\":10441:10473  Approval(owner, spender, amount) */\n      swap1\n      mload\n        /* \"#utility.yul\":713:738   */\n      dup5\n      dup2\n      mstore\n        /* \"@openzeppelin/contracts@4.7.0/token/ERC20/ERC20.sol\":10441:10473  Approval(owner, spender, amount) */\n      0x8c5be1e5ebec7d5bd14f71427d1e84f3dd0314c0f7b2291e5b200ac8c7c3b925\n      swap2\n        /* \"#utility.yul\":686:704   */\n      add\n        /* \"@openzeppelin/contracts@4.7.0/token/ERC20/ERC20.sol\":10441:10473  Approval(owner, spender, amount) */\n      mload(0x40)\n      dup1\n      swap2\n      sub\n      swap1\n      log3\n        /* \"@openzeppelin/contracts@4.7.0/token/ERC20/ERC20.sol\":10110:10480  function _approve(... */\n      pop\n      pop\n      pop\n      jump\t// out\n        /* \"@openzeppelin/contracts@4.7.0/token/ERC20/ERC20.sol\":10761:11202  function _spendAllowance(... */\n    tag_150:\n        /* \"@openzeppelin/contracts@4.7.0/token/ERC20/ERC20.sol\":10891:10915  uint256 currentAllowance */\n      0x00\n        /* \"@openzeppelin/contracts@4.7.0/token/ERC20/ERC20.sol\":10918:10943  allowance(owner, spender) */\n      tag_302\n        /* \"@openzeppelin/contracts@4.7.0/token/ERC20/ERC20.sol\":10928:10933  owner */\n      dup5\n        /* \"@openzeppelin/contracts@4.7.0/token/ERC20/ERC20.sol\":10935:10942  spender */\n      dup5\n        /* \"@openzeppelin/contracts@4.7.0/token/ERC20/ERC20.sol\":10918:10927  allowance */\n      tag_124\n        /* \"@openzeppelin/contracts@4.7.0/token/ERC20/ERC20.sol\":10918:10943  allowance(owner, spender) */\n      jump\t// in\n    tag_302:\n        /* \"@openzeppelin/contracts@4.7.0/token/ERC20/ERC20.sol\":10891:10943  uint256 currentAllowance = allowance(owner, spender) */\n      swap1\n      pop\n      not(0x00)\n        /* \"@openzeppelin/contracts@4.7.0/token/ERC20/ERC20.sol\":10957:10973  currentAllowance */\n      dup2\n        /* \"@openzeppelin/contracts@4.7.0/token/ERC20/ERC20.sol\":10957:10994  currentAllowance != type(uint256).max */\n      eq\n        /* \"@openzeppelin/contracts@4.7.0/token/ERC20/ERC20.sol\":10953:11196  if (currentAllowance != type(uint256).max) {... */\n      tag_231\n      jumpi\n        /* \"@openzeppelin/contracts@4.7.0/token/ERC20/ERC20.sol\":11038:11044  amount */\n      dup2\n        /* \"@openzeppelin/contracts@4.7.0/token/ERC20/ERC20.sol\":11018:11034  currentAllowance */\n      dup2\n        /* \"@openzeppelin/contracts@4.7.0/token/ERC20/ERC20.sol\":11018:11044  currentAllowance >= amount */\n      lt\n      iszero\n        /* \"@openzeppelin/contracts@4.7.0/token/ERC20/ERC20.sol\":11010:11078  require(currentAllowance >= amount, \"ERC20: insufficient allowance\") */\n      tag_304\n      jumpi\n      mload(0x40)\n      shl(0xe5, 0x461bcd)\n      dup2\n      mstore\n        /* \"#utility.yul\":10293:10295   */\n      0x20\n        /* \"@openzeppelin/contracts@4.7.0/token/ERC20/ERC20.sol\":11010:11078  require(currentAllowance >= amount, \"ERC20: insufficient allowance\") */\n      0x04\n      dup3\n      add\n        /* \"#utility.yul\":10275:10296   */\n      mstore\n        /* \"#utility.yul\":10332:10334   */\n      0x1d\n        /* \"#utility.yul\":10312:10330   */\n      0x24\n      dup3\n      add\n        /* \"#utility.yul\":10305:10335   */\n      mstore\n        /* \"#utility.yul\":10371:10402   */\n      0x45524332303a20696e73756666696369656e7420616c6c6f77616e6365000000\n        /* \"#utility.yul\":10351:10369   */\n      0x44\n      dup3\n      add\n        /* \"#utility.yul\":10344:10403   */\n      mstore\n        /* \"#utility.yul\":10420:10438   */\n      0x64\n      add\n        /* \"@openzeppelin/contracts@4.7.0/token/ERC20/ERC20.sol\":11010:11078  require(currentAllowance >= amount, \"ERC20: insufficient allowance\") */\n      tag_171\n        /* \"#utility.yul\":10091:10444   */\n      jump\n        /* \"@openzeppelin/contracts@4.7.0/token/ERC20/ERC20.sol\":11010:11078  require(currentAllowance >= amount, \"ERC20: insufficient allowance\") */\n    tag_304:\n        /* \"@openzeppelin/contracts@4.7.0/token/ERC20/ERC20.sol\":11120:11171  _approve(owner, spender, currentAllowance - amount) */\n      tag_231\n        /* \"@openzeppelin/contracts@4.7.0/token/ERC20/ERC20.sol\":11129:11134  owner */\n      dup5\n        /* \"@openzeppelin/contracts@4.7.0/token/ERC20/ERC20.sol\":11136:11143  spender */\n      dup5\n        /* \"@openzeppelin/contracts@4.7.0/token/ERC20/ERC20.sol\":11164:11170  amount */\n      dup5\n        /* \"@openzeppelin/contracts@4.7.0/token/ERC20/ERC20.sol\":11145:11161  currentAllowance */\n      dup5\n        /* \"@openzeppelin/contracts@4.7.0/token/ERC20/ERC20.sol\":11145:11170  currentAllowance - amount */\n      sub\n        /* \"@openzeppelin/contracts@4.7.0/token/ERC20/ERC20.sol\":11120:11128  _approve */\n      tag_145\n        /* \"@openzeppelin/contracts@4.7.0/token/ERC20/ERC20.sol\":11120:11171  _approve(owner, spender, currentAllowance - amount) */\n      jump\t// in\n        /* \"@openzeppelin/contracts@4.7.0/token/ERC20/ERC20.sol\":7475:8126  function _transfer(... */\n    tag_152:\n      sub(shl(0xa0, 0x01), 0x01)\n        /* \"@openzeppelin/contracts@4.7.0/token/ERC20/ERC20.sol\":7601:7619  from != address(0) */\n      dup4\n      and\n        /* \"@openzeppelin/contracts@4.7.0/token/ERC20/ERC20.sol\":7593:7661  require(from != address(0), \"ERC20: transfer from the zero address\") */\n      tag_309\n      jumpi\n      mload(0x40)\n      shl(0xe5, 0x461bcd)\n      dup2\n      mstore\n        /* \"#utility.yul\":10651:10653   */\n      0x20\n        /* \"@openzeppelin/contracts@4.7.0/token/ERC20/ERC20.sol\":7593:7661  require(from != address(0), \"ERC20: transfer from the zero address\") */\n      0x04\n      dup3\n      add\n        /* \"#utility.yul\":10633:10654   */\n      mstore\n        /* \"#utility.yul\":10690:10692   */\n      0x25\n        /* \"#utility.yul\":10670:10688   */\n      0x24\n      dup3\n      add\n        /* \"#utility.yul\":10663:10693   */\n      mstore\n        /* \"#utility.yul\":10729:10763   */\n      0x45524332303a207472616e736665722066726f6d20746865207a65726f206164\n        /* \"#utility.yul\":10709:10727   */\n      0x44\n      dup3\n      add\n        /* \"#utility.yul\":10702:10764   */\n      mstore\n      shl(0xd8, 0x6472657373)\n        /* \"#utility.yul\":10780:10798   */\n      0x64\n      dup3\n      add\n        /* \"#utility.yul\":10773:10808   */\n      mstore\n        /* \"#utility.yul\":10825:10844   */\n      0x84\n      add\n        /* \"@openzeppelin/contracts@4.7.0/token/ERC20/ERC20.sol\":7593:7661  require(from != address(0), \"ERC20: transfer from the zero address\") */\n      tag_171\n        /* \"#utility.yul\":10449:10850   */\n      jump\n        /* \"@openzeppelin/contracts@4.7.0/token/ERC20/ERC20.sol\":7593:7661  require(from != address(0), \"ERC20: transfer from the zero address\") */\n    tag_309:\n      sub(shl(0xa0, 0x01), 0x01)\n        /* \"@openzeppelin/contracts@4.7.0/token/ERC20/ERC20.sol\":7679:7695  to != address(0) */\n      dup3\n      and\n        /* \"@openzeppelin/contracts@4.7.0/token/ERC20/ERC20.sol\":7671:7735  require(to != address(0), \"ERC20: transfer to the zero address\") */\n      tag_312\n      jumpi\n      mload(0x40)\n      shl(0xe5, 0x461bcd)\n      dup2\n      mstore\n        /* \"#utility.yul\":11057:11059   */\n      0x20\n        /* \"@openzeppelin/contracts@4.7.0/token/ERC20/ERC20.sol\":7671:7735  require(to != address(0), \"ERC20: transfer to the zero address\") */\n      0x04\n      dup3\n      add\n        /* \"#utility.yul\":11039:11060   */\n      mstore\n        /* \"#utility.yul\":11096:11098   */\n      0x23\n        /* \"#utility.yul\":11076:11094   */\n      0x24\n      dup3\n      add\n        /* \"#utility.yul\":11069:11099   */\n      mstore\n        /* \"#utility.yul\":11135:11169   */\n      0x45524332303a207472616e7366657220746f20746865207a65726f2061646472\n        /* \"#utility.yul\":11115:11133   */\n      0x44\n      dup3\n      add\n        /* \"#utility.yul\":11108:11170   */\n      mstore\n      shl(0xe8, 0x657373)\n        /* \"#utility.yul\":11186:11204   */\n      0x64\n      dup3\n      add\n        /* \"#utility.yul\":11179:11212   */\n      mstore\n        /* \"#utility.yul\":11229:11248   */\n      0x84\n      add\n        /* \"@openzeppelin/contracts@4.7.0/token/ERC20/ERC20.sol\":7671:7735  require(to != address(0), \"ERC20: transfer to the zero address\") */\n      tag_171\n        /* \"#utility.yul\":10855:11254   */\n      jump\n        /* \"@openzeppelin/contracts@4.7.0/token/ERC20/ERC20.sol\":7671:7735  require(to != address(0), \"ERC20: transfer to the zero address\") */\n    tag_312:\n      sub(shl(0xa0, 0x01), 0x01)\n        /* \"@openzeppelin/contracts@4.7.0/token/ERC20/ERC20.sol\":7817:7832  _balances[from] */\n      dup4\n      and\n        /* \"@openzeppelin/contracts@4.7.0/token/ERC20/ERC20.sol\":7795:7814  uint256 fromBalance */\n      0x00\n        /* \"@openzeppelin/contracts@4.7.0/token/ERC20/ERC20.sol\":7817:7832  _balances[from] */\n      swap1\n      dup2\n      mstore\n      0x20\n      dup2\n      swap1\n      mstore\n      0x40\n      swap1\n      keccak256\n      sload\n        /* \"@openzeppelin/contracts@4.7.0/token/ERC20/ERC20.sol\":7850:7871  fromBalance >= amount */\n      dup2\n      dup2\n      lt\n      iszero\n        /* \"@openzeppelin/contracts@4.7.0/token/ERC20/ERC20.sol\":7842:7914  require(fromBalance >= amount, \"ERC20: transfer amount exceeds balance\") */\n      tag_317\n      jumpi\n      mload(0x40)\n      shl(0xe5, 0x461bcd)\n      dup2\n      mstore\n        /* \"#utility.yul\":11461:11463   */\n      0x20\n        /* \"@openzeppelin/contracts@4.7.0/token/ERC20/ERC20.sol\":7842:7914  require(fromBalance >= amount, \"ERC20: transfer amount exceeds balance\") */\n      0x04\n      dup3\n      add\n        /* \"#utility.yul\":11443:11464   */\n      mstore\n        /* \"#utility.yul\":11500:11502   */\n      0x26\n        /* \"#utility.yul\":11480:11498   */\n      0x24\n      dup3\n      add\n        /* \"#utility.yul\":11473:11503   */\n      mstore\n        /* \"#utility.yul\":11539:11573   */\n      0x45524332303a207472616e7366657220616d6f756e7420657863656564732062\n        /* \"#utility.yul\":11519:11537   */\n      0x44\n      dup3\n      add\n        /* \"#utility.yul\":11512:11574   */\n      mstore\n      shl(0xd0, 0x616c616e6365)\n        /* \"#utility.yul\":11590:11608   */\n      0x64\n      dup3\n      add\n        /* \"#utility.yul\":11583:11619   */\n      mstore\n        /* \"#utility.yul\":11636:11655   */\n      0x84\n      add\n        /* \"@openzeppelin/contracts@4.7.0/token/ERC20/ERC20.sol\":7842:7914  require(fromBalance >= amount, \"ERC20: transfer amount exceeds balance\") */\n      tag_171\n        /* \"#utility.yul\":11259:11661   */\n      jump\n        /* \"@openzeppelin/contracts@4.7.0/token/ERC20/ERC20.sol\":7842:7914  require(fromBalance >= amount, \"ERC20: transfer amount exceeds balance\") */\n    tag_317:\n      sub(shl(0xa0, 0x01), 0x01)\n        /* \"@openzeppelin/contracts@4.7.0/token/ERC20/ERC20.sol\":7948:7963  _balances[from] */\n      dup1\n      dup6\n      and\n        /* \"@openzeppelin/contracts@4.7.0/token/ERC20/ERC20.sol\":7948:7957  _balances */\n      0x00\n        /* \"@openzeppelin/contracts@4.7.0/token/ERC20/ERC20.sol\":7948:7963  _balances[from] */\n      swap1\n      dup2\n      mstore\n      0x20\n      dup2\n      swap1\n      mstore\n      0x40\n      dup1\n      dup3\n      keccak256\n        /* \"@openzeppelin/contracts@4.7.0/token/ERC20/ERC20.sol\":7966:7986  fromBalance - amount */\n      dup6\n      dup6\n      sub\n        /* \"@openzeppelin/contracts@4.7.0/token/ERC20/ERC20.sol\":7948:7986  _balances[from] = fromBalance - amount */\n      swap1\n      sstore\n        /* \"@openzeppelin/contracts@4.7.0/token/ERC20/ERC20.sol\":8006:8019  _balances[to] */\n      swap2\n      dup6\n      and\n      dup2\n      mstore\n      swap1\n      dup2\n      keccak256\n        /* \"@openzeppelin/contracts@4.7.0/token/ERC20/ERC20.sol\":8006:8029  _balances[to] += amount */\n      dup1\n      sload\n        /* \"@openzeppelin/contracts@4.7.0/token/ERC20/ERC20.sol\":7980:7986  amount */\n      dup5\n      swap3\n        /* \"@openzeppelin/contracts@4.7.0/token/ERC20/ERC20.sol\":7948:7957  _balances */\n      swap1\n        /* \"@openzeppelin/contracts@4.7.0/token/ERC20/ERC20.sol\":8006:8029  _balances[to] += amount */\n      tag_320\n      swap1\n        /* \"@openzeppelin/contracts@4.7.0/token/ERC20/ERC20.sol\":7980:7986  amount */\n      dup5\n      swap1\n        /* \"@openzeppelin/contracts@4.7.0/token/ERC20/ERC20.sol\":8006:8029  _balances[to] += amount */\n      tag_159\n      jump\t// in\n    tag_320:\n      swap3\n      pop\n      pop\n      dup2\n      swap1\n      sstore\n      pop\n        /* \"@openzeppelin/contracts@4.7.0/token/ERC20/ERC20.sol\":8060:8062  to */\n      dup3\n      sub(shl(0xa0, 0x01), 0x01)\n        /* \"@openzeppelin/contracts@4.7.0/token/ERC20/ERC20.sol\":8045:8071  Transfer(from, to, amount) */\n      and\n        /* \"@openzeppelin/contracts@4.7.0/token/ERC20/ERC20.sol\":8054:8058  from */\n      dup5\n      sub(shl(0xa0, 0x01), 0x01)\n        /* \"@openzeppelin/contracts@4.7.0/token/ERC20/ERC20.sol\":8045:8071  Transfer(from, to, amount) */\n      and\n      0xddf252ad1be2c89b69c2b068fc378daa952ba7f163c4a11628f55a4df523b3ef\n        /* \"@openzeppelin/contracts@4.7.0/token/ERC20/ERC20.sol\":8064:8070  amount */\n      dup5\n        /* \"@openzeppelin/contracts@4.7.0/token/ERC20/ERC20.sol\":8045:8071  Transfer(from, to, amount) */\n      mload(0x40)\n      tag_321\n      swap2\n        /* \"#utility.yul\":713:738   */\n      dup2\n      mstore\n        /* \"#utility.yul\":701:703   */\n      0x20\n        /* \"#utility.yul\":686:704   */\n      add\n      swap1\n        /* \"#utility.yul\":567:744   */\n      jump\n        /* \"@openzeppelin/contracts@4.7.0/token/ERC20/ERC20.sol\":8045:8071  Transfer(from, to, amount) */\n    tag_321:\n      mload(0x40)\n      dup1\n      swap2\n      sub\n      swap1\n      log3\n        /* \"@openzeppelin/contracts@4.7.0/token/ERC20/ERC20.sol\":8082:8119  _afterTokenTransfer(from, to, amount) */\n      tag_231\n        /* \"sosh/SSTAPE.sol\":645:1076  function mint(uint256 tokenAmount, address aAWallet) public payable {... */\n      jump\n        /* \"@openzeppelin/contracts@4.7.0/token/ERC20/ERC20.sol\":8402:8791  function _mint(address account, uint256 amount) internal virtual {... */\n    tag_180:\n      sub(shl(0xa0, 0x01), 0x01)\n        /* \"@openzeppelin/contracts@4.7.0/token/ERC20/ERC20.sol\":8485:8506  account != address(0) */\n      dup3\n      and\n        /* \"@openzeppelin/contracts@4.7.0/token/ERC20/ERC20.sol\":8477:8542  require(account != address(0), \"ERC20: mint to the zero address\") */\n      tag_325\n      jumpi\n      mload(0x40)\n      shl(0xe5, 0x461bcd)\n      dup2\n      mstore\n        /* \"#utility.yul\":11868:11870   */\n      0x20\n        /* \"@openzeppelin/contracts@4.7.0/token/ERC20/ERC20.sol\":8477:8542  require(account != address(0), \"ERC20: mint to the zero address\") */\n      0x04\n      dup3\n      add\n        /* \"#utility.yul\":11850:11871   */\n      mstore\n        /* \"#utility.yul\":11907:11909   */\n      0x1f\n        /* \"#utility.yul\":11887:11905   */\n      0x24\n      dup3\n      add\n        /* \"#utility.yul\":11880:11910   */\n      mstore\n        /* \"#utility.yul\":11946:11979   */\n      0x45524332303a206d696e7420746f20746865207a65726f206164647265737300\n        /* \"#utility.yul\":11926:11944   */\n      0x44\n      dup3\n      add\n        /* \"#utility.yul\":11919:11980   */\n      mstore\n        /* \"#utility.yul\":11997:12015   */\n      0x64\n      add\n        /* \"@openzeppelin/contracts@4.7.0/token/ERC20/ERC20.sol\":8477:8542  require(account != address(0), \"ERC20: mint to the zero address\") */\n      tag_171\n        /* \"#utility.yul\":11666:12021   */\n      jump\n        /* \"@openzeppelin/contracts@4.7.0/token/ERC20/ERC20.sol\":8477:8542  require(account != address(0), \"ERC20: mint to the zero address\") */\n    tag_325:\n        /* \"@openzeppelin/contracts@4.7.0/token/ERC20/ERC20.sol\":8629:8635  amount */\n      dup1\n        /* \"@openzeppelin/contracts@4.7.0/token/ERC20/ERC20.sol\":8613:8625  _totalSupply */\n      0x02\n      0x00\n        /* \"@openzeppelin/contracts@4.7.0/token/ERC20/ERC20.sol\":8613:8635  _totalSupply += amount */\n      dup3\n      dup3\n      sload\n      tag_329\n      swap2\n      swap1\n      tag_159\n      jump\t// in\n    tag_329:\n      swap1\n      swap2\n      sstore\n      pop\n      pop\n      sub(shl(0xa0, 0x01), 0x01)\n        /* \"@openzeppelin/contracts@4.7.0/token/ERC20/ERC20.sol\":8645:8663  _balances[account] */\n      dup3\n      and\n        /* \"@openzeppelin/contracts@4.7.0/token/ERC20/ERC20.sol\":8645:8654  _balances */\n      0x00\n        /* \"@openzeppelin/contracts@4.7.0/token/ERC20/ERC20.sol\":8645:8663  _balances[account] */\n      swap1\n      dup2\n      mstore\n      0x20\n      dup2\n      swap1\n      mstore\n      0x40\n      dup2\n      keccak256\n        /* \"@openzeppelin/contracts@4.7.0/token/ERC20/ERC20.sol\":8645:8673  _balances[account] += amount */\n      dup1\n      sload\n        /* \"@openzeppelin/contracts@4.7.0/token/ERC20/ERC20.sol\":8667:8673  amount */\n      dup4\n      swap3\n        /* \"@openzeppelin/contracts@4.7.0/token/ERC20/ERC20.sol\":8645:8654  _balances */\n      swap1\n        /* \"@openzeppelin/contracts@4.7.0/token/ERC20/ERC20.sol\":8645:8673  _balances[account] += amount */\n      tag_330\n      swap1\n        /* \"@openzeppelin/contracts@4.7.0/token/ERC20/ERC20.sol\":8667:8673  amount */\n      dup5\n      swap1\n        /* \"@openzeppelin/contracts@4.7.0/token/ERC20/ERC20.sol\":8645:8673  _balances[account] += amount */\n      tag_159\n      jump\t// in\n    tag_330:\n      swap1\n      swap2\n      sstore\n      pop\n      pop\n        /* \"@openzeppelin/contracts@4.7.0/token/ERC20/ERC20.sol\":8688:8725  Transfer(address(0), account, amount) */\n      mload(0x40)\n        /* \"#utility.yul\":713:738   */\n      dup2\n      dup2\n      mstore\n      sub(shl(0xa0, 0x01), 0x01)\n        /* \"@openzeppelin/contracts@4.7.0/token/ERC20/ERC20.sol\":8688:8725  Transfer(address(0), account, amount) */\n      dup4\n      and\n      swap1\n        /* \"@openzeppelin/contracts@4.7.0/token/ERC20/ERC20.sol\":8705:8706  0 */\n      0x00\n      swap1\n        /* \"@openzeppelin/contracts@4.7.0/token/ERC20/ERC20.sol\":8688:8725  Transfer(address(0), account, amount) */\n      0xddf252ad1be2c89b69c2b068fc378daa952ba7f163c4a11628f55a4df523b3ef\n      swap1\n        /* \"#utility.yul\":701:703   */\n      0x20\n        /* \"#utility.yul\":686:704   */\n      add\n        /* \"@openzeppelin/contracts@4.7.0/token/ERC20/ERC20.sol\":8688:8725  Transfer(address(0), account, amount) */\n      mload(0x40)\n      dup1\n      swap2\n      sub\n      swap1\n      log3\n        /* \"sosh/SSTAPE.sol\":1082:1390  function mintWithApe(uint256 tokenAmount, address aAWallet) public payable {... */\n      pop\n      pop\n      jump\t// out\n        /* \"@openzeppelin/contracts@4.7.0/token/ERC20/ERC20.sol\":9111:9687  function _burn(address account, uint256 amount) internal virtual {... */\n    tag_217:\n      sub(shl(0xa0, 0x01), 0x01)\n        /* \"@openzeppelin/contracts@4.7.0/token/ERC20/ERC20.sol\":9194:9215  account != address(0) */\n      dup3\n      and\n        /* \"@openzeppelin/contracts@4.7.0/token/ERC20/ERC20.sol\":9186:9253  require(account != address(0), \"ERC20: burn from the zero address\") */\n      tag_334\n      jumpi\n      mload(0x40)\n      shl(0xe5, 0x461bcd)\n      dup2\n      mstore\n        /* \"#utility.yul\":12228:12230   */\n      0x20\n        /* \"@openzeppelin/contracts@4.7.0/token/ERC20/ERC20.sol\":9186:9253  require(account != address(0), \"ERC20: burn from the zero address\") */\n      0x04\n      dup3\n      add\n        /* \"#utility.yul\":12210:12231   */\n      mstore\n        /* \"#utility.yul\":12267:12269   */\n      0x21\n        /* \"#utility.yul\":12247:12265   */\n      0x24\n      dup3\n      add\n        /* \"#utility.yul\":12240:12270   */\n      mstore\n        /* \"#utility.yul\":12306:12340   */\n      0x45524332303a206275726e2066726f6d20746865207a65726f20616464726573\n        /* \"#utility.yul\":12286:12304   */\n      0x44\n      dup3\n      add\n        /* \"#utility.yul\":12279:12341   */\n      mstore\n      shl(0xf8, 0x73)\n        /* \"#utility.yul\":12357:12375   */\n      0x64\n      dup3\n      add\n        /* \"#utility.yul\":12350:12381   */\n      mstore\n        /* \"#utility.yul\":12398:12417   */\n      0x84\n      add\n        /* \"@openzeppelin/contracts@4.7.0/token/ERC20/ERC20.sol\":9186:9253  require(account != address(0), \"ERC20: burn from the zero address\") */\n      tag_171\n        /* \"#utility.yul\":12026:12423   */\n      jump\n        /* \"@openzeppelin/contracts@4.7.0/token/ERC20/ERC20.sol\":9186:9253  require(account != address(0), \"ERC20: burn from the zero address\") */\n    tag_334:\n      sub(shl(0xa0, 0x01), 0x01)\n        /* \"@openzeppelin/contracts@4.7.0/token/ERC20/ERC20.sol\":9349:9367  _balances[account] */\n      dup3\n      and\n        /* \"@openzeppelin/contracts@4.7.0/token/ERC20/ERC20.sol\":9324:9346  uint256 accountBalance */\n      0x00\n        /* \"@openzeppelin/contracts@4.7.0/token/ERC20/ERC20.sol\":9349:9367  _balances[account] */\n      swap1\n      dup2\n      mstore\n      0x20\n      dup2\n      swap1\n      mstore\n      0x40\n      swap1\n      keccak256\n      sload\n        /* \"@openzeppelin/contracts@4.7.0/token/ERC20/ERC20.sol\":9385:9409  accountBalance >= amount */\n      dup2\n      dup2\n      lt\n      iszero\n        /* \"@openzeppelin/contracts@4.7.0/token/ERC20/ERC20.sol\":9377:9448  require(accountBalance >= amount, \"ERC20: burn amount exceeds balance\") */\n      tag_338\n      jumpi\n      mload(0x40)\n      shl(0xe5, 0x461bcd)\n      dup2\n      mstore\n        /* \"#utility.yul\":12630:12632   */\n      0x20\n        /* \"@openzeppelin/contracts@4.7.0/token/ERC20/ERC20.sol\":9377:9448  require(accountBalance >= amount, \"ERC20: burn amount exceeds balance\") */\n      0x04\n      dup3\n      add\n        /* \"#utility.yul\":12612:12633   */\n      mstore\n        /* \"#utility.yul\":12669:12671   */\n      0x22\n        /* \"#utility.yul\":12649:12667   */\n      0x24\n      dup3\n      add\n        /* \"#utility.yul\":12642:12672   */\n      mstore\n        /* \"#utility.yul\":12708:12742   */\n      0x45524332303a206275726e20616d6f756e7420657863656564732062616c616e\n        /* \"#utility.yul\":12688:12706   */\n      0x44\n      dup3\n      add\n        /* \"#utility.yul\":12681:12743   */\n      mstore\n      shl(0xf0, 0x6365)\n        /* \"#utility.yul\":12759:12777   */\n      0x64\n      dup3\n      add\n        /* \"#utility.yul\":12752:12784   */\n      mstore\n        /* \"#utility.yul\":12801:12820   */\n      0x84\n      add\n        /* \"@openzeppelin/contracts@4.7.0/token/ERC20/ERC20.sol\":9377:9448  require(accountBalance >= amount, \"ERC20: burn amount exceeds balance\") */\n      tag_171\n        /* \"#utility.yul\":12428:12826   */\n      jump\n        /* \"@openzeppelin/contracts@4.7.0/token/ERC20/ERC20.sol\":9377:9448  require(accountBalance >= amount, \"ERC20: burn amount exceeds balance\") */\n    tag_338:\n      sub(shl(0xa0, 0x01), 0x01)\n        /* \"@openzeppelin/contracts@4.7.0/token/ERC20/ERC20.sol\":9482:9500  _balances[account] */\n      dup4\n      and\n        /* \"@openzeppelin/contracts@4.7.0/token/ERC20/ERC20.sol\":9482:9491  _balances */\n      0x00\n        /* \"@openzeppelin/contracts@4.7.0/token/ERC20/ERC20.sol\":9482:9500  _balances[account] */\n      swap1\n      dup2\n      mstore\n      0x20\n      dup2\n      swap1\n      mstore\n      0x40\n      dup2\n      keccak256\n        /* \"@openzeppelin/contracts@4.7.0/token/ERC20/ERC20.sol\":9503:9526  accountBalance - amount */\n      dup4\n      dup4\n      sub\n        /* \"@openzeppelin/contracts@4.7.0/token/ERC20/ERC20.sol\":9482:9526  _balances[account] = accountBalance - amount */\n      swap1\n      sstore\n        /* \"@openzeppelin/contracts@4.7.0/token/ERC20/ERC20.sol\":9546:9558  _totalSupply */\n      0x02\n        /* \"@openzeppelin/contracts@4.7.0/token/ERC20/ERC20.sol\":9546:9568  _totalSupply -= amount */\n      dup1\n      sload\n        /* \"@openzeppelin/contracts@4.7.0/token/ERC20/ERC20.sol\":9520:9526  amount */\n      dup5\n      swap3\n        /* \"@openzeppelin/contracts@4.7.0/token/ERC20/ERC20.sol\":9482:9491  _balances */\n      swap1\n        /* \"@openzeppelin/contracts@4.7.0/token/ERC20/ERC20.sol\":9546:9568  _totalSupply -= amount */\n      tag_341\n      swap1\n        /* \"@openzeppelin/contracts@4.7.0/token/ERC20/ERC20.sol\":9520:9526  amount */\n      dup5\n      swap1\n        /* \"@openzeppelin/contracts@4.7.0/token/ERC20/ERC20.sol\":9546:9568  _totalSupply -= amount */\n      tag_202\n      jump\t// in\n    tag_341:\n      swap1\n      swap2\n      sstore\n      pop\n      pop\n        /* \"@openzeppelin/contracts@4.7.0/token/ERC20/ERC20.sol\":9584:9621  Transfer(account, address(0), amount) */\n      mload(0x40)\n        /* \"#utility.yul\":713:738   */\n      dup3\n      dup2\n      mstore\n        /* \"@openzeppelin/contracts@4.7.0/token/ERC20/ERC20.sol\":9610:9611  0 */\n      0x00\n      swap1\n      sub(shl(0xa0, 0x01), 0x01)\n        /* \"@openzeppelin/contracts@4.7.0/token/ERC20/ERC20.sol\":9584:9621  Transfer(account, address(0), amount) */\n      dup6\n      and\n      swap1\n      0xddf252ad1be2c89b69c2b068fc378daa952ba7f163c4a11628f55a4df523b3ef\n      swap1\n        /* \"#utility.yul\":701:703   */\n      0x20\n        /* \"#utility.yul\":686:704   */\n      add\n        /* \"@openzeppelin/contracts@4.7.0/token/ERC20/ERC20.sol\":9584:9621  Transfer(account, address(0), amount) */\n      mload(0x40)\n      dup1\n      swap2\n      sub\n      swap1\n      log3\n        /* \"sosh/SSTAPE.sol\":983:1059  payable(msg.sender).transfer(msg.value - MINT_PRICE_PER_TOKEN * tokenAmount) */\n      pop\n        /* \"sosh/SSTAPE.sol\":645:1076  function mint(uint256 tokenAmount, address aAWallet) public payable {... */\n      pop\n      pop\n      jump\t// out\n        /* \"@openzeppelin/contracts@4.7.0/access/Ownable.sol\":1359:1489  function _checkOwner() internal view virtual {... */\n    tag_235:\n        /* \"@openzeppelin/contracts@4.7.0/access/Ownable.sol\":1273:1279  _owner */\n      and(sub(shl(0xa0, 0x01), 0x01), sload(0x05))\n        /* \"@openzeppelin/contracts@4.7.0/utils/Context.sol\":719:729  msg.sender */\n      caller\n        /* \"@openzeppelin/contracts@4.7.0/access/Ownable.sol\":1422:1445  owner() == _msgSender() */\n      eq\n        /* \"@openzeppelin/contracts@4.7.0/access/Ownable.sol\":1414:1482  require(owner() == _msgSender(), \"Ownable: caller is not the owner\") */\n      tag_237\n      jumpi\n      mload(0x40)\n      shl(0xe5, 0x461bcd)\n      dup2\n      mstore\n        /* \"#utility.yul\":13033:13035   */\n      0x20\n        /* \"@openzeppelin/contracts@4.7.0/access/Ownable.sol\":1414:1482  require(owner() == _msgSender(), \"Ownable: caller is not the owner\") */\n      0x04\n      dup3\n      add\n        /* \"#utility.yul\":13015:13036   */\n      dup2\n      swap1\n      mstore\n        /* \"#utility.yul\":13052:13070   */\n      0x24\n      dup3\n      add\n        /* \"#utility.yul\":13045:13075   */\n      mstore\n        /* \"#utility.yul\":13111:13145   */\n      0x4f776e61626c653a2063616c6c6572206973206e6f7420746865206f776e6572\n        /* \"#utility.yul\":13091:13109   */\n      0x44\n      dup3\n      add\n        /* \"#utility.yul\":13084:13146   */\n      mstore\n        /* \"#utility.yul\":13163:13181   */\n      0x64\n      add\n        /* \"@openzeppelin/contracts@4.7.0/access/Ownable.sol\":1414:1482  require(owner() == _msgSender(), \"Ownable: caller is not the owner\") */\n      tag_171\n        /* \"#utility.yul\":12831:13187   */\n      jump\n        /* \"@openzeppelin/contracts@4.7.0/access/Ownable.sol\":2433:2620  function _transferOwnership(address newOwner) internal virtual {... */\n    tag_238:\n        /* \"@openzeppelin/contracts@4.7.0/access/Ownable.sol\":2525:2531  _owner */\n      0x05\n      dup1\n      sload\n      sub(shl(0xa0, 0x01), 0x01)\n        /* \"@openzeppelin/contracts@4.7.0/access/Ownable.sol\":2541:2558  _owner = newOwner */\n      dup4\n      dup2\n      and\n      not(sub(shl(0xa0, 0x01), 0x01))\n      dup4\n      and\n      dup2\n      or\n      swap1\n      swap4\n      sstore\n        /* \"@openzeppelin/contracts@4.7.0/access/Ownable.sol\":2573:2613  OwnershipTransferred(oldOwner, newOwner) */\n      mload(0x40)\n        /* \"@openzeppelin/contracts@4.7.0/access/Ownable.sol\":2525:2531  _owner */\n      swap2\n      and\n      swap2\n        /* \"@openzeppelin/contracts@4.7.0/access/Ownable.sol\":2541:2558  _owner = newOwner */\n      swap1\n        /* \"@openzeppelin/contracts@4.7.0/access/Ownable.sol\":2525:2531  _owner */\n      dup3\n      swap1\n        /* \"@openzeppelin/contracts@4.7.0/access/Ownable.sol\":2573:2613  OwnershipTransferred(oldOwner, newOwner) */\n      0x8be0079c531659141344cd1fd0a4f28419497f9722a3daafe3b4186f6b6457e0\n      swap1\n        /* \"@openzeppelin/contracts@4.7.0/access/Ownable.sol\":2506:2522  address oldOwner */\n      0x00\n      swap1\n        /* \"@openzeppelin/contracts@4.7.0/access/Ownable.sol\":2573:2613  OwnershipTransferred(oldOwner, newOwner) */\n      log3\n        /* \"@openzeppelin/contracts@4.7.0/access/Ownable.sol\":2496:2620  {... */\n      pop\n        /* \"@openzeppelin/contracts@4.7.0/access/Ownable.sol\":2433:2620  function _transferOwnership(address newOwner) internal virtual {... */\n      pop\n      jump\t// out\n        /* \"#utility.yul\":14:562   */\n    tag_32:\n        /* \"#utility.yul\":126:130   */\n      0x00\n        /* \"#utility.yul\":155:157   */\n      0x20\n        /* \"#utility.yul\":184:186   */\n      dup1\n        /* \"#utility.yul\":173:182   */\n      dup4\n        /* \"#utility.yul\":166:187   */\n      mstore\n        /* \"#utility.yul\":216:222   */\n      dup4\n        /* \"#utility.yul\":210:223   */\n      mload\n        /* \"#utility.yul\":259:265   */\n      dup1\n        /* \"#utility.yul\":254:256   */\n      0x20\n        /* \"#utility.yul\":243:252   */\n      dup6\n        /* \"#utility.yul\":239:257   */\n      add\n        /* \"#utility.yul\":232:266   */\n      mstore\n        /* \"#utility.yul\":284:285   */\n      0x00\n        /* \"#utility.yul\":294:434   */\n    tag_357:\n        /* \"#utility.yul\":308:314   */\n      dup2\n        /* \"#utility.yul\":305:306   */\n      dup2\n        /* \"#utility.yul\":302:315   */\n      lt\n        /* \"#utility.yul\":294:434   */\n      iszero\n      tag_359\n      jumpi\n        /* \"#utility.yul\":403:417   */\n      dup6\n      dup2\n      add\n        /* \"#utility.yul\":399:422   */\n      dup4\n      add\n        /* \"#utility.yul\":393:423   */\n      mload\n        /* \"#utility.yul\":369:386   */\n      dup6\n      dup3\n      add\n        /* \"#utility.yul\":388:390   */\n      0x40\n        /* \"#utility.yul\":365:391   */\n      add\n        /* \"#utility.yul\":358:424   */\n      mstore\n        /* \"#utility.yul\":323:333   */\n      dup3\n      add\n        /* \"#utility.yul\":294:434   */\n      jump(tag_357)\n    tag_359:\n        /* \"#utility.yul\":298:301   */\n      pop\n        /* \"#utility.yul\":483:484   */\n      0x00\n        /* \"#utility.yul\":478:480   */\n      0x40\n        /* \"#utility.yul\":469:475   */\n      dup3\n        /* \"#utility.yul\":458:467   */\n      dup7\n        /* \"#utility.yul\":454:476   */\n      add\n        /* \"#utility.yul\":450:481   */\n      add\n        /* \"#utility.yul\":443:485   */\n      mstore\n        /* \"#utility.yul\":553:555   */\n      0x40\n        /* \"#utility.yul\":546:548   */\n      0x1f\n        /* \"#utility.yul\":542:549   */\n      not\n        /* \"#utility.yul\":537:539   */\n      0x1f\n        /* \"#utility.yul\":529:535   */\n      dup4\n        /* \"#utility.yul\":525:540   */\n      add\n        /* \"#utility.yul\":521:550   */\n      and\n        /* \"#utility.yul\":510:519   */\n      dup6\n        /* \"#utility.yul\":506:551   */\n      add\n        /* \"#utility.yul\":502:556   */\n      add\n        /* \"#utility.yul\":494:556   */\n      swap3\n      pop\n      pop\n      pop\n        /* \"#utility.yul\":14:562   */\n      swap3\n      swap2\n      pop\n      pop\n      jump\t// out\n        /* \"#utility.yul\":749:922   */\n    tag_353:\n        /* \"#utility.yul\":817:837   */\n      dup1\n      calldataload\n      sub(shl(0xa0, 0x01), 0x01)\n        /* \"#utility.yul\":866:897   */\n      dup2\n      and\n        /* \"#utility.yul\":856:898   */\n      dup2\n      eq\n        /* \"#utility.yul\":846:916   */\n      tag_362\n      jumpi\n        /* \"#utility.yul\":912:913   */\n      0x00\n        /* \"#utility.yul\":909:910   */\n      dup1\n        /* \"#utility.yul\":902:914   */\n      revert\n        /* \"#utility.yul\":846:916   */\n    tag_362:\n        /* \"#utility.yul\":749:922   */\n      swap2\n      swap1\n      pop\n      jump\t// out\n        /* \"#utility.yul\":927:1181   */\n    tag_41:\n        /* \"#utility.yul\":995:1001   */\n      0x00\n        /* \"#utility.yul\":1003:1009   */\n      dup1\n        /* \"#utility.yul\":1056:1058   */\n      0x40\n        /* \"#utility.yul\":1044:1053   */\n      dup4\n        /* \"#utility.yul\":1035:1042   */\n      dup6\n        /* \"#utility.yul\":1031:1054   */\n      sub\n        /* \"#utility.yul\":1027:1059   */\n      slt\n        /* \"#utility.yul\":1024:1076   */\n      iszero\n      tag_364\n      jumpi\n        /* \"#utility.yul\":1072:1073   */\n      0x00\n        /* \"#utility.yul\":1069:1070   */\n      dup1\n        /* \"#utility.yul\":1062:1074   */\n      revert\n        /* \"#utility.yul\":1024:1076   */\n    tag_364:\n        /* \"#utility.yul\":1095:1124   */\n      tag_365\n        /* \"#utility.yul\":1114:1123   */\n      dup4\n        /* \"#utility.yul\":1095:1124   */\n      tag_353\n      jump\t// in\n    tag_365:\n        /* \"#utility.yul\":1085:1124   */\n      swap5\n        /* \"#utility.yul\":1171:1173   */\n      0x20\n        /* \"#utility.yul\":1156:1174   */\n      swap4\n      swap1\n      swap4\n      add\n        /* \"#utility.yul\":1143:1175   */\n      calldataload\n      swap4\n      pop\n      pop\n      pop\n        /* \"#utility.yul\":927:1181   */\n      jump\t// out\n        /* \"#utility.yul\":1378:1706   */\n    tag_52:\n        /* \"#utility.yul\":1455:1461   */\n      0x00\n        /* \"#utility.yul\":1463:1469   */\n      dup1\n        /* \"#utility.yul\":1471:1477   */\n      0x00\n        /* \"#utility.yul\":1524:1526   */\n      0x60\n        /* \"#utility.yul\":1512:1521   */\n      dup5\n        /* \"#utility.yul\":1503:1510   */\n      dup7\n        /* \"#utility.yul\":1499:1522   */\n      sub\n        /* \"#utility.yul\":1495:1527   */\n      slt\n        /* \"#utility.yul\":1492:1544   */\n      iszero\n      tag_368\n      jumpi\n        /* \"#utility.yul\":1540:1541   */\n      0x00\n        /* \"#utility.yul\":1537:1538   */\n      dup1\n        /* \"#utility.yul\":1530:1542   */\n      revert\n        /* \"#utility.yul\":1492:1544   */\n    tag_368:\n        /* \"#utility.yul\":1563:1592   */\n      tag_369\n        /* \"#utility.yul\":1582:1591   */\n      dup5\n        /* \"#utility.yul\":1563:1592   */\n      tag_353\n      jump\t// in\n    tag_369:\n        /* \"#utility.yul\":1553:1592   */\n      swap3\n      pop\n        /* \"#utility.yul\":1611:1649   */\n      tag_370\n        /* \"#utility.yul\":1645:1647   */\n      0x20\n        /* \"#utility.yul\":1634:1643   */\n      dup6\n        /* \"#utility.yul\":1630:1648   */\n      add\n        /* \"#utility.yul\":1611:1649   */\n      tag_353\n      jump\t// in\n    tag_370:\n        /* \"#utility.yul\":1601:1649   */\n      swap2\n      pop\n        /* \"#utility.yul\":1696:1698   */\n      0x40\n        /* \"#utility.yul\":1685:1694   */\n      dup5\n        /* \"#utility.yul\":1681:1699   */\n      add\n        /* \"#utility.yul\":1668:1700   */\n      calldataload\n        /* \"#utility.yul\":1658:1700   */\n      swap1\n      pop\n        /* \"#utility.yul\":1378:1706   */\n      swap3\n      pop\n      swap3\n      pop\n      swap3\n      jump\t// out\n        /* \"#utility.yul\":1900:2154   */\n    tag_67:\n        /* \"#utility.yul\":1968:1974   */\n      0x00\n        /* \"#utility.yul\":1976:1982   */\n      dup1\n        /* \"#utility.yul\":2029:2031   */\n      0x40\n        /* \"#utility.yul\":2017:2026   */\n      dup4\n        /* \"#utility.yul\":2008:2015   */\n      dup6\n        /* \"#utility.yul\":2004:2027   */\n      sub\n        /* \"#utility.yul\":2000:2032   */\n      slt\n        /* \"#utility.yul\":1997:2049   */\n      iszero\n      tag_373\n      jumpi\n        /* \"#utility.yul\":2045:2046   */\n      0x00\n        /* \"#utility.yul\":2042:2043   */\n      dup1\n        /* \"#utility.yul\":2035:2047   */\n      revert\n        /* \"#utility.yul\":1997:2049   */\n    tag_373:\n        /* \"#utility.yul\":2081:2090   */\n      dup3\n        /* \"#utility.yul\":2068:2091   */\n      calldataload\n        /* \"#utility.yul\":2058:2091   */\n      swap2\n      pop\n        /* \"#utility.yul\":2110:2148   */\n      tag_374\n        /* \"#utility.yul\":2144:2146   */\n      0x20\n        /* \"#utility.yul\":2133:2142   */\n      dup5\n        /* \"#utility.yul\":2129:2147   */\n      add\n        /* \"#utility.yul\":2110:2148   */\n      tag_353\n      jump\t// in\n    tag_374:\n        /* \"#utility.yul\":2100:2148   */\n      swap1\n      pop\n        /* \"#utility.yul\":1900:2154   */\n      swap3\n      pop\n      swap3\n      swap1\n      pop\n      jump\t// out\n        /* \"#utility.yul\":2159:2345   */\n    tag_83:\n        /* \"#utility.yul\":2218:2224   */\n      0x00\n        /* \"#utility.yul\":2271:2273   */\n      0x20\n        /* \"#utility.yul\":2259:2268   */\n      dup3\n        /* \"#utility.yul\":2250:2257   */\n      dup5\n        /* \"#utility.yul\":2246:2269   */\n      sub\n        /* \"#utility.yul\":2242:2274   */\n      slt\n        /* \"#utility.yul\":2239:2291   */\n      iszero\n      tag_376\n      jumpi\n        /* \"#utility.yul\":2287:2288   */\n      0x00\n        /* \"#utility.yul\":2284:2285   */\n      dup1\n        /* \"#utility.yul\":2277:2289   */\n      revert\n        /* \"#utility.yul\":2239:2291   */\n    tag_376:\n        /* \"#utility.yul\":2310:2339   */\n      tag_377\n        /* \"#utility.yul\":2329:2338   */\n      dup3\n        /* \"#utility.yul\":2310:2339   */\n      tag_353\n      jump\t// in\n    tag_377:\n        /* \"#utility.yul\":2300:2339   */\n      swap4\n        /* \"#utility.yul\":2159:2345   */\n      swap3\n      pop\n      pop\n      pop\n      jump\t// out\n        /* \"#utility.yul\":2779:3039   */\n    tag_123:\n        /* \"#utility.yul\":2847:2853   */\n      0x00\n        /* \"#utility.yul\":2855:2861   */\n      dup1\n        /* \"#utility.yul\":2908:2910   */\n      0x40\n        /* \"#utility.yul\":2896:2905   */\n      dup4\n        /* \"#utility.yul\":2887:2894   */\n      dup6\n        /* \"#utility.yul\":2883:2906   */\n      sub\n        /* \"#utility.yul\":2879:2911   */\n      slt\n        /* \"#utility.yul\":2876:2928   */\n      iszero\n      tag_381\n      jumpi\n        /* \"#utility.yul\":2924:2925   */\n      0x00\n        /* \"#utility.yul\":2921:2922   */\n      dup1\n        /* \"#utility.yul\":2914:2926   */\n      revert\n        /* \"#utility.yul\":2876:2928   */\n    tag_381:\n        /* \"#utility.yul\":2947:2976   */\n      tag_382\n        /* \"#utility.yul\":2966:2975   */\n      dup4\n        /* \"#utility.yul\":2947:2976   */\n      tag_353\n      jump\t// in\n    tag_382:\n        /* \"#utility.yul\":2937:2976   */\n      swap2\n      pop\n        /* \"#utility.yul\":2995:3033   */\n      tag_374\n        /* \"#utility.yul\":3029:3031   */\n      0x20\n        /* \"#utility.yul\":3018:3027   */\n      dup5\n        /* \"#utility.yul\":3014:3032   */\n      add\n        /* \"#utility.yul\":2995:3033   */\n      tag_353\n      jump\t// in\n        /* \"#utility.yul\":3044:3424   */\n    tag_136:\n        /* \"#utility.yul\":3123:3124   */\n      0x01\n        /* \"#utility.yul\":3119:3131   */\n      dup2\n      dup2\n      shr\n      swap1\n        /* \"#utility.yul\":3166:3178   */\n      dup3\n      and\n      dup1\n        /* \"#utility.yul\":3187:3248   */\n      tag_385\n      jumpi\n        /* \"#utility.yul\":3241:3245   */\n      0x7f\n        /* \"#utility.yul\":3233:3239   */\n      dup3\n        /* \"#utility.yul\":3229:3246   */\n      and\n        /* \"#utility.yul\":3219:3246   */\n      swap2\n      pop\n        /* \"#utility.yul\":3187:3248   */\n    tag_385:\n        /* \"#utility.yul\":3294:3296   */\n      0x20\n        /* \"#utility.yul\":3286:3292   */\n      dup3\n        /* \"#utility.yul\":3283:3297   */\n      lt\n        /* \"#utility.yul\":3263:3281   */\n      dup2\n        /* \"#utility.yul\":3260:3298   */\n      sub\n        /* \"#utility.yul\":3257:3418   */\n      tag_386\n      jumpi\n        /* \"#utility.yul\":3340:3350   */\n      0x4e487b71\n        /* \"#utility.yul\":3335:3338   */\n      0xe0\n        /* \"#utility.yul\":3331:3351   */\n      shl\n        /* \"#utility.yul\":3328:3329   */\n      0x00\n        /* \"#utility.yul\":3321:3352   */\n      mstore\n        /* \"#utility.yul\":3375:3379   */\n      0x22\n        /* \"#utility.yul\":3372:3373   */\n      0x04\n        /* \"#utility.yul\":3365:3380   */\n      mstore\n        /* \"#utility.yul\":3403:3407   */\n      0x24\n        /* \"#utility.yul\":3400:3401   */\n      0x00\n        /* \"#utility.yul\":3393:3408   */\n      revert\n        /* \"#utility.yul\":3257:3418   */\n    tag_386:\n      pop\n        /* \"#utility.yul\":3044:3424   */\n      swap2\n      swap1\n      pop\n      jump\t// out\n        /* \"#utility.yul\":3429:3556   */\n    tag_354:\n        /* \"#utility.yul\":3490:3500   */\n      0x4e487b71\n        /* \"#utility.yul\":3485:3488   */\n      0xe0\n        /* \"#utility.yul\":3481:3501   */\n      shl\n        /* \"#utility.yul\":3478:3479   */\n      0x00\n        /* \"#utility.yul\":3471:3502   */\n      mstore\n        /* \"#utility.yul\":3521:3525   */\n      0x11\n        /* \"#utility.yul\":3518:3519   */\n      0x04\n        /* \"#utility.yul\":3511:3526   */\n      mstore\n        /* \"#utility.yul\":3545:3549   */\n      0x24\n        /* \"#utility.yul\":3542:3543   */\n      0x00\n        /* \"#utility.yul\":3535:3550   */\n      revert\n        /* \"#utility.yul\":3561:3686   */\n    tag_159:\n        /* \"#utility.yul\":3626:3635   */\n      dup1\n      dup3\n      add\n        /* \"#utility.yul\":3647:3657   */\n      dup1\n      dup3\n      gt\n        /* \"#utility.yul\":3644:3680   */\n      iszero\n      tag_141\n      jumpi\n        /* \"#utility.yul\":3660:3678   */\n      tag_141\n      tag_354\n      jump\t// in\n        /* \"#utility.yul\":3691:3859   */\n    tag_162:\n        /* \"#utility.yul\":3764:3773   */\n      dup1\n      dup3\n      mul\n        /* \"#utility.yul\":3795:3804   */\n      dup2\n      iszero\n        /* \"#utility.yul\":3812:3827   */\n      dup3\n      dup3\n      div\n        /* \"#utility.yul\":3806:3828   */\n      dup5\n      eq\n        /* \"#utility.yul\":3792:3829   */\n      or\n        /* \"#utility.yul\":3782:3853   */\n      tag_141\n      jumpi\n        /* \"#utility.yul\":3833:3851   */\n      tag_141\n      tag_354\n      jump\t// in\n        /* \"#utility.yul\":3864:4081   */\n    tag_164:\n        /* \"#utility.yul\":3904:3905   */\n      0x00\n        /* \"#utility.yul\":3930:3931   */\n      dup3\n        /* \"#utility.yul\":3920:4052   */\n      tag_395\n      jumpi\n        /* \"#utility.yul\":3974:3984   */\n      0x4e487b71\n        /* \"#utility.yul\":3969:3972   */\n      0xe0\n        /* \"#utility.yul\":3965:3985   */\n      shl\n        /* \"#utility.yul\":3962:3963   */\n      0x00\n        /* \"#utility.yul\":3955:3986   */\n      mstore\n        /* \"#utility.yul\":4009:4013   */\n      0x12\n        /* \"#utility.yul\":4006:4007   */\n      0x04\n        /* \"#utility.yul\":3999:4014   */\n      mstore\n        /* \"#utility.yul\":4037:4041   */\n      0x24\n        /* \"#utility.yul\":4034:4035   */\n      0x00\n        /* \"#utility.yul\":4027:4042   */\n      revert\n        /* \"#utility.yul\":3920:4052   */\n    tag_395:\n      pop\n        /* \"#utility.yul\":4066:4075   */\n      div\n      swap1\n        /* \"#utility.yul\":3864:4081   */\n      jump\t// out\n        /* \"#utility.yul\":4086:4270   */\n    tag_169:\n        /* \"#utility.yul\":4156:4162   */\n      0x00\n        /* \"#utility.yul\":4209:4211   */\n      0x20\n        /* \"#utility.yul\":4197:4206   */\n      dup3\n        /* \"#utility.yul\":4188:4195   */\n      dup5\n        /* \"#utility.yul\":4184:4207   */\n      sub\n        /* \"#utility.yul\":4180:4212   */\n      slt\n        /* \"#utility.yul\":4177:4229   */\n      iszero\n      tag_397\n      jumpi\n        /* \"#utility.yul\":4225:4226   */\n      0x00\n        /* \"#utility.yul\":4222:4223   */\n      dup1\n        /* \"#utility.yul\":4215:4227   */\n      revert\n        /* \"#utility.yul\":4177:4229   */\n    tag_397:\n      pop\n        /* \"#utility.yul\":4248:4264   */\n      mload\n      swap2\n        /* \"#utility.yul\":4086:4270   */\n      swap1\n      pop\n      jump\t// out\n        /* \"#utility.yul\":5005:5282   */\n    tag_178:\n        /* \"#utility.yul\":5072:5078   */\n      0x00\n        /* \"#utility.yul\":5125:5127   */\n      0x20\n        /* \"#utility.yul\":5113:5122   */\n      dup3\n        /* \"#utility.yul\":5104:5111   */\n      dup5\n        /* \"#utility.yul\":5100:5123   */\n      sub\n        /* \"#utility.yul\":5096:5128   */\n      slt\n        /* \"#utility.yul\":5093:5145   */\n      iszero\n      tag_401\n      jumpi\n        /* \"#utility.yul\":5141:5142   */\n      0x00\n        /* \"#utility.yul\":5138:5139   */\n      dup1\n        /* \"#utility.yul\":5131:5143   */\n      revert\n        /* \"#utility.yul\":5093:5145   */\n    tag_401:\n        /* \"#utility.yul\":5173:5182   */\n      dup2\n        /* \"#utility.yul\":5167:5183   */\n      mload\n        /* \"#utility.yul\":5226:5231   */\n      dup1\n        /* \"#utility.yul\":5219:5232   */\n      iszero\n        /* \"#utility.yul\":5212:5233   */\n      iszero\n        /* \"#utility.yul\":5205:5210   */\n      dup2\n        /* \"#utility.yul\":5202:5234   */\n      eq\n        /* \"#utility.yul\":5192:5252   */\n      tag_377\n      jumpi\n        /* \"#utility.yul\":5248:5249   */\n      0x00\n        /* \"#utility.yul\":5245:5246   */\n      dup1\n        /* \"#utility.yul\":5238:5250   */\n      revert\n        /* \"#utility.yul\":6194:6322   */\n    tag_202:\n        /* \"#utility.yul\":6261:6270   */\n      dup2\n      dup2\n      sub\n        /* \"#utility.yul\":6282:6293   */\n      dup2\n      dup2\n      gt\n        /* \"#utility.yul\":6279:6316   */\n      iszero\n      tag_141\n      jumpi\n        /* \"#utility.yul\":6296:6314   */\n      tag_141\n      tag_354\n      jump\t// in\n\n    auxdata: 0xa2646970667358221220cb303e1f6eb140ccc0f06c17eae79707c72d83989f1d263437dd8303238743e364736f6c63430008180033\n}\n",
				"bytecode": {
					"linkReferences": {},
					"object": "608060405234801562000010575f80fd5b506040518060400160405280600881526020016714dbd4d20814d4d560c21b8152506040518060400160405280600381526020016214d4d560ea1b81525081600390816200005f9190620001aa565b5060046200006e8282620001aa565b5050506200008b62000085620000b760201b60201c565b620000bb565b600680546001600160a01b0319167301e61008f78a83e0dabd2fbd7ef81b64cdd2e1f417905562000276565b3390565b600580546001600160a01b038381166001600160a01b0319831681179093556040519116919082907f8be0079c531659141344cd1fd0a4f28419497f9722a3daafe3b4186f6b6457e0905f90a35050565b634e487b7160e01b5f52604160045260245ffd5b600181811c908216806200013557607f821691505b6020821081036200015457634e487b7160e01b5f52602260045260245ffd5b50919050565b601f821115620001a557805f5260205f20601f840160051c81016020851015620001815750805b601f840160051c820191505b81811015620001a2575f81556001016200018d565b50505b505050565b81516001600160401b03811115620001c657620001c66200010c565b620001de81620001d7845462000120565b846200015a565b602080601f83116001811462000214575f8415620001fc5750858301515b5f19600386901b1c1916600185901b1785556200026e565b5f85815260208120601f198616915b82811015620002445788860151825594840194600190910190840162000223565b50858210156200026257878501515f19600388901b60f8161c191681555b505060018460011b0185555b505050505050565b61162c80620002845f395ff3fe60806040526004361061013c575f3560e01c806370a08231116100b3578063974900b61161006d578063974900b614610352578063a457c2d71461036c578063a9059cbb1461038b578063dd62ed3e146103aa578063f2fde38b146103c9578063fcd3533c146103e8575f80fd5b806370a082311461028f578063715018a6146102c357806379babd2c146102d75780638da5cb5b1461030e57806394bf804d1461032b57806395d89b411461033e575f80fd5b8063313ce56711610104578063313ce567146101f4578063395093511461020f5780634bfa5bdb1461022e5780634fa1d436146102435780636572c9b214610256578063695d2f1314610275575f80fd5b806306fdde03146101405780630802c2cd1461016a578063095ea7b31461019257806318160ddd146101c157806323b872dd146101d5575b5f80fd5b34801561014b575f80fd5b50610154610407565b60405161016191906113de565b60405180910390f35b348015610175575f80fd5b50610184660265e8af39300081565b604051908152602001610161565b34801561019d575f80fd5b506101b16101ac366004611445565b610497565b6040519015158152602001610161565b3480156101cc575f80fd5b50600254610184565b3480156101e0575f80fd5b506101b16101ef36600461146d565b6104b0565b3480156101ff575f80fd5b5060405160128152602001610161565b34801561021a575f80fd5b506101b1610229366004611445565b6104d3565b61024161023c3660046114a6565b6104f4565b005b6102416102513660046114a6565b610654565b348015610261575f80fd5b506102416102703660046114a6565b610851565b348015610280575f80fd5b5061018466470de4df82000081565b34801561029a575f80fd5b506101846102a93660046114d0565b6001600160a01b03165f9081526020819052604090205490565b3480156102ce575f80fd5b50610241610a1f565b3480156102e2575f80fd5b506006546102f6906001600160a01b031681565b6040516001600160a01b039091168152602001610161565b348015610319575f80fd5b506005546001600160a01b03166102f6565b6102416103393660046114a6565b610a32565b348015610349575f80fd5b50610154610b08565b34801561035d575f80fd5b50610184662386f26fc1000081565b348015610377575f80fd5b506101b1610386366004611445565b610b17565b348015610396575f80fd5b506101b16103a5366004611445565b610b91565b3480156103b5575f80fd5b506101846103c43660046114f0565b610b9e565b3480156103d4575f80fd5b506102416103e33660046114d0565b610bc8565b3480156103f3575f80fd5b506102416104023660046114a6565b610c41565b60606003805461041690611518565b80601f016020809104026020016040519081016040528092919081815260200182805461044290611518565b801561048d5780601f106104645761010080835404028352916020019161048d565b820191905f5260205f20905b81548152906001019060200180831161047057829003601f168201915b5050505050905090565b5f336104a4818585610dab565b60019150505b92915050565b5f336104bd858285610ece565b6104c8858585610f40565b506001949350505050565b5f336104a48185856104e58383610b9e565b6104ef9190611564565b610dab565b670de0b6b3a764000061050e83662386f26fc10000611577565b610518919061158e565b6006546040516370a0823160e01b81523360048201526001600160a01b03909116906370a0823190602401602060405180830381865afa15801561055e573d5f803e3d5ffd5b505050506040513d601f19601f8201168201806040525081019061058291906115ad565b10156105cd5760405162461bcd60e51b8152602060048201526015602482015274125b9cdd59999a58da595b9d08105411481cd95b9d605a1b60448201526064015b60405180910390fd5b6006546040516323b872dd60e01b8152336004820152306024820152604481018490526001600160a01b03909116906323b872dd906064016020604051808303815f875af1158015610621573d5f803e3d5ffd5b505050506040513d601f19601f8201168201806040525081019061064591906115c4565b50610650818361110c565b5050565b5f670de0b6b3a764000061066f84660265e8af393000611577565b610679919061158e565b90505f670de0b6b3a764000061069666470de4df82000084611577565b6106a0919061158e565b90506106ac8183611564565b3410156106f35760405162461bcd60e51b8152602060048201526015602482015274125b9cdd59999a58da595b9d08115512081cd95b9d605a1b60448201526064016105c4565b6106fd838561110c565b5f836001600160a01b0316826040515f6040518083038185875af1925050503d805f8114610746576040519150601f19603f3d011682016040523d82523d5f602084013e61074b565b606091505b50509050806107915760405162461bcd60e51b8152602060048201526012602482015271556e61626c6520746f2073656e642067617360701b60448201526064016105c4565b61079b8284611564565b34111561084a575f33836107af86346115e3565b6107b99190611564565b6040515f81818185875af1925050503d805f81146107f2576040519150601f19603f3d011682016040523d82523d5f602084013e6107f7565b606091505b50509050806108485760405162461bcd60e51b815260206004820152601860248201527f556e61626c6520746f2073656e64206261636b2066756e64000000000000000060448201526064016105c4565b505b5050505050565b335f908152602081905260409020548211156108af5760405162461bcd60e51b815260206004820152601f60248201527f496e73756666696369656e742053535420746f6b656e7320746f206275726e0060448201526064016105c4565b6108b933836111e8565b5f670de0b6b3a76400006108d4662386f26fc1000085611577565b6108de919061158e565b6006546040516370a0823160e01b815230600482015291925082916001600160a01b03909116906370a0823190602401602060405180830381865afa158015610929573d5f803e3d5ffd5b505050506040513d601f19601f8201168201806040525081019061094d91906115ad565b10156109a55760405162461bcd60e51b815260206004820152602160248201527f436f6e747261637420646f6573206e6f74206861766520656e6f7567682041506044820152604560f81b60648201526084016105c4565b60065460405163a9059cbb60e01b81526001600160a01b038481166004830152602482018490529091169063a9059cbb906044016020604051808303815f875af11580156109f5573d5f803e3d5ffd5b505050506040513d601f19601f82011682018060405250810190610a1991906115c4565b50505050565b610a27611333565b610a305f61138d565b565b670de0b6b3a7640000610a4c83660265e8af393000611577565b610a56919061158e565b341015610a9d5760405162461bcd60e51b8152602060048201526015602482015274125b9cdd59999a58da595b9d08115512081cd95b9d605a1b60448201526064016105c4565b610aa7818361110c565b610ab882660265e8af393000611577565b34111561065057336108fc610ad484660265e8af393000611577565b610ade90346115e3565b6040518115909202915f818181858888f19350505050158015610b03573d5f803e3d5ffd5b505050565b60606004805461041690611518565b5f3381610b248286610b9e565b905083811015610b845760405162461bcd60e51b815260206004820152602560248201527f45524332303a2064656372656173656420616c6c6f77616e63652062656c6f77604482015264207a65726f60d81b60648201526084016105c4565b6104c88286868403610dab565b5f336104a4818585610f40565b6001600160a01b039182165f90815260016020908152604080832093909416825291909152205490565b610bd0611333565b6001600160a01b038116610c355760405162461bcd60e51b815260206004820152602660248201527f4f776e61626c653a206e6577206f776e657220697320746865207a65726f206160448201526564647265737360d01b60648201526084016105c4565b610c3e8161138d565b50565b335f90815260208190526040902054821115610c9f5760405162461bcd60e51b815260206004820152601f60248201527f496e73756666696369656e742053535420746f6b656e7320746f206275726e0060448201526064016105c4565b610ca933836111e8565b5f610cbb660265e8af39300084611577565b905080471015610d175760405162461bcd60e51b815260206004820152602160248201527f436f6e747261637420646f6573206e6f74206861766520656e6f7567682045546044820152600960fb1b60648201526084016105c4565b5f826001600160a01b0316826040515f6040518083038185875af1925050503d805f8114610d60576040519150601f19603f3d011682016040523d82523d5f602084013e610d65565b606091505b5050905080610a195760405162461bcd60e51b815260206004820152601260248201527108cc2d2d8cac840e8de40e6cadcc8408aa8960731b60448201526064016105c4565b6001600160a01b038316610e0d5760405162461bcd60e51b8152602060048201526024808201527f45524332303a20617070726f76652066726f6d20746865207a65726f206164646044820152637265737360e01b60648201526084016105c4565b6001600160a01b038216610e6e5760405162461bcd60e51b815260206004820152602260248201527f45524332303a20617070726f766520746f20746865207a65726f206164647265604482015261737360f01b60648201526084016105c4565b6001600160a01b038381165f8181526001602090815260408083209487168084529482529182902085905590518481527f8c5be1e5ebec7d5bd14f71427d1e84f3dd0314c0f7b2291e5b200ac8c7c3b925910160405180910390a3505050565b5f610ed98484610b9e565b90505f198114610a195781811015610f335760405162461bcd60e51b815260206004820152601d60248201527f45524332303a20696e73756666696369656e7420616c6c6f77616e636500000060448201526064016105c4565b610a198484848403610dab565b6001600160a01b038316610fa45760405162461bcd60e51b815260206004820152602560248201527f45524332303a207472616e736665722066726f6d20746865207a65726f206164604482015264647265737360d81b60648201526084016105c4565b6001600160a01b0382166110065760405162461bcd60e51b815260206004820152602360248201527f45524332303a207472616e7366657220746f20746865207a65726f206164647260448201526265737360e81b60648201526084016105c4565b6001600160a01b0383165f908152602081905260409020548181101561107d5760405162461bcd60e51b815260206004820152602660248201527f45524332303a207472616e7366657220616d6f756e7420657863656564732062604482015265616c616e636560d01b60648201526084016105c4565b6001600160a01b038085165f908152602081905260408082208585039055918516815290812080548492906110b3908490611564565b92505081905550826001600160a01b0316846001600160a01b03167fddf252ad1be2c89b69c2b068fc378daa952ba7f163c4a11628f55a4df523b3ef846040516110ff91815260200190565b60405180910390a3610a19565b6001600160a01b0382166111625760405162461bcd60e51b815260206004820152601f60248201527f45524332303a206d696e7420746f20746865207a65726f20616464726573730060448201526064016105c4565b8060025f8282546111739190611564565b90915550506001600160a01b0382165f908152602081905260408120805483929061119f908490611564565b90915550506040518181526001600160a01b038316905f907fddf252ad1be2c89b69c2b068fc378daa952ba7f163c4a11628f55a4df523b3ef9060200160405180910390a35050565b6001600160a01b0382166112485760405162461bcd60e51b815260206004820152602160248201527f45524332303a206275726e2066726f6d20746865207a65726f206164647265736044820152607360f81b60648201526084016105c4565b6001600160a01b0382165f90815260208190526040902054818110156112bb5760405162461bcd60e51b815260206004820152602260248201527f45524332303a206275726e20616d6f756e7420657863656564732062616c616e604482015261636560f01b60648201526084016105c4565b6001600160a01b0383165f9081526020819052604081208383039055600280548492906112e99084906115e3565b90915550506040518281525f906001600160a01b038516907fddf252ad1be2c89b69c2b068fc378daa952ba7f163c4a11628f55a4df523b3ef9060200160405180910390a3505050565b6005546001600160a01b03163314610a305760405162461bcd60e51b815260206004820181905260248201527f4f776e61626c653a2063616c6c6572206973206e6f7420746865206f776e657260448201526064016105c4565b600580546001600160a01b038381166001600160a01b0319831681179093556040519116919082907f8be0079c531659141344cd1fd0a4f28419497f9722a3daafe3b4186f6b6457e0905f90a35050565b5f602080835283518060208501525f5b8181101561140a578581018301518582016040015282016113ee565b505f604082860101526040601f19601f8301168501019250505092915050565b80356001600160a01b0381168114611440575f80fd5b919050565b5f8060408385031215611456575f80fd5b61145f8361142a565b946020939093013593505050565b5f805f6060848603121561147f575f80fd5b6114888461142a565b92506114966020850161142a565b9150604084013590509250925092565b5f80604083850312156114b7575f80fd5b823591506114c76020840161142a565b90509250929050565b5f602082840312156114e0575f80fd5b6114e98261142a565b9392505050565b5f8060408385031215611501575f80fd5b61150a8361142a565b91506114c76020840161142a565b600181811c9082168061152c57607f821691505b60208210810361154a57634e487b7160e01b5f52602260045260245ffd5b50919050565b634e487b7160e01b5f52601160045260245ffd5b808201808211156104aa576104aa611550565b80820281158282048414176104aa576104aa611550565b5f826115a857634e487b7160e01b5f52601260045260245ffd5b500490565b5f602082840312156115bd575f80fd5b5051919050565b5f602082840312156115d4575f80fd5b815180151581146114e9575f80fd5b818103818111156104aa576104aa61155056fea2646970667358221220cb303e1f6eb140ccc0f06c17eae79707c72d83989f1d263437dd8303238743e364736f6c63430008180033",
					"opcodes": "PUSH1 0x80 PUSH1 0x40 MSTORE CALLVALUE DUP1 ISZERO PUSH3 0x10 JUMPI PUSH0 DUP1 REVERT JUMPDEST POP PUSH1 0x40 MLOAD DUP1 PUSH1 0x40 ADD PUSH1 0x40 MSTORE DUP1 PUSH1 0x8 DUP2 MSTORE PUSH1 0x20 ADD PUSH8 0x14DBD4D20814D4D5 PUSH1 0xC2 SHL DUP2 MSTORE POP PUSH1 0x40 MLOAD DUP1 PUSH1 0x40 ADD PUSH1 0x40 MSTORE DUP1 PUSH1 0x3 DUP2 MSTORE PUSH1 0x20 ADD PUSH3 0x14D4D5 PUSH1 0xEA SHL DUP2 MSTORE POP DUP2 PUSH1 0x3 SWAP1 DUP2 PUSH3 0x5F SWAP2 SWAP1 PUSH3 0x1AA JUMP JUMPDEST POP PUSH1 0x4 PUSH3 0x6E DUP3 DUP3 PUSH3 0x1AA JUMP JUMPDEST POP POP POP PUSH3 0x8B PUSH3 0x85 PUSH3 0xB7 PUSH1 0x20 SHL PUSH1 0x20 SHR JUMP JUMPDEST PUSH3 0xBB JUMP JUMPDEST PUSH1 0x6 DUP1 SLOAD PUSH1 0x1 PUSH1 0x1 PUSH1 0xA0 SHL SUB NOT AND PUSH20 0x1E61008F78A83E0DABD2FBD7EF81B64CDD2E1F4 OR SWAP1 SSTORE PUSH3 0x276 JUMP JUMPDEST CALLER SWAP1 JUMP JUMPDEST PUSH1 0x5 DUP1 SLOAD PUSH1 0x1 PUSH1 0x1 PUSH1 0xA0 SHL SUB DUP4 DUP2 AND PUSH1 0x1 PUSH1 0x1 PUSH1 0xA0 SHL SUB NOT DUP4 AND DUP2 OR SWAP1 SWAP4 SSTORE PUSH1 0x40 MLOAD SWAP2 AND SWAP2 SWAP1 DUP3 SWAP1 PUSH32 0x8BE0079C531659141344CD1FD0A4F28419497F9722A3DAAFE3B4186F6B6457E0 SWAP1 PUSH0 SWAP1 LOG3 POP POP JUMP JUMPDEST PUSH4 0x4E487B71 PUSH1 0xE0 SHL PUSH0 MSTORE PUSH1 0x41 PUSH1 0x4 MSTORE PUSH1 0x24 PUSH0 REVERT JUMPDEST PUSH1 0x1 DUP2 DUP2 SHR SWAP1 DUP3 AND DUP1 PUSH3 0x135 JUMPI PUSH1 0x7F DUP3 AND SWAP2 POP JUMPDEST PUSH1 0x20 DUP3 LT DUP2 SUB PUSH3 0x154 JUMPI PUSH4 0x4E487B71 PUSH1 0xE0 SHL PUSH0 MSTORE PUSH1 0x22 PUSH1 0x4 MSTORE PUSH1 0x24 PUSH0 REVERT JUMPDEST POP SWAP2 SWAP1 POP JUMP JUMPDEST PUSH1 0x1F DUP3 GT ISZERO PUSH3 0x1A5 JUMPI DUP1 PUSH0 MSTORE PUSH1 0x20 PUSH0 KECCAK256 PUSH1 0x1F DUP5 ADD PUSH1 0x5 SHR DUP2 ADD PUSH1 0x20 DUP6 LT ISZERO PUSH3 0x181 JUMPI POP DUP1 JUMPDEST PUSH1 0x1F DUP5 ADD PUSH1 0x5 SHR DUP3 ADD SWAP2 POP JUMPDEST DUP2 DUP2 LT ISZERO PUSH3 0x1A2 JUMPI PUSH0 DUP2 SSTORE PUSH1 0x1 ADD PUSH3 0x18D JUMP JUMPDEST POP POP JUMPDEST POP POP POP JUMP JUMPDEST DUP2 MLOAD PUSH1 0x1 PUSH1 0x1 PUSH1 0x40 SHL SUB DUP2 GT ISZERO PUSH3 0x1C6 JUMPI PUSH3 0x1C6 PUSH3 0x10C JUMP JUMPDEST PUSH3 0x1DE DUP2 PUSH3 0x1D7 DUP5 SLOAD PUSH3 0x120 JUMP JUMPDEST DUP5 PUSH3 0x15A JUMP JUMPDEST PUSH1 0x20 DUP1 PUSH1 0x1F DUP4 GT PUSH1 0x1 DUP2 EQ PUSH3 0x214 JUMPI PUSH0 DUP5 ISZERO PUSH3 0x1FC JUMPI POP DUP6 DUP4 ADD MLOAD JUMPDEST PUSH0 NOT PUSH1 0x3 DUP7 SWAP1 SHL SHR NOT AND PUSH1 0x1 DUP6 SWAP1 SHL OR DUP6 SSTORE PUSH3 0x26E JUMP JUMPDEST PUSH0 DUP6 DUP2 MSTORE PUSH1 0x20 DUP2 KECCAK256 PUSH1 0x1F NOT DUP7 AND SWAP2 JUMPDEST DUP3 DUP2 LT ISZERO PUSH3 0x244 JUMPI DUP9 DUP7 ADD MLOAD DUP3 SSTORE SWAP5 DUP5 ADD SWAP5 PUSH1 0x1 SWAP1 SWAP2 ADD SWAP1 DUP5 ADD PUSH3 0x223 JUMP JUMPDEST POP DUP6 DUP3 LT ISZERO PUSH3 0x262 JUMPI DUP8 DUP6 ADD MLOAD PUSH0 NOT PUSH1 0x3 DUP9 SWAP1 SHL PUSH1 0xF8 AND SHR NOT AND DUP2 SSTORE JUMPDEST POP POP PUSH1 0x1 DUP5 PUSH1 0x1 SHL ADD DUP6 SSTORE JUMPDEST POP POP POP POP POP POP JUMP JUMPDEST PUSH2 0x162C DUP1 PUSH3 0x284 PUSH0 CODECOPY PUSH0 RETURN INVALID PUSH1 0x80 PUSH1 0x40 MSTORE PUSH1 0x4 CALLDATASIZE LT PUSH2 0x13C JUMPI PUSH0 CALLDATALOAD PUSH1 0xE0 SHR DUP1 PUSH4 0x70A08231 GT PUSH2 0xB3 JUMPI DUP1 PUSH4 0x974900B6 GT PUSH2 0x6D JUMPI DUP1 PUSH4 0x974900B6 EQ PUSH2 0x352 JUMPI DUP1 PUSH4 0xA457C2D7 EQ PUSH2 0x36C JUMPI DUP1 PUSH4 0xA9059CBB EQ PUSH2 0x38B JUMPI DUP1 PUSH4 0xDD62ED3E EQ PUSH2 0x3AA JUMPI DUP1 PUSH4 0xF2FDE38B EQ PUSH2 0x3C9 JUMPI DUP1 PUSH4 0xFCD3533C EQ PUSH2 0x3E8 JUMPI PUSH0 DUP1 REVERT JUMPDEST DUP1 PUSH4 0x70A08231 EQ PUSH2 0x28F JUMPI DUP1 PUSH4 0x715018A6 EQ PUSH2 0x2C3 JUMPI DUP1 PUSH4 0x79BABD2C EQ PUSH2 0x2D7 JUMPI DUP1 PUSH4 0x8DA5CB5B EQ PUSH2 0x30E JUMPI DUP1 PUSH4 0x94BF804D EQ PUSH2 0x32B JUMPI DUP1 PUSH4 0x95D89B41 EQ PUSH2 0x33E JUMPI PUSH0 DUP1 REVERT JUMPDEST DUP1 PUSH4 0x313CE567 GT PUSH2 0x104 JUMPI DUP1 PUSH4 0x313CE567 EQ PUSH2 0x1F4 JUMPI DUP1 PUSH4 0x39509351 EQ PUSH2 0x20F JUMPI DUP1 PUSH4 0x4BFA5BDB EQ PUSH2 0x22E JUMPI DUP1 PUSH4 0x4FA1D436 EQ PUSH2 0x243 JUMPI DUP1 PUSH4 0x6572C9B2 EQ PUSH2 0x256 JUMPI DUP1 PUSH4 0x695D2F13 EQ PUSH2 0x275 JUMPI PUSH0 DUP1 REVERT JUMPDEST DUP1 PUSH4 0x6FDDE03 EQ PUSH2 0x140 JUMPI DUP1 PUSH4 0x802C2CD EQ PUSH2 0x16A JUMPI DUP1 PUSH4 0x95EA7B3 EQ PUSH2 0x192 JUMPI DUP1 PUSH4 0x18160DDD EQ PUSH2 0x1C1 JUMPI DUP1 PUSH4 0x23B872DD EQ PUSH2 0x1D5 JUMPI JUMPDEST PUSH0 DUP1 REVERT JUMPDEST CALLVALUE DUP1 ISZERO PUSH2 0x14B JUMPI PUSH0 DUP1 REVERT JUMPDEST POP PUSH2 0x154 PUSH2 0x407 JUMP JUMPDEST PUSH1 0x40 MLOAD PUSH2 0x161 SWAP2 SWAP1 PUSH2 0x13DE JUMP JUMPDEST PUSH1 0x40 MLOAD DUP1 SWAP2 SUB SWAP1 RETURN JUMPDEST CALLVALUE DUP1 ISZERO PUSH2 0x175 JUMPI PUSH0 DUP1 REVERT JUMPDEST POP PUSH2 0x184 PUSH7 0x265E8AF393000 DUP2 JUMP JUMPDEST PUSH1 0x40 MLOAD SWAP1 DUP2 MSTORE PUSH1 0x20 ADD PUSH2 0x161 JUMP JUMPDEST CALLVALUE DUP1 ISZERO PUSH2 0x19D JUMPI PUSH0 DUP1 REVERT JUMPDEST POP PUSH2 0x1B1 PUSH2 0x1AC CALLDATASIZE PUSH1 0x4 PUSH2 0x1445 JUMP JUMPDEST PUSH2 0x497 JUMP JUMPDEST PUSH1 0x40 MLOAD SWAP1 ISZERO ISZERO DUP2 MSTORE PUSH1 0x20 ADD PUSH2 0x161 JUMP JUMPDEST CALLVALUE DUP1 ISZERO PUSH2 0x1CC JUMPI PUSH0 DUP1 REVERT JUMPDEST POP PUSH1 0x2 SLOAD PUSH2 0x184 JUMP JUMPDEST CALLVALUE DUP1 ISZERO PUSH2 0x1E0 JUMPI PUSH0 DUP1 REVERT JUMPDEST POP PUSH2 0x1B1 PUSH2 0x1EF CALLDATASIZE PUSH1 0x4 PUSH2 0x146D JUMP JUMPDEST PUSH2 0x4B0 JUMP JUMPDEST CALLVALUE DUP1 ISZERO PUSH2 0x1FF JUMPI PUSH0 DUP1 REVERT JUMPDEST POP PUSH1 0x40 MLOAD PUSH1 0x12 DUP2 MSTORE PUSH1 0x20 ADD PUSH2 0x161 JUMP JUMPDEST CALLVALUE DUP1 ISZERO PUSH2 0x21A JUMPI PUSH0 DUP1 REVERT JUMPDEST POP PUSH2 0x1B1 PUSH2 0x229 CALLDATASIZE PUSH1 0x4 PUSH2 0x1445 JUMP JUMPDEST PUSH2 0x4D3 JUMP JUMPDEST PUSH2 0x241 PUSH2 0x23C CALLDATASIZE PUSH1 0x4 PUSH2 0x14A6 JUMP JUMPDEST PUSH2 0x4F4 JUMP JUMPDEST STOP JUMPDEST PUSH2 0x241 PUSH2 0x251 CALLDATASIZE PUSH1 0x4 PUSH2 0x14A6 JUMP JUMPDEST PUSH2 0x654 JUMP JUMPDEST CALLVALUE DUP1 ISZERO PUSH2 0x261 JUMPI PUSH0 DUP1 REVERT JUMPDEST POP PUSH2 0x241 PUSH2 0x270 CALLDATASIZE PUSH1 0x4 PUSH2 0x14A6 JUMP JUMPDEST PUSH2 0x851 JUMP JUMPDEST CALLVALUE DUP1 ISZERO PUSH2 0x280 JUMPI PUSH0 DUP1 REVERT JUMPDEST POP PUSH2 0x184 PUSH7 0x470DE4DF820000 DUP2 JUMP JUMPDEST CALLVALUE DUP1 ISZERO PUSH2 0x29A JUMPI PUSH0 DUP1 REVERT JUMPDEST POP PUSH2 0x184 PUSH2 0x2A9 CALLDATASIZE PUSH1 0x4 PUSH2 0x14D0 JUMP JUMPDEST PUSH1 0x1 PUSH1 0x1 PUSH1 0xA0 SHL SUB AND PUSH0 SWAP1 DUP2 MSTORE PUSH1 0x20 DUP2 SWAP1 MSTORE PUSH1 0x40 SWAP1 KECCAK256 SLOAD SWAP1 JUMP JUMPDEST CALLVALUE DUP1 ISZERO PUSH2 0x2CE JUMPI PUSH0 DUP1 REVERT JUMPDEST POP PUSH2 0x241 PUSH2 0xA1F JUMP JUMPDEST CALLVALUE DUP1 ISZERO PUSH2 0x2E2 JUMPI PUSH0 DUP1 REVERT JUMPDEST POP PUSH1 0x6 SLOAD PUSH2 0x2F6 SWAP1 PUSH1 0x1 PUSH1 0x1 PUSH1 0xA0 SHL SUB AND DUP2 JUMP JUMPDEST PUSH1 0x40 MLOAD PUSH1 0x1 PUSH1 0x1 PUSH1 0xA0 SHL SUB SWAP1 SWAP2 AND DUP2 MSTORE PUSH1 0x20 ADD PUSH2 0x161 JUMP JUMPDEST CALLVALUE DUP1 ISZERO PUSH2 0x319 JUMPI PUSH0 DUP1 REVERT JUMPDEST POP PUSH1 0x5 SLOAD PUSH1 0x1 PUSH1 0x1 PUSH1 0xA0 SHL SUB AND PUSH2 0x2F6 JUMP JUMPDEST PUSH2 0x241 PUSH2 0x339 CALLDATASIZE PUSH1 0x4 PUSH2 0x14A6 JUMP JUMPDEST PUSH2 0xA32 JUMP JUMPDEST CALLVALUE DUP1 ISZERO PUSH2 0x349 JUMPI PUSH0 DUP1 REVERT JUMPDEST POP PUSH2 0x154 PUSH2 0xB08 JUMP JUMPDEST CALLVALUE DUP1 ISZERO PUSH2 0x35D JUMPI PUSH0 DUP1 REVERT JUMPDEST POP PUSH2 0x184 PUSH7 0x2386F26FC10000 DUP2 JUMP JUMPDEST CALLVALUE DUP1 ISZERO PUSH2 0x377 JUMPI PUSH0 DUP1 REVERT JUMPDEST POP PUSH2 0x1B1 PUSH2 0x386 CALLDATASIZE PUSH1 0x4 PUSH2 0x1445 JUMP JUMPDEST PUSH2 0xB17 JUMP JUMPDEST CALLVALUE DUP1 ISZERO PUSH2 0x396 JUMPI PUSH0 DUP1 REVERT JUMPDEST POP PUSH2 0x1B1 PUSH2 0x3A5 CALLDATASIZE PUSH1 0x4 PUSH2 0x1445 JUMP JUMPDEST PUSH2 0xB91 JUMP JUMPDEST CALLVALUE DUP1 ISZERO PUSH2 0x3B5 JUMPI PUSH0 DUP1 REVERT JUMPDEST POP PUSH2 0x184 PUSH2 0x3C4 CALLDATASIZE PUSH1 0x4 PUSH2 0x14F0 JUMP JUMPDEST PUSH2 0xB9E JUMP JUMPDEST CALLVALUE DUP1 ISZERO PUSH2 0x3D4 JUMPI PUSH0 DUP1 REVERT JUMPDEST POP PUSH2 0x241 PUSH2 0x3E3 CALLDATASIZE PUSH1 0x4 PUSH2 0x14D0 JUMP JUMPDEST PUSH2 0xBC8 JUMP JUMPDEST CALLVALUE DUP1 ISZERO PUSH2 0x3F3 JUMPI PUSH0 DUP1 REVERT JUMPDEST POP PUSH2 0x241 PUSH2 0x402 CALLDATASIZE PUSH1 0x4 PUSH2 0x14A6 JUMP JUMPDEST PUSH2 0xC41 JUMP JUMPDEST PUSH1 0x60 PUSH1 0x3 DUP1 SLOAD PUSH2 0x416 SWAP1 PUSH2 0x1518 JUMP JUMPDEST DUP1 PUSH1 0x1F ADD PUSH1 0x20 DUP1 SWAP2 DIV MUL PUSH1 0x20 ADD PUSH1 0x40 MLOAD SWAP1 DUP2 ADD PUSH1 0x40 MSTORE DUP1 SWAP3 SWAP2 SWAP1 DUP2 DUP2 MSTORE PUSH1 0x20 ADD DUP3 DUP1 SLOAD PUSH2 0x442 SWAP1 PUSH2 0x1518 JUMP JUMPDEST DUP1 ISZERO PUSH2 0x48D JUMPI DUP1 PUSH1 0x1F LT PUSH2 0x464 JUMPI PUSH2 0x100 DUP1 DUP4 SLOAD DIV MUL DUP4 MSTORE SWAP2 PUSH1 0x20 ADD SWAP2 PUSH2 0x48D JUMP JUMPDEST DUP3 ADD SWAP2 SWAP1 PUSH0 MSTORE PUSH1 0x20 PUSH0 KECCAK256 SWAP1 JUMPDEST DUP2 SLOAD DUP2 MSTORE SWAP1 PUSH1 0x1 ADD SWAP1 PUSH1 0x20 ADD DUP1 DUP4 GT PUSH2 0x470 JUMPI DUP3 SWAP1 SUB PUSH1 0x1F AND DUP3 ADD SWAP2 JUMPDEST POP POP POP POP POP SWAP1 POP SWAP1 JUMP JUMPDEST PUSH0 CALLER PUSH2 0x4A4 DUP2 DUP6 DUP6 PUSH2 0xDAB JUMP JUMPDEST PUSH1 0x1 SWAP2 POP POP JUMPDEST SWAP3 SWAP2 POP POP JUMP JUMPDEST PUSH0 CALLER PUSH2 0x4BD DUP6 DUP3 DUP6 PUSH2 0xECE JUMP JUMPDEST PUSH2 0x4C8 DUP6 DUP6 DUP6 PUSH2 0xF40 JUMP JUMPDEST POP PUSH1 0x1 SWAP5 SWAP4 POP POP POP POP JUMP JUMPDEST PUSH0 CALLER PUSH2 0x4A4 DUP2 DUP6 DUP6 PUSH2 0x4E5 DUP4 DUP4 PUSH2 0xB9E JUMP JUMPDEST PUSH2 0x4EF SWAP2 SWAP1 PUSH2 0x1564 JUMP JUMPDEST PUSH2 0xDAB JUMP JUMPDEST PUSH8 0xDE0B6B3A7640000 PUSH2 0x50E DUP4 PUSH7 0x2386F26FC10000 PUSH2 0x1577 JUMP JUMPDEST PUSH2 0x518 SWAP2 SWAP1 PUSH2 0x158E JUMP JUMPDEST PUSH1 0x6 SLOAD PUSH1 0x40 MLOAD PUSH4 0x70A08231 PUSH1 0xE0 SHL DUP2 MSTORE CALLER PUSH1 0x4 DUP3 ADD MSTORE PUSH1 0x1 PUSH1 0x1 PUSH1 0xA0 SHL SUB SWAP1 SWAP2 AND SWAP1 PUSH4 0x70A08231 SWAP1 PUSH1 0x24 ADD PUSH1 0x20 PUSH1 0x40 MLOAD DUP1 DUP4 SUB DUP2 DUP7 GAS STATICCALL ISZERO DUP1 ISZERO PUSH2 0x55E JUMPI RETURNDATASIZE PUSH0 DUP1 RETURNDATACOPY RETURNDATASIZE PUSH0 REVERT JUMPDEST POP POP POP POP PUSH1 0x40 MLOAD RETURNDATASIZE PUSH1 0x1F NOT PUSH1 0x1F DUP3 ADD AND DUP3 ADD DUP1 PUSH1 0x40 MSTORE POP DUP2 ADD SWAP1 PUSH2 0x582 SWAP2 SWAP1 PUSH2 0x15AD JUMP JUMPDEST LT ISZERO PUSH2 0x5CD JUMPI PUSH1 0x40 MLOAD PUSH3 0x461BCD PUSH1 0xE5 SHL DUP2 MSTORE PUSH1 0x20 PUSH1 0x4 DUP3 ADD MSTORE PUSH1 0x15 PUSH1 0x24 DUP3 ADD MSTORE PUSH21 0x125B9CDD59999A58DA595B9D08105411481CD95B9D PUSH1 0x5A SHL PUSH1 0x44 DUP3 ADD MSTORE PUSH1 0x64 ADD JUMPDEST PUSH1 0x40 MLOAD DUP1 SWAP2 SUB SWAP1 REVERT JUMPDEST PUSH1 0x6 SLOAD PUSH1 0x40 MLOAD PUSH4 0x23B872DD PUSH1 0xE0 SHL DUP2 MSTORE CALLER PUSH1 0x4 DUP3 ADD MSTORE ADDRESS PUSH1 0x24 DUP3 ADD MSTORE PUSH1 0x44 DUP2 ADD DUP5 SWAP1 MSTORE PUSH1 0x1 PUSH1 0x1 PUSH1 0xA0 SHL SUB SWAP1 SWAP2 AND SWAP1 PUSH4 0x23B872DD SWAP1 PUSH1 0x64 ADD PUSH1 0x20 PUSH1 0x40 MLOAD DUP1 DUP4 SUB DUP2 PUSH0 DUP8 GAS CALL ISZERO DUP1 ISZERO PUSH2 0x621 JUMPI RETURNDATASIZE PUSH0 DUP1 RETURNDATACOPY RETURNDATASIZE PUSH0 REVERT JUMPDEST POP POP POP POP PUSH1 0x40 MLOAD RETURNDATASIZE PUSH1 0x1F NOT PUSH1 0x1F DUP3 ADD AND DUP3 ADD DUP1 PUSH1 0x40 MSTORE POP DUP2 ADD SWAP1 PUSH2 0x645 SWAP2 SWAP1 PUSH2 0x15C4 JUMP JUMPDEST POP PUSH2 0x650 DUP2 DUP4 PUSH2 0x110C JUMP JUMPDEST POP POP JUMP JUMPDEST PUSH0 PUSH8 0xDE0B6B3A7640000 PUSH2 0x66F DUP5 PUSH7 0x265E8AF393000 PUSH2 0x1577 JUMP JUMPDEST PUSH2 0x679 SWAP2 SWAP1 PUSH2 0x158E JUMP JUMPDEST SWAP1 POP PUSH0 PUSH8 0xDE0B6B3A7640000 PUSH2 0x696 PUSH7 0x470DE4DF820000 DUP5 PUSH2 0x1577 JUMP JUMPDEST PUSH2 0x6A0 SWAP2 SWAP1 PUSH2 0x158E JUMP JUMPDEST SWAP1 POP PUSH2 0x6AC DUP2 DUP4 PUSH2 0x1564 JUMP JUMPDEST CALLVALUE LT ISZERO PUSH2 0x6F3 JUMPI PUSH1 0x40 MLOAD PUSH3 0x461BCD PUSH1 0xE5 SHL DUP2 MSTORE PUSH1 0x20 PUSH1 0x4 DUP3 ADD MSTORE PUSH1 0x15 PUSH1 0x24 DUP3 ADD MSTORE PUSH21 0x125B9CDD59999A58DA595B9D08115512081CD95B9D PUSH1 0x5A SHL PUSH1 0x44 DUP3 ADD MSTORE PUSH1 0x64 ADD PUSH2 0x5C4 JUMP JUMPDEST PUSH2 0x6FD DUP4 DUP6 PUSH2 0x110C JUMP JUMPDEST PUSH0 DUP4 PUSH1 0x1 PUSH1 0x1 PUSH1 0xA0 SHL SUB AND DUP3 PUSH1 0x40 MLOAD PUSH0 PUSH1 0x40 MLOAD DUP1 DUP4 SUB DUP2 DUP6 DUP8 GAS CALL SWAP3 POP POP POP RETURNDATASIZE DUP1 PUSH0 DUP2 EQ PUSH2 0x746 JUMPI PUSH1 0x40 MLOAD SWAP2 POP PUSH1 0x1F NOT PUSH1 0x3F RETURNDATASIZE ADD AND DUP3 ADD PUSH1 0x40 MSTORE RETURNDATASIZE DUP3 MSTORE RETURNDATASIZE PUSH0 PUSH1 0x20 DUP5 ADD RETURNDATACOPY PUSH2 0x74B JUMP JUMPDEST PUSH1 0x60 SWAP2 POP JUMPDEST POP POP SWAP1 POP DUP1 PUSH2 0x791 JUMPI PUSH1 0x40 MLOAD PUSH3 0x461BCD PUSH1 0xE5 SHL DUP2 MSTORE PUSH1 0x20 PUSH1 0x4 DUP3 ADD MSTORE PUSH1 0x12 PUSH1 0x24 DUP3 ADD MSTORE PUSH18 0x556E61626C6520746F2073656E6420676173 PUSH1 0x70 SHL PUSH1 0x44 DUP3 ADD MSTORE PUSH1 0x64 ADD PUSH2 0x5C4 JUMP JUMPDEST PUSH2 0x79B DUP3 DUP5 PUSH2 0x1564 JUMP JUMPDEST CALLVALUE GT ISZERO PUSH2 0x84A JUMPI PUSH0 CALLER DUP4 PUSH2 0x7AF DUP7 CALLVALUE PUSH2 0x15E3 JUMP JUMPDEST PUSH2 0x7B9 SWAP2 SWAP1 PUSH2 0x1564 JUMP JUMPDEST PUSH1 0x40 MLOAD PUSH0 DUP2 DUP2 DUP2 DUP6 DUP8 GAS CALL SWAP3 POP POP POP RETURNDATASIZE DUP1 PUSH0 DUP2 EQ PUSH2 0x7F2 JUMPI PUSH1 0x40 MLOAD SWAP2 POP PUSH1 0x1F NOT PUSH1 0x3F RETURNDATASIZE ADD AND DUP3 ADD PUSH1 0x40 MSTORE RETURNDATASIZE DUP3 MSTORE RETURNDATASIZE PUSH0 PUSH1 0x20 DUP5 ADD RETURNDATACOPY PUSH2 0x7F7 JUMP JUMPDEST PUSH1 0x60 SWAP2 POP JUMPDEST POP POP SWAP1 POP DUP1 PUSH2 0x848 JUMPI PUSH1 0x40 MLOAD PUSH3 0x461BCD PUSH1 0xE5 SHL DUP2 MSTORE PUSH1 0x20 PUSH1 0x4 DUP3 ADD MSTORE PUSH1 0x18 PUSH1 0x24 DUP3 ADD MSTORE PUSH32 0x556E61626C6520746F2073656E64206261636B2066756E640000000000000000 PUSH1 0x44 DUP3 ADD MSTORE PUSH1 0x64 ADD PUSH2 0x5C4 JUMP JUMPDEST POP JUMPDEST POP POP POP POP POP JUMP JUMPDEST CALLER PUSH0 SWAP1 DUP2 MSTORE PUSH1 0x20 DUP2 SWAP1 MSTORE PUSH1 0x40 SWAP1 KECCAK256 SLOAD DUP3 GT ISZERO PUSH2 0x8AF JUMPI PUSH1 0x40 MLOAD PUSH3 0x461BCD PUSH1 0xE5 SHL DUP2 MSTORE PUSH1 0x20 PUSH1 0x4 DUP3 ADD MSTORE PUSH1 0x1F PUSH1 0x24 DUP3 ADD MSTORE PUSH32 0x496E73756666696369656E742053535420746F6B656E7320746F206275726E00 PUSH1 0x44 DUP3 ADD MSTORE PUSH1 0x64 ADD PUSH2 0x5C4 JUMP JUMPDEST PUSH2 0x8B9 CALLER DUP4 PUSH2 0x11E8 JUMP JUMPDEST PUSH0 PUSH8 0xDE0B6B3A7640000 PUSH2 0x8D4 PUSH7 0x2386F26FC10000 DUP6 PUSH2 0x1577 JUMP JUMPDEST PUSH2 0x8DE SWAP2 SWAP1 PUSH2 0x158E JUMP JUMPDEST PUSH1 0x6 SLOAD PUSH1 0x40 MLOAD PUSH4 0x70A08231 PUSH1 0xE0 SHL DUP2 MSTORE ADDRESS PUSH1 0x4 DUP3 ADD MSTORE SWAP2 SWAP3 POP DUP3 SWAP2 PUSH1 0x1 PUSH1 0x1 PUSH1 0xA0 SHL SUB SWAP1 SWAP2 AND SWAP1 PUSH4 0x70A08231 SWAP1 PUSH1 0x24 ADD PUSH1 0x20 PUSH1 0x40 MLOAD DUP1 DUP4 SUB DUP2 DUP7 GAS STATICCALL ISZERO DUP1 ISZERO PUSH2 0x929 JUMPI RETURNDATASIZE PUSH0 DUP1 RETURNDATACOPY RETURNDATASIZE PUSH0 REVERT JUMPDEST POP POP POP POP PUSH1 0x40 MLOAD RETURNDATASIZE PUSH1 0x1F NOT PUSH1 0x1F DUP3 ADD AND DUP3 ADD DUP1 PUSH1 0x40 MSTORE POP DUP2 ADD SWAP1 PUSH2 0x94D SWAP2 SWAP1 PUSH2 0x15AD JUMP JUMPDEST LT ISZERO PUSH2 0x9A5 JUMPI PUSH1 0x40 MLOAD PUSH3 0x461BCD PUSH1 0xE5 SHL DUP2 MSTORE PUSH1 0x20 PUSH1 0x4 DUP3 ADD MSTORE PUSH1 0x21 PUSH1 0x24 DUP3 ADD MSTORE PUSH32 0x436F6E747261637420646F6573206E6F74206861766520656E6F756768204150 PUSH1 0x44 DUP3 ADD MSTORE PUSH1 0x45 PUSH1 0xF8 SHL PUSH1 0x64 DUP3 ADD MSTORE PUSH1 0x84 ADD PUSH2 0x5C4 JUMP JUMPDEST PUSH1 0x6 SLOAD PUSH1 0x40 MLOAD PUSH4 0xA9059CBB PUSH1 0xE0 SHL DUP2 MSTORE PUSH1 0x1 PUSH1 0x1 PUSH1 0xA0 SHL SUB DUP5 DUP2 AND PUSH1 0x4 DUP4 ADD MSTORE PUSH1 0x24 DUP3 ADD DUP5 SWAP1 MSTORE SWAP1 SWAP2 AND SWAP1 PUSH4 0xA9059CBB SWAP1 PUSH1 0x44 ADD PUSH1 0x20 PUSH1 0x40 MLOAD DUP1 DUP4 SUB DUP2 PUSH0 DUP8 GAS CALL ISZERO DUP1 ISZERO PUSH2 0x9F5 JUMPI RETURNDATASIZE PUSH0 DUP1 RETURNDATACOPY RETURNDATASIZE PUSH0 REVERT JUMPDEST POP POP POP POP PUSH1 0x40 MLOAD RETURNDATASIZE PUSH1 0x1F NOT PUSH1 0x1F DUP3 ADD AND DUP3 ADD DUP1 PUSH1 0x40 MSTORE POP DUP2 ADD SWAP1 PUSH2 0xA19 SWAP2 SWAP1 PUSH2 0x15C4 JUMP JUMPDEST POP POP POP POP JUMP JUMPDEST PUSH2 0xA27 PUSH2 0x1333 JUMP JUMPDEST PUSH2 0xA30 PUSH0 PUSH2 0x138D JUMP JUMPDEST JUMP JUMPDEST PUSH8 0xDE0B6B3A7640000 PUSH2 0xA4C DUP4 PUSH7 0x265E8AF393000 PUSH2 0x1577 JUMP JUMPDEST PUSH2 0xA56 SWAP2 SWAP1 PUSH2 0x158E JUMP JUMPDEST CALLVALUE LT ISZERO PUSH2 0xA9D JUMPI PUSH1 0x40 MLOAD PUSH3 0x461BCD PUSH1 0xE5 SHL DUP2 MSTORE PUSH1 0x20 PUSH1 0x4 DUP3 ADD MSTORE PUSH1 0x15 PUSH1 0x24 DUP3 ADD MSTORE PUSH21 0x125B9CDD59999A58DA595B9D08115512081CD95B9D PUSH1 0x5A SHL PUSH1 0x44 DUP3 ADD MSTORE PUSH1 0x64 ADD PUSH2 0x5C4 JUMP JUMPDEST PUSH2 0xAA7 DUP2 DUP4 PUSH2 0x110C JUMP JUMPDEST PUSH2 0xAB8 DUP3 PUSH7 0x265E8AF393000 PUSH2 0x1577 JUMP JUMPDEST CALLVALUE GT ISZERO PUSH2 0x650 JUMPI CALLER PUSH2 0x8FC PUSH2 0xAD4 DUP5 PUSH7 0x265E8AF393000 PUSH2 0x1577 JUMP JUMPDEST PUSH2 0xADE SWAP1 CALLVALUE PUSH2 0x15E3 JUMP JUMPDEST PUSH1 0x40 MLOAD DUP2 ISZERO SWAP1 SWAP3 MUL SWAP2 PUSH0 DUP2 DUP2 DUP2 DUP6 DUP9 DUP9 CALL SWAP4 POP POP POP POP ISZERO DUP1 ISZERO PUSH2 0xB03 JUMPI RETURNDATASIZE PUSH0 DUP1 RETURNDATACOPY RETURNDATASIZE PUSH0 REVERT JUMPDEST POP POP POP JUMP JUMPDEST PUSH1 0x60 PUSH1 0x4 DUP1 SLOAD PUSH2 0x416 SWAP1 PUSH2 0x1518 JUMP JUMPDEST PUSH0 CALLER DUP2 PUSH2 0xB24 DUP3 DUP7 PUSH2 0xB9E JUMP JUMPDEST SWAP1 POP DUP4 DUP2 LT ISZERO PUSH2 0xB84 JUMPI PUSH1 0x40 MLOAD PUSH3 0x461BCD PUSH1 0xE5 SHL DUP2 MSTORE PUSH1 0x20 PUSH1 0x4 DUP3 ADD MSTORE PUSH1 0x25 PUSH1 0x24 DUP3 ADD MSTORE PUSH32 0x45524332303A2064656372656173656420616C6C6F77616E63652062656C6F77 PUSH1 0x44 DUP3 ADD MSTORE PUSH5 0x207A65726F PUSH1 0xD8 SHL PUSH1 0x64 DUP3 ADD MSTORE PUSH1 0x84 ADD PUSH2 0x5C4 JUMP JUMPDEST PUSH2 0x4C8 DUP3 DUP7 DUP7 DUP5 SUB PUSH2 0xDAB JUMP JUMPDEST PUSH0 CALLER PUSH2 0x4A4 DUP2 DUP6 DUP6 PUSH2 0xF40 JUMP JUMPDEST PUSH1 0x1 PUSH1 0x1 PUSH1 0xA0 SHL SUB SWAP2 DUP3 AND PUSH0 SWAP1 DUP2 MSTORE PUSH1 0x1 PUSH1 0x20 SWAP1 DUP2 MSTORE PUSH1 0x40 DUP1 DUP4 KECCAK256 SWAP4 SWAP1 SWAP5 AND DUP3 MSTORE SWAP2 SWAP1 SWAP2 MSTORE KECCAK256 SLOAD SWAP1 JUMP JUMPDEST PUSH2 0xBD0 PUSH2 0x1333 JUMP JUMPDEST PUSH1 0x1 PUSH1 0x1 PUSH1 0xA0 SHL SUB DUP2 AND PUSH2 0xC35 JUMPI PUSH1 0x40 MLOAD PUSH3 0x461BCD PUSH1 0xE5 SHL DUP2 MSTORE PUSH1 0x20 PUSH1 0x4 DUP3 ADD MSTORE PUSH1 0x26 PUSH1 0x24 DUP3 ADD MSTORE PUSH32 0x4F776E61626C653A206E6577206F776E657220697320746865207A65726F2061 PUSH1 0x44 DUP3 ADD MSTORE PUSH6 0x646472657373 PUSH1 0xD0 SHL PUSH1 0x64 DUP3 ADD MSTORE PUSH1 0x84 ADD PUSH2 0x5C4 JUMP JUMPDEST PUSH2 0xC3E DUP2 PUSH2 0x138D JUMP JUMPDEST POP JUMP JUMPDEST CALLER PUSH0 SWAP1 DUP2 MSTORE PUSH1 0x20 DUP2 SWAP1 MSTORE PUSH1 0x40 SWAP1 KECCAK256 SLOAD DUP3 GT ISZERO PUSH2 0xC9F JUMPI PUSH1 0x40 MLOAD PUSH3 0x461BCD PUSH1 0xE5 SHL DUP2 MSTORE PUSH1 0x20 PUSH1 0x4 DUP3 ADD MSTORE PUSH1 0x1F PUSH1 0x24 DUP3 ADD MSTORE PUSH32 0x496E73756666696369656E742053535420746F6B656E7320746F206275726E00 PUSH1 0x44 DUP3 ADD MSTORE PUSH1 0x64 ADD PUSH2 0x5C4 JUMP JUMPDEST PUSH2 0xCA9 CALLER DUP4 PUSH2 0x11E8 JUMP JUMPDEST PUSH0 PUSH2 0xCBB PUSH7 0x265E8AF393000 DUP5 PUSH2 0x1577 JUMP JUMPDEST SWAP1 POP DUP1 SELFBALANCE LT ISZERO PUSH2 0xD17 JUMPI PUSH1 0x40 MLOAD PUSH3 0x461BCD PUSH1 0xE5 SHL DUP2 MSTORE PUSH1 0x20 PUSH1 0x4 DUP3 ADD MSTORE PUSH1 0x21 PUSH1 0x24 DUP3 ADD MSTORE PUSH32 0x436F6E747261637420646F6573206E6F74206861766520656E6F756768204554 PUSH1 0x44 DUP3 ADD MSTORE PUSH1 0x9 PUSH1 0xFB SHL PUSH1 0x64 DUP3 ADD MSTORE PUSH1 0x84 ADD PUSH2 0x5C4 JUMP JUMPDEST PUSH0 DUP3 PUSH1 0x1 PUSH1 0x1 PUSH1 0xA0 SHL SUB AND DUP3 PUSH1 0x40 MLOAD PUSH0 PUSH1 0x40 MLOAD DUP1 DUP4 SUB DUP2 DUP6 DUP8 GAS CALL SWAP3 POP POP POP RETURNDATASIZE DUP1 PUSH0 DUP2 EQ PUSH2 0xD60 JUMPI PUSH1 0x40 MLOAD SWAP2 POP PUSH1 0x1F NOT PUSH1 0x3F RETURNDATASIZE ADD AND DUP3 ADD PUSH1 0x40 MSTORE RETURNDATASIZE DUP3 MSTORE RETURNDATASIZE PUSH0 PUSH1 0x20 DUP5 ADD RETURNDATACOPY PUSH2 0xD65 JUMP JUMPDEST PUSH1 0x60 SWAP2 POP JUMPDEST POP POP SWAP1 POP DUP1 PUSH2 0xA19 JUMPI PUSH1 0x40 MLOAD PUSH3 0x461BCD PUSH1 0xE5 SHL DUP2 MSTORE PUSH1 0x20 PUSH1 0x4 DUP3 ADD MSTORE PUSH1 0x12 PUSH1 0x24 DUP3 ADD MSTORE PUSH18 0x8CC2D2D8CAC840E8DE40E6CADCC8408AA89 PUSH1 0x73 SHL PUSH1 0x44 DUP3 ADD MSTORE PUSH1 0x64 ADD PUSH2 0x5C4 JUMP JUMPDEST PUSH1 0x1 PUSH1 0x1 PUSH1 0xA0 SHL SUB DUP4 AND PUSH2 0xE0D JUMPI PUSH1 0x40 MLOAD PUSH3 0x461BCD PUSH1 0xE5 SHL DUP2 MSTORE PUSH1 0x20 PUSH1 0x4 DUP3 ADD MSTORE PUSH1 0x24 DUP1 DUP3 ADD MSTORE PUSH32 0x45524332303A20617070726F76652066726F6D20746865207A65726F20616464 PUSH1 0x44 DUP3 ADD MSTORE PUSH4 0x72657373 PUSH1 0xE0 SHL PUSH1 0x64 DUP3 ADD MSTORE PUSH1 0x84 ADD PUSH2 0x5C4 JUMP JUMPDEST PUSH1 0x1 PUSH1 0x1 PUSH1 0xA0 SHL SUB DUP3 AND PUSH2 0xE6E JUMPI PUSH1 0x40 MLOAD PUSH3 0x461BCD PUSH1 0xE5 SHL DUP2 MSTORE PUSH1 0x20 PUSH1 0x4 DUP3 ADD MSTORE PUSH1 0x22 PUSH1 0x24 DUP3 ADD MSTORE PUSH32 0x45524332303A20617070726F766520746F20746865207A65726F206164647265 PUSH1 0x44 DUP3 ADD MSTORE PUSH2 0x7373 PUSH1 0xF0 SHL PUSH1 0x64 DUP3 ADD MSTORE PUSH1 0x84 ADD PUSH2 0x5C4 JUMP JUMPDEST PUSH1 0x1 PUSH1 0x1 PUSH1 0xA0 SHL SUB DUP4 DUP2 AND PUSH0 DUP2 DUP2 MSTORE PUSH1 0x1 PUSH1 0x20 SWAP1 DUP2 MSTORE PUSH1 0x40 DUP1 DUP4 KECCAK256 SWAP5 DUP8 AND DUP1 DUP5 MSTORE SWAP5 DUP3 MSTORE SWAP2 DUP3 SWAP1 KECCAK256 DUP6 SWAP1 SSTORE SWAP1 MLOAD DUP5 DUP2 MSTORE PUSH32 0x8C5BE1E5EBEC7D5BD14F71427D1E84F3DD0314C0F7B2291E5B200AC8C7C3B925 SWAP2 ADD PUSH1 0x40 MLOAD DUP1 SWAP2 SUB SWAP1 LOG3 POP POP POP JUMP JUMPDEST PUSH0 PUSH2 0xED9 DUP5 DUP5 PUSH2 0xB9E JUMP JUMPDEST SWAP1 POP PUSH0 NOT DUP2 EQ PUSH2 0xA19 JUMPI DUP2 DUP2 LT ISZERO PUSH2 0xF33 JUMPI PUSH1 0x40 MLOAD PUSH3 0x461BCD PUSH1 0xE5 SHL DUP2 MSTORE PUSH1 0x20 PUSH1 0x4 DUP3 ADD MSTORE PUSH1 0x1D PUSH1 0x24 DUP3 ADD MSTORE PUSH32 0x45524332303A20696E73756666696369656E7420616C6C6F77616E6365000000 PUSH1 0x44 DUP3 ADD MSTORE PUSH1 0x64 ADD PUSH2 0x5C4 JUMP JUMPDEST PUSH2 0xA19 DUP5 DUP5 DUP5 DUP5 SUB PUSH2 0xDAB JUMP JUMPDEST PUSH1 0x1 PUSH1 0x1 PUSH1 0xA0 SHL SUB DUP4 AND PUSH2 0xFA4 JUMPI PUSH1 0x40 MLOAD PUSH3 0x461BCD PUSH1 0xE5 SHL DUP2 MSTORE PUSH1 0x20 PUSH1 0x4 DUP3 ADD MSTORE PUSH1 0x25 PUSH1 0x24 DUP3 ADD MSTORE PUSH32 0x45524332303A207472616E736665722066726F6D20746865207A65726F206164 PUSH1 0x44 DUP3 ADD MSTORE PUSH5 0x6472657373 PUSH1 0xD8 SHL PUSH1 0x64 DUP3 ADD MSTORE PUSH1 0x84 ADD PUSH2 0x5C4 JUMP JUMPDEST PUSH1 0x1 PUSH1 0x1 PUSH1 0xA0 SHL SUB DUP3 AND PUSH2 0x1006 JUMPI PUSH1 0x40 MLOAD PUSH3 0x461BCD PUSH1 0xE5 SHL DUP2 MSTORE PUSH1 0x20 PUSH1 0x4 DUP3 ADD MSTORE PUSH1 0x23 PUSH1 0x24 DUP3 ADD MSTORE PUSH32 0x45524332303A207472616E7366657220746F20746865207A65726F2061646472 PUSH1 0x44 DUP3 ADD MSTORE PUSH3 0x657373 PUSH1 0xE8 SHL PUSH1 0x64 DUP3 ADD MSTORE PUSH1 0x84 ADD PUSH2 0x5C4 JUMP JUMPDEST PUSH1 0x1 PUSH1 0x1 PUSH1 0xA0 SHL SUB DUP4 AND PUSH0 SWAP1 DUP2 MSTORE PUSH1 0x20 DUP2 SWAP1 MSTORE PUSH1 0x40 SWAP1 KECCAK256 SLOAD DUP2 DUP2 LT ISZERO PUSH2 0x107D JUMPI PUSH1 0x40 MLOAD PUSH3 0x461BCD PUSH1 0xE5 SHL DUP2 MSTORE PUSH1 0x20 PUSH1 0x4 DUP3 ADD MSTORE PUSH1 0x26 PUSH1 0x24 DUP3 ADD MSTORE PUSH32 0x45524332303A207472616E7366657220616D6F756E7420657863656564732062 PUSH1 0x44 DUP3 ADD MSTORE PUSH6 0x616C616E6365 PUSH1 0xD0 SHL PUSH1 0x64 DUP3 ADD MSTORE PUSH1 0x84 ADD PUSH2 0x5C4 JUMP JUMPDEST PUSH1 0x1 PUSH1 0x1 PUSH1 0xA0 SHL SUB DUP1 DUP6 AND PUSH0 SWAP1 DUP2 MSTORE PUSH1 0x20 DUP2 SWAP1 MSTORE PUSH1 0x40 DUP1 DUP3 KECCAK256 DUP6 DUP6 SUB SWAP1 SSTORE SWAP2 DUP6 AND DUP2 MSTORE SWAP1 DUP2 KECCAK256 DUP1 SLOAD DUP5 SWAP3 SWAP1 PUSH2 0x10B3 SWAP1 DUP5 SWAP1 PUSH2 0x1564 JUMP JUMPDEST SWAP3 POP POP DUP2 SWAP1 SSTORE POP DUP3 PUSH1 0x1 PUSH1 0x1 PUSH1 0xA0 SHL SUB AND DUP5 PUSH1 0x1 PUSH1 0x1 PUSH1 0xA0 SHL SUB AND PUSH32 0xDDF252AD1BE2C89B69C2B068FC378DAA952BA7F163C4A11628F55A4DF523B3EF DUP5 PUSH1 0x40 MLOAD PUSH2 0x10FF SWAP2 DUP2 MSTORE PUSH1 0x20 ADD SWAP1 JUMP JUMPDEST PUSH1 0x40 MLOAD DUP1 SWAP2 SUB SWAP1 LOG3 PUSH2 0xA19 JUMP JUMPDEST PUSH1 0x1 PUSH1 0x1 PUSH1 0xA0 SHL SUB DUP3 AND PUSH2 0x1162 JUMPI PUSH1 0x40 MLOAD PUSH3 0x461BCD PUSH1 0xE5 SHL DUP2 MSTORE PUSH1 0x20 PUSH1 0x4 DUP3 ADD MSTORE PUSH1 0x1F PUSH1 0x24 DUP3 ADD MSTORE PUSH32 0x45524332303A206D696E7420746F20746865207A65726F206164647265737300 PUSH1 0x44 DUP3 ADD MSTORE PUSH1 0x64 ADD PUSH2 0x5C4 JUMP JUMPDEST DUP1 PUSH1 0x2 PUSH0 DUP3 DUP3 SLOAD PUSH2 0x1173 SWAP2 SWAP1 PUSH2 0x1564 JUMP JUMPDEST SWAP1 SWAP2 SSTORE POP POP PUSH1 0x1 PUSH1 0x1 PUSH1 0xA0 SHL SUB DUP3 AND PUSH0 SWAP1 DUP2 MSTORE PUSH1 0x20 DUP2 SWAP1 MSTORE PUSH1 0x40 DUP2 KECCAK256 DUP1 SLOAD DUP4 SWAP3 SWAP1 PUSH2 0x119F SWAP1 DUP5 SWAP1 PUSH2 0x1564 JUMP JUMPDEST SWAP1 SWAP2 SSTORE POP POP PUSH1 0x40 MLOAD DUP2 DUP2 MSTORE PUSH1 0x1 PUSH1 0x1 PUSH1 0xA0 SHL SUB DUP4 AND SWAP1 PUSH0 SWAP1 PUSH32 0xDDF252AD1BE2C89B69C2B068FC378DAA952BA7F163C4A11628F55A4DF523B3EF SWAP1 PUSH1 0x20 ADD PUSH1 0x40 MLOAD DUP1 SWAP2 SUB SWAP1 LOG3 POP POP JUMP JUMPDEST PUSH1 0x1 PUSH1 0x1 PUSH1 0xA0 SHL SUB DUP3 AND PUSH2 0x1248 JUMPI PUSH1 0x40 MLOAD PUSH3 0x461BCD PUSH1 0xE5 SHL DUP2 MSTORE PUSH1 0x20 PUSH1 0x4 DUP3 ADD MSTORE PUSH1 0x21 PUSH1 0x24 DUP3 ADD MSTORE PUSH32 0x45524332303A206275726E2066726F6D20746865207A65726F20616464726573 PUSH1 0x44 DUP3 ADD MSTORE PUSH1 0x73 PUSH1 0xF8 SHL PUSH1 0x64 DUP3 ADD MSTORE PUSH1 0x84 ADD PUSH2 0x5C4 JUMP JUMPDEST PUSH1 0x1 PUSH1 0x1 PUSH1 0xA0 SHL SUB DUP3 AND PUSH0 SWAP1 DUP2 MSTORE PUSH1 0x20 DUP2 SWAP1 MSTORE PUSH1 0x40 SWAP1 KECCAK256 SLOAD DUP2 DUP2 LT ISZERO PUSH2 0x12BB JUMPI PUSH1 0x40 MLOAD PUSH3 0x461BCD PUSH1 0xE5 SHL DUP2 MSTORE PUSH1 0x20 PUSH1 0x4 DUP3 ADD MSTORE PUSH1 0x22 PUSH1 0x24 DUP3 ADD MSTORE PUSH32 0x45524332303A206275726E20616D6F756E7420657863656564732062616C616E PUSH1 0x44 DUP3 ADD MSTORE PUSH2 0x6365 PUSH1 0xF0 SHL PUSH1 0x64 DUP3 ADD MSTORE PUSH1 0x84 ADD PUSH2 0x5C4 JUMP JUMPDEST PUSH1 0x1 PUSH1 0x1 PUSH1 0xA0 SHL SUB DUP4 AND PUSH0 SWAP1 DUP2 MSTORE PUSH1 0x20 DUP2 SWAP1 MSTORE PUSH1 0x40 DUP2 KECCAK256 DUP4 DUP4 SUB SWAP1 SSTORE PUSH1 0x2 DUP1 SLOAD DUP5 SWAP3 SWAP1 PUSH2 0x12E9 SWAP1 DUP5 SWAP1 PUSH2 0x15E3 JUMP JUMPDEST SWAP1 SWAP2 SSTORE POP POP PUSH1 0x40 MLOAD DUP3 DUP2 MSTORE PUSH0 SWAP1 PUSH1 0x1 PUSH1 0x1 PUSH1 0xA0 SHL SUB DUP6 AND SWAP1 PUSH32 0xDDF252AD1BE2C89B69C2B068FC378DAA952BA7F163C4A11628F55A4DF523B3EF SWAP1 PUSH1 0x20 ADD PUSH1 0x40 MLOAD DUP1 SWAP2 SUB SWAP1 LOG3 POP POP POP JUMP JUMPDEST PUSH1 0x5 SLOAD PUSH1 0x1 PUSH1 0x1 PUSH1 0xA0 SHL SUB AND CALLER EQ PUSH2 0xA30 JUMPI PUSH1 0x40 MLOAD PUSH3 0x461BCD PUSH1 0xE5 SHL DUP2 MSTORE PUSH1 0x20 PUSH1 0x4 DUP3 ADD DUP2 SWAP1 MSTORE PUSH1 0x24 DUP3 ADD MSTORE PUSH32 0x4F776E61626C653A2063616C6C6572206973206E6F7420746865206F776E6572 PUSH1 0x44 DUP3 ADD MSTORE PUSH1 0x64 ADD PUSH2 0x5C4 JUMP JUMPDEST PUSH1 0x5 DUP1 SLOAD PUSH1 0x1 PUSH1 0x1 PUSH1 0xA0 SHL SUB DUP4 DUP2 AND PUSH1 0x1 PUSH1 0x1 PUSH1 0xA0 SHL SUB NOT DUP4 AND DUP2 OR SWAP1 SWAP4 SSTORE PUSH1 0x40 MLOAD SWAP2 AND SWAP2 SWAP1 DUP3 SWAP1 PUSH32 0x8BE0079C531659141344CD1FD0A4F28419497F9722A3DAAFE3B4186F6B6457E0 SWAP1 PUSH0 SWAP1 LOG3 POP POP JUMP JUMPDEST PUSH0 PUSH1 0x20 DUP1 DUP4 MSTORE DUP4 MLOAD DUP1 PUSH1 0x20 DUP6 ADD MSTORE PUSH0 JUMPDEST DUP2 DUP2 LT ISZERO PUSH2 0x140A JUMPI DUP6 DUP2 ADD DUP4 ADD MLOAD DUP6 DUP3 ADD PUSH1 0x40 ADD MSTORE DUP3 ADD PUSH2 0x13EE JUMP JUMPDEST POP PUSH0 PUSH1 0x40 DUP3 DUP7 ADD ADD MSTORE PUSH1 0x40 PUSH1 0x1F NOT PUSH1 0x1F DUP4 ADD AND DUP6 ADD ADD SWAP3 POP POP POP SWAP3 SWAP2 POP POP JUMP JUMPDEST DUP1 CALLDATALOAD PUSH1 0x1 PUSH1 0x1 PUSH1 0xA0 SHL SUB DUP2 AND DUP2 EQ PUSH2 0x1440 JUMPI PUSH0 DUP1 REVERT JUMPDEST SWAP2 SWAP1 POP JUMP JUMPDEST PUSH0 DUP1 PUSH1 0x40 DUP4 DUP6 SUB SLT ISZERO PUSH2 0x1456 JUMPI PUSH0 DUP1 REVERT JUMPDEST PUSH2 0x145F DUP4 PUSH2 0x142A JUMP JUMPDEST SWAP5 PUSH1 0x20 SWAP4 SWAP1 SWAP4 ADD CALLDATALOAD SWAP4 POP POP POP JUMP JUMPDEST PUSH0 DUP1 PUSH0 PUSH1 0x60 DUP5 DUP7 SUB SLT ISZERO PUSH2 0x147F JUMPI PUSH0 DUP1 REVERT JUMPDEST PUSH2 0x1488 DUP5 PUSH2 0x142A JUMP JUMPDEST SWAP3 POP PUSH2 0x1496 PUSH1 0x20 DUP6 ADD PUSH2 0x142A JUMP JUMPDEST SWAP2 POP PUSH1 0x40 DUP5 ADD CALLDATALOAD SWAP1 POP SWAP3 POP SWAP3 POP SWAP3 JUMP JUMPDEST PUSH0 DUP1 PUSH1 0x40 DUP4 DUP6 SUB SLT ISZERO PUSH2 0x14B7 JUMPI PUSH0 DUP1 REVERT JUMPDEST DUP3 CALLDATALOAD SWAP2 POP PUSH2 0x14C7 PUSH1 0x20 DUP5 ADD PUSH2 0x142A JUMP JUMPDEST SWAP1 POP SWAP3 POP SWAP3 SWAP1 POP JUMP JUMPDEST PUSH0 PUSH1 0x20 DUP3 DUP5 SUB SLT ISZERO PUSH2 0x14E0 JUMPI PUSH0 DUP1 REVERT JUMPDEST PUSH2 0x14E9 DUP3 PUSH2 0x142A JUMP JUMPDEST SWAP4 SWAP3 POP POP POP JUMP JUMPDEST PUSH0 DUP1 PUSH1 0x40 DUP4 DUP6 SUB SLT ISZERO PUSH2 0x1501 JUMPI PUSH0 DUP1 REVERT JUMPDEST PUSH2 0x150A DUP4 PUSH2 0x142A JUMP JUMPDEST SWAP2 POP PUSH2 0x14C7 PUSH1 0x20 DUP5 ADD PUSH2 0x142A JUMP JUMPDEST PUSH1 0x1 DUP2 DUP2 SHR SWAP1 DUP3 AND DUP1 PUSH2 0x152C JUMPI PUSH1 0x7F DUP3 AND SWAP2 POP JUMPDEST PUSH1 0x20 DUP3 LT DUP2 SUB PUSH2 0x154A JUMPI PUSH4 0x4E487B71 PUSH1 0xE0 SHL PUSH0 MSTORE PUSH1 0x22 PUSH1 0x4 MSTORE PUSH1 0x24 PUSH0 REVERT JUMPDEST POP SWAP2 SWAP1 POP JUMP JUMPDEST PUSH4 0x4E487B71 PUSH1 0xE0 SHL PUSH0 MSTORE PUSH1 0x11 PUSH1 0x4 MSTORE PUSH1 0x24 PUSH0 REVERT JUMPDEST DUP1 DUP3 ADD DUP1 DUP3 GT ISZERO PUSH2 0x4AA JUMPI PUSH2 0x4AA PUSH2 0x1550 JUMP JUMPDEST DUP1 DUP3 MUL DUP2 ISZERO DUP3 DUP3 DIV DUP5 EQ OR PUSH2 0x4AA JUMPI PUSH2 0x4AA PUSH2 0x1550 JUMP JUMPDEST PUSH0 DUP3 PUSH2 0x15A8 JUMPI PUSH4 0x4E487B71 PUSH1 0xE0 SHL PUSH0 MSTORE PUSH1 0x12 PUSH1 0x4 MSTORE PUSH1 0x24 PUSH0 REVERT JUMPDEST POP DIV SWAP1 JUMP JUMPDEST PUSH0 PUSH1 0x20 DUP3 DUP5 SUB SLT ISZERO PUSH2 0x15BD JUMPI PUSH0 DUP1 REVERT JUMPDEST POP MLOAD SWAP2 SWAP1 POP JUMP JUMPDEST PUSH0 PUSH1 0x20 DUP3 DUP5 SUB SLT ISZERO PUSH2 0x15D4 JUMPI PUSH0 DUP1 REVERT JUMPDEST DUP2 MLOAD DUP1 ISZERO ISZERO DUP2 EQ PUSH2 0x14E9 JUMPI PUSH0 DUP1 REVERT JUMPDEST DUP2 DUP2 SUB DUP2 DUP2 GT ISZERO PUSH2 0x4AA JUMPI PUSH2 0x4AA PUSH2 0x1550 JUMP INVALID LOG2 PUSH5 0x6970667358 0x22 SLT KECCAK256 0xCB ADDRESS RETURNDATACOPY 0x1F PUSH15 0xB140CCC0F06C17EAE79707C72D8398 SWAP16 SAR 0x26 CALLVALUE CALLDATACOPY 0xDD DUP4 SUB 0x23 DUP8 NUMBER 0xE3 PUSH5 0x736F6C6343 STOP ADDMOD XOR STOP CALLER "
				},
				"gasEstimates": {
					"creation": {
						"codeDepositCost": "1135200",
						"executionCost": "infinite",
						"totalCost": "infinite"
					},
					"external": {
						"APE_MINT_PRICE_PER_TOKEN()": "216",
						"GAS_FEE_TAP()": "327",
						"MINT_PRICE_PER_TOKEN()": "240",
						"allowance(address,address)": "infinite",
						"ape()": "2403",
						"approve(address,uint256)": "24669",
						"balanceOf(address)": "2560",
						"burn(uint256,address)": "infinite",
						"burnWithApe(uint256,address)": "infinite",
						"decimals()": "199",
						"decreaseAllowance(address,uint256)": "26989",
						"increaseAllowance(address,uint256)": "infinite",
						"mint(uint256,address)": "infinite",
						"mintWithApe(uint256,address)": "infinite",
						"mintWithGasTap(uint256,address)": "infinite",
						"name()": "infinite",
						"owner()": "2419",
						"renounceOwnership()": "infinite",
						"symbol()": "infinite",
						"totalSupply()": "2381",
						"transfer(address,uint256)": "infinite",
						"transferFrom(address,address,uint256)": "infinite",
						"transferOwnership(address)": "28443"
					}
				},
				"methodIdentifiers": {
					"APE_MINT_PRICE_PER_TOKEN()": "974900b6",
					"GAS_FEE_TAP()": "695d2f13",
					"MINT_PRICE_PER_TOKEN()": "0802c2cd",
					"allowance(address,address)": "dd62ed3e",
					"ape()": "79babd2c",
					"approve(address,uint256)": "095ea7b3",
					"balanceOf(address)": "70a08231",
					"burn(uint256,address)": "fcd3533c",
					"burnWithApe(uint256,address)": "6572c9b2",
					"decimals()": "313ce567",
					"decreaseAllowance(address,uint256)": "a457c2d7",
					"increaseAllowance(address,uint256)": "39509351",
					"mint(uint256,address)": "94bf804d",
					"mintWithApe(uint256,address)": "4bfa5bdb",
					"mintWithGasTap(uint256,address)": "4fa1d436",
					"name()": "06fdde03",
					"owner()": "8da5cb5b",
					"renounceOwnership()": "715018a6",
					"symbol()": "95d89b41",
					"totalSupply()": "18160ddd",
					"transfer(address,uint256)": "a9059cbb",
					"transferFrom(address,address,uint256)": "23b872dd",
					"transferOwnership(address)": "f2fde38b"
				}
			},
			"storageLayout": {
				"storage": [
					{
						"astId": 128,
						"contract": "sosh/SSTAPE.sol:SST",
						"label": "_balances",
						"offset": 0,
						"slot": "0",
						"type": "t_mapping(t_address,t_uint256)"
					},
					{
						"astId": 134,
						"contract": "sosh/SSTAPE.sol:SST",
						"label": "_allowances",
						"offset": 0,
						"slot": "1",
						"type": "t_mapping(t_address,t_mapping(t_address,t_uint256))"
					},
					{
						"astId": 136,
						"contract": "sosh/SSTAPE.sol:SST",
						"label": "_totalSupply",
						"offset": 0,
						"slot": "2",
						"type": "t_uint256"
					},
					{
						"astId": 138,
						"contract": "sosh/SSTAPE.sol:SST",
						"label": "_name",
						"offset": 0,
						"slot": "3",
						"type": "t_string_storage"
					},
					{
						"astId": 140,
						"contract": "sosh/SSTAPE.sol:SST",
						"label": "_symbol",
						"offset": 0,
						"slot": "4",
						"type": "t_string_storage"
					},
					{
						"astId": 7,
						"contract": "sosh/SSTAPE.sol:SST",
						"label": "_owner",
						"offset": 0,
						"slot": "5",
						"type": "t_address"
					},
					{
						"astId": 843,
						"contract": "sosh/SSTAPE.sol:SST",
						"label": "ape",
						"offset": 0,
						"slot": "6",
						"type": "t_contract(ERC20)698"
					}
				],
				"types": {
					"t_address": {
						"encoding": "inplace",
						"label": "address",
						"numberOfBytes": "20"
					},
					"t_contract(ERC20)698": {
						"encoding": "inplace",
						"label": "contract ERC20",
						"numberOfBytes": "20"
					},
					"t_mapping(t_address,t_mapping(t_address,t_uint256))": {
						"encoding": "mapping",
						"key": "t_address",
						"label": "mapping(address => mapping(address => uint256))",
						"numberOfBytes": "32",
						"value": "t_mapping(t_address,t_uint256)"
					},
					"t_mapping(t_address,t_uint256)": {
						"encoding": "mapping",
						"key": "t_address",
						"label": "mapping(address => uint256)",
						"numberOfBytes": "32",
						"value": "t_uint256"
					},
					"t_string_storage": {
						"encoding": "bytes",
						"label": "string",
						"numberOfBytes": "32"
					},
					"t_uint256": {
						"encoding": "inplace",
						"label": "uint256",
						"numberOfBytes": "32"
					}
				}
			},
			"userdoc": {
				"kind": "user",
				"methods": {},
				"version": 1
			}
		}
	}
}