{
	"sosh/SST.sol": {
		"SST": {
			"abi": [
				{
					"inputs": [],
					"stateMutability": "nonpayable",
					"type": "constructor"
				},
				{
					"anonymous": false,
					"inputs": [
						{
							"indexed": true,
							"internalType": "address",
							"name": "owner",
							"type": "address"
						},
						{
							"indexed": true,
							"internalType": "address",
							"name": "spender",
							"type": "address"
						},
						{
							"indexed": false,
							"internalType": "uint256",
							"name": "value",
							"type": "uint256"
						}
					],
					"name": "Approval",
					"type": "event"
				},
				{
					"anonymous": false,
					"inputs": [
						{
							"indexed": true,
							"internalType": "address",
							"name": "previousOwner",
							"type": "address"
						},
						{
							"indexed": true,
							"internalType": "address",
							"name": "newOwner",
							"type": "address"
						}
					],
					"name": "OwnershipTransferred",
					"type": "event"
				},
				{
					"anonymous": false,
					"inputs": [
						{
							"indexed": true,
							"internalType": "address",
							"name": "from",
							"type": "address"
						},
						{
							"indexed": true,
							"internalType": "address",
							"name": "to",
							"type": "address"
						},
						{
							"indexed": false,
							"internalType": "uint256",
							"name": "value",
							"type": "uint256"
						}
					],
					"name": "Transfer",
					"type": "event"
				},
				{
					"inputs": [],
					"name": "GAS_FEE_TAP",
					"outputs": [
						{
							"internalType": "uint256",
							"name": "",
							"type": "uint256"
						}
					],
					"stateMutability": "view",
					"type": "function"
				},
				{
					"inputs": [],
					"name": "MINT_PRICE_PER_TOKEN",
					"outputs": [
						{
							"internalType": "uint256",
							"name": "",
							"type": "uint256"
						}
					],
					"stateMutability": "view",
					"type": "function"
				},
				{
					"inputs": [
						{
							"internalType": "address",
							"name": "owner",
							"type": "address"
						},
						{
							"internalType": "address",
							"name": "spender",
							"type": "address"
						}
					],
					"name": "allowance",
					"outputs": [
						{
							"internalType": "uint256",
							"name": "",
							"type": "uint256"
						}
					],
					"stateMutability": "view",
					"type": "function"
				},
				{
					"inputs": [
						{
							"internalType": "address",
							"name": "spender",
							"type": "address"
						},
						{
							"internalType": "uint256",
							"name": "amount",
							"type": "uint256"
						}
					],
					"name": "approve",
					"outputs": [
						{
							"internalType": "bool",
							"name": "",
							"type": "bool"
						}
					],
					"stateMutability": "nonpayable",
					"type": "function"
				},
				{
					"inputs": [
						{
							"internalType": "address",
							"name": "account",
							"type": "address"
						}
					],
					"name": "balanceOf",
					"outputs": [
						{
							"internalType": "uint256",
							"name": "",
							"type": "uint256"
						}
					],
					"stateMutability": "view",
					"type": "function"
				},
				{
					"inputs": [
						{
							"internalType": "uint256",
							"name": "amount",
							"type": "uint256"
						},
						{
							"internalType": "address",
							"name": "destinationAddress",
							"type": "address"
						}
					],
					"name": "burn",
					"outputs": [],
					"stateMutability": "nonpayable",
					"type": "function"
				},
				{
					"inputs": [],
					"name": "decimals",
					"outputs": [
						{
							"internalType": "uint8",
							"name": "",
							"type": "uint8"
						}
					],
					"stateMutability": "view",
					"type": "function"
				},
				{
					"inputs": [
						{
							"internalType": "address",
							"name": "spender",
							"type": "address"
						},
						{
							"internalType": "uint256",
							"name": "subtractedValue",
							"type": "uint256"
						}
					],
					"name": "decreaseAllowance",
					"outputs": [
						{
							"internalType": "bool",
							"name": "",
							"type": "bool"
						}
					],
					"stateMutability": "nonpayable",
					"type": "function"
				},
				{
					"inputs": [
						{
							"internalType": "address",
							"name": "spender",
							"type": "address"
						},
						{
							"internalType": "uint256",
							"name": "addedValue",
							"type": "uint256"
						}
					],
					"name": "increaseAllowance",
					"outputs": [
						{
							"internalType": "bool",
							"name": "",
							"type": "bool"
						}
					],
					"stateMutability": "nonpayable",
					"type": "function"
				},
				{
					"inputs": [
						{
							"internalType": "uint256",
							"name": "tokenAmount",
							"type": "uint256"
						},
						{
							"internalType": "address",
							"name": "aAWallet",
							"type": "address"
						}
					],
					"name": "mint",
					"outputs": [],
					"stateMutability": "payable",
					"type": "function"
				},
				{
					"inputs": [
						{
							"internalType": "uint256",
							"name": "tokenAmount",
							"type": "uint256"
						},
						{
							"internalType": "address",
							"name": "aAWallet",
							"type": "address"
						}
					],
					"name": "mintWithGasTap",
					"outputs": [],
					"stateMutability": "payable",
					"type": "function"
				},
				{
					"inputs": [],
					"name": "name",
					"outputs": [
						{
							"internalType": "string",
							"name": "",
							"type": "string"
						}
					],
					"stateMutability": "view",
					"type": "function"
				},
				{
					"inputs": [],
					"name": "owner",
					"outputs": [
						{
							"internalType": "address",
							"name": "",
							"type": "address"
						}
					],
					"stateMutability": "view",
					"type": "function"
				},
				{
					"inputs": [],
					"name": "renounceOwnership",
					"outputs": [],
					"stateMutability": "nonpayable",
					"type": "function"
				},
				{
					"inputs": [],
					"name": "symbol",
					"outputs": [
						{
							"internalType": "string",
							"name": "",
							"type": "string"
						}
					],
					"stateMutability": "view",
					"type": "function"
				},
				{
					"inputs": [],
					"name": "totalSupply",
					"outputs": [
						{
							"internalType": "uint256",
							"name": "",
							"type": "uint256"
						}
					],
					"stateMutability": "view",
					"type": "function"
				},
				{
					"inputs": [
						{
							"internalType": "address",
							"name": "to",
							"type": "address"
						},
						{
							"internalType": "uint256",
							"name": "amount",
							"type": "uint256"
						}
					],
					"name": "transfer",
					"outputs": [
						{
							"internalType": "bool",
							"name": "",
							"type": "bool"
						}
					],
					"stateMutability": "nonpayable",
					"type": "function"
				},
				{
					"inputs": [
						{
							"internalType": "address",
							"name": "from",
							"type": "address"
						},
						{
							"internalType": "address",
							"name": "to",
							"type": "address"
						},
						{
							"internalType": "uint256",
							"name": "amount",
							"type": "uint256"
						}
					],
					"name": "transferFrom",
					"outputs": [
						{
							"internalType": "bool",
							"name": "",
							"type": "bool"
						}
					],
					"stateMutability": "nonpayable",
					"type": "function"
				},
				{
					"inputs": [
						{
							"internalType": "address",
							"name": "newOwner",
							"type": "address"
						}
					],
					"name": "transferOwnership",
					"outputs": [],
					"stateMutability": "nonpayable",
					"type": "function"
				}
			],
			"devdoc": {
				"events": {
					"Approval(address,address,uint256)": {
						"details": "Emitted when the allowance of a `spender` for an `owner` is set by a call to {approve}. `value` is the new allowance."
					},
					"Transfer(address,address,uint256)": {
						"details": "Emitted when `value` tokens are moved from one account (`from`) to another (`to`). Note that `value` may be zero."
					}
				},
				"kind": "dev",
				"methods": {
					"allowance(address,address)": {
						"details": "See {IERC20-allowance}."
					},
					"approve(address,uint256)": {
						"details": "See {IERC20-approve}. NOTE: If `amount` is the maximum `uint256`, the allowance is not updated on `transferFrom`. This is semantically equivalent to an infinite approval. Requirements: - `spender` cannot be the zero address."
					},
					"balanceOf(address)": {
						"details": "See {IERC20-balanceOf}."
					},
					"decimals()": {
						"details": "Returns the number of decimals used to get its user representation. For example, if `decimals` equals `2`, a balance of `505` tokens should be displayed to a user as `5.05` (`505 / 10 ** 2`). Tokens usually opt for a value of 18, imitating the relationship between Ether and Wei. This is the value {ERC20} uses, unless this function is overridden; NOTE: This information is only used for _display_ purposes: it in no way affects any of the arithmetic of the contract, including {IERC20-balanceOf} and {IERC20-transfer}."
					},
					"decreaseAllowance(address,uint256)": {
						"details": "Atomically decreases the allowance granted to `spender` by the caller. This is an alternative to {approve} that can be used as a mitigation for problems described in {IERC20-approve}. Emits an {Approval} event indicating the updated allowance. Requirements: - `spender` cannot be the zero address. - `spender` must have allowance for the caller of at least `subtractedValue`."
					},
					"increaseAllowance(address,uint256)": {
						"details": "Atomically increases the allowance granted to `spender` by the caller. This is an alternative to {approve} that can be used as a mitigation for problems described in {IERC20-approve}. Emits an {Approval} event indicating the updated allowance. Requirements: - `spender` cannot be the zero address."
					},
					"name()": {
						"details": "Returns the name of the token."
					},
					"owner()": {
						"details": "Returns the address of the current owner."
					},
					"renounceOwnership()": {
						"details": "Leaves the contract without owner. It will not be possible to call `onlyOwner` functions anymore. Can only be called by the current owner. NOTE: Renouncing ownership will leave the contract without an owner, thereby removing any functionality that is only available to the owner."
					},
					"symbol()": {
						"details": "Returns the symbol of the token, usually a shorter version of the name."
					},
					"totalSupply()": {
						"details": "See {IERC20-totalSupply}."
					},
					"transfer(address,uint256)": {
						"details": "See {IERC20-transfer}. Requirements: - `to` cannot be the zero address. - the caller must have a balance of at least `amount`."
					},
					"transferFrom(address,address,uint256)": {
						"details": "See {IERC20-transferFrom}. Emits an {Approval} event indicating the updated allowance. This is not required by the EIP. See the note at the beginning of {ERC20}. NOTE: Does not update the allowance if the current allowance is the maximum `uint256`. Requirements: - `from` and `to` cannot be the zero address. - `from` must have a balance of at least `amount`. - the caller must have allowance for ``from``'s tokens of at least `amount`."
					},
					"transferOwnership(address)": {
						"details": "Transfers ownership of the contract to a new account (`newOwner`). Can only be called by the current owner."
					}
				},
				"version": 1
			},
			"evm": {
				"assembly": "    /* \"sosh/SST.sol\":180:2582  contract SST is ERC20, Ownable {... */\n  mstore(0x40, 0x80)\n    /* \"sosh/SST.sol\":369:410  constructor() ERC20(\"SoSH SST\", \"SST\") {} */\n  callvalue\n  dup1\n  iszero\n  tag_1\n  jumpi\n  0x00\n  dup1\n  revert\ntag_1:\n  pop\n    /* \"@openzeppelin/contracts@4.7.0/token/ERC20/ERC20.sol\":1978:2091  constructor(string memory name_, string memory symbol_) {... */\n  mload(0x40)\n  dup1\n  0x40\n  add\n  0x40\n  mstore\n  dup1\n  0x08\n  dup2\n  mstore\n  0x20\n  add\n  shl(0xc2, 0x14dbd4d20814d4d5)\n  dup2\n  mstore\n  pop\n  mload(0x40)\n  dup1\n  0x40\n  add\n  0x40\n  mstore\n  dup1\n  0x03\n  dup2\n  mstore\n  0x20\n  add\n  shl(0xea, 0x14d4d5)\n  dup2\n  mstore\n  pop\n    /* \"@openzeppelin/contracts@4.7.0/token/ERC20/ERC20.sol\":2052:2057  name_ */\n  dup2\n    /* \"@openzeppelin/contracts@4.7.0/token/ERC20/ERC20.sol\":2044:2049  _name */\n  0x03\n    /* \"@openzeppelin/contracts@4.7.0/token/ERC20/ERC20.sol\":2044:2057  _name = name_ */\n  swap1\n  dup2\n  tag_6\n  swap2\n  swap1\n  tag_7\n  jump\t// in\ntag_6:\n  pop\n    /* \"@openzeppelin/contracts@4.7.0/token/ERC20/ERC20.sol\":2067:2074  _symbol */\n  0x04\n    /* \"@openzeppelin/contracts@4.7.0/token/ERC20/ERC20.sol\":2067:2084  _symbol = symbol_ */\n  tag_8\n    /* \"@openzeppelin/contracts@4.7.0/token/ERC20/ERC20.sol\":2077:2084  symbol_ */\n  dup3\n    /* \"@openzeppelin/contracts@4.7.0/token/ERC20/ERC20.sol\":2067:2074  _symbol */\n  dup3\n    /* \"@openzeppelin/contracts@4.7.0/token/ERC20/ERC20.sol\":2067:2084  _symbol = symbol_ */\n  tag_7\n  jump\t// in\ntag_8:\n  pop\n    /* \"@openzeppelin/contracts@4.7.0/token/ERC20/ERC20.sol\":1978:2091  constructor(string memory name_, string memory symbol_) {... */\n  pop\n  pop\n    /* \"@openzeppelin/contracts@4.7.0/access/Ownable.sol\":936:968  _transferOwnership(_msgSender()) */\n  tag_10\n    /* \"@openzeppelin/contracts@4.7.0/access/Ownable.sol\":955:967  _msgSender() */\n  tag_11\n    /* \"@openzeppelin/contracts@4.7.0/access/Ownable.sol\":955:965  _msgSender */\n  shl(0x20, tag_12)\n    /* \"@openzeppelin/contracts@4.7.0/access/Ownable.sol\":955:967  _msgSender() */\n  0x20\n  shr\n  jump\t// in\ntag_11:\n    /* \"@openzeppelin/contracts@4.7.0/access/Ownable.sol\":936:954  _transferOwnership */\n  tag_13\n    /* \"@openzeppelin/contracts@4.7.0/access/Ownable.sol\":936:968  _transferOwnership(_msgSender()) */\n  jump\t// in\ntag_10:\n    /* \"sosh/SST.sol\":180:2582  contract SST is ERC20, Ownable {... */\n  jump(tag_23)\n    /* \"@openzeppelin/contracts@4.7.0/utils/Context.sol\":640:736  function _msgSender() internal view virtual returns (address) {... */\ntag_12:\n    /* \"@openzeppelin/contracts@4.7.0/utils/Context.sol\":719:729  msg.sender */\n  caller\n  swap1\n    /* \"@openzeppelin/contracts@4.7.0/utils/Context.sol\":640:736  function _msgSender() internal view virtual returns (address) {... */\n  jump\t// out\n    /* \"@openzeppelin/contracts@4.7.0/access/Ownable.sol\":2433:2620  function _transferOwnership(address newOwner) internal virtual {... */\ntag_13:\n    /* \"@openzeppelin/contracts@4.7.0/access/Ownable.sol\":2525:2531  _owner */\n  0x05\n  dup1\n  sload\n  sub(shl(0xa0, 0x01), 0x01)\n    /* \"@openzeppelin/contracts@4.7.0/access/Ownable.sol\":2541:2558  _owner = newOwner */\n  dup4\n  dup2\n  and\n  not(sub(shl(0xa0, 0x01), 0x01))\n  dup4\n  and\n  dup2\n  or\n  swap1\n  swap4\n  sstore\n    /* \"@openzeppelin/contracts@4.7.0/access/Ownable.sol\":2573:2613  OwnershipTransferred(oldOwner, newOwner) */\n  mload(0x40)\n    /* \"@openzeppelin/contracts@4.7.0/access/Ownable.sol\":2525:2531  _owner */\n  swap2\n  and\n  swap2\n    /* \"@openzeppelin/contracts@4.7.0/access/Ownable.sol\":2541:2558  _owner = newOwner */\n  swap1\n    /* \"@openzeppelin/contracts@4.7.0/access/Ownable.sol\":2525:2531  _owner */\n  dup3\n  swap1\n    /* \"@openzeppelin/contracts@4.7.0/access/Ownable.sol\":2573:2613  OwnershipTransferred(oldOwner, newOwner) */\n  0x8be0079c531659141344cd1fd0a4f28419497f9722a3daafe3b4186f6b6457e0\n  swap1\n    /* \"@openzeppelin/contracts@4.7.0/access/Ownable.sol\":2506:2522  address oldOwner */\n  0x00\n  swap1\n    /* \"@openzeppelin/contracts@4.7.0/access/Ownable.sol\":2573:2613  OwnershipTransferred(oldOwner, newOwner) */\n  log3\n    /* \"@openzeppelin/contracts@4.7.0/access/Ownable.sol\":2496:2620  {... */\n  pop\n    /* \"@openzeppelin/contracts@4.7.0/access/Ownable.sol\":2433:2620  function _transferOwnership(address newOwner) internal virtual {... */\n  pop\n  jump\t// out\n    /* \"#utility.yul\":14:141   */\ntag_18:\n    /* \"#utility.yul\":75:85   */\n  0x4e487b71\n    /* \"#utility.yul\":70:73   */\n  0xe0\n    /* \"#utility.yul\":66:86   */\n  shl\n    /* \"#utility.yul\":63:64   */\n  0x00\n    /* \"#utility.yul\":56:87   */\n  mstore\n    /* \"#utility.yul\":106:110   */\n  0x41\n    /* \"#utility.yul\":103:104   */\n  0x04\n    /* \"#utility.yul\":96:111   */\n  mstore\n    /* \"#utility.yul\":130:134   */\n  0x24\n    /* \"#utility.yul\":127:128   */\n  0x00\n    /* \"#utility.yul\":120:135   */\n  revert\n    /* \"#utility.yul\":146:526   */\ntag_19:\n    /* \"#utility.yul\":225:226   */\n  0x01\n    /* \"#utility.yul\":221:233   */\n  dup2\n  dup2\n  shr\n  swap1\n    /* \"#utility.yul\":268:280   */\n  dup3\n  and\n  dup1\n    /* \"#utility.yul\":289:350   */\n  tag_26\n  jumpi\n    /* \"#utility.yul\":343:347   */\n  0x7f\n    /* \"#utility.yul\":335:341   */\n  dup3\n    /* \"#utility.yul\":331:348   */\n  and\n    /* \"#utility.yul\":321:348   */\n  swap2\n  pop\n    /* \"#utility.yul\":289:350   */\ntag_26:\n    /* \"#utility.yul\":396:398   */\n  0x20\n    /* \"#utility.yul\":388:394   */\n  dup3\n    /* \"#utility.yul\":385:399   */\n  lt\n    /* \"#utility.yul\":365:383   */\n  dup2\n    /* \"#utility.yul\":362:400   */\n  sub\n    /* \"#utility.yul\":359:520   */\n  tag_27\n  jumpi\n    /* \"#utility.yul\":442:452   */\n  0x4e487b71\n    /* \"#utility.yul\":437:440   */\n  0xe0\n    /* \"#utility.yul\":433:453   */\n  shl\n    /* \"#utility.yul\":430:431   */\n  0x00\n    /* \"#utility.yul\":423:454   */\n  mstore\n    /* \"#utility.yul\":477:481   */\n  0x22\n    /* \"#utility.yul\":474:475   */\n  0x04\n    /* \"#utility.yul\":467:482   */\n  mstore\n    /* \"#utility.yul\":505:509   */\n  0x24\n    /* \"#utility.yul\":502:503   */\n  0x00\n    /* \"#utility.yul\":495:510   */\n  revert\n    /* \"#utility.yul\":359:520   */\ntag_27:\n  pop\n    /* \"#utility.yul\":146:526   */\n  swap2\n  swap1\n  pop\n  jump\t// out\n    /* \"#utility.yul\":657:1175   */\ntag_21:\n    /* \"#utility.yul\":759:761   */\n  0x1f\n    /* \"#utility.yul\":754:757   */\n  dup3\n    /* \"#utility.yul\":751:762   */\n  gt\n    /* \"#utility.yul\":748:1169   */\n  iszero\n  tag_30\n  jumpi\n    /* \"#utility.yul\":795:800   */\n  dup1\n    /* \"#utility.yul\":792:793   */\n  0x00\n    /* \"#utility.yul\":785:801   */\n  mstore\n    /* \"#utility.yul\":839:843   */\n  0x20\n    /* \"#utility.yul\":836:837   */\n  0x00\n    /* \"#utility.yul\":826:844   */\n  keccak256\n    /* \"#utility.yul\":909:911   */\n  0x1f\n    /* \"#utility.yul\":897:907   */\n  dup5\n    /* \"#utility.yul\":893:912   */\n  add\n    /* \"#utility.yul\":890:891   */\n  0x05\n    /* \"#utility.yul\":886:913   */\n  shr\n    /* \"#utility.yul\":880:884   */\n  dup2\n    /* \"#utility.yul\":876:914   */\n  add\n    /* \"#utility.yul\":945:949   */\n  0x20\n    /* \"#utility.yul\":933:943   */\n  dup6\n    /* \"#utility.yul\":930:950   */\n  lt\n    /* \"#utility.yul\":927:974   */\n  iszero\n  tag_31\n  jumpi\n  pop\n    /* \"#utility.yul\":968:972   */\n  dup1\n    /* \"#utility.yul\":927:974   */\ntag_31:\n    /* \"#utility.yul\":1023:1025   */\n  0x1f\n    /* \"#utility.yul\":1018:1021   */\n  dup5\n    /* \"#utility.yul\":1014:1026   */\n  add\n    /* \"#utility.yul\":1011:1012   */\n  0x05\n    /* \"#utility.yul\":1007:1027   */\n  shr\n    /* \"#utility.yul\":1001:1005   */\n  dup3\n    /* \"#utility.yul\":997:1028   */\n  add\n    /* \"#utility.yul\":987:1028   */\n  swap2\n  pop\n    /* \"#utility.yul\":1078:1159   */\ntag_32:\n    /* \"#utility.yul\":1096:1098   */\n  dup2\n    /* \"#utility.yul\":1089:1094   */\n  dup2\n    /* \"#utility.yul\":1086:1099   */\n  lt\n    /* \"#utility.yul\":1078:1159   */\n  iszero\n  tag_34\n  jumpi\n    /* \"#utility.yul\":1155:1156   */\n  0x00\n    /* \"#utility.yul\":1141:1157   */\n  dup2\n  sstore\n    /* \"#utility.yul\":1122:1123   */\n  0x01\n    /* \"#utility.yul\":1111:1124   */\n  add\n    /* \"#utility.yul\":1078:1159   */\n  jump(tag_32)\ntag_34:\n    /* \"#utility.yul\":1082:1085   */\n  pop\n  pop\n    /* \"#utility.yul\":748:1169   */\ntag_30:\n    /* \"#utility.yul\":657:1175   */\n  pop\n  pop\n  pop\n  jump\t// out\n    /* \"#utility.yul\":1351:2696   */\ntag_7:\n    /* \"#utility.yul\":1471:1481   */\n  dup2\n  mload\n  sub(shl(0x40, 0x01), 0x01)\n    /* \"#utility.yul\":1493:1523   */\n  dup2\n  gt\n    /* \"#utility.yul\":1490:1546   */\n  iszero\n  tag_38\n  jumpi\n    /* \"#utility.yul\":1526:1544   */\n  tag_38\n  tag_18\n  jump\t// in\ntag_38:\n    /* \"#utility.yul\":1555:1652   */\n  tag_39\n    /* \"#utility.yul\":1645:1651   */\n  dup2\n    /* \"#utility.yul\":1605:1643   */\n  tag_40\n    /* \"#utility.yul\":1637:1641   */\n  dup5\n    /* \"#utility.yul\":1631:1642   */\n  sload\n    /* \"#utility.yul\":1605:1643   */\n  tag_19\n  jump\t// in\ntag_40:\n    /* \"#utility.yul\":1599:1603   */\n  dup5\n    /* \"#utility.yul\":1555:1652   */\n  tag_21\n  jump\t// in\ntag_39:\n    /* \"#utility.yul\":1707:1711   */\n  0x20\n  dup1\n    /* \"#utility.yul\":1764:1766   */\n  0x1f\n    /* \"#utility.yul\":1753:1767   */\n  dup4\n  gt\n    /* \"#utility.yul\":1781:1782   */\n  0x01\n    /* \"#utility.yul\":1776:2439   */\n  dup2\n  eq\n  tag_42\n  jumpi\n    /* \"#utility.yul\":2483:2484   */\n  0x00\n    /* \"#utility.yul\":2500:2506   */\n  dup5\n    /* \"#utility.yul\":2497:2586   */\n  iszero\n  tag_43\n  jumpi\n  pop\n    /* \"#utility.yul\":2552:2571   */\n  dup6\n  dup4\n  add\n    /* \"#utility.yul\":2546:2572   */\n  mload\n    /* \"#utility.yul\":2497:2586   */\ntag_43:\n  not(0x00)\n    /* \"#utility.yul\":1308:1309   */\n  0x03\n    /* \"#utility.yul\":1304:1315   */\n  dup7\n  swap1\n  shl\n    /* \"#utility.yul\":1300:1324   */\n  shr\n    /* \"#utility.yul\":1296:1325   */\n  not\n    /* \"#utility.yul\":1286:1326   */\n  and\n    /* \"#utility.yul\":1332:1333   */\n  0x01\n    /* \"#utility.yul\":1328:1339   */\n  dup6\n  swap1\n  shl\n    /* \"#utility.yul\":1283:1340   */\n  or\n    /* \"#utility.yul\":2599:2680   */\n  dup6\n  sstore\n    /* \"#utility.yul\":1746:2690   */\n  jump(tag_41)\n    /* \"#utility.yul\":1776:2439   */\ntag_42:\n    /* \"#utility.yul\":604:605   */\n  0x00\n    /* \"#utility.yul\":597:611   */\n  dup6\n  dup2\n  mstore\n    /* \"#utility.yul\":641:645   */\n  0x20\n    /* \"#utility.yul\":628:646   */\n  dup2\n  keccak256\n  not(0x1f)\n    /* \"#utility.yul\":1812:1832   */\n  dup7\n  and\n  swap2\n    /* \"#utility.yul\":1930:2166   */\ntag_46:\n    /* \"#utility.yul\":1944:1951   */\n  dup3\n    /* \"#utility.yul\":1941:1942   */\n  dup2\n    /* \"#utility.yul\":1938:1952   */\n  lt\n    /* \"#utility.yul\":1930:2166   */\n  iszero\n  tag_48\n  jumpi\n    /* \"#utility.yul\":2033:2052   */\n  dup9\n  dup7\n  add\n    /* \"#utility.yul\":2027:2053   */\n  mload\n    /* \"#utility.yul\":2012:2054   */\n  dup3\n  sstore\n    /* \"#utility.yul\":2125:2152   */\n  swap5\n  dup5\n  add\n  swap5\n    /* \"#utility.yul\":2093:2094   */\n  0x01\n    /* \"#utility.yul\":2081:2095   */\n  swap1\n  swap2\n  add\n  swap1\n    /* \"#utility.yul\":1960:1979   */\n  dup5\n  add\n    /* \"#utility.yul\":1930:2166   */\n  jump(tag_46)\ntag_48:\n    /* \"#utility.yul\":1934:1937   */\n  pop\n    /* \"#utility.yul\":2194:2200   */\n  dup6\n    /* \"#utility.yul\":2185:2192   */\n  dup3\n    /* \"#utility.yul\":2182:2201   */\n  lt\n    /* \"#utility.yul\":2179:2380   */\n  iszero\n  tag_49\n  jumpi\n    /* \"#utility.yul\":2255:2274   */\n  dup8\n  dup6\n  add\n    /* \"#utility.yul\":2249:2275   */\n  mload\n  not(0x00)\n    /* \"#utility.yul\":2338:2339   */\n  0x03\n    /* \"#utility.yul\":2334:2348   */\n  dup9\n  swap1\n  shl\n    /* \"#utility.yul\":2350:2353   */\n  0xf8\n    /* \"#utility.yul\":2330:2354   */\n  and\n    /* \"#utility.yul\":2326:2363   */\n  shr\n    /* \"#utility.yul\":2322:2364   */\n  not\n    /* \"#utility.yul\":2307:2365   */\n  and\n    /* \"#utility.yul\":2292:2366   */\n  dup2\n  sstore\n    /* \"#utility.yul\":2179:2380   */\ntag_49:\n  pop\n  pop\n    /* \"#utility.yul\":2426:2427   */\n  0x01\n    /* \"#utility.yul\":2417:2423   */\n  dup5\n    /* \"#utility.yul\":2414:2415   */\n  0x01\n    /* \"#utility.yul\":2410:2424   */\n  shl\n    /* \"#utility.yul\":2406:2428   */\n  add\n    /* \"#utility.yul\":2400:2404   */\n  dup6\n    /* \"#utility.yul\":2393:2429   */\n  sstore\n    /* \"#utility.yul\":1746:2690   */\ntag_41:\n  pop\n  pop\n  pop\n  pop\n    /* \"#utility.yul\":1351:2696   */\n  pop\n  pop\n  jump\t// out\ntag_23:\n    /* \"sosh/SST.sol\":180:2582  contract SST is ERC20, Ownable {... */\n  dataSize(sub_0)\n  dup1\n  dataOffset(sub_0)\n  0x00\n  codecopy\n  0x00\n  return\nstop\n\nsub_0: assembly {\n        /* \"sosh/SST.sol\":180:2582  contract SST is ERC20, Ownable {... */\n      mstore(0x40, 0x80)\n      jumpi(tag_1, lt(calldatasize, 0x04))\n      shr(0xe0, calldataload(0x00))\n      dup1\n      0x70a08231\n      gt\n      tag_21\n      jumpi\n      dup1\n      0xa457c2d7\n      gt\n      tag_22\n      jumpi\n      dup1\n      0xa457c2d7\n      eq\n      tag_16\n      jumpi\n      dup1\n      0xa9059cbb\n      eq\n      tag_17\n      jumpi\n      dup1\n      0xdd62ed3e\n      eq\n      tag_18\n      jumpi\n      dup1\n      0xf2fde38b\n      eq\n      tag_19\n      jumpi\n      dup1\n      0xfcd3533c\n      eq\n      tag_20\n      jumpi\n      0x00\n      dup1\n      revert\n    tag_22:\n      dup1\n      0x70a08231\n      eq\n      tag_11\n      jumpi\n      dup1\n      0x715018a6\n      eq\n      tag_12\n      jumpi\n      dup1\n      0x8da5cb5b\n      eq\n      tag_13\n      jumpi\n      dup1\n      0x94bf804d\n      eq\n      tag_14\n      jumpi\n      dup1\n      0x95d89b41\n      eq\n      tag_15\n      jumpi\n      0x00\n      dup1\n      revert\n    tag_21:\n      dup1\n      0x23b872dd\n      gt\n      tag_23\n      jumpi\n      dup1\n      0x23b872dd\n      eq\n      tag_6\n      jumpi\n      dup1\n      0x313ce567\n      eq\n      tag_7\n      jumpi\n      dup1\n      0x39509351\n      eq\n      tag_8\n      jumpi\n      dup1\n      0x4fa1d436\n      eq\n      tag_9\n      jumpi\n      dup1\n      0x695d2f13\n      eq\n      tag_10\n      jumpi\n      0x00\n      dup1\n      revert\n    tag_23:\n      dup1\n      0x06fdde03\n      eq\n      tag_2\n      jumpi\n      dup1\n      0x0802c2cd\n      eq\n      tag_3\n      jumpi\n      dup1\n      0x095ea7b3\n      eq\n      tag_4\n      jumpi\n      dup1\n      0x18160ddd\n      eq\n      tag_5\n      jumpi\n    tag_1:\n      0x00\n      dup1\n      revert\n        /* \"@openzeppelin/contracts@4.7.0/token/ERC20/ERC20.sol\":2156:2254  function name() public view virtual override returns (string memory) {... */\n    tag_2:\n      callvalue\n      dup1\n      iszero\n      tag_24\n      jumpi\n      0x00\n      dup1\n      revert\n    tag_24:\n      pop\n      tag_25\n      tag_26\n      jump\t// in\n    tag_25:\n      mload(0x40)\n      tag_27\n      swap2\n      swap1\n      tag_28\n      jump\t// in\n    tag_27:\n      mload(0x40)\n      dup1\n      swap2\n      sub\n      swap1\n      return\n        /* \"sosh/SST.sol\":217:279  uint256 public constant MINT_PRICE_PER_TOKEN = 675000000000000 */\n    tag_3:\n      callvalue\n      dup1\n      iszero\n      tag_29\n      jumpi\n      0x00\n      dup1\n      revert\n    tag_29:\n      pop\n      tag_30\n        /* \"sosh/SST.sol\":264:279  675000000000000 */\n      0x0265e8af393000\n        /* \"sosh/SST.sol\":217:279  uint256 public constant MINT_PRICE_PER_TOKEN = 675000000000000 */\n      dup2\n      jump\n    tag_30:\n      mload(0x40)\n        /* \"#utility.yul\":713:738   */\n      swap1\n      dup2\n      mstore\n        /* \"#utility.yul\":701:703   */\n      0x20\n        /* \"#utility.yul\":686:704   */\n      add\n        /* \"sosh/SST.sol\":217:279  uint256 public constant MINT_PRICE_PER_TOKEN = 675000000000000 */\n      tag_27\n        /* \"#utility.yul\":567:744   */\n      jump\n        /* \"@openzeppelin/contracts@4.7.0/token/ERC20/ERC20.sol\":4433:4630  function approve(address spender, uint256 amount) public virtual override returns (bool) {... */\n    tag_4:\n      callvalue\n      dup1\n      iszero\n      tag_34\n      jumpi\n      0x00\n      dup1\n      revert\n    tag_34:\n      pop\n      tag_35\n      tag_36\n      calldatasize\n      0x04\n      tag_37\n      jump\t// in\n    tag_36:\n      tag_38\n      jump\t// in\n    tag_35:\n      mload(0x40)\n        /* \"#utility.yul\":1351:1365   */\n      swap1\n      iszero\n        /* \"#utility.yul\":1344:1366   */\n      iszero\n        /* \"#utility.yul\":1326:1367   */\n      dup2\n      mstore\n        /* \"#utility.yul\":1314:1316   */\n      0x20\n        /* \"#utility.yul\":1299:1317   */\n      add\n        /* \"@openzeppelin/contracts@4.7.0/token/ERC20/ERC20.sol\":4433:4630  function approve(address spender, uint256 amount) public virtual override returns (bool) {... */\n      tag_27\n        /* \"#utility.yul\":1186:1373   */\n      jump\n        /* \"@openzeppelin/contracts@4.7.0/token/ERC20/ERC20.sol\":3244:3350  function totalSupply() public view virtual override returns (uint256) {... */\n    tag_5:\n      callvalue\n      dup1\n      iszero\n      tag_41\n      jumpi\n      0x00\n      dup1\n      revert\n    tag_41:\n      pop\n        /* \"@openzeppelin/contracts@4.7.0/token/ERC20/ERC20.sol\":3331:3343  _totalSupply */\n      sload(0x02)\n        /* \"@openzeppelin/contracts@4.7.0/token/ERC20/ERC20.sol\":3244:3350  function totalSupply() public view virtual override returns (uint256) {... */\n      jump(tag_30)\n        /* \"@openzeppelin/contracts@4.7.0/token/ERC20/ERC20.sol\":5192:5478  function transferFrom(... */\n    tag_6:\n      callvalue\n      dup1\n      iszero\n      tag_45\n      jumpi\n      0x00\n      dup1\n      revert\n    tag_45:\n      pop\n      tag_35\n      tag_47\n      calldatasize\n      0x04\n      tag_48\n      jump\t// in\n    tag_47:\n      tag_49\n      jump\t// in\n        /* \"@openzeppelin/contracts@4.7.0/token/ERC20/ERC20.sol\":3093:3184  function decimals() public view virtual override returns (uint8) {... */\n    tag_7:\n      callvalue\n      dup1\n      iszero\n      tag_51\n      jumpi\n      0x00\n      dup1\n      revert\n    tag_51:\n      pop\n      mload(0x40)\n        /* \"@openzeppelin/contracts@4.7.0/token/ERC20/ERC20.sol\":3175:3177  18 */\n      0x12\n        /* \"#utility.yul\":1853:1889   */\n      dup2\n      mstore\n        /* \"#utility.yul\":1841:1843   */\n      0x20\n        /* \"#utility.yul\":1826:1844   */\n      add\n        /* \"@openzeppelin/contracts@4.7.0/token/ERC20/ERC20.sol\":3093:3184  function decimals() public view virtual override returns (uint8) {... */\n      tag_27\n        /* \"#utility.yul\":1711:1895   */\n      jump\n        /* \"@openzeppelin/contracts@4.7.0/token/ERC20/ERC20.sol\":5873:6107  function increaseAllowance(address spender, uint256 addedValue) public virtual returns (bool) {... */\n    tag_8:\n      callvalue\n      dup1\n      iszero\n      tag_56\n      jumpi\n      0x00\n      dup1\n      revert\n    tag_56:\n      pop\n      tag_35\n      tag_58\n      calldatasize\n      0x04\n      tag_37\n      jump\t// in\n    tag_58:\n      tag_59\n      jump\t// in\n        /* \"sosh/SST.sol\":965:1762  function mintWithGasTap(uint256 tokenAmount, address aAWallet) public payable {... */\n    tag_9:\n      tag_61\n      tag_62\n      calldatasize\n      0x04\n      tag_63\n      jump\t// in\n    tag_62:\n      tag_64\n      jump\t// in\n    tag_61:\n      stop\n        /* \"sosh/SST.sol\":308:356  uint256 public constant GAS_FEE_TAP = 0.02 ether */\n    tag_10:\n      callvalue\n      dup1\n      iszero\n      tag_65\n      jumpi\n      0x00\n      dup1\n      revert\n    tag_65:\n      pop\n      tag_30\n        /* \"sosh/SST.sol\":346:356  0.02 ether */\n      0x470de4df820000\n        /* \"sosh/SST.sol\":308:356  uint256 public constant GAS_FEE_TAP = 0.02 ether */\n      dup2\n      jump\n        /* \"@openzeppelin/contracts@4.7.0/token/ERC20/ERC20.sol\":3408:3533  function balanceOf(address account) public view virtual override returns (uint256) {... */\n    tag_11:\n      callvalue\n      dup1\n      iszero\n      tag_69\n      jumpi\n      0x00\n      dup1\n      revert\n    tag_69:\n      pop\n      tag_30\n      tag_71\n      calldatasize\n      0x04\n      tag_72\n      jump\t// in\n    tag_71:\n      sub(shl(0xa0, 0x01), 0x01)\n        /* \"@openzeppelin/contracts@4.7.0/token/ERC20/ERC20.sol\":3508:3526  _balances[account] */\n      and\n        /* \"@openzeppelin/contracts@4.7.0/token/ERC20/ERC20.sol\":3482:3489  uint256 */\n      0x00\n        /* \"@openzeppelin/contracts@4.7.0/token/ERC20/ERC20.sol\":3508:3526  _balances[account] */\n      swap1\n      dup2\n      mstore\n      0x20\n      dup2\n      swap1\n      mstore\n      0x40\n      swap1\n      keccak256\n      sload\n      swap1\n        /* \"@openzeppelin/contracts@4.7.0/token/ERC20/ERC20.sol\":3408:3533  function balanceOf(address account) public view virtual override returns (uint256) {... */\n      jump\n        /* \"@openzeppelin/contracts@4.7.0/access/Ownable.sol\":1831:1932  function renounceOwnership() public virtual onlyOwner {... */\n    tag_12:\n      callvalue\n      dup1\n      iszero\n      tag_75\n      jumpi\n      0x00\n      dup1\n      revert\n    tag_75:\n      pop\n      tag_61\n      tag_77\n      jump\t// in\n        /* \"@openzeppelin/contracts@4.7.0/access/Ownable.sol\":1201:1286  function owner() public view virtual returns (address) {... */\n    tag_13:\n      callvalue\n      dup1\n      iszero\n      tag_78\n      jumpi\n      0x00\n      dup1\n      revert\n    tag_78:\n      pop\n        /* \"@openzeppelin/contracts@4.7.0/access/Ownable.sol\":1273:1279  _owner */\n      sload(0x05)\n        /* \"@openzeppelin/contracts@4.7.0/access/Ownable.sol\":1201:1286  function owner() public view virtual returns (address) {... */\n      mload(0x40)\n      sub(shl(0xa0, 0x01), 0x01)\n        /* \"@openzeppelin/contracts@4.7.0/access/Ownable.sol\":1273:1279  _owner */\n      swap1\n      swap2\n      and\n        /* \"#utility.yul\":2496:2547   */\n      dup2\n      mstore\n        /* \"#utility.yul\":2484:2486   */\n      0x20\n        /* \"#utility.yul\":2469:2487   */\n      add\n        /* \"@openzeppelin/contracts@4.7.0/access/Ownable.sol\":1201:1286  function owner() public view virtual returns (address) {... */\n      tag_27\n        /* \"#utility.yul\":2350:2553   */\n      jump\n        /* \"sosh/SST.sol\":451:882  function mint(uint256 tokenAmount, address aAWallet) public payable {... */\n    tag_14:\n      tag_61\n      tag_84\n      calldatasize\n      0x04\n      tag_63\n      jump\t// in\n    tag_84:\n      tag_85\n      jump\t// in\n        /* \"@openzeppelin/contracts@4.7.0/token/ERC20/ERC20.sol\":2367:2469  function symbol() public view virtual override returns (string memory) {... */\n    tag_15:\n      callvalue\n      dup1\n      iszero\n      tag_86\n      jumpi\n      0x00\n      dup1\n      revert\n    tag_86:\n      pop\n      tag_25\n      tag_88\n      jump\t// in\n        /* \"@openzeppelin/contracts@4.7.0/token/ERC20/ERC20.sol\":6594:7021  function decreaseAllowance(address spender, uint256 subtractedValue) public virtual returns (bool) {... */\n    tag_16:\n      callvalue\n      dup1\n      iszero\n      tag_90\n      jumpi\n      0x00\n      dup1\n      revert\n    tag_90:\n      pop\n      tag_35\n      tag_92\n      calldatasize\n      0x04\n      tag_37\n      jump\t// in\n    tag_92:\n      tag_93\n      jump\t// in\n        /* \"@openzeppelin/contracts@4.7.0/token/ERC20/ERC20.sol\":3729:3918  function transfer(address to, uint256 amount) public virtual override returns (bool) {... */\n    tag_17:\n      callvalue\n      dup1\n      iszero\n      tag_95\n      jumpi\n      0x00\n      dup1\n      revert\n    tag_95:\n      pop\n      tag_35\n      tag_97\n      calldatasize\n      0x04\n      tag_37\n      jump\t// in\n    tag_97:\n      tag_98\n      jump\t// in\n        /* \"@openzeppelin/contracts@4.7.0/token/ERC20/ERC20.sol\":3976:4125  function allowance(address owner, address spender) public view virtual override returns (uint256) {... */\n    tag_18:\n      callvalue\n      dup1\n      iszero\n      tag_100\n      jumpi\n      0x00\n      dup1\n      revert\n    tag_100:\n      pop\n      tag_30\n      tag_102\n      calldatasize\n      0x04\n      tag_103\n      jump\t// in\n    tag_102:\n      tag_104\n      jump\t// in\n        /* \"@openzeppelin/contracts@4.7.0/access/Ownable.sol\":2081:2279  function transferOwnership(address newOwner) public virtual onlyOwner {... */\n    tag_19:\n      callvalue\n      dup1\n      iszero\n      tag_106\n      jumpi\n      0x00\n      dup1\n      revert\n    tag_106:\n      pop\n      tag_61\n      tag_108\n      calldatasize\n      0x04\n      tag_72\n      jump\t// in\n    tag_108:\n      tag_109\n      jump\t// in\n        /* \"sosh/SST.sol\":1824:2283  function burn(uint256 amount, address destinationAddress) public {... */\n    tag_20:\n      callvalue\n      dup1\n      iszero\n      tag_110\n      jumpi\n      0x00\n      dup1\n      revert\n    tag_110:\n      pop\n      tag_61\n      tag_112\n      calldatasize\n      0x04\n      tag_63\n      jump\t// in\n    tag_112:\n      tag_113\n      jump\t// in\n        /* \"@openzeppelin/contracts@4.7.0/token/ERC20/ERC20.sol\":2156:2254  function name() public view virtual override returns (string memory) {... */\n    tag_26:\n        /* \"@openzeppelin/contracts@4.7.0/token/ERC20/ERC20.sol\":2210:2223  string memory */\n      0x60\n        /* \"@openzeppelin/contracts@4.7.0/token/ERC20/ERC20.sol\":2242:2247  _name */\n      0x03\n        /* \"@openzeppelin/contracts@4.7.0/token/ERC20/ERC20.sol\":2235:2247  return _name */\n      dup1\n      sload\n      tag_115\n      swap1\n      tag_116\n      jump\t// in\n    tag_115:\n      dup1\n      0x1f\n      add\n      0x20\n      dup1\n      swap2\n      div\n      mul\n      0x20\n      add\n      mload(0x40)\n      swap1\n      dup2\n      add\n      0x40\n      mstore\n      dup1\n      swap3\n      swap2\n      swap1\n      dup2\n      dup2\n      mstore\n      0x20\n      add\n      dup3\n      dup1\n      sload\n      tag_117\n      swap1\n      tag_116\n      jump\t// in\n    tag_117:\n      dup1\n      iszero\n      tag_118\n      jumpi\n      dup1\n      0x1f\n      lt\n      tag_119\n      jumpi\n      0x0100\n      dup1\n      dup4\n      sload\n      div\n      mul\n      dup4\n      mstore\n      swap2\n      0x20\n      add\n      swap2\n      jump(tag_118)\n    tag_119:\n      dup3\n      add\n      swap2\n      swap1\n      0x00\n      mstore\n      keccak256(0x00, 0x20)\n      swap1\n    tag_120:\n      dup2\n      sload\n      dup2\n      mstore\n      swap1\n      0x01\n      add\n      swap1\n      0x20\n      add\n      dup1\n      dup4\n      gt\n      tag_120\n      jumpi\n      dup3\n      swap1\n      sub\n      0x1f\n      and\n      dup3\n      add\n      swap2\n    tag_118:\n      pop\n      pop\n      pop\n      pop\n      pop\n      swap1\n      pop\n        /* \"@openzeppelin/contracts@4.7.0/token/ERC20/ERC20.sol\":2156:2254  function name() public view virtual override returns (string memory) {... */\n      swap1\n      jump\t// out\n        /* \"@openzeppelin/contracts@4.7.0/token/ERC20/ERC20.sol\":4433:4630  function approve(address spender, uint256 amount) public virtual override returns (bool) {... */\n    tag_38:\n        /* \"@openzeppelin/contracts@4.7.0/token/ERC20/ERC20.sol\":4516:4520  bool */\n      0x00\n        /* \"@openzeppelin/contracts@4.7.0/utils/Context.sol\":719:729  msg.sender */\n      caller\n        /* \"@openzeppelin/contracts@4.7.0/token/ERC20/ERC20.sol\":4570:4602  _approve(owner, spender, amount) */\n      tag_124\n        /* \"@openzeppelin/contracts@4.7.0/utils/Context.sol\":719:729  msg.sender */\n      dup2\n        /* \"@openzeppelin/contracts@4.7.0/token/ERC20/ERC20.sol\":4586:4593  spender */\n      dup6\n        /* \"@openzeppelin/contracts@4.7.0/token/ERC20/ERC20.sol\":4595:4601  amount */\n      dup6\n        /* \"@openzeppelin/contracts@4.7.0/token/ERC20/ERC20.sol\":4570:4578  _approve */\n      tag_125\n        /* \"@openzeppelin/contracts@4.7.0/token/ERC20/ERC20.sol\":4570:4602  _approve(owner, spender, amount) */\n      jump\t// in\n    tag_124:\n        /* \"@openzeppelin/contracts@4.7.0/token/ERC20/ERC20.sol\":4619:4623  true */\n      0x01\n        /* \"@openzeppelin/contracts@4.7.0/token/ERC20/ERC20.sol\":4612:4623  return true */\n      swap2\n      pop\n      pop\n        /* \"@openzeppelin/contracts@4.7.0/token/ERC20/ERC20.sol\":4433:4630  function approve(address spender, uint256 amount) public virtual override returns (bool) {... */\n    tag_121:\n      swap3\n      swap2\n      pop\n      pop\n      jump\t// out\n        /* \"@openzeppelin/contracts@4.7.0/token/ERC20/ERC20.sol\":5192:5478  function transferFrom(... */\n    tag_49:\n        /* \"@openzeppelin/contracts@4.7.0/token/ERC20/ERC20.sol\":5319:5323  bool */\n      0x00\n        /* \"@openzeppelin/contracts@4.7.0/utils/Context.sol\":719:729  msg.sender */\n      caller\n        /* \"@openzeppelin/contracts@4.7.0/token/ERC20/ERC20.sol\":5375:5413  _spendAllowance(from, spender, amount) */\n      tag_129\n        /* \"@openzeppelin/contracts@4.7.0/token/ERC20/ERC20.sol\":5391:5395  from */\n      dup6\n        /* \"@openzeppelin/contracts@4.7.0/utils/Context.sol\":719:729  msg.sender */\n      dup3\n        /* \"@openzeppelin/contracts@4.7.0/token/ERC20/ERC20.sol\":5406:5412  amount */\n      dup6\n        /* \"@openzeppelin/contracts@4.7.0/token/ERC20/ERC20.sol\":5375:5390  _spendAllowance */\n      tag_130\n        /* \"@openzeppelin/contracts@4.7.0/token/ERC20/ERC20.sol\":5375:5413  _spendAllowance(from, spender, amount) */\n      jump\t// in\n    tag_129:\n        /* \"@openzeppelin/contracts@4.7.0/token/ERC20/ERC20.sol\":5423:5450  _transfer(from, to, amount) */\n      tag_131\n        /* \"@openzeppelin/contracts@4.7.0/token/ERC20/ERC20.sol\":5433:5437  from */\n      dup6\n        /* \"@openzeppelin/contracts@4.7.0/token/ERC20/ERC20.sol\":5439:5441  to */\n      dup6\n        /* \"@openzeppelin/contracts@4.7.0/token/ERC20/ERC20.sol\":5443:5449  amount */\n      dup6\n        /* \"@openzeppelin/contracts@4.7.0/token/ERC20/ERC20.sol\":5423:5432  _transfer */\n      tag_132\n        /* \"@openzeppelin/contracts@4.7.0/token/ERC20/ERC20.sol\":5423:5450  _transfer(from, to, amount) */\n      jump\t// in\n    tag_131:\n      pop\n        /* \"@openzeppelin/contracts@4.7.0/token/ERC20/ERC20.sol\":5467:5471  true */\n      0x01\n      swap5\n        /* \"@openzeppelin/contracts@4.7.0/token/ERC20/ERC20.sol\":5192:5478  function transferFrom(... */\n      swap4\n      pop\n      pop\n      pop\n      pop\n      jump\t// out\n        /* \"@openzeppelin/contracts@4.7.0/token/ERC20/ERC20.sol\":5873:6107  function increaseAllowance(address spender, uint256 addedValue) public virtual returns (bool) {... */\n    tag_59:\n        /* \"@openzeppelin/contracts@4.7.0/token/ERC20/ERC20.sol\":5961:5965  bool */\n      0x00\n        /* \"@openzeppelin/contracts@4.7.0/utils/Context.sol\":719:729  msg.sender */\n      caller\n        /* \"@openzeppelin/contracts@4.7.0/token/ERC20/ERC20.sol\":6015:6079  _approve(owner, spender, allowance(owner, spender) + addedValue) */\n      tag_124\n        /* \"@openzeppelin/contracts@4.7.0/utils/Context.sol\":719:729  msg.sender */\n      dup2\n        /* \"@openzeppelin/contracts@4.7.0/token/ERC20/ERC20.sol\":6031:6038  spender */\n      dup6\n        /* \"@openzeppelin/contracts@4.7.0/token/ERC20/ERC20.sol\":6068:6078  addedValue */\n      dup6\n        /* \"@openzeppelin/contracts@4.7.0/token/ERC20/ERC20.sol\":6040:6065  allowance(owner, spender) */\n      tag_137\n        /* \"@openzeppelin/contracts@4.7.0/utils/Context.sol\":719:729  msg.sender */\n      dup4\n        /* \"@openzeppelin/contracts@4.7.0/token/ERC20/ERC20.sol\":6031:6038  spender */\n      dup4\n        /* \"@openzeppelin/contracts@4.7.0/token/ERC20/ERC20.sol\":6040:6049  allowance */\n      tag_104\n        /* \"@openzeppelin/contracts@4.7.0/token/ERC20/ERC20.sol\":6040:6065  allowance(owner, spender) */\n      jump\t// in\n    tag_137:\n        /* \"@openzeppelin/contracts@4.7.0/token/ERC20/ERC20.sol\":6040:6078  allowance(owner, spender) + addedValue */\n      tag_138\n      swap2\n      swap1\n      tag_139\n      jump\t// in\n    tag_138:\n        /* \"@openzeppelin/contracts@4.7.0/token/ERC20/ERC20.sol\":6015:6023  _approve */\n      tag_125\n        /* \"@openzeppelin/contracts@4.7.0/token/ERC20/ERC20.sol\":6015:6079  _approve(owner, spender, allowance(owner, spender) + addedValue) */\n      jump\t// in\n        /* \"sosh/SST.sol\":965:1762  function mintWithGasTap(uint256 tokenAmount, address aAWallet) public payable {... */\n    tag_64:\n        /* \"sosh/SST.sol\":1053:1074  uint256 totalMintCost */\n      0x00\n        /* \"sosh/SST.sol\":1114:1121  1 ether */\n      0x0de0b6b3a7640000\n        /* \"sosh/SST.sol\":1077:1111  MINT_PRICE_PER_TOKEN * tokenAmount */\n      tag_141\n        /* \"sosh/SST.sol\":1100:1111  tokenAmount */\n      dup5\n        /* \"sosh/SST.sol\":264:279  675000000000000 */\n      0x0265e8af393000\n        /* \"sosh/SST.sol\":1077:1111  MINT_PRICE_PER_TOKEN * tokenAmount */\n      tag_142\n      jump\t// in\n    tag_141:\n        /* \"sosh/SST.sol\":1077:1121  MINT_PRICE_PER_TOKEN * tokenAmount / 1 ether */\n      tag_143\n      swap2\n      swap1\n      tag_144\n      jump\t// in\n    tag_143:\n        /* \"sosh/SST.sol\":1053:1121  uint256 totalMintCost = MINT_PRICE_PER_TOKEN * tokenAmount / 1 ether */\n      swap1\n      pop\n        /* \"sosh/SST.sol\":1131:1145  uint256 gasFee */\n      0x00\n        /* \"sosh/SST.sol\":1178:1185  1 ether */\n      0x0de0b6b3a7640000\n        /* \"sosh/SST.sol\":1148:1175  totalMintCost * GAS_FEE_TAP */\n      tag_145\n        /* \"sosh/SST.sol\":346:356  0.02 ether */\n      0x470de4df820000\n        /* \"sosh/SST.sol\":1053:1121  uint256 totalMintCost = MINT_PRICE_PER_TOKEN * tokenAmount / 1 ether */\n      dup5\n        /* \"sosh/SST.sol\":1148:1175  totalMintCost * GAS_FEE_TAP */\n      tag_142\n      jump\t// in\n    tag_145:\n        /* \"sosh/SST.sol\":1148:1185  totalMintCost * GAS_FEE_TAP / 1 ether */\n      tag_146\n      swap2\n      swap1\n      tag_144\n      jump\t// in\n    tag_146:\n        /* \"sosh/SST.sol\":1131:1185  uint256 gasFee = totalMintCost * GAS_FEE_TAP / 1 ether */\n      swap1\n      pop\n        /* \"sosh/SST.sol\":1261:1283  totalMintCost + gasFee */\n      tag_147\n        /* \"sosh/SST.sol\":1131:1185  uint256 gasFee = totalMintCost * GAS_FEE_TAP / 1 ether */\n      dup2\n        /* \"sosh/SST.sol\":1261:1274  totalMintCost */\n      dup4\n        /* \"sosh/SST.sol\":1261:1283  totalMintCost + gasFee */\n      tag_139\n      jump\t// in\n    tag_147:\n        /* \"sosh/SST.sol\":1248:1257  msg.value */\n      callvalue\n        /* \"sosh/SST.sol\":1248:1283  msg.value >= totalMintCost + gasFee */\n      lt\n      iszero\n        /* \"sosh/SST.sol\":1240:1309  require(msg.value >= totalMintCost + gasFee, \"Insufficient ETH sent\") */\n      tag_148\n      jumpi\n      mload(0x40)\n      shl(0xe5, 0x461bcd)\n      dup2\n      mstore\n        /* \"#utility.yul\":4067:4069   */\n      0x20\n        /* \"sosh/SST.sol\":1240:1309  require(msg.value >= totalMintCost + gasFee, \"Insufficient ETH sent\") */\n      0x04\n      dup3\n      add\n        /* \"#utility.yul\":4049:4070   */\n      mstore\n        /* \"#utility.yul\":4106:4108   */\n      0x15\n        /* \"#utility.yul\":4086:4104   */\n      0x24\n      dup3\n      add\n        /* \"#utility.yul\":4079:4109   */\n      mstore\n      shl(0x5a, 0x125b9cdd59999a58da595b9d08115512081cd95b9d)\n        /* \"#utility.yul\":4125:4143   */\n      0x44\n      dup3\n      add\n        /* \"#utility.yul\":4118:4169   */\n      mstore\n        /* \"#utility.yul\":4186:4204   */\n      0x64\n      add\n        /* \"sosh/SST.sol\":1240:1309  require(msg.value >= totalMintCost + gasFee, \"Insufficient ETH sent\") */\n    tag_149:\n      mload(0x40)\n      dup1\n      swap2\n      sub\n      swap1\n      revert\n    tag_148:\n        /* \"sosh/SST.sol\":1321:1349  _mint(aAWallet, tokenAmount) */\n      tag_151\n        /* \"sosh/SST.sol\":1327:1335  aAWallet */\n      dup4\n        /* \"sosh/SST.sol\":1337:1348  tokenAmount */\n      dup6\n        /* \"sosh/SST.sol\":1321:1326  _mint */\n      tag_152\n        /* \"sosh/SST.sol\":1321:1349  _mint(aAWallet, tokenAmount) */\n      jump\t// in\n    tag_151:\n        /* \"sosh/SST.sol\":1369:1382  bool success1 */\n      0x00\n        /* \"sosh/SST.sol\":1396:1404  aAWallet */\n      dup4\n      sub(shl(0xa0, 0x01), 0x01)\n        /* \"sosh/SST.sol\":1388:1410  payable(aAWallet).call */\n      and\n        /* \"sosh/SST.sol\":1419:1425  gasFee */\n      dup3\n        /* \"sosh/SST.sol\":1388:1431  payable(aAWallet).call{value: (gasFee)}(\"\") */\n      mload(0x40)\n      0x00\n      mload(0x40)\n      dup1\n      dup4\n      sub\n      dup2\n      dup6\n      dup8\n      gas\n      call\n      swap3\n      pop\n      pop\n      pop\n      returndatasize\n      dup1\n      0x00\n      dup2\n      eq\n      tag_157\n      jumpi\n      mload(0x40)\n      swap2\n      pop\n      and(add(returndatasize, 0x3f), not(0x1f))\n      dup3\n      add\n      0x40\n      mstore\n      returndatasize\n      dup3\n      mstore\n      returndatasize\n      0x00\n      0x20\n      dup5\n      add\n      returndatacopy\n      jump(tag_156)\n    tag_157:\n      0x60\n      swap2\n      pop\n    tag_156:\n      pop\n        /* \"sosh/SST.sol\":1368:1431  (bool success1, ) = payable(aAWallet).call{value: (gasFee)}(\"\") */\n      pop\n      swap1\n      pop\n        /* \"sosh/SST.sol\":1449:1457  success1 */\n      dup1\n        /* \"sosh/SST.sol\":1441:1480  require(success1, \"Unable to send gas\") */\n      tag_158\n      jumpi\n      mload(0x40)\n      shl(0xe5, 0x461bcd)\n      dup2\n      mstore\n        /* \"#utility.yul\":4627:4629   */\n      0x20\n        /* \"sosh/SST.sol\":1441:1480  require(success1, \"Unable to send gas\") */\n      0x04\n      dup3\n      add\n        /* \"#utility.yul\":4609:4630   */\n      mstore\n        /* \"#utility.yul\":4666:4668   */\n      0x12\n        /* \"#utility.yul\":4646:4664   */\n      0x24\n      dup3\n      add\n        /* \"#utility.yul\":4639:4669   */\n      mstore\n      shl(0x70, 0x556e61626c6520746f2073656e6420676173)\n        /* \"#utility.yul\":4685:4703   */\n      0x44\n      dup3\n      add\n        /* \"#utility.yul\":4678:4726   */\n      mstore\n        /* \"#utility.yul\":4743:4761   */\n      0x64\n      add\n        /* \"sosh/SST.sol\":1441:1480  require(success1, \"Unable to send gas\") */\n      tag_149\n        /* \"#utility.yul\":4425:4767   */\n      jump\n        /* \"sosh/SST.sol\":1441:1480  require(success1, \"Unable to send gas\") */\n    tag_158:\n        /* \"sosh/SST.sol\":1552:1574  totalMintCost + gasFee */\n      tag_161\n        /* \"sosh/SST.sol\":1568:1574  gasFee */\n      dup3\n        /* \"sosh/SST.sol\":1552:1565  totalMintCost */\n      dup5\n        /* \"sosh/SST.sol\":1552:1574  totalMintCost + gasFee */\n      tag_139\n      jump\t// in\n    tag_161:\n        /* \"sosh/SST.sol\":1540:1549  msg.value */\n      callvalue\n        /* \"sosh/SST.sol\":1540:1574  msg.value > totalMintCost + gasFee */\n      gt\n        /* \"sosh/SST.sol\":1536:1756  if (msg.value > totalMintCost + gasFee) {... */\n      iszero\n      tag_162\n      jumpi\n        /* \"sosh/SST.sol\":1591:1607  bool successBack */\n      0x00\n        /* \"sosh/SST.sol\":1621:1631  msg.sender */\n      caller\n        /* \"sosh/SST.sol\":1672:1678  gasFee */\n      dup4\n        /* \"sosh/SST.sol\":1644:1669  msg.value - totalMintCost */\n      tag_163\n        /* \"sosh/SST.sol\":1656:1669  totalMintCost */\n      dup7\n        /* \"sosh/SST.sol\":1644:1653  msg.value */\n      callvalue\n        /* \"sosh/SST.sol\":1644:1669  msg.value - totalMintCost */\n      tag_164\n      jump\t// in\n    tag_163:\n        /* \"sosh/SST.sol\":1644:1678  msg.value - totalMintCost + gasFee */\n      tag_165\n      swap2\n      swap1\n      tag_139\n      jump\t// in\n    tag_165:\n        /* \"sosh/SST.sol\":1613:1683  payable(msg.sender).call{value:msg.value - totalMintCost + gasFee}(\"\") */\n      mload(0x40)\n      0x00\n      dup2\n      dup2\n      dup2\n      dup6\n      dup8\n      gas\n      call\n      swap3\n      pop\n      pop\n      pop\n      returndatasize\n      dup1\n      0x00\n      dup2\n      eq\n      tag_169\n      jumpi\n      mload(0x40)\n      swap2\n      pop\n      and(add(returndatasize, 0x3f), not(0x1f))\n      dup3\n      add\n      0x40\n      mstore\n      returndatasize\n      dup3\n      mstore\n      returndatasize\n      0x00\n      0x20\n      dup5\n      add\n      returndatacopy\n      jump(tag_168)\n    tag_169:\n      0x60\n      swap2\n      pop\n    tag_168:\n      pop\n        /* \"sosh/SST.sol\":1590:1683  (bool successBack, ) = payable(msg.sender).call{value:msg.value - totalMintCost + gasFee}(\"\") */\n      pop\n      swap1\n      pop\n        /* \"sosh/SST.sol\":1705:1716  successBack */\n      dup1\n        /* \"sosh/SST.sol\":1697:1745  require(successBack, \"Unable to send back fund\") */\n      tag_170\n      jumpi\n      mload(0x40)\n      shl(0xe5, 0x461bcd)\n      dup2\n      mstore\n        /* \"#utility.yul\":5107:5109   */\n      0x20\n        /* \"sosh/SST.sol\":1697:1745  require(successBack, \"Unable to send back fund\") */\n      0x04\n      dup3\n      add\n        /* \"#utility.yul\":5089:5110   */\n      mstore\n        /* \"#utility.yul\":5146:5148   */\n      0x18\n        /* \"#utility.yul\":5126:5144   */\n      0x24\n      dup3\n      add\n        /* \"#utility.yul\":5119:5149   */\n      mstore\n        /* \"#utility.yul\":5185:5211   */\n      0x556e61626c6520746f2073656e64206261636b2066756e640000000000000000\n        /* \"#utility.yul\":5165:5183   */\n      0x44\n      dup3\n      add\n        /* \"#utility.yul\":5158:5212   */\n      mstore\n        /* \"#utility.yul\":5229:5247   */\n      0x64\n      add\n        /* \"sosh/SST.sol\":1697:1745  require(successBack, \"Unable to send back fund\") */\n      tag_149\n        /* \"#utility.yul\":4905:5253   */\n      jump\n        /* \"sosh/SST.sol\":1697:1745  require(successBack, \"Unable to send back fund\") */\n    tag_170:\n        /* \"sosh/SST.sol\":1576:1756  {... */\n      pop\n        /* \"sosh/SST.sol\":1536:1756  if (msg.value > totalMintCost + gasFee) {... */\n    tag_162:\n        /* \"sosh/SST.sol\":1043:1762  {... */\n      pop\n      pop\n      pop\n        /* \"sosh/SST.sol\":965:1762  function mintWithGasTap(uint256 tokenAmount, address aAWallet) public payable {... */\n      pop\n      pop\n      jump\t// out\n        /* \"@openzeppelin/contracts@4.7.0/access/Ownable.sol\":1831:1932  function renounceOwnership() public virtual onlyOwner {... */\n    tag_77:\n        /* \"@openzeppelin/contracts@4.7.0/access/Ownable.sol\":1094:1107  _checkOwner() */\n      tag_175\n        /* \"@openzeppelin/contracts@4.7.0/access/Ownable.sol\":1094:1105  _checkOwner */\n      tag_176\n        /* \"@openzeppelin/contracts@4.7.0/access/Ownable.sol\":1094:1107  _checkOwner() */\n      jump\t// in\n    tag_175:\n        /* \"@openzeppelin/contracts@4.7.0/access/Ownable.sol\":1895:1925  _transferOwnership(address(0)) */\n      tag_178\n        /* \"@openzeppelin/contracts@4.7.0/access/Ownable.sol\":1922:1923  0 */\n      0x00\n        /* \"@openzeppelin/contracts@4.7.0/access/Ownable.sol\":1895:1913  _transferOwnership */\n      tag_179\n        /* \"@openzeppelin/contracts@4.7.0/access/Ownable.sol\":1895:1925  _transferOwnership(address(0)) */\n      jump\t// in\n    tag_178:\n        /* \"@openzeppelin/contracts@4.7.0/access/Ownable.sol\":1831:1932  function renounceOwnership() public virtual onlyOwner {... */\n      jump\t// out\n        /* \"sosh/SST.sol\":451:882  function mint(uint256 tokenAmount, address aAWallet) public payable {... */\n    tag_85:\n        /* \"sosh/SST.sol\":587:594  1 ether */\n      0x0de0b6b3a7640000\n        /* \"sosh/SST.sol\":550:584  MINT_PRICE_PER_TOKEN * tokenAmount */\n      tag_182\n        /* \"sosh/SST.sol\":573:584  tokenAmount */\n      dup4\n        /* \"sosh/SST.sol\":264:279  675000000000000 */\n      0x0265e8af393000\n        /* \"sosh/SST.sol\":550:584  MINT_PRICE_PER_TOKEN * tokenAmount */\n      tag_142\n      jump\t// in\n    tag_182:\n        /* \"sosh/SST.sol\":550:594  MINT_PRICE_PER_TOKEN * tokenAmount / 1 ether */\n      tag_183\n      swap2\n      swap1\n      tag_144\n      jump\t// in\n    tag_183:\n        /* \"sosh/SST.sol\":537:546  msg.value */\n      callvalue\n        /* \"sosh/SST.sol\":537:594  msg.value >= MINT_PRICE_PER_TOKEN * tokenAmount / 1 ether */\n      lt\n      iszero\n        /* \"sosh/SST.sol\":529:620  require(msg.value >= MINT_PRICE_PER_TOKEN * tokenAmount / 1 ether, \"Insufficient ETH sent\") */\n      tag_184\n      jumpi\n      mload(0x40)\n      shl(0xe5, 0x461bcd)\n      dup2\n      mstore\n        /* \"#utility.yul\":4067:4069   */\n      0x20\n        /* \"sosh/SST.sol\":529:620  require(msg.value >= MINT_PRICE_PER_TOKEN * tokenAmount / 1 ether, \"Insufficient ETH sent\") */\n      0x04\n      dup3\n      add\n        /* \"#utility.yul\":4049:4070   */\n      mstore\n        /* \"#utility.yul\":4106:4108   */\n      0x15\n        /* \"#utility.yul\":4086:4104   */\n      0x24\n      dup3\n      add\n        /* \"#utility.yul\":4079:4109   */\n      mstore\n      shl(0x5a, 0x125b9cdd59999a58da595b9d08115512081cd95b9d)\n        /* \"#utility.yul\":4125:4143   */\n      0x44\n      dup3\n      add\n        /* \"#utility.yul\":4118:4169   */\n      mstore\n        /* \"#utility.yul\":4186:4204   */\n      0x64\n      add\n        /* \"sosh/SST.sol\":529:620  require(msg.value >= MINT_PRICE_PER_TOKEN * tokenAmount / 1 ether, \"Insufficient ETH sent\") */\n      tag_149\n        /* \"#utility.yul\":3865:4210   */\n      jump\n        /* \"sosh/SST.sol\":529:620  require(msg.value >= MINT_PRICE_PER_TOKEN * tokenAmount / 1 ether, \"Insufficient ETH sent\") */\n    tag_184:\n        /* \"sosh/SST.sol\":631:659  _mint(aAWallet, tokenAmount) */\n      tag_186\n        /* \"sosh/SST.sol\":637:645  aAWallet */\n      dup2\n        /* \"sosh/SST.sol\":647:658  tokenAmount */\n      dup4\n        /* \"sosh/SST.sol\":631:636  _mint */\n      tag_152\n        /* \"sosh/SST.sol\":631:659  _mint(aAWallet, tokenAmount) */\n      jump\t// in\n    tag_186:\n        /* \"sosh/SST.sol\":739:773  MINT_PRICE_PER_TOKEN * tokenAmount */\n      tag_187\n        /* \"sosh/SST.sol\":762:773  tokenAmount */\n      dup3\n        /* \"sosh/SST.sol\":264:279  675000000000000 */\n      0x0265e8af393000\n        /* \"sosh/SST.sol\":739:773  MINT_PRICE_PER_TOKEN * tokenAmount */\n      tag_142\n      jump\t// in\n    tag_187:\n        /* \"sosh/SST.sol\":727:736  msg.value */\n      callvalue\n        /* \"sosh/SST.sol\":727:773  msg.value > MINT_PRICE_PER_TOKEN * tokenAmount */\n      gt\n        /* \"sosh/SST.sol\":723:876  if (msg.value > MINT_PRICE_PER_TOKEN * tokenAmount) {... */\n      iszero\n      tag_188\n      jumpi\n        /* \"sosh/SST.sol\":797:807  msg.sender */\n      caller\n        /* \"sosh/SST.sol\":789:865  payable(msg.sender).transfer(msg.value - MINT_PRICE_PER_TOKEN * tokenAmount) */\n      0x08fc\n        /* \"sosh/SST.sol\":830:864  MINT_PRICE_PER_TOKEN * tokenAmount */\n      tag_189\n        /* \"sosh/SST.sol\":853:864  tokenAmount */\n      dup5\n        /* \"sosh/SST.sol\":264:279  675000000000000 */\n      0x0265e8af393000\n        /* \"sosh/SST.sol\":830:864  MINT_PRICE_PER_TOKEN * tokenAmount */\n      tag_142\n      jump\t// in\n    tag_189:\n        /* \"sosh/SST.sol\":818:864  msg.value - MINT_PRICE_PER_TOKEN * tokenAmount */\n      tag_190\n      swap1\n        /* \"sosh/SST.sol\":818:827  msg.value */\n      callvalue\n        /* \"sosh/SST.sol\":818:864  msg.value - MINT_PRICE_PER_TOKEN * tokenAmount */\n      tag_164\n      jump\t// in\n    tag_190:\n        /* \"sosh/SST.sol\":789:865  payable(msg.sender).transfer(msg.value - MINT_PRICE_PER_TOKEN * tokenAmount) */\n      mload(0x40)\n      dup2\n      iszero\n      swap1\n      swap3\n      mul\n      swap2\n      0x00\n      dup2\n      dup2\n      dup2\n      dup6\n      dup9\n      dup9\n      call\n      swap4\n      pop\n      pop\n      pop\n      pop\n      iszero\n      dup1\n      iszero\n      tag_192\n      jumpi\n      returndatasize\n      0x00\n      dup1\n      returndatacopy\n      revert(0x00, returndatasize)\n    tag_192:\n      pop\n        /* \"sosh/SST.sol\":723:876  if (msg.value > MINT_PRICE_PER_TOKEN * tokenAmount) {... */\n    tag_188:\n        /* \"sosh/SST.sol\":451:882  function mint(uint256 tokenAmount, address aAWallet) public payable {... */\n      pop\n      pop\n      jump\t// out\n        /* \"@openzeppelin/contracts@4.7.0/token/ERC20/ERC20.sol\":2367:2469  function symbol() public view virtual override returns (string memory) {... */\n    tag_88:\n        /* \"@openzeppelin/contracts@4.7.0/token/ERC20/ERC20.sol\":2423:2436  string memory */\n      0x60\n        /* \"@openzeppelin/contracts@4.7.0/token/ERC20/ERC20.sol\":2455:2462  _symbol */\n      0x04\n        /* \"@openzeppelin/contracts@4.7.0/token/ERC20/ERC20.sol\":2448:2462  return _symbol */\n      dup1\n      sload\n      tag_115\n      swap1\n      tag_116\n      jump\t// in\n        /* \"@openzeppelin/contracts@4.7.0/token/ERC20/ERC20.sol\":6594:7021  function decreaseAllowance(address spender, uint256 subtractedValue) public virtual returns (bool) {... */\n    tag_93:\n        /* \"@openzeppelin/contracts@4.7.0/token/ERC20/ERC20.sol\":6687:6691  bool */\n      0x00\n        /* \"@openzeppelin/contracts@4.7.0/utils/Context.sol\":719:729  msg.sender */\n      caller\n        /* \"@openzeppelin/contracts@4.7.0/token/ERC20/ERC20.sol\":6687:6691  bool */\n      dup2\n        /* \"@openzeppelin/contracts@4.7.0/token/ERC20/ERC20.sol\":6768:6793  allowance(owner, spender) */\n      tag_201\n        /* \"@openzeppelin/contracts@4.7.0/utils/Context.sol\":719:729  msg.sender */\n      dup3\n        /* \"@openzeppelin/contracts@4.7.0/token/ERC20/ERC20.sol\":6785:6792  spender */\n      dup7\n        /* \"@openzeppelin/contracts@4.7.0/token/ERC20/ERC20.sol\":6768:6777  allowance */\n      tag_104\n        /* \"@openzeppelin/contracts@4.7.0/token/ERC20/ERC20.sol\":6768:6793  allowance(owner, spender) */\n      jump\t// in\n    tag_201:\n        /* \"@openzeppelin/contracts@4.7.0/token/ERC20/ERC20.sol\":6741:6793  uint256 currentAllowance = allowance(owner, spender) */\n      swap1\n      pop\n        /* \"@openzeppelin/contracts@4.7.0/token/ERC20/ERC20.sol\":6831:6846  subtractedValue */\n      dup4\n        /* \"@openzeppelin/contracts@4.7.0/token/ERC20/ERC20.sol\":6811:6827  currentAllowance */\n      dup2\n        /* \"@openzeppelin/contracts@4.7.0/token/ERC20/ERC20.sol\":6811:6846  currentAllowance >= subtractedValue */\n      lt\n      iszero\n        /* \"@openzeppelin/contracts@4.7.0/token/ERC20/ERC20.sol\":6803:6888  require(currentAllowance >= subtractedValue, \"ERC20: decreased allowance below zero\") */\n      tag_202\n      jumpi\n      mload(0x40)\n      shl(0xe5, 0x461bcd)\n      dup2\n      mstore\n        /* \"#utility.yul\":5460:5462   */\n      0x20\n        /* \"@openzeppelin/contracts@4.7.0/token/ERC20/ERC20.sol\":6803:6888  require(currentAllowance >= subtractedValue, \"ERC20: decreased allowance below zero\") */\n      0x04\n      dup3\n      add\n        /* \"#utility.yul\":5442:5463   */\n      mstore\n        /* \"#utility.yul\":5499:5501   */\n      0x25\n        /* \"#utility.yul\":5479:5497   */\n      0x24\n      dup3\n      add\n        /* \"#utility.yul\":5472:5502   */\n      mstore\n        /* \"#utility.yul\":5538:5572   */\n      0x45524332303a2064656372656173656420616c6c6f77616e63652062656c6f77\n        /* \"#utility.yul\":5518:5536   */\n      0x44\n      dup3\n      add\n        /* \"#utility.yul\":5511:5573   */\n      mstore\n      shl(0xd8, 0x207a65726f)\n        /* \"#utility.yul\":5589:5607   */\n      0x64\n      dup3\n      add\n        /* \"#utility.yul\":5582:5617   */\n      mstore\n        /* \"#utility.yul\":5634:5653   */\n      0x84\n      add\n        /* \"@openzeppelin/contracts@4.7.0/token/ERC20/ERC20.sol\":6803:6888  require(currentAllowance >= subtractedValue, \"ERC20: decreased allowance below zero\") */\n      tag_149\n        /* \"#utility.yul\":5258:5659   */\n      jump\n        /* \"@openzeppelin/contracts@4.7.0/token/ERC20/ERC20.sol\":6803:6888  require(currentAllowance >= subtractedValue, \"ERC20: decreased allowance below zero\") */\n    tag_202:\n        /* \"@openzeppelin/contracts@4.7.0/token/ERC20/ERC20.sol\":6922:6982  _approve(owner, spender, currentAllowance - subtractedValue) */\n      tag_131\n        /* \"@openzeppelin/contracts@4.7.0/token/ERC20/ERC20.sol\":6931:6936  owner */\n      dup3\n        /* \"@openzeppelin/contracts@4.7.0/token/ERC20/ERC20.sol\":6938:6945  spender */\n      dup7\n        /* \"@openzeppelin/contracts@4.7.0/token/ERC20/ERC20.sol\":6966:6981  subtractedValue */\n      dup7\n        /* \"@openzeppelin/contracts@4.7.0/token/ERC20/ERC20.sol\":6947:6963  currentAllowance */\n      dup5\n        /* \"@openzeppelin/contracts@4.7.0/token/ERC20/ERC20.sol\":6947:6981  currentAllowance - subtractedValue */\n      sub\n        /* \"@openzeppelin/contracts@4.7.0/token/ERC20/ERC20.sol\":6922:6930  _approve */\n      tag_125\n        /* \"@openzeppelin/contracts@4.7.0/token/ERC20/ERC20.sol\":6922:6982  _approve(owner, spender, currentAllowance - subtractedValue) */\n      jump\t// in\n        /* \"@openzeppelin/contracts@4.7.0/token/ERC20/ERC20.sol\":3729:3918  function transfer(address to, uint256 amount) public virtual override returns (bool) {... */\n    tag_98:\n        /* \"@openzeppelin/contracts@4.7.0/token/ERC20/ERC20.sol\":3808:3812  bool */\n      0x00\n        /* \"@openzeppelin/contracts@4.7.0/utils/Context.sol\":719:729  msg.sender */\n      caller\n        /* \"@openzeppelin/contracts@4.7.0/token/ERC20/ERC20.sol\":3862:3890  _transfer(owner, to, amount) */\n      tag_124\n        /* \"@openzeppelin/contracts@4.7.0/utils/Context.sol\":719:729  msg.sender */\n      dup2\n        /* \"@openzeppelin/contracts@4.7.0/token/ERC20/ERC20.sol\":3879:3881  to */\n      dup6\n        /* \"@openzeppelin/contracts@4.7.0/token/ERC20/ERC20.sol\":3883:3889  amount */\n      dup6\n        /* \"@openzeppelin/contracts@4.7.0/token/ERC20/ERC20.sol\":3862:3871  _transfer */\n      tag_132\n        /* \"@openzeppelin/contracts@4.7.0/token/ERC20/ERC20.sol\":3862:3890  _transfer(owner, to, amount) */\n      jump\t// in\n        /* \"@openzeppelin/contracts@4.7.0/token/ERC20/ERC20.sol\":3976:4125  function allowance(address owner, address spender) public view virtual override returns (uint256) {... */\n    tag_104:\n      sub(shl(0xa0, 0x01), 0x01)\n        /* \"@openzeppelin/contracts@4.7.0/token/ERC20/ERC20.sol\":4091:4109  _allowances[owner] */\n      swap2\n      dup3\n      and\n        /* \"@openzeppelin/contracts@4.7.0/token/ERC20/ERC20.sol\":4065:4072  uint256 */\n      0x00\n        /* \"@openzeppelin/contracts@4.7.0/token/ERC20/ERC20.sol\":4091:4109  _allowances[owner] */\n      swap1\n      dup2\n      mstore\n        /* \"@openzeppelin/contracts@4.7.0/token/ERC20/ERC20.sol\":4091:4102  _allowances */\n      0x01\n        /* \"@openzeppelin/contracts@4.7.0/token/ERC20/ERC20.sol\":4091:4109  _allowances[owner] */\n      0x20\n      swap1\n      dup2\n      mstore\n      0x40\n      dup1\n      dup4\n      keccak256\n        /* \"@openzeppelin/contracts@4.7.0/token/ERC20/ERC20.sol\":4091:4118  _allowances[owner][spender] */\n      swap4\n      swap1\n      swap5\n      and\n      dup3\n      mstore\n      swap2\n      swap1\n      swap2\n      mstore\n      keccak256\n      sload\n      swap1\n        /* \"@openzeppelin/contracts@4.7.0/token/ERC20/ERC20.sol\":3976:4125  function allowance(address owner, address spender) public view virtual override returns (uint256) {... */\n      jump\t// out\n        /* \"@openzeppelin/contracts@4.7.0/access/Ownable.sol\":2081:2279  function transferOwnership(address newOwner) public virtual onlyOwner {... */\n    tag_109:\n        /* \"@openzeppelin/contracts@4.7.0/access/Ownable.sol\":1094:1107  _checkOwner() */\n      tag_211\n        /* \"@openzeppelin/contracts@4.7.0/access/Ownable.sol\":1094:1105  _checkOwner */\n      tag_176\n        /* \"@openzeppelin/contracts@4.7.0/access/Ownable.sol\":1094:1107  _checkOwner() */\n      jump\t// in\n    tag_211:\n      sub(shl(0xa0, 0x01), 0x01)\n        /* \"@openzeppelin/contracts@4.7.0/access/Ownable.sol\":2169:2191  newOwner != address(0) */\n      dup2\n      and\n        /* \"@openzeppelin/contracts@4.7.0/access/Ownable.sol\":2161:2234  require(newOwner != address(0), \"Ownable: new owner is the zero address\") */\n      tag_213\n      jumpi\n      mload(0x40)\n      shl(0xe5, 0x461bcd)\n      dup2\n      mstore\n        /* \"#utility.yul\":5866:5868   */\n      0x20\n        /* \"@openzeppelin/contracts@4.7.0/access/Ownable.sol\":2161:2234  require(newOwner != address(0), \"Ownable: new owner is the zero address\") */\n      0x04\n      dup3\n      add\n        /* \"#utility.yul\":5848:5869   */\n      mstore\n        /* \"#utility.yul\":5905:5907   */\n      0x26\n        /* \"#utility.yul\":5885:5903   */\n      0x24\n      dup3\n      add\n        /* \"#utility.yul\":5878:5908   */\n      mstore\n        /* \"#utility.yul\":5944:5978   */\n      0x4f776e61626c653a206e6577206f776e657220697320746865207a65726f2061\n        /* \"#utility.yul\":5924:5942   */\n      0x44\n      dup3\n      add\n        /* \"#utility.yul\":5917:5979   */\n      mstore\n      shl(0xd0, 0x646472657373)\n        /* \"#utility.yul\":5995:6013   */\n      0x64\n      dup3\n      add\n        /* \"#utility.yul\":5988:6024   */\n      mstore\n        /* \"#utility.yul\":6041:6060   */\n      0x84\n      add\n        /* \"@openzeppelin/contracts@4.7.0/access/Ownable.sol\":2161:2234  require(newOwner != address(0), \"Ownable: new owner is the zero address\") */\n      tag_149\n        /* \"#utility.yul\":5664:6066   */\n      jump\n        /* \"@openzeppelin/contracts@4.7.0/access/Ownable.sol\":2161:2234  require(newOwner != address(0), \"Ownable: new owner is the zero address\") */\n    tag_213:\n        /* \"@openzeppelin/contracts@4.7.0/access/Ownable.sol\":2244:2272  _transferOwnership(newOwner) */\n      tag_216\n        /* \"@openzeppelin/contracts@4.7.0/access/Ownable.sol\":2263:2271  newOwner */\n      dup2\n        /* \"@openzeppelin/contracts@4.7.0/access/Ownable.sol\":2244:2262  _transferOwnership */\n      tag_179\n        /* \"@openzeppelin/contracts@4.7.0/access/Ownable.sol\":2244:2272  _transferOwnership(newOwner) */\n      jump\t// in\n    tag_216:\n        /* \"@openzeppelin/contracts@4.7.0/access/Ownable.sol\":2081:2279  function transferOwnership(address newOwner) public virtual onlyOwner {... */\n      pop\n      jump\t// out\n        /* \"sosh/SST.sol\":1824:2283  function burn(uint256 amount, address destinationAddress) public {... */\n    tag_113:\n        /* \"sosh/SST.sol\":1917:1927  msg.sender */\n      caller\n        /* \"@openzeppelin/contracts@4.7.0/token/ERC20/ERC20.sol\":3482:3489  uint256 */\n      0x00\n        /* \"@openzeppelin/contracts@4.7.0/token/ERC20/ERC20.sol\":3508:3526  _balances[account] */\n      swap1\n      dup2\n      mstore\n      0x20\n      dup2\n      swap1\n      mstore\n      0x40\n      swap1\n      keccak256\n      sload\n        /* \"sosh/SST.sol\":1932:1938  amount */\n      dup3\n      gt\n        /* \"sosh/SST.sol\":1907:1938  balanceOf(msg.sender) >= amount */\n      iszero\n        /* \"sosh/SST.sol\":1899:1974  require(balanceOf(msg.sender) >= amount, \"Insufficient SST tokens to burn\") */\n      tag_219\n      jumpi\n      mload(0x40)\n      shl(0xe5, 0x461bcd)\n      dup2\n      mstore\n        /* \"#utility.yul\":6273:6275   */\n      0x20\n        /* \"sosh/SST.sol\":1899:1974  require(balanceOf(msg.sender) >= amount, \"Insufficient SST tokens to burn\") */\n      0x04\n      dup3\n      add\n        /* \"#utility.yul\":6255:6276   */\n      mstore\n        /* \"#utility.yul\":6312:6314   */\n      0x1f\n        /* \"#utility.yul\":6292:6310   */\n      0x24\n      dup3\n      add\n        /* \"#utility.yul\":6285:6315   */\n      mstore\n        /* \"#utility.yul\":6351:6384   */\n      0x496e73756666696369656e742053535420746f6b656e7320746f206275726e00\n        /* \"#utility.yul\":6331:6349   */\n      0x44\n      dup3\n      add\n        /* \"#utility.yul\":6324:6385   */\n      mstore\n        /* \"#utility.yul\":6402:6420   */\n      0x64\n      add\n        /* \"sosh/SST.sol\":1899:1974  require(balanceOf(msg.sender) >= amount, \"Insufficient SST tokens to burn\") */\n      tag_149\n        /* \"#utility.yul\":6071:6426   */\n      jump\n        /* \"sosh/SST.sol\":1899:1974  require(balanceOf(msg.sender) >= amount, \"Insufficient SST tokens to burn\") */\n    tag_219:\n        /* \"sosh/SST.sol\":1984:2009  _burn(msg.sender, amount) */\n      tag_222\n        /* \"sosh/SST.sol\":1990:2000  msg.sender */\n      caller\n        /* \"sosh/SST.sol\":2002:2008  amount */\n      dup4\n        /* \"sosh/SST.sol\":1984:1989  _burn */\n      tag_223\n        /* \"sosh/SST.sol\":1984:2009  _burn(msg.sender, amount) */\n      jump\t// in\n    tag_222:\n        /* \"sosh/SST.sol\":2020:2037  uint256 ethAmount */\n      0x00\n        /* \"sosh/SST.sol\":2040:2069  amount * MINT_PRICE_PER_TOKEN */\n      tag_224\n        /* \"sosh/SST.sol\":264:279  675000000000000 */\n      0x0265e8af393000\n        /* \"sosh/SST.sol\":2040:2046  amount */\n      dup5\n        /* \"sosh/SST.sol\":2040:2069  amount * MINT_PRICE_PER_TOKEN */\n      tag_142\n      jump\t// in\n    tag_224:\n        /* \"sosh/SST.sol\":2020:2069  uint256 ethAmount = amount * MINT_PRICE_PER_TOKEN */\n      swap1\n      pop\n        /* \"sosh/SST.sol\":2112:2121  ethAmount */\n      dup1\n        /* \"sosh/SST.sol\":2087:2108  address(this).balance */\n      selfbalance\n        /* \"sosh/SST.sol\":2087:2121  address(this).balance >= ethAmount */\n      lt\n      iszero\n        /* \"sosh/SST.sol\":2079:2159  require(address(this).balance >= ethAmount, \"Contract does not have enough ETH\") */\n      tag_225\n      jumpi\n      mload(0x40)\n      shl(0xe5, 0x461bcd)\n      dup2\n      mstore\n        /* \"#utility.yul\":6633:6635   */\n      0x20\n        /* \"sosh/SST.sol\":2079:2159  require(address(this).balance >= ethAmount, \"Contract does not have enough ETH\") */\n      0x04\n      dup3\n      add\n        /* \"#utility.yul\":6615:6636   */\n      mstore\n        /* \"#utility.yul\":6672:6674   */\n      0x21\n        /* \"#utility.yul\":6652:6670   */\n      0x24\n      dup3\n      add\n        /* \"#utility.yul\":6645:6675   */\n      mstore\n        /* \"#utility.yul\":6711:6745   */\n      0x436f6e747261637420646f6573206e6f74206861766520656e6f756768204554\n        /* \"#utility.yul\":6691:6709   */\n      0x44\n      dup3\n      add\n        /* \"#utility.yul\":6684:6746   */\n      mstore\n      shl(0xfb, 0x09)\n        /* \"#utility.yul\":6762:6780   */\n      0x64\n      dup3\n      add\n        /* \"#utility.yul\":6755:6786   */\n      mstore\n        /* \"#utility.yul\":6803:6822   */\n      0x84\n      add\n        /* \"sosh/SST.sol\":2079:2159  require(address(this).balance >= ethAmount, \"Contract does not have enough ETH\") */\n      tag_149\n        /* \"#utility.yul\":6431:6828   */\n      jump\n        /* \"sosh/SST.sol\":2079:2159  require(address(this).balance >= ethAmount, \"Contract does not have enough ETH\") */\n    tag_225:\n        /* \"sosh/SST.sol\":2171:2180  bool sent */\n      0x00\n        /* \"sosh/SST.sol\":2186:2204  destinationAddress */\n      dup3\n      sub(shl(0xa0, 0x01), 0x01)\n        /* \"sosh/SST.sol\":2186:2209  destinationAddress.call */\n      and\n        /* \"sosh/SST.sol\":2217:2226  ethAmount */\n      dup3\n        /* \"sosh/SST.sol\":2186:2231  destinationAddress.call{value: ethAmount}(\"\") */\n      mload(0x40)\n      0x00\n      mload(0x40)\n      dup1\n      dup4\n      sub\n      dup2\n      dup6\n      dup8\n      gas\n      call\n      swap3\n      pop\n      pop\n      pop\n      returndatasize\n      dup1\n      0x00\n      dup2\n      eq\n      tag_231\n      jumpi\n      mload(0x40)\n      swap2\n      pop\n      and(add(returndatasize, 0x3f), not(0x1f))\n      dup3\n      add\n      0x40\n      mstore\n      returndatasize\n      dup3\n      mstore\n      returndatasize\n      0x00\n      0x20\n      dup5\n      add\n      returndatacopy\n      jump(tag_230)\n    tag_231:\n      0x60\n      swap2\n      pop\n    tag_230:\n      pop\n        /* \"sosh/SST.sol\":2170:2231  (bool sent, ) = destinationAddress.call{value: ethAmount}(\"\") */\n      pop\n      swap1\n      pop\n        /* \"sosh/SST.sol\":2249:2253  sent */\n      dup1\n        /* \"sosh/SST.sol\":2241:2276  require(sent, \"Failed to send ETH\") */\n      tag_232\n      jumpi\n      mload(0x40)\n      shl(0xe5, 0x461bcd)\n      dup2\n      mstore\n        /* \"#utility.yul\":7035:7037   */\n      0x20\n        /* \"sosh/SST.sol\":2241:2276  require(sent, \"Failed to send ETH\") */\n      0x04\n      dup3\n      add\n        /* \"#utility.yul\":7017:7038   */\n      mstore\n        /* \"#utility.yul\":7074:7076   */\n      0x12\n        /* \"#utility.yul\":7054:7072   */\n      0x24\n      dup3\n      add\n        /* \"#utility.yul\":7047:7077   */\n      mstore\n      shl(0x73, 0x08cc2d2d8cac840e8de40e6cadcc8408aa89)\n        /* \"#utility.yul\":7093:7111   */\n      0x44\n      dup3\n      add\n        /* \"#utility.yul\":7086:7134   */\n      mstore\n        /* \"#utility.yul\":7151:7169   */\n      0x64\n      add\n        /* \"sosh/SST.sol\":2241:2276  require(sent, \"Failed to send ETH\") */\n      tag_149\n        /* \"#utility.yul\":6833:7175   */\n      jump\n        /* \"sosh/SST.sol\":2241:2276  require(sent, \"Failed to send ETH\") */\n    tag_232:\n        /* \"sosh/SST.sol\":1889:2283  {... */\n      pop\n      pop\n        /* \"sosh/SST.sol\":1824:2283  function burn(uint256 amount, address destinationAddress) public {... */\n      pop\n      pop\n      jump\t// out\n        /* \"@openzeppelin/contracts@4.7.0/token/ERC20/ERC20.sol\":10110:10480  function _approve(... */\n    tag_125:\n      sub(shl(0xa0, 0x01), 0x01)\n        /* \"@openzeppelin/contracts@4.7.0/token/ERC20/ERC20.sol\":10241:10260  owner != address(0) */\n      dup4\n      and\n        /* \"@openzeppelin/contracts@4.7.0/token/ERC20/ERC20.sol\":10233:10301  require(owner != address(0), \"ERC20: approve from the zero address\") */\n      tag_237\n      jumpi\n      mload(0x40)\n      shl(0xe5, 0x461bcd)\n      dup2\n      mstore\n        /* \"#utility.yul\":7382:7384   */\n      0x20\n        /* \"@openzeppelin/contracts@4.7.0/token/ERC20/ERC20.sol\":10233:10301  require(owner != address(0), \"ERC20: approve from the zero address\") */\n      0x04\n      dup3\n      add\n        /* \"#utility.yul\":7364:7385   */\n      mstore\n        /* \"#utility.yul\":7421:7423   */\n      0x24\n        /* \"#utility.yul\":7401:7419   */\n      dup1\n      dup3\n      add\n        /* \"#utility.yul\":7394:7424   */\n      mstore\n        /* \"#utility.yul\":7460:7494   */\n      0x45524332303a20617070726f76652066726f6d20746865207a65726f20616464\n        /* \"#utility.yul\":7440:7458   */\n      0x44\n      dup3\n      add\n        /* \"#utility.yul\":7433:7495   */\n      mstore\n      shl(0xe0, 0x72657373)\n        /* \"#utility.yul\":7511:7529   */\n      0x64\n      dup3\n      add\n        /* \"#utility.yul\":7504:7538   */\n      mstore\n        /* \"#utility.yul\":7555:7574   */\n      0x84\n      add\n        /* \"@openzeppelin/contracts@4.7.0/token/ERC20/ERC20.sol\":10233:10301  require(owner != address(0), \"ERC20: approve from the zero address\") */\n      tag_149\n        /* \"#utility.yul\":7180:7580   */\n      jump\n        /* \"@openzeppelin/contracts@4.7.0/token/ERC20/ERC20.sol\":10233:10301  require(owner != address(0), \"ERC20: approve from the zero address\") */\n    tag_237:\n      sub(shl(0xa0, 0x01), 0x01)\n        /* \"@openzeppelin/contracts@4.7.0/token/ERC20/ERC20.sol\":10319:10340  spender != address(0) */\n      dup3\n      and\n        /* \"@openzeppelin/contracts@4.7.0/token/ERC20/ERC20.sol\":10311:10379  require(spender != address(0), \"ERC20: approve to the zero address\") */\n      tag_240\n      jumpi\n      mload(0x40)\n      shl(0xe5, 0x461bcd)\n      dup2\n      mstore\n        /* \"#utility.yul\":7787:7789   */\n      0x20\n        /* \"@openzeppelin/contracts@4.7.0/token/ERC20/ERC20.sol\":10311:10379  require(spender != address(0), \"ERC20: approve to the zero address\") */\n      0x04\n      dup3\n      add\n        /* \"#utility.yul\":7769:7790   */\n      mstore\n        /* \"#utility.yul\":7826:7828   */\n      0x22\n        /* \"#utility.yul\":7806:7824   */\n      0x24\n      dup3\n      add\n        /* \"#utility.yul\":7799:7829   */\n      mstore\n        /* \"#utility.yul\":7865:7899   */\n      0x45524332303a20617070726f766520746f20746865207a65726f206164647265\n        /* \"#utility.yul\":7845:7863   */\n      0x44\n      dup3\n      add\n        /* \"#utility.yul\":7838:7900   */\n      mstore\n      shl(0xf0, 0x7373)\n        /* \"#utility.yul\":7916:7934   */\n      0x64\n      dup3\n      add\n        /* \"#utility.yul\":7909:7941   */\n      mstore\n        /* \"#utility.yul\":7958:7977   */\n      0x84\n      add\n        /* \"@openzeppelin/contracts@4.7.0/token/ERC20/ERC20.sol\":10311:10379  require(spender != address(0), \"ERC20: approve to the zero address\") */\n      tag_149\n        /* \"#utility.yul\":7585:7983   */\n      jump\n        /* \"@openzeppelin/contracts@4.7.0/token/ERC20/ERC20.sol\":10311:10379  require(spender != address(0), \"ERC20: approve to the zero address\") */\n    tag_240:\n      sub(shl(0xa0, 0x01), 0x01)\n        /* \"@openzeppelin/contracts@4.7.0/token/ERC20/ERC20.sol\":10390:10408  _allowances[owner] */\n      dup4\n      dup2\n      and\n      0x00\n      dup2\n      dup2\n      mstore\n        /* \"@openzeppelin/contracts@4.7.0/token/ERC20/ERC20.sol\":10390:10401  _allowances */\n      0x01\n        /* \"@openzeppelin/contracts@4.7.0/token/ERC20/ERC20.sol\":10390:10408  _allowances[owner] */\n      0x20\n      swap1\n      dup2\n      mstore\n      0x40\n      dup1\n      dup4\n      keccak256\n        /* \"@openzeppelin/contracts@4.7.0/token/ERC20/ERC20.sol\":10390:10417  _allowances[owner][spender] */\n      swap5\n      dup8\n      and\n      dup1\n      dup5\n      mstore\n      swap5\n      dup3\n      mstore\n      swap2\n      dup3\n      swap1\n      keccak256\n        /* \"@openzeppelin/contracts@4.7.0/token/ERC20/ERC20.sol\":10390:10426  _allowances[owner][spender] = amount */\n      dup6\n      swap1\n      sstore\n        /* \"@openzeppelin/contracts@4.7.0/token/ERC20/ERC20.sol\":10441:10473  Approval(owner, spender, amount) */\n      swap1\n      mload\n        /* \"#utility.yul\":713:738   */\n      dup5\n      dup2\n      mstore\n        /* \"@openzeppelin/contracts@4.7.0/token/ERC20/ERC20.sol\":10441:10473  Approval(owner, spender, amount) */\n      0x8c5be1e5ebec7d5bd14f71427d1e84f3dd0314c0f7b2291e5b200ac8c7c3b925\n      swap2\n        /* \"#utility.yul\":686:704   */\n      add\n        /* \"@openzeppelin/contracts@4.7.0/token/ERC20/ERC20.sol\":10441:10473  Approval(owner, spender, amount) */\n      mload(0x40)\n      dup1\n      swap2\n      sub\n      swap1\n      log3\n        /* \"@openzeppelin/contracts@4.7.0/token/ERC20/ERC20.sol\":10110:10480  function _approve(... */\n      pop\n      pop\n      pop\n      jump\t// out\n        /* \"@openzeppelin/contracts@4.7.0/token/ERC20/ERC20.sol\":10761:11202  function _spendAllowance(... */\n    tag_130:\n        /* \"@openzeppelin/contracts@4.7.0/token/ERC20/ERC20.sol\":10891:10915  uint256 currentAllowance */\n      0x00\n        /* \"@openzeppelin/contracts@4.7.0/token/ERC20/ERC20.sol\":10918:10943  allowance(owner, spender) */\n      tag_245\n        /* \"@openzeppelin/contracts@4.7.0/token/ERC20/ERC20.sol\":10928:10933  owner */\n      dup5\n        /* \"@openzeppelin/contracts@4.7.0/token/ERC20/ERC20.sol\":10935:10942  spender */\n      dup5\n        /* \"@openzeppelin/contracts@4.7.0/token/ERC20/ERC20.sol\":10918:10927  allowance */\n      tag_104\n        /* \"@openzeppelin/contracts@4.7.0/token/ERC20/ERC20.sol\":10918:10943  allowance(owner, spender) */\n      jump\t// in\n    tag_245:\n        /* \"@openzeppelin/contracts@4.7.0/token/ERC20/ERC20.sol\":10891:10943  uint256 currentAllowance = allowance(owner, spender) */\n      swap1\n      pop\n      not(0x00)\n        /* \"@openzeppelin/contracts@4.7.0/token/ERC20/ERC20.sol\":10957:10973  currentAllowance */\n      dup2\n        /* \"@openzeppelin/contracts@4.7.0/token/ERC20/ERC20.sol\":10957:10994  currentAllowance != type(uint256).max */\n      eq\n        /* \"@openzeppelin/contracts@4.7.0/token/ERC20/ERC20.sol\":10953:11196  if (currentAllowance != type(uint256).max) {... */\n      tag_232\n      jumpi\n        /* \"@openzeppelin/contracts@4.7.0/token/ERC20/ERC20.sol\":11038:11044  amount */\n      dup2\n        /* \"@openzeppelin/contracts@4.7.0/token/ERC20/ERC20.sol\":11018:11034  currentAllowance */\n      dup2\n        /* \"@openzeppelin/contracts@4.7.0/token/ERC20/ERC20.sol\":11018:11044  currentAllowance >= amount */\n      lt\n      iszero\n        /* \"@openzeppelin/contracts@4.7.0/token/ERC20/ERC20.sol\":11010:11078  require(currentAllowance >= amount, \"ERC20: insufficient allowance\") */\n      tag_247\n      jumpi\n      mload(0x40)\n      shl(0xe5, 0x461bcd)\n      dup2\n      mstore\n        /* \"#utility.yul\":8190:8192   */\n      0x20\n        /* \"@openzeppelin/contracts@4.7.0/token/ERC20/ERC20.sol\":11010:11078  require(currentAllowance >= amount, \"ERC20: insufficient allowance\") */\n      0x04\n      dup3\n      add\n        /* \"#utility.yul\":8172:8193   */\n      mstore\n        /* \"#utility.yul\":8229:8231   */\n      0x1d\n        /* \"#utility.yul\":8209:8227   */\n      0x24\n      dup3\n      add\n        /* \"#utility.yul\":8202:8232   */\n      mstore\n        /* \"#utility.yul\":8268:8299   */\n      0x45524332303a20696e73756666696369656e7420616c6c6f77616e6365000000\n        /* \"#utility.yul\":8248:8266   */\n      0x44\n      dup3\n      add\n        /* \"#utility.yul\":8241:8300   */\n      mstore\n        /* \"#utility.yul\":8317:8335   */\n      0x64\n      add\n        /* \"@openzeppelin/contracts@4.7.0/token/ERC20/ERC20.sol\":11010:11078  require(currentAllowance >= amount, \"ERC20: insufficient allowance\") */\n      tag_149\n        /* \"#utility.yul\":7988:8341   */\n      jump\n        /* \"@openzeppelin/contracts@4.7.0/token/ERC20/ERC20.sol\":11010:11078  require(currentAllowance >= amount, \"ERC20: insufficient allowance\") */\n    tag_247:\n        /* \"@openzeppelin/contracts@4.7.0/token/ERC20/ERC20.sol\":11120:11171  _approve(owner, spender, currentAllowance - amount) */\n      tag_232\n        /* \"@openzeppelin/contracts@4.7.0/token/ERC20/ERC20.sol\":11129:11134  owner */\n      dup5\n        /* \"@openzeppelin/contracts@4.7.0/token/ERC20/ERC20.sol\":11136:11143  spender */\n      dup5\n        /* \"@openzeppelin/contracts@4.7.0/token/ERC20/ERC20.sol\":11164:11170  amount */\n      dup5\n        /* \"@openzeppelin/contracts@4.7.0/token/ERC20/ERC20.sol\":11145:11161  currentAllowance */\n      dup5\n        /* \"@openzeppelin/contracts@4.7.0/token/ERC20/ERC20.sol\":11145:11170  currentAllowance - amount */\n      sub\n        /* \"@openzeppelin/contracts@4.7.0/token/ERC20/ERC20.sol\":11120:11128  _approve */\n      tag_125\n        /* \"@openzeppelin/contracts@4.7.0/token/ERC20/ERC20.sol\":11120:11171  _approve(owner, spender, currentAllowance - amount) */\n      jump\t// in\n        /* \"@openzeppelin/contracts@4.7.0/token/ERC20/ERC20.sol\":7475:8126  function _transfer(... */\n    tag_132:\n      sub(shl(0xa0, 0x01), 0x01)\n        /* \"@openzeppelin/contracts@4.7.0/token/ERC20/ERC20.sol\":7601:7619  from != address(0) */\n      dup4\n      and\n        /* \"@openzeppelin/contracts@4.7.0/token/ERC20/ERC20.sol\":7593:7661  require(from != address(0), \"ERC20: transfer from the zero address\") */\n      tag_252\n      jumpi\n      mload(0x40)\n      shl(0xe5, 0x461bcd)\n      dup2\n      mstore\n        /* \"#utility.yul\":8548:8550   */\n      0x20\n        /* \"@openzeppelin/contracts@4.7.0/token/ERC20/ERC20.sol\":7593:7661  require(from != address(0), \"ERC20: transfer from the zero address\") */\n      0x04\n      dup3\n      add\n        /* \"#utility.yul\":8530:8551   */\n      mstore\n        /* \"#utility.yul\":8587:8589   */\n      0x25\n        /* \"#utility.yul\":8567:8585   */\n      0x24\n      dup3\n      add\n        /* \"#utility.yul\":8560:8590   */\n      mstore\n        /* \"#utility.yul\":8626:8660   */\n      0x45524332303a207472616e736665722066726f6d20746865207a65726f206164\n        /* \"#utility.yul\":8606:8624   */\n      0x44\n      dup3\n      add\n        /* \"#utility.yul\":8599:8661   */\n      mstore\n      shl(0xd8, 0x6472657373)\n        /* \"#utility.yul\":8677:8695   */\n      0x64\n      dup3\n      add\n        /* \"#utility.yul\":8670:8705   */\n      mstore\n        /* \"#utility.yul\":8722:8741   */\n      0x84\n      add\n        /* \"@openzeppelin/contracts@4.7.0/token/ERC20/ERC20.sol\":7593:7661  require(from != address(0), \"ERC20: transfer from the zero address\") */\n      tag_149\n        /* \"#utility.yul\":8346:8747   */\n      jump\n        /* \"@openzeppelin/contracts@4.7.0/token/ERC20/ERC20.sol\":7593:7661  require(from != address(0), \"ERC20: transfer from the zero address\") */\n    tag_252:\n      sub(shl(0xa0, 0x01), 0x01)\n        /* \"@openzeppelin/contracts@4.7.0/token/ERC20/ERC20.sol\":7679:7695  to != address(0) */\n      dup3\n      and\n        /* \"@openzeppelin/contracts@4.7.0/token/ERC20/ERC20.sol\":7671:7735  require(to != address(0), \"ERC20: transfer to the zero address\") */\n      tag_255\n      jumpi\n      mload(0x40)\n      shl(0xe5, 0x461bcd)\n      dup2\n      mstore\n        /* \"#utility.yul\":8954:8956   */\n      0x20\n        /* \"@openzeppelin/contracts@4.7.0/token/ERC20/ERC20.sol\":7671:7735  require(to != address(0), \"ERC20: transfer to the zero address\") */\n      0x04\n      dup3\n      add\n        /* \"#utility.yul\":8936:8957   */\n      mstore\n        /* \"#utility.yul\":8993:8995   */\n      0x23\n        /* \"#utility.yul\":8973:8991   */\n      0x24\n      dup3\n      add\n        /* \"#utility.yul\":8966:8996   */\n      mstore\n        /* \"#utility.yul\":9032:9066   */\n      0x45524332303a207472616e7366657220746f20746865207a65726f2061646472\n        /* \"#utility.yul\":9012:9030   */\n      0x44\n      dup3\n      add\n        /* \"#utility.yul\":9005:9067   */\n      mstore\n      shl(0xe8, 0x657373)\n        /* \"#utility.yul\":9083:9101   */\n      0x64\n      dup3\n      add\n        /* \"#utility.yul\":9076:9109   */\n      mstore\n        /* \"#utility.yul\":9126:9145   */\n      0x84\n      add\n        /* \"@openzeppelin/contracts@4.7.0/token/ERC20/ERC20.sol\":7671:7735  require(to != address(0), \"ERC20: transfer to the zero address\") */\n      tag_149\n        /* \"#utility.yul\":8752:9151   */\n      jump\n        /* \"@openzeppelin/contracts@4.7.0/token/ERC20/ERC20.sol\":7671:7735  require(to != address(0), \"ERC20: transfer to the zero address\") */\n    tag_255:\n        /* \"@openzeppelin/contracts@4.7.0/token/ERC20/ERC20.sol\":7746:7784  _beforeTokenTransfer(from, to, amount) */\n      tag_258\n        /* \"@openzeppelin/contracts@4.7.0/token/ERC20/ERC20.sol\":7767:7771  from */\n      dup4\n        /* \"@openzeppelin/contracts@4.7.0/token/ERC20/ERC20.sol\":7773:7775  to */\n      dup4\n        /* \"@openzeppelin/contracts@4.7.0/token/ERC20/ERC20.sol\":7777:7783  amount */\n      dup4\n        /* \"@openzeppelin/contracts@4.7.0/token/ERC20/ERC20.sol\":7746:7766  _beforeTokenTransfer */\n      tag_192\n        /* \"@openzeppelin/contracts@4.7.0/token/ERC20/ERC20.sol\":7746:7784  _beforeTokenTransfer(from, to, amount) */\n      jump\t// in\n    tag_258:\n      sub(shl(0xa0, 0x01), 0x01)\n        /* \"@openzeppelin/contracts@4.7.0/token/ERC20/ERC20.sol\":7817:7832  _balances[from] */\n      dup4\n      and\n        /* \"@openzeppelin/contracts@4.7.0/token/ERC20/ERC20.sol\":7795:7814  uint256 fromBalance */\n      0x00\n        /* \"@openzeppelin/contracts@4.7.0/token/ERC20/ERC20.sol\":7817:7832  _balances[from] */\n      swap1\n      dup2\n      mstore\n      0x20\n      dup2\n      swap1\n      mstore\n      0x40\n      swap1\n      keccak256\n      sload\n        /* \"@openzeppelin/contracts@4.7.0/token/ERC20/ERC20.sol\":7850:7871  fromBalance >= amount */\n      dup2\n      dup2\n      lt\n      iszero\n        /* \"@openzeppelin/contracts@4.7.0/token/ERC20/ERC20.sol\":7842:7914  require(fromBalance >= amount, \"ERC20: transfer amount exceeds balance\") */\n      tag_260\n      jumpi\n      mload(0x40)\n      shl(0xe5, 0x461bcd)\n      dup2\n      mstore\n        /* \"#utility.yul\":9358:9360   */\n      0x20\n        /* \"@openzeppelin/contracts@4.7.0/token/ERC20/ERC20.sol\":7842:7914  require(fromBalance >= amount, \"ERC20: transfer amount exceeds balance\") */\n      0x04\n      dup3\n      add\n        /* \"#utility.yul\":9340:9361   */\n      mstore\n        /* \"#utility.yul\":9397:9399   */\n      0x26\n        /* \"#utility.yul\":9377:9395   */\n      0x24\n      dup3\n      add\n        /* \"#utility.yul\":9370:9400   */\n      mstore\n        /* \"#utility.yul\":9436:9470   */\n      0x45524332303a207472616e7366657220616d6f756e7420657863656564732062\n        /* \"#utility.yul\":9416:9434   */\n      0x44\n      dup3\n      add\n        /* \"#utility.yul\":9409:9471   */\n      mstore\n      shl(0xd0, 0x616c616e6365)\n        /* \"#utility.yul\":9487:9505   */\n      0x64\n      dup3\n      add\n        /* \"#utility.yul\":9480:9516   */\n      mstore\n        /* \"#utility.yul\":9533:9552   */\n      0x84\n      add\n        /* \"@openzeppelin/contracts@4.7.0/token/ERC20/ERC20.sol\":7842:7914  require(fromBalance >= amount, \"ERC20: transfer amount exceeds balance\") */\n      tag_149\n        /* \"#utility.yul\":9156:9558   */\n      jump\n        /* \"@openzeppelin/contracts@4.7.0/token/ERC20/ERC20.sol\":7842:7914  require(fromBalance >= amount, \"ERC20: transfer amount exceeds balance\") */\n    tag_260:\n      sub(shl(0xa0, 0x01), 0x01)\n        /* \"@openzeppelin/contracts@4.7.0/token/ERC20/ERC20.sol\":7948:7963  _balances[from] */\n      dup1\n      dup6\n      and\n        /* \"@openzeppelin/contracts@4.7.0/token/ERC20/ERC20.sol\":7948:7957  _balances */\n      0x00\n        /* \"@openzeppelin/contracts@4.7.0/token/ERC20/ERC20.sol\":7948:7963  _balances[from] */\n      swap1\n      dup2\n      mstore\n      0x20\n      dup2\n      swap1\n      mstore\n      0x40\n      dup1\n      dup3\n      keccak256\n        /* \"@openzeppelin/contracts@4.7.0/token/ERC20/ERC20.sol\":7966:7986  fromBalance - amount */\n      dup6\n      dup6\n      sub\n        /* \"@openzeppelin/contracts@4.7.0/token/ERC20/ERC20.sol\":7948:7986  _balances[from] = fromBalance - amount */\n      swap1\n      sstore\n        /* \"@openzeppelin/contracts@4.7.0/token/ERC20/ERC20.sol\":8006:8019  _balances[to] */\n      swap2\n      dup6\n      and\n      dup2\n      mstore\n      swap1\n      dup2\n      keccak256\n        /* \"@openzeppelin/contracts@4.7.0/token/ERC20/ERC20.sol\":8006:8029  _balances[to] += amount */\n      dup1\n      sload\n        /* \"@openzeppelin/contracts@4.7.0/token/ERC20/ERC20.sol\":7980:7986  amount */\n      dup5\n      swap3\n        /* \"@openzeppelin/contracts@4.7.0/token/ERC20/ERC20.sol\":7948:7957  _balances */\n      swap1\n        /* \"@openzeppelin/contracts@4.7.0/token/ERC20/ERC20.sol\":8006:8029  _balances[to] += amount */\n      tag_263\n      swap1\n        /* \"@openzeppelin/contracts@4.7.0/token/ERC20/ERC20.sol\":7980:7986  amount */\n      dup5\n      swap1\n        /* \"@openzeppelin/contracts@4.7.0/token/ERC20/ERC20.sol\":8006:8029  _balances[to] += amount */\n      tag_139\n      jump\t// in\n    tag_263:\n      swap3\n      pop\n      pop\n      dup2\n      swap1\n      sstore\n      pop\n        /* \"@openzeppelin/contracts@4.7.0/token/ERC20/ERC20.sol\":8060:8062  to */\n      dup3\n      sub(shl(0xa0, 0x01), 0x01)\n        /* \"@openzeppelin/contracts@4.7.0/token/ERC20/ERC20.sol\":8045:8071  Transfer(from, to, amount) */\n      and\n        /* \"@openzeppelin/contracts@4.7.0/token/ERC20/ERC20.sol\":8054:8058  from */\n      dup5\n      sub(shl(0xa0, 0x01), 0x01)\n        /* \"@openzeppelin/contracts@4.7.0/token/ERC20/ERC20.sol\":8045:8071  Transfer(from, to, amount) */\n      and\n      0xddf252ad1be2c89b69c2b068fc378daa952ba7f163c4a11628f55a4df523b3ef\n        /* \"@openzeppelin/contracts@4.7.0/token/ERC20/ERC20.sol\":8064:8070  amount */\n      dup5\n        /* \"@openzeppelin/contracts@4.7.0/token/ERC20/ERC20.sol\":8045:8071  Transfer(from, to, amount) */\n      mload(0x40)\n      tag_264\n      swap2\n        /* \"#utility.yul\":713:738   */\n      dup2\n      mstore\n        /* \"#utility.yul\":701:703   */\n      0x20\n        /* \"#utility.yul\":686:704   */\n      add\n      swap1\n        /* \"#utility.yul\":567:744   */\n      jump\n        /* \"@openzeppelin/contracts@4.7.0/token/ERC20/ERC20.sol\":8045:8071  Transfer(from, to, amount) */\n    tag_264:\n      mload(0x40)\n      dup1\n      swap2\n      sub\n      swap1\n      log3\n        /* \"@openzeppelin/contracts@4.7.0/token/ERC20/ERC20.sol\":8082:8119  _afterTokenTransfer(from, to, amount) */\n      tag_232\n        /* \"@openzeppelin/contracts@4.7.0/token/ERC20/ERC20.sol\":8102:8106  from */\n      dup5\n        /* \"@openzeppelin/contracts@4.7.0/token/ERC20/ERC20.sol\":8108:8110  to */\n      dup5\n        /* \"@openzeppelin/contracts@4.7.0/token/ERC20/ERC20.sol\":8112:8118  amount */\n      dup5\n        /* \"@openzeppelin/contracts@4.7.0/token/ERC20/ERC20.sol\":8082:8101  _afterTokenTransfer */\n      tag_192\n        /* \"@openzeppelin/contracts@4.7.0/token/ERC20/ERC20.sol\":8082:8119  _afterTokenTransfer(from, to, amount) */\n      jump\t// in\n        /* \"@openzeppelin/contracts@4.7.0/token/ERC20/ERC20.sol\":8402:8791  function _mint(address account, uint256 amount) internal virtual {... */\n    tag_152:\n      sub(shl(0xa0, 0x01), 0x01)\n        /* \"@openzeppelin/contracts@4.7.0/token/ERC20/ERC20.sol\":8485:8506  account != address(0) */\n      dup3\n      and\n        /* \"@openzeppelin/contracts@4.7.0/token/ERC20/ERC20.sol\":8477:8542  require(account != address(0), \"ERC20: mint to the zero address\") */\n      tag_268\n      jumpi\n      mload(0x40)\n      shl(0xe5, 0x461bcd)\n      dup2\n      mstore\n        /* \"#utility.yul\":9765:9767   */\n      0x20\n        /* \"@openzeppelin/contracts@4.7.0/token/ERC20/ERC20.sol\":8477:8542  require(account != address(0), \"ERC20: mint to the zero address\") */\n      0x04\n      dup3\n      add\n        /* \"#utility.yul\":9747:9768   */\n      mstore\n        /* \"#utility.yul\":9804:9806   */\n      0x1f\n        /* \"#utility.yul\":9784:9802   */\n      0x24\n      dup3\n      add\n        /* \"#utility.yul\":9777:9807   */\n      mstore\n        /* \"#utility.yul\":9843:9876   */\n      0x45524332303a206d696e7420746f20746865207a65726f206164647265737300\n        /* \"#utility.yul\":9823:9841   */\n      0x44\n      dup3\n      add\n        /* \"#utility.yul\":9816:9877   */\n      mstore\n        /* \"#utility.yul\":9894:9912   */\n      0x64\n      add\n        /* \"@openzeppelin/contracts@4.7.0/token/ERC20/ERC20.sol\":8477:8542  require(account != address(0), \"ERC20: mint to the zero address\") */\n      tag_149\n        /* \"#utility.yul\":9563:9918   */\n      jump\n        /* \"@openzeppelin/contracts@4.7.0/token/ERC20/ERC20.sol\":8477:8542  require(account != address(0), \"ERC20: mint to the zero address\") */\n    tag_268:\n        /* \"@openzeppelin/contracts@4.7.0/token/ERC20/ERC20.sol\":8553:8602  _beforeTokenTransfer(address(0), account, amount) */\n      tag_271\n        /* \"@openzeppelin/contracts@4.7.0/token/ERC20/ERC20.sol\":8582:8583  0 */\n      0x00\n        /* \"@openzeppelin/contracts@4.7.0/token/ERC20/ERC20.sol\":8586:8593  account */\n      dup4\n        /* \"@openzeppelin/contracts@4.7.0/token/ERC20/ERC20.sol\":8595:8601  amount */\n      dup4\n        /* \"@openzeppelin/contracts@4.7.0/token/ERC20/ERC20.sol\":8553:8573  _beforeTokenTransfer */\n      tag_192\n        /* \"@openzeppelin/contracts@4.7.0/token/ERC20/ERC20.sol\":8553:8602  _beforeTokenTransfer(address(0), account, amount) */\n      jump\t// in\n    tag_271:\n        /* \"@openzeppelin/contracts@4.7.0/token/ERC20/ERC20.sol\":8629:8635  amount */\n      dup1\n        /* \"@openzeppelin/contracts@4.7.0/token/ERC20/ERC20.sol\":8613:8625  _totalSupply */\n      0x02\n      0x00\n        /* \"@openzeppelin/contracts@4.7.0/token/ERC20/ERC20.sol\":8613:8635  _totalSupply += amount */\n      dup3\n      dup3\n      sload\n      tag_272\n      swap2\n      swap1\n      tag_139\n      jump\t// in\n    tag_272:\n      swap1\n      swap2\n      sstore\n      pop\n      pop\n      sub(shl(0xa0, 0x01), 0x01)\n        /* \"@openzeppelin/contracts@4.7.0/token/ERC20/ERC20.sol\":8645:8663  _balances[account] */\n      dup3\n      and\n        /* \"@openzeppelin/contracts@4.7.0/token/ERC20/ERC20.sol\":8645:8654  _balances */\n      0x00\n        /* \"@openzeppelin/contracts@4.7.0/token/ERC20/ERC20.sol\":8645:8663  _balances[account] */\n      swap1\n      dup2\n      mstore\n      0x20\n      dup2\n      swap1\n      mstore\n      0x40\n      dup2\n      keccak256\n        /* \"@openzeppelin/contracts@4.7.0/token/ERC20/ERC20.sol\":8645:8673  _balances[account] += amount */\n      dup1\n      sload\n        /* \"@openzeppelin/contracts@4.7.0/token/ERC20/ERC20.sol\":8667:8673  amount */\n      dup4\n      swap3\n        /* \"@openzeppelin/contracts@4.7.0/token/ERC20/ERC20.sol\":8645:8654  _balances */\n      swap1\n        /* \"@openzeppelin/contracts@4.7.0/token/ERC20/ERC20.sol\":8645:8673  _balances[account] += amount */\n      tag_273\n      swap1\n        /* \"@openzeppelin/contracts@4.7.0/token/ERC20/ERC20.sol\":8667:8673  amount */\n      dup5\n      swap1\n        /* \"@openzeppelin/contracts@4.7.0/token/ERC20/ERC20.sol\":8645:8673  _balances[account] += amount */\n      tag_139\n      jump\t// in\n    tag_273:\n      swap1\n      swap2\n      sstore\n      pop\n      pop\n        /* \"@openzeppelin/contracts@4.7.0/token/ERC20/ERC20.sol\":8688:8725  Transfer(address(0), account, amount) */\n      mload(0x40)\n        /* \"#utility.yul\":713:738   */\n      dup2\n      dup2\n      mstore\n      sub(shl(0xa0, 0x01), 0x01)\n        /* \"@openzeppelin/contracts@4.7.0/token/ERC20/ERC20.sol\":8688:8725  Transfer(address(0), account, amount) */\n      dup4\n      and\n      swap1\n        /* \"@openzeppelin/contracts@4.7.0/token/ERC20/ERC20.sol\":8705:8706  0 */\n      0x00\n      swap1\n        /* \"@openzeppelin/contracts@4.7.0/token/ERC20/ERC20.sol\":8688:8725  Transfer(address(0), account, amount) */\n      0xddf252ad1be2c89b69c2b068fc378daa952ba7f163c4a11628f55a4df523b3ef\n      swap1\n        /* \"#utility.yul\":701:703   */\n      0x20\n        /* \"#utility.yul\":686:704   */\n      add\n        /* \"@openzeppelin/contracts@4.7.0/token/ERC20/ERC20.sol\":8688:8725  Transfer(address(0), account, amount) */\n      mload(0x40)\n      dup1\n      swap2\n      sub\n      swap1\n      log3\n        /* \"@openzeppelin/contracts@4.7.0/token/ERC20/ERC20.sol\":8736:8784  _afterTokenTransfer(address(0), account, amount) */\n      tag_188\n        /* \"@openzeppelin/contracts@4.7.0/token/ERC20/ERC20.sol\":8764:8765  0 */\n      0x00\n        /* \"@openzeppelin/contracts@4.7.0/token/ERC20/ERC20.sol\":8768:8775  account */\n      dup4\n        /* \"@openzeppelin/contracts@4.7.0/token/ERC20/ERC20.sol\":8777:8783  amount */\n      dup4\n        /* \"@openzeppelin/contracts@4.7.0/token/ERC20/ERC20.sol\":8736:8755  _afterTokenTransfer */\n      tag_192\n        /* \"@openzeppelin/contracts@4.7.0/token/ERC20/ERC20.sol\":8736:8784  _afterTokenTransfer(address(0), account, amount) */\n      jump\t// in\n        /* \"@openzeppelin/contracts@4.7.0/access/Ownable.sol\":1359:1489  function _checkOwner() internal view virtual {... */\n    tag_176:\n        /* \"@openzeppelin/contracts@4.7.0/access/Ownable.sol\":1273:1279  _owner */\n      and(sub(shl(0xa0, 0x01), 0x01), sload(0x05))\n        /* \"@openzeppelin/contracts@4.7.0/utils/Context.sol\":719:729  msg.sender */\n      caller\n        /* \"@openzeppelin/contracts@4.7.0/access/Ownable.sol\":1422:1445  owner() == _msgSender() */\n      eq\n        /* \"@openzeppelin/contracts@4.7.0/access/Ownable.sol\":1414:1482  require(owner() == _msgSender(), \"Ownable: caller is not the owner\") */\n      tag_178\n      jumpi\n      mload(0x40)\n      shl(0xe5, 0x461bcd)\n      dup2\n      mstore\n        /* \"#utility.yul\":10125:10127   */\n      0x20\n        /* \"@openzeppelin/contracts@4.7.0/access/Ownable.sol\":1414:1482  require(owner() == _msgSender(), \"Ownable: caller is not the owner\") */\n      0x04\n      dup3\n      add\n        /* \"#utility.yul\":10107:10128   */\n      dup2\n      swap1\n      mstore\n        /* \"#utility.yul\":10144:10162   */\n      0x24\n      dup3\n      add\n        /* \"#utility.yul\":10137:10167   */\n      mstore\n        /* \"#utility.yul\":10203:10237   */\n      0x4f776e61626c653a2063616c6c6572206973206e6f7420746865206f776e6572\n        /* \"#utility.yul\":10183:10201   */\n      0x44\n      dup3\n      add\n        /* \"#utility.yul\":10176:10238   */\n      mstore\n        /* \"#utility.yul\":10255:10273   */\n      0x64\n      add\n        /* \"@openzeppelin/contracts@4.7.0/access/Ownable.sol\":1414:1482  require(owner() == _msgSender(), \"Ownable: caller is not the owner\") */\n      tag_149\n        /* \"#utility.yul\":9923:10279   */\n      jump\n        /* \"@openzeppelin/contracts@4.7.0/access/Ownable.sol\":2433:2620  function _transferOwnership(address newOwner) internal virtual {... */\n    tag_179:\n        /* \"@openzeppelin/contracts@4.7.0/access/Ownable.sol\":2525:2531  _owner */\n      0x05\n      dup1\n      sload\n      sub(shl(0xa0, 0x01), 0x01)\n        /* \"@openzeppelin/contracts@4.7.0/access/Ownable.sol\":2541:2558  _owner = newOwner */\n      dup4\n      dup2\n      and\n      not(sub(shl(0xa0, 0x01), 0x01))\n      dup4\n      and\n      dup2\n      or\n      swap1\n      swap4\n      sstore\n        /* \"@openzeppelin/contracts@4.7.0/access/Ownable.sol\":2573:2613  OwnershipTransferred(oldOwner, newOwner) */\n      mload(0x40)\n        /* \"@openzeppelin/contracts@4.7.0/access/Ownable.sol\":2525:2531  _owner */\n      swap2\n      and\n      swap2\n        /* \"@openzeppelin/contracts@4.7.0/access/Ownable.sol\":2541:2558  _owner = newOwner */\n      swap1\n        /* \"@openzeppelin/contracts@4.7.0/access/Ownable.sol\":2525:2531  _owner */\n      dup3\n      swap1\n        /* \"@openzeppelin/contracts@4.7.0/access/Ownable.sol\":2573:2613  OwnershipTransferred(oldOwner, newOwner) */\n      0x8be0079c531659141344cd1fd0a4f28419497f9722a3daafe3b4186f6b6457e0\n      swap1\n        /* \"@openzeppelin/contracts@4.7.0/access/Ownable.sol\":2506:2522  address oldOwner */\n      0x00\n      swap1\n        /* \"@openzeppelin/contracts@4.7.0/access/Ownable.sol\":2573:2613  OwnershipTransferred(oldOwner, newOwner) */\n      log3\n        /* \"@openzeppelin/contracts@4.7.0/access/Ownable.sol\":2496:2620  {... */\n      pop\n        /* \"@openzeppelin/contracts@4.7.0/access/Ownable.sol\":2433:2620  function _transferOwnership(address newOwner) internal virtual {... */\n      pop\n      jump\t// out\n        /* \"@openzeppelin/contracts@4.7.0/token/ERC20/ERC20.sol\":9111:9687  function _burn(address account, uint256 amount) internal virtual {... */\n    tag_223:\n      sub(shl(0xa0, 0x01), 0x01)\n        /* \"@openzeppelin/contracts@4.7.0/token/ERC20/ERC20.sol\":9194:9215  account != address(0) */\n      dup3\n      and\n        /* \"@openzeppelin/contracts@4.7.0/token/ERC20/ERC20.sol\":9186:9253  require(account != address(0), \"ERC20: burn from the zero address\") */\n      tag_284\n      jumpi\n      mload(0x40)\n      shl(0xe5, 0x461bcd)\n      dup2\n      mstore\n        /* \"#utility.yul\":10486:10488   */\n      0x20\n        /* \"@openzeppelin/contracts@4.7.0/token/ERC20/ERC20.sol\":9186:9253  require(account != address(0), \"ERC20: burn from the zero address\") */\n      0x04\n      dup3\n      add\n        /* \"#utility.yul\":10468:10489   */\n      mstore\n        /* \"#utility.yul\":10525:10527   */\n      0x21\n        /* \"#utility.yul\":10505:10523   */\n      0x24\n      dup3\n      add\n        /* \"#utility.yul\":10498:10528   */\n      mstore\n        /* \"#utility.yul\":10564:10598   */\n      0x45524332303a206275726e2066726f6d20746865207a65726f20616464726573\n        /* \"#utility.yul\":10544:10562   */\n      0x44\n      dup3\n      add\n        /* \"#utility.yul\":10537:10599   */\n      mstore\n      shl(0xf8, 0x73)\n        /* \"#utility.yul\":10615:10633   */\n      0x64\n      dup3\n      add\n        /* \"#utility.yul\":10608:10639   */\n      mstore\n        /* \"#utility.yul\":10656:10675   */\n      0x84\n      add\n        /* \"@openzeppelin/contracts@4.7.0/token/ERC20/ERC20.sol\":9186:9253  require(account != address(0), \"ERC20: burn from the zero address\") */\n      tag_149\n        /* \"#utility.yul\":10284:10681   */\n      jump\n        /* \"@openzeppelin/contracts@4.7.0/token/ERC20/ERC20.sol\":9186:9253  require(account != address(0), \"ERC20: burn from the zero address\") */\n    tag_284:\n        /* \"@openzeppelin/contracts@4.7.0/token/ERC20/ERC20.sol\":9264:9313  _beforeTokenTransfer(account, address(0), amount) */\n      tag_287\n        /* \"@openzeppelin/contracts@4.7.0/token/ERC20/ERC20.sol\":9285:9292  account */\n      dup3\n        /* \"@openzeppelin/contracts@4.7.0/token/ERC20/ERC20.sol\":9302:9303  0 */\n      0x00\n        /* \"@openzeppelin/contracts@4.7.0/token/ERC20/ERC20.sol\":9306:9312  amount */\n      dup4\n        /* \"@openzeppelin/contracts@4.7.0/token/ERC20/ERC20.sol\":9264:9284  _beforeTokenTransfer */\n      tag_192\n        /* \"@openzeppelin/contracts@4.7.0/token/ERC20/ERC20.sol\":9264:9313  _beforeTokenTransfer(account, address(0), amount) */\n      jump\t// in\n    tag_287:\n      sub(shl(0xa0, 0x01), 0x01)\n        /* \"@openzeppelin/contracts@4.7.0/token/ERC20/ERC20.sol\":9349:9367  _balances[account] */\n      dup3\n      and\n        /* \"@openzeppelin/contracts@4.7.0/token/ERC20/ERC20.sol\":9324:9346  uint256 accountBalance */\n      0x00\n        /* \"@openzeppelin/contracts@4.7.0/token/ERC20/ERC20.sol\":9349:9367  _balances[account] */\n      swap1\n      dup2\n      mstore\n      0x20\n      dup2\n      swap1\n      mstore\n      0x40\n      swap1\n      keccak256\n      sload\n        /* \"@openzeppelin/contracts@4.7.0/token/ERC20/ERC20.sol\":9385:9409  accountBalance >= amount */\n      dup2\n      dup2\n      lt\n      iszero\n        /* \"@openzeppelin/contracts@4.7.0/token/ERC20/ERC20.sol\":9377:9448  require(accountBalance >= amount, \"ERC20: burn amount exceeds balance\") */\n      tag_288\n      jumpi\n      mload(0x40)\n      shl(0xe5, 0x461bcd)\n      dup2\n      mstore\n        /* \"#utility.yul\":10888:10890   */\n      0x20\n        /* \"@openzeppelin/contracts@4.7.0/token/ERC20/ERC20.sol\":9377:9448  require(accountBalance >= amount, \"ERC20: burn amount exceeds balance\") */\n      0x04\n      dup3\n      add\n        /* \"#utility.yul\":10870:10891   */\n      mstore\n        /* \"#utility.yul\":10927:10929   */\n      0x22\n        /* \"#utility.yul\":10907:10925   */\n      0x24\n      dup3\n      add\n        /* \"#utility.yul\":10900:10930   */\n      mstore\n        /* \"#utility.yul\":10966:11000   */\n      0x45524332303a206275726e20616d6f756e7420657863656564732062616c616e\n        /* \"#utility.yul\":10946:10964   */\n      0x44\n      dup3\n      add\n        /* \"#utility.yul\":10939:11001   */\n      mstore\n      shl(0xf0, 0x6365)\n        /* \"#utility.yul\":11017:11035   */\n      0x64\n      dup3\n      add\n        /* \"#utility.yul\":11010:11042   */\n      mstore\n        /* \"#utility.yul\":11059:11078   */\n      0x84\n      add\n        /* \"@openzeppelin/contracts@4.7.0/token/ERC20/ERC20.sol\":9377:9448  require(accountBalance >= amount, \"ERC20: burn amount exceeds balance\") */\n      tag_149\n        /* \"#utility.yul\":10686:11084   */\n      jump\n        /* \"@openzeppelin/contracts@4.7.0/token/ERC20/ERC20.sol\":9377:9448  require(accountBalance >= amount, \"ERC20: burn amount exceeds balance\") */\n    tag_288:\n      sub(shl(0xa0, 0x01), 0x01)\n        /* \"@openzeppelin/contracts@4.7.0/token/ERC20/ERC20.sol\":9482:9500  _balances[account] */\n      dup4\n      and\n        /* \"@openzeppelin/contracts@4.7.0/token/ERC20/ERC20.sol\":9482:9491  _balances */\n      0x00\n        /* \"@openzeppelin/contracts@4.7.0/token/ERC20/ERC20.sol\":9482:9500  _balances[account] */\n      swap1\n      dup2\n      mstore\n      0x20\n      dup2\n      swap1\n      mstore\n      0x40\n      dup2\n      keccak256\n        /* \"@openzeppelin/contracts@4.7.0/token/ERC20/ERC20.sol\":9503:9526  accountBalance - amount */\n      dup4\n      dup4\n      sub\n        /* \"@openzeppelin/contracts@4.7.0/token/ERC20/ERC20.sol\":9482:9526  _balances[account] = accountBalance - amount */\n      swap1\n      sstore\n        /* \"@openzeppelin/contracts@4.7.0/token/ERC20/ERC20.sol\":9546:9558  _totalSupply */\n      0x02\n        /* \"@openzeppelin/contracts@4.7.0/token/ERC20/ERC20.sol\":9546:9568  _totalSupply -= amount */\n      dup1\n      sload\n        /* \"@openzeppelin/contracts@4.7.0/token/ERC20/ERC20.sol\":9520:9526  amount */\n      dup5\n      swap3\n        /* \"@openzeppelin/contracts@4.7.0/token/ERC20/ERC20.sol\":9482:9491  _balances */\n      swap1\n        /* \"@openzeppelin/contracts@4.7.0/token/ERC20/ERC20.sol\":9546:9568  _totalSupply -= amount */\n      tag_291\n      swap1\n        /* \"@openzeppelin/contracts@4.7.0/token/ERC20/ERC20.sol\":9520:9526  amount */\n      dup5\n      swap1\n        /* \"@openzeppelin/contracts@4.7.0/token/ERC20/ERC20.sol\":9546:9568  _totalSupply -= amount */\n      tag_164\n      jump\t// in\n    tag_291:\n      swap1\n      swap2\n      sstore\n      pop\n      pop\n        /* \"@openzeppelin/contracts@4.7.0/token/ERC20/ERC20.sol\":9584:9621  Transfer(account, address(0), amount) */\n      mload(0x40)\n        /* \"#utility.yul\":713:738   */\n      dup3\n      dup2\n      mstore\n        /* \"@openzeppelin/contracts@4.7.0/token/ERC20/ERC20.sol\":9610:9611  0 */\n      0x00\n      swap1\n      sub(shl(0xa0, 0x01), 0x01)\n        /* \"@openzeppelin/contracts@4.7.0/token/ERC20/ERC20.sol\":9584:9621  Transfer(account, address(0), amount) */\n      dup6\n      and\n      swap1\n      0xddf252ad1be2c89b69c2b068fc378daa952ba7f163c4a11628f55a4df523b3ef\n      swap1\n        /* \"#utility.yul\":701:703   */\n      0x20\n        /* \"#utility.yul\":686:704   */\n      add\n        /* \"@openzeppelin/contracts@4.7.0/token/ERC20/ERC20.sol\":9584:9621  Transfer(account, address(0), amount) */\n      mload(0x40)\n      dup1\n      swap2\n      sub\n      swap1\n      log3\n        /* \"@openzeppelin/contracts@4.7.0/token/ERC20/ERC20.sol\":9632:9680  _afterTokenTransfer(account, address(0), amount) */\n      tag_192\n        /* \"@openzeppelin/contracts@4.7.0/token/ERC20/ERC20.sol\":9652:9659  account */\n      dup4\n        /* \"@openzeppelin/contracts@4.7.0/token/ERC20/ERC20.sol\":9669:9670  0 */\n      0x00\n        /* \"@openzeppelin/contracts@4.7.0/token/ERC20/ERC20.sol\":9673:9679  amount */\n      dup5\n        /* \"@openzeppelin/contracts@4.7.0/token/ERC20/ERC20.sol\":9632:9651  _afterTokenTransfer */\n      tag_192\n        /* \"@openzeppelin/contracts@4.7.0/token/ERC20/ERC20.sol\":9632:9680  _afterTokenTransfer(account, address(0), amount) */\n      jump\t// in\n        /* \"#utility.yul\":14:562   */\n    tag_28:\n        /* \"#utility.yul\":126:130   */\n      0x00\n        /* \"#utility.yul\":155:157   */\n      0x20\n        /* \"#utility.yul\":184:186   */\n      dup1\n        /* \"#utility.yul\":173:182   */\n      dup4\n        /* \"#utility.yul\":166:187   */\n      mstore\n        /* \"#utility.yul\":216:222   */\n      dup4\n        /* \"#utility.yul\":210:223   */\n      mload\n        /* \"#utility.yul\":259:265   */\n      dup1\n        /* \"#utility.yul\":254:256   */\n      0x20\n        /* \"#utility.yul\":243:252   */\n      dup6\n        /* \"#utility.yul\":239:257   */\n      add\n        /* \"#utility.yul\":232:266   */\n      mstore\n        /* \"#utility.yul\":284:285   */\n      0x00\n        /* \"#utility.yul\":294:434   */\n    tag_300:\n        /* \"#utility.yul\":308:314   */\n      dup2\n        /* \"#utility.yul\":305:306   */\n      dup2\n        /* \"#utility.yul\":302:315   */\n      lt\n        /* \"#utility.yul\":294:434   */\n      iszero\n      tag_302\n      jumpi\n        /* \"#utility.yul\":403:417   */\n      dup6\n      dup2\n      add\n        /* \"#utility.yul\":399:422   */\n      dup4\n      add\n        /* \"#utility.yul\":393:423   */\n      mload\n        /* \"#utility.yul\":369:386   */\n      dup6\n      dup3\n      add\n        /* \"#utility.yul\":388:390   */\n      0x40\n        /* \"#utility.yul\":365:391   */\n      add\n        /* \"#utility.yul\":358:424   */\n      mstore\n        /* \"#utility.yul\":323:333   */\n      dup3\n      add\n        /* \"#utility.yul\":294:434   */\n      jump(tag_300)\n    tag_302:\n        /* \"#utility.yul\":298:301   */\n      pop\n        /* \"#utility.yul\":483:484   */\n      0x00\n        /* \"#utility.yul\":478:480   */\n      0x40\n        /* \"#utility.yul\":469:475   */\n      dup3\n        /* \"#utility.yul\":458:467   */\n      dup7\n        /* \"#utility.yul\":454:476   */\n      add\n        /* \"#utility.yul\":450:481   */\n      add\n        /* \"#utility.yul\":443:485   */\n      mstore\n        /* \"#utility.yul\":553:555   */\n      0x40\n        /* \"#utility.yul\":546:548   */\n      0x1f\n        /* \"#utility.yul\":542:549   */\n      not\n        /* \"#utility.yul\":537:539   */\n      0x1f\n        /* \"#utility.yul\":529:535   */\n      dup4\n        /* \"#utility.yul\":525:540   */\n      add\n        /* \"#utility.yul\":521:550   */\n      and\n        /* \"#utility.yul\":510:519   */\n      dup6\n        /* \"#utility.yul\":506:551   */\n      add\n        /* \"#utility.yul\":502:556   */\n      add\n        /* \"#utility.yul\":494:556   */\n      swap3\n      pop\n      pop\n      pop\n        /* \"#utility.yul\":14:562   */\n      swap3\n      swap2\n      pop\n      pop\n      jump\t// out\n        /* \"#utility.yul\":749:922   */\n    tag_296:\n        /* \"#utility.yul\":817:837   */\n      dup1\n      calldataload\n      sub(shl(0xa0, 0x01), 0x01)\n        /* \"#utility.yul\":866:897   */\n      dup2\n      and\n        /* \"#utility.yul\":856:898   */\n      dup2\n      eq\n        /* \"#utility.yul\":846:916   */\n      tag_305\n      jumpi\n        /* \"#utility.yul\":912:913   */\n      0x00\n        /* \"#utility.yul\":909:910   */\n      dup1\n        /* \"#utility.yul\":902:914   */\n      revert\n        /* \"#utility.yul\":846:916   */\n    tag_305:\n        /* \"#utility.yul\":749:922   */\n      swap2\n      swap1\n      pop\n      jump\t// out\n        /* \"#utility.yul\":927:1181   */\n    tag_37:\n        /* \"#utility.yul\":995:1001   */\n      0x00\n        /* \"#utility.yul\":1003:1009   */\n      dup1\n        /* \"#utility.yul\":1056:1058   */\n      0x40\n        /* \"#utility.yul\":1044:1053   */\n      dup4\n        /* \"#utility.yul\":1035:1042   */\n      dup6\n        /* \"#utility.yul\":1031:1054   */\n      sub\n        /* \"#utility.yul\":1027:1059   */\n      slt\n        /* \"#utility.yul\":1024:1076   */\n      iszero\n      tag_307\n      jumpi\n        /* \"#utility.yul\":1072:1073   */\n      0x00\n        /* \"#utility.yul\":1069:1070   */\n      dup1\n        /* \"#utility.yul\":1062:1074   */\n      revert\n        /* \"#utility.yul\":1024:1076   */\n    tag_307:\n        /* \"#utility.yul\":1095:1124   */\n      tag_308\n        /* \"#utility.yul\":1114:1123   */\n      dup4\n        /* \"#utility.yul\":1095:1124   */\n      tag_296\n      jump\t// in\n    tag_308:\n        /* \"#utility.yul\":1085:1124   */\n      swap5\n        /* \"#utility.yul\":1171:1173   */\n      0x20\n        /* \"#utility.yul\":1156:1174   */\n      swap4\n      swap1\n      swap4\n      add\n        /* \"#utility.yul\":1143:1175   */\n      calldataload\n      swap4\n      pop\n      pop\n      pop\n        /* \"#utility.yul\":927:1181   */\n      jump\t// out\n        /* \"#utility.yul\":1378:1706   */\n    tag_48:\n        /* \"#utility.yul\":1455:1461   */\n      0x00\n        /* \"#utility.yul\":1463:1469   */\n      dup1\n        /* \"#utility.yul\":1471:1477   */\n      0x00\n        /* \"#utility.yul\":1524:1526   */\n      0x60\n        /* \"#utility.yul\":1512:1521   */\n      dup5\n        /* \"#utility.yul\":1503:1510   */\n      dup7\n        /* \"#utility.yul\":1499:1522   */\n      sub\n        /* \"#utility.yul\":1495:1527   */\n      slt\n        /* \"#utility.yul\":1492:1544   */\n      iszero\n      tag_311\n      jumpi\n        /* \"#utility.yul\":1540:1541   */\n      0x00\n        /* \"#utility.yul\":1537:1538   */\n      dup1\n        /* \"#utility.yul\":1530:1542   */\n      revert\n        /* \"#utility.yul\":1492:1544   */\n    tag_311:\n        /* \"#utility.yul\":1563:1592   */\n      tag_312\n        /* \"#utility.yul\":1582:1591   */\n      dup5\n        /* \"#utility.yul\":1563:1592   */\n      tag_296\n      jump\t// in\n    tag_312:\n        /* \"#utility.yul\":1553:1592   */\n      swap3\n      pop\n        /* \"#utility.yul\":1611:1649   */\n      tag_313\n        /* \"#utility.yul\":1645:1647   */\n      0x20\n        /* \"#utility.yul\":1634:1643   */\n      dup6\n        /* \"#utility.yul\":1630:1648   */\n      add\n        /* \"#utility.yul\":1611:1649   */\n      tag_296\n      jump\t// in\n    tag_313:\n        /* \"#utility.yul\":1601:1649   */\n      swap2\n      pop\n        /* \"#utility.yul\":1696:1698   */\n      0x40\n        /* \"#utility.yul\":1685:1694   */\n      dup5\n        /* \"#utility.yul\":1681:1699   */\n      add\n        /* \"#utility.yul\":1668:1700   */\n      calldataload\n        /* \"#utility.yul\":1658:1700   */\n      swap1\n      pop\n        /* \"#utility.yul\":1378:1706   */\n      swap3\n      pop\n      swap3\n      pop\n      swap3\n      jump\t// out\n        /* \"#utility.yul\":1900:2154   */\n    tag_63:\n        /* \"#utility.yul\":1968:1974   */\n      0x00\n        /* \"#utility.yul\":1976:1982   */\n      dup1\n        /* \"#utility.yul\":2029:2031   */\n      0x40\n        /* \"#utility.yul\":2017:2026   */\n      dup4\n        /* \"#utility.yul\":2008:2015   */\n      dup6\n        /* \"#utility.yul\":2004:2027   */\n      sub\n        /* \"#utility.yul\":2000:2032   */\n      slt\n        /* \"#utility.yul\":1997:2049   */\n      iszero\n      tag_316\n      jumpi\n        /* \"#utility.yul\":2045:2046   */\n      0x00\n        /* \"#utility.yul\":2042:2043   */\n      dup1\n        /* \"#utility.yul\":2035:2047   */\n      revert\n        /* \"#utility.yul\":1997:2049   */\n    tag_316:\n        /* \"#utility.yul\":2081:2090   */\n      dup3\n        /* \"#utility.yul\":2068:2091   */\n      calldataload\n        /* \"#utility.yul\":2058:2091   */\n      swap2\n      pop\n        /* \"#utility.yul\":2110:2148   */\n      tag_317\n        /* \"#utility.yul\":2144:2146   */\n      0x20\n        /* \"#utility.yul\":2133:2142   */\n      dup5\n        /* \"#utility.yul\":2129:2147   */\n      add\n        /* \"#utility.yul\":2110:2148   */\n      tag_296\n      jump\t// in\n    tag_317:\n        /* \"#utility.yul\":2100:2148   */\n      swap1\n      pop\n        /* \"#utility.yul\":1900:2154   */\n      swap3\n      pop\n      swap3\n      swap1\n      pop\n      jump\t// out\n        /* \"#utility.yul\":2159:2345   */\n    tag_72:\n        /* \"#utility.yul\":2218:2224   */\n      0x00\n        /* \"#utility.yul\":2271:2273   */\n      0x20\n        /* \"#utility.yul\":2259:2268   */\n      dup3\n        /* \"#utility.yul\":2250:2257   */\n      dup5\n        /* \"#utility.yul\":2246:2269   */\n      sub\n        /* \"#utility.yul\":2242:2274   */\n      slt\n        /* \"#utility.yul\":2239:2291   */\n      iszero\n      tag_319\n      jumpi\n        /* \"#utility.yul\":2287:2288   */\n      0x00\n        /* \"#utility.yul\":2284:2285   */\n      dup1\n        /* \"#utility.yul\":2277:2289   */\n      revert\n        /* \"#utility.yul\":2239:2291   */\n    tag_319:\n        /* \"#utility.yul\":2310:2339   */\n      tag_320\n        /* \"#utility.yul\":2329:2338   */\n      dup3\n        /* \"#utility.yul\":2310:2339   */\n      tag_296\n      jump\t// in\n    tag_320:\n        /* \"#utility.yul\":2300:2339   */\n      swap4\n        /* \"#utility.yul\":2159:2345   */\n      swap3\n      pop\n      pop\n      pop\n      jump\t// out\n        /* \"#utility.yul\":2558:2818   */\n    tag_103:\n        /* \"#utility.yul\":2626:2632   */\n      0x00\n        /* \"#utility.yul\":2634:2640   */\n      dup1\n        /* \"#utility.yul\":2687:2689   */\n      0x40\n        /* \"#utility.yul\":2675:2684   */\n      dup4\n        /* \"#utility.yul\":2666:2673   */\n      dup6\n        /* \"#utility.yul\":2662:2685   */\n      sub\n        /* \"#utility.yul\":2658:2690   */\n      slt\n        /* \"#utility.yul\":2655:2707   */\n      iszero\n      tag_323\n      jumpi\n        /* \"#utility.yul\":2703:2704   */\n      0x00\n        /* \"#utility.yul\":2700:2701   */\n      dup1\n        /* \"#utility.yul\":2693:2705   */\n      revert\n        /* \"#utility.yul\":2655:2707   */\n    tag_323:\n        /* \"#utility.yul\":2726:2755   */\n      tag_324\n        /* \"#utility.yul\":2745:2754   */\n      dup4\n        /* \"#utility.yul\":2726:2755   */\n      tag_296\n      jump\t// in\n    tag_324:\n        /* \"#utility.yul\":2716:2755   */\n      swap2\n      pop\n        /* \"#utility.yul\":2774:2812   */\n      tag_317\n        /* \"#utility.yul\":2808:2810   */\n      0x20\n        /* \"#utility.yul\":2797:2806   */\n      dup5\n        /* \"#utility.yul\":2793:2811   */\n      add\n        /* \"#utility.yul\":2774:2812   */\n      tag_296\n      jump\t// in\n        /* \"#utility.yul\":2823:3203   */\n    tag_116:\n        /* \"#utility.yul\":2902:2903   */\n      0x01\n        /* \"#utility.yul\":2898:2910   */\n      dup2\n      dup2\n      shr\n      swap1\n        /* \"#utility.yul\":2945:2957   */\n      dup3\n      and\n      dup1\n        /* \"#utility.yul\":2966:3027   */\n      tag_327\n      jumpi\n        /* \"#utility.yul\":3020:3024   */\n      0x7f\n        /* \"#utility.yul\":3012:3018   */\n      dup3\n        /* \"#utility.yul\":3008:3025   */\n      and\n        /* \"#utility.yul\":2998:3025   */\n      swap2\n      pop\n        /* \"#utility.yul\":2966:3027   */\n    tag_327:\n        /* \"#utility.yul\":3073:3075   */\n      0x20\n        /* \"#utility.yul\":3065:3071   */\n      dup3\n        /* \"#utility.yul\":3062:3076   */\n      lt\n        /* \"#utility.yul\":3042:3060   */\n      dup2\n        /* \"#utility.yul\":3039:3077   */\n      sub\n        /* \"#utility.yul\":3036:3197   */\n      tag_328\n      jumpi\n        /* \"#utility.yul\":3119:3129   */\n      0x4e487b71\n        /* \"#utility.yul\":3114:3117   */\n      0xe0\n        /* \"#utility.yul\":3110:3130   */\n      shl\n        /* \"#utility.yul\":3107:3108   */\n      0x00\n        /* \"#utility.yul\":3100:3131   */\n      mstore\n        /* \"#utility.yul\":3154:3158   */\n      0x22\n        /* \"#utility.yul\":3151:3152   */\n      0x04\n        /* \"#utility.yul\":3144:3159   */\n      mstore\n        /* \"#utility.yul\":3182:3186   */\n      0x24\n        /* \"#utility.yul\":3179:3180   */\n      0x00\n        /* \"#utility.yul\":3172:3187   */\n      revert\n        /* \"#utility.yul\":3036:3197   */\n    tag_328:\n      pop\n        /* \"#utility.yul\":2823:3203   */\n      swap2\n      swap1\n      pop\n      jump\t// out\n        /* \"#utility.yul\":3208:3335   */\n    tag_297:\n        /* \"#utility.yul\":3269:3279   */\n      0x4e487b71\n        /* \"#utility.yul\":3264:3267   */\n      0xe0\n        /* \"#utility.yul\":3260:3280   */\n      shl\n        /* \"#utility.yul\":3257:3258   */\n      0x00\n        /* \"#utility.yul\":3250:3281   */\n      mstore\n        /* \"#utility.yul\":3300:3304   */\n      0x11\n        /* \"#utility.yul\":3297:3298   */\n      0x04\n        /* \"#utility.yul\":3290:3305   */\n      mstore\n        /* \"#utility.yul\":3324:3328   */\n      0x24\n        /* \"#utility.yul\":3321:3322   */\n      0x00\n        /* \"#utility.yul\":3314:3329   */\n      revert\n        /* \"#utility.yul\":3340:3465   */\n    tag_139:\n        /* \"#utility.yul\":3405:3414   */\n      dup1\n      dup3\n      add\n        /* \"#utility.yul\":3426:3436   */\n      dup1\n      dup3\n      gt\n        /* \"#utility.yul\":3423:3459   */\n      iszero\n      tag_121\n      jumpi\n        /* \"#utility.yul\":3439:3457   */\n      tag_121\n      tag_297\n      jump\t// in\n        /* \"#utility.yul\":3470:3638   */\n    tag_142:\n        /* \"#utility.yul\":3543:3552   */\n      dup1\n      dup3\n      mul\n        /* \"#utility.yul\":3574:3583   */\n      dup2\n      iszero\n        /* \"#utility.yul\":3591:3606   */\n      dup3\n      dup3\n      div\n        /* \"#utility.yul\":3585:3607   */\n      dup5\n      eq\n        /* \"#utility.yul\":3571:3608   */\n      or\n        /* \"#utility.yul\":3561:3632   */\n      tag_121\n      jumpi\n        /* \"#utility.yul\":3612:3630   */\n      tag_121\n      tag_297\n      jump\t// in\n        /* \"#utility.yul\":3643:3860   */\n    tag_144:\n        /* \"#utility.yul\":3683:3684   */\n      0x00\n        /* \"#utility.yul\":3709:3710   */\n      dup3\n        /* \"#utility.yul\":3699:3831   */\n      tag_337\n      jumpi\n        /* \"#utility.yul\":3753:3763   */\n      0x4e487b71\n        /* \"#utility.yul\":3748:3751   */\n      0xe0\n        /* \"#utility.yul\":3744:3764   */\n      shl\n        /* \"#utility.yul\":3741:3742   */\n      0x00\n        /* \"#utility.yul\":3734:3765   */\n      mstore\n        /* \"#utility.yul\":3788:3792   */\n      0x12\n        /* \"#utility.yul\":3785:3786   */\n      0x04\n        /* \"#utility.yul\":3778:3793   */\n      mstore\n        /* \"#utility.yul\":3816:3820   */\n      0x24\n        /* \"#utility.yul\":3813:3814   */\n      0x00\n        /* \"#utility.yul\":3806:3821   */\n      revert\n        /* \"#utility.yul\":3699:3831   */\n    tag_337:\n      pop\n        /* \"#utility.yul\":3845:3854   */\n      div\n      swap1\n        /* \"#utility.yul\":3643:3860   */\n      jump\t// out\n        /* \"#utility.yul\":4772:4900   */\n    tag_164:\n        /* \"#utility.yul\":4839:4848   */\n      dup2\n      dup2\n      sub\n        /* \"#utility.yul\":4860:4871   */\n      dup2\n      dup2\n      gt\n        /* \"#utility.yul\":4857:4894   */\n      iszero\n      tag_121\n      jumpi\n        /* \"#utility.yul\":4874:4892   */\n      tag_121\n      tag_297\n      jump\t// in\n\n    auxdata: 0xa2646970667358221220835571cfc45df3d88e88deeae5f330fc627fef98891dcef6e99af5c27b682a5464736f6c63430008180033\n}\n",
				"bytecode": {
					"linkReferences": {},
					"object": "608060405234801562000010575f80fd5b506040518060400160405280600881526020016714dbd4d20814d4d560c21b8152506040518060400160405280600381526020016214d4d560ea1b81525081600390816200005f919062000184565b5060046200006e828262000184565b5050506200008b620000856200009160201b60201c565b62000095565b62000250565b3390565b600580546001600160a01b038381166001600160a01b0319831681179093556040519116919082907f8be0079c531659141344cd1fd0a4f28419497f9722a3daafe3b4186f6b6457e0905f90a35050565b634e487b7160e01b5f52604160045260245ffd5b600181811c908216806200010f57607f821691505b6020821081036200012e57634e487b7160e01b5f52602260045260245ffd5b50919050565b601f8211156200017f57805f5260205f20601f840160051c810160208510156200015b5750805b601f840160051c820191505b818110156200017c575f815560010162000167565b50505b505050565b81516001600160401b03811115620001a057620001a0620000e6565b620001b881620001b18454620000fa565b8462000134565b602080601f831160018114620001ee575f8415620001d65750858301515b5f19600386901b1c1916600185901b17855562000248565b5f85815260208120601f198616915b828110156200021e57888601518255948401946001909101908401620001fd565b50858210156200023c57878501515f19600388901b60f8161c191681555b505060018460011b0185555b505050505050565b611263806200025e5f395ff3fe608060405260043610610110575f3560e01c806370a082311161009d578063a457c2d711610062578063a457c2d7146102c7578063a9059cbb146102e6578063dd62ed3e14610305578063f2fde38b14610324578063fcd3533c14610343575f80fd5b806370a0823114610231578063715018a6146102655780638da5cb5b1461027957806394bf804d146102a057806395d89b41146102b3575f80fd5b806323b872dd116100e357806323b872dd146101a9578063313ce567146101c857806339509351146101e35780634fa1d43614610202578063695d2f1314610217575f80fd5b806306fdde03146101145780630802c2cd1461013e578063095ea7b31461016657806318160ddd14610195575b5f80fd5b34801561011f575f80fd5b50610128610362565b604051610135919061104b565b60405180910390f35b348015610149575f80fd5b50610158660265e8af39300081565b604051908152602001610135565b348015610171575f80fd5b506101856101803660046110b2565b6103f2565b6040519015158152602001610135565b3480156101a0575f80fd5b50600254610158565b3480156101b4575f80fd5b506101856101c33660046110da565b61040b565b3480156101d3575f80fd5b5060405160128152602001610135565b3480156101ee575f80fd5b506101856101fd3660046110b2565b61042e565b610215610210366004611113565b61044f565b005b348015610222575f80fd5b5061015866470de4df82000081565b34801561023c575f80fd5b5061015861024b36600461113d565b6001600160a01b03165f9081526020819052604090205490565b348015610270575f80fd5b50610215610651565b348015610284575f80fd5b506005546040516001600160a01b039091168152602001610135565b6102156102ae366004611113565b610664565b3480156102be575f80fd5b5061012861073b565b3480156102d2575f80fd5b506101856102e13660046110b2565b61074a565b3480156102f1575f80fd5b506101856103003660046110b2565b6107c4565b348015610310575f80fd5b5061015861031f36600461115d565b6107d1565b34801561032f575f80fd5b5061021561033e36600461113d565b6107fb565b34801561034e575f80fd5b5061021561035d366004611113565b610874565b60606003805461037190611185565b80601f016020809104026020016040519081016040528092919081815260200182805461039d90611185565b80156103e85780601f106103bf576101008083540402835291602001916103e8565b820191905f5260205f20905b8154815290600101906020018083116103cb57829003601f168201915b5050505050905090565b5f336103ff8185856109e4565b60019150505b92915050565b5f33610418858285610b07565b610423858585610b79565b506001949350505050565b5f336103ff81858561044083836107d1565b61044a91906111d1565b6109e4565b5f670de0b6b3a764000061046a84660265e8af3930006111e4565b61047491906111fb565b90505f670de0b6b3a764000061049166470de4df820000846111e4565b61049b91906111fb565b90506104a781836111d1565b3410156104f35760405162461bcd60e51b8152602060048201526015602482015274125b9cdd59999a58da595b9d08115512081cd95b9d605a1b60448201526064015b60405180910390fd5b6104fd8385610d56565b5f836001600160a01b0316826040515f6040518083038185875af1925050503d805f8114610546576040519150601f19603f3d011682016040523d82523d5f602084013e61054b565b606091505b50509050806105915760405162461bcd60e51b8152602060048201526012602482015271556e61626c6520746f2073656e642067617360701b60448201526064016104ea565b61059b82846111d1565b34111561064a575f33836105af863461121a565b6105b991906111d1565b6040515f81818185875af1925050503d805f81146105f2576040519150601f19603f3d011682016040523d82523d5f602084013e6105f7565b606091505b50509050806106485760405162461bcd60e51b815260206004820152601860248201527f556e61626c6520746f2073656e64206261636b2066756e64000000000000000060448201526064016104ea565b505b5050505050565b610659610e44565b6106625f610e9e565b565b670de0b6b3a764000061067e83660265e8af3930006111e4565b61068891906111fb565b3410156106cf5760405162461bcd60e51b8152602060048201526015602482015274125b9cdd59999a58da595b9d08115512081cd95b9d605a1b60448201526064016104ea565b6106d98183610d56565b6106ea82660265e8af3930006111e4565b34111561073757336108fc61070684660265e8af3930006111e4565b610710903461121a565b6040518115909202915f818181858888f19350505050158015610735573d5f803e3d5ffd5b505b5050565b60606004805461037190611185565b5f338161075782866107d1565b9050838110156107b75760405162461bcd60e51b815260206004820152602560248201527f45524332303a2064656372656173656420616c6c6f77616e63652062656c6f77604482015264207a65726f60d81b60648201526084016104ea565b61042382868684036109e4565b5f336103ff818585610b79565b6001600160a01b039182165f90815260016020908152604080832093909416825291909152205490565b610803610e44565b6001600160a01b0381166108685760405162461bcd60e51b815260206004820152602660248201527f4f776e61626c653a206e6577206f776e657220697320746865207a65726f206160448201526564647265737360d01b60648201526084016104ea565b61087181610e9e565b50565b335f908152602081905260409020548211156108d25760405162461bcd60e51b815260206004820152601f60248201527f496e73756666696369656e742053535420746f6b656e7320746f206275726e0060448201526064016104ea565b6108dc3383610eef565b5f6108ee660265e8af393000846111e4565b90508047101561094a5760405162461bcd60e51b815260206004820152602160248201527f436f6e747261637420646f6573206e6f74206861766520656e6f7567682045546044820152600960fb1b60648201526084016104ea565b5f826001600160a01b0316826040515f6040518083038185875af1925050503d805f8114610993576040519150601f19603f3d011682016040523d82523d5f602084013e610998565b606091505b50509050806109de5760405162461bcd60e51b815260206004820152601260248201527108cc2d2d8cac840e8de40e6cadcc8408aa8960731b60448201526064016104ea565b50505050565b6001600160a01b038316610a465760405162461bcd60e51b8152602060048201526024808201527f45524332303a20617070726f76652066726f6d20746865207a65726f206164646044820152637265737360e01b60648201526084016104ea565b6001600160a01b038216610aa75760405162461bcd60e51b815260206004820152602260248201527f45524332303a20617070726f766520746f20746865207a65726f206164647265604482015261737360f01b60648201526084016104ea565b6001600160a01b038381165f8181526001602090815260408083209487168084529482529182902085905590518481527f8c5be1e5ebec7d5bd14f71427d1e84f3dd0314c0f7b2291e5b200ac8c7c3b925910160405180910390a3505050565b5f610b1284846107d1565b90505f1981146109de5781811015610b6c5760405162461bcd60e51b815260206004820152601d60248201527f45524332303a20696e73756666696369656e7420616c6c6f77616e636500000060448201526064016104ea565b6109de84848484036109e4565b6001600160a01b038316610bdd5760405162461bcd60e51b815260206004820152602560248201527f45524332303a207472616e736665722066726f6d20746865207a65726f206164604482015264647265737360d81b60648201526084016104ea565b6001600160a01b038216610c3f5760405162461bcd60e51b815260206004820152602360248201527f45524332303a207472616e7366657220746f20746865207a65726f206164647260448201526265737360e81b60648201526084016104ea565b610c4a838383610735565b6001600160a01b0383165f9081526020819052604090205481811015610cc15760405162461bcd60e51b815260206004820152602660248201527f45524332303a207472616e7366657220616d6f756e7420657863656564732062604482015265616c616e636560d01b60648201526084016104ea565b6001600160a01b038085165f90815260208190526040808220858503905591851681529081208054849290610cf79084906111d1565b92505081905550826001600160a01b0316846001600160a01b03167fddf252ad1be2c89b69c2b068fc378daa952ba7f163c4a11628f55a4df523b3ef84604051610d4391815260200190565b60405180910390a36109de848484610735565b6001600160a01b038216610dac5760405162461bcd60e51b815260206004820152601f60248201527f45524332303a206d696e7420746f20746865207a65726f20616464726573730060448201526064016104ea565b610db75f8383610735565b8060025f828254610dc891906111d1565b90915550506001600160a01b0382165f9081526020819052604081208054839290610df49084906111d1565b90915550506040518181526001600160a01b038316905f907fddf252ad1be2c89b69c2b068fc378daa952ba7f163c4a11628f55a4df523b3ef9060200160405180910390a36107375f8383610735565b6005546001600160a01b031633146106625760405162461bcd60e51b815260206004820181905260248201527f4f776e61626c653a2063616c6c6572206973206e6f7420746865206f776e657260448201526064016104ea565b600580546001600160a01b038381166001600160a01b0319831681179093556040519116919082907f8be0079c531659141344cd1fd0a4f28419497f9722a3daafe3b4186f6b6457e0905f90a35050565b6001600160a01b038216610f4f5760405162461bcd60e51b815260206004820152602160248201527f45524332303a206275726e2066726f6d20746865207a65726f206164647265736044820152607360f81b60648201526084016104ea565b610f5a825f83610735565b6001600160a01b0382165f9081526020819052604090205481811015610fcd5760405162461bcd60e51b815260206004820152602260248201527f45524332303a206275726e20616d6f756e7420657863656564732062616c616e604482015261636560f01b60648201526084016104ea565b6001600160a01b0383165f908152602081905260408120838303905560028054849290610ffb90849061121a565b90915550506040518281525f906001600160a01b038516907fddf252ad1be2c89b69c2b068fc378daa952ba7f163c4a11628f55a4df523b3ef9060200160405180910390a3610735835f84610735565b5f602080835283518060208501525f5b818110156110775785810183015185820160400152820161105b565b505f604082860101526040601f19601f8301168501019250505092915050565b80356001600160a01b03811681146110ad575f80fd5b919050565b5f80604083850312156110c3575f80fd5b6110cc83611097565b946020939093013593505050565b5f805f606084860312156110ec575f80fd5b6110f584611097565b925061110360208501611097565b9150604084013590509250925092565b5f8060408385031215611124575f80fd5b8235915061113460208401611097565b90509250929050565b5f6020828403121561114d575f80fd5b61115682611097565b9392505050565b5f806040838503121561116e575f80fd5b61117783611097565b915061113460208401611097565b600181811c9082168061119957607f821691505b6020821081036111b757634e487b7160e01b5f52602260045260245ffd5b50919050565b634e487b7160e01b5f52601160045260245ffd5b80820180821115610405576104056111bd565b8082028115828204841417610405576104056111bd565b5f8261121557634e487b7160e01b5f52601260045260245ffd5b500490565b81810381811115610405576104056111bd56fea2646970667358221220835571cfc45df3d88e88deeae5f330fc627fef98891dcef6e99af5c27b682a5464736f6c63430008180033",
					"opcodes": "PUSH1 0x80 PUSH1 0x40 MSTORE CALLVALUE DUP1 ISZERO PUSH3 0x10 JUMPI PUSH0 DUP1 REVERT JUMPDEST POP PUSH1 0x40 MLOAD DUP1 PUSH1 0x40 ADD PUSH1 0x40 MSTORE DUP1 PUSH1 0x8 DUP2 MSTORE PUSH1 0x20 ADD PUSH8 0x14DBD4D20814D4D5 PUSH1 0xC2 SHL DUP2 MSTORE POP PUSH1 0x40 MLOAD DUP1 PUSH1 0x40 ADD PUSH1 0x40 MSTORE DUP1 PUSH1 0x3 DUP2 MSTORE PUSH1 0x20 ADD PUSH3 0x14D4D5 PUSH1 0xEA SHL DUP2 MSTORE POP DUP2 PUSH1 0x3 SWAP1 DUP2 PUSH3 0x5F SWAP2 SWAP1 PUSH3 0x184 JUMP JUMPDEST POP PUSH1 0x4 PUSH3 0x6E DUP3 DUP3 PUSH3 0x184 JUMP JUMPDEST POP POP POP PUSH3 0x8B PUSH3 0x85 PUSH3 0x91 PUSH1 0x20 SHL PUSH1 0x20 SHR JUMP JUMPDEST PUSH3 0x95 JUMP JUMPDEST PUSH3 0x250 JUMP JUMPDEST CALLER SWAP1 JUMP JUMPDEST PUSH1 0x5 DUP1 SLOAD PUSH1 0x1 PUSH1 0x1 PUSH1 0xA0 SHL SUB DUP4 DUP2 AND PUSH1 0x1 PUSH1 0x1 PUSH1 0xA0 SHL SUB NOT DUP4 AND DUP2 OR SWAP1 SWAP4 SSTORE PUSH1 0x40 MLOAD SWAP2 AND SWAP2 SWAP1 DUP3 SWAP1 PUSH32 0x8BE0079C531659141344CD1FD0A4F28419497F9722A3DAAFE3B4186F6B6457E0 SWAP1 PUSH0 SWAP1 LOG3 POP POP JUMP JUMPDEST PUSH4 0x4E487B71 PUSH1 0xE0 SHL PUSH0 MSTORE PUSH1 0x41 PUSH1 0x4 MSTORE PUSH1 0x24 PUSH0 REVERT JUMPDEST PUSH1 0x1 DUP2 DUP2 SHR SWAP1 DUP3 AND DUP1 PUSH3 0x10F JUMPI PUSH1 0x7F DUP3 AND SWAP2 POP JUMPDEST PUSH1 0x20 DUP3 LT DUP2 SUB PUSH3 0x12E JUMPI PUSH4 0x4E487B71 PUSH1 0xE0 SHL PUSH0 MSTORE PUSH1 0x22 PUSH1 0x4 MSTORE PUSH1 0x24 PUSH0 REVERT JUMPDEST POP SWAP2 SWAP1 POP JUMP JUMPDEST PUSH1 0x1F DUP3 GT ISZERO PUSH3 0x17F JUMPI DUP1 PUSH0 MSTORE PUSH1 0x20 PUSH0 KECCAK256 PUSH1 0x1F DUP5 ADD PUSH1 0x5 SHR DUP2 ADD PUSH1 0x20 DUP6 LT ISZERO PUSH3 0x15B JUMPI POP DUP1 JUMPDEST PUSH1 0x1F DUP5 ADD PUSH1 0x5 SHR DUP3 ADD SWAP2 POP JUMPDEST DUP2 DUP2 LT ISZERO PUSH3 0x17C JUMPI PUSH0 DUP2 SSTORE PUSH1 0x1 ADD PUSH3 0x167 JUMP JUMPDEST POP POP JUMPDEST POP POP POP JUMP JUMPDEST DUP2 MLOAD PUSH1 0x1 PUSH1 0x1 PUSH1 0x40 SHL SUB DUP2 GT ISZERO PUSH3 0x1A0 JUMPI PUSH3 0x1A0 PUSH3 0xE6 JUMP JUMPDEST PUSH3 0x1B8 DUP2 PUSH3 0x1B1 DUP5 SLOAD PUSH3 0xFA JUMP JUMPDEST DUP5 PUSH3 0x134 JUMP JUMPDEST PUSH1 0x20 DUP1 PUSH1 0x1F DUP4 GT PUSH1 0x1 DUP2 EQ PUSH3 0x1EE JUMPI PUSH0 DUP5 ISZERO PUSH3 0x1D6 JUMPI POP DUP6 DUP4 ADD MLOAD JUMPDEST PUSH0 NOT PUSH1 0x3 DUP7 SWAP1 SHL SHR NOT AND PUSH1 0x1 DUP6 SWAP1 SHL OR DUP6 SSTORE PUSH3 0x248 JUMP JUMPDEST PUSH0 DUP6 DUP2 MSTORE PUSH1 0x20 DUP2 KECCAK256 PUSH1 0x1F NOT DUP7 AND SWAP2 JUMPDEST DUP3 DUP2 LT ISZERO PUSH3 0x21E JUMPI DUP9 DUP7 ADD MLOAD DUP3 SSTORE SWAP5 DUP5 ADD SWAP5 PUSH1 0x1 SWAP1 SWAP2 ADD SWAP1 DUP5 ADD PUSH3 0x1FD JUMP JUMPDEST POP DUP6 DUP3 LT ISZERO PUSH3 0x23C JUMPI DUP8 DUP6 ADD MLOAD PUSH0 NOT PUSH1 0x3 DUP9 SWAP1 SHL PUSH1 0xF8 AND SHR NOT AND DUP2 SSTORE JUMPDEST POP POP PUSH1 0x1 DUP5 PUSH1 0x1 SHL ADD DUP6 SSTORE JUMPDEST POP POP POP POP POP POP JUMP JUMPDEST PUSH2 0x1263 DUP1 PUSH3 0x25E PUSH0 CODECOPY PUSH0 RETURN INVALID PUSH1 0x80 PUSH1 0x40 MSTORE PUSH1 0x4 CALLDATASIZE LT PUSH2 0x110 JUMPI PUSH0 CALLDATALOAD PUSH1 0xE0 SHR DUP1 PUSH4 0x70A08231 GT PUSH2 0x9D JUMPI DUP1 PUSH4 0xA457C2D7 GT PUSH2 0x62 JUMPI DUP1 PUSH4 0xA457C2D7 EQ PUSH2 0x2C7 JUMPI DUP1 PUSH4 0xA9059CBB EQ PUSH2 0x2E6 JUMPI DUP1 PUSH4 0xDD62ED3E EQ PUSH2 0x305 JUMPI DUP1 PUSH4 0xF2FDE38B EQ PUSH2 0x324 JUMPI DUP1 PUSH4 0xFCD3533C EQ PUSH2 0x343 JUMPI PUSH0 DUP1 REVERT JUMPDEST DUP1 PUSH4 0x70A08231 EQ PUSH2 0x231 JUMPI DUP1 PUSH4 0x715018A6 EQ PUSH2 0x265 JUMPI DUP1 PUSH4 0x8DA5CB5B EQ PUSH2 0x279 JUMPI DUP1 PUSH4 0x94BF804D EQ PUSH2 0x2A0 JUMPI DUP1 PUSH4 0x95D89B41 EQ PUSH2 0x2B3 JUMPI PUSH0 DUP1 REVERT JUMPDEST DUP1 PUSH4 0x23B872DD GT PUSH2 0xE3 JUMPI DUP1 PUSH4 0x23B872DD EQ PUSH2 0x1A9 JUMPI DUP1 PUSH4 0x313CE567 EQ PUSH2 0x1C8 JUMPI DUP1 PUSH4 0x39509351 EQ PUSH2 0x1E3 JUMPI DUP1 PUSH4 0x4FA1D436 EQ PUSH2 0x202 JUMPI DUP1 PUSH4 0x695D2F13 EQ PUSH2 0x217 JUMPI PUSH0 DUP1 REVERT JUMPDEST DUP1 PUSH4 0x6FDDE03 EQ PUSH2 0x114 JUMPI DUP1 PUSH4 0x802C2CD EQ PUSH2 0x13E JUMPI DUP1 PUSH4 0x95EA7B3 EQ PUSH2 0x166 JUMPI DUP1 PUSH4 0x18160DDD EQ PUSH2 0x195 JUMPI JUMPDEST PUSH0 DUP1 REVERT JUMPDEST CALLVALUE DUP1 ISZERO PUSH2 0x11F JUMPI PUSH0 DUP1 REVERT JUMPDEST POP PUSH2 0x128 PUSH2 0x362 JUMP JUMPDEST PUSH1 0x40 MLOAD PUSH2 0x135 SWAP2 SWAP1 PUSH2 0x104B JUMP JUMPDEST PUSH1 0x40 MLOAD DUP1 SWAP2 SUB SWAP1 RETURN JUMPDEST CALLVALUE DUP1 ISZERO PUSH2 0x149 JUMPI PUSH0 DUP1 REVERT JUMPDEST POP PUSH2 0x158 PUSH7 0x265E8AF393000 DUP2 JUMP JUMPDEST PUSH1 0x40 MLOAD SWAP1 DUP2 MSTORE PUSH1 0x20 ADD PUSH2 0x135 JUMP JUMPDEST CALLVALUE DUP1 ISZERO PUSH2 0x171 JUMPI PUSH0 DUP1 REVERT JUMPDEST POP PUSH2 0x185 PUSH2 0x180 CALLDATASIZE PUSH1 0x4 PUSH2 0x10B2 JUMP JUMPDEST PUSH2 0x3F2 JUMP JUMPDEST PUSH1 0x40 MLOAD SWAP1 ISZERO ISZERO DUP2 MSTORE PUSH1 0x20 ADD PUSH2 0x135 JUMP JUMPDEST CALLVALUE DUP1 ISZERO PUSH2 0x1A0 JUMPI PUSH0 DUP1 REVERT JUMPDEST POP PUSH1 0x2 SLOAD PUSH2 0x158 JUMP JUMPDEST CALLVALUE DUP1 ISZERO PUSH2 0x1B4 JUMPI PUSH0 DUP1 REVERT JUMPDEST POP PUSH2 0x185 PUSH2 0x1C3 CALLDATASIZE PUSH1 0x4 PUSH2 0x10DA JUMP JUMPDEST PUSH2 0x40B JUMP JUMPDEST CALLVALUE DUP1 ISZERO PUSH2 0x1D3 JUMPI PUSH0 DUP1 REVERT JUMPDEST POP PUSH1 0x40 MLOAD PUSH1 0x12 DUP2 MSTORE PUSH1 0x20 ADD PUSH2 0x135 JUMP JUMPDEST CALLVALUE DUP1 ISZERO PUSH2 0x1EE JUMPI PUSH0 DUP1 REVERT JUMPDEST POP PUSH2 0x185 PUSH2 0x1FD CALLDATASIZE PUSH1 0x4 PUSH2 0x10B2 JUMP JUMPDEST PUSH2 0x42E JUMP JUMPDEST PUSH2 0x215 PUSH2 0x210 CALLDATASIZE PUSH1 0x4 PUSH2 0x1113 JUMP JUMPDEST PUSH2 0x44F JUMP JUMPDEST STOP JUMPDEST CALLVALUE DUP1 ISZERO PUSH2 0x222 JUMPI PUSH0 DUP1 REVERT JUMPDEST POP PUSH2 0x158 PUSH7 0x470DE4DF820000 DUP2 JUMP JUMPDEST CALLVALUE DUP1 ISZERO PUSH2 0x23C JUMPI PUSH0 DUP1 REVERT JUMPDEST POP PUSH2 0x158 PUSH2 0x24B CALLDATASIZE PUSH1 0x4 PUSH2 0x113D JUMP JUMPDEST PUSH1 0x1 PUSH1 0x1 PUSH1 0xA0 SHL SUB AND PUSH0 SWAP1 DUP2 MSTORE PUSH1 0x20 DUP2 SWAP1 MSTORE PUSH1 0x40 SWAP1 KECCAK256 SLOAD SWAP1 JUMP JUMPDEST CALLVALUE DUP1 ISZERO PUSH2 0x270 JUMPI PUSH0 DUP1 REVERT JUMPDEST POP PUSH2 0x215 PUSH2 0x651 JUMP JUMPDEST CALLVALUE DUP1 ISZERO PUSH2 0x284 JUMPI PUSH0 DUP1 REVERT JUMPDEST POP PUSH1 0x5 SLOAD PUSH1 0x40 MLOAD PUSH1 0x1 PUSH1 0x1 PUSH1 0xA0 SHL SUB SWAP1 SWAP2 AND DUP2 MSTORE PUSH1 0x20 ADD PUSH2 0x135 JUMP JUMPDEST PUSH2 0x215 PUSH2 0x2AE CALLDATASIZE PUSH1 0x4 PUSH2 0x1113 JUMP JUMPDEST PUSH2 0x664 JUMP JUMPDEST CALLVALUE DUP1 ISZERO PUSH2 0x2BE JUMPI PUSH0 DUP1 REVERT JUMPDEST POP PUSH2 0x128 PUSH2 0x73B JUMP JUMPDEST CALLVALUE DUP1 ISZERO PUSH2 0x2D2 JUMPI PUSH0 DUP1 REVERT JUMPDEST POP PUSH2 0x185 PUSH2 0x2E1 CALLDATASIZE PUSH1 0x4 PUSH2 0x10B2 JUMP JUMPDEST PUSH2 0x74A JUMP JUMPDEST CALLVALUE DUP1 ISZERO PUSH2 0x2F1 JUMPI PUSH0 DUP1 REVERT JUMPDEST POP PUSH2 0x185 PUSH2 0x300 CALLDATASIZE PUSH1 0x4 PUSH2 0x10B2 JUMP JUMPDEST PUSH2 0x7C4 JUMP JUMPDEST CALLVALUE DUP1 ISZERO PUSH2 0x310 JUMPI PUSH0 DUP1 REVERT JUMPDEST POP PUSH2 0x158 PUSH2 0x31F CALLDATASIZE PUSH1 0x4 PUSH2 0x115D JUMP JUMPDEST PUSH2 0x7D1 JUMP JUMPDEST CALLVALUE DUP1 ISZERO PUSH2 0x32F JUMPI PUSH0 DUP1 REVERT JUMPDEST POP PUSH2 0x215 PUSH2 0x33E CALLDATASIZE PUSH1 0x4 PUSH2 0x113D JUMP JUMPDEST PUSH2 0x7FB JUMP JUMPDEST CALLVALUE DUP1 ISZERO PUSH2 0x34E JUMPI PUSH0 DUP1 REVERT JUMPDEST POP PUSH2 0x215 PUSH2 0x35D CALLDATASIZE PUSH1 0x4 PUSH2 0x1113 JUMP JUMPDEST PUSH2 0x874 JUMP JUMPDEST PUSH1 0x60 PUSH1 0x3 DUP1 SLOAD PUSH2 0x371 SWAP1 PUSH2 0x1185 JUMP JUMPDEST DUP1 PUSH1 0x1F ADD PUSH1 0x20 DUP1 SWAP2 DIV MUL PUSH1 0x20 ADD PUSH1 0x40 MLOAD SWAP1 DUP2 ADD PUSH1 0x40 MSTORE DUP1 SWAP3 SWAP2 SWAP1 DUP2 DUP2 MSTORE PUSH1 0x20 ADD DUP3 DUP1 SLOAD PUSH2 0x39D SWAP1 PUSH2 0x1185 JUMP JUMPDEST DUP1 ISZERO PUSH2 0x3E8 JUMPI DUP1 PUSH1 0x1F LT PUSH2 0x3BF JUMPI PUSH2 0x100 DUP1 DUP4 SLOAD DIV MUL DUP4 MSTORE SWAP2 PUSH1 0x20 ADD SWAP2 PUSH2 0x3E8 JUMP JUMPDEST DUP3 ADD SWAP2 SWAP1 PUSH0 MSTORE PUSH1 0x20 PUSH0 KECCAK256 SWAP1 JUMPDEST DUP2 SLOAD DUP2 MSTORE SWAP1 PUSH1 0x1 ADD SWAP1 PUSH1 0x20 ADD DUP1 DUP4 GT PUSH2 0x3CB JUMPI DUP3 SWAP1 SUB PUSH1 0x1F AND DUP3 ADD SWAP2 JUMPDEST POP POP POP POP POP SWAP1 POP SWAP1 JUMP JUMPDEST PUSH0 CALLER PUSH2 0x3FF DUP2 DUP6 DUP6 PUSH2 0x9E4 JUMP JUMPDEST PUSH1 0x1 SWAP2 POP POP JUMPDEST SWAP3 SWAP2 POP POP JUMP JUMPDEST PUSH0 CALLER PUSH2 0x418 DUP6 DUP3 DUP6 PUSH2 0xB07 JUMP JUMPDEST PUSH2 0x423 DUP6 DUP6 DUP6 PUSH2 0xB79 JUMP JUMPDEST POP PUSH1 0x1 SWAP5 SWAP4 POP POP POP POP JUMP JUMPDEST PUSH0 CALLER PUSH2 0x3FF DUP2 DUP6 DUP6 PUSH2 0x440 DUP4 DUP4 PUSH2 0x7D1 JUMP JUMPDEST PUSH2 0x44A SWAP2 SWAP1 PUSH2 0x11D1 JUMP JUMPDEST PUSH2 0x9E4 JUMP JUMPDEST PUSH0 PUSH8 0xDE0B6B3A7640000 PUSH2 0x46A DUP5 PUSH7 0x265E8AF393000 PUSH2 0x11E4 JUMP JUMPDEST PUSH2 0x474 SWAP2 SWAP1 PUSH2 0x11FB JUMP JUMPDEST SWAP1 POP PUSH0 PUSH8 0xDE0B6B3A7640000 PUSH2 0x491 PUSH7 0x470DE4DF820000 DUP5 PUSH2 0x11E4 JUMP JUMPDEST PUSH2 0x49B SWAP2 SWAP1 PUSH2 0x11FB JUMP JUMPDEST SWAP1 POP PUSH2 0x4A7 DUP2 DUP4 PUSH2 0x11D1 JUMP JUMPDEST CALLVALUE LT ISZERO PUSH2 0x4F3 JUMPI PUSH1 0x40 MLOAD PUSH3 0x461BCD PUSH1 0xE5 SHL DUP2 MSTORE PUSH1 0x20 PUSH1 0x4 DUP3 ADD MSTORE PUSH1 0x15 PUSH1 0x24 DUP3 ADD MSTORE PUSH21 0x125B9CDD59999A58DA595B9D08115512081CD95B9D PUSH1 0x5A SHL PUSH1 0x44 DUP3 ADD MSTORE PUSH1 0x64 ADD JUMPDEST PUSH1 0x40 MLOAD DUP1 SWAP2 SUB SWAP1 REVERT JUMPDEST PUSH2 0x4FD DUP4 DUP6 PUSH2 0xD56 JUMP JUMPDEST PUSH0 DUP4 PUSH1 0x1 PUSH1 0x1 PUSH1 0xA0 SHL SUB AND DUP3 PUSH1 0x40 MLOAD PUSH0 PUSH1 0x40 MLOAD DUP1 DUP4 SUB DUP2 DUP6 DUP8 GAS CALL SWAP3 POP POP POP RETURNDATASIZE DUP1 PUSH0 DUP2 EQ PUSH2 0x546 JUMPI PUSH1 0x40 MLOAD SWAP2 POP PUSH1 0x1F NOT PUSH1 0x3F RETURNDATASIZE ADD AND DUP3 ADD PUSH1 0x40 MSTORE RETURNDATASIZE DUP3 MSTORE RETURNDATASIZE PUSH0 PUSH1 0x20 DUP5 ADD RETURNDATACOPY PUSH2 0x54B JUMP JUMPDEST PUSH1 0x60 SWAP2 POP JUMPDEST POP POP SWAP1 POP DUP1 PUSH2 0x591 JUMPI PUSH1 0x40 MLOAD PUSH3 0x461BCD PUSH1 0xE5 SHL DUP2 MSTORE PUSH1 0x20 PUSH1 0x4 DUP3 ADD MSTORE PUSH1 0x12 PUSH1 0x24 DUP3 ADD MSTORE PUSH18 0x556E61626C6520746F2073656E6420676173 PUSH1 0x70 SHL PUSH1 0x44 DUP3 ADD MSTORE PUSH1 0x64 ADD PUSH2 0x4EA JUMP JUMPDEST PUSH2 0x59B DUP3 DUP5 PUSH2 0x11D1 JUMP JUMPDEST CALLVALUE GT ISZERO PUSH2 0x64A JUMPI PUSH0 CALLER DUP4 PUSH2 0x5AF DUP7 CALLVALUE PUSH2 0x121A JUMP JUMPDEST PUSH2 0x5B9 SWAP2 SWAP1 PUSH2 0x11D1 JUMP JUMPDEST PUSH1 0x40 MLOAD PUSH0 DUP2 DUP2 DUP2 DUP6 DUP8 GAS CALL SWAP3 POP POP POP RETURNDATASIZE DUP1 PUSH0 DUP2 EQ PUSH2 0x5F2 JUMPI PUSH1 0x40 MLOAD SWAP2 POP PUSH1 0x1F NOT PUSH1 0x3F RETURNDATASIZE ADD AND DUP3 ADD PUSH1 0x40 MSTORE RETURNDATASIZE DUP3 MSTORE RETURNDATASIZE PUSH0 PUSH1 0x20 DUP5 ADD RETURNDATACOPY PUSH2 0x5F7 JUMP JUMPDEST PUSH1 0x60 SWAP2 POP JUMPDEST POP POP SWAP1 POP DUP1 PUSH2 0x648 JUMPI PUSH1 0x40 MLOAD PUSH3 0x461BCD PUSH1 0xE5 SHL DUP2 MSTORE PUSH1 0x20 PUSH1 0x4 DUP3 ADD MSTORE PUSH1 0x18 PUSH1 0x24 DUP3 ADD MSTORE PUSH32 0x556E61626C6520746F2073656E64206261636B2066756E640000000000000000 PUSH1 0x44 DUP3 ADD MSTORE PUSH1 0x64 ADD PUSH2 0x4EA JUMP JUMPDEST POP JUMPDEST POP POP POP POP POP JUMP JUMPDEST PUSH2 0x659 PUSH2 0xE44 JUMP JUMPDEST PUSH2 0x662 PUSH0 PUSH2 0xE9E JUMP JUMPDEST JUMP JUMPDEST PUSH8 0xDE0B6B3A7640000 PUSH2 0x67E DUP4 PUSH7 0x265E8AF393000 PUSH2 0x11E4 JUMP JUMPDEST PUSH2 0x688 SWAP2 SWAP1 PUSH2 0x11FB JUMP JUMPDEST CALLVALUE LT ISZERO PUSH2 0x6CF JUMPI PUSH1 0x40 MLOAD PUSH3 0x461BCD PUSH1 0xE5 SHL DUP2 MSTORE PUSH1 0x20 PUSH1 0x4 DUP3 ADD MSTORE PUSH1 0x15 PUSH1 0x24 DUP3 ADD MSTORE PUSH21 0x125B9CDD59999A58DA595B9D08115512081CD95B9D PUSH1 0x5A SHL PUSH1 0x44 DUP3 ADD MSTORE PUSH1 0x64 ADD PUSH2 0x4EA JUMP JUMPDEST PUSH2 0x6D9 DUP2 DUP4 PUSH2 0xD56 JUMP JUMPDEST PUSH2 0x6EA DUP3 PUSH7 0x265E8AF393000 PUSH2 0x11E4 JUMP JUMPDEST CALLVALUE GT ISZERO PUSH2 0x737 JUMPI CALLER PUSH2 0x8FC PUSH2 0x706 DUP5 PUSH7 0x265E8AF393000 PUSH2 0x11E4 JUMP JUMPDEST PUSH2 0x710 SWAP1 CALLVALUE PUSH2 0x121A JUMP JUMPDEST PUSH1 0x40 MLOAD DUP2 ISZERO SWAP1 SWAP3 MUL SWAP2 PUSH0 DUP2 DUP2 DUP2 DUP6 DUP9 DUP9 CALL SWAP4 POP POP POP POP ISZERO DUP1 ISZERO PUSH2 0x735 JUMPI RETURNDATASIZE PUSH0 DUP1 RETURNDATACOPY RETURNDATASIZE PUSH0 REVERT JUMPDEST POP JUMPDEST POP POP JUMP JUMPDEST PUSH1 0x60 PUSH1 0x4 DUP1 SLOAD PUSH2 0x371 SWAP1 PUSH2 0x1185 JUMP JUMPDEST PUSH0 CALLER DUP2 PUSH2 0x757 DUP3 DUP7 PUSH2 0x7D1 JUMP JUMPDEST SWAP1 POP DUP4 DUP2 LT ISZERO PUSH2 0x7B7 JUMPI PUSH1 0x40 MLOAD PUSH3 0x461BCD PUSH1 0xE5 SHL DUP2 MSTORE PUSH1 0x20 PUSH1 0x4 DUP3 ADD MSTORE PUSH1 0x25 PUSH1 0x24 DUP3 ADD MSTORE PUSH32 0x45524332303A2064656372656173656420616C6C6F77616E63652062656C6F77 PUSH1 0x44 DUP3 ADD MSTORE PUSH5 0x207A65726F PUSH1 0xD8 SHL PUSH1 0x64 DUP3 ADD MSTORE PUSH1 0x84 ADD PUSH2 0x4EA JUMP JUMPDEST PUSH2 0x423 DUP3 DUP7 DUP7 DUP5 SUB PUSH2 0x9E4 JUMP JUMPDEST PUSH0 CALLER PUSH2 0x3FF DUP2 DUP6 DUP6 PUSH2 0xB79 JUMP JUMPDEST PUSH1 0x1 PUSH1 0x1 PUSH1 0xA0 SHL SUB SWAP2 DUP3 AND PUSH0 SWAP1 DUP2 MSTORE PUSH1 0x1 PUSH1 0x20 SWAP1 DUP2 MSTORE PUSH1 0x40 DUP1 DUP4 KECCAK256 SWAP4 SWAP1 SWAP5 AND DUP3 MSTORE SWAP2 SWAP1 SWAP2 MSTORE KECCAK256 SLOAD SWAP1 JUMP JUMPDEST PUSH2 0x803 PUSH2 0xE44 JUMP JUMPDEST PUSH1 0x1 PUSH1 0x1 PUSH1 0xA0 SHL SUB DUP2 AND PUSH2 0x868 JUMPI PUSH1 0x40 MLOAD PUSH3 0x461BCD PUSH1 0xE5 SHL DUP2 MSTORE PUSH1 0x20 PUSH1 0x4 DUP3 ADD MSTORE PUSH1 0x26 PUSH1 0x24 DUP3 ADD MSTORE PUSH32 0x4F776E61626C653A206E6577206F776E657220697320746865207A65726F2061 PUSH1 0x44 DUP3 ADD MSTORE PUSH6 0x646472657373 PUSH1 0xD0 SHL PUSH1 0x64 DUP3 ADD MSTORE PUSH1 0x84 ADD PUSH2 0x4EA JUMP JUMPDEST PUSH2 0x871 DUP2 PUSH2 0xE9E JUMP JUMPDEST POP JUMP JUMPDEST CALLER PUSH0 SWAP1 DUP2 MSTORE PUSH1 0x20 DUP2 SWAP1 MSTORE PUSH1 0x40 SWAP1 KECCAK256 SLOAD DUP3 GT ISZERO PUSH2 0x8D2 JUMPI PUSH1 0x40 MLOAD PUSH3 0x461BCD PUSH1 0xE5 SHL DUP2 MSTORE PUSH1 0x20 PUSH1 0x4 DUP3 ADD MSTORE PUSH1 0x1F PUSH1 0x24 DUP3 ADD MSTORE PUSH32 0x496E73756666696369656E742053535420746F6B656E7320746F206275726E00 PUSH1 0x44 DUP3 ADD MSTORE PUSH1 0x64 ADD PUSH2 0x4EA JUMP JUMPDEST PUSH2 0x8DC CALLER DUP4 PUSH2 0xEEF JUMP JUMPDEST PUSH0 PUSH2 0x8EE PUSH7 0x265E8AF393000 DUP5 PUSH2 0x11E4 JUMP JUMPDEST SWAP1 POP DUP1 SELFBALANCE LT ISZERO PUSH2 0x94A JUMPI PUSH1 0x40 MLOAD PUSH3 0x461BCD PUSH1 0xE5 SHL DUP2 MSTORE PUSH1 0x20 PUSH1 0x4 DUP3 ADD MSTORE PUSH1 0x21 PUSH1 0x24 DUP3 ADD MSTORE PUSH32 0x436F6E747261637420646F6573206E6F74206861766520656E6F756768204554 PUSH1 0x44 DUP3 ADD MSTORE PUSH1 0x9 PUSH1 0xFB SHL PUSH1 0x64 DUP3 ADD MSTORE PUSH1 0x84 ADD PUSH2 0x4EA JUMP JUMPDEST PUSH0 DUP3 PUSH1 0x1 PUSH1 0x1 PUSH1 0xA0 SHL SUB AND DUP3 PUSH1 0x40 MLOAD PUSH0 PUSH1 0x40 MLOAD DUP1 DUP4 SUB DUP2 DUP6 DUP8 GAS CALL SWAP3 POP POP POP RETURNDATASIZE DUP1 PUSH0 DUP2 EQ PUSH2 0x993 JUMPI PUSH1 0x40 MLOAD SWAP2 POP PUSH1 0x1F NOT PUSH1 0x3F RETURNDATASIZE ADD AND DUP3 ADD PUSH1 0x40 MSTORE RETURNDATASIZE DUP3 MSTORE RETURNDATASIZE PUSH0 PUSH1 0x20 DUP5 ADD RETURNDATACOPY PUSH2 0x998 JUMP JUMPDEST PUSH1 0x60 SWAP2 POP JUMPDEST POP POP SWAP1 POP DUP1 PUSH2 0x9DE JUMPI PUSH1 0x40 MLOAD PUSH3 0x461BCD PUSH1 0xE5 SHL DUP2 MSTORE PUSH1 0x20 PUSH1 0x4 DUP3 ADD MSTORE PUSH1 0x12 PUSH1 0x24 DUP3 ADD MSTORE PUSH18 0x8CC2D2D8CAC840E8DE40E6CADCC8408AA89 PUSH1 0x73 SHL PUSH1 0x44 DUP3 ADD MSTORE PUSH1 0x64 ADD PUSH2 0x4EA JUMP JUMPDEST POP POP POP POP JUMP JUMPDEST PUSH1 0x1 PUSH1 0x1 PUSH1 0xA0 SHL SUB DUP4 AND PUSH2 0xA46 JUMPI PUSH1 0x40 MLOAD PUSH3 0x461BCD PUSH1 0xE5 SHL DUP2 MSTORE PUSH1 0x20 PUSH1 0x4 DUP3 ADD MSTORE PUSH1 0x24 DUP1 DUP3 ADD MSTORE PUSH32 0x45524332303A20617070726F76652066726F6D20746865207A65726F20616464 PUSH1 0x44 DUP3 ADD MSTORE PUSH4 0x72657373 PUSH1 0xE0 SHL PUSH1 0x64 DUP3 ADD MSTORE PUSH1 0x84 ADD PUSH2 0x4EA JUMP JUMPDEST PUSH1 0x1 PUSH1 0x1 PUSH1 0xA0 SHL SUB DUP3 AND PUSH2 0xAA7 JUMPI PUSH1 0x40 MLOAD PUSH3 0x461BCD PUSH1 0xE5 SHL DUP2 MSTORE PUSH1 0x20 PUSH1 0x4 DUP3 ADD MSTORE PUSH1 0x22 PUSH1 0x24 DUP3 ADD MSTORE PUSH32 0x45524332303A20617070726F766520746F20746865207A65726F206164647265 PUSH1 0x44 DUP3 ADD MSTORE PUSH2 0x7373 PUSH1 0xF0 SHL PUSH1 0x64 DUP3 ADD MSTORE PUSH1 0x84 ADD PUSH2 0x4EA JUMP JUMPDEST PUSH1 0x1 PUSH1 0x1 PUSH1 0xA0 SHL SUB DUP4 DUP2 AND PUSH0 DUP2 DUP2 MSTORE PUSH1 0x1 PUSH1 0x20 SWAP1 DUP2 MSTORE PUSH1 0x40 DUP1 DUP4 KECCAK256 SWAP5 DUP8 AND DUP1 DUP5 MSTORE SWAP5 DUP3 MSTORE SWAP2 DUP3 SWAP1 KECCAK256 DUP6 SWAP1 SSTORE SWAP1 MLOAD DUP5 DUP2 MSTORE PUSH32 0x8C5BE1E5EBEC7D5BD14F71427D1E84F3DD0314C0F7B2291E5B200AC8C7C3B925 SWAP2 ADD PUSH1 0x40 MLOAD DUP1 SWAP2 SUB SWAP1 LOG3 POP POP POP JUMP JUMPDEST PUSH0 PUSH2 0xB12 DUP5 DUP5 PUSH2 0x7D1 JUMP JUMPDEST SWAP1 POP PUSH0 NOT DUP2 EQ PUSH2 0x9DE JUMPI DUP2 DUP2 LT ISZERO PUSH2 0xB6C JUMPI PUSH1 0x40 MLOAD PUSH3 0x461BCD PUSH1 0xE5 SHL DUP2 MSTORE PUSH1 0x20 PUSH1 0x4 DUP3 ADD MSTORE PUSH1 0x1D PUSH1 0x24 DUP3 ADD MSTORE PUSH32 0x45524332303A20696E73756666696369656E7420616C6C6F77616E6365000000 PUSH1 0x44 DUP3 ADD MSTORE PUSH1 0x64 ADD PUSH2 0x4EA JUMP JUMPDEST PUSH2 0x9DE DUP5 DUP5 DUP5 DUP5 SUB PUSH2 0x9E4 JUMP JUMPDEST PUSH1 0x1 PUSH1 0x1 PUSH1 0xA0 SHL SUB DUP4 AND PUSH2 0xBDD JUMPI PUSH1 0x40 MLOAD PUSH3 0x461BCD PUSH1 0xE5 SHL DUP2 MSTORE PUSH1 0x20 PUSH1 0x4 DUP3 ADD MSTORE PUSH1 0x25 PUSH1 0x24 DUP3 ADD MSTORE PUSH32 0x45524332303A207472616E736665722066726F6D20746865207A65726F206164 PUSH1 0x44 DUP3 ADD MSTORE PUSH5 0x6472657373 PUSH1 0xD8 SHL PUSH1 0x64 DUP3 ADD MSTORE PUSH1 0x84 ADD PUSH2 0x4EA JUMP JUMPDEST PUSH1 0x1 PUSH1 0x1 PUSH1 0xA0 SHL SUB DUP3 AND PUSH2 0xC3F JUMPI PUSH1 0x40 MLOAD PUSH3 0x461BCD PUSH1 0xE5 SHL DUP2 MSTORE PUSH1 0x20 PUSH1 0x4 DUP3 ADD MSTORE PUSH1 0x23 PUSH1 0x24 DUP3 ADD MSTORE PUSH32 0x45524332303A207472616E7366657220746F20746865207A65726F2061646472 PUSH1 0x44 DUP3 ADD MSTORE PUSH3 0x657373 PUSH1 0xE8 SHL PUSH1 0x64 DUP3 ADD MSTORE PUSH1 0x84 ADD PUSH2 0x4EA JUMP JUMPDEST PUSH2 0xC4A DUP4 DUP4 DUP4 PUSH2 0x735 JUMP JUMPDEST PUSH1 0x1 PUSH1 0x1 PUSH1 0xA0 SHL SUB DUP4 AND PUSH0 SWAP1 DUP2 MSTORE PUSH1 0x20 DUP2 SWAP1 MSTORE PUSH1 0x40 SWAP1 KECCAK256 SLOAD DUP2 DUP2 LT ISZERO PUSH2 0xCC1 JUMPI PUSH1 0x40 MLOAD PUSH3 0x461BCD PUSH1 0xE5 SHL DUP2 MSTORE PUSH1 0x20 PUSH1 0x4 DUP3 ADD MSTORE PUSH1 0x26 PUSH1 0x24 DUP3 ADD MSTORE PUSH32 0x45524332303A207472616E7366657220616D6F756E7420657863656564732062 PUSH1 0x44 DUP3 ADD MSTORE PUSH6 0x616C616E6365 PUSH1 0xD0 SHL PUSH1 0x64 DUP3 ADD MSTORE PUSH1 0x84 ADD PUSH2 0x4EA JUMP JUMPDEST PUSH1 0x1 PUSH1 0x1 PUSH1 0xA0 SHL SUB DUP1 DUP6 AND PUSH0 SWAP1 DUP2 MSTORE PUSH1 0x20 DUP2 SWAP1 MSTORE PUSH1 0x40 DUP1 DUP3 KECCAK256 DUP6 DUP6 SUB SWAP1 SSTORE SWAP2 DUP6 AND DUP2 MSTORE SWAP1 DUP2 KECCAK256 DUP1 SLOAD DUP5 SWAP3 SWAP1 PUSH2 0xCF7 SWAP1 DUP5 SWAP1 PUSH2 0x11D1 JUMP JUMPDEST SWAP3 POP POP DUP2 SWAP1 SSTORE POP DUP3 PUSH1 0x1 PUSH1 0x1 PUSH1 0xA0 SHL SUB AND DUP5 PUSH1 0x1 PUSH1 0x1 PUSH1 0xA0 SHL SUB AND PUSH32 0xDDF252AD1BE2C89B69C2B068FC378DAA952BA7F163C4A11628F55A4DF523B3EF DUP5 PUSH1 0x40 MLOAD PUSH2 0xD43 SWAP2 DUP2 MSTORE PUSH1 0x20 ADD SWAP1 JUMP JUMPDEST PUSH1 0x40 MLOAD DUP1 SWAP2 SUB SWAP1 LOG3 PUSH2 0x9DE DUP5 DUP5 DUP5 PUSH2 0x735 JUMP JUMPDEST PUSH1 0x1 PUSH1 0x1 PUSH1 0xA0 SHL SUB DUP3 AND PUSH2 0xDAC JUMPI PUSH1 0x40 MLOAD PUSH3 0x461BCD PUSH1 0xE5 SHL DUP2 MSTORE PUSH1 0x20 PUSH1 0x4 DUP3 ADD MSTORE PUSH1 0x1F PUSH1 0x24 DUP3 ADD MSTORE PUSH32 0x45524332303A206D696E7420746F20746865207A65726F206164647265737300 PUSH1 0x44 DUP3 ADD MSTORE PUSH1 0x64 ADD PUSH2 0x4EA JUMP JUMPDEST PUSH2 0xDB7 PUSH0 DUP4 DUP4 PUSH2 0x735 JUMP JUMPDEST DUP1 PUSH1 0x2 PUSH0 DUP3 DUP3 SLOAD PUSH2 0xDC8 SWAP2 SWAP1 PUSH2 0x11D1 JUMP JUMPDEST SWAP1 SWAP2 SSTORE POP POP PUSH1 0x1 PUSH1 0x1 PUSH1 0xA0 SHL SUB DUP3 AND PUSH0 SWAP1 DUP2 MSTORE PUSH1 0x20 DUP2 SWAP1 MSTORE PUSH1 0x40 DUP2 KECCAK256 DUP1 SLOAD DUP4 SWAP3 SWAP1 PUSH2 0xDF4 SWAP1 DUP5 SWAP1 PUSH2 0x11D1 JUMP JUMPDEST SWAP1 SWAP2 SSTORE POP POP PUSH1 0x40 MLOAD DUP2 DUP2 MSTORE PUSH1 0x1 PUSH1 0x1 PUSH1 0xA0 SHL SUB DUP4 AND SWAP1 PUSH0 SWAP1 PUSH32 0xDDF252AD1BE2C89B69C2B068FC378DAA952BA7F163C4A11628F55A4DF523B3EF SWAP1 PUSH1 0x20 ADD PUSH1 0x40 MLOAD DUP1 SWAP2 SUB SWAP1 LOG3 PUSH2 0x737 PUSH0 DUP4 DUP4 PUSH2 0x735 JUMP JUMPDEST PUSH1 0x5 SLOAD PUSH1 0x1 PUSH1 0x1 PUSH1 0xA0 SHL SUB AND CALLER EQ PUSH2 0x662 JUMPI PUSH1 0x40 MLOAD PUSH3 0x461BCD PUSH1 0xE5 SHL DUP2 MSTORE PUSH1 0x20 PUSH1 0x4 DUP3 ADD DUP2 SWAP1 MSTORE PUSH1 0x24 DUP3 ADD MSTORE PUSH32 0x4F776E61626C653A2063616C6C6572206973206E6F7420746865206F776E6572 PUSH1 0x44 DUP3 ADD MSTORE PUSH1 0x64 ADD PUSH2 0x4EA JUMP JUMPDEST PUSH1 0x5 DUP1 SLOAD PUSH1 0x1 PUSH1 0x1 PUSH1 0xA0 SHL SUB DUP4 DUP2 AND PUSH1 0x1 PUSH1 0x1 PUSH1 0xA0 SHL SUB NOT DUP4 AND DUP2 OR SWAP1 SWAP4 SSTORE PUSH1 0x40 MLOAD SWAP2 AND SWAP2 SWAP1 DUP3 SWAP1 PUSH32 0x8BE0079C531659141344CD1FD0A4F28419497F9722A3DAAFE3B4186F6B6457E0 SWAP1 PUSH0 SWAP1 LOG3 POP POP JUMP JUMPDEST PUSH1 0x1 PUSH1 0x1 PUSH1 0xA0 SHL SUB DUP3 AND PUSH2 0xF4F JUMPI PUSH1 0x40 MLOAD PUSH3 0x461BCD PUSH1 0xE5 SHL DUP2 MSTORE PUSH1 0x20 PUSH1 0x4 DUP3 ADD MSTORE PUSH1 0x21 PUSH1 0x24 DUP3 ADD MSTORE PUSH32 0x45524332303A206275726E2066726F6D20746865207A65726F20616464726573 PUSH1 0x44 DUP3 ADD MSTORE PUSH1 0x73 PUSH1 0xF8 SHL PUSH1 0x64 DUP3 ADD MSTORE PUSH1 0x84 ADD PUSH2 0x4EA JUMP JUMPDEST PUSH2 0xF5A DUP3 PUSH0 DUP4 PUSH2 0x735 JUMP JUMPDEST PUSH1 0x1 PUSH1 0x1 PUSH1 0xA0 SHL SUB DUP3 AND PUSH0 SWAP1 DUP2 MSTORE PUSH1 0x20 DUP2 SWAP1 MSTORE PUSH1 0x40 SWAP1 KECCAK256 SLOAD DUP2 DUP2 LT ISZERO PUSH2 0xFCD JUMPI PUSH1 0x40 MLOAD PUSH3 0x461BCD PUSH1 0xE5 SHL DUP2 MSTORE PUSH1 0x20 PUSH1 0x4 DUP3 ADD MSTORE PUSH1 0x22 PUSH1 0x24 DUP3 ADD MSTORE PUSH32 0x45524332303A206275726E20616D6F756E7420657863656564732062616C616E PUSH1 0x44 DUP3 ADD MSTORE PUSH2 0x6365 PUSH1 0xF0 SHL PUSH1 0x64 DUP3 ADD MSTORE PUSH1 0x84 ADD PUSH2 0x4EA JUMP JUMPDEST PUSH1 0x1 PUSH1 0x1 PUSH1 0xA0 SHL SUB DUP4 AND PUSH0 SWAP1 DUP2 MSTORE PUSH1 0x20 DUP2 SWAP1 MSTORE PUSH1 0x40 DUP2 KECCAK256 DUP4 DUP4 SUB SWAP1 SSTORE PUSH1 0x2 DUP1 SLOAD DUP5 SWAP3 SWAP1 PUSH2 0xFFB SWAP1 DUP5 SWAP1 PUSH2 0x121A JUMP JUMPDEST SWAP1 SWAP2 SSTORE POP POP PUSH1 0x40 MLOAD DUP3 DUP2 MSTORE PUSH0 SWAP1 PUSH1 0x1 PUSH1 0x1 PUSH1 0xA0 SHL SUB DUP6 AND SWAP1 PUSH32 0xDDF252AD1BE2C89B69C2B068FC378DAA952BA7F163C4A11628F55A4DF523B3EF SWAP1 PUSH1 0x20 ADD PUSH1 0x40 MLOAD DUP1 SWAP2 SUB SWAP1 LOG3 PUSH2 0x735 DUP4 PUSH0 DUP5 PUSH2 0x735 JUMP JUMPDEST PUSH0 PUSH1 0x20 DUP1 DUP4 MSTORE DUP4 MLOAD DUP1 PUSH1 0x20 DUP6 ADD MSTORE PUSH0 JUMPDEST DUP2 DUP2 LT ISZERO PUSH2 0x1077 JUMPI DUP6 DUP2 ADD DUP4 ADD MLOAD DUP6 DUP3 ADD PUSH1 0x40 ADD MSTORE DUP3 ADD PUSH2 0x105B JUMP JUMPDEST POP PUSH0 PUSH1 0x40 DUP3 DUP7 ADD ADD MSTORE PUSH1 0x40 PUSH1 0x1F NOT PUSH1 0x1F DUP4 ADD AND DUP6 ADD ADD SWAP3 POP POP POP SWAP3 SWAP2 POP POP JUMP JUMPDEST DUP1 CALLDATALOAD PUSH1 0x1 PUSH1 0x1 PUSH1 0xA0 SHL SUB DUP2 AND DUP2 EQ PUSH2 0x10AD JUMPI PUSH0 DUP1 REVERT JUMPDEST SWAP2 SWAP1 POP JUMP JUMPDEST PUSH0 DUP1 PUSH1 0x40 DUP4 DUP6 SUB SLT ISZERO PUSH2 0x10C3 JUMPI PUSH0 DUP1 REVERT JUMPDEST PUSH2 0x10CC DUP4 PUSH2 0x1097 JUMP JUMPDEST SWAP5 PUSH1 0x20 SWAP4 SWAP1 SWAP4 ADD CALLDATALOAD SWAP4 POP POP POP JUMP JUMPDEST PUSH0 DUP1 PUSH0 PUSH1 0x60 DUP5 DUP7 SUB SLT ISZERO PUSH2 0x10EC JUMPI PUSH0 DUP1 REVERT JUMPDEST PUSH2 0x10F5 DUP5 PUSH2 0x1097 JUMP JUMPDEST SWAP3 POP PUSH2 0x1103 PUSH1 0x20 DUP6 ADD PUSH2 0x1097 JUMP JUMPDEST SWAP2 POP PUSH1 0x40 DUP5 ADD CALLDATALOAD SWAP1 POP SWAP3 POP SWAP3 POP SWAP3 JUMP JUMPDEST PUSH0 DUP1 PUSH1 0x40 DUP4 DUP6 SUB SLT ISZERO PUSH2 0x1124 JUMPI PUSH0 DUP1 REVERT JUMPDEST DUP3 CALLDATALOAD SWAP2 POP PUSH2 0x1134 PUSH1 0x20 DUP5 ADD PUSH2 0x1097 JUMP JUMPDEST SWAP1 POP SWAP3 POP SWAP3 SWAP1 POP JUMP JUMPDEST PUSH0 PUSH1 0x20 DUP3 DUP5 SUB SLT ISZERO PUSH2 0x114D JUMPI PUSH0 DUP1 REVERT JUMPDEST PUSH2 0x1156 DUP3 PUSH2 0x1097 JUMP JUMPDEST SWAP4 SWAP3 POP POP POP JUMP JUMPDEST PUSH0 DUP1 PUSH1 0x40 DUP4 DUP6 SUB SLT ISZERO PUSH2 0x116E JUMPI PUSH0 DUP1 REVERT JUMPDEST PUSH2 0x1177 DUP4 PUSH2 0x1097 JUMP JUMPDEST SWAP2 POP PUSH2 0x1134 PUSH1 0x20 DUP5 ADD PUSH2 0x1097 JUMP JUMPDEST PUSH1 0x1 DUP2 DUP2 SHR SWAP1 DUP3 AND DUP1 PUSH2 0x1199 JUMPI PUSH1 0x7F DUP3 AND SWAP2 POP JUMPDEST PUSH1 0x20 DUP3 LT DUP2 SUB PUSH2 0x11B7 JUMPI PUSH4 0x4E487B71 PUSH1 0xE0 SHL PUSH0 MSTORE PUSH1 0x22 PUSH1 0x4 MSTORE PUSH1 0x24 PUSH0 REVERT JUMPDEST POP SWAP2 SWAP1 POP JUMP JUMPDEST PUSH4 0x4E487B71 PUSH1 0xE0 SHL PUSH0 MSTORE PUSH1 0x11 PUSH1 0x4 MSTORE PUSH1 0x24 PUSH0 REVERT JUMPDEST DUP1 DUP3 ADD DUP1 DUP3 GT ISZERO PUSH2 0x405 JUMPI PUSH2 0x405 PUSH2 0x11BD JUMP JUMPDEST DUP1 DUP3 MUL DUP2 ISZERO DUP3 DUP3 DIV DUP5 EQ OR PUSH2 0x405 JUMPI PUSH2 0x405 PUSH2 0x11BD JUMP JUMPDEST PUSH0 DUP3 PUSH2 0x1215 JUMPI PUSH4 0x4E487B71 PUSH1 0xE0 SHL PUSH0 MSTORE PUSH1 0x12 PUSH1 0x4 MSTORE PUSH1 0x24 PUSH0 REVERT JUMPDEST POP DIV SWAP1 JUMP JUMPDEST DUP2 DUP2 SUB DUP2 DUP2 GT ISZERO PUSH2 0x405 JUMPI PUSH2 0x405 PUSH2 0x11BD JUMP INVALID LOG2 PUSH5 0x6970667358 0x22 SLT KECCAK256 DUP4 SSTORE PUSH18 0xCFC45DF3D88E88DEEAE5F330FC627FEF9889 SAR 0xCE 0xF6 0xE9 SWAP11 CREATE2 0xC2 PUSH28 0x682A5464736F6C634300081800330000000000000000000000000000 "
				},
				"gasEstimates": {
					"creation": {
						"codeDepositCost": "941400",
						"executionCost": "infinite",
						"totalCost": "infinite"
					},
					"external": {
						"GAS_FEE_TAP()": "305",
						"MINT_PRICE_PER_TOKEN()": "240",
						"allowance(address,address)": "infinite",
						"approve(address,uint256)": "24669",
						"balanceOf(address)": "2560",
						"burn(uint256,address)": "infinite",
						"decimals()": "221",
						"decreaseAllowance(address,uint256)": "26967",
						"increaseAllowance(address,uint256)": "infinite",
						"mint(uint256,address)": "infinite",
						"mintWithGasTap(uint256,address)": "infinite",
						"name()": "infinite",
						"owner()": "2367",
						"renounceOwnership()": "infinite",
						"symbol()": "infinite",
						"totalSupply()": "2381",
						"transfer(address,uint256)": "infinite",
						"transferFrom(address,address,uint256)": "infinite",
						"transferOwnership(address)": "28421"
					}
				},
				"methodIdentifiers": {
					"GAS_FEE_TAP()": "695d2f13",
					"MINT_PRICE_PER_TOKEN()": "0802c2cd",
					"allowance(address,address)": "dd62ed3e",
					"approve(address,uint256)": "095ea7b3",
					"balanceOf(address)": "70a08231",
					"burn(uint256,address)": "fcd3533c",
					"decimals()": "313ce567",
					"decreaseAllowance(address,uint256)": "a457c2d7",
					"increaseAllowance(address,uint256)": "39509351",
					"mint(uint256,address)": "94bf804d",
					"mintWithGasTap(uint256,address)": "4fa1d436",
					"name()": "06fdde03",
					"owner()": "8da5cb5b",
					"renounceOwnership()": "715018a6",
					"symbol()": "95d89b41",
					"totalSupply()": "18160ddd",
					"transfer(address,uint256)": "a9059cbb",
					"transferFrom(address,address,uint256)": "23b872dd",
					"transferOwnership(address)": "f2fde38b"
				}
			},
			"storageLayout": {
				"storage": [
					{
						"astId": 128,
						"contract": "sosh/SST.sol:SST",
						"label": "_balances",
						"offset": 0,
						"slot": "0",
						"type": "t_mapping(t_address,t_uint256)"
					},
					{
						"astId": 134,
						"contract": "sosh/SST.sol:SST",
						"label": "_allowances",
						"offset": 0,
						"slot": "1",
						"type": "t_mapping(t_address,t_mapping(t_address,t_uint256))"
					},
					{
						"astId": 136,
						"contract": "sosh/SST.sol:SST",
						"label": "_totalSupply",
						"offset": 0,
						"slot": "2",
						"type": "t_uint256"
					},
					{
						"astId": 138,
						"contract": "sosh/SST.sol:SST",
						"label": "_name",
						"offset": 0,
						"slot": "3",
						"type": "t_string_storage"
					},
					{
						"astId": 140,
						"contract": "sosh/SST.sol:SST",
						"label": "_symbol",
						"offset": 0,
						"slot": "4",
						"type": "t_string_storage"
					},
					{
						"astId": 7,
						"contract": "sosh/SST.sol:SST",
						"label": "_owner",
						"offset": 0,
						"slot": "5",
						"type": "t_address"
					}
				],
				"types": {
					"t_address": {
						"encoding": "inplace",
						"label": "address",
						"numberOfBytes": "20"
					},
					"t_mapping(t_address,t_mapping(t_address,t_uint256))": {
						"encoding": "mapping",
						"key": "t_address",
						"label": "mapping(address => mapping(address => uint256))",
						"numberOfBytes": "32",
						"value": "t_mapping(t_address,t_uint256)"
					},
					"t_mapping(t_address,t_uint256)": {
						"encoding": "mapping",
						"key": "t_address",
						"label": "mapping(address => uint256)",
						"numberOfBytes": "32",
						"value": "t_uint256"
					},
					"t_string_storage": {
						"encoding": "bytes",
						"label": "string",
						"numberOfBytes": "32"
					},
					"t_uint256": {
						"encoding": "inplace",
						"label": "uint256",
						"numberOfBytes": "32"
					}
				}
			},
			"userdoc": {
				"kind": "user",
				"methods": {},
				"version": 1
			}
		}
	}
}