{
	"sosh/FuzzMath.sol": {
		"FuzzyMath": {
			"abi": [
				{
					"inputs": [
						{
							"internalType": "uint256",
							"name": "x",
							"type": "uint256"
						},
						{
							"internalType": "uint8",
							"name": "a",
							"type": "uint8"
						},
						{
							"internalType": "uint8",
							"name": "b",
							"type": "uint8"
						}
					],
					"name": "fraxExp",
					"outputs": [
						{
							"internalType": "uint256",
							"name": "ans",
							"type": "uint256"
						}
					],
					"stateMutability": "pure",
					"type": "function"
				},
				{
					"inputs": [
						{
							"internalType": "uint256",
							"name": "x",
							"type": "uint256"
						}
					],
					"name": "sqrt",
					"outputs": [
						{
							"internalType": "uint256",
							"name": "ans",
							"type": "uint256"
						}
					],
					"stateMutability": "pure",
					"type": "function"
				}
			],
			"devdoc": {
				"details": "provides some functions for maths that are illegal under solidity rules",
				"kind": "dev",
				"methods": {
					"fraxExp(uint256,uint8,uint8)": {
						"details": "estimates the equation f(x) = x^(a/b)^ does so by calculating subtotal x^a^ and iterating to the b-root of that subtotal using a generalized form of the Babylonian Method (rounded down to nearest whole #) https://www.researchgate.net/publication/237415858_EXTENDING_THE_BABYLONIAN_ALGORITHM e NOTE: greater inputs could be considered if this function were used to estimate exponential mappings with a limited number of sig-figs"
					},
					"sqrt(uint256)": {
						"details": "estimates the square root of an input using Babylonian Method (not much more performant on large numbers, due to lack of tight est bounding) https://www.cs.utep.edu/vladik/2009/olg09-05a.pdf"
					}
				},
				"version": 1
			},
			"evm": {
				"assembly": "    /* \"sosh/FuzzMath.sol\":180:3190  library FuzzyMath {... */\n  dataSize(sub_0)\n  dataOffset(sub_0)\n  0x0b\n  dup3\n  dup3\n  dup3\n  codecopy\n  dup1\n  mload\n  0x00\n  byte\n  0x73\n  eq\n  tag_1\n  jumpi\n  mstore(0x00, 0x4e487b7100000000000000000000000000000000000000000000000000000000)\n  mstore(0x04, 0x00)\n  revert(0x00, 0x24)\ntag_1:\n  mstore(0x00, address)\n  0x73\n  dup2\n  mstore8\n  dup3\n  dup2\n  return\nstop\n\nsub_0: assembly {\n        /* \"sosh/FuzzMath.sol\":180:3190  library FuzzyMath {... */\n      eq(address, deployTimeAddress())\n      mstore(0x40, 0x80)\n      jumpi(tag_1, lt(calldatasize, 0x04))\n      shr(0xe0, calldataload(0x00))\n      dup1\n      0x677342ce\n      eq\n      tag_2\n      jumpi\n      dup1\n      0xd2b5a370\n      eq\n      tag_3\n      jumpi\n    tag_1:\n      0x00\n      dup1\n      revert\n        /* \"sosh/FuzzMath.sol\":2903:3188  function sqrt(uint x) public pure returns (uint ans) {... */\n    tag_2:\n      tag_4\n      0x04\n      dup1\n      calldatasize\n      sub\n      dup2\n      add\n      swap1\n      tag_5\n      swap2\n      swap1\n      tag_6\n      jump\t// in\n    tag_5:\n      tag_7\n      jump\t// in\n    tag_4:\n      mload(0x40)\n      tag_8\n      swap2\n      swap1\n      tag_9\n      jump\t// in\n    tag_8:\n      mload(0x40)\n      dup1\n      swap2\n      sub\n      swap1\n      return\n        /* \"sosh/FuzzMath.sol\":705:2664  function fraxExp(uint x, uint8 a, uint8 b) external pure returns (uint ans)  {... */\n    tag_3:\n      tag_10\n      0x04\n      dup1\n      calldatasize\n      sub\n      dup2\n      add\n      swap1\n      tag_11\n      swap2\n      swap1\n      tag_12\n      jump\t// in\n    tag_11:\n      tag_13\n      jump\t// in\n    tag_10:\n      mload(0x40)\n      tag_14\n      swap2\n      swap1\n      tag_9\n      jump\t// in\n    tag_14:\n      mload(0x40)\n      dup1\n      swap2\n      sub\n      swap1\n      return\n        /* \"sosh/FuzzMath.sol\":2903:3188  function sqrt(uint x) public pure returns (uint ans) {... */\n    tag_7:\n        /* \"sosh/FuzzMath.sol\":2946:2954  uint ans */\n      0x00\n        /* \"sosh/FuzzMath.sol\":2996:2997  x */\n      dup2\n        /* \"sosh/FuzzMath.sol\":2990:2997  ans = x */\n      swap1\n      pop\n        /* \"sosh/FuzzMath.sol\":3011:3019  uint est */\n      0x00\n        /* \"sosh/FuzzMath.sol\":3032:3033  2 */\n      0x02\n        /* \"sosh/FuzzMath.sol\":3027:3028  1 */\n      0x01\n        /* \"sosh/FuzzMath.sol\":3023:3024  x */\n      dup5\n        /* \"sosh/FuzzMath.sol\":3023:3028  x + 1 */\n      add\n        /* \"sosh/FuzzMath.sol\":3022:3033  (x + 1) / 2 */\n      dup2\n      tag_16\n      jumpi\n      tag_17\n      tag_18\n      jump\t// in\n    tag_17:\n    tag_16:\n      div\n        /* \"sosh/FuzzMath.sol\":3011:3033  uint est = (x + 1) / 2 */\n      swap1\n      pop\n        /* \"sosh/FuzzMath.sol\":3082:3172  while (est < ans) {... */\n    tag_19:\n        /* \"sosh/FuzzMath.sol\":3095:3098  ans */\n      dup2\n        /* \"sosh/FuzzMath.sol\":3089:3092  est */\n      dup2\n        /* \"sosh/FuzzMath.sol\":3089:3098  est < ans */\n      lt\n        /* \"sosh/FuzzMath.sol\":3082:3172  while (est < ans) {... */\n      iszero\n      tag_20\n      jumpi\n        /* \"sosh/FuzzMath.sol\":3132:3135  est */\n      dup1\n        /* \"sosh/FuzzMath.sol\":3155:3156  2 */\n      0x02\n        /* \"sosh/FuzzMath.sol\":3148:3151  est */\n      dup3\n        /* \"sosh/FuzzMath.sol\":3142:3145  est */\n      dup4\n        /* \"sosh/FuzzMath.sol\":3138:3139  x */\n      dup7\n        /* \"sosh/FuzzMath.sol\":3138:3145  x / est */\n      dup2\n      tag_21\n      jumpi\n      tag_22\n      tag_18\n      jump\t// in\n    tag_22:\n    tag_21:\n      div\n        /* \"sosh/FuzzMath.sol\":3138:3151  x / est + est */\n      add\n        /* \"sosh/FuzzMath.sol\":3137:3156  (x / est + est) / 2 */\n      dup2\n      tag_23\n      jumpi\n      tag_24\n      tag_18\n      jump\t// in\n    tag_24:\n    tag_23:\n      div\n        /* \"sosh/FuzzMath.sol\":3118:3157  (ans, est) = (est, (x / est + est) / 2) */\n      dup1\n      swap3\n      pop\n      dup2\n      swap4\n      pop\n      pop\n      pop\n        /* \"sosh/FuzzMath.sol\":3082:3172  while (est < ans) {... */\n      jump(tag_19)\n    tag_20:\n        /* \"sosh/FuzzMath.sol\":2966:3182  unchecked {... */\n      pop\n        /* \"sosh/FuzzMath.sol\":2903:3188  function sqrt(uint x) public pure returns (uint ans) {... */\n      swap2\n      swap1\n      pop\n      jump\t// out\n        /* \"sosh/FuzzMath.sol\":705:2664  function fraxExp(uint x, uint8 a, uint8 b) external pure returns (uint ans)  {... */\n    tag_13:\n        /* \"sosh/FuzzMath.sol\":771:779  uint ans */\n      0x00\n        /* \"sosh/FuzzMath.sol\":861:863  10 */\n      0x0a\n        /* \"sosh/FuzzMath.sol\":857:858  b */\n      dup3\n        /* \"sosh/FuzzMath.sol\":857:863  b < 10 */\n      0xff\n      and\n      lt\n        /* \"sosh/FuzzMath.sol\":849:900  require(b < 10, \"need exponent denominator b < 10\") */\n      tag_26\n      jumpi\n      mload(0x40)\n      0x08c379a000000000000000000000000000000000000000000000000000000000\n      dup2\n      mstore\n      0x04\n      add\n      tag_27\n      swap1\n      tag_28\n      jump\t// in\n    tag_27:\n      mload(0x40)\n      dup1\n      swap2\n      sub\n      swap1\n      revert\n    tag_26:\n        /* \"sosh/FuzzMath.sol\":922:924  10 */\n      0x0a\n        /* \"sosh/FuzzMath.sol\":918:919  a */\n      dup4\n        /* \"sosh/FuzzMath.sol\":918:924  a < 10 */\n      0xff\n      and\n      lt\n        /* \"sosh/FuzzMath.sol\":910:959  require(a < 10, \"need exponent numerator a < 10\") */\n      tag_29\n      jumpi\n      mload(0x40)\n      0x08c379a000000000000000000000000000000000000000000000000000000000\n      dup2\n      mstore\n      0x04\n      add\n      tag_30\n      swap1\n      tag_31\n      jump\t// in\n    tag_30:\n      mload(0x40)\n      dup1\n      swap2\n      sub\n      swap1\n      revert\n    tag_29:\n        /* \"sosh/FuzzMath.sol\":981:991  1000000000 */\n      0x3b9aca00\n        /* \"sosh/FuzzMath.sol\":977:978  x */\n      dup5\n        /* \"sosh/FuzzMath.sol\":977:991  x < 1000000000 */\n      lt\n        /* \"sosh/FuzzMath.sol\":969:1016  require(x < 1000000000, \"maximum input is 1e9\") */\n      tag_32\n      jumpi\n      mload(0x40)\n      0x08c379a000000000000000000000000000000000000000000000000000000000\n      dup2\n      mstore\n      0x04\n      add\n      tag_33\n      swap1\n      tag_34\n      jump\t// in\n    tag_33:\n      mload(0x40)\n      dup1\n      swap2\n      sub\n      swap1\n      revert\n    tag_32:\n        /* \"sosh/FuzzMath.sol\":1133:1134  1 */\n      0x01\n        /* \"sosh/FuzzMath.sol\":1128:1129  x */\n      dup5\n        /* \"sosh/FuzzMath.sol\":1128:1134  x <= 1 */\n      gt\n        /* \"sosh/FuzzMath.sol\":1124:1144  if (x <= 1) return x */\n      tag_35\n      jumpi\n        /* \"sosh/FuzzMath.sol\":1143:1144  x */\n      dup4\n        /* \"sosh/FuzzMath.sol\":1136:1144  return x */\n      swap1\n      pop\n      jump(tag_25)\n        /* \"sosh/FuzzMath.sol\":1124:1144  if (x <= 1) return x */\n    tag_35:\n        /* \"sosh/FuzzMath.sol\":1171:1172  0 */\n      0x00\n        /* \"sosh/FuzzMath.sol\":1166:1167  b */\n      dup3\n        /* \"sosh/FuzzMath.sol\":1162:1167  a % b */\n      0xff\n      and\n        /* \"sosh/FuzzMath.sol\":1162:1163  a */\n      dup5\n        /* \"sosh/FuzzMath.sol\":1162:1167  a % b */\n      0xff\n      and\n      dup2\n      tag_36\n      jumpi\n      tag_37\n      tag_18\n      jump\t// in\n    tag_37:\n    tag_36:\n      mod\n        /* \"sosh/FuzzMath.sol\":1162:1172  a % b == 0 */\n      0xff\n      and\n      sub\n        /* \"sosh/FuzzMath.sol\":1158:1193  if (a % b == 0) return x ** (a / b) */\n      tag_38\n      jumpi\n        /* \"sosh/FuzzMath.sol\":1191:1192  b */\n      dup2\n        /* \"sosh/FuzzMath.sol\":1187:1192  a / b */\n      0xff\n      and\n        /* \"sosh/FuzzMath.sol\":1187:1188  a */\n      dup4\n        /* \"sosh/FuzzMath.sol\":1187:1192  a / b */\n      0xff\n      and\n      dup2\n      tag_39\n      jumpi\n      tag_40\n      tag_18\n      jump\t// in\n    tag_40:\n    tag_39:\n      div\n        /* \"sosh/FuzzMath.sol\":1181:1193  x ** (a / b) */\n      0xff\n      and\n        /* \"sosh/FuzzMath.sol\":1181:1182  x */\n      dup5\n        /* \"sosh/FuzzMath.sol\":1181:1193  x ** (a / b) */\n      exp\n        /* \"sosh/FuzzMath.sol\":1174:1193  return x ** (a / b) */\n      swap1\n      pop\n      jump(tag_25)\n        /* \"sosh/FuzzMath.sol\":1158:1193  if (a % b == 0) return x ** (a / b) */\n    tag_38:\n        /* \"sosh/FuzzMath.sol\":1220:1221  0 */\n      0x00\n        /* \"sosh/FuzzMath.sol\":1215:1216  a */\n      dup4\n        /* \"sosh/FuzzMath.sol\":1211:1216  b % a */\n      0xff\n      and\n        /* \"sosh/FuzzMath.sol\":1211:1212  b */\n      dup4\n        /* \"sosh/FuzzMath.sol\":1211:1216  b % a */\n      0xff\n      and\n      dup2\n      tag_41\n      jumpi\n      tag_42\n      tag_18\n      jump\t// in\n    tag_42:\n    tag_41:\n      mod\n        /* \"sosh/FuzzMath.sol\":1211:1221  b % a == 0 */\n      0xff\n      and\n      sub\n        /* \"sosh/FuzzMath.sol\":1207:1289  if (b % a == 0) { ... */\n      tag_43\n      jumpi\n        /* \"sosh/FuzzMath.sol\":1250:1251  a */\n      dup3\n        /* \"sosh/FuzzMath.sol\":1246:1251  b / a */\n      0xff\n      and\n        /* \"sosh/FuzzMath.sol\":1246:1247  b */\n      dup3\n        /* \"sosh/FuzzMath.sol\":1246:1251  b / a */\n      0xff\n      and\n      dup2\n      tag_44\n      jumpi\n      tag_45\n      tag_18\n      jump\t// in\n    tag_45:\n    tag_44:\n      div\n        /* \"sosh/FuzzMath.sol\":1242:1251  b = b / a */\n      swap2\n      pop\n        /* \"sosh/FuzzMath.sol\":1273:1274  1 */\n      0x01\n        /* \"sosh/FuzzMath.sol\":1269:1274  a = 1 */\n      swap3\n      pop\n        /* \"sosh/FuzzMath.sol\":1207:1289  if (b % a == 0) { ... */\n    tag_43:\n        /* \"sosh/FuzzMath.sol\":1302:1315  uint subTotal */\n      0x00\n        /* \"sosh/FuzzMath.sol\":1323:1324  1 */\n      0x01\n        /* \"sosh/FuzzMath.sol\":1319:1320  a */\n      dup5\n        /* \"sosh/FuzzMath.sol\":1319:1324  a > 1 */\n      0xff\n      and\n      gt\n        /* \"sosh/FuzzMath.sol\":1318:1336  (a > 1) ? x**a : x */\n      tag_46\n      jumpi\n        /* \"sosh/FuzzMath.sol\":1335:1336  x */\n      dup5\n        /* \"sosh/FuzzMath.sol\":1318:1336  (a > 1) ? x**a : x */\n      jump(tag_47)\n    tag_46:\n        /* \"sosh/FuzzMath.sol\":1331:1332  a */\n      dup4\n        /* \"sosh/FuzzMath.sol\":1328:1332  x**a */\n      0xff\n      and\n        /* \"sosh/FuzzMath.sol\":1328:1329  x */\n      dup6\n        /* \"sosh/FuzzMath.sol\":1328:1332  x**a */\n      exp\n        /* \"sosh/FuzzMath.sol\":1318:1336  (a > 1) ? x**a : x */\n    tag_47:\n        /* \"sosh/FuzzMath.sol\":1302:1336  uint subTotal = (a > 1) ? x**a : x */\n      swap1\n      pop\n        /* \"sosh/FuzzMath.sol\":1414:1415  2 */\n      0x02\n        /* \"sosh/FuzzMath.sol\":1409:1410  b */\n      dup4\n        /* \"sosh/FuzzMath.sol\":1409:1415  b == 2 */\n      0xff\n      and\n      sub\n        /* \"sosh/FuzzMath.sol\":1405:1438  if (b == 2) return sqrt(subTotal) */\n      tag_48\n      jumpi\n        /* \"sosh/FuzzMath.sol\":1424:1438  sqrt(subTotal) */\n      tag_49\n        /* \"sosh/FuzzMath.sol\":1429:1437  subTotal */\n      dup2\n        /* \"sosh/FuzzMath.sol\":1424:1428  sqrt */\n      tag_7\n        /* \"sosh/FuzzMath.sol\":1424:1438  sqrt(subTotal) */\n      jump\t// in\n    tag_49:\n        /* \"sosh/FuzzMath.sol\":1417:1438  return sqrt(subTotal) */\n      swap2\n      pop\n      pop\n      jump(tag_25)\n        /* \"sosh/FuzzMath.sol\":1405:1438  if (b == 2) return sqrt(subTotal) */\n    tag_48:\n        /* \"sosh/FuzzMath.sol\":1632:1649  uint8 stepSizePow */\n      0x00\n        /* \"sosh/FuzzMath.sol\":1652:1653  7 */\n      0x07\n        /* \"sosh/FuzzMath.sol\":1632:1653  uint8 stepSizePow = 7 */\n      swap1\n      pop\n        /* \"sosh/FuzzMath.sol\":1667:1681  uint8 guessMSB */\n      0x00\n        /* \"sosh/FuzzMath.sol\":1684:1687  128 */\n      0x80\n        /* \"sosh/FuzzMath.sol\":1667:1687  uint8 guessMSB = 128 */\n      swap1\n      pop\n        /* \"sosh/FuzzMath.sol\":1701:1970  while (stepSizePow > 2) {... */\n    tag_50:\n        /* \"sosh/FuzzMath.sol\":1722:1723  2 */\n      0x02\n        /* \"sosh/FuzzMath.sol\":1708:1719  stepSizePow */\n      dup3\n        /* \"sosh/FuzzMath.sol\":1708:1723  stepSizePow > 2 */\n      0xff\n      and\n      gt\n        /* \"sosh/FuzzMath.sol\":1701:1970  while (stepSizePow > 2) {... */\n      iszero\n      tag_51\n      jumpi\n        /* \"sosh/FuzzMath.sol\":1743:1756  stepSizePow-- */\n      dup2\n      dup1\n      0x01\n      swap1\n      sub\n      swap3\n      pop\n      pop\n        /* \"sosh/FuzzMath.sol\":1792:1800  subTotal */\n      dup3\n        /* \"sosh/FuzzMath.sol\":1781:1789  guessMSB */\n      dup2\n        /* \"sosh/FuzzMath.sol\":1778:1789  1<<guessMSB */\n      0xff\n      and\n        /* \"sosh/FuzzMath.sol\":1778:1779  1 */\n      0x01\n        /* \"sosh/FuzzMath.sol\":1778:1789  1<<guessMSB */\n      swap1\n      shl\n        /* \"sosh/FuzzMath.sol\":1778:1800  1<<guessMSB > subTotal */\n      gt\n        /* \"sosh/FuzzMath.sol\":1774:1956  if (1<<guessMSB > subTotal) {... */\n      iszero\n      tag_52\n      jumpi\n        /* \"sosh/FuzzMath.sol\":1846:1857  stepSizePow */\n      dup2\n        /* \"sosh/FuzzMath.sol\":1836:1857  uint8(1)<<stepSizePow */\n      0xff\n      and\n        /* \"sosh/FuzzMath.sol\":1842:1843  1 */\n      0x01\n        /* \"sosh/FuzzMath.sol\":1836:1857  uint8(1)<<stepSizePow */\n      0xff\n      and\n      swap1\n      shl\n        /* \"sosh/FuzzMath.sol\":1824:1857  guessMSB -= uint8(1)<<stepSizePow */\n      dup2\n      sub\n      swap1\n      pop\n        /* \"sosh/FuzzMath.sol\":1774:1956  if (1<<guessMSB > subTotal) {... */\n      jump(tag_53)\n    tag_52:\n        /* \"sosh/FuzzMath.sol\":1926:1937  stepSizePow */\n      dup2\n        /* \"sosh/FuzzMath.sol\":1916:1937  uint8(1)<<stepSizePow */\n      0xff\n      and\n        /* \"sosh/FuzzMath.sol\":1922:1923  1 */\n      0x01\n        /* \"sosh/FuzzMath.sol\":1916:1937  uint8(1)<<stepSizePow */\n      0xff\n      and\n      swap1\n      shl\n        /* \"sosh/FuzzMath.sol\":1904:1937  guessMSB += uint8(1)<<stepSizePow */\n      dup2\n      add\n      swap1\n      pop\n        /* \"sosh/FuzzMath.sol\":1774:1956  if (1<<guessMSB > subTotal) {... */\n    tag_53:\n        /* \"sosh/FuzzMath.sol\":1701:1970  while (stepSizePow > 2) {... */\n      jump(tag_50)\n    tag_51:\n        /* \"sosh/FuzzMath.sol\":2046:2047  0 */\n      0x00\n        /* \"sosh/FuzzMath.sol\":2035:2043  guessMSB */\n      dup2\n        /* \"sosh/FuzzMath.sol\":2025:2043  subTotal>>guessMSB */\n      0xff\n      and\n        /* \"sosh/FuzzMath.sol\":2025:2033  subTotal */\n      dup5\n        /* \"sosh/FuzzMath.sol\":2025:2043  subTotal>>guessMSB */\n      swap1\n      shr\n        /* \"sosh/FuzzMath.sol\":2025:2047  subTotal>>guessMSB > 0 */\n      gt\n        /* \"sosh/FuzzMath.sol\":2021:2230  if (subTotal>>guessMSB > 0) {... */\n      iszero\n      tag_54\n      jumpi\n        /* \"sosh/FuzzMath.sol\":2067:2107  while(subTotal>>guessMSB > 0) guessMSB++ */\n    tag_55:\n        /* \"sosh/FuzzMath.sol\":2094:2095  0 */\n      0x00\n        /* \"sosh/FuzzMath.sol\":2083:2091  guessMSB */\n      dup2\n        /* \"sosh/FuzzMath.sol\":2073:2091  subTotal>>guessMSB */\n      0xff\n      and\n        /* \"sosh/FuzzMath.sol\":2073:2081  subTotal */\n      dup5\n        /* \"sosh/FuzzMath.sol\":2073:2091  subTotal>>guessMSB */\n      swap1\n      shr\n        /* \"sosh/FuzzMath.sol\":2073:2095  subTotal>>guessMSB > 0 */\n      gt\n        /* \"sosh/FuzzMath.sol\":2067:2107  while(subTotal>>guessMSB > 0) guessMSB++ */\n      iszero\n      tag_56\n      jumpi\n        /* \"sosh/FuzzMath.sol\":2097:2107  guessMSB++ */\n      dup1\n      dup1\n      0x01\n      add\n      swap2\n      pop\n      pop\n        /* \"sosh/FuzzMath.sol\":2067:2107  while(subTotal>>guessMSB > 0) guessMSB++ */\n      jump(tag_55)\n    tag_56:\n        /* \"sosh/FuzzMath.sol\":2021:2230  if (subTotal>>guessMSB > 0) {... */\n      jump(tag_57)\n    tag_54:\n        /* \"sosh/FuzzMath.sol\":2146:2187  while(subTotal>>guessMSB == 0) guessMSB-- */\n    tag_58:\n        /* \"sosh/FuzzMath.sol\":2174:2175  0 */\n      0x00\n        /* \"sosh/FuzzMath.sol\":2162:2170  guessMSB */\n      dup2\n        /* \"sosh/FuzzMath.sol\":2152:2170  subTotal>>guessMSB */\n      0xff\n      and\n        /* \"sosh/FuzzMath.sol\":2152:2160  subTotal */\n      dup5\n        /* \"sosh/FuzzMath.sol\":2152:2170  subTotal>>guessMSB */\n      swap1\n      shr\n        /* \"sosh/FuzzMath.sol\":2152:2175  subTotal>>guessMSB == 0 */\n      sub\n        /* \"sosh/FuzzMath.sol\":2146:2187  while(subTotal>>guessMSB == 0) guessMSB-- */\n      tag_59\n      jumpi\n        /* \"sosh/FuzzMath.sol\":2177:2187  guessMSB-- */\n      dup1\n      dup1\n      0x01\n      swap1\n      sub\n      swap2\n      pop\n      pop\n        /* \"sosh/FuzzMath.sol\":2146:2187  while(subTotal>>guessMSB == 0) guessMSB-- */\n      jump(tag_58)\n    tag_59:\n        /* \"sosh/FuzzMath.sol\":2205:2215  guessMSB++ */\n      dup1\n      dup1\n      0x01\n      add\n      swap2\n      pop\n      pop\n        /* \"sosh/FuzzMath.sol\":2021:2230  if (subTotal>>guessMSB > 0) {... */\n    tag_57:\n        /* \"sosh/FuzzMath.sol\":2330:2348  uint expBoundGuess */\n      0x00\n        /* \"sosh/FuzzMath.sol\":2362:2363  b */\n      dup6\n        /* \"sosh/FuzzMath.sol\":2351:2363  guessMSB / b */\n      0xff\n      and\n        /* \"sosh/FuzzMath.sol\":2351:2359  guessMSB */\n      dup3\n        /* \"sosh/FuzzMath.sol\":2351:2363  guessMSB / b */\n      0xff\n      and\n      dup2\n      tag_60\n      jumpi\n      tag_61\n      tag_18\n      jump\t// in\n    tag_61:\n    tag_60:\n      div\n        /* \"sosh/FuzzMath.sol\":2330:2363  uint expBoundGuess = guessMSB / b */\n      0xff\n      and\n      swap1\n      pop\n        /* \"sosh/FuzzMath.sol\":2411:2412  0 */\n      0x00\n        /* \"sosh/FuzzMath.sol\":2406:2407  b */\n      dup7\n        /* \"sosh/FuzzMath.sol\":2395:2407  guessMSB % b */\n      0xff\n      and\n        /* \"sosh/FuzzMath.sol\":2395:2403  guessMSB */\n      dup4\n        /* \"sosh/FuzzMath.sol\":2395:2407  guessMSB % b */\n      0xff\n      and\n      dup2\n      tag_62\n      jumpi\n      tag_63\n      tag_18\n      jump\t// in\n    tag_63:\n    tag_62:\n      mod\n        /* \"sosh/FuzzMath.sol\":2395:2412  guessMSB % b != 0 */\n      0xff\n      and\n      sub\n        /* \"sosh/FuzzMath.sol\":2394:2421  (guessMSB % b != 0) ? 1 : 0 */\n      tag_64\n      jumpi\n        /* \"sosh/FuzzMath.sol\":2420:2421  0 */\n      0x00\n        /* \"sosh/FuzzMath.sol\":2394:2421  (guessMSB % b != 0) ? 1 : 0 */\n      jump(tag_65)\n    tag_64:\n        /* \"sosh/FuzzMath.sol\":2416:2417  1 */\n      0x01\n        /* \"sosh/FuzzMath.sol\":2394:2421  (guessMSB % b != 0) ? 1 : 0 */\n    tag_65:\n        /* \"sosh/FuzzMath.sol\":2377:2421  expBoundGuess += (guessMSB % b != 0) ? 1 : 0 */\n      0xff\n      and\n      dup2\n      add\n      swap1\n      pop\n        /* \"sosh/FuzzMath.sol\":2435:2441  uint z */\n      0x00\n        /* \"sosh/FuzzMath.sol\":2465:2466  1 */\n      0x01\n        /* \"sosh/FuzzMath.sol\":2448:2461  expBoundGuess */\n      dup3\n        /* \"sosh/FuzzMath.sol\":2445:2446  1 */\n      0x01\n        /* \"sosh/FuzzMath.sol\":2445:2461  1<<expBoundGuess */\n      swap1\n      shl\n        /* \"sosh/FuzzMath.sol\":2444:2466  (1<<expBoundGuess) - 1 */\n      sub\n        /* \"sosh/FuzzMath.sol\":2435:2466  uint z = (1<<expBoundGuess) - 1 */\n      swap1\n      pop\n        /* \"sosh/FuzzMath.sol\":2486:2494  subTotal */\n      dup5\n        /* \"sosh/FuzzMath.sol\":2480:2494  ans = subTotal */\n      swap6\n      pop\n        /* \"sosh/FuzzMath.sol\":2509:2517  uint8 b2 */\n      0x00\n        /* \"sosh/FuzzMath.sol\":2524:2525  1 */\n      0x01\n        /* \"sosh/FuzzMath.sol\":2520:2521  b */\n      dup9\n        /* \"sosh/FuzzMath.sol\":2520:2525  b - 1 */\n      sub\n        /* \"sosh/FuzzMath.sol\":2509:2525  uint8 b2 = b - 1 */\n      swap1\n      pop\n        /* \"sosh/FuzzMath.sol\":2539:2648  while (z < ans) {... */\n    tag_66:\n        /* \"sosh/FuzzMath.sol\":2550:2553  ans */\n      dup7\n        /* \"sosh/FuzzMath.sol\":2546:2547  z */\n      dup3\n        /* \"sosh/FuzzMath.sol\":2546:2553  z < ans */\n      lt\n        /* \"sosh/FuzzMath.sol\":2539:2648  while (z < ans) {... */\n      iszero\n      tag_67\n      jumpi\n        /* \"sosh/FuzzMath.sol\":2579:2580  z */\n      dup2\n        /* \"sosh/FuzzMath.sol\":2573:2580  ans = z */\n      swap7\n      pop\n        /* \"sosh/FuzzMath.sol\":2632:2633  b */\n      dup8\n        /* \"sosh/FuzzMath.sol\":2602:2633  (subTotal / z**b2 + b2 * z) / b */\n      0xff\n      and\n        /* \"sosh/FuzzMath.sol\":2627:2628  z */\n      dup3\n        /* \"sosh/FuzzMath.sol\":2622:2624  b2 */\n      dup3\n        /* \"sosh/FuzzMath.sol\":2622:2628  b2 * z */\n      0xff\n      and\n      mul\n        /* \"sosh/FuzzMath.sol\":2617:2619  b2 */\n      dup3\n        /* \"sosh/FuzzMath.sol\":2614:2619  z**b2 */\n      0xff\n      and\n        /* \"sosh/FuzzMath.sol\":2614:2615  z */\n      dup5\n        /* \"sosh/FuzzMath.sol\":2614:2619  z**b2 */\n      exp\n        /* \"sosh/FuzzMath.sol\":2603:2611  subTotal */\n      dup9\n        /* \"sosh/FuzzMath.sol\":2603:2619  subTotal / z**b2 */\n      dup2\n      tag_68\n      jumpi\n      tag_69\n      tag_18\n      jump\t// in\n    tag_69:\n    tag_68:\n      div\n        /* \"sosh/FuzzMath.sol\":2603:2628  subTotal / z**b2 + b2 * z */\n      add\n        /* \"sosh/FuzzMath.sol\":2602:2633  (subTotal / z**b2 + b2 * z) / b */\n      dup2\n      tag_70\n      jumpi\n      tag_71\n      tag_18\n      jump\t// in\n    tag_71:\n    tag_70:\n      div\n        /* \"sosh/FuzzMath.sol\":2598:2633  z = (subTotal / z**b2 + b2 * z) / b */\n      swap2\n      pop\n        /* \"sosh/FuzzMath.sol\":2539:2648  while (z < ans) {... */\n      jump(tag_66)\n    tag_67:\n        /* \"sosh/FuzzMath.sol\":1027:2658  unchecked {... */\n      pop\n      pop\n      pop\n      pop\n      pop\n      pop\n        /* \"sosh/FuzzMath.sol\":705:2664  function fraxExp(uint x, uint8 a, uint8 b) external pure returns (uint ans)  {... */\n    tag_25:\n      swap4\n      swap3\n      pop\n      pop\n      pop\n      jump\t// out\n        /* \"#utility.yul\":88:205   */\n    tag_73:\n        /* \"#utility.yul\":197:198   */\n      0x00\n        /* \"#utility.yul\":194:195   */\n      dup1\n        /* \"#utility.yul\":187:199   */\n      revert\n        /* \"#utility.yul\":334:411   */\n    tag_75:\n        /* \"#utility.yul\":371:378   */\n      0x00\n        /* \"#utility.yul\":400:405   */\n      dup2\n        /* \"#utility.yul\":389:405   */\n      swap1\n      pop\n        /* \"#utility.yul\":334:411   */\n      swap2\n      swap1\n      pop\n      jump\t// out\n        /* \"#utility.yul\":417:539   */\n    tag_76:\n        /* \"#utility.yul\":490:514   */\n      tag_95\n        /* \"#utility.yul\":508:513   */\n      dup2\n        /* \"#utility.yul\":490:514   */\n      tag_75\n      jump\t// in\n    tag_95:\n        /* \"#utility.yul\":483:488   */\n      dup2\n        /* \"#utility.yul\":480:515   */\n      eq\n        /* \"#utility.yul\":470:533   */\n      tag_96\n      jumpi\n        /* \"#utility.yul\":529:530   */\n      0x00\n        /* \"#utility.yul\":526:527   */\n      dup1\n        /* \"#utility.yul\":519:531   */\n      revert\n        /* \"#utility.yul\":470:533   */\n    tag_96:\n        /* \"#utility.yul\":417:539   */\n      pop\n      jump\t// out\n        /* \"#utility.yul\":545:684   */\n    tag_77:\n        /* \"#utility.yul\":591:596   */\n      0x00\n        /* \"#utility.yul\":629:635   */\n      dup2\n        /* \"#utility.yul\":616:636   */\n      calldataload\n        /* \"#utility.yul\":607:636   */\n      swap1\n      pop\n        /* \"#utility.yul\":645:678   */\n      tag_98\n        /* \"#utility.yul\":672:677   */\n      dup2\n        /* \"#utility.yul\":645:678   */\n      tag_76\n      jump\t// in\n    tag_98:\n        /* \"#utility.yul\":545:684   */\n      swap3\n      swap2\n      pop\n      pop\n      jump\t// out\n        /* \"#utility.yul\":690:1019   */\n    tag_6:\n        /* \"#utility.yul\":749:755   */\n      0x00\n        /* \"#utility.yul\":798:800   */\n      0x20\n        /* \"#utility.yul\":786:795   */\n      dup3\n        /* \"#utility.yul\":777:784   */\n      dup5\n        /* \"#utility.yul\":773:796   */\n      sub\n        /* \"#utility.yul\":769:801   */\n      slt\n        /* \"#utility.yul\":766:885   */\n      iszero\n      tag_100\n      jumpi\n        /* \"#utility.yul\":804:883   */\n      tag_101\n      tag_73\n      jump\t// in\n    tag_101:\n        /* \"#utility.yul\":766:885   */\n    tag_100:\n        /* \"#utility.yul\":924:925   */\n      0x00\n        /* \"#utility.yul\":949:1002   */\n      tag_102\n        /* \"#utility.yul\":994:1001   */\n      dup5\n        /* \"#utility.yul\":985:991   */\n      dup3\n        /* \"#utility.yul\":974:983   */\n      dup6\n        /* \"#utility.yul\":970:992   */\n      add\n        /* \"#utility.yul\":949:1002   */\n      tag_77\n      jump\t// in\n    tag_102:\n        /* \"#utility.yul\":939:1002   */\n      swap2\n      pop\n        /* \"#utility.yul\":895:1012   */\n      pop\n        /* \"#utility.yul\":690:1019   */\n      swap3\n      swap2\n      pop\n      pop\n      jump\t// out\n        /* \"#utility.yul\":1025:1151   */\n    tag_78:\n        /* \"#utility.yul\":1120:1144   */\n      tag_104\n        /* \"#utility.yul\":1138:1143   */\n      dup2\n        /* \"#utility.yul\":1120:1144   */\n      tag_75\n      jump\t// in\n    tag_104:\n        /* \"#utility.yul\":1115:1118   */\n      dup3\n        /* \"#utility.yul\":1108:1145   */\n      mstore\n        /* \"#utility.yul\":1025:1151   */\n      pop\n      pop\n      jump\t// out\n        /* \"#utility.yul\":1157:1395   */\n    tag_9:\n        /* \"#utility.yul\":1258:1262   */\n      0x00\n        /* \"#utility.yul\":1296:1298   */\n      0x20\n        /* \"#utility.yul\":1285:1294   */\n      dup3\n        /* \"#utility.yul\":1281:1299   */\n      add\n        /* \"#utility.yul\":1273:1299   */\n      swap1\n      pop\n        /* \"#utility.yul\":1309:1388   */\n      tag_106\n        /* \"#utility.yul\":1385:1386   */\n      0x00\n        /* \"#utility.yul\":1374:1383   */\n      dup4\n        /* \"#utility.yul\":1370:1387   */\n      add\n        /* \"#utility.yul\":1361:1367   */\n      dup5\n        /* \"#utility.yul\":1309:1388   */\n      tag_78\n      jump\t// in\n    tag_106:\n        /* \"#utility.yul\":1157:1395   */\n      swap3\n      swap2\n      pop\n      pop\n      jump\t// out\n        /* \"#utility.yul\":1401:1487   */\n    tag_79:\n        /* \"#utility.yul\":1436:1443   */\n      0x00\n        /* \"#utility.yul\":1476:1480   */\n      0xff\n        /* \"#utility.yul\":1469:1474   */\n      dup3\n        /* \"#utility.yul\":1465:1481   */\n      and\n        /* \"#utility.yul\":1454:1481   */\n      swap1\n      pop\n        /* \"#utility.yul\":1401:1487   */\n      swap2\n      swap1\n      pop\n      jump\t// out\n        /* \"#utility.yul\":1493:1611   */\n    tag_80:\n        /* \"#utility.yul\":1564:1586   */\n      tag_109\n        /* \"#utility.yul\":1580:1585   */\n      dup2\n        /* \"#utility.yul\":1564:1586   */\n      tag_79\n      jump\t// in\n    tag_109:\n        /* \"#utility.yul\":1557:1562   */\n      dup2\n        /* \"#utility.yul\":1554:1587   */\n      eq\n        /* \"#utility.yul\":1544:1605   */\n      tag_110\n      jumpi\n        /* \"#utility.yul\":1601:1602   */\n      0x00\n        /* \"#utility.yul\":1598:1599   */\n      dup1\n        /* \"#utility.yul\":1591:1603   */\n      revert\n        /* \"#utility.yul\":1544:1605   */\n    tag_110:\n        /* \"#utility.yul\":1493:1611   */\n      pop\n      jump\t// out\n        /* \"#utility.yul\":1617:1752   */\n    tag_81:\n        /* \"#utility.yul\":1661:1666   */\n      0x00\n        /* \"#utility.yul\":1699:1705   */\n      dup2\n        /* \"#utility.yul\":1686:1706   */\n      calldataload\n        /* \"#utility.yul\":1677:1706   */\n      swap1\n      pop\n        /* \"#utility.yul\":1715:1746   */\n      tag_112\n        /* \"#utility.yul\":1740:1745   */\n      dup2\n        /* \"#utility.yul\":1715:1746   */\n      tag_80\n      jump\t// in\n    tag_112:\n        /* \"#utility.yul\":1617:1752   */\n      swap3\n      swap2\n      pop\n      pop\n      jump\t// out\n        /* \"#utility.yul\":1758:2369   */\n    tag_12:\n        /* \"#utility.yul\":1831:1837   */\n      0x00\n        /* \"#utility.yul\":1839:1845   */\n      dup1\n        /* \"#utility.yul\":1847:1853   */\n      0x00\n        /* \"#utility.yul\":1896:1898   */\n      0x60\n        /* \"#utility.yul\":1884:1893   */\n      dup5\n        /* \"#utility.yul\":1875:1882   */\n      dup7\n        /* \"#utility.yul\":1871:1894   */\n      sub\n        /* \"#utility.yul\":1867:1899   */\n      slt\n        /* \"#utility.yul\":1864:1983   */\n      iszero\n      tag_114\n      jumpi\n        /* \"#utility.yul\":1902:1981   */\n      tag_115\n      tag_73\n      jump\t// in\n    tag_115:\n        /* \"#utility.yul\":1864:1983   */\n    tag_114:\n        /* \"#utility.yul\":2022:2023   */\n      0x00\n        /* \"#utility.yul\":2047:2100   */\n      tag_116\n        /* \"#utility.yul\":2092:2099   */\n      dup7\n        /* \"#utility.yul\":2083:2089   */\n      dup3\n        /* \"#utility.yul\":2072:2081   */\n      dup8\n        /* \"#utility.yul\":2068:2090   */\n      add\n        /* \"#utility.yul\":2047:2100   */\n      tag_77\n      jump\t// in\n    tag_116:\n        /* \"#utility.yul\":2037:2100   */\n      swap4\n      pop\n        /* \"#utility.yul\":1993:2110   */\n      pop\n        /* \"#utility.yul\":2149:2151   */\n      0x20\n        /* \"#utility.yul\":2175:2226   */\n      tag_117\n        /* \"#utility.yul\":2218:2225   */\n      dup7\n        /* \"#utility.yul\":2209:2215   */\n      dup3\n        /* \"#utility.yul\":2198:2207   */\n      dup8\n        /* \"#utility.yul\":2194:2216   */\n      add\n        /* \"#utility.yul\":2175:2226   */\n      tag_81\n      jump\t// in\n    tag_117:\n        /* \"#utility.yul\":2165:2226   */\n      swap3\n      pop\n        /* \"#utility.yul\":2120:2236   */\n      pop\n        /* \"#utility.yul\":2275:2277   */\n      0x40\n        /* \"#utility.yul\":2301:2352   */\n      tag_118\n        /* \"#utility.yul\":2344:2351   */\n      dup7\n        /* \"#utility.yul\":2335:2341   */\n      dup3\n        /* \"#utility.yul\":2324:2333   */\n      dup8\n        /* \"#utility.yul\":2320:2342   */\n      add\n        /* \"#utility.yul\":2301:2352   */\n      tag_81\n      jump\t// in\n    tag_118:\n        /* \"#utility.yul\":2291:2352   */\n      swap2\n      pop\n        /* \"#utility.yul\":2246:2362   */\n      pop\n        /* \"#utility.yul\":1758:2369   */\n      swap3\n      pop\n      swap3\n      pop\n      swap3\n      jump\t// out\n        /* \"#utility.yul\":2375:2555   */\n    tag_18:\n        /* \"#utility.yul\":2423:2500   */\n      0x4e487b7100000000000000000000000000000000000000000000000000000000\n        /* \"#utility.yul\":2420:2421   */\n      0x00\n        /* \"#utility.yul\":2413:2501   */\n      mstore\n        /* \"#utility.yul\":2520:2524   */\n      0x12\n        /* \"#utility.yul\":2517:2518   */\n      0x04\n        /* \"#utility.yul\":2510:2525   */\n      mstore\n        /* \"#utility.yul\":2544:2548   */\n      0x24\n        /* \"#utility.yul\":2541:2542   */\n      0x00\n        /* \"#utility.yul\":2534:2549   */\n      revert\n        /* \"#utility.yul\":2561:2730   */\n    tag_82:\n        /* \"#utility.yul\":2645:2656   */\n      0x00\n        /* \"#utility.yul\":2679:2685   */\n      dup3\n        /* \"#utility.yul\":2674:2677   */\n      dup3\n        /* \"#utility.yul\":2667:2686   */\n      mstore\n        /* \"#utility.yul\":2719:2723   */\n      0x20\n        /* \"#utility.yul\":2714:2717   */\n      dup3\n        /* \"#utility.yul\":2710:2724   */\n      add\n        /* \"#utility.yul\":2695:2724   */\n      swap1\n      pop\n        /* \"#utility.yul\":2561:2730   */\n      swap3\n      swap2\n      pop\n      pop\n      jump\t// out\n        /* \"#utility.yul\":2736:2918   */\n    tag_83:\n        /* \"#utility.yul\":2876:2910   */\n      0x6e656564206578706f6e656e742064656e6f6d696e61746f722062203c203130\n        /* \"#utility.yul\":2872:2873   */\n      0x00\n        /* \"#utility.yul\":2864:2870   */\n      dup3\n        /* \"#utility.yul\":2860:2874   */\n      add\n        /* \"#utility.yul\":2853:2911   */\n      mstore\n        /* \"#utility.yul\":2736:2918   */\n      pop\n      jump\t// out\n        /* \"#utility.yul\":2924:3290   */\n    tag_84:\n        /* \"#utility.yul\":3066:3069   */\n      0x00\n        /* \"#utility.yul\":3087:3154   */\n      tag_123\n        /* \"#utility.yul\":3151:3153   */\n      0x20\n        /* \"#utility.yul\":3146:3149   */\n      dup4\n        /* \"#utility.yul\":3087:3154   */\n      tag_82\n      jump\t// in\n    tag_123:\n        /* \"#utility.yul\":3080:3154   */\n      swap2\n      pop\n        /* \"#utility.yul\":3163:3256   */\n      tag_124\n        /* \"#utility.yul\":3252:3255   */\n      dup3\n        /* \"#utility.yul\":3163:3256   */\n      tag_83\n      jump\t// in\n    tag_124:\n        /* \"#utility.yul\":3281:3283   */\n      0x20\n        /* \"#utility.yul\":3276:3279   */\n      dup3\n        /* \"#utility.yul\":3272:3284   */\n      add\n        /* \"#utility.yul\":3265:3284   */\n      swap1\n      pop\n        /* \"#utility.yul\":2924:3290   */\n      swap2\n      swap1\n      pop\n      jump\t// out\n        /* \"#utility.yul\":3296:3715   */\n    tag_28:\n        /* \"#utility.yul\":3462:3466   */\n      0x00\n        /* \"#utility.yul\":3500:3502   */\n      0x20\n        /* \"#utility.yul\":3489:3498   */\n      dup3\n        /* \"#utility.yul\":3485:3503   */\n      add\n        /* \"#utility.yul\":3477:3503   */\n      swap1\n      pop\n        /* \"#utility.yul\":3549:3558   */\n      dup2\n        /* \"#utility.yul\":3543:3547   */\n      dup2\n        /* \"#utility.yul\":3539:3559   */\n      sub\n        /* \"#utility.yul\":3535:3536   */\n      0x00\n        /* \"#utility.yul\":3524:3533   */\n      dup4\n        /* \"#utility.yul\":3520:3537   */\n      add\n        /* \"#utility.yul\":3513:3560   */\n      mstore\n        /* \"#utility.yul\":3577:3708   */\n      tag_126\n        /* \"#utility.yul\":3703:3707   */\n      dup2\n        /* \"#utility.yul\":3577:3708   */\n      tag_84\n      jump\t// in\n    tag_126:\n        /* \"#utility.yul\":3569:3708   */\n      swap1\n      pop\n        /* \"#utility.yul\":3296:3715   */\n      swap2\n      swap1\n      pop\n      jump\t// out\n        /* \"#utility.yul\":3721:3901   */\n    tag_85:\n        /* \"#utility.yul\":3861:3893   */\n      0x6e656564206578706f6e656e74206e756d657261746f722061203c2031300000\n        /* \"#utility.yul\":3857:3858   */\n      0x00\n        /* \"#utility.yul\":3849:3855   */\n      dup3\n        /* \"#utility.yul\":3845:3859   */\n      add\n        /* \"#utility.yul\":3838:3894   */\n      mstore\n        /* \"#utility.yul\":3721:3901   */\n      pop\n      jump\t// out\n        /* \"#utility.yul\":3907:4273   */\n    tag_86:\n        /* \"#utility.yul\":4049:4052   */\n      0x00\n        /* \"#utility.yul\":4070:4137   */\n      tag_129\n        /* \"#utility.yul\":4134:4136   */\n      0x1e\n        /* \"#utility.yul\":4129:4132   */\n      dup4\n        /* \"#utility.yul\":4070:4137   */\n      tag_82\n      jump\t// in\n    tag_129:\n        /* \"#utility.yul\":4063:4137   */\n      swap2\n      pop\n        /* \"#utility.yul\":4146:4239   */\n      tag_130\n        /* \"#utility.yul\":4235:4238   */\n      dup3\n        /* \"#utility.yul\":4146:4239   */\n      tag_85\n      jump\t// in\n    tag_130:\n        /* \"#utility.yul\":4264:4266   */\n      0x20\n        /* \"#utility.yul\":4259:4262   */\n      dup3\n        /* \"#utility.yul\":4255:4267   */\n      add\n        /* \"#utility.yul\":4248:4267   */\n      swap1\n      pop\n        /* \"#utility.yul\":3907:4273   */\n      swap2\n      swap1\n      pop\n      jump\t// out\n        /* \"#utility.yul\":4279:4698   */\n    tag_31:\n        /* \"#utility.yul\":4445:4449   */\n      0x00\n        /* \"#utility.yul\":4483:4485   */\n      0x20\n        /* \"#utility.yul\":4472:4481   */\n      dup3\n        /* \"#utility.yul\":4468:4486   */\n      add\n        /* \"#utility.yul\":4460:4486   */\n      swap1\n      pop\n        /* \"#utility.yul\":4532:4541   */\n      dup2\n        /* \"#utility.yul\":4526:4530   */\n      dup2\n        /* \"#utility.yul\":4522:4542   */\n      sub\n        /* \"#utility.yul\":4518:4519   */\n      0x00\n        /* \"#utility.yul\":4507:4516   */\n      dup4\n        /* \"#utility.yul\":4503:4520   */\n      add\n        /* \"#utility.yul\":4496:4543   */\n      mstore\n        /* \"#utility.yul\":4560:4691   */\n      tag_132\n        /* \"#utility.yul\":4686:4690   */\n      dup2\n        /* \"#utility.yul\":4560:4691   */\n      tag_86\n      jump\t// in\n    tag_132:\n        /* \"#utility.yul\":4552:4691   */\n      swap1\n      pop\n        /* \"#utility.yul\":4279:4698   */\n      swap2\n      swap1\n      pop\n      jump\t// out\n        /* \"#utility.yul\":4704:4874   */\n    tag_87:\n        /* \"#utility.yul\":4844:4866   */\n      0x6d6178696d756d20696e70757420697320316539000000000000000000000000\n        /* \"#utility.yul\":4840:4841   */\n      0x00\n        /* \"#utility.yul\":4832:4838   */\n      dup3\n        /* \"#utility.yul\":4828:4842   */\n      add\n        /* \"#utility.yul\":4821:4867   */\n      mstore\n        /* \"#utility.yul\":4704:4874   */\n      pop\n      jump\t// out\n        /* \"#utility.yul\":4880:5246   */\n    tag_88:\n        /* \"#utility.yul\":5022:5025   */\n      0x00\n        /* \"#utility.yul\":5043:5110   */\n      tag_135\n        /* \"#utility.yul\":5107:5109   */\n      0x14\n        /* \"#utility.yul\":5102:5105   */\n      dup4\n        /* \"#utility.yul\":5043:5110   */\n      tag_82\n      jump\t// in\n    tag_135:\n        /* \"#utility.yul\":5036:5110   */\n      swap2\n      pop\n        /* \"#utility.yul\":5119:5212   */\n      tag_136\n        /* \"#utility.yul\":5208:5211   */\n      dup3\n        /* \"#utility.yul\":5119:5212   */\n      tag_87\n      jump\t// in\n    tag_136:\n        /* \"#utility.yul\":5237:5239   */\n      0x20\n        /* \"#utility.yul\":5232:5235   */\n      dup3\n        /* \"#utility.yul\":5228:5240   */\n      add\n        /* \"#utility.yul\":5221:5240   */\n      swap1\n      pop\n        /* \"#utility.yul\":4880:5246   */\n      swap2\n      swap1\n      pop\n      jump\t// out\n        /* \"#utility.yul\":5252:5671   */\n    tag_34:\n        /* \"#utility.yul\":5418:5422   */\n      0x00\n        /* \"#utility.yul\":5456:5458   */\n      0x20\n        /* \"#utility.yul\":5445:5454   */\n      dup3\n        /* \"#utility.yul\":5441:5459   */\n      add\n        /* \"#utility.yul\":5433:5459   */\n      swap1\n      pop\n        /* \"#utility.yul\":5505:5514   */\n      dup2\n        /* \"#utility.yul\":5499:5503   */\n      dup2\n        /* \"#utility.yul\":5495:5515   */\n      sub\n        /* \"#utility.yul\":5491:5492   */\n      0x00\n        /* \"#utility.yul\":5480:5489   */\n      dup4\n        /* \"#utility.yul\":5476:5493   */\n      add\n        /* \"#utility.yul\":5469:5516   */\n      mstore\n        /* \"#utility.yul\":5533:5664   */\n      tag_138\n        /* \"#utility.yul\":5659:5663   */\n      dup2\n        /* \"#utility.yul\":5533:5664   */\n      tag_88\n      jump\t// in\n    tag_138:\n        /* \"#utility.yul\":5525:5664   */\n      swap1\n      pop\n        /* \"#utility.yul\":5252:5671   */\n      swap2\n      swap1\n      pop\n      jump\t// out\n\n    auxdata: 0xa26469706673582212200a60a4546d56ee2a668ed780df922dafafd584b4d43fd08f484e4ed8be2fe34564736f6c63430008180033\n}\n",
				"bytecode": {
					"linkReferences": {},
					"object": "6106b561004e600b8282823980515f1a607314610042577f4e487b71000000000000000000000000000000000000000000000000000000005f525f60045260245ffd5b305f52607381538281f3fe730000000000000000000000000000000000000000301460806040526004361061003f575f3560e01c8063677342ce14610043578063d2b5a37014610073575b5f80fd5b61005d60048036038101906100589190610431565b6100a3565b60405161006a919061046b565b60405180910390f35b61008d600480360381019061008891906104ba565b610100565b60405161009a919061046b565b60405180910390f35b5f8190505f600260018401816100bc576100bb61050a565b5b0490505b818110156100fa57806002828386816100dc576100db61050a565b5b0401816100ec576100eb61050a565b5b0480925081935050506100c0565b50919050565b5f600a8260ff1610610147576040517f08c379a000000000000000000000000000000000000000000000000000000000815260040161013e90610591565b60405180910390fd5b600a8360ff161061018d576040517f08c379a0000000000000000000000000000000000000000000000000000000008152600401610184906105f9565b60405180910390fd5b633b9aca0084106101d3576040517f08c379a00000000000000000000000000000000000000000000000000000000081526004016101ca90610661565b60405180910390fd5b600184116101e3578390506103f3565b5f8260ff168460ff16816101fa576101f961050a565b5b0660ff1603610226578160ff168360ff16816102195761021861050a565b5b0460ff16840a90506103f3565b5f8360ff168360ff168161023d5761023c61050a565b5b0660ff1603610264578260ff168260ff168161025c5761025b61050a565b5b049150600192505b5f60018460ff1611610276578461027d565b8360ff16850a5b905060028360ff160361029b57610293816100a3565b9150506103f3565b5f600790505f608090505b60028260ff1611156102f357818060019003925050828160ff166001901b11156102de578160ff16600160ff16901b810390506102ee565b8160ff16600160ff16901b810190505b6102a6565b5f8160ff1684901c1115610322575b5f8160ff1684901c111561031d578080600101915050610302565b610347565b5b5f8160ff1684901c0361033e57808060019003915050610323565b80806001019150505b5f8560ff168260ff168161035e5761035d61050a565b5b0460ff1690505f8660ff168360ff168161037b5761037a61050a565b5b0660ff160361038a575f61038d565b60015b60ff16810190505f6001826001901b0390508495505f6001880390505b868210156103ec578196508760ff16828260ff16028260ff16840a88816103d4576103d361050a565b5b0401816103e4576103e361050a565b5b0491506103aa565b5050505050505b9392505050565b5f80fd5b5f819050919050565b610410816103fe565b811461041a575f80fd5b50565b5f8135905061042b81610407565b92915050565b5f60208284031215610446576104456103fa565b5b5f6104538482850161041d565b91505092915050565b610465816103fe565b82525050565b5f60208201905061047e5f83018461045c565b92915050565b5f60ff82169050919050565b61049981610484565b81146104a3575f80fd5b50565b5f813590506104b481610490565b92915050565b5f805f606084860312156104d1576104d06103fa565b5b5f6104de8682870161041d565b93505060206104ef868287016104a6565b9250506040610500868287016104a6565b9150509250925092565b7f4e487b71000000000000000000000000000000000000000000000000000000005f52601260045260245ffd5b5f82825260208201905092915050565b7f6e656564206578706f6e656e742064656e6f6d696e61746f722062203c2031305f82015250565b5f61057b602083610537565b915061058682610547565b602082019050919050565b5f6020820190508181035f8301526105a88161056f565b9050919050565b7f6e656564206578706f6e656e74206e756d657261746f722061203c20313000005f82015250565b5f6105e3601e83610537565b91506105ee826105af565b602082019050919050565b5f6020820190508181035f830152610610816105d7565b9050919050565b7f6d6178696d756d20696e707574206973203165390000000000000000000000005f82015250565b5f61064b601483610537565b915061065682610617565b602082019050919050565b5f6020820190508181035f8301526106788161063f565b905091905056fea26469706673582212200a60a4546d56ee2a668ed780df922dafafd584b4d43fd08f484e4ed8be2fe34564736f6c63430008180033",
					"opcodes": "PUSH2 0x6B5 PUSH2 0x4E PUSH1 0xB DUP3 DUP3 DUP3 CODECOPY DUP1 MLOAD PUSH0 BYTE PUSH1 0x73 EQ PUSH2 0x42 JUMPI PUSH32 0x4E487B7100000000000000000000000000000000000000000000000000000000 PUSH0 MSTORE PUSH0 PUSH1 0x4 MSTORE PUSH1 0x24 PUSH0 REVERT JUMPDEST ADDRESS PUSH0 MSTORE PUSH1 0x73 DUP2 MSTORE8 DUP3 DUP2 RETURN INVALID PUSH20 0x0 ADDRESS EQ PUSH1 0x80 PUSH1 0x40 MSTORE PUSH1 0x4 CALLDATASIZE LT PUSH2 0x3F JUMPI PUSH0 CALLDATALOAD PUSH1 0xE0 SHR DUP1 PUSH4 0x677342CE EQ PUSH2 0x43 JUMPI DUP1 PUSH4 0xD2B5A370 EQ PUSH2 0x73 JUMPI JUMPDEST PUSH0 DUP1 REVERT JUMPDEST PUSH2 0x5D PUSH1 0x4 DUP1 CALLDATASIZE SUB DUP2 ADD SWAP1 PUSH2 0x58 SWAP2 SWAP1 PUSH2 0x431 JUMP JUMPDEST PUSH2 0xA3 JUMP JUMPDEST PUSH1 0x40 MLOAD PUSH2 0x6A SWAP2 SWAP1 PUSH2 0x46B JUMP JUMPDEST PUSH1 0x40 MLOAD DUP1 SWAP2 SUB SWAP1 RETURN JUMPDEST PUSH2 0x8D PUSH1 0x4 DUP1 CALLDATASIZE SUB DUP2 ADD SWAP1 PUSH2 0x88 SWAP2 SWAP1 PUSH2 0x4BA JUMP JUMPDEST PUSH2 0x100 JUMP JUMPDEST PUSH1 0x40 MLOAD PUSH2 0x9A SWAP2 SWAP1 PUSH2 0x46B JUMP JUMPDEST PUSH1 0x40 MLOAD DUP1 SWAP2 SUB SWAP1 RETURN JUMPDEST PUSH0 DUP2 SWAP1 POP PUSH0 PUSH1 0x2 PUSH1 0x1 DUP5 ADD DUP2 PUSH2 0xBC JUMPI PUSH2 0xBB PUSH2 0x50A JUMP JUMPDEST JUMPDEST DIV SWAP1 POP JUMPDEST DUP2 DUP2 LT ISZERO PUSH2 0xFA JUMPI DUP1 PUSH1 0x2 DUP3 DUP4 DUP7 DUP2 PUSH2 0xDC JUMPI PUSH2 0xDB PUSH2 0x50A JUMP JUMPDEST JUMPDEST DIV ADD DUP2 PUSH2 0xEC JUMPI PUSH2 0xEB PUSH2 0x50A JUMP JUMPDEST JUMPDEST DIV DUP1 SWAP3 POP DUP2 SWAP4 POP POP POP PUSH2 0xC0 JUMP JUMPDEST POP SWAP2 SWAP1 POP JUMP JUMPDEST PUSH0 PUSH1 0xA DUP3 PUSH1 0xFF AND LT PUSH2 0x147 JUMPI PUSH1 0x40 MLOAD PUSH32 0x8C379A000000000000000000000000000000000000000000000000000000000 DUP2 MSTORE PUSH1 0x4 ADD PUSH2 0x13E SWAP1 PUSH2 0x591 JUMP JUMPDEST PUSH1 0x40 MLOAD DUP1 SWAP2 SUB SWAP1 REVERT JUMPDEST PUSH1 0xA DUP4 PUSH1 0xFF AND LT PUSH2 0x18D JUMPI PUSH1 0x40 MLOAD PUSH32 0x8C379A000000000000000000000000000000000000000000000000000000000 DUP2 MSTORE PUSH1 0x4 ADD PUSH2 0x184 SWAP1 PUSH2 0x5F9 JUMP JUMPDEST PUSH1 0x40 MLOAD DUP1 SWAP2 SUB SWAP1 REVERT JUMPDEST PUSH4 0x3B9ACA00 DUP5 LT PUSH2 0x1D3 JUMPI PUSH1 0x40 MLOAD PUSH32 0x8C379A000000000000000000000000000000000000000000000000000000000 DUP2 MSTORE PUSH1 0x4 ADD PUSH2 0x1CA SWAP1 PUSH2 0x661 JUMP JUMPDEST PUSH1 0x40 MLOAD DUP1 SWAP2 SUB SWAP1 REVERT JUMPDEST PUSH1 0x1 DUP5 GT PUSH2 0x1E3 JUMPI DUP4 SWAP1 POP PUSH2 0x3F3 JUMP JUMPDEST PUSH0 DUP3 PUSH1 0xFF AND DUP5 PUSH1 0xFF AND DUP2 PUSH2 0x1FA JUMPI PUSH2 0x1F9 PUSH2 0x50A JUMP JUMPDEST JUMPDEST MOD PUSH1 0xFF AND SUB PUSH2 0x226 JUMPI DUP2 PUSH1 0xFF AND DUP4 PUSH1 0xFF AND DUP2 PUSH2 0x219 JUMPI PUSH2 0x218 PUSH2 0x50A JUMP JUMPDEST JUMPDEST DIV PUSH1 0xFF AND DUP5 EXP SWAP1 POP PUSH2 0x3F3 JUMP JUMPDEST PUSH0 DUP4 PUSH1 0xFF AND DUP4 PUSH1 0xFF AND DUP2 PUSH2 0x23D JUMPI PUSH2 0x23C PUSH2 0x50A JUMP JUMPDEST JUMPDEST MOD PUSH1 0xFF AND SUB PUSH2 0x264 JUMPI DUP3 PUSH1 0xFF AND DUP3 PUSH1 0xFF AND DUP2 PUSH2 0x25C JUMPI PUSH2 0x25B PUSH2 0x50A JUMP JUMPDEST JUMPDEST DIV SWAP2 POP PUSH1 0x1 SWAP3 POP JUMPDEST PUSH0 PUSH1 0x1 DUP5 PUSH1 0xFF AND GT PUSH2 0x276 JUMPI DUP5 PUSH2 0x27D JUMP JUMPDEST DUP4 PUSH1 0xFF AND DUP6 EXP JUMPDEST SWAP1 POP PUSH1 0x2 DUP4 PUSH1 0xFF AND SUB PUSH2 0x29B JUMPI PUSH2 0x293 DUP2 PUSH2 0xA3 JUMP JUMPDEST SWAP2 POP POP PUSH2 0x3F3 JUMP JUMPDEST PUSH0 PUSH1 0x7 SWAP1 POP PUSH0 PUSH1 0x80 SWAP1 POP JUMPDEST PUSH1 0x2 DUP3 PUSH1 0xFF AND GT ISZERO PUSH2 0x2F3 JUMPI DUP2 DUP1 PUSH1 0x1 SWAP1 SUB SWAP3 POP POP DUP3 DUP2 PUSH1 0xFF AND PUSH1 0x1 SWAP1 SHL GT ISZERO PUSH2 0x2DE JUMPI DUP2 PUSH1 0xFF AND PUSH1 0x1 PUSH1 0xFF AND SWAP1 SHL DUP2 SUB SWAP1 POP PUSH2 0x2EE JUMP JUMPDEST DUP2 PUSH1 0xFF AND PUSH1 0x1 PUSH1 0xFF AND SWAP1 SHL DUP2 ADD SWAP1 POP JUMPDEST PUSH2 0x2A6 JUMP JUMPDEST PUSH0 DUP2 PUSH1 0xFF AND DUP5 SWAP1 SHR GT ISZERO PUSH2 0x322 JUMPI JUMPDEST PUSH0 DUP2 PUSH1 0xFF AND DUP5 SWAP1 SHR GT ISZERO PUSH2 0x31D JUMPI DUP1 DUP1 PUSH1 0x1 ADD SWAP2 POP POP PUSH2 0x302 JUMP JUMPDEST PUSH2 0x347 JUMP JUMPDEST JUMPDEST PUSH0 DUP2 PUSH1 0xFF AND DUP5 SWAP1 SHR SUB PUSH2 0x33E JUMPI DUP1 DUP1 PUSH1 0x1 SWAP1 SUB SWAP2 POP POP PUSH2 0x323 JUMP JUMPDEST DUP1 DUP1 PUSH1 0x1 ADD SWAP2 POP POP JUMPDEST PUSH0 DUP6 PUSH1 0xFF AND DUP3 PUSH1 0xFF AND DUP2 PUSH2 0x35E JUMPI PUSH2 0x35D PUSH2 0x50A JUMP JUMPDEST JUMPDEST DIV PUSH1 0xFF AND SWAP1 POP PUSH0 DUP7 PUSH1 0xFF AND DUP4 PUSH1 0xFF AND DUP2 PUSH2 0x37B JUMPI PUSH2 0x37A PUSH2 0x50A JUMP JUMPDEST JUMPDEST MOD PUSH1 0xFF AND SUB PUSH2 0x38A JUMPI PUSH0 PUSH2 0x38D JUMP JUMPDEST PUSH1 0x1 JUMPDEST PUSH1 0xFF AND DUP2 ADD SWAP1 POP PUSH0 PUSH1 0x1 DUP3 PUSH1 0x1 SWAP1 SHL SUB SWAP1 POP DUP5 SWAP6 POP PUSH0 PUSH1 0x1 DUP9 SUB SWAP1 POP JUMPDEST DUP7 DUP3 LT ISZERO PUSH2 0x3EC JUMPI DUP2 SWAP7 POP DUP8 PUSH1 0xFF AND DUP3 DUP3 PUSH1 0xFF AND MUL DUP3 PUSH1 0xFF AND DUP5 EXP DUP9 DUP2 PUSH2 0x3D4 JUMPI PUSH2 0x3D3 PUSH2 0x50A JUMP JUMPDEST JUMPDEST DIV ADD DUP2 PUSH2 0x3E4 JUMPI PUSH2 0x3E3 PUSH2 0x50A JUMP JUMPDEST JUMPDEST DIV SWAP2 POP PUSH2 0x3AA JUMP JUMPDEST POP POP POP POP POP POP JUMPDEST SWAP4 SWAP3 POP POP POP JUMP JUMPDEST PUSH0 DUP1 REVERT JUMPDEST PUSH0 DUP2 SWAP1 POP SWAP2 SWAP1 POP JUMP JUMPDEST PUSH2 0x410 DUP2 PUSH2 0x3FE JUMP JUMPDEST DUP2 EQ PUSH2 0x41A JUMPI PUSH0 DUP1 REVERT JUMPDEST POP JUMP JUMPDEST PUSH0 DUP2 CALLDATALOAD SWAP1 POP PUSH2 0x42B DUP2 PUSH2 0x407 JUMP JUMPDEST SWAP3 SWAP2 POP POP JUMP JUMPDEST PUSH0 PUSH1 0x20 DUP3 DUP5 SUB SLT ISZERO PUSH2 0x446 JUMPI PUSH2 0x445 PUSH2 0x3FA JUMP JUMPDEST JUMPDEST PUSH0 PUSH2 0x453 DUP5 DUP3 DUP6 ADD PUSH2 0x41D JUMP JUMPDEST SWAP2 POP POP SWAP3 SWAP2 POP POP JUMP JUMPDEST PUSH2 0x465 DUP2 PUSH2 0x3FE JUMP JUMPDEST DUP3 MSTORE POP POP JUMP JUMPDEST PUSH0 PUSH1 0x20 DUP3 ADD SWAP1 POP PUSH2 0x47E PUSH0 DUP4 ADD DUP5 PUSH2 0x45C JUMP JUMPDEST SWAP3 SWAP2 POP POP JUMP JUMPDEST PUSH0 PUSH1 0xFF DUP3 AND SWAP1 POP SWAP2 SWAP1 POP JUMP JUMPDEST PUSH2 0x499 DUP2 PUSH2 0x484 JUMP JUMPDEST DUP2 EQ PUSH2 0x4A3 JUMPI PUSH0 DUP1 REVERT JUMPDEST POP JUMP JUMPDEST PUSH0 DUP2 CALLDATALOAD SWAP1 POP PUSH2 0x4B4 DUP2 PUSH2 0x490 JUMP JUMPDEST SWAP3 SWAP2 POP POP JUMP JUMPDEST PUSH0 DUP1 PUSH0 PUSH1 0x60 DUP5 DUP7 SUB SLT ISZERO PUSH2 0x4D1 JUMPI PUSH2 0x4D0 PUSH2 0x3FA JUMP JUMPDEST JUMPDEST PUSH0 PUSH2 0x4DE DUP7 DUP3 DUP8 ADD PUSH2 0x41D JUMP JUMPDEST SWAP4 POP POP PUSH1 0x20 PUSH2 0x4EF DUP7 DUP3 DUP8 ADD PUSH2 0x4A6 JUMP JUMPDEST SWAP3 POP POP PUSH1 0x40 PUSH2 0x500 DUP7 DUP3 DUP8 ADD PUSH2 0x4A6 JUMP JUMPDEST SWAP2 POP POP SWAP3 POP SWAP3 POP SWAP3 JUMP JUMPDEST PUSH32 0x4E487B7100000000000000000000000000000000000000000000000000000000 PUSH0 MSTORE PUSH1 0x12 PUSH1 0x4 MSTORE PUSH1 0x24 PUSH0 REVERT JUMPDEST PUSH0 DUP3 DUP3 MSTORE PUSH1 0x20 DUP3 ADD SWAP1 POP SWAP3 SWAP2 POP POP JUMP JUMPDEST PUSH32 0x6E656564206578706F6E656E742064656E6F6D696E61746F722062203C203130 PUSH0 DUP3 ADD MSTORE POP JUMP JUMPDEST PUSH0 PUSH2 0x57B PUSH1 0x20 DUP4 PUSH2 0x537 JUMP JUMPDEST SWAP2 POP PUSH2 0x586 DUP3 PUSH2 0x547 JUMP JUMPDEST PUSH1 0x20 DUP3 ADD SWAP1 POP SWAP2 SWAP1 POP JUMP JUMPDEST PUSH0 PUSH1 0x20 DUP3 ADD SWAP1 POP DUP2 DUP2 SUB PUSH0 DUP4 ADD MSTORE PUSH2 0x5A8 DUP2 PUSH2 0x56F JUMP JUMPDEST SWAP1 POP SWAP2 SWAP1 POP JUMP JUMPDEST PUSH32 0x6E656564206578706F6E656E74206E756D657261746F722061203C2031300000 PUSH0 DUP3 ADD MSTORE POP JUMP JUMPDEST PUSH0 PUSH2 0x5E3 PUSH1 0x1E DUP4 PUSH2 0x537 JUMP JUMPDEST SWAP2 POP PUSH2 0x5EE DUP3 PUSH2 0x5AF JUMP JUMPDEST PUSH1 0x20 DUP3 ADD SWAP1 POP SWAP2 SWAP1 POP JUMP JUMPDEST PUSH0 PUSH1 0x20 DUP3 ADD SWAP1 POP DUP2 DUP2 SUB PUSH0 DUP4 ADD MSTORE PUSH2 0x610 DUP2 PUSH2 0x5D7 JUMP JUMPDEST SWAP1 POP SWAP2 SWAP1 POP JUMP JUMPDEST PUSH32 0x6D6178696D756D20696E70757420697320316539000000000000000000000000 PUSH0 DUP3 ADD MSTORE POP JUMP JUMPDEST PUSH0 PUSH2 0x64B PUSH1 0x14 DUP4 PUSH2 0x537 JUMP JUMPDEST SWAP2 POP PUSH2 0x656 DUP3 PUSH2 0x617 JUMP JUMPDEST PUSH1 0x20 DUP3 ADD SWAP1 POP SWAP2 SWAP1 POP JUMP JUMPDEST PUSH0 PUSH1 0x20 DUP3 ADD SWAP1 POP DUP2 DUP2 SUB PUSH0 DUP4 ADD MSTORE PUSH2 0x678 DUP2 PUSH2 0x63F JUMP JUMPDEST SWAP1 POP SWAP2 SWAP1 POP JUMP INVALID LOG2 PUSH5 0x6970667358 0x22 SLT KECCAK256 EXP PUSH1 0xA4 SLOAD PUSH14 0x56EE2A668ED780DF922DAFAFD584 0xB4 0xD4 EXTCODEHASH 0xD0 DUP16 BASEFEE 0x4E 0x4E 0xD8 0xBE 0x2F 0xE3 GASLIMIT PUSH5 0x736F6C6343 STOP ADDMOD XOR STOP CALLER "
				},
				"gasEstimates": {
					"creation": {
						"codeDepositCost": "343400",
						"executionCost": "403",
						"totalCost": "343803"
					},
					"external": {
						"fraxExp(uint256,uint8,uint8)": "infinite",
						"sqrt(uint256)": "infinite"
					}
				},
				"methodIdentifiers": {
					"fraxExp(uint256,uint8,uint8)": "d2b5a370",
					"sqrt(uint256)": "677342ce"
				}
			},
			"storageLayout": {
				"storage": [],
				"types": null
			},
			"userdoc": {
				"kind": "user",
				"methods": {},
				"version": 1
			}
		}
	}
}