{
	"sosh/CertiFren.sol": {
		"CertiFren": {
			"abi": [
				{
					"anonymous": false,
					"inputs": [
						{
							"indexed": true,
							"internalType": "address",
							"name": "previousOwner",
							"type": "address"
						},
						{
							"indexed": true,
							"internalType": "address",
							"name": "newOwner",
							"type": "address"
						}
					],
					"name": "OwnershipTransferred",
					"type": "event"
				},
				{
					"anonymous": false,
					"inputs": [
						{
							"indexed": false,
							"internalType": "address",
							"name": "trader",
							"type": "address"
						},
						{
							"indexed": false,
							"internalType": "address",
							"name": "subject",
							"type": "address"
						},
						{
							"indexed": false,
							"internalType": "bool",
							"name": "isBuy",
							"type": "bool"
						},
						{
							"indexed": false,
							"internalType": "uint256",
							"name": "shareAmount",
							"type": "uint256"
						},
						{
							"indexed": false,
							"internalType": "uint256",
							"name": "ethAmount",
							"type": "uint256"
						},
						{
							"indexed": false,
							"internalType": "uint256",
							"name": "protocolEthAmount",
							"type": "uint256"
						},
						{
							"indexed": false,
							"internalType": "uint256",
							"name": "subjectEthAmount",
							"type": "uint256"
						},
						{
							"indexed": false,
							"internalType": "uint256",
							"name": "supply",
							"type": "uint256"
						}
					],
					"name": "Trade",
					"type": "event"
				},
				{
					"inputs": [
						{
							"internalType": "address",
							"name": "sharesSubject",
							"type": "address"
						},
						{
							"internalType": "uint256",
							"name": "amount",
							"type": "uint256"
						}
					],
					"name": "buyShares",
					"outputs": [],
					"stateMutability": "payable",
					"type": "function"
				},
				{
					"inputs": [
						{
							"internalType": "address",
							"name": "sharesSubject",
							"type": "address"
						},
						{
							"internalType": "uint256",
							"name": "amount",
							"type": "uint256"
						}
					],
					"name": "getBuyPrice",
					"outputs": [
						{
							"internalType": "uint256",
							"name": "",
							"type": "uint256"
						}
					],
					"stateMutability": "view",
					"type": "function"
				},
				{
					"inputs": [
						{
							"internalType": "address",
							"name": "sharesSubject",
							"type": "address"
						},
						{
							"internalType": "uint256",
							"name": "amount",
							"type": "uint256"
						}
					],
					"name": "getBuyPriceAfterFee",
					"outputs": [
						{
							"internalType": "uint256",
							"name": "",
							"type": "uint256"
						}
					],
					"stateMutability": "view",
					"type": "function"
				},
				{
					"inputs": [
						{
							"internalType": "uint256",
							"name": "supply",
							"type": "uint256"
						},
						{
							"internalType": "uint256",
							"name": "amount",
							"type": "uint256"
						}
					],
					"name": "getPrice",
					"outputs": [
						{
							"internalType": "uint256",
							"name": "",
							"type": "uint256"
						}
					],
					"stateMutability": "pure",
					"type": "function"
				},
				{
					"inputs": [
						{
							"internalType": "address",
							"name": "sharesSubject",
							"type": "address"
						},
						{
							"internalType": "uint256",
							"name": "amount",
							"type": "uint256"
						}
					],
					"name": "getSellPrice",
					"outputs": [
						{
							"internalType": "uint256",
							"name": "",
							"type": "uint256"
						}
					],
					"stateMutability": "view",
					"type": "function"
				},
				{
					"inputs": [
						{
							"internalType": "address",
							"name": "sharesSubject",
							"type": "address"
						},
						{
							"internalType": "uint256",
							"name": "amount",
							"type": "uint256"
						}
					],
					"name": "getSellPriceAfterFee",
					"outputs": [
						{
							"internalType": "uint256",
							"name": "",
							"type": "uint256"
						}
					],
					"stateMutability": "view",
					"type": "function"
				},
				{
					"inputs": [],
					"name": "owner",
					"outputs": [
						{
							"internalType": "address",
							"name": "",
							"type": "address"
						}
					],
					"stateMutability": "view",
					"type": "function"
				},
				{
					"inputs": [],
					"name": "protocolFeeDestination",
					"outputs": [
						{
							"internalType": "address",
							"name": "",
							"type": "address"
						}
					],
					"stateMutability": "view",
					"type": "function"
				},
				{
					"inputs": [],
					"name": "protocolFeePercent",
					"outputs": [
						{
							"internalType": "uint256",
							"name": "",
							"type": "uint256"
						}
					],
					"stateMutability": "view",
					"type": "function"
				},
				{
					"inputs": [],
					"name": "renounceOwnership",
					"outputs": [],
					"stateMutability": "nonpayable",
					"type": "function"
				},
				{
					"inputs": [
						{
							"internalType": "address",
							"name": "sharesSubject",
							"type": "address"
						},
						{
							"internalType": "uint256",
							"name": "amount",
							"type": "uint256"
						}
					],
					"name": "sellShares",
					"outputs": [],
					"stateMutability": "payable",
					"type": "function"
				},
				{
					"inputs": [
						{
							"internalType": "address",
							"name": "_feeDestination",
							"type": "address"
						}
					],
					"name": "setFeeDestination",
					"outputs": [],
					"stateMutability": "nonpayable",
					"type": "function"
				},
				{
					"inputs": [
						{
							"internalType": "uint256",
							"name": "_feePercent",
							"type": "uint256"
						}
					],
					"name": "setProtocolFeePercent",
					"outputs": [],
					"stateMutability": "nonpayable",
					"type": "function"
				},
				{
					"inputs": [
						{
							"internalType": "uint256",
							"name": "_feePercent",
							"type": "uint256"
						}
					],
					"name": "setSubjectFeePercent",
					"outputs": [],
					"stateMutability": "nonpayable",
					"type": "function"
				},
				{
					"inputs": [
						{
							"internalType": "address",
							"name": "",
							"type": "address"
						},
						{
							"internalType": "address",
							"name": "",
							"type": "address"
						}
					],
					"name": "sharesBalance",
					"outputs": [
						{
							"internalType": "uint256",
							"name": "",
							"type": "uint256"
						}
					],
					"stateMutability": "view",
					"type": "function"
				},
				{
					"inputs": [
						{
							"internalType": "address",
							"name": "",
							"type": "address"
						}
					],
					"name": "sharesSupply",
					"outputs": [
						{
							"internalType": "uint256",
							"name": "",
							"type": "uint256"
						}
					],
					"stateMutability": "view",
					"type": "function"
				},
				{
					"inputs": [],
					"name": "subjectFeePercent",
					"outputs": [
						{
							"internalType": "uint256",
							"name": "",
							"type": "uint256"
						}
					],
					"stateMutability": "view",
					"type": "function"
				},
				{
					"inputs": [
						{
							"internalType": "address",
							"name": "newOwner",
							"type": "address"
						}
					],
					"name": "transferOwnership",
					"outputs": [],
					"stateMutability": "nonpayable",
					"type": "function"
				}
			],
			"devdoc": {
				"kind": "dev",
				"methods": {
					"owner()": {
						"details": "Returns the address of the current owner."
					},
					"renounceOwnership()": {
						"details": "Leaves the contract without owner. It will not be possible to call `onlyOwner` functions anymore. Can only be called by the current owner. NOTE: Renouncing ownership will leave the contract without an owner, thereby removing any functionality that is only available to the owner."
					},
					"transferOwnership(address)": {
						"details": "Transfers ownership of the contract to a new account (`newOwner`). Can only be called by the current owner."
					}
				},
				"version": 1
			},
			"evm": {
				"assembly": "    /* \"sosh/CertiFren.sol\":125:4573  contract CertiFren is Ownable {... */\n  mstore(0x40, 0x80)\n  callvalue\n  dup1\n  iszero\n  tag_1\n  jumpi\n  0x00\n  dup1\n  revert\ntag_1:\n  pop\n    /* \"@openzeppelin/contracts@4.7.0/access/Ownable.sol\":936:968  _transferOwnership(_msgSender()) */\n  tag_4\n    /* \"@openzeppelin/contracts@4.7.0/utils/Context.sol\":719:729  msg.sender */\n  caller\n    /* \"@openzeppelin/contracts@4.7.0/access/Ownable.sol\":936:954  _transferOwnership */\n  tag_7\n    /* \"@openzeppelin/contracts@4.7.0/access/Ownable.sol\":936:968  _transferOwnership(_msgSender()) */\n  jump\t// in\ntag_4:\n    /* \"sosh/CertiFren.sol\":125:4573  contract CertiFren is Ownable {... */\n  jump(tag_8)\n    /* \"@openzeppelin/contracts@4.7.0/access/Ownable.sol\":2433:2620  function _transferOwnership(address newOwner) internal virtual {... */\ntag_7:\n    /* \"@openzeppelin/contracts@4.7.0/access/Ownable.sol\":2506:2522  address oldOwner */\n  0x00\n    /* \"@openzeppelin/contracts@4.7.0/access/Ownable.sol\":2525:2531  _owner */\n  dup1\n  sload\n  sub(shl(0xa0, 0x01), 0x01)\n    /* \"@openzeppelin/contracts@4.7.0/access/Ownable.sol\":2541:2558  _owner = newOwner */\n  dup4\n  dup2\n  and\n  not(sub(shl(0xa0, 0x01), 0x01))\n  dup4\n  and\n  dup2\n  or\n  dup5\n  sstore\n    /* \"@openzeppelin/contracts@4.7.0/access/Ownable.sol\":2573:2613  OwnershipTransferred(oldOwner, newOwner) */\n  mload(0x40)\n    /* \"@openzeppelin/contracts@4.7.0/access/Ownable.sol\":2525:2531  _owner */\n  swap2\n  swap1\n  swap3\n  and\n  swap3\n  dup4\n  swap2\n    /* \"@openzeppelin/contracts@4.7.0/access/Ownable.sol\":2573:2613  OwnershipTransferred(oldOwner, newOwner) */\n  0x8be0079c531659141344cd1fd0a4f28419497f9722a3daafe3b4186f6b6457e0\n  swap2\n    /* \"@openzeppelin/contracts@4.7.0/access/Ownable.sol\":2506:2522  address oldOwner */\n  swap1\n    /* \"@openzeppelin/contracts@4.7.0/access/Ownable.sol\":2573:2613  OwnershipTransferred(oldOwner, newOwner) */\n  log3\n    /* \"@openzeppelin/contracts@4.7.0/access/Ownable.sol\":2496:2620  {... */\n  pop\n    /* \"@openzeppelin/contracts@4.7.0/access/Ownable.sol\":2433:2620  function _transferOwnership(address newOwner) internal virtual {... */\n  pop\n  jump\t// out\n    /* \"sosh/CertiFren.sol\":125:4573  contract CertiFren is Ownable {... */\ntag_8:\n  dataSize(sub_0)\n  dup1\n  dataOffset(sub_0)\n  0x00\n  codecopy\n  0x00\n  return\nstop\n\nsub_0: assembly {\n        /* \"sosh/CertiFren.sol\":125:4573  contract CertiFren is Ownable {... */\n      mstore(0x40, 0x80)\n      jumpi(tag_1, lt(calldatasize, 0x04))\n      shr(0xe0, calldataload(0x00))\n      dup1\n      0x715018a6\n      gt\n      tag_20\n      jumpi\n      dup1\n      0xb51d0534\n      gt\n      tag_21\n      jumpi\n      dup1\n      0xb51d0534\n      eq\n      tag_15\n      jumpi\n      dup1\n      0xd6e6eb9f\n      eq\n      tag_16\n      jumpi\n      dup1\n      0xf2fde38b\n      eq\n      tag_17\n      jumpi\n      dup1\n      0xf9931be0\n      eq\n      tag_18\n      jumpi\n      dup1\n      0xfbe53234\n      eq\n      tag_19\n      jumpi\n      0x00\n      dup1\n      revert\n    tag_21:\n      dup1\n      0x715018a6\n      eq\n      tag_11\n      jumpi\n      dup1\n      0x8da5cb5b\n      eq\n      tag_12\n      jumpi\n      dup1\n      0x9ae71781\n      eq\n      tag_13\n      jumpi\n      dup1\n      0xa4983421\n      eq\n      tag_14\n      jumpi\n      0x00\n      dup1\n      revert\n    tag_20:\n      dup1\n      0x4635256e\n      gt\n      tag_22\n      jumpi\n      dup1\n      0x4635256e\n      eq\n      tag_6\n      jumpi\n      dup1\n      0x4ce7957c\n      eq\n      tag_7\n      jumpi\n      dup1\n      0x5a8a764e\n      eq\n      tag_8\n      jumpi\n      dup1\n      0x5cf4ee91\n      eq\n      tag_9\n      jumpi\n      dup1\n      0x6945b123\n      eq\n      tag_10\n      jumpi\n      0x00\n      dup1\n      revert\n    tag_22:\n      dup1\n      0x020235ff\n      eq\n      tag_2\n      jumpi\n      dup1\n      0x0f026f6d\n      eq\n      tag_3\n      jumpi\n      dup1\n      0x2267a89c\n      eq\n      tag_4\n      jumpi\n      dup1\n      0x24dc441d\n      eq\n      tag_5\n      jumpi\n    tag_1:\n      0x00\n      dup1\n      revert\n        /* \"sosh/CertiFren.sol\":498:566  mapping(address => mapping(address => uint256)) public sharesBalance */\n    tag_2:\n      callvalue\n      dup1\n      iszero\n      tag_23\n      jumpi\n      0x00\n      dup1\n      revert\n    tag_23:\n      pop\n      tag_24\n      tag_25\n      calldatasize\n      0x04\n      tag_26\n      jump\t// in\n    tag_25:\n      0x04\n      0x20\n      swap1\n      dup2\n      mstore\n      0x00\n      swap3\n      dup4\n      mstore\n      0x40\n      dup1\n      dup5\n      keccak256\n      swap1\n      swap2\n      mstore\n      swap1\n      dup3\n      mstore\n      swap1\n      keccak256\n      sload\n      dup2\n      jump\n    tag_24:\n      mload(0x40)\n        /* \"#utility.yul\":603:628   */\n      swap1\n      dup2\n      mstore\n        /* \"#utility.yul\":591:593   */\n      0x20\n        /* \"#utility.yul\":576:594   */\n      add\n        /* \"sosh/CertiFren.sol\":498:566  mapping(address => mapping(address => uint256)) public sharesBalance */\n    tag_28:\n      mload(0x40)\n      dup1\n      swap2\n      sub\n      swap1\n      return\n        /* \"sosh/CertiFren.sol\":1786:2134  function getBuyPriceAfterFee(address sharesSubject, uint256 amount) public view returns (uint256) {... */\n    tag_3:\n      callvalue\n      dup1\n      iszero\n      tag_30\n      jumpi\n      0x00\n      dup1\n      revert\n    tag_30:\n      pop\n      tag_24\n      tag_32\n      calldatasize\n      0x04\n      tag_33\n      jump\t// in\n    tag_32:\n      tag_34\n      jump\t// in\n        /* \"sosh/CertiFren.sol\":2140:2490  function getSellPriceAfterFee(address sharesSubject, uint256 amount) public view returns (uint256) {... */\n    tag_4:\n      callvalue\n      dup1\n      iszero\n      tag_36\n      jumpi\n      0x00\n      dup1\n      revert\n    tag_36:\n      pop\n      tag_24\n      tag_38\n      calldatasize\n      0x04\n      tag_33\n      jump\t// in\n    tag_38:\n      tag_39\n      jump\t// in\n        /* \"sosh/CertiFren.sol\":243:275  uint256 public subjectFeePercent */\n    tag_5:\n      callvalue\n      dup1\n      iszero\n      tag_41\n      jumpi\n      0x00\n      dup1\n      revert\n    tag_41:\n      pop\n      tag_24\n      sload(0x03)\n      dup2\n      jump\n        /* \"sosh/CertiFren.sol\":1446:1605  function getBuyPrice(address sharesSubject, uint256 amount) public view returns (uint256) {... */\n    tag_6:\n      callvalue\n      dup1\n      iszero\n      tag_45\n      jumpi\n      0x00\n      dup1\n      revert\n    tag_45:\n      pop\n      tag_24\n      tag_47\n      calldatasize\n      0x04\n      tag_33\n      jump\t// in\n    tag_47:\n      tag_48\n      jump\t// in\n        /* \"sosh/CertiFren.sol\":161:198  address public protocolFeeDestination */\n    tag_7:\n      callvalue\n      dup1\n      iszero\n      tag_50\n      jumpi\n      0x00\n      dup1\n      revert\n    tag_50:\n      pop\n      sload(0x01)\n      tag_51\n      swap1\n      sub(shl(0xa0, 0x01), 0x01)\n      and\n      dup2\n      jump\n    tag_51:\n      mload(0x40)\n      sub(shl(0xa0, 0x01), 0x01)\n        /* \"#utility.yul\":1062:1094   */\n      swap1\n      swap2\n      and\n        /* \"#utility.yul\":1044:1095   */\n      dup2\n      mstore\n        /* \"#utility.yul\":1032:1034   */\n      0x20\n        /* \"#utility.yul\":1017:1035   */\n      add\n        /* \"sosh/CertiFren.sol\":161:198  address public protocolFeeDestination */\n      tag_28\n        /* \"#utility.yul\":898:1101   */\n      jump\n        /* \"sosh/CertiFren.sol\":914:1030  function setSubjectFeePercent(uint256 _feePercent) public onlyOwner {... */\n    tag_8:\n      callvalue\n      dup1\n      iszero\n      tag_55\n      jumpi\n      0x00\n      dup1\n      revert\n    tag_55:\n      pop\n      tag_56\n      tag_57\n      calldatasize\n      0x04\n      tag_58\n      jump\t// in\n    tag_57:\n      tag_59\n      jump\t// in\n    tag_56:\n      stop\n        /* \"sosh/CertiFren.sol\":1036:1440  function getPrice(uint256 supply, uint256 amount) public pure returns (uint256) {... */\n    tag_9:\n      callvalue\n      dup1\n      iszero\n      tag_60\n      jumpi\n      0x00\n      dup1\n      revert\n    tag_60:\n      pop\n      tag_24\n      tag_62\n      calldatasize\n      0x04\n      tag_63\n      jump\t// in\n    tag_62:\n      tag_64\n      jump\t// in\n        /* \"sosh/CertiFren.sol\":2496:3496  function buyShares(address sharesSubject, uint256 amount) public payable {... */\n    tag_10:\n      tag_56\n      tag_67\n      calldatasize\n      0x04\n      tag_33\n      jump\t// in\n    tag_67:\n      tag_68\n      jump\t// in\n        /* \"@openzeppelin/contracts@4.7.0/access/Ownable.sol\":1831:1932  function renounceOwnership() public virtual onlyOwner {... */\n    tag_11:\n      callvalue\n      dup1\n      iszero\n      tag_69\n      jumpi\n      0x00\n      dup1\n      revert\n    tag_69:\n      pop\n      tag_56\n      tag_71\n      jump\t// in\n        /* \"@openzeppelin/contracts@4.7.0/access/Ownable.sol\":1201:1286  function owner() public view virtual returns (address) {... */\n    tag_12:\n      callvalue\n      dup1\n      iszero\n      tag_72\n      jumpi\n      0x00\n      dup1\n      revert\n    tag_72:\n      pop\n        /* \"@openzeppelin/contracts@4.7.0/access/Ownable.sol\":1247:1254  address */\n      0x00\n        /* \"@openzeppelin/contracts@4.7.0/access/Ownable.sol\":1273:1279  _owner */\n      sload\n      sub(shl(0xa0, 0x01), 0x01)\n      and\n        /* \"@openzeppelin/contracts@4.7.0/access/Ownable.sol\":1201:1286  function owner() public view virtual returns (address) {... */\n      jump(tag_51)\n        /* \"sosh/CertiFren.sol\":1611:1780  function getSellPrice(address sharesSubject, uint256 amount) public view returns (uint256) {... */\n    tag_13:\n      callvalue\n      dup1\n      iszero\n      tag_76\n      jumpi\n      0x00\n      dup1\n      revert\n    tag_76:\n      pop\n      tag_24\n      tag_78\n      calldatasize\n      0x04\n      tag_33\n      jump\t// in\n    tag_78:\n      tag_79\n      jump\t// in\n        /* \"sosh/CertiFren.sol\":790:908  function setProtocolFeePercent(uint256 _feePercent) public onlyOwner {... */\n    tag_14:\n      callvalue\n      dup1\n      iszero\n      tag_81\n      jumpi\n      0x00\n      dup1\n      revert\n    tag_81:\n      pop\n      tag_56\n      tag_83\n      calldatasize\n      0x04\n      tag_58\n      jump\t// in\n    tag_83:\n      tag_84\n      jump\t// in\n        /* \"sosh/CertiFren.sol\":3502:4571  function sellShares(address sharesSubject, uint256 amount) public payable {... */\n    tag_15:\n      tag_56\n      tag_86\n      calldatasize\n      0x04\n      tag_33\n      jump\t// in\n    tag_86:\n      tag_87\n      jump\t// in\n        /* \"sosh/CertiFren.sol\":204:237  uint256 public protocolFeePercent */\n    tag_16:\n      callvalue\n      dup1\n      iszero\n      tag_88\n      jumpi\n      0x00\n      dup1\n      revert\n    tag_88:\n      pop\n      tag_24\n      sload(0x02)\n      dup2\n      jump\n        /* \"@openzeppelin/contracts@4.7.0/access/Ownable.sol\":2081:2279  function transferOwnership(address newOwner) public virtual onlyOwner {... */\n    tag_17:\n      callvalue\n      dup1\n      iszero\n      tag_92\n      jumpi\n      0x00\n      dup1\n      revert\n    tag_92:\n      pop\n      tag_56\n      tag_94\n      calldatasize\n      0x04\n      tag_95\n      jump\t// in\n    tag_94:\n      tag_96\n      jump\t// in\n        /* \"sosh/CertiFren.sol\":604:651  mapping(address => uint256) public sharesSupply */\n    tag_18:\n      callvalue\n      dup1\n      iszero\n      tag_97\n      jumpi\n      0x00\n      dup1\n      revert\n    tag_97:\n      pop\n      tag_24\n      tag_99\n      calldatasize\n      0x04\n      tag_95\n      jump\t// in\n    tag_99:\n      mstore(0x20, 0x05)\n      0x00\n      swap1\n      dup2\n      mstore\n      0x40\n      swap1\n      keccak256\n      sload\n      dup2\n      jump\n        /* \"sosh/CertiFren.sol\":658:784  function setFeeDestination(address _feeDestination) public onlyOwner {... */\n    tag_19:\n      callvalue\n      dup1\n      iszero\n      tag_102\n      jumpi\n      0x00\n      dup1\n      revert\n    tag_102:\n      pop\n      tag_56\n      tag_104\n      calldatasize\n      0x04\n      tag_95\n      jump\t// in\n    tag_104:\n      tag_105\n      jump\t// in\n        /* \"sosh/CertiFren.sol\":1786:2134  function getBuyPriceAfterFee(address sharesSubject, uint256 amount) public view returns (uint256) {... */\n    tag_34:\n        /* \"sosh/CertiFren.sol\":1875:1882  uint256 */\n      0x00\n        /* \"sosh/CertiFren.sol\":1894:1907  uint256 price */\n      dup1\n        /* \"sosh/CertiFren.sol\":1910:1944  getBuyPrice(sharesSubject, amount) */\n      tag_107\n        /* \"sosh/CertiFren.sol\":1922:1935  sharesSubject */\n      dup5\n        /* \"sosh/CertiFren.sol\":1937:1943  amount */\n      dup5\n        /* \"sosh/CertiFren.sol\":1910:1921  getBuyPrice */\n      tag_48\n        /* \"sosh/CertiFren.sol\":1910:1944  getBuyPrice(sharesSubject, amount) */\n      jump\t// in\n    tag_107:\n        /* \"sosh/CertiFren.sol\":1894:1944  uint256 price = getBuyPrice(sharesSubject, amount) */\n      swap1\n      pop\n        /* \"sosh/CertiFren.sol\":1954:1973  uint256 protocolFee */\n      0x00\n        /* \"sosh/CertiFren.sol\":2005:2012  1 ether */\n      0x0de0b6b3a7640000\n        /* \"sosh/CertiFren.sol\":1984:2002  protocolFeePercent */\n      sload(0x02)\n        /* \"sosh/CertiFren.sol\":1976:1981  price */\n      dup4\n        /* \"sosh/CertiFren.sol\":1976:2002  price * protocolFeePercent */\n      tag_108\n      swap2\n      swap1\n      tag_109\n      jump\t// in\n    tag_108:\n        /* \"sosh/CertiFren.sol\":1976:2012  price * protocolFeePercent / 1 ether */\n      tag_110\n      swap2\n      swap1\n      tag_111\n      jump\t// in\n    tag_110:\n        /* \"sosh/CertiFren.sol\":1954:2012  uint256 protocolFee = price * protocolFeePercent / 1 ether */\n      swap1\n      pop\n        /* \"sosh/CertiFren.sol\":2022:2040  uint256 subjectFee */\n      0x00\n        /* \"sosh/CertiFren.sol\":2071:2078  1 ether */\n      0x0de0b6b3a7640000\n        /* \"sosh/CertiFren.sol\":2051:2068  subjectFeePercent */\n      sload(0x03)\n        /* \"sosh/CertiFren.sol\":2043:2048  price */\n      dup5\n        /* \"sosh/CertiFren.sol\":2043:2068  price * subjectFeePercent */\n      tag_112\n      swap2\n      swap1\n      tag_109\n      jump\t// in\n    tag_112:\n        /* \"sosh/CertiFren.sol\":2043:2078  price * subjectFeePercent / 1 ether */\n      tag_113\n      swap2\n      swap1\n      tag_111\n      jump\t// in\n    tag_113:\n        /* \"sosh/CertiFren.sol\":2022:2078  uint256 subjectFee = price * subjectFeePercent / 1 ether */\n      swap1\n      pop\n      dup1\n        /* \"sosh/CertiFren.sol\":2095:2114  price + protocolFee */\n      tag_114\n        /* \"sosh/CertiFren.sol\":2103:2114  protocolFee */\n      dup4\n        /* \"sosh/CertiFren.sol\":2095:2100  price */\n      dup6\n        /* \"sosh/CertiFren.sol\":2095:2114  price + protocolFee */\n      tag_115\n      jump\t// in\n    tag_114:\n        /* \"sosh/CertiFren.sol\":2095:2127  price + protocolFee + subjectFee */\n      tag_116\n      swap2\n      swap1\n      tag_115\n      jump\t// in\n    tag_116:\n        /* \"sosh/CertiFren.sol\":2088:2127  return price + protocolFee + subjectFee */\n      swap4\n      pop\n      pop\n      pop\n      pop\n        /* \"sosh/CertiFren.sol\":1786:2134  function getBuyPriceAfterFee(address sharesSubject, uint256 amount) public view returns (uint256) {... */\n    tag_106:\n      swap3\n      swap2\n      pop\n      pop\n      jump\t// out\n        /* \"sosh/CertiFren.sol\":2140:2490  function getSellPriceAfterFee(address sharesSubject, uint256 amount) public view returns (uint256) {... */\n    tag_39:\n        /* \"sosh/CertiFren.sol\":2230:2237  uint256 */\n      0x00\n        /* \"sosh/CertiFren.sol\":2249:2262  uint256 price */\n      dup1\n        /* \"sosh/CertiFren.sol\":2265:2300  getSellPrice(sharesSubject, amount) */\n      tag_118\n        /* \"sosh/CertiFren.sol\":2278:2291  sharesSubject */\n      dup5\n        /* \"sosh/CertiFren.sol\":2293:2299  amount */\n      dup5\n        /* \"sosh/CertiFren.sol\":2265:2277  getSellPrice */\n      tag_79\n        /* \"sosh/CertiFren.sol\":2265:2300  getSellPrice(sharesSubject, amount) */\n      jump\t// in\n    tag_118:\n        /* \"sosh/CertiFren.sol\":2249:2300  uint256 price = getSellPrice(sharesSubject, amount) */\n      swap1\n      pop\n        /* \"sosh/CertiFren.sol\":2310:2329  uint256 protocolFee */\n      0x00\n        /* \"sosh/CertiFren.sol\":2361:2368  1 ether */\n      0x0de0b6b3a7640000\n        /* \"sosh/CertiFren.sol\":2340:2358  protocolFeePercent */\n      sload(0x02)\n        /* \"sosh/CertiFren.sol\":2332:2337  price */\n      dup4\n        /* \"sosh/CertiFren.sol\":2332:2358  price * protocolFeePercent */\n      tag_119\n      swap2\n      swap1\n      tag_109\n      jump\t// in\n    tag_119:\n        /* \"sosh/CertiFren.sol\":2332:2368  price * protocolFeePercent / 1 ether */\n      tag_120\n      swap2\n      swap1\n      tag_111\n      jump\t// in\n    tag_120:\n        /* \"sosh/CertiFren.sol\":2310:2368  uint256 protocolFee = price * protocolFeePercent / 1 ether */\n      swap1\n      pop\n        /* \"sosh/CertiFren.sol\":2378:2396  uint256 subjectFee */\n      0x00\n        /* \"sosh/CertiFren.sol\":2427:2434  1 ether */\n      0x0de0b6b3a7640000\n        /* \"sosh/CertiFren.sol\":2407:2424  subjectFeePercent */\n      sload(0x03)\n        /* \"sosh/CertiFren.sol\":2399:2404  price */\n      dup5\n        /* \"sosh/CertiFren.sol\":2399:2424  price * subjectFeePercent */\n      tag_121\n      swap2\n      swap1\n      tag_109\n      jump\t// in\n    tag_121:\n        /* \"sosh/CertiFren.sol\":2399:2434  price * subjectFeePercent / 1 ether */\n      tag_122\n      swap2\n      swap1\n      tag_111\n      jump\t// in\n    tag_122:\n        /* \"sosh/CertiFren.sol\":2378:2434  uint256 subjectFee = price * subjectFeePercent / 1 ether */\n      swap1\n      pop\n      dup1\n        /* \"sosh/CertiFren.sol\":2451:2470  price - protocolFee */\n      tag_123\n        /* \"sosh/CertiFren.sol\":2459:2470  protocolFee */\n      dup4\n        /* \"sosh/CertiFren.sol\":2451:2456  price */\n      dup6\n        /* \"sosh/CertiFren.sol\":2451:2470  price - protocolFee */\n      tag_124\n      jump\t// in\n    tag_123:\n        /* \"sosh/CertiFren.sol\":2451:2483  price - protocolFee - subjectFee */\n      tag_116\n      swap2\n      swap1\n      tag_124\n      jump\t// in\n        /* \"sosh/CertiFren.sol\":1446:1605  function getBuyPrice(address sharesSubject, uint256 amount) public view returns (uint256) {... */\n    tag_48:\n      sub(shl(0xa0, 0x01), 0x01)\n        /* \"sosh/CertiFren.sol\":1562:1589  sharesSupply[sharesSubject] */\n      dup3\n      and\n        /* \"sosh/CertiFren.sol\":1527:1534  uint256 */\n      0x00\n        /* \"sosh/CertiFren.sol\":1562:1589  sharesSupply[sharesSubject] */\n      swap1\n      dup2\n      mstore\n        /* \"sosh/CertiFren.sol\":1562:1574  sharesSupply */\n      0x05\n        /* \"sosh/CertiFren.sol\":1562:1589  sharesSupply[sharesSubject] */\n      0x20\n      mstore\n      0x40\n      dup2\n      keccak256\n      sload\n        /* \"sosh/CertiFren.sol\":1553:1598  getPrice(sharesSupply[sharesSubject], amount) */\n      tag_127\n      swap1\n        /* \"sosh/CertiFren.sol\":1591:1597  amount */\n      dup4\n        /* \"sosh/CertiFren.sol\":1553:1561  getPrice */\n      tag_64\n        /* \"sosh/CertiFren.sol\":1553:1598  getPrice(sharesSupply[sharesSubject], amount) */\n      jump\t// in\n    tag_127:\n        /* \"sosh/CertiFren.sol\":1546:1598  return getPrice(sharesSupply[sharesSubject], amount) */\n      swap4\n        /* \"sosh/CertiFren.sol\":1446:1605  function getBuyPrice(address sharesSubject, uint256 amount) public view returns (uint256) {... */\n      swap3\n      pop\n      pop\n      pop\n      jump\t// out\n        /* \"sosh/CertiFren.sol\":914:1030  function setSubjectFeePercent(uint256 _feePercent) public onlyOwner {... */\n    tag_59:\n        /* \"@openzeppelin/contracts@4.7.0/access/Ownable.sol\":1094:1107  _checkOwner() */\n      tag_129\n        /* \"@openzeppelin/contracts@4.7.0/access/Ownable.sol\":1094:1105  _checkOwner */\n      tag_130\n        /* \"@openzeppelin/contracts@4.7.0/access/Ownable.sol\":1094:1107  _checkOwner() */\n      jump\t// in\n    tag_129:\n        /* \"sosh/CertiFren.sol\":992:1009  subjectFeePercent */\n      0x03\n        /* \"sosh/CertiFren.sol\":992:1023  subjectFeePercent = _feePercent */\n      sstore\n        /* \"sosh/CertiFren.sol\":914:1030  function setSubjectFeePercent(uint256 _feePercent) public onlyOwner {... */\n      jump\t// out\n        /* \"sosh/CertiFren.sol\":1036:1440  function getPrice(uint256 supply, uint256 amount) public pure returns (uint256) {... */\n    tag_64:\n        /* \"sosh/CertiFren.sol\":1107:1114  uint256 */\n      0x00\n      dup1\n        /* \"sosh/CertiFren.sol\":1141:1152  supply == 0 */\n      dup4\n      iszero\n        /* \"sosh/CertiFren.sol\":1141:1211  supply == 0 ? 0 : (supply - 1 )* (supply) * (2 * (supply - 1) + 1) / 6 */\n      tag_133\n      jumpi\n        /* \"sosh/CertiFren.sol\":1210:1211  6 */\n      0x06\n        /* \"sosh/CertiFren.sol\":1191:1201  supply - 1 */\n      tag_134\n        /* \"sosh/CertiFren.sol\":1200:1201  1 */\n      0x01\n        /* \"sosh/CertiFren.sol\":1191:1197  supply */\n      dup7\n        /* \"sosh/CertiFren.sol\":1191:1201  supply - 1 */\n      tag_124\n      jump\t// in\n    tag_134:\n        /* \"sosh/CertiFren.sol\":1186:1202  2 * (supply - 1) */\n      tag_135\n      swap1\n        /* \"sosh/CertiFren.sol\":1186:1187  2 */\n      0x02\n        /* \"sosh/CertiFren.sol\":1186:1202  2 * (supply - 1) */\n      tag_109\n      jump\t// in\n    tag_135:\n        /* \"sosh/CertiFren.sol\":1186:1206  2 * (supply - 1) + 1 */\n      tag_136\n      swap1\n        /* \"sosh/CertiFren.sol\":1205:1206  1 */\n      0x01\n        /* \"sosh/CertiFren.sol\":1186:1206  2 * (supply - 1) + 1 */\n      tag_115\n      jump\t// in\n    tag_136:\n        /* \"sosh/CertiFren.sol\":1175:1181  supply */\n      dup6\n        /* \"sosh/CertiFren.sol\":1160:1170  supply - 1 */\n      tag_137\n        /* \"sosh/CertiFren.sol\":1169:1170  1 */\n      0x01\n        /* \"sosh/CertiFren.sol\":1175:1181  supply */\n      dup3\n        /* \"sosh/CertiFren.sol\":1160:1170  supply - 1 */\n      tag_124\n      jump\t// in\n    tag_137:\n        /* \"sosh/CertiFren.sol\":1159:1182  (supply - 1 )* (supply) */\n      tag_138\n      swap2\n      swap1\n      tag_109\n      jump\t// in\n    tag_138:\n        /* \"sosh/CertiFren.sol\":1159:1207  (supply - 1 )* (supply) * (2 * (supply - 1) + 1) */\n      tag_139\n      swap2\n      swap1\n      tag_109\n      jump\t// in\n    tag_139:\n        /* \"sosh/CertiFren.sol\":1159:1211  (supply - 1 )* (supply) * (2 * (supply - 1) + 1) / 6 */\n      tag_140\n      swap2\n      swap1\n      tag_111\n      jump\t// in\n    tag_140:\n        /* \"sosh/CertiFren.sol\":1141:1211  supply == 0 ? 0 : (supply - 1 )* (supply) * (2 * (supply - 1) + 1) / 6 */\n      jump(tag_141)\n    tag_133:\n        /* \"sosh/CertiFren.sol\":1155:1156  0 */\n      0x00\n        /* \"sosh/CertiFren.sol\":1141:1211  supply == 0 ? 0 : (supply - 1 )* (supply) * (2 * (supply - 1) + 1) / 6 */\n    tag_141:\n        /* \"sosh/CertiFren.sol\":1126:1211  uint256 sum1 = supply == 0 ? 0 : (supply - 1 )* (supply) * (2 * (supply - 1) + 1) / 6 */\n      swap1\n      pop\n        /* \"sosh/CertiFren.sol\":1221:1233  uint256 sum2 */\n      0x00\n        /* \"sosh/CertiFren.sol\":1236:1247  supply == 0 */\n      dup5\n      iszero\n        /* \"sosh/CertiFren.sol\":1236:1262  supply == 0 && amount == 1 */\n      dup1\n      iszero\n      tag_142\n      jumpi\n      pop\n        /* \"sosh/CertiFren.sol\":1251:1257  amount */\n      dup4\n        /* \"sosh/CertiFren.sol\":1261:1262  1 */\n      0x01\n        /* \"sosh/CertiFren.sol\":1251:1262  amount == 1 */\n      eq\n        /* \"sosh/CertiFren.sol\":1236:1262  supply == 0 && amount == 1 */\n    tag_142:\n        /* \"sosh/CertiFren.sol\":1236:1348  supply == 0 && amount == 1 ? 0 : (supply - 1 + amount) * (supply + amount) * (2 * (supply - 1 + amount) + 1) / 6 */\n      tag_143\n      jumpi\n        /* \"sosh/CertiFren.sol\":1347:1348  6 */\n      0x06\n        /* \"sosh/CertiFren.sol\":1332:1338  amount */\n      dup5\n        /* \"sosh/CertiFren.sol\":1319:1329  supply - 1 */\n      tag_144\n        /* \"sosh/CertiFren.sol\":1328:1329  1 */\n      0x01\n        /* \"sosh/CertiFren.sol\":1319:1325  supply */\n      dup9\n        /* \"sosh/CertiFren.sol\":1319:1329  supply - 1 */\n      tag_124\n      jump\t// in\n    tag_144:\n        /* \"sosh/CertiFren.sol\":1319:1338  supply - 1 + amount */\n      tag_145\n      swap2\n      swap1\n      tag_115\n      jump\t// in\n    tag_145:\n        /* \"sosh/CertiFren.sol\":1314:1339  2 * (supply - 1 + amount) */\n      tag_146\n      swap1\n        /* \"sosh/CertiFren.sol\":1314:1315  2 */\n      0x02\n        /* \"sosh/CertiFren.sol\":1314:1339  2 * (supply - 1 + amount) */\n      tag_109\n      jump\t// in\n    tag_146:\n        /* \"sosh/CertiFren.sol\":1314:1343  2 * (supply - 1 + amount) + 1 */\n      tag_147\n      swap1\n        /* \"sosh/CertiFren.sol\":1342:1343  1 */\n      0x01\n        /* \"sosh/CertiFren.sol\":1314:1343  2 * (supply - 1 + amount) + 1 */\n      tag_115\n      jump\t// in\n    tag_147:\n        /* \"sosh/CertiFren.sol\":1294:1309  supply + amount */\n      tag_148\n        /* \"sosh/CertiFren.sol\":1303:1309  amount */\n      dup7\n        /* \"sosh/CertiFren.sol\":1294:1300  supply */\n      dup9\n        /* \"sosh/CertiFren.sol\":1294:1309  supply + amount */\n      tag_115\n      jump\t// in\n    tag_148:\n        /* \"sosh/CertiFren.sol\":1283:1289  amount */\n      dup7\n        /* \"sosh/CertiFren.sol\":1270:1280  supply - 1 */\n      tag_149\n        /* \"sosh/CertiFren.sol\":1279:1280  1 */\n      0x01\n        /* \"sosh/CertiFren.sol\":1270:1276  supply */\n      dup11\n        /* \"sosh/CertiFren.sol\":1270:1280  supply - 1 */\n      tag_124\n      jump\t// in\n    tag_149:\n        /* \"sosh/CertiFren.sol\":1270:1289  supply - 1 + amount */\n      tag_150\n      swap2\n      swap1\n      tag_115\n      jump\t// in\n    tag_150:\n        /* \"sosh/CertiFren.sol\":1269:1310  (supply - 1 + amount) * (supply + amount) */\n      tag_151\n      swap2\n      swap1\n      tag_109\n      jump\t// in\n    tag_151:\n        /* \"sosh/CertiFren.sol\":1269:1344  (supply - 1 + amount) * (supply + amount) * (2 * (supply - 1 + amount) + 1) */\n      tag_152\n      swap2\n      swap1\n      tag_109\n      jump\t// in\n    tag_152:\n        /* \"sosh/CertiFren.sol\":1269:1348  (supply - 1 + amount) * (supply + amount) * (2 * (supply - 1 + amount) + 1) / 6 */\n      tag_153\n      swap2\n      swap1\n      tag_111\n      jump\t// in\n    tag_153:\n        /* \"sosh/CertiFren.sol\":1236:1348  supply == 0 && amount == 1 ? 0 : (supply - 1 + amount) * (supply + amount) * (2 * (supply - 1 + amount) + 1) / 6 */\n      jump(tag_154)\n    tag_143:\n        /* \"sosh/CertiFren.sol\":1265:1266  0 */\n      0x00\n        /* \"sosh/CertiFren.sol\":1236:1348  supply == 0 && amount == 1 ? 0 : (supply - 1 + amount) * (supply + amount) * (2 * (supply - 1 + amount) + 1) / 6 */\n    tag_154:\n        /* \"sosh/CertiFren.sol\":1221:1348  uint256 sum2 = supply == 0 && amount == 1 ? 0 : (supply - 1 + amount) * (supply + amount) * (2 * (supply - 1 + amount) + 1) / 6 */\n      swap1\n      pop\n        /* \"sosh/CertiFren.sol\":1358:1375  uint256 summation */\n      0x00\n        /* \"sosh/CertiFren.sol\":1378:1389  sum2 - sum1 */\n      tag_155\n        /* \"sosh/CertiFren.sol\":1385:1389  sum1 */\n      dup4\n        /* \"sosh/CertiFren.sol\":1221:1348  uint256 sum2 = supply == 0 && amount == 1 ? 0 : (supply - 1 + amount) * (supply + amount) * (2 * (supply - 1 + amount) + 1) / 6 */\n      dup4\n        /* \"sosh/CertiFren.sol\":1378:1389  sum2 - sum1 */\n      tag_124\n      jump\t// in\n    tag_155:\n        /* \"sosh/CertiFren.sol\":1358:1389  uint256 summation = sum2 - sum1 */\n      swap1\n      pop\n        /* \"sosh/CertiFren.sol\":1428:1433  16000 */\n      0x3e80\n        /* \"sosh/CertiFren.sol\":1406:1425  summation * 1 ether */\n      tag_156\n        /* \"sosh/CertiFren.sol\":1358:1389  uint256 summation = sum2 - sum1 */\n      dup3\n        /* \"sosh/CertiFren.sol\":1418:1425  1 ether */\n      0x0de0b6b3a7640000\n        /* \"sosh/CertiFren.sol\":1406:1425  summation * 1 ether */\n      tag_109\n      jump\t// in\n    tag_156:\n        /* \"sosh/CertiFren.sol\":1406:1433  summation * 1 ether / 16000 */\n      tag_116\n      swap2\n      swap1\n      tag_111\n      jump\t// in\n        /* \"sosh/CertiFren.sol\":2496:3496  function buyShares(address sharesSubject, uint256 amount) public payable {... */\n    tag_68:\n      sub(shl(0xa0, 0x01), 0x01)\n        /* \"sosh/CertiFren.sol\":2596:2623  sharesSupply[sharesSubject] */\n      dup3\n      and\n        /* \"sosh/CertiFren.sol\":2579:2593  uint256 supply */\n      0x00\n        /* \"sosh/CertiFren.sol\":2596:2623  sharesSupply[sharesSubject] */\n      swap1\n      dup2\n      mstore\n        /* \"sosh/CertiFren.sol\":2596:2608  sharesSupply */\n      0x05\n        /* \"sosh/CertiFren.sol\":2596:2623  sharesSupply[sharesSubject] */\n      0x20\n      mstore\n      0x40\n      swap1\n      keccak256\n      sload\n        /* \"sosh/CertiFren.sol\":2641:2651  supply > 0 */\n      dup1\n      iszero\n      iszero\n      dup1\n        /* \"sosh/CertiFren.sol\":2641:2682  supply > 0 || sharesSubject == msg.sender */\n      tag_159\n      jumpi\n      pop\n      sub(shl(0xa0, 0x01), 0x01)\n        /* \"sosh/CertiFren.sol\":2655:2682  sharesSubject == msg.sender */\n      dup4\n      and\n        /* \"sosh/CertiFren.sol\":2672:2682  msg.sender */\n      caller\n        /* \"sosh/CertiFren.sol\":2655:2682  sharesSubject == msg.sender */\n      eq\n        /* \"sosh/CertiFren.sol\":2641:2682  supply > 0 || sharesSubject == msg.sender */\n    tag_159:\n        /* \"sosh/CertiFren.sol\":2633:2735  require(supply > 0 || sharesSubject == msg.sender, \"Only the shares' subject can buy the first share\") */\n      tag_160\n      jumpi\n      mload(0x40)\n      shl(0xe5, 0x461bcd)\n      dup2\n      mstore\n        /* \"#utility.yul\":2727:2729   */\n      0x20\n        /* \"sosh/CertiFren.sol\":2633:2735  require(supply > 0 || sharesSubject == msg.sender, \"Only the shares' subject can buy the first share\") */\n      0x04\n      dup3\n      add\n        /* \"#utility.yul\":2709:2730   */\n      mstore\n        /* \"#utility.yul\":2766:2768   */\n      0x30\n        /* \"#utility.yul\":2746:2764   */\n      0x24\n      dup3\n      add\n        /* \"#utility.yul\":2739:2769   */\n      mstore\n        /* \"#utility.yul\":2805:2839   */\n      0x4f6e6c79207468652073686172657327207375626a6563742063616e20627579\n        /* \"#utility.yul\":2785:2803   */\n      0x44\n      dup3\n      add\n        /* \"#utility.yul\":2778:2840   */\n      mstore\n      shl(0x80, 0x20746865206669727374207368617265)\n        /* \"#utility.yul\":2856:2874   */\n      0x64\n      dup3\n      add\n        /* \"#utility.yul\":2849:2895   */\n      mstore\n        /* \"#utility.yul\":2912:2931   */\n      0x84\n      add\n        /* \"sosh/CertiFren.sol\":2633:2735  require(supply > 0 || sharesSubject == msg.sender, \"Only the shares' subject can buy the first share\") */\n    tag_161:\n      mload(0x40)\n      dup1\n      swap2\n      sub\n      swap1\n      revert\n    tag_160:\n        /* \"sosh/CertiFren.sol\":2745:2758  uint256 price */\n      0x00\n        /* \"sosh/CertiFren.sol\":2761:2785  getPrice(supply, amount) */\n      tag_163\n        /* \"sosh/CertiFren.sol\":2770:2776  supply */\n      dup3\n        /* \"sosh/CertiFren.sol\":2778:2784  amount */\n      dup5\n        /* \"sosh/CertiFren.sol\":2761:2769  getPrice */\n      tag_64\n        /* \"sosh/CertiFren.sol\":2761:2785  getPrice(supply, amount) */\n      jump\t// in\n    tag_163:\n        /* \"sosh/CertiFren.sol\":2745:2785  uint256 price = getPrice(supply, amount) */\n      swap1\n      pop\n        /* \"sosh/CertiFren.sol\":2795:2814  uint256 protocolFee */\n      0x00\n        /* \"sosh/CertiFren.sol\":2846:2853  1 ether */\n      0x0de0b6b3a7640000\n        /* \"sosh/CertiFren.sol\":2825:2843  protocolFeePercent */\n      sload(0x02)\n        /* \"sosh/CertiFren.sol\":2817:2822  price */\n      dup4\n        /* \"sosh/CertiFren.sol\":2817:2843  price * protocolFeePercent */\n      tag_164\n      swap2\n      swap1\n      tag_109\n      jump\t// in\n    tag_164:\n        /* \"sosh/CertiFren.sol\":2817:2853  price * protocolFeePercent / 1 ether */\n      tag_165\n      swap2\n      swap1\n      tag_111\n      jump\t// in\n    tag_165:\n        /* \"sosh/CertiFren.sol\":2795:2853  uint256 protocolFee = price * protocolFeePercent / 1 ether */\n      swap1\n      pop\n        /* \"sosh/CertiFren.sol\":2863:2881  uint256 subjectFee */\n      0x00\n        /* \"sosh/CertiFren.sol\":2912:2919  1 ether */\n      0x0de0b6b3a7640000\n        /* \"sosh/CertiFren.sol\":2892:2909  subjectFeePercent */\n      sload(0x03)\n        /* \"sosh/CertiFren.sol\":2884:2889  price */\n      dup5\n        /* \"sosh/CertiFren.sol\":2884:2909  price * subjectFeePercent */\n      tag_166\n      swap2\n      swap1\n      tag_109\n      jump\t// in\n    tag_166:\n        /* \"sosh/CertiFren.sol\":2884:2919  price * subjectFeePercent / 1 ether */\n      tag_167\n      swap2\n      swap1\n      tag_111\n      jump\t// in\n    tag_167:\n        /* \"sosh/CertiFren.sol\":2863:2919  uint256 subjectFee = price * subjectFeePercent / 1 ether */\n      swap1\n      pop\n      dup1\n        /* \"sosh/CertiFren.sol\":2950:2969  price + protocolFee */\n      tag_168\n        /* \"sosh/CertiFren.sol\":2958:2969  protocolFee */\n      dup4\n        /* \"sosh/CertiFren.sol\":2950:2955  price */\n      dup6\n        /* \"sosh/CertiFren.sol\":2950:2969  price + protocolFee */\n      tag_115\n      jump\t// in\n    tag_168:\n        /* \"sosh/CertiFren.sol\":2950:2982  price + protocolFee + subjectFee */\n      tag_169\n      swap2\n      swap1\n      tag_115\n      jump\t// in\n    tag_169:\n        /* \"sosh/CertiFren.sol\":2937:2946  msg.value */\n      callvalue\n        /* \"sosh/CertiFren.sol\":2937:2982  msg.value >= price + protocolFee + subjectFee */\n      lt\n      iszero\n        /* \"sosh/CertiFren.sol\":2929:3007  require(msg.value >= price + protocolFee + subjectFee, \"Insufficient payment\") */\n      tag_170\n      jumpi\n      mload(0x40)\n      shl(0xe5, 0x461bcd)\n      dup2\n      mstore\n        /* \"#utility.yul\":3144:3146   */\n      0x20\n        /* \"sosh/CertiFren.sol\":2929:3007  require(msg.value >= price + protocolFee + subjectFee, \"Insufficient payment\") */\n      0x04\n      dup3\n      add\n        /* \"#utility.yul\":3126:3147   */\n      mstore\n        /* \"#utility.yul\":3183:3185   */\n      0x14\n        /* \"#utility.yul\":3163:3181   */\n      0x24\n      dup3\n      add\n        /* \"#utility.yul\":3156:3186   */\n      mstore\n      shl(0x62, 0x125b9cdd59999a58da595b9d081c185e5b595b9d)\n        /* \"#utility.yul\":3202:3220   */\n      0x44\n      dup3\n      add\n        /* \"#utility.yul\":3195:3245   */\n      mstore\n        /* \"#utility.yul\":3262:3280   */\n      0x64\n      add\n        /* \"sosh/CertiFren.sol\":2929:3007  require(msg.value >= price + protocolFee + subjectFee, \"Insufficient payment\") */\n      tag_161\n        /* \"#utility.yul\":2942:3286   */\n      jump\n        /* \"sosh/CertiFren.sol\":2929:3007  require(msg.value >= price + protocolFee + subjectFee, \"Insufficient payment\") */\n    tag_170:\n      sub(shl(0xa0, 0x01), 0x01)\n        /* \"sosh/CertiFren.sol\":3060:3088  sharesBalance[sharesSubject] */\n      dup7\n      and\n      0x00\n      swap1\n      dup2\n      mstore\n        /* \"sosh/CertiFren.sol\":3060:3073  sharesBalance */\n      0x04\n        /* \"sosh/CertiFren.sol\":3060:3088  sharesBalance[sharesSubject] */\n      0x20\n      swap1\n      dup2\n      mstore\n      0x40\n      dup1\n      dup4\n      keccak256\n        /* \"sosh/CertiFren.sol\":3089:3099  msg.sender */\n      caller\n        /* \"sosh/CertiFren.sol\":3060:3100  sharesBalance[sharesSubject][msg.sender] */\n      dup5\n      mstore\n      swap1\n      swap2\n      mstore\n      swap1\n      keccak256\n      sload\n        /* \"sosh/CertiFren.sol\":3060:3109  sharesBalance[sharesSubject][msg.sender] + amount */\n      tag_173\n      swap1\n        /* \"sosh/CertiFren.sol\":3103:3109  amount */\n      dup7\n      swap1\n        /* \"sosh/CertiFren.sol\":3060:3109  sharesBalance[sharesSubject][msg.sender] + amount */\n      tag_115\n      jump\t// in\n    tag_173:\n      sub(shl(0xa0, 0x01), 0x01)\n        /* \"sosh/CertiFren.sol\":3017:3045  sharesBalance[sharesSubject] */\n      dup8\n      and\n      0x00\n      swap1\n      dup2\n      mstore\n        /* \"sosh/CertiFren.sol\":3017:3030  sharesBalance */\n      0x04\n        /* \"sosh/CertiFren.sol\":3017:3045  sharesBalance[sharesSubject] */\n      0x20\n      swap1\n      dup2\n      mstore\n      0x40\n      dup1\n      dup4\n      keccak256\n        /* \"sosh/CertiFren.sol\":3046:3056  msg.sender */\n      caller\n        /* \"sosh/CertiFren.sol\":3017:3057  sharesBalance[sharesSubject][msg.sender] */\n      dup5\n      mstore\n      swap1\n      swap2\n      mstore\n      swap1\n      keccak256\n        /* \"sosh/CertiFren.sol\":3017:3109  sharesBalance[sharesSubject][msg.sender] = sharesBalance[sharesSubject][msg.sender] + amount */\n      sstore\n        /* \"sosh/CertiFren.sol\":3149:3164  supply + amount */\n      tag_174\n        /* \"sosh/CertiFren.sol\":3158:3164  amount */\n      dup6\n        /* \"sosh/CertiFren.sol\":3149:3155  supply */\n      dup6\n        /* \"sosh/CertiFren.sol\":3149:3164  supply + amount */\n      tag_115\n      jump\t// in\n    tag_174:\n      sub(shl(0xa0, 0x01), 0x01)\n        /* \"sosh/CertiFren.sol\":3119:3146  sharesSupply[sharesSubject] */\n      dup8\n      and\n      0x00\n      swap1\n      dup2\n      mstore\n        /* \"sosh/CertiFren.sol\":3119:3131  sharesSupply */\n      0x05\n        /* \"sosh/CertiFren.sol\":3119:3146  sharesSupply[sharesSubject] */\n      0x20\n      mstore\n      0x40\n      swap1\n      keccak256\n        /* \"sosh/CertiFren.sol\":3119:3164  sharesSupply[sharesSubject] = supply + amount */\n      sstore\n        /* \"sosh/CertiFren.sol\":3179:3274  Trade(msg.sender, sharesSubject, true, amount, price, protocolFee, subjectFee, supply + amount) */\n      0x2c76e7a47fd53e2854856ac3f0a5f3ee40d15cfaa82266357ea9779c486ab9c3\n        /* \"sosh/CertiFren.sol\":3185:3195  msg.sender */\n      caller\n        /* \"sosh/CertiFren.sol\":3132:3145  sharesSubject */\n      dup8\n        /* \"sosh/CertiFren.sol\":3212:3216  true */\n      0x01\n        /* \"sosh/CertiFren.sol\":3218:3224  amount */\n      dup9\n        /* \"sosh/CertiFren.sol\":3226:3231  price */\n      dup8\n        /* \"sosh/CertiFren.sol\":3233:3244  protocolFee */\n      dup8\n        /* \"sosh/CertiFren.sol\":3246:3256  subjectFee */\n      dup8\n        /* \"sosh/CertiFren.sol\":3258:3273  supply + amount */\n      tag_175\n        /* \"sosh/CertiFren.sol\":3218:3224  amount */\n      dup5\n        /* \"sosh/CertiFren.sol\":3258:3264  supply */\n      dup14\n        /* \"sosh/CertiFren.sol\":3258:3273  supply + amount */\n      tag_115\n      jump\t// in\n    tag_175:\n        /* \"sosh/CertiFren.sol\":3179:3274  Trade(msg.sender, sharesSubject, true, amount, price, protocolFee, subjectFee, supply + amount) */\n      mload(0x40)\n      tag_176\n      swap9\n      swap8\n      swap7\n      swap6\n      swap5\n      swap4\n      swap3\n      swap2\n      swap1\n      tag_177\n      jump\t// in\n    tag_176:\n      mload(0x40)\n      dup1\n      swap2\n      sub\n      swap1\n      log1\n        /* \"sosh/CertiFren.sol\":3304:3326  protocolFeeDestination */\n      sload(0x01)\n        /* \"sosh/CertiFren.sol\":3304:3355  protocolFeeDestination.call{value: protocolFee}(\"\") */\n      mload(0x40)\n        /* \"sosh/CertiFren.sol\":3285:3298  bool success1 */\n      0x00\n      swap2\n      sub(shl(0xa0, 0x01), 0x01)\n        /* \"sosh/CertiFren.sol\":3304:3326  protocolFeeDestination */\n      and\n      swap1\n        /* \"sosh/CertiFren.sol\":3339:3350  protocolFee */\n      dup5\n      swap1\n        /* \"sosh/CertiFren.sol\":3285:3298  bool success1 */\n      dup4\n        /* \"sosh/CertiFren.sol\":3304:3355  protocolFeeDestination.call{value: protocolFee}(\"\") */\n      dup2\n        /* \"sosh/CertiFren.sol\":3285:3298  bool success1 */\n      dup2\n        /* \"sosh/CertiFren.sol\":3304:3355  protocolFeeDestination.call{value: protocolFee}(\"\") */\n      dup2\n        /* \"sosh/CertiFren.sol\":3339:3350  protocolFee */\n      dup6\n        /* \"sosh/CertiFren.sol\":3304:3326  protocolFeeDestination */\n      dup8\n        /* \"sosh/CertiFren.sol\":3304:3355  protocolFeeDestination.call{value: protocolFee}(\"\") */\n      gas\n      call\n      swap3\n      pop\n      pop\n      pop\n      returndatasize\n      dup1\n      0x00\n      dup2\n      eq\n      tag_182\n      jumpi\n      mload(0x40)\n      swap2\n      pop\n      and(add(returndatasize, 0x3f), not(0x1f))\n      dup3\n      add\n      0x40\n      mstore\n      returndatasize\n      dup3\n      mstore\n      returndatasize\n      0x00\n      0x20\n      dup5\n      add\n      returndatacopy\n      jump(tag_181)\n    tag_182:\n      0x60\n      swap2\n      pop\n    tag_181:\n      pop\n        /* \"sosh/CertiFren.sol\":3284:3355  (bool success1, ) = protocolFeeDestination.call{value: protocolFee}(\"\") */\n      pop\n      swap1\n      pop\n        /* \"sosh/CertiFren.sol\":3366:3379  bool success2 */\n      0x00\n        /* \"sosh/CertiFren.sol\":3385:3398  sharesSubject */\n      dup8\n      sub(shl(0xa0, 0x01), 0x01)\n        /* \"sosh/CertiFren.sol\":3385:3403  sharesSubject.call */\n      and\n        /* \"sosh/CertiFren.sol\":3411:3421  subjectFee */\n      dup4\n        /* \"sosh/CertiFren.sol\":3385:3426  sharesSubject.call{value: subjectFee}(\"\") */\n      mload(0x40)\n      0x00\n      mload(0x40)\n      dup1\n      dup4\n      sub\n      dup2\n      dup6\n      dup8\n      gas\n      call\n      swap3\n      pop\n      pop\n      pop\n      returndatasize\n      dup1\n      0x00\n      dup2\n      eq\n      tag_186\n      jumpi\n      mload(0x40)\n      swap2\n      pop\n      and(add(returndatasize, 0x3f), not(0x1f))\n      dup3\n      add\n      0x40\n      mstore\n      returndatasize\n      dup3\n      mstore\n      returndatasize\n      0x00\n      0x20\n      dup5\n      add\n      returndatacopy\n      jump(tag_185)\n    tag_186:\n      0x60\n      swap2\n      pop\n    tag_185:\n      pop\n        /* \"sosh/CertiFren.sol\":3365:3426  (bool success2, ) = sharesSubject.call{value: subjectFee}(\"\") */\n      pop\n      swap1\n      pop\n        /* \"sosh/CertiFren.sol\":3444:3452  success1 */\n      dup2\n        /* \"sosh/CertiFren.sol\":3444:3464  success1 && success2 */\n      dup1\n      iszero\n      tag_187\n      jumpi\n      pop\n        /* \"sosh/CertiFren.sol\":3456:3464  success2 */\n      dup1\n        /* \"sosh/CertiFren.sol\":3444:3464  success1 && success2 */\n    tag_187:\n        /* \"sosh/CertiFren.sol\":3436:3489  require(success1 && success2, \"Unable to send funds\") */\n      tag_188\n      jumpi\n      mload(0x40)\n      shl(0xe5, 0x461bcd)\n      dup2\n      mstore\n        /* \"#utility.yul\":4453:4455   */\n      0x20\n        /* \"sosh/CertiFren.sol\":3436:3489  require(success1 && success2, \"Unable to send funds\") */\n      0x04\n      dup3\n      add\n        /* \"#utility.yul\":4435:4456   */\n      mstore\n        /* \"#utility.yul\":4492:4494   */\n      0x14\n        /* \"#utility.yul\":4472:4490   */\n      0x24\n      dup3\n      add\n        /* \"#utility.yul\":4465:4495   */\n      mstore\n      shl(0x60, 0x556e61626c6520746f2073656e642066756e6473)\n        /* \"#utility.yul\":4511:4529   */\n      0x44\n      dup3\n      add\n        /* \"#utility.yul\":4504:4554   */\n      mstore\n        /* \"#utility.yul\":4571:4589   */\n      0x64\n      add\n        /* \"sosh/CertiFren.sol\":3436:3489  require(success1 && success2, \"Unable to send funds\") */\n      tag_161\n        /* \"#utility.yul\":4251:4595   */\n      jump\n        /* \"sosh/CertiFren.sol\":3436:3489  require(success1 && success2, \"Unable to send funds\") */\n    tag_188:\n        /* \"sosh/CertiFren.sol\":2569:3496  {... */\n      pop\n      pop\n      pop\n      pop\n      pop\n      pop\n        /* \"sosh/CertiFren.sol\":2496:3496  function buyShares(address sharesSubject, uint256 amount) public payable {... */\n      pop\n      pop\n      jump\t// out\n        /* \"@openzeppelin/contracts@4.7.0/access/Ownable.sol\":1831:1932  function renounceOwnership() public virtual onlyOwner {... */\n    tag_71:\n        /* \"@openzeppelin/contracts@4.7.0/access/Ownable.sol\":1094:1107  _checkOwner() */\n      tag_192\n        /* \"@openzeppelin/contracts@4.7.0/access/Ownable.sol\":1094:1105  _checkOwner */\n      tag_130\n        /* \"@openzeppelin/contracts@4.7.0/access/Ownable.sol\":1094:1107  _checkOwner() */\n      jump\t// in\n    tag_192:\n        /* \"@openzeppelin/contracts@4.7.0/access/Ownable.sol\":1895:1925  _transferOwnership(address(0)) */\n      tag_194\n        /* \"@openzeppelin/contracts@4.7.0/access/Ownable.sol\":1922:1923  0 */\n      0x00\n        /* \"@openzeppelin/contracts@4.7.0/access/Ownable.sol\":1895:1913  _transferOwnership */\n      tag_195\n        /* \"@openzeppelin/contracts@4.7.0/access/Ownable.sol\":1895:1925  _transferOwnership(address(0)) */\n      jump\t// in\n    tag_194:\n        /* \"@openzeppelin/contracts@4.7.0/access/Ownable.sol\":1831:1932  function renounceOwnership() public virtual onlyOwner {... */\n      jump\t// out\n        /* \"sosh/CertiFren.sol\":1611:1780  function getSellPrice(address sharesSubject, uint256 amount) public view returns (uint256) {... */\n    tag_79:\n      sub(shl(0xa0, 0x01), 0x01)\n        /* \"sosh/CertiFren.sol\":1728:1755  sharesSupply[sharesSubject] */\n      dup3\n      and\n        /* \"sosh/CertiFren.sol\":1693:1700  uint256 */\n      0x00\n        /* \"sosh/CertiFren.sol\":1728:1755  sharesSupply[sharesSubject] */\n      swap1\n      dup2\n      mstore\n        /* \"sosh/CertiFren.sol\":1728:1740  sharesSupply */\n      0x05\n        /* \"sosh/CertiFren.sol\":1728:1755  sharesSupply[sharesSubject] */\n      0x20\n      mstore\n      0x40\n      dup2\n      keccak256\n      sload\n        /* \"sosh/CertiFren.sol\":1719:1773  getPrice(sharesSupply[sharesSubject] - amount, amount) */\n      tag_127\n      swap1\n        /* \"sosh/CertiFren.sol\":1728:1764  sharesSupply[sharesSubject] - amount */\n      tag_199\n      swap1\n        /* \"sosh/CertiFren.sol\":1758:1764  amount */\n      dup5\n      swap1\n        /* \"sosh/CertiFren.sol\":1728:1764  sharesSupply[sharesSubject] - amount */\n      tag_124\n      jump\t// in\n    tag_199:\n        /* \"sosh/CertiFren.sol\":1766:1772  amount */\n      dup4\n        /* \"sosh/CertiFren.sol\":1719:1727  getPrice */\n      tag_64\n        /* \"sosh/CertiFren.sol\":1719:1773  getPrice(sharesSupply[sharesSubject] - amount, amount) */\n      jump\t// in\n        /* \"sosh/CertiFren.sol\":790:908  function setProtocolFeePercent(uint256 _feePercent) public onlyOwner {... */\n    tag_84:\n        /* \"@openzeppelin/contracts@4.7.0/access/Ownable.sol\":1094:1107  _checkOwner() */\n      tag_201\n        /* \"@openzeppelin/contracts@4.7.0/access/Ownable.sol\":1094:1105  _checkOwner */\n      tag_130\n        /* \"@openzeppelin/contracts@4.7.0/access/Ownable.sol\":1094:1107  _checkOwner() */\n      jump\t// in\n    tag_201:\n        /* \"sosh/CertiFren.sol\":869:887  protocolFeePercent */\n      0x02\n        /* \"sosh/CertiFren.sol\":869:901  protocolFeePercent = _feePercent */\n      sstore\n        /* \"sosh/CertiFren.sol\":790:908  function setProtocolFeePercent(uint256 _feePercent) public onlyOwner {... */\n      jump\t// out\n        /* \"sosh/CertiFren.sol\":3502:4571  function sellShares(address sharesSubject, uint256 amount) public payable {... */\n    tag_87:\n      sub(shl(0xa0, 0x01), 0x01)\n        /* \"sosh/CertiFren.sol\":3603:3630  sharesSupply[sharesSubject] */\n      dup3\n      and\n        /* \"sosh/CertiFren.sol\":3586:3600  uint256 supply */\n      0x00\n        /* \"sosh/CertiFren.sol\":3603:3630  sharesSupply[sharesSubject] */\n      swap1\n      dup2\n      mstore\n        /* \"sosh/CertiFren.sol\":3603:3615  sharesSupply */\n      0x05\n        /* \"sosh/CertiFren.sol\":3603:3630  sharesSupply[sharesSubject] */\n      0x20\n      mstore\n      0x40\n      swap1\n      keccak256\n      sload\n        /* \"sosh/CertiFren.sol\":3648:3663  supply > amount */\n      dup2\n      dup2\n      gt\n        /* \"sosh/CertiFren.sol\":3640:3694  require(supply > amount, \"Cannot sell the last share\") */\n      tag_204\n      jumpi\n      mload(0x40)\n      shl(0xe5, 0x461bcd)\n      dup2\n      mstore\n        /* \"#utility.yul\":4802:4804   */\n      0x20\n        /* \"sosh/CertiFren.sol\":3640:3694  require(supply > amount, \"Cannot sell the last share\") */\n      0x04\n      dup3\n      add\n        /* \"#utility.yul\":4784:4805   */\n      mstore\n        /* \"#utility.yul\":4841:4843   */\n      0x1a\n        /* \"#utility.yul\":4821:4839   */\n      0x24\n      dup3\n      add\n        /* \"#utility.yul\":4814:4844   */\n      mstore\n        /* \"#utility.yul\":4880:4908   */\n      0x43616e6e6f742073656c6c20746865206c617374207368617265000000000000\n        /* \"#utility.yul\":4860:4878   */\n      0x44\n      dup3\n      add\n        /* \"#utility.yul\":4853:4909   */\n      mstore\n        /* \"#utility.yul\":4926:4944   */\n      0x64\n      add\n        /* \"sosh/CertiFren.sol\":3640:3694  require(supply > amount, \"Cannot sell the last share\") */\n      tag_161\n        /* \"#utility.yul\":4600:4950   */\n      jump\n        /* \"sosh/CertiFren.sol\":3640:3694  require(supply > amount, \"Cannot sell the last share\") */\n    tag_204:\n        /* \"sosh/CertiFren.sol\":3704:3717  uint256 price */\n      0x00\n        /* \"sosh/CertiFren.sol\":3720:3753  getPrice(supply - amount, amount) */\n      tag_207\n        /* \"sosh/CertiFren.sol\":3729:3744  supply - amount */\n      tag_208\n        /* \"sosh/CertiFren.sol\":3738:3744  amount */\n      dup5\n        /* \"sosh/CertiFren.sol\":3729:3735  supply */\n      dup5\n        /* \"sosh/CertiFren.sol\":3729:3744  supply - amount */\n      tag_124\n      jump\t// in\n    tag_208:\n        /* \"sosh/CertiFren.sol\":3746:3752  amount */\n      dup5\n        /* \"sosh/CertiFren.sol\":3720:3728  getPrice */\n      tag_64\n        /* \"sosh/CertiFren.sol\":3720:3753  getPrice(supply - amount, amount) */\n      jump\t// in\n    tag_207:\n        /* \"sosh/CertiFren.sol\":3704:3753  uint256 price = getPrice(supply - amount, amount) */\n      swap1\n      pop\n        /* \"sosh/CertiFren.sol\":3763:3782  uint256 protocolFee */\n      0x00\n        /* \"sosh/CertiFren.sol\":3814:3821  1 ether */\n      0x0de0b6b3a7640000\n        /* \"sosh/CertiFren.sol\":3793:3811  protocolFeePercent */\n      sload(0x02)\n        /* \"sosh/CertiFren.sol\":3785:3790  price */\n      dup4\n        /* \"sosh/CertiFren.sol\":3785:3811  price * protocolFeePercent */\n      tag_209\n      swap2\n      swap1\n      tag_109\n      jump\t// in\n    tag_209:\n        /* \"sosh/CertiFren.sol\":3785:3821  price * protocolFeePercent / 1 ether */\n      tag_210\n      swap2\n      swap1\n      tag_111\n      jump\t// in\n    tag_210:\n        /* \"sosh/CertiFren.sol\":3763:3821  uint256 protocolFee = price * protocolFeePercent / 1 ether */\n      swap1\n      pop\n        /* \"sosh/CertiFren.sol\":3831:3849  uint256 subjectFee */\n      0x00\n        /* \"sosh/CertiFren.sol\":3880:3887  1 ether */\n      0x0de0b6b3a7640000\n        /* \"sosh/CertiFren.sol\":3860:3877  subjectFeePercent */\n      sload(0x03)\n        /* \"sosh/CertiFren.sol\":3852:3857  price */\n      dup5\n        /* \"sosh/CertiFren.sol\":3852:3877  price * subjectFeePercent */\n      tag_211\n      swap2\n      swap1\n      tag_109\n      jump\t// in\n    tag_211:\n        /* \"sosh/CertiFren.sol\":3852:3887  price * subjectFeePercent / 1 ether */\n      tag_212\n      swap2\n      swap1\n      tag_111\n      jump\t// in\n    tag_212:\n      sub(shl(0xa0, 0x01), 0x01)\n        /* \"sosh/CertiFren.sol\":3905:3933  sharesBalance[sharesSubject] */\n      dup8\n      and\n      0x00\n      swap1\n      dup2\n      mstore\n        /* \"sosh/CertiFren.sol\":3905:3918  sharesBalance */\n      0x04\n        /* \"sosh/CertiFren.sol\":3905:3933  sharesBalance[sharesSubject] */\n      0x20\n      swap1\n      dup2\n      mstore\n      0x40\n      dup1\n      dup4\n      keccak256\n        /* \"sosh/CertiFren.sol\":3934:3944  msg.sender */\n      caller\n        /* \"sosh/CertiFren.sol\":3905:3945  sharesBalance[sharesSubject][msg.sender] */\n      dup5\n      mstore\n      swap1\n      swap2\n      mstore\n      swap1\n      keccak256\n      sload\n        /* \"sosh/CertiFren.sol\":3831:3887  uint256 subjectFee = price * subjectFeePercent / 1 ether */\n      swap1\n      swap2\n      pop\n        /* \"sosh/CertiFren.sol\":3905:3955  sharesBalance[sharesSubject][msg.sender] >= amount */\n      dup6\n      gt\n      iszero\n        /* \"sosh/CertiFren.sol\":3897:3979  require(sharesBalance[sharesSubject][msg.sender] >= amount, \"Insufficient shares\") */\n      tag_213\n      jumpi\n      mload(0x40)\n      shl(0xe5, 0x461bcd)\n      dup2\n      mstore\n        /* \"#utility.yul\":5157:5159   */\n      0x20\n        /* \"sosh/CertiFren.sol\":3897:3979  require(sharesBalance[sharesSubject][msg.sender] >= amount, \"Insufficient shares\") */\n      0x04\n      dup3\n      add\n        /* \"#utility.yul\":5139:5160   */\n      mstore\n        /* \"#utility.yul\":5196:5198   */\n      0x13\n        /* \"#utility.yul\":5176:5194   */\n      0x24\n      dup3\n      add\n        /* \"#utility.yul\":5169:5199   */\n      mstore\n      shl(0x68, 0x496e73756666696369656e7420736861726573)\n        /* \"#utility.yul\":5215:5233   */\n      0x44\n      dup3\n      add\n        /* \"#utility.yul\":5208:5257   */\n      mstore\n        /* \"#utility.yul\":5274:5292   */\n      0x64\n      add\n        /* \"sosh/CertiFren.sol\":3897:3979  require(sharesBalance[sharesSubject][msg.sender] >= amount, \"Insufficient shares\") */\n      tag_161\n        /* \"#utility.yul\":4955:5298   */\n      jump\n        /* \"sosh/CertiFren.sol\":3897:3979  require(sharesBalance[sharesSubject][msg.sender] >= amount, \"Insufficient shares\") */\n    tag_213:\n      sub(shl(0xa0, 0x01), 0x01)\n        /* \"sosh/CertiFren.sol\":4032:4060  sharesBalance[sharesSubject] */\n      dup7\n      and\n      0x00\n      swap1\n      dup2\n      mstore\n        /* \"sosh/CertiFren.sol\":4032:4045  sharesBalance */\n      0x04\n        /* \"sosh/CertiFren.sol\":4032:4060  sharesBalance[sharesSubject] */\n      0x20\n      swap1\n      dup2\n      mstore\n      0x40\n      dup1\n      dup4\n      keccak256\n        /* \"sosh/CertiFren.sol\":4061:4071  msg.sender */\n      caller\n        /* \"sosh/CertiFren.sol\":4032:4072  sharesBalance[sharesSubject][msg.sender] */\n      dup5\n      mstore\n      swap1\n      swap2\n      mstore\n      swap1\n      keccak256\n      sload\n        /* \"sosh/CertiFren.sol\":4032:4081  sharesBalance[sharesSubject][msg.sender] - amount */\n      tag_216\n      swap1\n        /* \"sosh/CertiFren.sol\":4075:4081  amount */\n      dup7\n      swap1\n        /* \"sosh/CertiFren.sol\":4032:4081  sharesBalance[sharesSubject][msg.sender] - amount */\n      tag_124\n      jump\t// in\n    tag_216:\n      sub(shl(0xa0, 0x01), 0x01)\n        /* \"sosh/CertiFren.sol\":3989:4017  sharesBalance[sharesSubject] */\n      dup8\n      and\n      0x00\n      swap1\n      dup2\n      mstore\n        /* \"sosh/CertiFren.sol\":3989:4002  sharesBalance */\n      0x04\n        /* \"sosh/CertiFren.sol\":3989:4017  sharesBalance[sharesSubject] */\n      0x20\n      swap1\n      dup2\n      mstore\n      0x40\n      dup1\n      dup4\n      keccak256\n        /* \"sosh/CertiFren.sol\":4018:4028  msg.sender */\n      caller\n        /* \"sosh/CertiFren.sol\":3989:4029  sharesBalance[sharesSubject][msg.sender] */\n      dup5\n      mstore\n      swap1\n      swap2\n      mstore\n      swap1\n      keccak256\n        /* \"sosh/CertiFren.sol\":3989:4081  sharesBalance[sharesSubject][msg.sender] = sharesBalance[sharesSubject][msg.sender] - amount */\n      sstore\n        /* \"sosh/CertiFren.sol\":4121:4136  supply - amount */\n      tag_217\n        /* \"sosh/CertiFren.sol\":4130:4136  amount */\n      dup6\n        /* \"sosh/CertiFren.sol\":4121:4127  supply */\n      dup6\n        /* \"sosh/CertiFren.sol\":4121:4136  supply - amount */\n      tag_124\n      jump\t// in\n    tag_217:\n      sub(shl(0xa0, 0x01), 0x01)\n        /* \"sosh/CertiFren.sol\":4091:4118  sharesSupply[sharesSubject] */\n      dup8\n      and\n      0x00\n      swap1\n      dup2\n      mstore\n        /* \"sosh/CertiFren.sol\":4091:4103  sharesSupply */\n      0x05\n        /* \"sosh/CertiFren.sol\":4091:4118  sharesSupply[sharesSubject] */\n      0x20\n      mstore\n      0x40\n      dup2\n      keccak256\n        /* \"sosh/CertiFren.sol\":4091:4136  sharesSupply[sharesSubject] = supply - amount */\n      swap2\n      swap1\n      swap2\n      sstore\n        /* \"sosh/CertiFren.sol\":4151:4247  Trade(msg.sender, sharesSubject, false, amount, price, protocolFee, subjectFee, supply - amount) */\n      0x2c76e7a47fd53e2854856ac3f0a5f3ee40d15cfaa82266357ea9779c486ab9c3\n      swap1\n        /* \"sosh/CertiFren.sol\":4157:4167  msg.sender */\n      caller\n      swap1\n        /* \"sosh/CertiFren.sol\":4104:4117  sharesSubject */\n      dup9\n      swap1\n        /* \"sosh/CertiFren.sol\":4191:4197  amount */\n      dup9\n        /* \"sosh/CertiFren.sol\":4199:4204  price */\n      dup8\n        /* \"sosh/CertiFren.sol\":4206:4217  protocolFee */\n      dup8\n        /* \"sosh/CertiFren.sol\":4219:4229  subjectFee */\n      dup8\n        /* \"sosh/CertiFren.sol\":4231:4246  supply - amount */\n      tag_218\n        /* \"sosh/CertiFren.sol\":4191:4197  amount */\n      dup5\n        /* \"sosh/CertiFren.sol\":4231:4237  supply */\n      dup14\n        /* \"sosh/CertiFren.sol\":4231:4246  supply - amount */\n      tag_124\n      jump\t// in\n    tag_218:\n        /* \"sosh/CertiFren.sol\":4151:4247  Trade(msg.sender, sharesSubject, false, amount, price, protocolFee, subjectFee, supply - amount) */\n      mload(0x40)\n      tag_219\n      swap9\n      swap8\n      swap7\n      swap6\n      swap5\n      swap4\n      swap3\n      swap2\n      swap1\n      tag_177\n      jump\t// in\n    tag_219:\n      mload(0x40)\n      dup1\n      swap2\n      sub\n      swap1\n      log1\n        /* \"sosh/CertiFren.sol\":4258:4271  bool success1 */\n      0x00\n        /* \"sosh/CertiFren.sol\":4277:4287  msg.sender */\n      caller\n        /* \"sosh/CertiFren.sol\":4322:4332  subjectFee */\n      dup3\n        /* \"sosh/CertiFren.sol\":4300:4319  price - protocolFee */\n      tag_220\n        /* \"sosh/CertiFren.sol\":4308:4319  protocolFee */\n      dup6\n        /* \"sosh/CertiFren.sol\":4300:4305  price */\n      dup8\n        /* \"sosh/CertiFren.sol\":4300:4319  price - protocolFee */\n      tag_124\n      jump\t// in\n    tag_220:\n        /* \"sosh/CertiFren.sol\":4300:4332  price - protocolFee - subjectFee */\n      tag_221\n      swap2\n      swap1\n      tag_124\n      jump\t// in\n    tag_221:\n        /* \"sosh/CertiFren.sol\":4277:4337  msg.sender.call{value: price - protocolFee - subjectFee}(\"\") */\n      mload(0x40)\n      0x00\n      dup2\n      dup2\n      dup2\n      dup6\n      dup8\n      gas\n      call\n      swap3\n      pop\n      pop\n      pop\n      returndatasize\n      dup1\n      0x00\n      dup2\n      eq\n      tag_225\n      jumpi\n      mload(0x40)\n      swap2\n      pop\n      and(add(returndatasize, 0x3f), not(0x1f))\n      dup3\n      add\n      0x40\n      mstore\n      returndatasize\n      dup3\n      mstore\n      returndatasize\n      0x00\n      0x20\n      dup5\n      add\n      returndatacopy\n      jump(tag_224)\n    tag_225:\n      0x60\n      swap2\n      pop\n    tag_224:\n      pop\n      pop\n        /* \"sosh/CertiFren.sol\":4367:4389  protocolFeeDestination */\n      sload(0x01)\n        /* \"sosh/CertiFren.sol\":4367:4418  protocolFeeDestination.call{value: protocolFee}(\"\") */\n      mload(0x40)\n        /* \"sosh/CertiFren.sol\":4257:4337  (bool success1, ) = msg.sender.call{value: price - protocolFee - subjectFee}(\"\") */\n      swap2\n      swap3\n      pop\n        /* \"sosh/CertiFren.sol\":4348:4361  bool success2 */\n      0x00\n      swap2\n      sub(shl(0xa0, 0x01), 0x01)\n        /* \"sosh/CertiFren.sol\":4367:4389  protocolFeeDestination */\n      swap1\n      swap2\n      and\n      swap1\n        /* \"sosh/CertiFren.sol\":4402:4413  protocolFee */\n      dup6\n      swap1\n        /* \"sosh/CertiFren.sol\":4348:4361  bool success2 */\n      dup4\n        /* \"sosh/CertiFren.sol\":4367:4418  protocolFeeDestination.call{value: protocolFee}(\"\") */\n      dup2\n        /* \"sosh/CertiFren.sol\":4348:4361  bool success2 */\n      dup2\n        /* \"sosh/CertiFren.sol\":4367:4418  protocolFeeDestination.call{value: protocolFee}(\"\") */\n      dup2\n        /* \"sosh/CertiFren.sol\":4402:4413  protocolFee */\n      dup6\n        /* \"sosh/CertiFren.sol\":4367:4389  protocolFeeDestination */\n      dup8\n        /* \"sosh/CertiFren.sol\":4367:4418  protocolFeeDestination.call{value: protocolFee}(\"\") */\n      gas\n      call\n      swap3\n      pop\n      pop\n      pop\n      returndatasize\n      dup1\n      0x00\n      dup2\n      eq\n      tag_229\n      jumpi\n      mload(0x40)\n      swap2\n      pop\n      and(add(returndatasize, 0x3f), not(0x1f))\n      dup3\n      add\n      0x40\n      mstore\n      returndatasize\n      dup3\n      mstore\n      returndatasize\n      0x00\n      0x20\n      dup5\n      add\n      returndatacopy\n      jump(tag_228)\n    tag_229:\n      0x60\n      swap2\n      pop\n    tag_228:\n      pop\n        /* \"sosh/CertiFren.sol\":4347:4418  (bool success2, ) = protocolFeeDestination.call{value: protocolFee}(\"\") */\n      pop\n      swap1\n      pop\n        /* \"sosh/CertiFren.sol\":4429:4442  bool success3 */\n      0x00\n        /* \"sosh/CertiFren.sol\":4448:4461  sharesSubject */\n      dup9\n      sub(shl(0xa0, 0x01), 0x01)\n        /* \"sosh/CertiFren.sol\":4448:4466  sharesSubject.call */\n      and\n        /* \"sosh/CertiFren.sol\":4474:4484  subjectFee */\n      dup5\n        /* \"sosh/CertiFren.sol\":4448:4489  sharesSubject.call{value: subjectFee}(\"\") */\n      mload(0x40)\n      0x00\n      mload(0x40)\n      dup1\n      dup4\n      sub\n      dup2\n      dup6\n      dup8\n      gas\n      call\n      swap3\n      pop\n      pop\n      pop\n      returndatasize\n      dup1\n      0x00\n      dup2\n      eq\n      tag_233\n      jumpi\n      mload(0x40)\n      swap2\n      pop\n      and(add(returndatasize, 0x3f), not(0x1f))\n      dup3\n      add\n      0x40\n      mstore\n      returndatasize\n      dup3\n      mstore\n      returndatasize\n      0x00\n      0x20\n      dup5\n      add\n      returndatacopy\n      jump(tag_232)\n    tag_233:\n      0x60\n      swap2\n      pop\n    tag_232:\n      pop\n        /* \"sosh/CertiFren.sol\":4428:4489  (bool success3, ) = sharesSubject.call{value: subjectFee}(\"\") */\n      pop\n      swap1\n      pop\n        /* \"sosh/CertiFren.sol\":4507:4515  success1 */\n      dup3\n        /* \"sosh/CertiFren.sol\":4507:4527  success1 && success2 */\n      dup1\n      iszero\n      tag_234\n      jumpi\n      pop\n        /* \"sosh/CertiFren.sol\":4519:4527  success2 */\n      dup2\n        /* \"sosh/CertiFren.sol\":4507:4527  success1 && success2 */\n    tag_234:\n        /* \"sosh/CertiFren.sol\":4507:4539  success1 && success2 && success3 */\n      dup1\n      iszero\n      tag_235\n      jumpi\n      pop\n        /* \"sosh/CertiFren.sol\":4531:4539  success3 */\n      dup1\n        /* \"sosh/CertiFren.sol\":4507:4539  success1 && success2 && success3 */\n    tag_235:\n        /* \"sosh/CertiFren.sol\":4499:4564  require(success1 && success2 && success3, \"Unable to send funds\") */\n      tag_236\n      jumpi\n      mload(0x40)\n      shl(0xe5, 0x461bcd)\n      dup2\n      mstore\n        /* \"#utility.yul\":4453:4455   */\n      0x20\n        /* \"sosh/CertiFren.sol\":4499:4564  require(success1 && success2 && success3, \"Unable to send funds\") */\n      0x04\n      dup3\n      add\n        /* \"#utility.yul\":4435:4456   */\n      mstore\n        /* \"#utility.yul\":4492:4494   */\n      0x14\n        /* \"#utility.yul\":4472:4490   */\n      0x24\n      dup3\n      add\n        /* \"#utility.yul\":4465:4495   */\n      mstore\n      shl(0x60, 0x556e61626c6520746f2073656e642066756e6473)\n        /* \"#utility.yul\":4511:4529   */\n      0x44\n      dup3\n      add\n        /* \"#utility.yul\":4504:4554   */\n      mstore\n        /* \"#utility.yul\":4571:4589   */\n      0x64\n      add\n        /* \"sosh/CertiFren.sol\":4499:4564  require(success1 && success2 && success3, \"Unable to send funds\") */\n      tag_161\n        /* \"#utility.yul\":4251:4595   */\n      jump\n        /* \"sosh/CertiFren.sol\":4499:4564  require(success1 && success2 && success3, \"Unable to send funds\") */\n    tag_236:\n        /* \"sosh/CertiFren.sol\":3576:4571  {... */\n      pop\n      pop\n      pop\n      pop\n      pop\n      pop\n      pop\n        /* \"sosh/CertiFren.sol\":3502:4571  function sellShares(address sharesSubject, uint256 amount) public payable {... */\n      pop\n      pop\n      jump\t// out\n        /* \"@openzeppelin/contracts@4.7.0/access/Ownable.sol\":2081:2279  function transferOwnership(address newOwner) public virtual onlyOwner {... */\n    tag_96:\n        /* \"@openzeppelin/contracts@4.7.0/access/Ownable.sol\":1094:1107  _checkOwner() */\n      tag_239\n        /* \"@openzeppelin/contracts@4.7.0/access/Ownable.sol\":1094:1105  _checkOwner */\n      tag_130\n        /* \"@openzeppelin/contracts@4.7.0/access/Ownable.sol\":1094:1107  _checkOwner() */\n      jump\t// in\n    tag_239:\n      sub(shl(0xa0, 0x01), 0x01)\n        /* \"@openzeppelin/contracts@4.7.0/access/Ownable.sol\":2169:2191  newOwner != address(0) */\n      dup2\n      and\n        /* \"@openzeppelin/contracts@4.7.0/access/Ownable.sol\":2161:2234  require(newOwner != address(0), \"Ownable: new owner is the zero address\") */\n      tag_241\n      jumpi\n      mload(0x40)\n      shl(0xe5, 0x461bcd)\n      dup2\n      mstore\n        /* \"#utility.yul\":5505:5507   */\n      0x20\n        /* \"@openzeppelin/contracts@4.7.0/access/Ownable.sol\":2161:2234  require(newOwner != address(0), \"Ownable: new owner is the zero address\") */\n      0x04\n      dup3\n      add\n        /* \"#utility.yul\":5487:5508   */\n      mstore\n        /* \"#utility.yul\":5544:5546   */\n      0x26\n        /* \"#utility.yul\":5524:5542   */\n      0x24\n      dup3\n      add\n        /* \"#utility.yul\":5517:5547   */\n      mstore\n        /* \"#utility.yul\":5583:5617   */\n      0x4f776e61626c653a206e6577206f776e657220697320746865207a65726f2061\n        /* \"#utility.yul\":5563:5581   */\n      0x44\n      dup3\n      add\n        /* \"#utility.yul\":5556:5618   */\n      mstore\n      shl(0xd0, 0x646472657373)\n        /* \"#utility.yul\":5634:5652   */\n      0x64\n      dup3\n      add\n        /* \"#utility.yul\":5627:5663   */\n      mstore\n        /* \"#utility.yul\":5680:5699   */\n      0x84\n      add\n        /* \"@openzeppelin/contracts@4.7.0/access/Ownable.sol\":2161:2234  require(newOwner != address(0), \"Ownable: new owner is the zero address\") */\n      tag_161\n        /* \"#utility.yul\":5303:5705   */\n      jump\n        /* \"@openzeppelin/contracts@4.7.0/access/Ownable.sol\":2161:2234  require(newOwner != address(0), \"Ownable: new owner is the zero address\") */\n    tag_241:\n        /* \"@openzeppelin/contracts@4.7.0/access/Ownable.sol\":2244:2272  _transferOwnership(newOwner) */\n      tag_244\n        /* \"@openzeppelin/contracts@4.7.0/access/Ownable.sol\":2263:2271  newOwner */\n      dup2\n        /* \"@openzeppelin/contracts@4.7.0/access/Ownable.sol\":2244:2262  _transferOwnership */\n      tag_195\n        /* \"@openzeppelin/contracts@4.7.0/access/Ownable.sol\":2244:2272  _transferOwnership(newOwner) */\n      jump\t// in\n    tag_244:\n        /* \"@openzeppelin/contracts@4.7.0/access/Ownable.sol\":2081:2279  function transferOwnership(address newOwner) public virtual onlyOwner {... */\n      pop\n      jump\t// out\n        /* \"sosh/CertiFren.sol\":658:784  function setFeeDestination(address _feeDestination) public onlyOwner {... */\n    tag_105:\n        /* \"@openzeppelin/contracts@4.7.0/access/Ownable.sol\":1094:1107  _checkOwner() */\n      tag_246\n        /* \"@openzeppelin/contracts@4.7.0/access/Ownable.sol\":1094:1105  _checkOwner */\n      tag_130\n        /* \"@openzeppelin/contracts@4.7.0/access/Ownable.sol\":1094:1107  _checkOwner() */\n      jump\t// in\n    tag_246:\n        /* \"sosh/CertiFren.sol\":737:759  protocolFeeDestination */\n      0x01\n        /* \"sosh/CertiFren.sol\":737:777  protocolFeeDestination = _feeDestination */\n      dup1\n      sload\n      not(sub(shl(0xa0, 0x01), 0x01))\n      and\n      sub(shl(0xa0, 0x01), 0x01)\n      swap3\n      swap1\n      swap3\n      and\n      swap2\n      swap1\n      swap2\n      or\n      swap1\n      sstore\n        /* \"sosh/CertiFren.sol\":658:784  function setFeeDestination(address _feeDestination) public onlyOwner {... */\n      jump\t// out\n        /* \"@openzeppelin/contracts@4.7.0/access/Ownable.sol\":1359:1489  function _checkOwner() internal view virtual {... */\n    tag_130:\n        /* \"@openzeppelin/contracts@4.7.0/access/Ownable.sol\":1247:1254  address */\n      0x00\n        /* \"@openzeppelin/contracts@4.7.0/access/Ownable.sol\":1273:1279  _owner */\n      sload\n      sub(shl(0xa0, 0x01), 0x01)\n      and\n        /* \"@openzeppelin/contracts@4.7.0/utils/Context.sol\":719:729  msg.sender */\n      caller\n        /* \"@openzeppelin/contracts@4.7.0/access/Ownable.sol\":1422:1445  owner() == _msgSender() */\n      eq\n        /* \"@openzeppelin/contracts@4.7.0/access/Ownable.sol\":1414:1482  require(owner() == _msgSender(), \"Ownable: caller is not the owner\") */\n      tag_194\n      jumpi\n      mload(0x40)\n      shl(0xe5, 0x461bcd)\n      dup2\n      mstore\n        /* \"#utility.yul\":5912:5914   */\n      0x20\n        /* \"@openzeppelin/contracts@4.7.0/access/Ownable.sol\":1414:1482  require(owner() == _msgSender(), \"Ownable: caller is not the owner\") */\n      0x04\n      dup3\n      add\n        /* \"#utility.yul\":5894:5915   */\n      dup2\n      swap1\n      mstore\n        /* \"#utility.yul\":5931:5949   */\n      0x24\n      dup3\n      add\n        /* \"#utility.yul\":5924:5954   */\n      mstore\n        /* \"#utility.yul\":5990:6024   */\n      0x4f776e61626c653a2063616c6c6572206973206e6f7420746865206f776e6572\n        /* \"#utility.yul\":5970:5988   */\n      0x44\n      dup3\n      add\n        /* \"#utility.yul\":5963:6025   */\n      mstore\n        /* \"#utility.yul\":6042:6060   */\n      0x64\n      add\n        /* \"@openzeppelin/contracts@4.7.0/access/Ownable.sol\":1414:1482  require(owner() == _msgSender(), \"Ownable: caller is not the owner\") */\n      tag_161\n        /* \"#utility.yul\":5710:6066   */\n      jump\n        /* \"@openzeppelin/contracts@4.7.0/access/Ownable.sol\":2433:2620  function _transferOwnership(address newOwner) internal virtual {... */\n    tag_195:\n        /* \"@openzeppelin/contracts@4.7.0/access/Ownable.sol\":2506:2522  address oldOwner */\n      0x00\n        /* \"@openzeppelin/contracts@4.7.0/access/Ownable.sol\":2525:2531  _owner */\n      dup1\n      sload\n      sub(shl(0xa0, 0x01), 0x01)\n        /* \"@openzeppelin/contracts@4.7.0/access/Ownable.sol\":2541:2558  _owner = newOwner */\n      dup4\n      dup2\n      and\n      not(sub(shl(0xa0, 0x01), 0x01))\n      dup4\n      and\n      dup2\n      or\n      dup5\n      sstore\n        /* \"@openzeppelin/contracts@4.7.0/access/Ownable.sol\":2573:2613  OwnershipTransferred(oldOwner, newOwner) */\n      mload(0x40)\n        /* \"@openzeppelin/contracts@4.7.0/access/Ownable.sol\":2525:2531  _owner */\n      swap2\n      swap1\n      swap3\n      and\n      swap3\n      dup4\n      swap2\n        /* \"@openzeppelin/contracts@4.7.0/access/Ownable.sol\":2573:2613  OwnershipTransferred(oldOwner, newOwner) */\n      0x8be0079c531659141344cd1fd0a4f28419497f9722a3daafe3b4186f6b6457e0\n      swap2\n        /* \"@openzeppelin/contracts@4.7.0/access/Ownable.sol\":2506:2522  address oldOwner */\n      swap1\n        /* \"@openzeppelin/contracts@4.7.0/access/Ownable.sol\":2573:2613  OwnershipTransferred(oldOwner, newOwner) */\n      log3\n        /* \"@openzeppelin/contracts@4.7.0/access/Ownable.sol\":2496:2620  {... */\n      pop\n        /* \"@openzeppelin/contracts@4.7.0/access/Ownable.sol\":2433:2620  function _transferOwnership(address newOwner) internal virtual {... */\n      pop\n      jump\t// out\n        /* \"#utility.yul\":14:187   */\n    tag_257:\n        /* \"#utility.yul\":82:102   */\n      dup1\n      calldataload\n      sub(shl(0xa0, 0x01), 0x01)\n        /* \"#utility.yul\":131:162   */\n      dup2\n      and\n        /* \"#utility.yul\":121:163   */\n      dup2\n      eq\n        /* \"#utility.yul\":111:181   */\n      tag_261\n      jumpi\n        /* \"#utility.yul\":177:178   */\n      0x00\n        /* \"#utility.yul\":174:175   */\n      dup1\n        /* \"#utility.yul\":167:179   */\n      revert\n        /* \"#utility.yul\":111:181   */\n    tag_261:\n        /* \"#utility.yul\":14:187   */\n      swap2\n      swap1\n      pop\n      jump\t// out\n        /* \"#utility.yul\":192:452   */\n    tag_26:\n        /* \"#utility.yul\":260:266   */\n      0x00\n        /* \"#utility.yul\":268:274   */\n      dup1\n        /* \"#utility.yul\":321:323   */\n      0x40\n        /* \"#utility.yul\":309:318   */\n      dup4\n        /* \"#utility.yul\":300:307   */\n      dup6\n        /* \"#utility.yul\":296:319   */\n      sub\n        /* \"#utility.yul\":292:324   */\n      slt\n        /* \"#utility.yul\":289:341   */\n      iszero\n      tag_263\n      jumpi\n        /* \"#utility.yul\":337:338   */\n      0x00\n        /* \"#utility.yul\":334:335   */\n      dup1\n        /* \"#utility.yul\":327:339   */\n      revert\n        /* \"#utility.yul\":289:341   */\n    tag_263:\n        /* \"#utility.yul\":360:389   */\n      tag_264\n        /* \"#utility.yul\":379:388   */\n      dup4\n        /* \"#utility.yul\":360:389   */\n      tag_257\n      jump\t// in\n    tag_264:\n        /* \"#utility.yul\":350:389   */\n      swap2\n      pop\n        /* \"#utility.yul\":408:446   */\n      tag_265\n        /* \"#utility.yul\":442:444   */\n      0x20\n        /* \"#utility.yul\":431:440   */\n      dup5\n        /* \"#utility.yul\":427:445   */\n      add\n        /* \"#utility.yul\":408:446   */\n      tag_257\n      jump\t// in\n    tag_265:\n        /* \"#utility.yul\":398:446   */\n      swap1\n      pop\n        /* \"#utility.yul\":192:452   */\n      swap3\n      pop\n      swap3\n      swap1\n      pop\n      jump\t// out\n        /* \"#utility.yul\":639:893   */\n    tag_33:\n        /* \"#utility.yul\":707:713   */\n      0x00\n        /* \"#utility.yul\":715:721   */\n      dup1\n        /* \"#utility.yul\":768:770   */\n      0x40\n        /* \"#utility.yul\":756:765   */\n      dup4\n        /* \"#utility.yul\":747:754   */\n      dup6\n        /* \"#utility.yul\":743:766   */\n      sub\n        /* \"#utility.yul\":739:771   */\n      slt\n        /* \"#utility.yul\":736:788   */\n      iszero\n      tag_268\n      jumpi\n        /* \"#utility.yul\":784:785   */\n      0x00\n        /* \"#utility.yul\":781:782   */\n      dup1\n        /* \"#utility.yul\":774:786   */\n      revert\n        /* \"#utility.yul\":736:788   */\n    tag_268:\n        /* \"#utility.yul\":807:836   */\n      tag_269\n        /* \"#utility.yul\":826:835   */\n      dup4\n        /* \"#utility.yul\":807:836   */\n      tag_257\n      jump\t// in\n    tag_269:\n        /* \"#utility.yul\":797:836   */\n      swap5\n        /* \"#utility.yul\":883:885   */\n      0x20\n        /* \"#utility.yul\":868:886   */\n      swap4\n      swap1\n      swap4\n      add\n        /* \"#utility.yul\":855:887   */\n      calldataload\n      swap4\n      pop\n      pop\n      pop\n        /* \"#utility.yul\":639:893   */\n      jump\t// out\n        /* \"#utility.yul\":1106:1286   */\n    tag_58:\n        /* \"#utility.yul\":1165:1171   */\n      0x00\n        /* \"#utility.yul\":1218:1220   */\n      0x20\n        /* \"#utility.yul\":1206:1215   */\n      dup3\n        /* \"#utility.yul\":1197:1204   */\n      dup5\n        /* \"#utility.yul\":1193:1216   */\n      sub\n        /* \"#utility.yul\":1189:1221   */\n      slt\n        /* \"#utility.yul\":1186:1238   */\n      iszero\n      tag_272\n      jumpi\n        /* \"#utility.yul\":1234:1235   */\n      0x00\n        /* \"#utility.yul\":1231:1232   */\n      dup1\n        /* \"#utility.yul\":1224:1236   */\n      revert\n        /* \"#utility.yul\":1186:1238   */\n    tag_272:\n      pop\n        /* \"#utility.yul\":1257:1280   */\n      calldataload\n      swap2\n        /* \"#utility.yul\":1106:1286   */\n      swap1\n      pop\n      jump\t// out\n        /* \"#utility.yul\":1291:1539   */\n    tag_63:\n        /* \"#utility.yul\":1359:1365   */\n      0x00\n        /* \"#utility.yul\":1367:1373   */\n      dup1\n        /* \"#utility.yul\":1420:1422   */\n      0x40\n        /* \"#utility.yul\":1408:1417   */\n      dup4\n        /* \"#utility.yul\":1399:1406   */\n      dup6\n        /* \"#utility.yul\":1395:1418   */\n      sub\n        /* \"#utility.yul\":1391:1423   */\n      slt\n        /* \"#utility.yul\":1388:1440   */\n      iszero\n      tag_274\n      jumpi\n        /* \"#utility.yul\":1436:1437   */\n      0x00\n        /* \"#utility.yul\":1433:1434   */\n      dup1\n        /* \"#utility.yul\":1426:1438   */\n      revert\n        /* \"#utility.yul\":1388:1440   */\n    tag_274:\n      pop\n      pop\n        /* \"#utility.yul\":1459:1482   */\n      dup1\n      calldataload\n      swap3\n        /* \"#utility.yul\":1529:1531   */\n      0x20\n        /* \"#utility.yul\":1514:1532   */\n      swap1\n      swap2\n      add\n        /* \"#utility.yul\":1501:1533   */\n      calldataload\n      swap2\n      pop\n        /* \"#utility.yul\":1291:1539   */\n      jump\t// out\n        /* \"#utility.yul\":1544:1730   */\n    tag_95:\n        /* \"#utility.yul\":1603:1609   */\n      0x00\n        /* \"#utility.yul\":1656:1658   */\n      0x20\n        /* \"#utility.yul\":1644:1653   */\n      dup3\n        /* \"#utility.yul\":1635:1642   */\n      dup5\n        /* \"#utility.yul\":1631:1654   */\n      sub\n        /* \"#utility.yul\":1627:1659   */\n      slt\n        /* \"#utility.yul\":1624:1676   */\n      iszero\n      tag_276\n      jumpi\n        /* \"#utility.yul\":1672:1673   */\n      0x00\n        /* \"#utility.yul\":1669:1670   */\n      dup1\n        /* \"#utility.yul\":1662:1674   */\n      revert\n        /* \"#utility.yul\":1624:1676   */\n    tag_276:\n        /* \"#utility.yul\":1695:1724   */\n      tag_127\n        /* \"#utility.yul\":1714:1723   */\n      dup3\n        /* \"#utility.yul\":1695:1724   */\n      tag_257\n      jump\t// in\n        /* \"#utility.yul\":1735:1862   */\n    tag_258:\n        /* \"#utility.yul\":1796:1806   */\n      0x4e487b71\n        /* \"#utility.yul\":1791:1794   */\n      0xe0\n        /* \"#utility.yul\":1787:1807   */\n      shl\n        /* \"#utility.yul\":1784:1785   */\n      0x00\n        /* \"#utility.yul\":1777:1808   */\n      mstore\n        /* \"#utility.yul\":1827:1831   */\n      0x11\n        /* \"#utility.yul\":1824:1825   */\n      0x04\n        /* \"#utility.yul\":1817:1832   */\n      mstore\n        /* \"#utility.yul\":1851:1855   */\n      0x24\n        /* \"#utility.yul\":1848:1849   */\n      0x00\n        /* \"#utility.yul\":1841:1856   */\n      revert\n        /* \"#utility.yul\":1867:2035   */\n    tag_109:\n        /* \"#utility.yul\":1940:1949   */\n      dup1\n      dup3\n      mul\n        /* \"#utility.yul\":1971:1980   */\n      dup2\n      iszero\n        /* \"#utility.yul\":1988:2003   */\n      dup3\n      dup3\n      div\n        /* \"#utility.yul\":1982:2004   */\n      dup5\n      eq\n        /* \"#utility.yul\":1968:2005   */\n      or\n        /* \"#utility.yul\":1958:2029   */\n      tag_106\n      jumpi\n        /* \"#utility.yul\":2009:2027   */\n      tag_106\n      tag_258\n      jump\t// in\n        /* \"#utility.yul\":2040:2257   */\n    tag_111:\n        /* \"#utility.yul\":2080:2081   */\n      0x00\n        /* \"#utility.yul\":2106:2107   */\n      dup3\n        /* \"#utility.yul\":2096:2228   */\n      tag_283\n      jumpi\n        /* \"#utility.yul\":2150:2160   */\n      0x4e487b71\n        /* \"#utility.yul\":2145:2148   */\n      0xe0\n        /* \"#utility.yul\":2141:2161   */\n      shl\n        /* \"#utility.yul\":2138:2139   */\n      0x00\n        /* \"#utility.yul\":2131:2162   */\n      mstore\n        /* \"#utility.yul\":2185:2189   */\n      0x12\n        /* \"#utility.yul\":2182:2183   */\n      0x04\n        /* \"#utility.yul\":2175:2190   */\n      mstore\n        /* \"#utility.yul\":2213:2217   */\n      0x24\n        /* \"#utility.yul\":2210:2211   */\n      0x00\n        /* \"#utility.yul\":2203:2218   */\n      revert\n        /* \"#utility.yul\":2096:2228   */\n    tag_283:\n      pop\n        /* \"#utility.yul\":2242:2251   */\n      div\n      swap1\n        /* \"#utility.yul\":2040:2257   */\n      jump\t// out\n        /* \"#utility.yul\":2262:2387   */\n    tag_115:\n        /* \"#utility.yul\":2327:2336   */\n      dup1\n      dup3\n      add\n        /* \"#utility.yul\":2348:2358   */\n      dup1\n      dup3\n      gt\n        /* \"#utility.yul\":2345:2381   */\n      iszero\n      tag_106\n      jumpi\n        /* \"#utility.yul\":2361:2379   */\n      tag_106\n      tag_258\n      jump\t// in\n        /* \"#utility.yul\":2392:2520   */\n    tag_124:\n        /* \"#utility.yul\":2459:2468   */\n      dup2\n      dup2\n      sub\n        /* \"#utility.yul\":2480:2491   */\n      dup2\n      dup2\n      gt\n        /* \"#utility.yul\":2477:2514   */\n      iszero\n      tag_106\n      jumpi\n        /* \"#utility.yul\":2494:2512   */\n      tag_106\n      tag_258\n      jump\t// in\n        /* \"#utility.yul\":3291:4036   */\n    tag_177:\n      sub(shl(0xa0, 0x01), 0x01)\n        /* \"#utility.yul\":3684:3699   */\n      swap9\n      dup10\n      and\n        /* \"#utility.yul\":3666:3700   */\n      dup2\n      mstore\n        /* \"#utility.yul\":3736:3751   */\n      swap7\n      swap1\n      swap8\n      and\n        /* \"#utility.yul\":3731:3733   */\n      0x20\n        /* \"#utility.yul\":3716:3734   */\n      dup8\n      add\n        /* \"#utility.yul\":3709:3752   */\n      mstore\n        /* \"#utility.yul\":3795:3809   */\n      swap4\n      iszero\n        /* \"#utility.yul\":3788:3810   */\n      iszero\n        /* \"#utility.yul\":3783:3785   */\n      0x40\n        /* \"#utility.yul\":3768:3786   */\n      dup7\n      add\n        /* \"#utility.yul\":3761:3811   */\n      mstore\n        /* \"#utility.yul\":3842:3844   */\n      0x60\n        /* \"#utility.yul\":3827:3845   */\n      dup6\n      add\n        /* \"#utility.yul\":3820:3854   */\n      swap3\n      swap1\n      swap3\n      mstore\n        /* \"#utility.yul\":3885:3888   */\n      0x80\n        /* \"#utility.yul\":3870:3889   */\n      dup5\n      add\n        /* \"#utility.yul\":3863:3898   */\n      mstore\n        /* \"#utility.yul\":3646:3649   */\n      0xa0\n        /* \"#utility.yul\":3914:3933   */\n      dup4\n      add\n        /* \"#utility.yul\":3907:3942   */\n      mstore\n        /* \"#utility.yul\":3973:3976   */\n      0xc0\n        /* \"#utility.yul\":3958:3977   */\n      dup3\n      add\n        /* \"#utility.yul\":3951:3986   */\n      mstore\n        /* \"#utility.yul\":4017:4020   */\n      0xe0\n        /* \"#utility.yul\":4002:4021   */\n      dup2\n      add\n        /* \"#utility.yul\":3995:4030   */\n      swap2\n      swap1\n      swap2\n      mstore\n        /* \"#utility.yul\":3615:3618   */\n      0x0100\n        /* \"#utility.yul\":3600:3619   */\n      add\n      swap1\n        /* \"#utility.yul\":3291:4036   */\n      jump\t// out\n\n    auxdata: 0xa26469706673582212200f6f1f540079aca60e8c32d73ab0596f31a7b0796965089bf9747146c1e9f35064736f6c63430008180033\n}\n",
				"bytecode": {
					"linkReferences": {},
					"object": "608060405234801561000f575f80fd5b506100193361001e565b61006d565b5f80546001600160a01b038381166001600160a01b0319831681178455604051919092169283917f8be0079c531659141344cd1fd0a4f28419497f9722a3daafe3b4186f6b6457e09190a35050565b610f198061007a5f395ff3fe608060405260043610610105575f3560e01c8063715018a611610092578063b51d053411610062578063b51d0534146102bc578063d6e6eb9f146102cf578063f2fde38b146102e4578063f9931be014610303578063fbe532341461032e575f80fd5b8063715018a61461024e5780638da5cb5b146102625780639ae717811461027e578063a49834211461029d575f80fd5b80634635256e116100d85780634635256e146101a55780634ce7957c146101c45780635a8a764e146101fb5780635cf4ee911461021c5780636945b1231461023b575f80fd5b8063020235ff146101095780630f026f6d146101525780632267a89c1461017157806324dc441d14610190575b5f80fd5b348015610114575f80fd5b5061013f610123366004610d86565b600460209081525f928352604080842090915290825290205481565b6040519081526020015b60405180910390f35b34801561015d575f80fd5b5061013f61016c366004610db7565b61034d565b34801561017c575f80fd5b5061013f61018b366004610db7565b6103c4565b34801561019b575f80fd5b5061013f60035481565b3480156101b0575f80fd5b5061013f6101bf366004610db7565b61042f565b3480156101cf575f80fd5b506001546101e3906001600160a01b031681565b6040516001600160a01b039091168152602001610149565b348015610206575f80fd5b5061021a610215366004610ddf565b610458565b005b348015610227575f80fd5b5061013f610236366004610df6565b610465565b61021a610249366004610db7565b610577565b348015610259575f80fd5b5061021a61087d565b34801561026d575f80fd5b505f546001600160a01b03166101e3565b348015610289575f80fd5b5061013f610298366004610db7565b610890565b3480156102a8575f80fd5b5061021a6102b7366004610ddf565b6108bd565b61021a6102ca366004610db7565b6108ca565b3480156102da575f80fd5b5061013f60025481565b3480156102ef575f80fd5b5061021a6102fe366004610e16565b610c20565b34801561030e575f80fd5b5061013f61031d366004610e16565b60056020525f908152604090205481565b348015610339575f80fd5b5061021a610348366004610e16565b610c99565b5f80610359848461042f565b90505f670de0b6b3a7640000600254836103739190610e43565b61037d9190610e5a565b90505f670de0b6b3a7640000600354846103979190610e43565b6103a19190610e5a565b9050806103ae8385610e79565b6103b89190610e79565b93505050505b92915050565b5f806103d08484610890565b90505f670de0b6b3a7640000600254836103ea9190610e43565b6103f49190610e5a565b90505f670de0b6b3a76400006003548461040e9190610e43565b6104189190610e5a565b9050806104258385610e8c565b6103b89190610e8c565b6001600160a01b0382165f908152600560205260408120546104519083610465565b9392505050565b610460610cc3565b600355565b5f8083156104bf57600661047a600186610e8c565b610485906002610e43565b610490906001610e79565b8561049c600182610e8c565b6104a69190610e43565b6104b09190610e43565b6104ba9190610e5a565b6104c1565b5f5b90505f841580156104d25750836001145b610547576006846104e4600188610e8c565b6104ee9190610e79565b6104f9906002610e43565b610504906001610e79565b61050e8688610e79565b8661051a60018a610e8c565b6105249190610e79565b61052e9190610e43565b6105389190610e43565b6105429190610e5a565b610549565b5f5b90505f6105568383610e8c565b9050613e8061056d82670de0b6b3a7640000610e43565b6103b89190610e5a565b6001600160a01b0382165f90815260056020526040902054801515806105a557506001600160a01b03831633145b61060f5760405162461bcd60e51b815260206004820152603060248201527f4f6e6c79207468652073686172657327207375626a6563742063616e2062757960448201526f2074686520666972737420736861726560801b60648201526084015b60405180910390fd5b5f61061a8284610465565b90505f670de0b6b3a7640000600254836106349190610e43565b61063e9190610e5a565b90505f670de0b6b3a7640000600354846106589190610e43565b6106629190610e5a565b90508061066f8385610e79565b6106799190610e79565b3410156106bf5760405162461bcd60e51b8152602060048201526014602482015273125b9cdd59999a58da595b9d081c185e5b595b9d60621b6044820152606401610606565b6001600160a01b0386165f9081526004602090815260408083203384529091529020546106ed908690610e79565b6001600160a01b0387165f90815260046020908152604080832033845290915290205561071a8585610e79565b6001600160a01b0387165f908152600560205260409020557f2c76e7a47fd53e2854856ac3f0a5f3ee40d15cfaa82266357ea9779c486ab9c33387600188878787610765848d610e79565b604051610779989796959493929190610e9f565b60405180910390a16001546040515f916001600160a01b03169084908381818185875af1925050503d805f81146107cb576040519150601f19603f3d011682016040523d82523d5f602084013e6107d0565b606091505b505090505f876001600160a01b0316836040515f6040518083038185875af1925050503d805f811461081d576040519150601f19603f3d011682016040523d82523d5f602084013e610822565b606091505b505090508180156108305750805b6108735760405162461bcd60e51b8152602060048201526014602482015273556e61626c6520746f2073656e642066756e647360601b6044820152606401610606565b5050505050505050565b610885610cc3565b61088e5f610d1c565b565b6001600160a01b0382165f90815260056020526040812054610451906108b7908490610e8c565b83610465565b6108c5610cc3565b600255565b6001600160a01b0382165f908152600560205260409020548181116109315760405162461bcd60e51b815260206004820152601a60248201527f43616e6e6f742073656c6c20746865206c6173742073686172650000000000006044820152606401610606565b5f61094561093f8484610e8c565b84610465565b90505f670de0b6b3a76400006002548361095f9190610e43565b6109699190610e5a565b90505f670de0b6b3a7640000600354846109839190610e43565b61098d9190610e5a565b6001600160a01b0387165f9081526004602090815260408083203384529091529020549091508511156109f85760405162461bcd60e51b8152602060048201526013602482015272496e73756666696369656e742073686172657360681b6044820152606401610606565b6001600160a01b0386165f908152600460209081526040808320338452909152902054610a26908690610e8c565b6001600160a01b0387165f908152600460209081526040808320338452909152902055610a538585610e8c565b6001600160a01b0387165f908152600560205260408120919091557f2c76e7a47fd53e2854856ac3f0a5f3ee40d15cfaa82266357ea9779c486ab9c3903390889088878787610aa2848d610e8c565b604051610ab6989796959493929190610e9f565b60405180910390a15f3382610acb8587610e8c565b610ad59190610e8c565b6040515f81818185875af1925050503d805f8114610b0e576040519150601f19603f3d011682016040523d82523d5f602084013e610b13565b606091505b50506001546040519192505f916001600160a01b039091169085908381818185875af1925050503d805f8114610b64576040519150601f19603f3d011682016040523d82523d5f602084013e610b69565b606091505b505090505f886001600160a01b0316846040515f6040518083038185875af1925050503d805f8114610bb6576040519150601f19603f3d011682016040523d82523d5f602084013e610bbb565b606091505b50509050828015610bc95750815b8015610bd25750805b610c155760405162461bcd60e51b8152602060048201526014602482015273556e61626c6520746f2073656e642066756e647360601b6044820152606401610606565b505050505050505050565b610c28610cc3565b6001600160a01b038116610c8d5760405162461bcd60e51b815260206004820152602660248201527f4f776e61626c653a206e6577206f776e657220697320746865207a65726f206160448201526564647265737360d01b6064820152608401610606565b610c9681610d1c565b50565b610ca1610cc3565b600180546001600160a01b0319166001600160a01b0392909216919091179055565b5f546001600160a01b0316331461088e5760405162461bcd60e51b815260206004820181905260248201527f4f776e61626c653a2063616c6c6572206973206e6f7420746865206f776e65726044820152606401610606565b5f80546001600160a01b038381166001600160a01b0319831681178455604051919092169283917f8be0079c531659141344cd1fd0a4f28419497f9722a3daafe3b4186f6b6457e09190a35050565b80356001600160a01b0381168114610d81575f80fd5b919050565b5f8060408385031215610d97575f80fd5b610da083610d6b565b9150610dae60208401610d6b565b90509250929050565b5f8060408385031215610dc8575f80fd5b610dd183610d6b565b946020939093013593505050565b5f60208284031215610def575f80fd5b5035919050565b5f8060408385031215610e07575f80fd5b50508035926020909101359150565b5f60208284031215610e26575f80fd5b61045182610d6b565b634e487b7160e01b5f52601160045260245ffd5b80820281158282048414176103be576103be610e2f565b5f82610e7457634e487b7160e01b5f52601260045260245ffd5b500490565b808201808211156103be576103be610e2f565b818103818111156103be576103be610e2f565b6001600160a01b03988916815296909716602087015293151560408601526060850192909252608084015260a083015260c082015260e0810191909152610100019056fea26469706673582212200f6f1f540079aca60e8c32d73ab0596f31a7b0796965089bf9747146c1e9f35064736f6c63430008180033",
					"opcodes": "PUSH1 0x80 PUSH1 0x40 MSTORE CALLVALUE DUP1 ISZERO PUSH2 0xF JUMPI PUSH0 DUP1 REVERT JUMPDEST POP PUSH2 0x19 CALLER PUSH2 0x1E JUMP JUMPDEST PUSH2 0x6D JUMP JUMPDEST PUSH0 DUP1 SLOAD PUSH1 0x1 PUSH1 0x1 PUSH1 0xA0 SHL SUB DUP4 DUP2 AND PUSH1 0x1 PUSH1 0x1 PUSH1 0xA0 SHL SUB NOT DUP4 AND DUP2 OR DUP5 SSTORE PUSH1 0x40 MLOAD SWAP2 SWAP1 SWAP3 AND SWAP3 DUP4 SWAP2 PUSH32 0x8BE0079C531659141344CD1FD0A4F28419497F9722A3DAAFE3B4186F6B6457E0 SWAP2 SWAP1 LOG3 POP POP JUMP JUMPDEST PUSH2 0xF19 DUP1 PUSH2 0x7A PUSH0 CODECOPY PUSH0 RETURN INVALID PUSH1 0x80 PUSH1 0x40 MSTORE PUSH1 0x4 CALLDATASIZE LT PUSH2 0x105 JUMPI PUSH0 CALLDATALOAD PUSH1 0xE0 SHR DUP1 PUSH4 0x715018A6 GT PUSH2 0x92 JUMPI DUP1 PUSH4 0xB51D0534 GT PUSH2 0x62 JUMPI DUP1 PUSH4 0xB51D0534 EQ PUSH2 0x2BC JUMPI DUP1 PUSH4 0xD6E6EB9F EQ PUSH2 0x2CF JUMPI DUP1 PUSH4 0xF2FDE38B EQ PUSH2 0x2E4 JUMPI DUP1 PUSH4 0xF9931BE0 EQ PUSH2 0x303 JUMPI DUP1 PUSH4 0xFBE53234 EQ PUSH2 0x32E JUMPI PUSH0 DUP1 REVERT JUMPDEST DUP1 PUSH4 0x715018A6 EQ PUSH2 0x24E JUMPI DUP1 PUSH4 0x8DA5CB5B EQ PUSH2 0x262 JUMPI DUP1 PUSH4 0x9AE71781 EQ PUSH2 0x27E JUMPI DUP1 PUSH4 0xA4983421 EQ PUSH2 0x29D JUMPI PUSH0 DUP1 REVERT JUMPDEST DUP1 PUSH4 0x4635256E GT PUSH2 0xD8 JUMPI DUP1 PUSH4 0x4635256E EQ PUSH2 0x1A5 JUMPI DUP1 PUSH4 0x4CE7957C EQ PUSH2 0x1C4 JUMPI DUP1 PUSH4 0x5A8A764E EQ PUSH2 0x1FB JUMPI DUP1 PUSH4 0x5CF4EE91 EQ PUSH2 0x21C JUMPI DUP1 PUSH4 0x6945B123 EQ PUSH2 0x23B JUMPI PUSH0 DUP1 REVERT JUMPDEST DUP1 PUSH4 0x20235FF EQ PUSH2 0x109 JUMPI DUP1 PUSH4 0xF026F6D EQ PUSH2 0x152 JUMPI DUP1 PUSH4 0x2267A89C EQ PUSH2 0x171 JUMPI DUP1 PUSH4 0x24DC441D EQ PUSH2 0x190 JUMPI JUMPDEST PUSH0 DUP1 REVERT JUMPDEST CALLVALUE DUP1 ISZERO PUSH2 0x114 JUMPI PUSH0 DUP1 REVERT JUMPDEST POP PUSH2 0x13F PUSH2 0x123 CALLDATASIZE PUSH1 0x4 PUSH2 0xD86 JUMP JUMPDEST PUSH1 0x4 PUSH1 0x20 SWAP1 DUP2 MSTORE PUSH0 SWAP3 DUP4 MSTORE PUSH1 0x40 DUP1 DUP5 KECCAK256 SWAP1 SWAP2 MSTORE SWAP1 DUP3 MSTORE SWAP1 KECCAK256 SLOAD DUP2 JUMP JUMPDEST PUSH1 0x40 MLOAD SWAP1 DUP2 MSTORE PUSH1 0x20 ADD JUMPDEST PUSH1 0x40 MLOAD DUP1 SWAP2 SUB SWAP1 RETURN JUMPDEST CALLVALUE DUP1 ISZERO PUSH2 0x15D JUMPI PUSH0 DUP1 REVERT JUMPDEST POP PUSH2 0x13F PUSH2 0x16C CALLDATASIZE PUSH1 0x4 PUSH2 0xDB7 JUMP JUMPDEST PUSH2 0x34D JUMP JUMPDEST CALLVALUE DUP1 ISZERO PUSH2 0x17C JUMPI PUSH0 DUP1 REVERT JUMPDEST POP PUSH2 0x13F PUSH2 0x18B CALLDATASIZE PUSH1 0x4 PUSH2 0xDB7 JUMP JUMPDEST PUSH2 0x3C4 JUMP JUMPDEST CALLVALUE DUP1 ISZERO PUSH2 0x19B JUMPI PUSH0 DUP1 REVERT JUMPDEST POP PUSH2 0x13F PUSH1 0x3 SLOAD DUP2 JUMP JUMPDEST CALLVALUE DUP1 ISZERO PUSH2 0x1B0 JUMPI PUSH0 DUP1 REVERT JUMPDEST POP PUSH2 0x13F PUSH2 0x1BF CALLDATASIZE PUSH1 0x4 PUSH2 0xDB7 JUMP JUMPDEST PUSH2 0x42F JUMP JUMPDEST CALLVALUE DUP1 ISZERO PUSH2 0x1CF JUMPI PUSH0 DUP1 REVERT JUMPDEST POP PUSH1 0x1 SLOAD PUSH2 0x1E3 SWAP1 PUSH1 0x1 PUSH1 0x1 PUSH1 0xA0 SHL SUB AND DUP2 JUMP JUMPDEST PUSH1 0x40 MLOAD PUSH1 0x1 PUSH1 0x1 PUSH1 0xA0 SHL SUB SWAP1 SWAP2 AND DUP2 MSTORE PUSH1 0x20 ADD PUSH2 0x149 JUMP JUMPDEST CALLVALUE DUP1 ISZERO PUSH2 0x206 JUMPI PUSH0 DUP1 REVERT JUMPDEST POP PUSH2 0x21A PUSH2 0x215 CALLDATASIZE PUSH1 0x4 PUSH2 0xDDF JUMP JUMPDEST PUSH2 0x458 JUMP JUMPDEST STOP JUMPDEST CALLVALUE DUP1 ISZERO PUSH2 0x227 JUMPI PUSH0 DUP1 REVERT JUMPDEST POP PUSH2 0x13F PUSH2 0x236 CALLDATASIZE PUSH1 0x4 PUSH2 0xDF6 JUMP JUMPDEST PUSH2 0x465 JUMP JUMPDEST PUSH2 0x21A PUSH2 0x249 CALLDATASIZE PUSH1 0x4 PUSH2 0xDB7 JUMP JUMPDEST PUSH2 0x577 JUMP JUMPDEST CALLVALUE DUP1 ISZERO PUSH2 0x259 JUMPI PUSH0 DUP1 REVERT JUMPDEST POP PUSH2 0x21A PUSH2 0x87D JUMP JUMPDEST CALLVALUE DUP1 ISZERO PUSH2 0x26D JUMPI PUSH0 DUP1 REVERT JUMPDEST POP PUSH0 SLOAD PUSH1 0x1 PUSH1 0x1 PUSH1 0xA0 SHL SUB AND PUSH2 0x1E3 JUMP JUMPDEST CALLVALUE DUP1 ISZERO PUSH2 0x289 JUMPI PUSH0 DUP1 REVERT JUMPDEST POP PUSH2 0x13F PUSH2 0x298 CALLDATASIZE PUSH1 0x4 PUSH2 0xDB7 JUMP JUMPDEST PUSH2 0x890 JUMP JUMPDEST CALLVALUE DUP1 ISZERO PUSH2 0x2A8 JUMPI PUSH0 DUP1 REVERT JUMPDEST POP PUSH2 0x21A PUSH2 0x2B7 CALLDATASIZE PUSH1 0x4 PUSH2 0xDDF JUMP JUMPDEST PUSH2 0x8BD JUMP JUMPDEST PUSH2 0x21A PUSH2 0x2CA CALLDATASIZE PUSH1 0x4 PUSH2 0xDB7 JUMP JUMPDEST PUSH2 0x8CA JUMP JUMPDEST CALLVALUE DUP1 ISZERO PUSH2 0x2DA JUMPI PUSH0 DUP1 REVERT JUMPDEST POP PUSH2 0x13F PUSH1 0x2 SLOAD DUP2 JUMP JUMPDEST CALLVALUE DUP1 ISZERO PUSH2 0x2EF JUMPI PUSH0 DUP1 REVERT JUMPDEST POP PUSH2 0x21A PUSH2 0x2FE CALLDATASIZE PUSH1 0x4 PUSH2 0xE16 JUMP JUMPDEST PUSH2 0xC20 JUMP JUMPDEST CALLVALUE DUP1 ISZERO PUSH2 0x30E JUMPI PUSH0 DUP1 REVERT JUMPDEST POP PUSH2 0x13F PUSH2 0x31D CALLDATASIZE PUSH1 0x4 PUSH2 0xE16 JUMP JUMPDEST PUSH1 0x5 PUSH1 0x20 MSTORE PUSH0 SWAP1 DUP2 MSTORE PUSH1 0x40 SWAP1 KECCAK256 SLOAD DUP2 JUMP JUMPDEST CALLVALUE DUP1 ISZERO PUSH2 0x339 JUMPI PUSH0 DUP1 REVERT JUMPDEST POP PUSH2 0x21A PUSH2 0x348 CALLDATASIZE PUSH1 0x4 PUSH2 0xE16 JUMP JUMPDEST PUSH2 0xC99 JUMP JUMPDEST PUSH0 DUP1 PUSH2 0x359 DUP5 DUP5 PUSH2 0x42F JUMP JUMPDEST SWAP1 POP PUSH0 PUSH8 0xDE0B6B3A7640000 PUSH1 0x2 SLOAD DUP4 PUSH2 0x373 SWAP2 SWAP1 PUSH2 0xE43 JUMP JUMPDEST PUSH2 0x37D SWAP2 SWAP1 PUSH2 0xE5A JUMP JUMPDEST SWAP1 POP PUSH0 PUSH8 0xDE0B6B3A7640000 PUSH1 0x3 SLOAD DUP5 PUSH2 0x397 SWAP2 SWAP1 PUSH2 0xE43 JUMP JUMPDEST PUSH2 0x3A1 SWAP2 SWAP1 PUSH2 0xE5A JUMP JUMPDEST SWAP1 POP DUP1 PUSH2 0x3AE DUP4 DUP6 PUSH2 0xE79 JUMP JUMPDEST PUSH2 0x3B8 SWAP2 SWAP1 PUSH2 0xE79 JUMP JUMPDEST SWAP4 POP POP POP POP JUMPDEST SWAP3 SWAP2 POP POP JUMP JUMPDEST PUSH0 DUP1 PUSH2 0x3D0 DUP5 DUP5 PUSH2 0x890 JUMP JUMPDEST SWAP1 POP PUSH0 PUSH8 0xDE0B6B3A7640000 PUSH1 0x2 SLOAD DUP4 PUSH2 0x3EA SWAP2 SWAP1 PUSH2 0xE43 JUMP JUMPDEST PUSH2 0x3F4 SWAP2 SWAP1 PUSH2 0xE5A JUMP JUMPDEST SWAP1 POP PUSH0 PUSH8 0xDE0B6B3A7640000 PUSH1 0x3 SLOAD DUP5 PUSH2 0x40E SWAP2 SWAP1 PUSH2 0xE43 JUMP JUMPDEST PUSH2 0x418 SWAP2 SWAP1 PUSH2 0xE5A JUMP JUMPDEST SWAP1 POP DUP1 PUSH2 0x425 DUP4 DUP6 PUSH2 0xE8C JUMP JUMPDEST PUSH2 0x3B8 SWAP2 SWAP1 PUSH2 0xE8C JUMP JUMPDEST PUSH1 0x1 PUSH1 0x1 PUSH1 0xA0 SHL SUB DUP3 AND PUSH0 SWAP1 DUP2 MSTORE PUSH1 0x5 PUSH1 0x20 MSTORE PUSH1 0x40 DUP2 KECCAK256 SLOAD PUSH2 0x451 SWAP1 DUP4 PUSH2 0x465 JUMP JUMPDEST SWAP4 SWAP3 POP POP POP JUMP JUMPDEST PUSH2 0x460 PUSH2 0xCC3 JUMP JUMPDEST PUSH1 0x3 SSTORE JUMP JUMPDEST PUSH0 DUP1 DUP4 ISZERO PUSH2 0x4BF JUMPI PUSH1 0x6 PUSH2 0x47A PUSH1 0x1 DUP7 PUSH2 0xE8C JUMP JUMPDEST PUSH2 0x485 SWAP1 PUSH1 0x2 PUSH2 0xE43 JUMP JUMPDEST PUSH2 0x490 SWAP1 PUSH1 0x1 PUSH2 0xE79 JUMP JUMPDEST DUP6 PUSH2 0x49C PUSH1 0x1 DUP3 PUSH2 0xE8C JUMP JUMPDEST PUSH2 0x4A6 SWAP2 SWAP1 PUSH2 0xE43 JUMP JUMPDEST PUSH2 0x4B0 SWAP2 SWAP1 PUSH2 0xE43 JUMP JUMPDEST PUSH2 0x4BA SWAP2 SWAP1 PUSH2 0xE5A JUMP JUMPDEST PUSH2 0x4C1 JUMP JUMPDEST PUSH0 JUMPDEST SWAP1 POP PUSH0 DUP5 ISZERO DUP1 ISZERO PUSH2 0x4D2 JUMPI POP DUP4 PUSH1 0x1 EQ JUMPDEST PUSH2 0x547 JUMPI PUSH1 0x6 DUP5 PUSH2 0x4E4 PUSH1 0x1 DUP9 PUSH2 0xE8C JUMP JUMPDEST PUSH2 0x4EE SWAP2 SWAP1 PUSH2 0xE79 JUMP JUMPDEST PUSH2 0x4F9 SWAP1 PUSH1 0x2 PUSH2 0xE43 JUMP JUMPDEST PUSH2 0x504 SWAP1 PUSH1 0x1 PUSH2 0xE79 JUMP JUMPDEST PUSH2 0x50E DUP7 DUP9 PUSH2 0xE79 JUMP JUMPDEST DUP7 PUSH2 0x51A PUSH1 0x1 DUP11 PUSH2 0xE8C JUMP JUMPDEST PUSH2 0x524 SWAP2 SWAP1 PUSH2 0xE79 JUMP JUMPDEST PUSH2 0x52E SWAP2 SWAP1 PUSH2 0xE43 JUMP JUMPDEST PUSH2 0x538 SWAP2 SWAP1 PUSH2 0xE43 JUMP JUMPDEST PUSH2 0x542 SWAP2 SWAP1 PUSH2 0xE5A JUMP JUMPDEST PUSH2 0x549 JUMP JUMPDEST PUSH0 JUMPDEST SWAP1 POP PUSH0 PUSH2 0x556 DUP4 DUP4 PUSH2 0xE8C JUMP JUMPDEST SWAP1 POP PUSH2 0x3E80 PUSH2 0x56D DUP3 PUSH8 0xDE0B6B3A7640000 PUSH2 0xE43 JUMP JUMPDEST PUSH2 0x3B8 SWAP2 SWAP1 PUSH2 0xE5A JUMP JUMPDEST PUSH1 0x1 PUSH1 0x1 PUSH1 0xA0 SHL SUB DUP3 AND PUSH0 SWAP1 DUP2 MSTORE PUSH1 0x5 PUSH1 0x20 MSTORE PUSH1 0x40 SWAP1 KECCAK256 SLOAD DUP1 ISZERO ISZERO DUP1 PUSH2 0x5A5 JUMPI POP PUSH1 0x1 PUSH1 0x1 PUSH1 0xA0 SHL SUB DUP4 AND CALLER EQ JUMPDEST PUSH2 0x60F JUMPI PUSH1 0x40 MLOAD PUSH3 0x461BCD PUSH1 0xE5 SHL DUP2 MSTORE PUSH1 0x20 PUSH1 0x4 DUP3 ADD MSTORE PUSH1 0x30 PUSH1 0x24 DUP3 ADD MSTORE PUSH32 0x4F6E6C79207468652073686172657327207375626A6563742063616E20627579 PUSH1 0x44 DUP3 ADD MSTORE PUSH16 0x20746865206669727374207368617265 PUSH1 0x80 SHL PUSH1 0x64 DUP3 ADD MSTORE PUSH1 0x84 ADD JUMPDEST PUSH1 0x40 MLOAD DUP1 SWAP2 SUB SWAP1 REVERT JUMPDEST PUSH0 PUSH2 0x61A DUP3 DUP5 PUSH2 0x465 JUMP JUMPDEST SWAP1 POP PUSH0 PUSH8 0xDE0B6B3A7640000 PUSH1 0x2 SLOAD DUP4 PUSH2 0x634 SWAP2 SWAP1 PUSH2 0xE43 JUMP JUMPDEST PUSH2 0x63E SWAP2 SWAP1 PUSH2 0xE5A JUMP JUMPDEST SWAP1 POP PUSH0 PUSH8 0xDE0B6B3A7640000 PUSH1 0x3 SLOAD DUP5 PUSH2 0x658 SWAP2 SWAP1 PUSH2 0xE43 JUMP JUMPDEST PUSH2 0x662 SWAP2 SWAP1 PUSH2 0xE5A JUMP JUMPDEST SWAP1 POP DUP1 PUSH2 0x66F DUP4 DUP6 PUSH2 0xE79 JUMP JUMPDEST PUSH2 0x679 SWAP2 SWAP1 PUSH2 0xE79 JUMP JUMPDEST CALLVALUE LT ISZERO PUSH2 0x6BF JUMPI PUSH1 0x40 MLOAD PUSH3 0x461BCD PUSH1 0xE5 SHL DUP2 MSTORE PUSH1 0x20 PUSH1 0x4 DUP3 ADD MSTORE PUSH1 0x14 PUSH1 0x24 DUP3 ADD MSTORE PUSH20 0x125B9CDD59999A58DA595B9D081C185E5B595B9D PUSH1 0x62 SHL PUSH1 0x44 DUP3 ADD MSTORE PUSH1 0x64 ADD PUSH2 0x606 JUMP JUMPDEST PUSH1 0x1 PUSH1 0x1 PUSH1 0xA0 SHL SUB DUP7 AND PUSH0 SWAP1 DUP2 MSTORE PUSH1 0x4 PUSH1 0x20 SWAP1 DUP2 MSTORE PUSH1 0x40 DUP1 DUP4 KECCAK256 CALLER DUP5 MSTORE SWAP1 SWAP2 MSTORE SWAP1 KECCAK256 SLOAD PUSH2 0x6ED SWAP1 DUP7 SWAP1 PUSH2 0xE79 JUMP JUMPDEST PUSH1 0x1 PUSH1 0x1 PUSH1 0xA0 SHL SUB DUP8 AND PUSH0 SWAP1 DUP2 MSTORE PUSH1 0x4 PUSH1 0x20 SWAP1 DUP2 MSTORE PUSH1 0x40 DUP1 DUP4 KECCAK256 CALLER DUP5 MSTORE SWAP1 SWAP2 MSTORE SWAP1 KECCAK256 SSTORE PUSH2 0x71A DUP6 DUP6 PUSH2 0xE79 JUMP JUMPDEST PUSH1 0x1 PUSH1 0x1 PUSH1 0xA0 SHL SUB DUP8 AND PUSH0 SWAP1 DUP2 MSTORE PUSH1 0x5 PUSH1 0x20 MSTORE PUSH1 0x40 SWAP1 KECCAK256 SSTORE PUSH32 0x2C76E7A47FD53E2854856AC3F0A5F3EE40D15CFAA82266357EA9779C486AB9C3 CALLER DUP8 PUSH1 0x1 DUP9 DUP8 DUP8 DUP8 PUSH2 0x765 DUP5 DUP14 PUSH2 0xE79 JUMP JUMPDEST PUSH1 0x40 MLOAD PUSH2 0x779 SWAP9 SWAP8 SWAP7 SWAP6 SWAP5 SWAP4 SWAP3 SWAP2 SWAP1 PUSH2 0xE9F JUMP JUMPDEST PUSH1 0x40 MLOAD DUP1 SWAP2 SUB SWAP1 LOG1 PUSH1 0x1 SLOAD PUSH1 0x40 MLOAD PUSH0 SWAP2 PUSH1 0x1 PUSH1 0x1 PUSH1 0xA0 SHL SUB AND SWAP1 DUP5 SWAP1 DUP4 DUP2 DUP2 DUP2 DUP6 DUP8 GAS CALL SWAP3 POP POP POP RETURNDATASIZE DUP1 PUSH0 DUP2 EQ PUSH2 0x7CB JUMPI PUSH1 0x40 MLOAD SWAP2 POP PUSH1 0x1F NOT PUSH1 0x3F RETURNDATASIZE ADD AND DUP3 ADD PUSH1 0x40 MSTORE RETURNDATASIZE DUP3 MSTORE RETURNDATASIZE PUSH0 PUSH1 0x20 DUP5 ADD RETURNDATACOPY PUSH2 0x7D0 JUMP JUMPDEST PUSH1 0x60 SWAP2 POP JUMPDEST POP POP SWAP1 POP PUSH0 DUP8 PUSH1 0x1 PUSH1 0x1 PUSH1 0xA0 SHL SUB AND DUP4 PUSH1 0x40 MLOAD PUSH0 PUSH1 0x40 MLOAD DUP1 DUP4 SUB DUP2 DUP6 DUP8 GAS CALL SWAP3 POP POP POP RETURNDATASIZE DUP1 PUSH0 DUP2 EQ PUSH2 0x81D JUMPI PUSH1 0x40 MLOAD SWAP2 POP PUSH1 0x1F NOT PUSH1 0x3F RETURNDATASIZE ADD AND DUP3 ADD PUSH1 0x40 MSTORE RETURNDATASIZE DUP3 MSTORE RETURNDATASIZE PUSH0 PUSH1 0x20 DUP5 ADD RETURNDATACOPY PUSH2 0x822 JUMP JUMPDEST PUSH1 0x60 SWAP2 POP JUMPDEST POP POP SWAP1 POP DUP2 DUP1 ISZERO PUSH2 0x830 JUMPI POP DUP1 JUMPDEST PUSH2 0x873 JUMPI PUSH1 0x40 MLOAD PUSH3 0x461BCD PUSH1 0xE5 SHL DUP2 MSTORE PUSH1 0x20 PUSH1 0x4 DUP3 ADD MSTORE PUSH1 0x14 PUSH1 0x24 DUP3 ADD MSTORE PUSH20 0x556E61626C6520746F2073656E642066756E6473 PUSH1 0x60 SHL PUSH1 0x44 DUP3 ADD MSTORE PUSH1 0x64 ADD PUSH2 0x606 JUMP JUMPDEST POP POP POP POP POP POP POP POP JUMP JUMPDEST PUSH2 0x885 PUSH2 0xCC3 JUMP JUMPDEST PUSH2 0x88E PUSH0 PUSH2 0xD1C JUMP JUMPDEST JUMP JUMPDEST PUSH1 0x1 PUSH1 0x1 PUSH1 0xA0 SHL SUB DUP3 AND PUSH0 SWAP1 DUP2 MSTORE PUSH1 0x5 PUSH1 0x20 MSTORE PUSH1 0x40 DUP2 KECCAK256 SLOAD PUSH2 0x451 SWAP1 PUSH2 0x8B7 SWAP1 DUP5 SWAP1 PUSH2 0xE8C JUMP JUMPDEST DUP4 PUSH2 0x465 JUMP JUMPDEST PUSH2 0x8C5 PUSH2 0xCC3 JUMP JUMPDEST PUSH1 0x2 SSTORE JUMP JUMPDEST PUSH1 0x1 PUSH1 0x1 PUSH1 0xA0 SHL SUB DUP3 AND PUSH0 SWAP1 DUP2 MSTORE PUSH1 0x5 PUSH1 0x20 MSTORE PUSH1 0x40 SWAP1 KECCAK256 SLOAD DUP2 DUP2 GT PUSH2 0x931 JUMPI PUSH1 0x40 MLOAD PUSH3 0x461BCD PUSH1 0xE5 SHL DUP2 MSTORE PUSH1 0x20 PUSH1 0x4 DUP3 ADD MSTORE PUSH1 0x1A PUSH1 0x24 DUP3 ADD MSTORE PUSH32 0x43616E6E6F742073656C6C20746865206C617374207368617265000000000000 PUSH1 0x44 DUP3 ADD MSTORE PUSH1 0x64 ADD PUSH2 0x606 JUMP JUMPDEST PUSH0 PUSH2 0x945 PUSH2 0x93F DUP5 DUP5 PUSH2 0xE8C JUMP JUMPDEST DUP5 PUSH2 0x465 JUMP JUMPDEST SWAP1 POP PUSH0 PUSH8 0xDE0B6B3A7640000 PUSH1 0x2 SLOAD DUP4 PUSH2 0x95F SWAP2 SWAP1 PUSH2 0xE43 JUMP JUMPDEST PUSH2 0x969 SWAP2 SWAP1 PUSH2 0xE5A JUMP JUMPDEST SWAP1 POP PUSH0 PUSH8 0xDE0B6B3A7640000 PUSH1 0x3 SLOAD DUP5 PUSH2 0x983 SWAP2 SWAP1 PUSH2 0xE43 JUMP JUMPDEST PUSH2 0x98D SWAP2 SWAP1 PUSH2 0xE5A JUMP JUMPDEST PUSH1 0x1 PUSH1 0x1 PUSH1 0xA0 SHL SUB DUP8 AND PUSH0 SWAP1 DUP2 MSTORE PUSH1 0x4 PUSH1 0x20 SWAP1 DUP2 MSTORE PUSH1 0x40 DUP1 DUP4 KECCAK256 CALLER DUP5 MSTORE SWAP1 SWAP2 MSTORE SWAP1 KECCAK256 SLOAD SWAP1 SWAP2 POP DUP6 GT ISZERO PUSH2 0x9F8 JUMPI PUSH1 0x40 MLOAD PUSH3 0x461BCD PUSH1 0xE5 SHL DUP2 MSTORE PUSH1 0x20 PUSH1 0x4 DUP3 ADD MSTORE PUSH1 0x13 PUSH1 0x24 DUP3 ADD MSTORE PUSH19 0x496E73756666696369656E7420736861726573 PUSH1 0x68 SHL PUSH1 0x44 DUP3 ADD MSTORE PUSH1 0x64 ADD PUSH2 0x606 JUMP JUMPDEST PUSH1 0x1 PUSH1 0x1 PUSH1 0xA0 SHL SUB DUP7 AND PUSH0 SWAP1 DUP2 MSTORE PUSH1 0x4 PUSH1 0x20 SWAP1 DUP2 MSTORE PUSH1 0x40 DUP1 DUP4 KECCAK256 CALLER DUP5 MSTORE SWAP1 SWAP2 MSTORE SWAP1 KECCAK256 SLOAD PUSH2 0xA26 SWAP1 DUP7 SWAP1 PUSH2 0xE8C JUMP JUMPDEST PUSH1 0x1 PUSH1 0x1 PUSH1 0xA0 SHL SUB DUP8 AND PUSH0 SWAP1 DUP2 MSTORE PUSH1 0x4 PUSH1 0x20 SWAP1 DUP2 MSTORE PUSH1 0x40 DUP1 DUP4 KECCAK256 CALLER DUP5 MSTORE SWAP1 SWAP2 MSTORE SWAP1 KECCAK256 SSTORE PUSH2 0xA53 DUP6 DUP6 PUSH2 0xE8C JUMP JUMPDEST PUSH1 0x1 PUSH1 0x1 PUSH1 0xA0 SHL SUB DUP8 AND PUSH0 SWAP1 DUP2 MSTORE PUSH1 0x5 PUSH1 0x20 MSTORE PUSH1 0x40 DUP2 KECCAK256 SWAP2 SWAP1 SWAP2 SSTORE PUSH32 0x2C76E7A47FD53E2854856AC3F0A5F3EE40D15CFAA82266357EA9779C486AB9C3 SWAP1 CALLER SWAP1 DUP9 SWAP1 DUP9 DUP8 DUP8 DUP8 PUSH2 0xAA2 DUP5 DUP14 PUSH2 0xE8C JUMP JUMPDEST PUSH1 0x40 MLOAD PUSH2 0xAB6 SWAP9 SWAP8 SWAP7 SWAP6 SWAP5 SWAP4 SWAP3 SWAP2 SWAP1 PUSH2 0xE9F JUMP JUMPDEST PUSH1 0x40 MLOAD DUP1 SWAP2 SUB SWAP1 LOG1 PUSH0 CALLER DUP3 PUSH2 0xACB DUP6 DUP8 PUSH2 0xE8C JUMP JUMPDEST PUSH2 0xAD5 SWAP2 SWAP1 PUSH2 0xE8C JUMP JUMPDEST PUSH1 0x40 MLOAD PUSH0 DUP2 DUP2 DUP2 DUP6 DUP8 GAS CALL SWAP3 POP POP POP RETURNDATASIZE DUP1 PUSH0 DUP2 EQ PUSH2 0xB0E JUMPI PUSH1 0x40 MLOAD SWAP2 POP PUSH1 0x1F NOT PUSH1 0x3F RETURNDATASIZE ADD AND DUP3 ADD PUSH1 0x40 MSTORE RETURNDATASIZE DUP3 MSTORE RETURNDATASIZE PUSH0 PUSH1 0x20 DUP5 ADD RETURNDATACOPY PUSH2 0xB13 JUMP JUMPDEST PUSH1 0x60 SWAP2 POP JUMPDEST POP POP PUSH1 0x1 SLOAD PUSH1 0x40 MLOAD SWAP2 SWAP3 POP PUSH0 SWAP2 PUSH1 0x1 PUSH1 0x1 PUSH1 0xA0 SHL SUB SWAP1 SWAP2 AND SWAP1 DUP6 SWAP1 DUP4 DUP2 DUP2 DUP2 DUP6 DUP8 GAS CALL SWAP3 POP POP POP RETURNDATASIZE DUP1 PUSH0 DUP2 EQ PUSH2 0xB64 JUMPI PUSH1 0x40 MLOAD SWAP2 POP PUSH1 0x1F NOT PUSH1 0x3F RETURNDATASIZE ADD AND DUP3 ADD PUSH1 0x40 MSTORE RETURNDATASIZE DUP3 MSTORE RETURNDATASIZE PUSH0 PUSH1 0x20 DUP5 ADD RETURNDATACOPY PUSH2 0xB69 JUMP JUMPDEST PUSH1 0x60 SWAP2 POP JUMPDEST POP POP SWAP1 POP PUSH0 DUP9 PUSH1 0x1 PUSH1 0x1 PUSH1 0xA0 SHL SUB AND DUP5 PUSH1 0x40 MLOAD PUSH0 PUSH1 0x40 MLOAD DUP1 DUP4 SUB DUP2 DUP6 DUP8 GAS CALL SWAP3 POP POP POP RETURNDATASIZE DUP1 PUSH0 DUP2 EQ PUSH2 0xBB6 JUMPI PUSH1 0x40 MLOAD SWAP2 POP PUSH1 0x1F NOT PUSH1 0x3F RETURNDATASIZE ADD AND DUP3 ADD PUSH1 0x40 MSTORE RETURNDATASIZE DUP3 MSTORE RETURNDATASIZE PUSH0 PUSH1 0x20 DUP5 ADD RETURNDATACOPY PUSH2 0xBBB JUMP JUMPDEST PUSH1 0x60 SWAP2 POP JUMPDEST POP POP SWAP1 POP DUP3 DUP1 ISZERO PUSH2 0xBC9 JUMPI POP DUP2 JUMPDEST DUP1 ISZERO PUSH2 0xBD2 JUMPI POP DUP1 JUMPDEST PUSH2 0xC15 JUMPI PUSH1 0x40 MLOAD PUSH3 0x461BCD PUSH1 0xE5 SHL DUP2 MSTORE PUSH1 0x20 PUSH1 0x4 DUP3 ADD MSTORE PUSH1 0x14 PUSH1 0x24 DUP3 ADD MSTORE PUSH20 0x556E61626C6520746F2073656E642066756E6473 PUSH1 0x60 SHL PUSH1 0x44 DUP3 ADD MSTORE PUSH1 0x64 ADD PUSH2 0x606 JUMP JUMPDEST POP POP POP POP POP POP POP POP POP JUMP JUMPDEST PUSH2 0xC28 PUSH2 0xCC3 JUMP JUMPDEST PUSH1 0x1 PUSH1 0x1 PUSH1 0xA0 SHL SUB DUP2 AND PUSH2 0xC8D JUMPI PUSH1 0x40 MLOAD PUSH3 0x461BCD PUSH1 0xE5 SHL DUP2 MSTORE PUSH1 0x20 PUSH1 0x4 DUP3 ADD MSTORE PUSH1 0x26 PUSH1 0x24 DUP3 ADD MSTORE PUSH32 0x4F776E61626C653A206E6577206F776E657220697320746865207A65726F2061 PUSH1 0x44 DUP3 ADD MSTORE PUSH6 0x646472657373 PUSH1 0xD0 SHL PUSH1 0x64 DUP3 ADD MSTORE PUSH1 0x84 ADD PUSH2 0x606 JUMP JUMPDEST PUSH2 0xC96 DUP2 PUSH2 0xD1C JUMP JUMPDEST POP JUMP JUMPDEST PUSH2 0xCA1 PUSH2 0xCC3 JUMP JUMPDEST PUSH1 0x1 DUP1 SLOAD PUSH1 0x1 PUSH1 0x1 PUSH1 0xA0 SHL SUB NOT AND PUSH1 0x1 PUSH1 0x1 PUSH1 0xA0 SHL SUB SWAP3 SWAP1 SWAP3 AND SWAP2 SWAP1 SWAP2 OR SWAP1 SSTORE JUMP JUMPDEST PUSH0 SLOAD PUSH1 0x1 PUSH1 0x1 PUSH1 0xA0 SHL SUB AND CALLER EQ PUSH2 0x88E JUMPI PUSH1 0x40 MLOAD PUSH3 0x461BCD PUSH1 0xE5 SHL DUP2 MSTORE PUSH1 0x20 PUSH1 0x4 DUP3 ADD DUP2 SWAP1 MSTORE PUSH1 0x24 DUP3 ADD MSTORE PUSH32 0x4F776E61626C653A2063616C6C6572206973206E6F7420746865206F776E6572 PUSH1 0x44 DUP3 ADD MSTORE PUSH1 0x64 ADD PUSH2 0x606 JUMP JUMPDEST PUSH0 DUP1 SLOAD PUSH1 0x1 PUSH1 0x1 PUSH1 0xA0 SHL SUB DUP4 DUP2 AND PUSH1 0x1 PUSH1 0x1 PUSH1 0xA0 SHL SUB NOT DUP4 AND DUP2 OR DUP5 SSTORE PUSH1 0x40 MLOAD SWAP2 SWAP1 SWAP3 AND SWAP3 DUP4 SWAP2 PUSH32 0x8BE0079C531659141344CD1FD0A4F28419497F9722A3DAAFE3B4186F6B6457E0 SWAP2 SWAP1 LOG3 POP POP JUMP JUMPDEST DUP1 CALLDATALOAD PUSH1 0x1 PUSH1 0x1 PUSH1 0xA0 SHL SUB DUP2 AND DUP2 EQ PUSH2 0xD81 JUMPI PUSH0 DUP1 REVERT JUMPDEST SWAP2 SWAP1 POP JUMP JUMPDEST PUSH0 DUP1 PUSH1 0x40 DUP4 DUP6 SUB SLT ISZERO PUSH2 0xD97 JUMPI PUSH0 DUP1 REVERT JUMPDEST PUSH2 0xDA0 DUP4 PUSH2 0xD6B JUMP JUMPDEST SWAP2 POP PUSH2 0xDAE PUSH1 0x20 DUP5 ADD PUSH2 0xD6B JUMP JUMPDEST SWAP1 POP SWAP3 POP SWAP3 SWAP1 POP JUMP JUMPDEST PUSH0 DUP1 PUSH1 0x40 DUP4 DUP6 SUB SLT ISZERO PUSH2 0xDC8 JUMPI PUSH0 DUP1 REVERT JUMPDEST PUSH2 0xDD1 DUP4 PUSH2 0xD6B JUMP JUMPDEST SWAP5 PUSH1 0x20 SWAP4 SWAP1 SWAP4 ADD CALLDATALOAD SWAP4 POP POP POP JUMP JUMPDEST PUSH0 PUSH1 0x20 DUP3 DUP5 SUB SLT ISZERO PUSH2 0xDEF JUMPI PUSH0 DUP1 REVERT JUMPDEST POP CALLDATALOAD SWAP2 SWAP1 POP JUMP JUMPDEST PUSH0 DUP1 PUSH1 0x40 DUP4 DUP6 SUB SLT ISZERO PUSH2 0xE07 JUMPI PUSH0 DUP1 REVERT JUMPDEST POP POP DUP1 CALLDATALOAD SWAP3 PUSH1 0x20 SWAP1 SWAP2 ADD CALLDATALOAD SWAP2 POP JUMP JUMPDEST PUSH0 PUSH1 0x20 DUP3 DUP5 SUB SLT ISZERO PUSH2 0xE26 JUMPI PUSH0 DUP1 REVERT JUMPDEST PUSH2 0x451 DUP3 PUSH2 0xD6B JUMP JUMPDEST PUSH4 0x4E487B71 PUSH1 0xE0 SHL PUSH0 MSTORE PUSH1 0x11 PUSH1 0x4 MSTORE PUSH1 0x24 PUSH0 REVERT JUMPDEST DUP1 DUP3 MUL DUP2 ISZERO DUP3 DUP3 DIV DUP5 EQ OR PUSH2 0x3BE JUMPI PUSH2 0x3BE PUSH2 0xE2F JUMP JUMPDEST PUSH0 DUP3 PUSH2 0xE74 JUMPI PUSH4 0x4E487B71 PUSH1 0xE0 SHL PUSH0 MSTORE PUSH1 0x12 PUSH1 0x4 MSTORE PUSH1 0x24 PUSH0 REVERT JUMPDEST POP DIV SWAP1 JUMP JUMPDEST DUP1 DUP3 ADD DUP1 DUP3 GT ISZERO PUSH2 0x3BE JUMPI PUSH2 0x3BE PUSH2 0xE2F JUMP JUMPDEST DUP2 DUP2 SUB DUP2 DUP2 GT ISZERO PUSH2 0x3BE JUMPI PUSH2 0x3BE PUSH2 0xE2F JUMP JUMPDEST PUSH1 0x1 PUSH1 0x1 PUSH1 0xA0 SHL SUB SWAP9 DUP10 AND DUP2 MSTORE SWAP7 SWAP1 SWAP8 AND PUSH1 0x20 DUP8 ADD MSTORE SWAP4 ISZERO ISZERO PUSH1 0x40 DUP7 ADD MSTORE PUSH1 0x60 DUP6 ADD SWAP3 SWAP1 SWAP3 MSTORE PUSH1 0x80 DUP5 ADD MSTORE PUSH1 0xA0 DUP4 ADD MSTORE PUSH1 0xC0 DUP3 ADD MSTORE PUSH1 0xE0 DUP2 ADD SWAP2 SWAP1 SWAP2 MSTORE PUSH2 0x100 ADD SWAP1 JUMP INVALID LOG2 PUSH5 0x6970667358 0x22 SLT KECCAK256 0xF PUSH16 0x1F540079ACA60E8C32D73AB0596F31A7 0xB0 PUSH26 0x6965089BF9747146C1E9F35064736F6C63430008180033000000 "
				},
				"gasEstimates": {
					"creation": {
						"codeDepositCost": "773000",
						"executionCost": "26643",
						"totalCost": "799643"
					},
					"external": {
						"buyShares(address,uint256)": "infinite",
						"getBuyPrice(address,uint256)": "infinite",
						"getBuyPriceAfterFee(address,uint256)": "infinite",
						"getPrice(uint256,uint256)": "infinite",
						"getSellPrice(address,uint256)": "infinite",
						"getSellPriceAfterFee(address,uint256)": "infinite",
						"owner()": "2374",
						"protocolFeeDestination()": "2381",
						"protocolFeePercent()": "2327",
						"renounceOwnership()": "infinite",
						"sellShares(address,uint256)": "infinite",
						"setFeeDestination(address)": "26842",
						"setProtocolFeePercent(uint256)": "24574",
						"setSubjectFeePercent(uint256)": "24552",
						"sharesBalance(address,address)": "infinite",
						"sharesSupply(address)": "2593",
						"subjectFeePercent()": "2373",
						"transferOwnership(address)": "28395"
					}
				},
				"methodIdentifiers": {
					"buyShares(address,uint256)": "6945b123",
					"getBuyPrice(address,uint256)": "4635256e",
					"getBuyPriceAfterFee(address,uint256)": "0f026f6d",
					"getPrice(uint256,uint256)": "5cf4ee91",
					"getSellPrice(address,uint256)": "9ae71781",
					"getSellPriceAfterFee(address,uint256)": "2267a89c",
					"owner()": "8da5cb5b",
					"protocolFeeDestination()": "4ce7957c",
					"protocolFeePercent()": "d6e6eb9f",
					"renounceOwnership()": "715018a6",
					"sellShares(address,uint256)": "b51d0534",
					"setFeeDestination(address)": "fbe53234",
					"setProtocolFeePercent(uint256)": "a4983421",
					"setSubjectFeePercent(uint256)": "5a8a764e",
					"sharesBalance(address,address)": "020235ff",
					"sharesSupply(address)": "f9931be0",
					"subjectFeePercent()": "24dc441d",
					"transferOwnership(address)": "f2fde38b"
				}
			},
			"storageLayout": {
				"storage": [
					{
						"astId": 7,
						"contract": "sosh/CertiFren.sol:CertiFren",
						"label": "_owner",
						"offset": 0,
						"slot": "0",
						"type": "t_address"
					},
					{
						"astId": 141,
						"contract": "sosh/CertiFren.sol:CertiFren",
						"label": "protocolFeeDestination",
						"offset": 0,
						"slot": "1",
						"type": "t_address"
					},
					{
						"astId": 143,
						"contract": "sosh/CertiFren.sol:CertiFren",
						"label": "protocolFeePercent",
						"offset": 0,
						"slot": "2",
						"type": "t_uint256"
					},
					{
						"astId": 145,
						"contract": "sosh/CertiFren.sol:CertiFren",
						"label": "subjectFeePercent",
						"offset": 0,
						"slot": "3",
						"type": "t_uint256"
					},
					{
						"astId": 169,
						"contract": "sosh/CertiFren.sol:CertiFren",
						"label": "sharesBalance",
						"offset": 0,
						"slot": "4",
						"type": "t_mapping(t_address,t_mapping(t_address,t_uint256))"
					},
					{
						"astId": 173,
						"contract": "sosh/CertiFren.sol:CertiFren",
						"label": "sharesSupply",
						"offset": 0,
						"slot": "5",
						"type": "t_mapping(t_address,t_uint256)"
					}
				],
				"types": {
					"t_address": {
						"encoding": "inplace",
						"label": "address",
						"numberOfBytes": "20"
					},
					"t_mapping(t_address,t_mapping(t_address,t_uint256))": {
						"encoding": "mapping",
						"key": "t_address",
						"label": "mapping(address => mapping(address => uint256))",
						"numberOfBytes": "32",
						"value": "t_mapping(t_address,t_uint256)"
					},
					"t_mapping(t_address,t_uint256)": {
						"encoding": "mapping",
						"key": "t_address",
						"label": "mapping(address => uint256)",
						"numberOfBytes": "32",
						"value": "t_uint256"
					},
					"t_uint256": {
						"encoding": "inplace",
						"label": "uint256",
						"numberOfBytes": "32"
					}
				}
			},
			"userdoc": {
				"kind": "user",
				"methods": {},
				"version": 1
			}
		}
	}
}