{
	"sosh/Sosh.sol": {
		"Sosh": {
			"abi": [
				{
					"inputs": [],
					"name": "Unauthorized",
					"type": "error"
				},
				{
					"anonymous": false,
					"inputs": [
						{
							"indexed": true,
							"internalType": "address",
							"name": "owner",
							"type": "address"
						},
						{
							"indexed": true,
							"internalType": "address",
							"name": "operator",
							"type": "address"
						},
						{
							"indexed": false,
							"internalType": "bool",
							"name": "approved",
							"type": "bool"
						}
					],
					"name": "ApprovalForAll",
					"type": "event"
				},
				{
					"anonymous": false,
					"inputs": [
						{
							"indexed": true,
							"internalType": "uint256",
							"name": "cctId",
							"type": "uint256"
						},
						{
							"indexed": true,
							"internalType": "address",
							"name": "sender",
							"type": "address"
						},
						{
							"indexed": false,
							"internalType": "string",
							"name": "arTxId",
							"type": "string"
						}
					],
					"name": "Create",
					"type": "event"
				},
				{
					"anonymous": false,
					"inputs": [
						{
							"indexed": true,
							"internalType": "uint256",
							"name": "cctId",
							"type": "uint256"
						},
						{
							"indexed": true,
							"internalType": "address",
							"name": "sender",
							"type": "address"
						}
					],
					"name": "Remove",
					"type": "event"
				},
				{
					"anonymous": false,
					"inputs": [
						{
							"indexed": true,
							"internalType": "enum Sosh.TradeType",
							"name": "tradeType",
							"type": "uint8"
						},
						{
							"indexed": true,
							"internalType": "uint256",
							"name": "cctId",
							"type": "uint256"
						},
						{
							"indexed": true,
							"internalType": "address",
							"name": "sender",
							"type": "address"
						},
						{
							"indexed": false,
							"internalType": "uint256",
							"name": "tokenAmount",
							"type": "uint256"
						},
						{
							"indexed": false,
							"internalType": "uint256",
							"name": "ethAmount",
							"type": "uint256"
						},
						{
							"indexed": false,
							"internalType": "uint256",
							"name": "creatorFee",
							"type": "uint256"
						}
					],
					"name": "Trade",
					"type": "event"
				},
				{
					"anonymous": false,
					"inputs": [
						{
							"indexed": true,
							"internalType": "address",
							"name": "operator",
							"type": "address"
						},
						{
							"indexed": true,
							"internalType": "address",
							"name": "from",
							"type": "address"
						},
						{
							"indexed": true,
							"internalType": "address",
							"name": "to",
							"type": "address"
						},
						{
							"indexed": false,
							"internalType": "uint256[]",
							"name": "ids",
							"type": "uint256[]"
						},
						{
							"indexed": false,
							"internalType": "uint256[]",
							"name": "amounts",
							"type": "uint256[]"
						}
					],
					"name": "TransferBatch",
					"type": "event"
				},
				{
					"anonymous": false,
					"inputs": [
						{
							"indexed": true,
							"internalType": "address",
							"name": "operator",
							"type": "address"
						},
						{
							"indexed": true,
							"internalType": "address",
							"name": "from",
							"type": "address"
						},
						{
							"indexed": true,
							"internalType": "address",
							"name": "to",
							"type": "address"
						},
						{
							"indexed": false,
							"internalType": "uint256",
							"name": "id",
							"type": "uint256"
						},
						{
							"indexed": false,
							"internalType": "uint256",
							"name": "amount",
							"type": "uint256"
						}
					],
					"name": "TransferSingle",
					"type": "event"
				},
				{
					"anonymous": false,
					"inputs": [
						{
							"indexed": false,
							"internalType": "string",
							"name": "value",
							"type": "string"
						},
						{
							"indexed": true,
							"internalType": "uint256",
							"name": "id",
							"type": "uint256"
						}
					],
					"name": "URI",
					"type": "event"
				},
				{
					"inputs": [],
					"name": "CREATOR_FEE_PERCENT",
					"outputs": [
						{
							"internalType": "uint256",
							"name": "",
							"type": "uint256"
						}
					],
					"stateMutability": "view",
					"type": "function"
				},
				{
					"inputs": [],
					"name": "CREATOR_PREMINT",
					"outputs": [
						{
							"internalType": "uint256",
							"name": "",
							"type": "uint256"
						}
					],
					"stateMutability": "view",
					"type": "function"
				},
				{
					"inputs": [
						{
							"internalType": "address",
							"name": "",
							"type": "address"
						},
						{
							"internalType": "uint256",
							"name": "",
							"type": "uint256"
						}
					],
					"name": "balanceOf",
					"outputs": [
						{
							"internalType": "uint256",
							"name": "",
							"type": "uint256"
						}
					],
					"stateMutability": "view",
					"type": "function"
				},
				{
					"inputs": [
						{
							"internalType": "address[]",
							"name": "owners",
							"type": "address[]"
						},
						{
							"internalType": "uint256[]",
							"name": "ids",
							"type": "uint256[]"
						}
					],
					"name": "balanceOfBatch",
					"outputs": [
						{
							"internalType": "uint256[]",
							"name": "balances",
							"type": "uint256[]"
						}
					],
					"stateMutability": "view",
					"type": "function"
				},
				{
					"inputs": [
						{
							"internalType": "uint256",
							"name": "cctId",
							"type": "uint256"
						},
						{
							"internalType": "uint256",
							"name": "amount",
							"type": "uint256"
						}
					],
					"name": "buy",
					"outputs": [],
					"stateMutability": "payable",
					"type": "function"
				},
				{
					"inputs": [],
					"name": "cctIndex",
					"outputs": [
						{
							"internalType": "uint256",
							"name": "",
							"type": "uint256"
						}
					],
					"stateMutability": "view",
					"type": "function"
				},
				{
					"inputs": [
						{
							"internalType": "uint256",
							"name": "",
							"type": "uint256"
						}
					],
					"name": "ccts",
					"outputs": [
						{
							"internalType": "uint256",
							"name": "id",
							"type": "uint256"
						},
						{
							"internalType": "string",
							"name": "arTxId",
							"type": "string"
						},
						{
							"internalType": "address",
							"name": "creator",
							"type": "address"
						}
					],
					"stateMutability": "view",
					"type": "function"
				},
				{
					"inputs": [
						{
							"internalType": "string",
							"name": "arTxId",
							"type": "string"
						}
					],
					"name": "create",
					"outputs": [],
					"stateMutability": "nonpayable",
					"type": "function"
				},
				{
					"inputs": [
						{
							"internalType": "uint256",
							"name": "cctId",
							"type": "uint256"
						},
						{
							"internalType": "uint256",
							"name": "amount",
							"type": "uint256"
						}
					],
					"name": "getBuyPrice",
					"outputs": [
						{
							"internalType": "uint256",
							"name": "",
							"type": "uint256"
						}
					],
					"stateMutability": "view",
					"type": "function"
				},
				{
					"inputs": [
						{
							"internalType": "uint256",
							"name": "cctId",
							"type": "uint256"
						},
						{
							"internalType": "uint256",
							"name": "amount",
							"type": "uint256"
						}
					],
					"name": "getBuyPriceAfterFee",
					"outputs": [
						{
							"internalType": "uint256",
							"name": "",
							"type": "uint256"
						}
					],
					"stateMutability": "view",
					"type": "function"
				},
				{
					"inputs": [
						{
							"internalType": "uint256",
							"name": "supply",
							"type": "uint256"
						},
						{
							"internalType": "uint256",
							"name": "amount",
							"type": "uint256"
						}
					],
					"name": "getPrice",
					"outputs": [
						{
							"internalType": "uint256",
							"name": "",
							"type": "uint256"
						}
					],
					"stateMutability": "pure",
					"type": "function"
				},
				{
					"inputs": [
						{
							"internalType": "uint256",
							"name": "cctId",
							"type": "uint256"
						},
						{
							"internalType": "uint256",
							"name": "amount",
							"type": "uint256"
						}
					],
					"name": "getSellPrice",
					"outputs": [
						{
							"internalType": "uint256",
							"name": "",
							"type": "uint256"
						}
					],
					"stateMutability": "view",
					"type": "function"
				},
				{
					"inputs": [
						{
							"internalType": "uint256",
							"name": "cctId",
							"type": "uint256"
						},
						{
							"internalType": "uint256",
							"name": "amount",
							"type": "uint256"
						}
					],
					"name": "getSellPriceAfterFee",
					"outputs": [
						{
							"internalType": "uint256",
							"name": "",
							"type": "uint256"
						}
					],
					"stateMutability": "view",
					"type": "function"
				},
				{
					"inputs": [
						{
							"internalType": "address",
							"name": "addr",
							"type": "address"
						}
					],
					"name": "getcctIdsByAddress",
					"outputs": [
						{
							"internalType": "uint256[]",
							"name": "",
							"type": "uint256[]"
						}
					],
					"stateMutability": "view",
					"type": "function"
				},
				{
					"inputs": [
						{
							"internalType": "address",
							"name": "",
							"type": "address"
						},
						{
							"internalType": "address",
							"name": "",
							"type": "address"
						}
					],
					"name": "isApprovedForAll",
					"outputs": [
						{
							"internalType": "bool",
							"name": "",
							"type": "bool"
						}
					],
					"stateMutability": "view",
					"type": "function"
				},
				{
					"inputs": [
						{
							"internalType": "uint256",
							"name": "",
							"type": "uint256"
						}
					],
					"name": "pool",
					"outputs": [
						{
							"internalType": "uint256",
							"name": "",
							"type": "uint256"
						}
					],
					"stateMutability": "view",
					"type": "function"
				},
				{
					"inputs": [
						{
							"internalType": "uint256",
							"name": "cctId",
							"type": "uint256"
						}
					],
					"name": "remove",
					"outputs": [],
					"stateMutability": "nonpayable",
					"type": "function"
				},
				{
					"inputs": [
						{
							"internalType": "address",
							"name": "from",
							"type": "address"
						},
						{
							"internalType": "address",
							"name": "to",
							"type": "address"
						},
						{
							"internalType": "uint256[]",
							"name": "ids",
							"type": "uint256[]"
						},
						{
							"internalType": "uint256[]",
							"name": "amounts",
							"type": "uint256[]"
						},
						{
							"internalType": "bytes",
							"name": "data",
							"type": "bytes"
						}
					],
					"name": "safeBatchTransferFrom",
					"outputs": [],
					"stateMutability": "nonpayable",
					"type": "function"
				},
				{
					"inputs": [
						{
							"internalType": "address",
							"name": "from",
							"type": "address"
						},
						{
							"internalType": "address",
							"name": "to",
							"type": "address"
						},
						{
							"internalType": "uint256",
							"name": "id",
							"type": "uint256"
						},
						{
							"internalType": "uint256",
							"name": "amount",
							"type": "uint256"
						},
						{
							"internalType": "bytes",
							"name": "data",
							"type": "bytes"
						}
					],
					"name": "safeTransferFrom",
					"outputs": [],
					"stateMutability": "nonpayable",
					"type": "function"
				},
				{
					"inputs": [
						{
							"internalType": "uint256",
							"name": "cctId",
							"type": "uint256"
						},
						{
							"internalType": "uint256",
							"name": "amount",
							"type": "uint256"
						}
					],
					"name": "sell",
					"outputs": [],
					"stateMutability": "nonpayable",
					"type": "function"
				},
				{
					"inputs": [
						{
							"internalType": "address",
							"name": "operator",
							"type": "address"
						},
						{
							"internalType": "bool",
							"name": "approved",
							"type": "bool"
						}
					],
					"name": "setApprovalForAll",
					"outputs": [],
					"stateMutability": "nonpayable",
					"type": "function"
				},
				{
					"inputs": [
						{
							"internalType": "bytes4",
							"name": "interfaceId",
							"type": "bytes4"
						}
					],
					"name": "supportsInterface",
					"outputs": [
						{
							"internalType": "bool",
							"name": "",
							"type": "bool"
						}
					],
					"stateMutability": "view",
					"type": "function"
				},
				{
					"inputs": [
						{
							"internalType": "uint256",
							"name": "",
							"type": "uint256"
						}
					],
					"name": "totalSupply",
					"outputs": [
						{
							"internalType": "uint256",
							"name": "",
							"type": "uint256"
						}
					],
					"stateMutability": "view",
					"type": "function"
				},
				{
					"inputs": [
						{
							"internalType": "bytes32",
							"name": "",
							"type": "bytes32"
						}
					],
					"name": "txTocctId",
					"outputs": [
						{
							"internalType": "uint256",
							"name": "",
							"type": "uint256"
						}
					],
					"stateMutability": "view",
					"type": "function"
				},
				{
					"inputs": [
						{
							"internalType": "uint256",
							"name": "id",
							"type": "uint256"
						}
					],
					"name": "uri",
					"outputs": [
						{
							"internalType": "string",
							"name": "",
							"type": "string"
						}
					],
					"stateMutability": "view",
					"type": "function"
				},
				{
					"inputs": [
						{
							"internalType": "address",
							"name": "",
							"type": "address"
						},
						{
							"internalType": "uint256",
							"name": "",
							"type": "uint256"
						}
					],
					"name": "userccts",
					"outputs": [
						{
							"internalType": "uint256",
							"name": "",
							"type": "uint256"
						}
					],
					"stateMutability": "view",
					"type": "function"
				}
			],
			"devdoc": {
				"kind": "dev",
				"methods": {},
				"version": 1
			},
			"evm": {
				"assembly": "    /* \"sosh/Sosh.sol\":120:5363  contract Sosh is ERC1155 {... */\n  mstore(0x40, 0x80)\n  callvalue\n  dup1\n  iszero\n  tag_1\n  jumpi\n  0x00\n  dup1\n  revert\ntag_1:\n  pop\n  dataSize(sub_0)\n  dup1\n  dataOffset(sub_0)\n  0x00\n  codecopy\n  0x00\n  return\nstop\n\nsub_0: assembly {\n        /* \"sosh/Sosh.sol\":120:5363  contract Sosh is ERC1155 {... */\n      mstore(0x40, 0x80)\n      jumpi(tag_1, lt(calldatasize, 0x04))\n      shr(0xe0, calldataload(0x00))\n      dup1\n      0x9477d85d\n      gt\n      tag_28\n      jumpi\n      dup1\n      0xcd9c7121\n      gt\n      tag_29\n      jumpi\n      dup1\n      0xda23eb63\n      gt\n      tag_30\n      jumpi\n      dup1\n      0xda23eb63\n      eq\n      tag_24\n      jumpi\n      dup1\n      0xe985e9c5\n      eq\n      tag_25\n      jumpi\n      dup1\n      0xf242432a\n      eq\n      tag_26\n      jumpi\n      dup1\n      0xfe313112\n      eq\n      tag_27\n      jumpi\n      0x00\n      dup1\n      revert\n    tag_30:\n      dup1\n      0xcd9c7121\n      eq\n      tag_21\n      jumpi\n      dup1\n      0xd6febde8\n      eq\n      tag_22\n      jumpi\n      dup1\n      0xd79875eb\n      eq\n      tag_23\n      jumpi\n      0x00\n      dup1\n      revert\n    tag_29:\n      dup1\n      0x9477d85d\n      eq\n      tag_15\n      jumpi\n      dup1\n      0x9a730627\n      eq\n      tag_16\n      jumpi\n      dup1\n      0xa22cb465\n      eq\n      tag_17\n      jumpi\n      dup1\n      0xb6a46b3b\n      eq\n      tag_18\n      jumpi\n      dup1\n      0xbd85b039\n      eq\n      tag_19\n      jumpi\n      dup1\n      0xc157253d\n      eq\n      tag_20\n      jumpi\n      0x00\n      dup1\n      revert\n    tag_28:\n      dup1\n      0x4cc82215\n      gt\n      tag_31\n      jumpi\n      dup1\n      0x659d3a1d\n      gt\n      tag_32\n      jumpi\n      dup1\n      0x659d3a1d\n      eq\n      tag_11\n      jumpi\n      dup1\n      0x6cd3e0eb\n      eq\n      tag_12\n      jumpi\n      dup1\n      0x7ffb25ac\n      eq\n      tag_13\n      jumpi\n      dup1\n      0x8fe44666\n      eq\n      tag_14\n      jumpi\n      0x00\n      dup1\n      revert\n    tag_32:\n      dup1\n      0x4cc82215\n      eq\n      tag_8\n      jumpi\n      dup1\n      0x4e1273f4\n      eq\n      tag_9\n      jumpi\n      dup1\n      0x5cf4ee91\n      eq\n      tag_10\n      jumpi\n      0x00\n      dup1\n      revert\n    tag_31:\n      dup1\n      0xfdd58e\n      eq\n      tag_2\n      jumpi\n      dup1\n      0x01ffc9a7\n      eq\n      tag_3\n      jumpi\n      dup1\n      0x063a741f\n      eq\n      tag_4\n      jumpi\n      dup1\n      0x0e89341c\n      eq\n      tag_5\n      jumpi\n      dup1\n      0x1f900ce4\n      eq\n      tag_6\n      jumpi\n      dup1\n      0x2eb2c2d6\n      eq\n      tag_7\n      jumpi\n    tag_1:\n      0x00\n      dup1\n      revert\n        /* \"sosh/ERC1155.sol\":1119:1183  mapping(address => mapping(uint256 => uint256)) public balanceOf */\n    tag_2:\n      callvalue\n      dup1\n      iszero\n      tag_33\n      jumpi\n      0x00\n      dup1\n      revert\n    tag_33:\n      pop\n      tag_34\n      tag_35\n      calldatasize\n      0x04\n      tag_36\n      jump\t// in\n    tag_35:\n      0x00\n      0x20\n      dup2\n      dup2\n      mstore\n      swap3\n      dup2\n      mstore\n      0x40\n      dup1\n      dup3\n      keccak256\n      swap1\n      swap4\n      mstore\n      swap1\n      dup2\n      mstore\n      keccak256\n      sload\n      dup2\n      jump\n    tag_34:\n      mload(0x40)\n        /* \"#utility.yul\":597:622   */\n      swap1\n      dup2\n      mstore\n        /* \"#utility.yul\":585:587   */\n      0x20\n        /* \"#utility.yul\":570:588   */\n      add\n        /* \"sosh/ERC1155.sol\":1119:1183  mapping(address => mapping(uint256 => uint256)) public balanceOf */\n    tag_38:\n      mload(0x40)\n      dup1\n      swap2\n      sub\n      swap1\n      return\n        /* \"sosh/ERC1155.sol\":4606:4946  function supportsInterface(bytes4 interfaceId) public view virtual returns (bool) {... */\n    tag_3:\n      callvalue\n      dup1\n      iszero\n      tag_40\n      jumpi\n      0x00\n      dup1\n      revert\n    tag_40:\n      pop\n      tag_41\n      tag_42\n      calldatasize\n      0x04\n      tag_43\n      jump\t// in\n    tag_42:\n      tag_44\n      jump\t// in\n    tag_41:\n      mload(0x40)\n        /* \"#utility.yul\":1184:1198   */\n      swap1\n      iszero\n        /* \"#utility.yul\":1177:1199   */\n      iszero\n        /* \"#utility.yul\":1159:1200   */\n      dup2\n      mstore\n        /* \"#utility.yul\":1147:1149   */\n      0x20\n        /* \"#utility.yul\":1132:1150   */\n      add\n        /* \"sosh/ERC1155.sol\":4606:4946  function supportsInterface(bytes4 interfaceId) public view virtual returns (bool) {... */\n      tag_38\n        /* \"#utility.yul\":1019:1206   */\n      jump\n        /* \"sosh/Sosh.sol\":3156:3410  function getBuyPriceAfterFee(uint256 cctId, uint256 amount) public view returns (uint256) {... */\n    tag_4:\n      callvalue\n      dup1\n      iszero\n      tag_47\n      jumpi\n      0x00\n      dup1\n      revert\n    tag_47:\n      pop\n      tag_34\n      tag_49\n      calldatasize\n      0x04\n      tag_50\n      jump\t// in\n    tag_49:\n      tag_51\n      jump\t// in\n        /* \"sosh/Sosh.sol\":5252:5361  function uri(uint256 id) public view override returns (string memory) {... */\n    tag_5:\n      callvalue\n      dup1\n      iszero\n      tag_53\n      jumpi\n      0x00\n      dup1\n      revert\n    tag_53:\n      pop\n      tag_54\n      tag_55\n      calldatasize\n      0x04\n      tag_56\n      jump\t// in\n    tag_55:\n      tag_57\n      jump\t// in\n    tag_54:\n      mload(0x40)\n      tag_38\n      swap2\n      swap1\n      tag_59\n      jump\t// in\n        /* \"sosh/Sosh.sol\":666:711  mapping(address => uint256[]) public userccts */\n    tag_6:\n      callvalue\n      dup1\n      iszero\n      tag_60\n      jumpi\n      0x00\n      dup1\n      revert\n    tag_60:\n      pop\n      tag_34\n      tag_62\n      calldatasize\n      0x04\n      tag_36\n      jump\t// in\n    tag_62:\n      tag_63\n      jump\t// in\n        /* \"sosh/ERC1155.sol\":2620:3829  function safeBatchTransferFrom(... */\n    tag_7:\n      callvalue\n      dup1\n      iszero\n      tag_65\n      jumpi\n      0x00\n      dup1\n      revert\n    tag_65:\n      pop\n      tag_66\n      tag_67\n      calldatasize\n      0x04\n      tag_68\n      jump\t// in\n    tag_67:\n      tag_69\n      jump\t// in\n    tag_66:\n      stop\n        /* \"sosh/Sosh.sol\":1691:1995  function remove(uint256 cctId) public {... */\n    tag_8:\n      callvalue\n      dup1\n      iszero\n      tag_70\n      jumpi\n      0x00\n      dup1\n      revert\n    tag_70:\n      pop\n      tag_66\n      tag_72\n      calldatasize\n      0x04\n      tag_56\n      jump\t// in\n    tag_72:\n      tag_73\n      jump\t// in\n        /* \"sosh/ERC1155.sol\":3835:4418  function balanceOfBatch(address[] calldata owners, uint256[] calldata ids)... */\n    tag_9:\n      callvalue\n      dup1\n      iszero\n      tag_74\n      jumpi\n      0x00\n      dup1\n      revert\n    tag_74:\n      pop\n      tag_75\n      tag_76\n      calldatasize\n      0x04\n      tag_77\n      jump\t// in\n    tag_76:\n      tag_78\n      jump\t// in\n    tag_75:\n      mload(0x40)\n      tag_38\n      swap2\n      swap1\n      tag_80\n      jump\t// in\n        /* \"sosh/Sosh.sol\":2669:2844  function getPrice(uint256 supply, uint256 amount) public pure returns (uint256) {... */\n    tag_10:\n      callvalue\n      dup1\n      iszero\n      tag_81\n      jumpi\n      0x00\n      dup1\n      revert\n    tag_81:\n      pop\n      tag_34\n      tag_83\n      calldatasize\n      0x04\n      tag_50\n      jump\t// in\n    tag_83:\n      tag_84\n      jump\t// in\n        /* \"sosh/Sosh.sol\":596:619  uint256 public cctIndex */\n    tag_11:\n      callvalue\n      dup1\n      iszero\n      tag_86\n      jumpi\n      0x00\n      dup1\n      revert\n    tag_86:\n      pop\n      tag_34\n      sload(0x02)\n      dup2\n      jump\n        /* \"sosh/Sosh.sol\":625:660  mapping(uint256 => Cct) public ccts */\n    tag_12:\n      callvalue\n      dup1\n      iszero\n      tag_90\n      jumpi\n      0x00\n      dup1\n      revert\n    tag_90:\n      pop\n      tag_91\n      tag_92\n      calldatasize\n      0x04\n      tag_56\n      jump\t// in\n    tag_92:\n      tag_93\n      jump\t// in\n    tag_91:\n      mload(0x40)\n      tag_38\n      swap4\n      swap3\n      swap2\n      swap1\n      tag_95\n      jump\t// in\n        /* \"sosh/Sosh.sol\":864:913  uint256 public constant CREATOR_PREMINT = 1 ether */\n    tag_13:\n      callvalue\n      dup1\n      iszero\n      tag_96\n      jumpi\n      0x00\n      dup1\n      revert\n    tag_96:\n      pop\n      tag_34\n        /* \"sosh/Sosh.sol\":906:913  1 ether */\n      0x0de0b6b3a7640000\n        /* \"sosh/Sosh.sol\":864:913  uint256 public constant CREATOR_PREMINT = 1 ether */\n      dup2\n      jump\n        /* \"sosh/Sosh.sol\":2001:2120  function getcctIdsByAddress(address addr) public view returns (uint256[] memory) {... */\n    tag_14:\n      callvalue\n      dup1\n      iszero\n      tag_100\n      jumpi\n      0x00\n      dup1\n      revert\n    tag_100:\n      pop\n      tag_75\n      tag_102\n      calldatasize\n      0x04\n      tag_103\n      jump\t// in\n    tag_102:\n      tag_104\n      jump\t// in\n        /* \"sosh/Sosh.sol\":2998:3150  function getSellPrice(uint256 cctId, uint256 amount) public view returns (uint256) {... */\n    tag_15:\n      callvalue\n      dup1\n      iszero\n      tag_106\n      jumpi\n      0x00\n      dup1\n      revert\n    tag_106:\n      pop\n      tag_34\n      tag_108\n      calldatasize\n      0x04\n      tag_50\n      jump\t// in\n    tag_108:\n      tag_109\n      jump\t// in\n        /* \"sosh/Sosh.sol\":717:761  mapping(bytes32 => uint256) public txTocctId */\n    tag_16:\n      callvalue\n      dup1\n      iszero\n      tag_111\n      jumpi\n      0x00\n      dup1\n      revert\n    tag_111:\n      pop\n      tag_34\n      tag_113\n      calldatasize\n      0x04\n      tag_56\n      jump\t// in\n    tag_113:\n      mstore(0x20, 0x05)\n      0x00\n      swap1\n      dup2\n      mstore\n      0x40\n      swap1\n      keccak256\n      sload\n      dup2\n      jump\n        /* \"sosh/ERC1155.sol\":1706:1909  function setApprovalForAll(address operator, bool approved) public virtual {... */\n    tag_17:\n      callvalue\n      dup1\n      iszero\n      tag_117\n      jumpi\n      0x00\n      dup1\n      revert\n    tag_117:\n      pop\n      tag_66\n      tag_119\n      calldatasize\n      0x04\n      tag_120\n      jump\t// in\n    tag_119:\n      tag_121\n      jump\t// in\n        /* \"sosh/Sosh.sol\":1053:1685  function create(string calldata arTxId) public {... */\n    tag_18:\n      callvalue\n      dup1\n      iszero\n      tag_122\n      jumpi\n      0x00\n      dup1\n      revert\n    tag_122:\n      pop\n      tag_66\n      tag_124\n      calldatasize\n      0x04\n      tag_125\n      jump\t// in\n    tag_124:\n      tag_126\n      jump\t// in\n        /* \"sosh/Sosh.sol\":767:813  mapping(uint256 => uint256) public totalSupply */\n    tag_19:\n      callvalue\n      dup1\n      iszero\n      tag_127\n      jumpi\n      0x00\n      dup1\n      revert\n    tag_127:\n      pop\n      tag_34\n      tag_129\n      calldatasize\n      0x04\n      tag_56\n      jump\t// in\n    tag_129:\n      mstore(0x20, 0x06)\n      0x00\n      swap1\n      dup2\n      mstore\n      0x40\n      swap1\n      keccak256\n      sload\n      dup2\n      jump\n        /* \"sosh/Sosh.sol\":2850:2992  function getBuyPrice(uint256 cctId, uint256 amount) public view returns (uint256) {... */\n    tag_20:\n      callvalue\n      dup1\n      iszero\n      tag_132\n      jumpi\n      0x00\n      dup1\n      revert\n    tag_132:\n      pop\n      tag_34\n      tag_134\n      calldatasize\n      0x04\n      tag_50\n      jump\t// in\n    tag_134:\n      tag_135\n      jump\t// in\n        /* \"sosh/Sosh.sol\":3416:3672  function getSellPriceAfterFee(uint256 cctId, uint256 amount) public view returns (uint256) {... */\n    tag_21:\n      callvalue\n      dup1\n      iszero\n      tag_137\n      jumpi\n      0x00\n      dup1\n      revert\n    tag_137:\n      pop\n      tag_34\n      tag_139\n      calldatasize\n      0x04\n      tag_50\n      jump\t// in\n    tag_139:\n      tag_140\n      jump\t// in\n        /* \"sosh/Sosh.sol\":3678:4341  function buy(uint256 cctId, uint256 amount) public payable {... */\n    tag_22:\n      tag_66\n      tag_143\n      calldatasize\n      0x04\n      tag_50\n      jump\t// in\n    tag_143:\n      tag_144\n      jump\t// in\n        /* \"sosh/Sosh.sol\":4347:5246  function sell(uint256 cctId, uint256 amount) public {... */\n    tag_23:\n      callvalue\n      dup1\n      iszero\n      tag_145\n      jumpi\n      0x00\n      dup1\n      revert\n    tag_145:\n      pop\n      tag_66\n      tag_147\n      calldatasize\n      0x04\n      tag_50\n      jump\t// in\n    tag_147:\n      tag_148\n      jump\t// in\n        /* \"sosh/Sosh.sol\":920:976  uint256 public constant CREATOR_FEE_PERCENT = 0.04 ether */\n    tag_24:\n      callvalue\n      dup1\n      iszero\n      tag_149\n      jumpi\n      0x00\n      dup1\n      revert\n    tag_149:\n      pop\n      tag_34\n        /* \"sosh/Sosh.sol\":966:976  0.04 ether */\n      0x8e1bc9bf040000\n        /* \"sosh/Sosh.sol\":920:976  uint256 public constant CREATOR_FEE_PERCENT = 0.04 ether */\n      dup2\n      jump\n        /* \"sosh/ERC1155.sol\":1190:1258  mapping(address => mapping(address => bool)) public isApprovedForAll */\n    tag_25:\n      callvalue\n      dup1\n      iszero\n      tag_153\n      jumpi\n      0x00\n      dup1\n      revert\n    tag_153:\n      pop\n      tag_41\n      tag_155\n      calldatasize\n      0x04\n      tag_156\n      jump\t// in\n    tag_155:\n      0x01\n      0x20\n      swap1\n      dup2\n      mstore\n      0x00\n      swap3\n      dup4\n      mstore\n      0x40\n      dup1\n      dup5\n      keccak256\n      swap1\n      swap2\n      mstore\n      swap1\n      dup3\n      mstore\n      swap1\n      keccak256\n      sload\n      0xff\n      and\n      dup2\n      jump\n        /* \"sosh/ERC1155.sol\":1915:2614  function safeTransferFrom(... */\n    tag_26:\n      callvalue\n      dup1\n      iszero\n      tag_159\n      jumpi\n      0x00\n      dup1\n      revert\n    tag_159:\n      pop\n      tag_66\n      tag_161\n      calldatasize\n      0x04\n      tag_162\n      jump\t// in\n    tag_161:\n      tag_163\n      jump\t// in\n        /* \"sosh/Sosh.sol\":819:858  mapping(uint256 => uint256) public pool */\n    tag_27:\n      callvalue\n      dup1\n      iszero\n      tag_164\n      jumpi\n      0x00\n      dup1\n      revert\n    tag_164:\n      pop\n      tag_34\n      tag_166\n      calldatasize\n      0x04\n      tag_56\n      jump\t// in\n    tag_166:\n      mstore(0x20, 0x07)\n      0x00\n      swap1\n      dup2\n      mstore\n      0x40\n      swap1\n      keccak256\n      sload\n      dup2\n      jump\n        /* \"sosh/ERC1155.sol\":4606:4946  function supportsInterface(bytes4 interfaceId) public view virtual returns (bool) {... */\n    tag_44:\n        /* \"sosh/ERC1155.sol\":4682:4686  bool */\n      0x00\n      shl(0xe0, 0x01ffc9a7)\n      not(sub(shl(0xe0, 0x01), 0x01))\n        /* \"sosh/ERC1155.sol\":4717:4742  interfaceId == 0x01ffc9a7 */\n      dup4\n      and\n      eq\n      dup1\n        /* \"sosh/ERC1155.sol\":4717:4817  interfaceId == 0x01ffc9a7 || // ERC165 Interface ID for ERC165... */\n      tag_170\n      jumpi\n      pop\n      shl(0xe1, 0x6cdb3d13)\n      not(sub(shl(0xe0, 0x01), 0x01))\n        /* \"sosh/ERC1155.sol\":4792:4817  interfaceId == 0xd9b67a26 */\n      dup4\n      and\n      eq\n        /* \"sosh/ERC1155.sol\":4717:4817  interfaceId == 0x01ffc9a7 || // ERC165 Interface ID for ERC165... */\n    tag_170:\n        /* \"sosh/ERC1155.sol\":4717:4893  interfaceId == 0x01ffc9a7 || // ERC165 Interface ID for ERC165... */\n      dup1\n      tag_171\n      jumpi\n      pop\n      shl(0xe2, 0x03a24d07)\n      not(sub(shl(0xe0, 0x01), 0x01))\n        /* \"sosh/ERC1155.sol\":4868:4893  interfaceId == 0x0e89341c */\n      dup4\n      and\n      eq\n        /* \"sosh/ERC1155.sol\":4717:4893  interfaceId == 0x01ffc9a7 || // ERC165 Interface ID for ERC165... */\n    tag_171:\n        /* \"sosh/ERC1155.sol\":4698:4893  return... */\n      swap3\n        /* \"sosh/ERC1155.sol\":4606:4946  function supportsInterface(bytes4 interfaceId) public view virtual returns (bool) {... */\n      swap2\n      pop\n      pop\n      jump\t// out\n        /* \"sosh/Sosh.sol\":3156:3410  function getBuyPriceAfterFee(uint256 cctId, uint256 amount) public view returns (uint256) {... */\n    tag_51:\n        /* \"sosh/Sosh.sol\":3237:3244  uint256 */\n      0x00\n        /* \"sosh/Sosh.sol\":3256:3269  uint256 price */\n      dup1\n        /* \"sosh/Sosh.sol\":3272:3298  getBuyPrice(cctId, amount) */\n      tag_173\n        /* \"sosh/Sosh.sol\":3284:3289  cctId */\n      dup5\n        /* \"sosh/Sosh.sol\":3291:3297  amount */\n      dup5\n        /* \"sosh/Sosh.sol\":3272:3283  getBuyPrice */\n      tag_135\n        /* \"sosh/Sosh.sol\":3272:3298  getBuyPrice(cctId, amount) */\n      jump\t// in\n    tag_173:\n        /* \"sosh/Sosh.sol\":3256:3298  uint256 price = getBuyPrice(cctId, amount) */\n      swap1\n      pop\n        /* \"sosh/Sosh.sol\":3308:3326  uint256 creatorFee */\n      0x00\n        /* \"sosh/Sosh.sol\":3361:3368  1 ether */\n      0x0de0b6b3a7640000\n        /* \"sosh/Sosh.sol\":3330:3357  price * CREATOR_FEE_PERCENT */\n      tag_174\n        /* \"sosh/Sosh.sol\":966:976  0.04 ether */\n      0x8e1bc9bf040000\n        /* \"sosh/Sosh.sol\":3256:3298  uint256 price = getBuyPrice(cctId, amount) */\n      dup5\n        /* \"sosh/Sosh.sol\":3330:3357  price * CREATOR_FEE_PERCENT */\n      tag_175\n      jump\t// in\n    tag_174:\n        /* \"sosh/Sosh.sol\":3329:3368  (price * CREATOR_FEE_PERCENT) / 1 ether */\n      tag_176\n      swap2\n      swap1\n      tag_177\n      jump\t// in\n    tag_176:\n        /* \"sosh/Sosh.sol\":3308:3368  uint256 creatorFee = (price * CREATOR_FEE_PERCENT) / 1 ether */\n      swap1\n      pop\n        /* \"sosh/Sosh.sol\":3385:3403  price + creatorFee */\n      tag_178\n        /* \"sosh/Sosh.sol\":3308:3368  uint256 creatorFee = (price * CREATOR_FEE_PERCENT) / 1 ether */\n      dup2\n        /* \"sosh/Sosh.sol\":3385:3390  price */\n      dup4\n        /* \"sosh/Sosh.sol\":3385:3403  price + creatorFee */\n      tag_179\n      jump\t// in\n    tag_178:\n        /* \"sosh/Sosh.sol\":3378:3403  return price + creatorFee */\n      swap6\n        /* \"sosh/Sosh.sol\":3156:3410  function getBuyPriceAfterFee(uint256 cctId, uint256 amount) public view returns (uint256) {... */\n      swap5\n      pop\n      pop\n      pop\n      pop\n      pop\n      jump\t// out\n        /* \"sosh/Sosh.sol\":5252:5361  function uri(uint256 id) public view override returns (string memory) {... */\n    tag_57:\n        /* \"sosh/Sosh.sol\":5339:5347  ccts[id] */\n      0x00\n      dup2\n      dup2\n      mstore\n        /* \"sosh/Sosh.sol\":5339:5343  ccts */\n      0x03\n        /* \"sosh/Sosh.sol\":5339:5347  ccts[id] */\n      0x20\n      mstore\n      0x40\n      swap1\n      keccak256\n        /* \"sosh/Sosh.sol\":5339:5354  ccts[id].arTxId */\n      0x01\n      add\n        /* \"sosh/Sosh.sol\":5332:5354  return ccts[id].arTxId */\n      dup1\n      sload\n        /* \"sosh/Sosh.sol\":5307:5320  string memory */\n      0x60\n      swap2\n        /* \"sosh/Sosh.sol\":5339:5354  ccts[id].arTxId */\n      swap1\n        /* \"sosh/Sosh.sol\":5332:5354  return ccts[id].arTxId */\n      tag_181\n      swap1\n      tag_182\n      jump\t// in\n    tag_181:\n      dup1\n      0x1f\n      add\n      0x20\n      dup1\n      swap2\n      div\n      mul\n      0x20\n      add\n      mload(0x40)\n      swap1\n      dup2\n      add\n      0x40\n      mstore\n      dup1\n      swap3\n      swap2\n      swap1\n      dup2\n      dup2\n      mstore\n      0x20\n      add\n      dup3\n      dup1\n      sload\n      tag_183\n      swap1\n      tag_182\n      jump\t// in\n    tag_183:\n      dup1\n      iszero\n      tag_184\n      jumpi\n      dup1\n      0x1f\n      lt\n      tag_185\n      jumpi\n      0x0100\n      dup1\n      dup4\n      sload\n      div\n      mul\n      dup4\n      mstore\n      swap2\n      0x20\n      add\n      swap2\n      jump(tag_184)\n    tag_185:\n      dup3\n      add\n      swap2\n      swap1\n      0x00\n      mstore\n      keccak256(0x00, 0x20)\n      swap1\n    tag_186:\n      dup2\n      sload\n      dup2\n      mstore\n      swap1\n      0x01\n      add\n      swap1\n      0x20\n      add\n      dup1\n      dup4\n      gt\n      tag_186\n      jumpi\n      dup3\n      swap1\n      sub\n      0x1f\n      and\n      dup3\n      add\n      swap2\n    tag_184:\n      pop\n      pop\n      pop\n      pop\n      pop\n      swap1\n      pop\n        /* \"sosh/Sosh.sol\":5252:5361  function uri(uint256 id) public view override returns (string memory) {... */\n      swap2\n      swap1\n      pop\n      jump\t// out\n        /* \"sosh/Sosh.sol\":666:711  mapping(address => uint256[]) public userccts */\n    tag_63:\n      mstore(0x20, 0x04)\n      dup2\n      0x00\n      mstore\n      keccak256(0x00, 0x40)\n      dup2\n      dup2\n      sload\n      dup2\n      lt\n      tag_187\n      jumpi\n      0x00\n      dup1\n      revert\n    tag_187:\n      swap1\n      0x00\n      mstore\n      keccak256(0x00, 0x20)\n      add\n      0x00\n      swap2\n      pop\n      swap2\n      pop\n      pop\n      sload\n      dup2\n      jump\t// out\n        /* \"sosh/ERC1155.sol\":2620:3829  function safeBatchTransferFrom(... */\n    tag_69:\n        /* \"sosh/ERC1155.sol\":2829:2857  ids.length == amounts.length */\n      dup5\n      dup4\n      eq\n        /* \"sosh/ERC1155.sol\":2821:2877  require(ids.length == amounts.length, \"LENGTH_MISMATCH\") */\n      tag_190\n      jumpi\n      mload(0x40)\n      shl(0xe5, 0x461bcd)\n      dup2\n      mstore\n        /* \"#utility.yul\":9504:9506   */\n      0x20\n        /* \"sosh/ERC1155.sol\":2821:2877  require(ids.length == amounts.length, \"LENGTH_MISMATCH\") */\n      0x04\n      dup3\n      add\n        /* \"#utility.yul\":9486:9507   */\n      mstore\n        /* \"#utility.yul\":9543:9545   */\n      0x0f\n        /* \"#utility.yul\":9523:9541   */\n      0x24\n      dup3\n      add\n        /* \"#utility.yul\":9516:9546   */\n      mstore\n      shl(0x8b, 0x0988a9c8ea890be9a92a69a82a8869)\n        /* \"#utility.yul\":9562:9580   */\n      0x44\n      dup3\n      add\n        /* \"#utility.yul\":9555:9600   */\n      mstore\n        /* \"#utility.yul\":9617:9635   */\n      0x64\n      add\n        /* \"sosh/ERC1155.sol\":2821:2877  require(ids.length == amounts.length, \"LENGTH_MISMATCH\") */\n    tag_191:\n      mload(0x40)\n      dup1\n      swap2\n      sub\n      swap1\n      revert\n    tag_190:\n        /* \"sosh/ERC1155.sol\":2896:2906  msg.sender */\n      caller\n      sub(shl(0xa0, 0x01), 0x01)\n        /* \"sosh/ERC1155.sol\":2896:2914  msg.sender == from */\n      dup10\n      and\n      eq\n      dup1\n        /* \"sosh/ERC1155.sol\":2896:2952  msg.sender == from || isApprovedForAll[from][msg.sender] */\n      tag_193\n      jumpi\n      pop\n      sub(shl(0xa0, 0x01), 0x01)\n        /* \"sosh/ERC1155.sol\":2918:2940  isApprovedForAll[from] */\n      dup9\n      and\n      0x00\n      swap1\n      dup2\n      mstore\n        /* \"sosh/ERC1155.sol\":2918:2934  isApprovedForAll */\n      0x01\n        /* \"sosh/ERC1155.sol\":2918:2940  isApprovedForAll[from] */\n      0x20\n      swap1\n      dup2\n      mstore\n      0x40\n      dup1\n      dup4\n      keccak256\n        /* \"sosh/ERC1155.sol\":2941:2951  msg.sender */\n      caller\n        /* \"sosh/ERC1155.sol\":2918:2952  isApprovedForAll[from][msg.sender] */\n      dup5\n      mstore\n      swap1\n      swap2\n      mstore\n      swap1\n      keccak256\n      sload\n      0xff\n      and\n        /* \"sosh/ERC1155.sol\":2896:2952  msg.sender == from || isApprovedForAll[from][msg.sender] */\n    tag_193:\n        /* \"sosh/ERC1155.sol\":2888:2971  require(msg.sender == from || isApprovedForAll[from][msg.sender], \"NOT_AUTHORIZED\") */\n      tag_194\n      jumpi\n      mload(0x40)\n      shl(0xe5, 0x461bcd)\n      dup2\n      mstore\n        /* \"#utility.yul\":9848:9850   */\n      0x20\n        /* \"sosh/ERC1155.sol\":2888:2971  require(msg.sender == from || isApprovedForAll[from][msg.sender], \"NOT_AUTHORIZED\") */\n      0x04\n      dup3\n      add\n        /* \"#utility.yul\":9830:9851   */\n      mstore\n        /* \"#utility.yul\":9887:9889   */\n      0x0e\n        /* \"#utility.yul\":9867:9885   */\n      0x24\n      dup3\n      add\n        /* \"#utility.yul\":9860:9890   */\n      mstore\n      shl(0x92, 0x1393d517d055551213d492569151)\n        /* \"#utility.yul\":9906:9924   */\n      0x44\n      dup3\n      add\n        /* \"#utility.yul\":9899:9943   */\n      mstore\n        /* \"#utility.yul\":9960:9978   */\n      0x64\n      add\n        /* \"sosh/ERC1155.sol\":2888:2971  require(msg.sender == from || isApprovedForAll[from][msg.sender], \"NOT_AUTHORIZED\") */\n      tag_191\n        /* \"#utility.yul\":9646:9984   */\n      jump\n        /* \"sosh/ERC1155.sol\":2888:2971  require(msg.sender == from || isApprovedForAll[from][msg.sender], \"NOT_AUTHORIZED\") */\n    tag_194:\n        /* \"sosh/ERC1155.sol\":3053:3063  uint256 id */\n      0x00\n        /* \"sosh/ERC1155.sol\":3073:3087  uint256 amount */\n      dup1\n        /* \"sosh/ERC1155.sol\":3103:3112  uint256 i */\n      0x00\n        /* \"sosh/ERC1155.sol\":3098:3450  for (uint256 i = 0; i < ids.length; ) {... */\n    tag_197:\n        /* \"sosh/ERC1155.sol\":3118:3132  i < ids.length */\n      dup8\n      dup2\n      lt\n        /* \"sosh/ERC1155.sol\":3098:3450  for (uint256 i = 0; i < ids.length; ) {... */\n      iszero\n      tag_198\n      jumpi\n        /* \"sosh/ERC1155.sol\":3155:3158  ids */\n      dup9\n      dup9\n        /* \"sosh/ERC1155.sol\":3159:3160  i */\n      dup3\n        /* \"sosh/ERC1155.sol\":3155:3161  ids[i] */\n      dup2\n      dup2\n      lt\n      tag_201\n      jumpi\n      tag_201\n      tag_202\n      jump\t// in\n    tag_201:\n      swap1\n      pop\n      0x20\n      mul\n      add\n      calldataload\n        /* \"sosh/ERC1155.sol\":3150:3161  id = ids[i] */\n      swap3\n      pop\n        /* \"sosh/ERC1155.sol\":3184:3191  amounts */\n      dup7\n      dup7\n        /* \"sosh/ERC1155.sol\":3192:3193  i */\n      dup3\n        /* \"sosh/ERC1155.sol\":3184:3194  amounts[i] */\n      dup2\n      dup2\n      lt\n      tag_204\n      jumpi\n      tag_204\n      tag_202\n      jump\t// in\n    tag_204:\n      sub(shl(0xa0, 0x01), 0x01)\n        /* \"sosh/ERC1155.sol\":3209:3224  balanceOf[from] */\n      dup15\n      and\n        /* \"sosh/ERC1155.sol\":3209:3218  balanceOf */\n      0x00\n        /* \"sosh/ERC1155.sol\":3209:3224  balanceOf[from] */\n      swap1\n      dup2\n      mstore\n        /* \"sosh/ERC1155.sol\":3184:3194  amounts[i] */\n      0x20\n        /* \"sosh/ERC1155.sol\":3209:3224  balanceOf[from] */\n      dup2\n      dup2\n      mstore\n      0x40\n      dup1\n      dup4\n      keccak256\n        /* \"sosh/ERC1155.sol\":3209:3228  balanceOf[from][id] */\n      dup10\n      dup5\n      mstore\n      dup3\n      mstore\n      dup3\n      keccak256\n        /* \"sosh/ERC1155.sol\":3209:3238  balanceOf[from][id] -= amount */\n      dup1\n      sload\n        /* \"sosh/ERC1155.sol\":3184:3194  amounts[i] */\n      swap4\n      swap1\n      swap2\n      mul\n      swap5\n      swap1\n      swap5\n      add\n      calldataload\n      swap6\n      pop\n      dup6\n      swap4\n        /* \"sosh/ERC1155.sol\":3209:3228  balanceOf[from][id] */\n      swap3\n      pop\n        /* \"sosh/ERC1155.sol\":3209:3218  balanceOf */\n      swap1\n        /* \"sosh/ERC1155.sol\":3209:3238  balanceOf[from][id] -= amount */\n      tag_205\n      swap1\n        /* \"sosh/ERC1155.sol\":3184:3194  amounts[i] */\n      dup5\n      swap1\n        /* \"sosh/ERC1155.sol\":3209:3238  balanceOf[from][id] -= amount */\n      tag_206\n      jump\t// in\n    tag_205:\n      swap1\n      swap2\n      sstore\n      pop\n      pop\n      sub(shl(0xa0, 0x01), 0x01)\n        /* \"sosh/ERC1155.sol\":3252:3265  balanceOf[to] */\n      dup11\n      and\n        /* \"sosh/ERC1155.sol\":3252:3261  balanceOf */\n      0x00\n        /* \"sosh/ERC1155.sol\":3252:3265  balanceOf[to] */\n      swap1\n      dup2\n      mstore\n      0x20\n      dup2\n      dup2\n      mstore\n      0x40\n      dup1\n      dup4\n      keccak256\n        /* \"sosh/ERC1155.sol\":3252:3269  balanceOf[to][id] */\n      dup7\n      dup5\n      mstore\n      swap1\n      swap2\n      mstore\n      dup2\n      keccak256\n        /* \"sosh/ERC1155.sol\":3252:3279  balanceOf[to][id] += amount */\n      dup1\n      sload\n        /* \"sosh/ERC1155.sol\":3273:3279  amount */\n      dup5\n      swap3\n        /* \"sosh/ERC1155.sol\":3252:3261  balanceOf */\n      swap1\n        /* \"sosh/ERC1155.sol\":3252:3279  balanceOf[to][id] += amount */\n      tag_207\n      swap1\n        /* \"sosh/ERC1155.sol\":3273:3279  amount */\n      dup5\n      swap1\n        /* \"sosh/ERC1155.sol\":3252:3279  balanceOf[to][id] += amount */\n      tag_179\n      jump\t// in\n    tag_207:\n      swap1\n      swap2\n      sstore\n      pop\n      pop\n        /* \"sosh/ERC1155.sol\":3422:3425  ++i */\n      0x01\n      add\n        /* \"sosh/ERC1155.sol\":3098:3450  for (uint256 i = 0; i < ids.length; ) {... */\n      jump(tag_197)\n    tag_198:\n      pop\n        /* \"sosh/ERC1155.sol\":3497:3499  to */\n      dup9\n      sub(shl(0xa0, 0x01), 0x01)\n        /* \"sosh/ERC1155.sol\":3465:3514  TransferBatch(msg.sender, from, to, ids, amounts) */\n      and\n        /* \"sosh/ERC1155.sol\":3491:3495  from */\n      dup11\n      sub(shl(0xa0, 0x01), 0x01)\n        /* \"sosh/ERC1155.sol\":3465:3514  TransferBatch(msg.sender, from, to, ids, amounts) */\n      and\n        /* \"sosh/ERC1155.sol\":3479:3489  msg.sender */\n      caller\n      sub(shl(0xa0, 0x01), 0x01)\n        /* \"sosh/ERC1155.sol\":3465:3514  TransferBatch(msg.sender, from, to, ids, amounts) */\n      and\n      0x4a39dc06d4c0dbc64b70af90fd698a233a518aa5d07e595d983b8c0526c8f7fb\n        /* \"sosh/ERC1155.sol\":3501:3504  ids */\n      dup12\n      dup12\n        /* \"sosh/ERC1155.sol\":3506:3513  amounts */\n      dup12\n      dup12\n        /* \"sosh/ERC1155.sol\":3465:3514  TransferBatch(msg.sender, from, to, ids, amounts) */\n      mload(0x40)\n      tag_208\n      swap5\n      swap4\n      swap3\n      swap2\n      swap1\n      tag_209\n      jump\t// in\n    tag_208:\n      mload(0x40)\n      dup1\n      swap2\n      sub\n      swap1\n      log4\n      sub(shl(0xa0, 0x01), 0x01)\n        /* \"sosh/ERC1155.sol\":3546:3560  to.code.length */\n      dup10\n      and\n      extcodesize\n        /* \"sosh/ERC1155.sol\":3546:3565  to.code.length == 0 */\n      iszero\n        /* \"sosh/ERC1155.sol\":3546:3780  to.code.length == 0... */\n      tag_210\n      jumpi\n        /* \"sosh/ERC1155.sol\":3619:3704  ERC1155TokenReceiver(to).onERC1155BatchReceived(msg.sender, from, ids, amounts, data) */\n      mload(0x40)\n      shl(0xe0, 0xbc197c81)\n      dup1\n      dup3\n      mstore\n        /* \"sosh/ERC1155.sol\":3728:3780  ERC1155TokenReceiver.onERC1155BatchReceived.selector */\n      swap1\n      sub(shl(0xa0, 0x01), 0x01)\n        /* \"sosh/ERC1155.sol\":3619:3666  ERC1155TokenReceiver(to).onERC1155BatchReceived */\n      dup12\n      and\n      swap1\n        /* \"sosh/ERC1155.sol\":3728:3780  ERC1155TokenReceiver.onERC1155BatchReceived.selector */\n      0xbc197c81\n      swap1\n        /* \"sosh/ERC1155.sol\":3619:3704  ERC1155TokenReceiver(to).onERC1155BatchReceived(msg.sender, from, ids, amounts, data) */\n      tag_211\n      swap1\n        /* \"sosh/ERC1155.sol\":3667:3677  msg.sender */\n      caller\n      swap1\n        /* \"sosh/ERC1155.sol\":3679:3683  from */\n      dup16\n      swap1\n        /* \"sosh/ERC1155.sol\":3685:3688  ids */\n      dup15\n      swap1\n      dup15\n      swap1\n        /* \"sosh/ERC1155.sol\":3690:3697  amounts */\n      dup15\n      swap1\n      dup15\n      swap1\n        /* \"sosh/ERC1155.sol\":3699:3703  data */\n      dup15\n      swap1\n      dup15\n      swap1\n        /* \"sosh/ERC1155.sol\":3619:3704  ERC1155TokenReceiver(to).onERC1155BatchReceived(msg.sender, from, ids, amounts, data) */\n      0x04\n      add\n      tag_212\n      jump\t// in\n    tag_211:\n      0x20\n      mload(0x40)\n      dup1\n      dup4\n      sub\n      dup2\n      0x00\n      dup8\n      gas\n      call\n      iszero\n      dup1\n      iszero\n      tag_214\n      jumpi\n      returndatasize\n      0x00\n      dup1\n      returndatacopy\n      revert(0x00, returndatasize)\n    tag_214:\n      pop\n      pop\n      pop\n      pop\n      mload(0x40)\n      returndatasize\n      not(0x1f)\n      0x1f\n      dup3\n      add\n      and\n      dup3\n      add\n      dup1\n      0x40\n      mstore\n      pop\n      dup2\n      add\n      swap1\n      tag_215\n      swap2\n      swap1\n      tag_216\n      jump\t// in\n    tag_215:\n      not(sub(shl(0xe0, 0x01), 0x01))\n        /* \"sosh/ERC1155.sol\":3619:3780  ERC1155TokenReceiver(to).onERC1155BatchReceived(msg.sender, from, ids, amounts, data) ==... */\n      and\n      eq\n        /* \"sosh/ERC1155.sol\":3546:3780  to.code.length == 0... */\n      jump(tag_217)\n    tag_210:\n      sub(shl(0xa0, 0x01), 0x01)\n        /* \"sosh/ERC1155.sol\":3584:3600  to != address(0) */\n      dup10\n      and\n      iszero\n      iszero\n        /* \"sosh/ERC1155.sol\":3546:3780  to.code.length == 0... */\n    tag_217:\n        /* \"sosh/ERC1155.sol\":3525:3822  require(... */\n      tag_218\n      jumpi\n      mload(0x40)\n      shl(0xe5, 0x461bcd)\n      dup2\n      mstore\n      0x04\n      add\n      tag_191\n      swap1\n      tag_220\n      jump\t// in\n    tag_218:\n        /* \"sosh/ERC1155.sol\":2811:3829  {... */\n      pop\n      pop\n        /* \"sosh/ERC1155.sol\":2620:3829  function safeBatchTransferFrom(... */\n      pop\n      pop\n      pop\n      pop\n      pop\n      pop\n      pop\n      pop\n      jump\t// out\n        /* \"sosh/Sosh.sol\":1691:1995  function remove(uint256 cctId) public {... */\n    tag_73:\n        /* \"sosh/Sosh.sol\":1739:1753  Cct memory cct */\n      0x00\n        /* \"sosh/Sosh.sol\":1756:1760  ccts */\n      0x03\n        /* \"sosh/Sosh.sol\":1756:1767  ccts[cctId] */\n      0x00\n        /* \"sosh/Sosh.sol\":1761:1766  cctId */\n      dup4\n        /* \"sosh/Sosh.sol\":1756:1767  ccts[cctId] */\n      dup2\n      mstore\n      0x20\n      add\n      swap1\n      dup2\n      mstore\n      0x20\n      add\n      0x00\n      keccak256\n        /* \"sosh/Sosh.sol\":1739:1767  Cct memory cct = ccts[cctId] */\n      mload(0x40)\n      dup1\n      0x60\n      add\n      0x40\n      mstore\n      swap1\n      dup2\n      0x00\n      dup3\n      add\n      sload\n      dup2\n      mstore\n      0x20\n      add\n      0x01\n      dup3\n      add\n      dup1\n      sload\n      tag_222\n      swap1\n      tag_182\n      jump\t// in\n    tag_222:\n      dup1\n      0x1f\n      add\n      0x20\n      dup1\n      swap2\n      div\n      mul\n      0x20\n      add\n      mload(0x40)\n      swap1\n      dup2\n      add\n      0x40\n      mstore\n      dup1\n      swap3\n      swap2\n      swap1\n      dup2\n      dup2\n      mstore\n      0x20\n      add\n      dup3\n      dup1\n      sload\n      tag_223\n      swap1\n      tag_182\n      jump\t// in\n    tag_223:\n      dup1\n      iszero\n      tag_224\n      jumpi\n      dup1\n      0x1f\n      lt\n      tag_225\n      jumpi\n      0x0100\n      dup1\n      dup4\n      sload\n      div\n      mul\n      dup4\n      mstore\n      swap2\n      0x20\n      add\n      swap2\n      jump(tag_224)\n    tag_225:\n      dup3\n      add\n      swap2\n      swap1\n      0x00\n      mstore\n      keccak256(0x00, 0x20)\n      swap1\n    tag_226:\n      dup2\n      sload\n      dup2\n      mstore\n      swap1\n      0x01\n      add\n      swap1\n      0x20\n      add\n      dup1\n      dup4\n      gt\n      tag_226\n      jumpi\n      dup3\n      swap1\n      sub\n      0x1f\n      and\n      dup3\n      add\n      swap2\n    tag_224:\n      pop\n      pop\n      pop\n      swap2\n      dup4\n      mstore\n      pop\n      pop\n      0x02\n      swap2\n      swap1\n      swap2\n      add\n      sload\n      sub(shl(0xa0, 0x01), 0x01)\n      swap1\n      dup2\n      and\n      0x20\n      swap1\n      swap3\n      add\n      swap2\n      swap1\n      swap2\n      mstore\n        /* \"sosh/Sosh.sol\":1781:1792  cct.creator */\n      0x40\n      dup3\n      add\n      mload\n        /* \"sosh/Sosh.sol\":1739:1767  Cct memory cct = ccts[cctId] */\n      swap2\n      swap3\n      pop\n        /* \"sosh/Sosh.sol\":1781:1806  cct.creator != msg.sender */\n      and\n        /* \"sosh/Sosh.sol\":1796:1806  msg.sender */\n      caller\n        /* \"sosh/Sosh.sol\":1781:1806  cct.creator != msg.sender */\n      eq\n        /* \"sosh/Sosh.sol\":1777:1854  if (cct.creator != msg.sender) {... */\n      tag_227\n      jumpi\n        /* \"sosh/Sosh.sol\":1829:1843  Unauthorized() */\n      mload(0x40)\n      shl(0xe8, 0x82b429)\n      dup2\n      mstore\n      0x04\n      add\n      mload(0x40)\n      dup1\n      swap2\n      sub\n      swap1\n      revert\n        /* \"sosh/Sosh.sol\":1777:1854  if (cct.creator != msg.sender) {... */\n    tag_227:\n        /* \"sosh/Sosh.sol\":1870:1879  txTocctId */\n      0x05\n        /* \"sosh/Sosh.sol\":1870:1920  txTocctId[keccak256(abi.encodePacked(cct.arTxId))] */\n      0x00\n        /* \"sosh/Sosh.sol\":1907:1910  cct */\n      dup3\n        /* \"sosh/Sosh.sol\":1907:1917  cct.arTxId */\n      0x20\n      add\n      mload\n        /* \"sosh/Sosh.sol\":1890:1918  abi.encodePacked(cct.arTxId) */\n      add(0x20, mload(0x40))\n      tag_228\n      swap2\n      swap1\n      tag_229\n      jump\t// in\n    tag_228:\n      0x40\n      dup1\n      mload\n      not(0x1f)\n      dup2\n      dup5\n      sub\n      add\n      dup2\n      mstore\n      swap2\n      dup2\n      mstore\n        /* \"sosh/Sosh.sol\":1880:1919  keccak256(abi.encodePacked(cct.arTxId)) */\n      dup2\n      mload\n        /* \"sosh/Sosh.sol\":1890:1918  abi.encodePacked(cct.arTxId) */\n      0x20\n        /* \"sosh/Sosh.sol\":1880:1919  keccak256(abi.encodePacked(cct.arTxId)) */\n      swap3\n      dup4\n      add\n      keccak256\n        /* \"sosh/Sosh.sol\":1870:1920  txTocctId[keccak256(abi.encodePacked(cct.arTxId))] */\n      dup4\n      mstore\n      dup3\n      dup3\n      add\n      swap4\n      swap1\n      swap4\n      mstore\n      swap1\n      dup3\n      add\n      0x00\n      swap1\n      dup2\n      keccak256\n        /* \"sosh/Sosh.sol\":1863:1920  delete txTocctId[keccak256(abi.encodePacked(cct.arTxId))] */\n      dup2\n      swap1\n      sstore\n        /* \"sosh/Sosh.sol\":1937:1948  ccts[cctId] */\n      dup5\n      dup2\n      mstore\n        /* \"sosh/Sosh.sol\":1937:1941  ccts */\n      0x03\n        /* \"sosh/Sosh.sol\":1937:1948  ccts[cctId] */\n      swap1\n      swap2\n      mstore\n      swap1\n      dup2\n      keccak256\n        /* \"sosh/Sosh.sol\":1930:1948  delete ccts[cctId] */\n      dup2\n      dup2\n      sstore\n        /* \"sosh/Sosh.sol\":1937:1948  ccts[cctId] */\n      swap1\n        /* \"sosh/Sosh.sol\":1930:1948  delete ccts[cctId] */\n      tag_230\n      0x01\n      dup4\n      add\n      dup3\n      tag_231\n      jump\t// in\n    tag_230:\n      pop\n      0x02\n      add\n      dup1\n      sload\n      not(sub(shl(0xa0, 0x01), 0x01))\n      and\n      swap1\n      sstore\n        /* \"sosh/Sosh.sol\":1963:1988  Remove(cctId, msg.sender) */\n      mload(0x40)\n        /* \"sosh/Sosh.sol\":1977:1987  msg.sender */\n      caller\n      swap1\n        /* \"sosh/Sosh.sol\":1970:1975  cctId */\n      dup4\n      swap1\n        /* \"sosh/Sosh.sol\":1963:1988  Remove(cctId, msg.sender) */\n      0xe52b7042a48e37bfb277e8a210794950be40bfaedea374e2dfbe0c6edff8791d\n      swap1\n        /* \"sosh/Sosh.sol\":1930:1948  delete ccts[cctId] */\n      0x00\n      swap1\n        /* \"sosh/Sosh.sol\":1963:1988  Remove(cctId, msg.sender) */\n      log3\n        /* \"sosh/Sosh.sol\":1729:1995  {... */\n      pop\n        /* \"sosh/Sosh.sol\":1691:1995  function remove(uint256 cctId) public {... */\n      pop\n      jump\t// out\n        /* \"sosh/ERC1155.sol\":3835:4418  function balanceOfBatch(address[] calldata owners, uint256[] calldata ids)... */\n    tag_78:\n        /* \"sosh/ERC1155.sol\":3971:3996  uint256[] memory balances */\n      0x60\n        /* \"sosh/ERC1155.sol\":4020:4047  owners.length == ids.length */\n      dup4\n      dup3\n      eq\n        /* \"sosh/ERC1155.sol\":4012:4067  require(owners.length == ids.length, \"LENGTH_MISMATCH\") */\n      tag_233\n      jumpi\n      mload(0x40)\n      shl(0xe5, 0x461bcd)\n      dup2\n      mstore\n        /* \"#utility.yul\":9504:9506   */\n      0x20\n        /* \"sosh/ERC1155.sol\":4012:4067  require(owners.length == ids.length, \"LENGTH_MISMATCH\") */\n      0x04\n      dup3\n      add\n        /* \"#utility.yul\":9486:9507   */\n      mstore\n        /* \"#utility.yul\":9543:9545   */\n      0x0f\n        /* \"#utility.yul\":9523:9541   */\n      0x24\n      dup3\n      add\n        /* \"#utility.yul\":9516:9546   */\n      mstore\n      shl(0x8b, 0x0988a9c8ea890be9a92a69a82a8869)\n        /* \"#utility.yul\":9562:9580   */\n      0x44\n      dup3\n      add\n        /* \"#utility.yul\":9555:9600   */\n      mstore\n        /* \"#utility.yul\":9617:9635   */\n      0x64\n      add\n        /* \"sosh/ERC1155.sol\":4012:4067  require(owners.length == ids.length, \"LENGTH_MISMATCH\") */\n      tag_191\n        /* \"#utility.yul\":9302:9641   */\n      jump\n        /* \"sosh/ERC1155.sol\":4012:4067  require(owners.length == ids.length, \"LENGTH_MISMATCH\") */\n    tag_233:\n        /* \"sosh/ERC1155.sol\":4103:4109  owners */\n      dup4\n        /* \"sosh/ERC1155.sol\":4089:4117  new uint256[](owners.length) */\n      0xffffffffffffffff\n      dup2\n      gt\n      iszero\n      tag_236\n      jumpi\n      tag_236\n      tag_237\n      jump\t// in\n    tag_236:\n      mload(0x40)\n      swap1\n      dup1\n      dup3\n      mstore\n      dup1\n      0x20\n      mul\n      0x20\n      add\n      dup3\n      add\n      0x40\n      mstore\n      dup1\n      iszero\n      tag_238\n      jumpi\n      dup2\n      0x20\n      add\n      0x20\n      dup3\n      mul\n      dup1\n      calldatasize\n      dup4\n      calldatacopy\n      add\n      swap1\n      pop\n    tag_238:\n      pop\n        /* \"sosh/ERC1155.sol\":4078:4117  balances = new uint256[](owners.length) */\n      swap1\n      pop\n        /* \"sosh/ERC1155.sol\":4288:4297  uint256 i */\n      0x00\n        /* \"sosh/ERC1155.sol\":4283:4402  for (uint256 i = 0; i < owners.length; ++i) {... */\n    tag_239:\n        /* \"sosh/ERC1155.sol\":4303:4320  i < owners.length */\n      dup5\n      dup2\n      lt\n        /* \"sosh/ERC1155.sol\":4283:4402  for (uint256 i = 0; i < owners.length; ++i) {... */\n      iszero\n      tag_240\n      jumpi\n        /* \"sosh/ERC1155.sol\":4359:4368  balanceOf */\n      0x00\n        /* \"sosh/ERC1155.sol\":4359:4379  balanceOf[owners[i]] */\n      dup1\n        /* \"sosh/ERC1155.sol\":4369:4375  owners */\n      dup8\n      dup8\n        /* \"sosh/ERC1155.sol\":4376:4377  i */\n      dup5\n        /* \"sosh/ERC1155.sol\":4369:4378  owners[i] */\n      dup2\n      dup2\n      lt\n      tag_243\n      jumpi\n      tag_243\n      tag_202\n      jump\t// in\n    tag_243:\n      swap1\n      pop\n      0x20\n      mul\n      add\n      0x20\n      dup2\n      add\n      swap1\n      tag_244\n      swap2\n      swap1\n      tag_103\n      jump\t// in\n    tag_244:\n      sub(shl(0xa0, 0x01), 0x01)\n        /* \"sosh/ERC1155.sol\":4359:4379  balanceOf[owners[i]] */\n      and\n      sub(shl(0xa0, 0x01), 0x01)\n      and\n      dup2\n      mstore\n      0x20\n      add\n      swap1\n      dup2\n      mstore\n      0x20\n      add\n      0x00\n      keccak256\n        /* \"sosh/ERC1155.sol\":4359:4387  balanceOf[owners[i]][ids[i]] */\n      0x00\n        /* \"sosh/ERC1155.sol\":4380:4383  ids */\n      dup6\n      dup6\n        /* \"sosh/ERC1155.sol\":4384:4385  i */\n      dup5\n        /* \"sosh/ERC1155.sol\":4380:4386  ids[i] */\n      dup2\n      dup2\n      lt\n      tag_246\n      jumpi\n      tag_246\n      tag_202\n      jump\t// in\n    tag_246:\n      swap1\n      pop\n      0x20\n      mul\n      add\n      calldataload\n        /* \"sosh/ERC1155.sol\":4359:4387  balanceOf[owners[i]][ids[i]] */\n      dup2\n      mstore\n      0x20\n      add\n      swap1\n      dup2\n      mstore\n      0x20\n      add\n      0x00\n      keccak256\n      sload\n        /* \"sosh/ERC1155.sol\":4345:4353  balances */\n      dup3\n        /* \"sosh/ERC1155.sol\":4354:4355  i */\n      dup3\n        /* \"sosh/ERC1155.sol\":4345:4356  balances[i] */\n      dup2\n      mload\n      dup2\n      lt\n      tag_248\n      jumpi\n      tag_248\n      tag_202\n      jump\t// in\n    tag_248:\n      0x20\n      swap1\n      dup2\n      mul\n      swap2\n      swap1\n      swap2\n      add\n      add\n        /* \"sosh/ERC1155.sol\":4345:4387  balances[i] = balanceOf[owners[i]][ids[i]] */\n      mstore\n        /* \"sosh/ERC1155.sol\":4322:4325  ++i */\n      0x01\n      add\n        /* \"sosh/ERC1155.sol\":4283:4402  for (uint256 i = 0; i < owners.length; ++i) {... */\n      jump(tag_239)\n    tag_240:\n      pop\n        /* \"sosh/ERC1155.sol\":3835:4418  function balanceOfBatch(address[] calldata owners, uint256[] calldata ids)... */\n      swap5\n      swap4\n      pop\n      pop\n      pop\n      pop\n      jump\t// out\n        /* \"sosh/Sosh.sol\":2669:2844  function getPrice(uint256 supply, uint256 amount) public pure returns (uint256) {... */\n    tag_84:\n        /* \"sosh/Sosh.sol\":2740:2747  uint256 */\n      0x00\n        /* \"sosh/Sosh.sol\":2831:2837  50_000 */\n      0xc350\n        /* \"sosh/Sosh.sol\":2821:2828  1 ether */\n      0x0de0b6b3a7640000\n        /* \"sosh/Sosh.sol\":2811:2818  1 ether */\n      dup1\n        /* \"sosh/Sosh.sol\":2793:2807  _curve(supply) */\n      tag_250\n        /* \"sosh/Sosh.sol\":2800:2806  supply */\n      dup7\n        /* \"sosh/Sosh.sol\":2793:2799  _curve */\n      tag_251\n        /* \"sosh/Sosh.sol\":2793:2807  _curve(supply) */\n      jump\t// in\n    tag_250:\n        /* \"sosh/Sosh.sol\":2767:2790  _curve(supply + amount) */\n      tag_252\n        /* \"sosh/Sosh.sol\":2774:2789  supply + amount */\n      tag_253\n        /* \"sosh/Sosh.sol\":2783:2789  amount */\n      dup8\n        /* \"sosh/Sosh.sol\":2774:2780  supply */\n      dup10\n        /* \"sosh/Sosh.sol\":2774:2789  supply + amount */\n      tag_179\n      jump\t// in\n    tag_253:\n        /* \"sosh/Sosh.sol\":2767:2773  _curve */\n      tag_251\n        /* \"sosh/Sosh.sol\":2767:2790  _curve(supply + amount) */\n      jump\t// in\n    tag_252:\n        /* \"sosh/Sosh.sol\":2767:2807  _curve(supply + amount) - _curve(supply) */\n      tag_254\n      swap2\n      swap1\n      tag_206\n      jump\t// in\n    tag_254:\n        /* \"sosh/Sosh.sol\":2766:2818  (_curve(supply + amount) - _curve(supply)) / 1 ether */\n      tag_255\n      swap2\n      swap1\n      tag_177\n      jump\t// in\n    tag_255:\n        /* \"sosh/Sosh.sol\":2766:2828  (_curve(supply + amount) - _curve(supply)) / 1 ether / 1 ether */\n      tag_256\n      swap2\n      swap1\n      tag_177\n      jump\t// in\n    tag_256:\n        /* \"sosh/Sosh.sol\":2766:2837  (_curve(supply + amount) - _curve(supply)) / 1 ether / 1 ether / 50_000 */\n      tag_257\n      swap2\n      swap1\n      tag_177\n      jump\t// in\n    tag_257:\n        /* \"sosh/Sosh.sol\":2759:2837  return (_curve(supply + amount) - _curve(supply)) / 1 ether / 1 ether / 50_000 */\n      swap4\n        /* \"sosh/Sosh.sol\":2669:2844  function getPrice(uint256 supply, uint256 amount) public pure returns (uint256) {... */\n      swap3\n      pop\n      pop\n      pop\n      jump\t// out\n        /* \"sosh/Sosh.sol\":625:660  mapping(uint256 => Cct) public ccts */\n    tag_93:\n      mstore(0x20, 0x03)\n      0x00\n      swap1\n      dup2\n      mstore\n      0x40\n      swap1\n      keccak256\n      dup1\n      sload\n      0x01\n      dup3\n      add\n      dup1\n      sload\n      swap2\n      swap3\n      swap2\n      tag_258\n      swap1\n      tag_182\n      jump\t// in\n    tag_258:\n      dup1\n      0x1f\n      add\n      0x20\n      dup1\n      swap2\n      div\n      mul\n      0x20\n      add\n      mload(0x40)\n      swap1\n      dup2\n      add\n      0x40\n      mstore\n      dup1\n      swap3\n      swap2\n      swap1\n      dup2\n      dup2\n      mstore\n      0x20\n      add\n      dup3\n      dup1\n      sload\n      tag_259\n      swap1\n      tag_182\n      jump\t// in\n    tag_259:\n      dup1\n      iszero\n      tag_260\n      jumpi\n      dup1\n      0x1f\n      lt\n      tag_261\n      jumpi\n      0x0100\n      dup1\n      dup4\n      sload\n      div\n      mul\n      dup4\n      mstore\n      swap2\n      0x20\n      add\n      swap2\n      jump(tag_260)\n    tag_261:\n      dup3\n      add\n      swap2\n      swap1\n      0x00\n      mstore\n      keccak256(0x00, 0x20)\n      swap1\n    tag_262:\n      dup2\n      sload\n      dup2\n      mstore\n      swap1\n      0x01\n      add\n      swap1\n      0x20\n      add\n      dup1\n      dup4\n      gt\n      tag_262\n      jumpi\n      dup3\n      swap1\n      sub\n      0x1f\n      and\n      dup3\n      add\n      swap2\n    tag_260:\n      pop\n      pop\n      pop\n      0x02\n      swap1\n      swap4\n      add\n      sload\n      swap2\n      swap3\n      pop\n      pop\n      sub(shl(0xa0, 0x01), 0x01)\n      and\n      dup4\n      jump\t// out\n        /* \"sosh/Sosh.sol\":2001:2120  function getcctIdsByAddress(address addr) public view returns (uint256[] memory) {... */\n    tag_104:\n      sub(shl(0xa0, 0x01), 0x01)\n        /* \"sosh/Sosh.sol\":2099:2113  userccts[addr] */\n      dup2\n      and\n      0x00\n      swap1\n      dup2\n      mstore\n        /* \"sosh/Sosh.sol\":2099:2107  userccts */\n      0x04\n        /* \"sosh/Sosh.sol\":2099:2113  userccts[addr] */\n      0x20\n      swap1\n      dup2\n      mstore\n      0x40\n      swap2\n      dup3\n      swap1\n      keccak256\n        /* \"sosh/Sosh.sol\":2092:2113  return userccts[addr] */\n      dup1\n      sload\n      dup4\n      mload\n      dup2\n      dup5\n      mul\n      dup2\n      add\n      dup5\n      add\n      swap1\n      swap5\n      mstore\n      dup1\n      dup5\n      mstore\n        /* \"sosh/Sosh.sol\":2064:2080  uint256[] memory */\n      0x60\n      swap4\n        /* \"sosh/Sosh.sol\":2092:2113  return userccts[addr] */\n      swap3\n      dup4\n      add\n        /* \"sosh/Sosh.sol\":2099:2113  userccts[addr] */\n      dup3\n        /* \"sosh/Sosh.sol\":2092:2113  return userccts[addr] */\n      dup3\n      dup1\n      iszero\n      tag_184\n      jumpi\n      0x20\n      mul\n      dup3\n      add\n      swap2\n      swap1\n      0x00\n      mstore\n      keccak256(0x00, 0x20)\n      swap1\n    tag_265:\n      dup2\n      sload\n      dup2\n      mstore\n      0x20\n      add\n      swap1\n      0x01\n      add\n      swap1\n      dup1\n      dup4\n      gt\n      tag_265\n      jumpi\n      pop\n      pop\n      pop\n      pop\n      pop\n      swap1\n      pop\n        /* \"sosh/Sosh.sol\":2001:2120  function getcctIdsByAddress(address addr) public view returns (uint256[] memory) {... */\n      swap2\n      swap1\n      pop\n      jump\t// out\n        /* \"sosh/Sosh.sol\":2998:3150  function getSellPrice(uint256 cctId, uint256 amount) public view returns (uint256) {... */\n    tag_109:\n        /* \"sosh/Sosh.sol\":3072:3079  uint256 */\n      0x00\n        /* \"sosh/Sosh.sol\":3107:3125  totalSupply[cctId] */\n      dup3\n      dup2\n      mstore\n        /* \"sosh/Sosh.sol\":3107:3118  totalSupply */\n      0x06\n        /* \"sosh/Sosh.sol\":3107:3125  totalSupply[cctId] */\n      0x20\n      mstore\n      0x40\n      dup2\n      keccak256\n      sload\n        /* \"sosh/Sosh.sol\":3098:3143  getPrice(totalSupply[cctId] - amount, amount) */\n      tag_257\n      swap1\n        /* \"sosh/Sosh.sol\":3107:3134  totalSupply[cctId] - amount */\n      tag_268\n      swap1\n        /* \"sosh/Sosh.sol\":3128:3134  amount */\n      dup5\n      swap1\n        /* \"sosh/Sosh.sol\":3107:3134  totalSupply[cctId] - amount */\n      tag_206\n      jump\t// in\n    tag_268:\n        /* \"sosh/Sosh.sol\":3136:3142  amount */\n      dup4\n        /* \"sosh/Sosh.sol\":3098:3106  getPrice */\n      tag_84\n        /* \"sosh/Sosh.sol\":3098:3143  getPrice(totalSupply[cctId] - amount, amount) */\n      jump\t// in\n        /* \"sosh/ERC1155.sol\":1706:1909  function setApprovalForAll(address operator, bool approved) public virtual {... */\n    tag_121:\n        /* \"sosh/ERC1155.sol\":1808:1818  msg.sender */\n      caller\n        /* \"sosh/ERC1155.sol\":1791:1819  isApprovedForAll[msg.sender] */\n      0x00\n      dup2\n      dup2\n      mstore\n        /* \"sosh/ERC1155.sol\":1791:1807  isApprovedForAll */\n      0x01\n        /* \"sosh/ERC1155.sol\":1791:1819  isApprovedForAll[msg.sender] */\n      0x20\n      swap1\n      dup2\n      mstore\n      0x40\n      dup1\n      dup4\n      keccak256\n      sub(shl(0xa0, 0x01), 0x01)\n        /* \"sosh/ERC1155.sol\":1791:1829  isApprovedForAll[msg.sender][operator] */\n      dup8\n      and\n      dup1\n      dup6\n      mstore\n      swap1\n      dup4\n      mstore\n      swap3\n      dup2\n      swap1\n      keccak256\n        /* \"sosh/ERC1155.sol\":1791:1840  isApprovedForAll[msg.sender][operator] = approved */\n      dup1\n      sload\n      not(0xff)\n      and\n      dup7\n      iszero\n      iszero\n      swap1\n      dup2\n      or\n      swap1\n      swap2\n      sstore\n        /* \"sosh/ERC1155.sol\":1856:1902  ApprovalForAll(msg.sender, operator, approved) */\n      swap1\n      mload\n        /* \"#utility.yul\":1159:1200   */\n      swap1\n      dup2\n      mstore\n        /* \"sosh/ERC1155.sol\":1791:1829  isApprovedForAll[msg.sender][operator] */\n      swap2\n      swap3\n        /* \"sosh/ERC1155.sol\":1808:1818  msg.sender */\n      swap2\n        /* \"sosh/ERC1155.sol\":1856:1902  ApprovalForAll(msg.sender, operator, approved) */\n      0x17307eab39ab6107e8899845ad3d59bd9653f200f220920489ca2b5937696c31\n      swap2\n        /* \"#utility.yul\":1132:1150   */\n      add\n        /* \"sosh/ERC1155.sol\":1856:1902  ApprovalForAll(msg.sender, operator, approved) */\n      mload(0x40)\n      dup1\n      swap2\n      sub\n      swap1\n      log3\n        /* \"sosh/ERC1155.sol\":1706:1909  function setApprovalForAll(address operator, bool approved) public virtual {... */\n      pop\n      pop\n      jump\t// out\n        /* \"sosh/Sosh.sol\":1053:1685  function create(string calldata arTxId) public {... */\n    tag_126:\n        /* \"sosh/Sosh.sol\":1110:1124  bytes32 txHash */\n      0x00\n        /* \"sosh/Sosh.sol\":1154:1160  arTxId */\n      dup3\n      dup3\n        /* \"sosh/Sosh.sol\":1137:1161  abi.encodePacked(arTxId) */\n      add(0x20, mload(0x40))\n      tag_272\n      swap3\n      swap2\n      swap1\n      tag_273\n      jump\t// in\n    tag_272:\n      0x40\n      dup1\n      mload\n      not(0x1f)\n      dup2\n      dup5\n      sub\n      add\n      dup2\n      mstore\n      swap2\n      dup2\n      mstore\n        /* \"sosh/Sosh.sol\":1127:1162  keccak256(abi.encodePacked(arTxId)) */\n      dup2\n      mload\n        /* \"sosh/Sosh.sol\":1137:1161  abi.encodePacked(arTxId) */\n      0x20\n        /* \"sosh/Sosh.sol\":1127:1162  keccak256(abi.encodePacked(arTxId)) */\n      swap3\n      dup4\n      add\n      keccak256\n        /* \"sosh/Sosh.sol\":1180:1197  txTocctId[txHash] */\n      0x00\n      dup2\n      dup2\n      mstore\n        /* \"sosh/Sosh.sol\":1180:1189  txTocctId */\n      0x05\n        /* \"sosh/Sosh.sol\":1180:1197  txTocctId[txHash] */\n      swap1\n      swap4\n      mstore\n      swap2\n      keccak256\n      sload\n        /* \"sosh/Sosh.sol\":1127:1162  keccak256(abi.encodePacked(arTxId)) */\n      swap1\n      swap2\n      pop\n        /* \"sosh/Sosh.sol\":1180:1202  txTocctId[txHash] == 0 */\n      iszero\n        /* \"sosh/Sosh.sol\":1172:1225  require(txTocctId[txHash] == 0, \"cct already exists\") */\n      tag_274\n      jumpi\n      mload(0x40)\n      shl(0xe5, 0x461bcd)\n      dup2\n      mstore\n        /* \"#utility.yul\":13782:13784   */\n      0x20\n        /* \"sosh/Sosh.sol\":1172:1225  require(txTocctId[txHash] == 0, \"cct already exists\") */\n      0x04\n      dup3\n      add\n        /* \"#utility.yul\":13764:13785   */\n      mstore\n        /* \"#utility.yul\":13821:13823   */\n      0x12\n        /* \"#utility.yul\":13801:13819   */\n      0x24\n      dup3\n      add\n        /* \"#utility.yul\":13794:13824   */\n      mstore\n      shl(0x70, 0x63637420616c726561647920657869737473)\n        /* \"#utility.yul\":13840:13858   */\n      0x44\n      dup3\n      add\n        /* \"#utility.yul\":13833:13881   */\n      mstore\n        /* \"#utility.yul\":13898:13916   */\n      0x64\n      add\n        /* \"sosh/Sosh.sol\":1172:1225  require(txTocctId[txHash] == 0, \"cct already exists\") */\n      tag_191\n        /* \"#utility.yul\":13580:13922   */\n      jump\n        /* \"sosh/Sosh.sol\":1172:1225  require(txTocctId[txHash] == 0, \"cct already exists\") */\n    tag_274:\n        /* \"sosh/Sosh.sol\":1235:1251  uint256 newcctId */\n      0x00\n        /* \"sosh/Sosh.sol\":1254:1262  cctIndex */\n      sload(0x02)\n        /* \"sosh/Sosh.sol\":1235:1262  uint256 newcctId = cctIndex */\n      swap1\n      pop\n        /* \"sosh/Sosh.sol\":1289:1322  Cct(newcctId, arTxId, msg.sender) */\n      mload(0x40)\n      dup1\n      0x60\n      add\n      0x40\n      mstore\n      dup1\n        /* \"sosh/Sosh.sol\":1293:1301  newcctId */\n      dup3\n        /* \"sosh/Sosh.sol\":1289:1322  Cct(newcctId, arTxId, msg.sender) */\n      dup2\n      mstore\n      0x20\n      add\n        /* \"sosh/Sosh.sol\":1303:1309  arTxId */\n      dup6\n      dup6\n        /* \"sosh/Sosh.sol\":1289:1322  Cct(newcctId, arTxId, msg.sender) */\n      dup1\n      dup1\n      0x1f\n      add\n      0x20\n      dup1\n      swap2\n      div\n      mul\n      0x20\n      add\n      mload(0x40)\n      swap1\n      dup2\n      add\n      0x40\n      mstore\n      dup1\n      swap4\n      swap3\n      swap2\n      swap1\n      dup2\n      dup2\n      mstore\n      0x20\n      add\n      dup4\n      dup4\n      dup1\n      dup3\n      dup5\n      calldatacopy\n      0x00\n      swap3\n      add\n      dup3\n      swap1\n      mstore\n      pop\n      swap4\n      dup6\n      mstore\n      pop\n      pop\n        /* \"sosh/Sosh.sol\":1311:1321  msg.sender */\n      caller\n        /* \"sosh/Sosh.sol\":1289:1322  Cct(newcctId, arTxId, msg.sender) */\n      0x20\n      swap4\n      dup5\n      add\n      mstore\n      pop\n        /* \"sosh/Sosh.sol\":1272:1286  ccts[newcctId] */\n      dup4\n      dup2\n      mstore\n        /* \"sosh/Sosh.sol\":1272:1276  ccts */\n      0x03\n        /* \"sosh/Sosh.sol\":1272:1286  ccts[newcctId] */\n      dup3\n      mstore\n      0x40\n      swap1\n      keccak256\n        /* \"sosh/Sosh.sol\":1272:1322  ccts[newcctId] = Cct(newcctId, arTxId, msg.sender) */\n      dup3\n      mload\n      dup2\n      sstore\n      swap1\n      dup3\n      add\n      mload\n      0x01\n      dup3\n      add\n      swap1\n      tag_277\n      swap1\n      dup3\n      tag_278\n      jump\t// in\n    tag_277:\n      pop\n      0x40\n      swap2\n      dup3\n      add\n      mload\n      0x02\n      swap2\n      swap1\n      swap2\n      add\n      dup1\n      sload\n      not(sub(shl(0xa0, 0x01), 0x01))\n      and\n      sub(shl(0xa0, 0x01), 0x01)\n      swap1\n      swap3\n      and\n      swap2\n      swap1\n      swap2\n      or\n      swap1\n      sstore\n        /* \"sosh/Sosh.sol\":1341:1351  msg.sender */\n      caller\n      0x00\n        /* \"sosh/Sosh.sol\":1332:1352  userccts[msg.sender] */\n      swap1\n      dup2\n      mstore\n        /* \"sosh/Sosh.sol\":1332:1340  userccts */\n      0x04\n        /* \"sosh/Sosh.sol\":1332:1352  userccts[msg.sender] */\n      0x20\n      swap1\n      dup2\n      mstore\n      dup3\n      dup3\n      keccak256\n        /* \"sosh/Sosh.sol\":1332:1367  userccts[msg.sender].push(newcctId) */\n      dup1\n      sload\n      0x01\n      dup2\n      add\n      dup3\n      sstore\n      swap1\n      dup4\n      mstore\n      dup2\n      dup4\n      keccak256\n      add\n      dup5\n      swap1\n      sstore\n        /* \"sosh/Sosh.sol\":1377:1394  txTocctId[txHash] */\n      dup5\n      dup3\n      mstore\n        /* \"sosh/Sosh.sol\":1377:1386  txTocctId */\n      0x05\n        /* \"sosh/Sosh.sol\":1377:1394  txTocctId[txHash] */\n      dup2\n      mstore\n      dup3\n      dup3\n      keccak256\n        /* \"sosh/Sosh.sol\":1377:1405  txTocctId[txHash] = newcctId */\n      dup5\n      swap1\n      sstore\n        /* \"sosh/Sosh.sol\":1415:1436  totalSupply[newcctId] */\n      dup4\n      dup3\n      mstore\n        /* \"sosh/Sosh.sol\":1415:1426  totalSupply */\n      0x06\n        /* \"sosh/Sosh.sol\":1415:1436  totalSupply[newcctId] */\n      swap1\n      mstore\n      swap1\n      dup2\n      keccak256\n        /* \"sosh/Sosh.sol\":1415:1455  totalSupply[newcctId] += CREATOR_PREMINT */\n      dup1\n      sload\n        /* \"sosh/Sosh.sol\":906:913  1 ether */\n      0x0de0b6b3a7640000\n      swap3\n      swap1\n        /* \"sosh/Sosh.sol\":1415:1455  totalSupply[newcctId] += CREATOR_PREMINT */\n      tag_280\n      swap1\n        /* \"sosh/Sosh.sol\":906:913  1 ether */\n      dup5\n      swap1\n        /* \"sosh/Sosh.sol\":1415:1455  totalSupply[newcctId] += CREATOR_PREMINT */\n      tag_179\n      jump\t// in\n    tag_280:\n      swap1\n      swap2\n      sstore\n      pop\n        /* \"sosh/Sosh.sol\":1476:1488  newcctId + 1 */\n      tag_281\n      swap1\n      pop\n        /* \"sosh/Sosh.sol\":1476:1484  newcctId */\n      dup2\n        /* \"sosh/Sosh.sol\":1487:1488  1 */\n      0x01\n        /* \"sosh/Sosh.sol\":1476:1488  newcctId + 1 */\n      tag_179\n      jump\t// in\n    tag_281:\n        /* \"sosh/Sosh.sol\":1465:1473  cctIndex */\n      0x02\n        /* \"sosh/Sosh.sol\":1465:1488  cctIndex = newcctId + 1 */\n      dup2\n      swap1\n      sstore\n      pop\n        /* \"sosh/Sosh.sol\":1498:1546  _mint(msg.sender, newcctId, CREATOR_PREMINT, \"\") */\n      tag_282\n        /* \"sosh/Sosh.sol\":1504:1514  msg.sender */\n      caller\n        /* \"sosh/Sosh.sol\":1516:1524  newcctId */\n      dup3\n        /* \"sosh/Sosh.sol\":906:913  1 ether */\n      0x0de0b6b3a7640000\n        /* \"sosh/Sosh.sol\":1498:1546  _mint(msg.sender, newcctId, CREATOR_PREMINT, \"\") */\n      mload(0x40)\n      dup1\n      0x20\n      add\n      0x40\n      mstore\n      dup1\n      0x00\n      dup2\n      mstore\n      pop\n        /* \"sosh/Sosh.sol\":1498:1503  _mint */\n      tag_283\n        /* \"sosh/Sosh.sol\":1498:1546  _mint(msg.sender, newcctId, CREATOR_PREMINT, \"\") */\n      jump\t// in\n    tag_282:\n        /* \"sosh/Sosh.sol\":1578:1588  msg.sender */\n      caller\n      sub(shl(0xa0, 0x01), 0x01)\n        /* \"sosh/Sosh.sol\":1561:1597  Create(newcctId, msg.sender, arTxId) */\n      and\n        /* \"sosh/Sosh.sol\":1568:1576  newcctId */\n      dup2\n        /* \"sosh/Sosh.sol\":1561:1597  Create(newcctId, msg.sender, arTxId) */\n      0xb683691564ab594b1f9e9db91abaf085736871256a4741baa41bf30cb9d4f236\n        /* \"sosh/Sosh.sol\":1590:1596  arTxId */\n      dup7\n      dup7\n        /* \"sosh/Sosh.sol\":1561:1597  Create(newcctId, msg.sender, arTxId) */\n      mload(0x40)\n      tag_284\n      swap3\n      swap2\n      swap1\n      tag_285\n      jump\t// in\n    tag_284:\n      mload(0x40)\n      dup1\n      swap2\n      sub\n      swap1\n      log3\n        /* \"sosh/Sosh.sol\":1644:1654  msg.sender */\n      caller\n        /* \"sosh/Sosh.sol\":1634:1642  newcctId */\n      dup2\n        /* \"sosh/Sosh.sol\":1618:1632  TradeType.Mint */\n      0x00\n        /* \"sosh/Sosh.sol\":1612:1678  Trade(TradeType.Mint, newcctId, msg.sender, CREATOR_PREMINT, 0, 0) */\n      0x40\n      dup1\n      mload\n        /* \"sosh/Sosh.sol\":906:913  1 ether */\n      0x0de0b6b3a7640000\n        /* \"#utility.yul\":16698:16723   */\n      dup2\n      mstore\n        /* \"sosh/Sosh.sol\":1673:1674  0 */\n      0x00\n        /* \"#utility.yul\":16754:16756   */\n      0x20\n        /* \"#utility.yul\":16739:16757   */\n      dup3\n      add\n        /* \"#utility.yul\":16732:16766   */\n      dup2\n      swap1\n      mstore\n        /* \"#utility.yul\":16782:16800   */\n      swap2\n      dup2\n      add\n        /* \"#utility.yul\":16775:16809   */\n      swap2\n      swap1\n      swap2\n      mstore\n        /* \"sosh/Sosh.sol\":1612:1678  Trade(TradeType.Mint, newcctId, msg.sender, CREATOR_PREMINT, 0, 0) */\n      0x4373618509eab3295fc837b6b78ce8f6fc820f403d4a22076932311ad1e4b51e\n      swap1\n        /* \"#utility.yul\":16686:16688   */\n      0x60\n        /* \"#utility.yul\":16671:16689   */\n      add\n        /* \"sosh/Sosh.sol\":1612:1678  Trade(TradeType.Mint, newcctId, msg.sender, CREATOR_PREMINT, 0, 0) */\n      mload(0x40)\n      dup1\n      swap2\n      sub\n      swap1\n      log4\n        /* \"sosh/Sosh.sol\":1100:1685  {... */\n      pop\n      pop\n        /* \"sosh/Sosh.sol\":1053:1685  function create(string calldata arTxId) public {... */\n      pop\n      pop\n      jump\t// out\n        /* \"sosh/Sosh.sol\":2850:2992  function getBuyPrice(uint256 cctId, uint256 amount) public view returns (uint256) {... */\n    tag_135:\n        /* \"sosh/Sosh.sol\":2923:2930  uint256 */\n      0x00\n        /* \"sosh/Sosh.sol\":2958:2976  totalSupply[cctId] */\n      dup3\n      dup2\n      mstore\n        /* \"sosh/Sosh.sol\":2958:2969  totalSupply */\n      0x06\n        /* \"sosh/Sosh.sol\":2958:2976  totalSupply[cctId] */\n      0x20\n      mstore\n      0x40\n      dup2\n      keccak256\n      sload\n        /* \"sosh/Sosh.sol\":2949:2985  getPrice(totalSupply[cctId], amount) */\n      tag_257\n      swap1\n        /* \"sosh/Sosh.sol\":2978:2984  amount */\n      dup4\n        /* \"sosh/Sosh.sol\":2949:2957  getPrice */\n      tag_84\n        /* \"sosh/Sosh.sol\":2949:2985  getPrice(totalSupply[cctId], amount) */\n      jump\t// in\n        /* \"sosh/Sosh.sol\":3416:3672  function getSellPriceAfterFee(uint256 cctId, uint256 amount) public view returns (uint256) {... */\n    tag_140:\n        /* \"sosh/Sosh.sol\":3498:3505  uint256 */\n      0x00\n        /* \"sosh/Sosh.sol\":3517:3530  uint256 price */\n      dup1\n        /* \"sosh/Sosh.sol\":3533:3560  getSellPrice(cctId, amount) */\n      tag_294\n        /* \"sosh/Sosh.sol\":3546:3551  cctId */\n      dup5\n        /* \"sosh/Sosh.sol\":3553:3559  amount */\n      dup5\n        /* \"sosh/Sosh.sol\":3533:3545  getSellPrice */\n      tag_109\n        /* \"sosh/Sosh.sol\":3533:3560  getSellPrice(cctId, amount) */\n      jump\t// in\n    tag_294:\n        /* \"sosh/Sosh.sol\":3517:3560  uint256 price = getSellPrice(cctId, amount) */\n      swap1\n      pop\n        /* \"sosh/Sosh.sol\":3570:3588  uint256 creatorFee */\n      0x00\n        /* \"sosh/Sosh.sol\":3623:3630  1 ether */\n      0x0de0b6b3a7640000\n        /* \"sosh/Sosh.sol\":3592:3619  price * CREATOR_FEE_PERCENT */\n      tag_295\n        /* \"sosh/Sosh.sol\":966:976  0.04 ether */\n      0x8e1bc9bf040000\n        /* \"sosh/Sosh.sol\":3517:3560  uint256 price = getSellPrice(cctId, amount) */\n      dup5\n        /* \"sosh/Sosh.sol\":3592:3619  price * CREATOR_FEE_PERCENT */\n      tag_175\n      jump\t// in\n    tag_295:\n        /* \"sosh/Sosh.sol\":3591:3630  (price * CREATOR_FEE_PERCENT) / 1 ether */\n      tag_296\n      swap2\n      swap1\n      tag_177\n      jump\t// in\n    tag_296:\n        /* \"sosh/Sosh.sol\":3570:3630  uint256 creatorFee = (price * CREATOR_FEE_PERCENT) / 1 ether */\n      swap1\n      pop\n        /* \"sosh/Sosh.sol\":3647:3665  price - creatorFee */\n      tag_178\n        /* \"sosh/Sosh.sol\":3570:3630  uint256 creatorFee = (price * CREATOR_FEE_PERCENT) / 1 ether */\n      dup2\n        /* \"sosh/Sosh.sol\":3647:3652  price */\n      dup4\n        /* \"sosh/Sosh.sol\":3647:3665  price - creatorFee */\n      tag_206\n      jump\t// in\n        /* \"sosh/Sosh.sol\":3678:4341  function buy(uint256 cctId, uint256 amount) public payable {... */\n    tag_144:\n        /* \"sosh/Sosh.sol\":3763:3771  cctIndex */\n      sload(0x02)\n        /* \"sosh/Sosh.sol\":3755:3760  cctId */\n      dup3\n        /* \"sosh/Sosh.sol\":3755:3771  cctId < cctIndex */\n      lt\n        /* \"sosh/Sosh.sol\":3747:3794  require(cctId < cctIndex, \"cct does not exist\") */\n      tag_299\n      jumpi\n      mload(0x40)\n      shl(0xe5, 0x461bcd)\n      dup2\n      mstore\n        /* \"#utility.yul\":17022:17024   */\n      0x20\n        /* \"sosh/Sosh.sol\":3747:3794  require(cctId < cctIndex, \"cct does not exist\") */\n      0x04\n      dup3\n      add\n        /* \"#utility.yul\":17004:17025   */\n      mstore\n        /* \"#utility.yul\":17061:17063   */\n      0x12\n        /* \"#utility.yul\":17041:17059   */\n      0x24\n      dup3\n      add\n        /* \"#utility.yul\":17034:17064   */\n      mstore\n      shl(0x72, 0x18d8dd08191bd95cc81b9bdd08195e1a5cdd)\n        /* \"#utility.yul\":17080:17098   */\n      0x44\n      dup3\n      add\n        /* \"#utility.yul\":17073:17121   */\n      mstore\n        /* \"#utility.yul\":17138:17156   */\n      0x64\n      add\n        /* \"sosh/Sosh.sol\":3747:3794  require(cctId < cctIndex, \"cct does not exist\") */\n      tag_191\n        /* \"#utility.yul\":16820:17162   */\n      jump\n        /* \"sosh/Sosh.sol\":3747:3794  require(cctId < cctIndex, \"cct does not exist\") */\n    tag_299:\n        /* \"sosh/Sosh.sol\":3804:3817  uint256 price */\n      0x00\n        /* \"sosh/Sosh.sol\":3820:3846  getBuyPrice(cctId, amount) */\n      tag_302\n        /* \"sosh/Sosh.sol\":3832:3837  cctId */\n      dup4\n        /* \"sosh/Sosh.sol\":3839:3845  amount */\n      dup4\n        /* \"sosh/Sosh.sol\":3820:3831  getBuyPrice */\n      tag_135\n        /* \"sosh/Sosh.sol\":3820:3846  getBuyPrice(cctId, amount) */\n      jump\t// in\n    tag_302:\n        /* \"sosh/Sosh.sol\":3804:3846  uint256 price = getBuyPrice(cctId, amount) */\n      swap1\n      pop\n        /* \"sosh/Sosh.sol\":3856:3874  uint256 creatorFee */\n      0x00\n        /* \"sosh/Sosh.sol\":3909:3916  1 ether */\n      0x0de0b6b3a7640000\n        /* \"sosh/Sosh.sol\":3878:3905  price * CREATOR_FEE_PERCENT */\n      tag_303\n        /* \"sosh/Sosh.sol\":966:976  0.04 ether */\n      0x8e1bc9bf040000\n        /* \"sosh/Sosh.sol\":3804:3846  uint256 price = getBuyPrice(cctId, amount) */\n      dup5\n        /* \"sosh/Sosh.sol\":3878:3905  price * CREATOR_FEE_PERCENT */\n      tag_175\n      jump\t// in\n    tag_303:\n        /* \"sosh/Sosh.sol\":3877:3916  (price * CREATOR_FEE_PERCENT) / 1 ether */\n      tag_304\n      swap2\n      swap1\n      tag_177\n      jump\t// in\n    tag_304:\n        /* \"sosh/Sosh.sol\":3856:3916  uint256 creatorFee = (price * CREATOR_FEE_PERCENT) / 1 ether */\n      swap1\n      pop\n        /* \"sosh/Sosh.sol\":3947:3965  price + creatorFee */\n      tag_305\n        /* \"sosh/Sosh.sol\":3856:3916  uint256 creatorFee = (price * CREATOR_FEE_PERCENT) / 1 ether */\n      dup2\n        /* \"sosh/Sosh.sol\":3947:3952  price */\n      dup4\n        /* \"sosh/Sosh.sol\":3947:3965  price + creatorFee */\n      tag_179\n      jump\t// in\n    tag_305:\n        /* \"sosh/Sosh.sol\":3934:3943  msg.value */\n      callvalue\n        /* \"sosh/Sosh.sol\":3934:3965  msg.value >= price + creatorFee */\n      lt\n      iszero\n        /* \"sosh/Sosh.sol\":3926:3990  require(msg.value >= price + creatorFee, \"Insufficient payment\") */\n      tag_306\n      jumpi\n      mload(0x40)\n      shl(0xe5, 0x461bcd)\n      dup2\n      mstore\n        /* \"#utility.yul\":17369:17371   */\n      0x20\n        /* \"sosh/Sosh.sol\":3926:3990  require(msg.value >= price + creatorFee, \"Insufficient payment\") */\n      0x04\n      dup3\n      add\n        /* \"#utility.yul\":17351:17372   */\n      mstore\n        /* \"#utility.yul\":17408:17410   */\n      0x14\n        /* \"#utility.yul\":17388:17406   */\n      0x24\n      dup3\n      add\n        /* \"#utility.yul\":17381:17411   */\n      mstore\n      shl(0x62, 0x125b9cdd59999a58da595b9d081c185e5b595b9d)\n        /* \"#utility.yul\":17427:17445   */\n      0x44\n      dup3\n      add\n        /* \"#utility.yul\":17420:17470   */\n      mstore\n        /* \"#utility.yul\":17487:17505   */\n      0x64\n      add\n        /* \"sosh/Sosh.sol\":3926:3990  require(msg.value >= price + creatorFee, \"Insufficient payment\") */\n      tag_191\n        /* \"#utility.yul\":17167:17511   */\n      jump\n        /* \"sosh/Sosh.sol\":3926:3990  require(msg.value >= price + creatorFee, \"Insufficient payment\") */\n    tag_306:\n        /* \"sosh/Sosh.sol\":4000:4018  totalSupply[cctId] */\n      0x00\n      dup5\n      dup2\n      mstore\n        /* \"sosh/Sosh.sol\":4000:4011  totalSupply */\n      0x06\n        /* \"sosh/Sosh.sol\":4000:4018  totalSupply[cctId] */\n      0x20\n      mstore\n      0x40\n      dup2\n      keccak256\n        /* \"sosh/Sosh.sol\":4000:4028  totalSupply[cctId] += amount */\n      dup1\n      sload\n        /* \"sosh/Sosh.sol\":4022:4028  amount */\n      dup6\n      swap3\n        /* \"sosh/Sosh.sol\":4000:4018  totalSupply[cctId] */\n      swap1\n        /* \"sosh/Sosh.sol\":4000:4028  totalSupply[cctId] += amount */\n      tag_309\n      swap1\n        /* \"sosh/Sosh.sol\":4022:4028  amount */\n      dup5\n      swap1\n        /* \"sosh/Sosh.sol\":4000:4028  totalSupply[cctId] += amount */\n      tag_179\n      jump\t// in\n    tag_309:\n      swap1\n      swap2\n      sstore\n      pop\n      pop\n        /* \"sosh/Sosh.sol\":4038:4049  pool[cctId] */\n      0x00\n      dup5\n      dup2\n      mstore\n        /* \"sosh/Sosh.sol\":4038:4042  pool */\n      0x07\n        /* \"sosh/Sosh.sol\":4038:4049  pool[cctId] */\n      0x20\n      mstore\n      0x40\n      dup2\n      keccak256\n        /* \"sosh/Sosh.sol\":4038:4058  pool[cctId] += price */\n      dup1\n      sload\n        /* \"sosh/Sosh.sol\":4053:4058  price */\n      dup5\n      swap3\n        /* \"sosh/Sosh.sol\":4038:4049  pool[cctId] */\n      swap1\n        /* \"sosh/Sosh.sol\":4038:4058  pool[cctId] += price */\n      tag_310\n      swap1\n        /* \"sosh/Sosh.sol\":4053:4058  price */\n      dup5\n      swap1\n        /* \"sosh/Sosh.sol\":4038:4058  pool[cctId] += price */\n      tag_179\n      jump\t// in\n    tag_310:\n      swap3\n      pop\n      pop\n      dup2\n      swap1\n      sstore\n      pop\n        /* \"sosh/Sosh.sol\":4068:4104  _mint(msg.sender, cctId, amount, \"\") */\n      tag_311\n        /* \"sosh/Sosh.sol\":4074:4084  msg.sender */\n      caller\n        /* \"sosh/Sosh.sol\":4086:4091  cctId */\n      dup6\n        /* \"sosh/Sosh.sol\":4093:4099  amount */\n      dup6\n        /* \"sosh/Sosh.sol\":4068:4104  _mint(msg.sender, cctId, amount, \"\") */\n      mload(0x40)\n      dup1\n      0x20\n      add\n      0x40\n      mstore\n      dup1\n      0x00\n      dup2\n      mstore\n      pop\n        /* \"sosh/Sosh.sol\":4068:4073  _mint */\n      tag_283\n        /* \"sosh/Sosh.sol\":4068:4104  _mint(msg.sender, cctId, amount, \"\") */\n      jump\t// in\n    tag_311:\n        /* \"sosh/Sosh.sol\":4147:4157  msg.sender */\n      caller\n        /* \"sosh/Sosh.sol\":4140:4145  cctId */\n      dup5\n        /* \"sosh/Sosh.sol\":4125:4138  TradeType.Buy */\n      0x01\n        /* \"sosh/Sosh.sol\":4119:4185  Trade(TradeType.Buy, cctId, msg.sender, amount, price, creatorFee) */\n      0x40\n      dup1\n      mload\n        /* \"#utility.yul\":16698:16723   */\n      dup8\n      dup2\n      mstore\n        /* \"#utility.yul\":16754:16756   */\n      0x20\n        /* \"#utility.yul\":16739:16757   */\n      dup2\n      add\n        /* \"#utility.yul\":16732:16766   */\n      dup8\n      swap1\n      mstore\n        /* \"#utility.yul\":16782:16800   */\n      swap1\n      dup2\n      add\n        /* \"#utility.yul\":16775:16809   */\n      dup6\n      swap1\n      mstore\n        /* \"sosh/Sosh.sol\":4119:4185  Trade(TradeType.Buy, cctId, msg.sender, amount, price, creatorFee) */\n      0x4373618509eab3295fc837b6b78ce8f6fc820f403d4a22076932311ad1e4b51e\n      swap1\n        /* \"#utility.yul\":16686:16688   */\n      0x60\n        /* \"#utility.yul\":16671:16689   */\n      add\n        /* \"sosh/Sosh.sol\":4119:4185  Trade(TradeType.Buy, cctId, msg.sender, amount, price, creatorFee) */\n      mload(0x40)\n      dup1\n      swap2\n      sub\n      swap1\n      log4\n        /* \"sosh/Sosh.sol\":4196:4215  bool creatorFeeSent */\n      0x00\n        /* \"sosh/Sosh.sol\":4229:4240  ccts[cctId] */\n      dup5\n      dup2\n      mstore\n        /* \"sosh/Sosh.sol\":4229:4233  ccts */\n      0x03\n        /* \"sosh/Sosh.sol\":4229:4240  ccts[cctId] */\n      0x20\n      mstore\n      0x40\n      dup1\n      dup3\n      keccak256\n        /* \"sosh/Sosh.sol\":4229:4248  ccts[cctId].creator */\n      0x02\n      add\n      sload\n        /* \"sosh/Sosh.sol\":4221:4277  payable(ccts[cctId].creator).call{value: creatorFee}(\"\") */\n      swap1\n      mload\n      sub(shl(0xa0, 0x01), 0x01)\n        /* \"sosh/Sosh.sol\":4229:4248  ccts[cctId].creator */\n      swap1\n      swap2\n      and\n      swap1\n        /* \"sosh/Sosh.sol\":4262:4272  creatorFee */\n      dup4\n      swap1\n        /* \"sosh/Sosh.sol\":4196:4215  bool creatorFeeSent */\n      dup4\n        /* \"sosh/Sosh.sol\":4221:4277  payable(ccts[cctId].creator).call{value: creatorFee}(\"\") */\n      dup2\n        /* \"sosh/Sosh.sol\":4196:4215  bool creatorFeeSent */\n      dup2\n        /* \"sosh/Sosh.sol\":4221:4277  payable(ccts[cctId].creator).call{value: creatorFee}(\"\") */\n      dup2\n        /* \"sosh/Sosh.sol\":4262:4272  creatorFee */\n      dup6\n        /* \"sosh/Sosh.sol\":4229:4248  ccts[cctId].creator */\n      dup8\n        /* \"sosh/Sosh.sol\":4221:4277  payable(ccts[cctId].creator).call{value: creatorFee}(\"\") */\n      gas\n      call\n      swap3\n      pop\n      pop\n      pop\n      returndatasize\n      dup1\n      0x00\n      dup2\n      eq\n      tag_320\n      jumpi\n      mload(0x40)\n      swap2\n      pop\n      and(add(returndatasize, 0x3f), not(0x1f))\n      dup3\n      add\n      0x40\n      mstore\n      returndatasize\n      dup3\n      mstore\n      returndatasize\n      0x00\n      0x20\n      dup5\n      add\n      returndatacopy\n      jump(tag_319)\n    tag_320:\n      0x60\n      swap2\n      pop\n    tag_319:\n      pop\n        /* \"sosh/Sosh.sol\":4195:4277  (bool creatorFeeSent, ) = payable(ccts[cctId].creator).call{value: creatorFee}(\"\") */\n      pop\n      swap1\n      pop\n        /* \"sosh/Sosh.sol\":4295:4309  creatorFeeSent */\n      dup1\n        /* \"sosh/Sosh.sol\":4287:4334  require(creatorFeeSent, \"Failed to send Ether\") */\n      tag_321\n      jumpi\n      mload(0x40)\n      shl(0xe5, 0x461bcd)\n      dup2\n      mstore\n        /* \"#utility.yul\":18252:18254   */\n      0x20\n        /* \"sosh/Sosh.sol\":4287:4334  require(creatorFeeSent, \"Failed to send Ether\") */\n      0x04\n      dup3\n      add\n        /* \"#utility.yul\":18234:18255   */\n      mstore\n        /* \"#utility.yul\":18291:18293   */\n      0x14\n        /* \"#utility.yul\":18271:18289   */\n      0x24\n      dup3\n      add\n        /* \"#utility.yul\":18264:18294   */\n      mstore\n      shl(0x61, 0x2330b4b632b2103a379039b2b7321022ba3432b9)\n        /* \"#utility.yul\":18310:18328   */\n      0x44\n      dup3\n      add\n        /* \"#utility.yul\":18303:18353   */\n      mstore\n        /* \"#utility.yul\":18370:18388   */\n      0x64\n      add\n        /* \"sosh/Sosh.sol\":4287:4334  require(creatorFeeSent, \"Failed to send Ether\") */\n      tag_191\n        /* \"#utility.yul\":18050:18394   */\n      jump\n        /* \"sosh/Sosh.sol\":4287:4334  require(creatorFeeSent, \"Failed to send Ether\") */\n    tag_321:\n        /* \"sosh/Sosh.sol\":3737:4341  {... */\n      pop\n      pop\n      pop\n        /* \"sosh/Sosh.sol\":3678:4341  function buy(uint256 cctId, uint256 amount) public payable {... */\n      pop\n      pop\n      jump\t// out\n        /* \"sosh/Sosh.sol\":4347:5246  function sell(uint256 cctId, uint256 amount) public {... */\n    tag_148:\n        /* \"sosh/Sosh.sol\":4425:4433  cctIndex */\n      sload(0x02)\n        /* \"sosh/Sosh.sol\":4417:4422  cctId */\n      dup3\n        /* \"sosh/Sosh.sol\":4417:4433  cctId < cctIndex */\n      lt\n        /* \"sosh/Sosh.sol\":4409:4456  require(cctId < cctIndex, \"cct does not exist\") */\n      tag_325\n      jumpi\n      mload(0x40)\n      shl(0xe5, 0x461bcd)\n      dup2\n      mstore\n        /* \"#utility.yul\":17022:17024   */\n      0x20\n        /* \"sosh/Sosh.sol\":4409:4456  require(cctId < cctIndex, \"cct does not exist\") */\n      0x04\n      dup3\n      add\n        /* \"#utility.yul\":17004:17025   */\n      mstore\n        /* \"#utility.yul\":17061:17063   */\n      0x12\n        /* \"#utility.yul\":17041:17059   */\n      0x24\n      dup3\n      add\n        /* \"#utility.yul\":17034:17064   */\n      mstore\n      shl(0x72, 0x18d8dd08191bd95cc81b9bdd08195e1a5cdd)\n        /* \"#utility.yul\":17080:17098   */\n      0x44\n      dup3\n      add\n        /* \"#utility.yul\":17073:17121   */\n      mstore\n        /* \"#utility.yul\":17138:17156   */\n      0x64\n      add\n        /* \"sosh/Sosh.sol\":4409:4456  require(cctId < cctIndex, \"cct does not exist\") */\n      tag_191\n        /* \"#utility.yul\":16820:17162   */\n      jump\n        /* \"sosh/Sosh.sol\":4409:4456  require(cctId < cctIndex, \"cct does not exist\") */\n    tag_325:\n        /* \"sosh/Sosh.sol\":4484:4494  msg.sender */\n      caller\n        /* \"sosh/Sosh.sol\":4474:4483  balanceOf */\n      0x00\n        /* \"sosh/Sosh.sol\":4474:4495  balanceOf[msg.sender] */\n      swap1\n      dup2\n      mstore\n      0x20\n      dup2\n      dup2\n      mstore\n      0x40\n      dup1\n      dup4\n      keccak256\n        /* \"sosh/Sosh.sol\":4474:4502  balanceOf[msg.sender][cctId] */\n      dup6\n      dup5\n      mstore\n      swap1\n      swap2\n      mstore\n      swap1\n      keccak256\n      sload\n        /* \"sosh/Sosh.sol\":4474:4512  balanceOf[msg.sender][cctId] >= amount */\n      dup2\n      gt\n      iszero\n        /* \"sosh/Sosh.sol\":4466:4537  require(balanceOf[msg.sender][cctId] >= amount, \"Insufficient balance\") */\n      tag_327\n      jumpi\n      mload(0x40)\n      shl(0xe5, 0x461bcd)\n      dup2\n      mstore\n        /* \"#utility.yul\":18601:18603   */\n      0x20\n        /* \"sosh/Sosh.sol\":4466:4537  require(balanceOf[msg.sender][cctId] >= amount, \"Insufficient balance\") */\n      0x04\n      dup3\n      add\n        /* \"#utility.yul\":18583:18604   */\n      mstore\n        /* \"#utility.yul\":18640:18642   */\n      0x14\n        /* \"#utility.yul\":18620:18638   */\n      0x24\n      dup3\n      add\n        /* \"#utility.yul\":18613:18643   */\n      mstore\n      shl(0x60, 0x496e73756666696369656e742062616c616e6365)\n        /* \"#utility.yul\":18659:18677   */\n      0x44\n      dup3\n      add\n        /* \"#utility.yul\":18652:18702   */\n      mstore\n        /* \"#utility.yul\":18719:18737   */\n      0x64\n      add\n        /* \"sosh/Sosh.sol\":4466:4537  require(balanceOf[msg.sender][cctId] >= amount, \"Insufficient balance\") */\n      tag_191\n        /* \"#utility.yul\":18399:18743   */\n      jump\n        /* \"sosh/Sosh.sol\":4466:4537  require(balanceOf[msg.sender][cctId] >= amount, \"Insufficient balance\") */\n    tag_327:\n        /* \"sosh/Sosh.sol\":4547:4561  uint256 supply */\n      0x00\n        /* \"sosh/Sosh.sol\":4564:4582  totalSupply[cctId] */\n      dup3\n      dup2\n      mstore\n        /* \"sosh/Sosh.sol\":4564:4575  totalSupply */\n      0x06\n        /* \"sosh/Sosh.sol\":4564:4582  totalSupply[cctId] */\n      0x20\n      mstore\n      0x40\n      swap1\n      keccak256\n      sload\n        /* \"sosh/Sosh.sol\":906:913  1 ether */\n      0x0de0b6b3a7640000\n        /* \"sosh/Sosh.sol\":4600:4615  supply - amount */\n      tag_330\n        /* \"sosh/Sosh.sol\":4609:4615  amount */\n      dup4\n        /* \"sosh/Sosh.sol\":4564:4582  totalSupply[cctId] */\n      dup4\n        /* \"sosh/Sosh.sol\":4600:4615  supply - amount */\n      tag_206\n      jump\t// in\n    tag_330:\n        /* \"sosh/Sosh.sol\":4600:4634  supply - amount >= CREATOR_PREMINT */\n      lt\n      iszero\n        /* \"sosh/Sosh.sol\":4592:4678  require(supply - amount >= CREATOR_PREMINT, \"Supply not allowed below premint amount\") */\n      tag_331\n      jumpi\n      mload(0x40)\n      shl(0xe5, 0x461bcd)\n      dup2\n      mstore\n        /* \"#utility.yul\":18950:18952   */\n      0x20\n        /* \"sosh/Sosh.sol\":4592:4678  require(supply - amount >= CREATOR_PREMINT, \"Supply not allowed below premint amount\") */\n      0x04\n      dup3\n      add\n        /* \"#utility.yul\":18932:18953   */\n      mstore\n        /* \"#utility.yul\":18989:18991   */\n      0x27\n        /* \"#utility.yul\":18969:18987   */\n      0x24\n      dup3\n      add\n        /* \"#utility.yul\":18962:18992   */\n      mstore\n        /* \"#utility.yul\":19028:19062   */\n      0x537570706c79206e6f7420616c6c6f7765642062656c6f77207072656d696e74\n        /* \"#utility.yul\":19008:19026   */\n      0x44\n      dup3\n      add\n        /* \"#utility.yul\":19001:19063   */\n      mstore\n      shl(0xca, 0x08185b5bdd5b9d)\n        /* \"#utility.yul\":19079:19097   */\n      0x64\n      dup3\n      add\n        /* \"#utility.yul\":19072:19109   */\n      mstore\n        /* \"#utility.yul\":19126:19145   */\n      0x84\n      add\n        /* \"sosh/Sosh.sol\":4592:4678  require(supply - amount >= CREATOR_PREMINT, \"Supply not allowed below premint amount\") */\n      tag_191\n        /* \"#utility.yul\":18748:19151   */\n      jump\n        /* \"sosh/Sosh.sol\":4592:4678  require(supply - amount >= CREATOR_PREMINT, \"Supply not allowed below premint amount\") */\n    tag_331:\n        /* \"sosh/Sosh.sol\":4688:4701  uint256 price */\n      0x00\n        /* \"sosh/Sosh.sol\":4704:4731  getSellPrice(cctId, amount) */\n      tag_334\n        /* \"sosh/Sosh.sol\":4717:4722  cctId */\n      dup5\n        /* \"sosh/Sosh.sol\":4724:4730  amount */\n      dup5\n        /* \"sosh/Sosh.sol\":4704:4716  getSellPrice */\n      tag_109\n        /* \"sosh/Sosh.sol\":4704:4731  getSellPrice(cctId, amount) */\n      jump\t// in\n    tag_334:\n        /* \"sosh/Sosh.sol\":4688:4731  uint256 price = getSellPrice(cctId, amount) */\n      swap1\n      pop\n        /* \"sosh/Sosh.sol\":4741:4759  uint256 creatorFee */\n      0x00\n        /* \"sosh/Sosh.sol\":4794:4801  1 ether */\n      0x0de0b6b3a7640000\n        /* \"sosh/Sosh.sol\":4763:4790  price * CREATOR_FEE_PERCENT */\n      tag_335\n        /* \"sosh/Sosh.sol\":966:976  0.04 ether */\n      0x8e1bc9bf040000\n        /* \"sosh/Sosh.sol\":4688:4731  uint256 price = getSellPrice(cctId, amount) */\n      dup5\n        /* \"sosh/Sosh.sol\":4763:4790  price * CREATOR_FEE_PERCENT */\n      tag_175\n      jump\t// in\n    tag_335:\n        /* \"sosh/Sosh.sol\":4762:4801  (price * CREATOR_FEE_PERCENT) / 1 ether */\n      tag_336\n      swap2\n      swap1\n      tag_177\n      jump\t// in\n    tag_336:\n        /* \"sosh/Sosh.sol\":4741:4801  uint256 creatorFee = (price * CREATOR_FEE_PERCENT) / 1 ether */\n      swap1\n      pop\n        /* \"sosh/Sosh.sol\":4811:4843  _burn(msg.sender, cctId, amount) */\n      tag_337\n        /* \"sosh/Sosh.sol\":4817:4827  msg.sender */\n      caller\n        /* \"sosh/Sosh.sol\":4829:4834  cctId */\n      dup7\n        /* \"sosh/Sosh.sol\":4836:4842  amount */\n      dup7\n        /* \"sosh/Sosh.sol\":4811:4816  _burn */\n      tag_338\n        /* \"sosh/Sosh.sol\":4811:4843  _burn(msg.sender, cctId, amount) */\n      jump\t// in\n    tag_337:\n        /* \"sosh/Sosh.sol\":4874:4889  supply - amount */\n      tag_339\n        /* \"sosh/Sosh.sol\":4883:4889  amount */\n      dup5\n        /* \"sosh/Sosh.sol\":4874:4880  supply */\n      dup5\n        /* \"sosh/Sosh.sol\":4874:4889  supply - amount */\n      tag_206\n      jump\t// in\n    tag_339:\n        /* \"sosh/Sosh.sol\":4853:4871  totalSupply[cctId] */\n      0x00\n      dup7\n      dup2\n      mstore\n        /* \"sosh/Sosh.sol\":4853:4864  totalSupply */\n      0x06\n        /* \"sosh/Sosh.sol\":4853:4871  totalSupply[cctId] */\n      0x20\n      swap1\n      dup2\n      mstore\n      0x40\n      dup1\n      dup4\n      keccak256\n        /* \"sosh/Sosh.sol\":4853:4889  totalSupply[cctId] = supply - amount */\n      swap4\n      swap1\n      swap4\n      sstore\n        /* \"sosh/Sosh.sol\":4899:4903  pool */\n      0x07\n        /* \"sosh/Sosh.sol\":4899:4910  pool[cctId] */\n      swap1\n      mstore\n      swap1\n      dup2\n      keccak256\n        /* \"sosh/Sosh.sol\":4899:4919  pool[cctId] -= price */\n      dup1\n      sload\n        /* \"sosh/Sosh.sol\":4914:4919  price */\n      dup5\n      swap3\n        /* \"sosh/Sosh.sol\":4853:4871  totalSupply[cctId] */\n      swap1\n        /* \"sosh/Sosh.sol\":4899:4919  pool[cctId] -= price */\n      tag_340\n      swap1\n        /* \"sosh/Sosh.sol\":4914:4919  price */\n      dup5\n      swap1\n        /* \"sosh/Sosh.sol\":4899:4919  pool[cctId] -= price */\n      tag_206\n      jump\t// in\n    tag_340:\n      swap1\n      swap2\n      sstore\n      pop\n        /* \"sosh/Sosh.sol\":4963:4973  msg.sender */\n      caller\n      swap1\n      pop\n        /* \"sosh/Sosh.sol\":4956:4961  cctId */\n      dup6\n        /* \"sosh/Sosh.sol\":4940:4954  TradeType.Sell */\n      0x02\n        /* \"sosh/Sosh.sol\":4934:5001  Trade(TradeType.Sell, cctId, msg.sender, amount, price, creatorFee) */\n      0x40\n      dup1\n      mload\n        /* \"#utility.yul\":16698:16723   */\n      dup9\n      dup2\n      mstore\n        /* \"#utility.yul\":16754:16756   */\n      0x20\n        /* \"#utility.yul\":16739:16757   */\n      dup2\n      add\n        /* \"#utility.yul\":16732:16766   */\n      dup8\n      swap1\n      mstore\n        /* \"#utility.yul\":16782:16800   */\n      swap1\n      dup2\n      add\n        /* \"#utility.yul\":16775:16809   */\n      dup6\n      swap1\n      mstore\n        /* \"sosh/Sosh.sol\":4934:5001  Trade(TradeType.Sell, cctId, msg.sender, amount, price, creatorFee) */\n      0x4373618509eab3295fc837b6b78ce8f6fc820f403d4a22076932311ad1e4b51e\n      swap1\n        /* \"#utility.yul\":16686:16688   */\n      0x60\n        /* \"#utility.yul\":16671:16689   */\n      add\n        /* \"sosh/Sosh.sol\":4934:5001  Trade(TradeType.Sell, cctId, msg.sender, amount, price, creatorFee) */\n      mload(0x40)\n      dup1\n      swap2\n      sub\n      swap1\n      log4\n        /* \"sosh/Sosh.sol\":5012:5021  bool sent */\n      0x00\n        /* \"sosh/Sosh.sol\":5035:5045  msg.sender */\n      caller\n        /* \"sosh/Sosh.sol\":5059:5077  price - creatorFee */\n      tag_344\n        /* \"sosh/Sosh.sol\":5067:5077  creatorFee */\n      dup4\n        /* \"sosh/Sosh.sol\":5059:5064  price */\n      dup6\n        /* \"sosh/Sosh.sol\":5059:5077  price - creatorFee */\n      tag_206\n      jump\t// in\n    tag_344:\n        /* \"sosh/Sosh.sol\":5027:5082  payable(msg.sender).call{value: price - creatorFee}(\"\") */\n      mload(0x40)\n      0x00\n      dup2\n      dup2\n      dup2\n      dup6\n      dup8\n      gas\n      call\n      swap3\n      pop\n      pop\n      pop\n      returndatasize\n      dup1\n      0x00\n      dup2\n      eq\n      tag_348\n      jumpi\n      mload(0x40)\n      swap2\n      pop\n      and(add(returndatasize, 0x3f), not(0x1f))\n      dup3\n      add\n      0x40\n      mstore\n      returndatasize\n      dup3\n      mstore\n      returndatasize\n      0x00\n      0x20\n      dup5\n      add\n      returndatacopy\n      jump(tag_347)\n    tag_348:\n      0x60\n      swap2\n      pop\n    tag_347:\n      pop\n      pop\n        /* \"sosh/Sosh.sol\":5093:5112  bool creatorFeeSent */\n      0x00\n        /* \"sosh/Sosh.sol\":5126:5137  ccts[cctId] */\n      dup8\n      dup2\n      mstore\n        /* \"sosh/Sosh.sol\":5126:5130  ccts */\n      0x03\n        /* \"sosh/Sosh.sol\":5126:5137  ccts[cctId] */\n      0x20\n      mstore\n      0x40\n      dup1\n      dup3\n      keccak256\n        /* \"sosh/Sosh.sol\":5126:5145  ccts[cctId].creator */\n      0x02\n      add\n      sload\n        /* \"sosh/Sosh.sol\":5118:5174  payable(ccts[cctId].creator).call{value: creatorFee}(\"\") */\n      swap1\n      mload\n        /* \"sosh/Sosh.sol\":5011:5082  (bool sent, ) = payable(msg.sender).call{value: price - creatorFee}(\"\") */\n      swap3\n      swap4\n      pop\n        /* \"sosh/Sosh.sol\":5093:5112  bool creatorFeeSent */\n      swap1\n      swap2\n      sub(shl(0xa0, 0x01), 0x01)\n        /* \"sosh/Sosh.sol\":5126:5145  ccts[cctId].creator */\n      swap1\n      swap2\n      and\n      swap1\n        /* \"sosh/Sosh.sol\":5159:5169  creatorFee */\n      dup5\n      swap1\n        /* \"sosh/Sosh.sol\":5093:5112  bool creatorFeeSent */\n      dup4\n        /* \"sosh/Sosh.sol\":5118:5174  payable(ccts[cctId].creator).call{value: creatorFee}(\"\") */\n      dup2\n        /* \"sosh/Sosh.sol\":5093:5112  bool creatorFeeSent */\n      dup2\n        /* \"sosh/Sosh.sol\":5118:5174  payable(ccts[cctId].creator).call{value: creatorFee}(\"\") */\n      dup2\n        /* \"sosh/Sosh.sol\":5159:5169  creatorFee */\n      dup6\n        /* \"sosh/Sosh.sol\":5126:5145  ccts[cctId].creator */\n      dup8\n        /* \"sosh/Sosh.sol\":5118:5174  payable(ccts[cctId].creator).call{value: creatorFee}(\"\") */\n      gas\n      call\n      swap3\n      pop\n      pop\n      pop\n      returndatasize\n      dup1\n      0x00\n      dup2\n      eq\n      tag_352\n      jumpi\n      mload(0x40)\n      swap2\n      pop\n      and(add(returndatasize, 0x3f), not(0x1f))\n      dup3\n      add\n      0x40\n      mstore\n      returndatasize\n      dup3\n      mstore\n      returndatasize\n      0x00\n      0x20\n      dup5\n      add\n      returndatacopy\n      jump(tag_351)\n    tag_352:\n      0x60\n      swap2\n      pop\n    tag_351:\n      pop\n        /* \"sosh/Sosh.sol\":5092:5174  (bool creatorFeeSent, ) = payable(ccts[cctId].creator).call{value: creatorFee}(\"\") */\n      pop\n      swap1\n      pop\n        /* \"sosh/Sosh.sol\":5192:5196  sent */\n      dup2\n        /* \"sosh/Sosh.sol\":5192:5214  sent && creatorFeeSent */\n      dup1\n      iszero\n      tag_353\n      jumpi\n      pop\n        /* \"sosh/Sosh.sol\":5200:5214  creatorFeeSent */\n      dup1\n        /* \"sosh/Sosh.sol\":5192:5214  sent && creatorFeeSent */\n    tag_353:\n        /* \"sosh/Sosh.sol\":5184:5239  require(sent && creatorFeeSent, \"Failed to send Ether\") */\n      tag_354\n      jumpi\n      mload(0x40)\n      shl(0xe5, 0x461bcd)\n      dup2\n      mstore\n        /* \"#utility.yul\":18252:18254   */\n      0x20\n        /* \"sosh/Sosh.sol\":5184:5239  require(sent && creatorFeeSent, \"Failed to send Ether\") */\n      0x04\n      dup3\n      add\n        /* \"#utility.yul\":18234:18255   */\n      mstore\n        /* \"#utility.yul\":18291:18293   */\n      0x14\n        /* \"#utility.yul\":18271:18289   */\n      0x24\n      dup3\n      add\n        /* \"#utility.yul\":18264:18294   */\n      mstore\n      shl(0x61, 0x2330b4b632b2103a379039b2b7321022ba3432b9)\n        /* \"#utility.yul\":18310:18328   */\n      0x44\n      dup3\n      add\n        /* \"#utility.yul\":18303:18353   */\n      mstore\n        /* \"#utility.yul\":18370:18388   */\n      0x64\n      add\n        /* \"sosh/Sosh.sol\":5184:5239  require(sent && creatorFeeSent, \"Failed to send Ether\") */\n      tag_191\n        /* \"#utility.yul\":18050:18394   */\n      jump\n        /* \"sosh/Sosh.sol\":5184:5239  require(sent && creatorFeeSent, \"Failed to send Ether\") */\n    tag_354:\n        /* \"sosh/Sosh.sol\":4399:5246  {... */\n      pop\n      pop\n      pop\n      pop\n      pop\n        /* \"sosh/Sosh.sol\":4347:5246  function sell(uint256 cctId, uint256 amount) public {... */\n      pop\n      pop\n      jump\t// out\n        /* \"sosh/ERC1155.sol\":1915:2614  function safeTransferFrom(... */\n    tag_163:\n        /* \"sosh/ERC1155.sol\":2095:2105  msg.sender */\n      caller\n      sub(shl(0xa0, 0x01), 0x01)\n        /* \"sosh/ERC1155.sol\":2095:2113  msg.sender == from */\n      dup8\n      and\n      eq\n      dup1\n        /* \"sosh/ERC1155.sol\":2095:2151  msg.sender == from || isApprovedForAll[from][msg.sender] */\n      tag_357\n      jumpi\n      pop\n      sub(shl(0xa0, 0x01), 0x01)\n        /* \"sosh/ERC1155.sol\":2117:2139  isApprovedForAll[from] */\n      dup7\n      and\n      0x00\n      swap1\n      dup2\n      mstore\n        /* \"sosh/ERC1155.sol\":2117:2133  isApprovedForAll */\n      0x01\n        /* \"sosh/ERC1155.sol\":2117:2139  isApprovedForAll[from] */\n      0x20\n      swap1\n      dup2\n      mstore\n      0x40\n      dup1\n      dup4\n      keccak256\n        /* \"sosh/ERC1155.sol\":2140:2150  msg.sender */\n      caller\n        /* \"sosh/ERC1155.sol\":2117:2151  isApprovedForAll[from][msg.sender] */\n      dup5\n      mstore\n      swap1\n      swap2\n      mstore\n      swap1\n      keccak256\n      sload\n      0xff\n      and\n        /* \"sosh/ERC1155.sol\":2095:2151  msg.sender == from || isApprovedForAll[from][msg.sender] */\n    tag_357:\n        /* \"sosh/ERC1155.sol\":2087:2170  require(msg.sender == from || isApprovedForAll[from][msg.sender], \"NOT_AUTHORIZED\") */\n      tag_358\n      jumpi\n      mload(0x40)\n      shl(0xe5, 0x461bcd)\n      dup2\n      mstore\n        /* \"#utility.yul\":9848:9850   */\n      0x20\n        /* \"sosh/ERC1155.sol\":2087:2170  require(msg.sender == from || isApprovedForAll[from][msg.sender], \"NOT_AUTHORIZED\") */\n      0x04\n      dup3\n      add\n        /* \"#utility.yul\":9830:9851   */\n      mstore\n        /* \"#utility.yul\":9887:9889   */\n      0x0e\n        /* \"#utility.yul\":9867:9885   */\n      0x24\n      dup3\n      add\n        /* \"#utility.yul\":9860:9890   */\n      mstore\n      shl(0x92, 0x1393d517d055551213d492569151)\n        /* \"#utility.yul\":9906:9924   */\n      0x44\n      dup3\n      add\n        /* \"#utility.yul\":9899:9943   */\n      mstore\n        /* \"#utility.yul\":9960:9978   */\n      0x64\n      add\n        /* \"sosh/ERC1155.sol\":2087:2170  require(msg.sender == from || isApprovedForAll[from][msg.sender], \"NOT_AUTHORIZED\") */\n      tag_191\n        /* \"#utility.yul\":9646:9984   */\n      jump\n        /* \"sosh/ERC1155.sol\":2087:2170  require(msg.sender == from || isApprovedForAll[from][msg.sender], \"NOT_AUTHORIZED\") */\n    tag_358:\n      sub(shl(0xa0, 0x01), 0x01)\n        /* \"sosh/ERC1155.sol\":2181:2196  balanceOf[from] */\n      dup7\n      and\n        /* \"sosh/ERC1155.sol\":2181:2190  balanceOf */\n      0x00\n        /* \"sosh/ERC1155.sol\":2181:2196  balanceOf[from] */\n      swap1\n      dup2\n      mstore\n      0x20\n      dup2\n      dup2\n      mstore\n      0x40\n      dup1\n      dup4\n      keccak256\n        /* \"sosh/ERC1155.sol\":2181:2200  balanceOf[from][id] */\n      dup8\n      dup5\n      mstore\n      swap1\n      swap2\n      mstore\n      dup2\n      keccak256\n        /* \"sosh/ERC1155.sol\":2181:2210  balanceOf[from][id] -= amount */\n      dup1\n      sload\n        /* \"sosh/ERC1155.sol\":2204:2210  amount */\n      dup6\n      swap3\n        /* \"sosh/ERC1155.sol\":2181:2190  balanceOf */\n      swap1\n        /* \"sosh/ERC1155.sol\":2181:2210  balanceOf[from][id] -= amount */\n      tag_360\n      swap1\n        /* \"sosh/ERC1155.sol\":2204:2210  amount */\n      dup5\n      swap1\n        /* \"sosh/ERC1155.sol\":2181:2210  balanceOf[from][id] -= amount */\n      tag_206\n      jump\t// in\n    tag_360:\n      swap1\n      swap2\n      sstore\n      pop\n      pop\n      sub(shl(0xa0, 0x01), 0x01)\n        /* \"sosh/ERC1155.sol\":2220:2233  balanceOf[to] */\n      dup6\n      and\n        /* \"sosh/ERC1155.sol\":2220:2229  balanceOf */\n      0x00\n        /* \"sosh/ERC1155.sol\":2220:2233  balanceOf[to] */\n      swap1\n      dup2\n      mstore\n      0x20\n      dup2\n      dup2\n      mstore\n      0x40\n      dup1\n      dup4\n      keccak256\n        /* \"sosh/ERC1155.sol\":2220:2237  balanceOf[to][id] */\n      dup8\n      dup5\n      mstore\n      swap1\n      swap2\n      mstore\n      dup2\n      keccak256\n        /* \"sosh/ERC1155.sol\":2220:2247  balanceOf[to][id] += amount */\n      dup1\n      sload\n        /* \"sosh/ERC1155.sol\":2241:2247  amount */\n      dup6\n      swap3\n        /* \"sosh/ERC1155.sol\":2220:2229  balanceOf */\n      swap1\n        /* \"sosh/ERC1155.sol\":2220:2247  balanceOf[to][id] += amount */\n      tag_361\n      swap1\n        /* \"sosh/ERC1155.sol\":2241:2247  amount */\n      dup5\n      swap1\n        /* \"sosh/ERC1155.sol\":2220:2247  balanceOf[to][id] += amount */\n      tag_179\n      jump\t// in\n    tag_361:\n      swap1\n      swap2\n      sstore\n      pop\n      pop\n        /* \"sosh/ERC1155.sol\":2263:2311  TransferSingle(msg.sender, from, to, id, amount) */\n      0x40\n      dup1\n      mload\n        /* \"#utility.yul\":19330:19355   */\n      dup6\n      dup2\n      mstore\n        /* \"#utility.yul\":19386:19388   */\n      0x20\n        /* \"#utility.yul\":19371:19389   */\n      dup2\n      add\n        /* \"#utility.yul\":19364:19398   */\n      dup6\n      swap1\n      mstore\n      sub(shl(0xa0, 0x01), 0x01)\n        /* \"sosh/ERC1155.sol\":2263:2311  TransferSingle(msg.sender, from, to, id, amount) */\n      dup1\n      dup9\n      and\n      swap3\n      swap1\n      dup10\n      and\n      swap2\n        /* \"sosh/ERC1155.sol\":2278:2288  msg.sender */\n      caller\n      swap2\n        /* \"sosh/ERC1155.sol\":2263:2311  TransferSingle(msg.sender, from, to, id, amount) */\n      0xc3d58168c5ae7397731d063d5bbf3d657854427343f4c083240f7aacaa2d0f62\n      swap2\n        /* \"#utility.yul\":19303:19321   */\n      add\n        /* \"sosh/ERC1155.sol\":2263:2311  TransferSingle(msg.sender, from, to, id, amount) */\n      mload(0x40)\n      dup1\n      swap2\n      sub\n      swap1\n      log4\n      sub(shl(0xa0, 0x01), 0x01)\n        /* \"sosh/ERC1155.sol\":2343:2357  to.code.length */\n      dup6\n      and\n      extcodesize\n        /* \"sosh/ERC1155.sol\":2343:2362  to.code.length == 0 */\n      iszero\n        /* \"sosh/ERC1155.sol\":2343:2565  to.code.length == 0... */\n      tag_364\n      jumpi\n        /* \"sosh/ERC1155.sol\":2416:2494  ERC1155TokenReceiver(to).onERC1155Received(msg.sender, from, id, amount, data) */\n      mload(0x40)\n      shl(0xe0, 0xf23a6e61)\n      dup1\n      dup3\n      mstore\n        /* \"sosh/ERC1155.sol\":2518:2565  ERC1155TokenReceiver.onERC1155Received.selector */\n      swap1\n      sub(shl(0xa0, 0x01), 0x01)\n        /* \"sosh/ERC1155.sol\":2416:2458  ERC1155TokenReceiver(to).onERC1155Received */\n      dup8\n      and\n      swap1\n        /* \"sosh/ERC1155.sol\":2518:2565  ERC1155TokenReceiver.onERC1155Received.selector */\n      0xf23a6e61\n      swap1\n        /* \"sosh/ERC1155.sol\":2416:2494  ERC1155TokenReceiver(to).onERC1155Received(msg.sender, from, id, amount, data) */\n      tag_365\n      swap1\n        /* \"sosh/ERC1155.sol\":2459:2469  msg.sender */\n      caller\n      swap1\n        /* \"sosh/ERC1155.sol\":2471:2475  from */\n      dup12\n      swap1\n        /* \"sosh/ERC1155.sol\":2477:2479  id */\n      dup11\n      swap1\n        /* \"sosh/ERC1155.sol\":2481:2487  amount */\n      dup11\n      swap1\n        /* \"sosh/ERC1155.sol\":2489:2493  data */\n      dup11\n      swap1\n      dup11\n      swap1\n        /* \"sosh/ERC1155.sol\":2416:2494  ERC1155TokenReceiver(to).onERC1155Received(msg.sender, from, id, amount, data) */\n      0x04\n      add\n      tag_366\n      jump\t// in\n    tag_365:\n      0x20\n      mload(0x40)\n      dup1\n      dup4\n      sub\n      dup2\n      0x00\n      dup8\n      gas\n      call\n      iszero\n      dup1\n      iszero\n      tag_368\n      jumpi\n      returndatasize\n      0x00\n      dup1\n      returndatacopy\n      revert(0x00, returndatasize)\n    tag_368:\n      pop\n      pop\n      pop\n      pop\n      mload(0x40)\n      returndatasize\n      not(0x1f)\n      0x1f\n      dup3\n      add\n      and\n      dup3\n      add\n      dup1\n      0x40\n      mstore\n      pop\n      dup2\n      add\n      swap1\n      tag_369\n      swap2\n      swap1\n      tag_216\n      jump\t// in\n    tag_369:\n      not(sub(shl(0xe0, 0x01), 0x01))\n        /* \"sosh/ERC1155.sol\":2416:2565  ERC1155TokenReceiver(to).onERC1155Received(msg.sender, from, id, amount, data) ==... */\n      and\n      eq\n        /* \"sosh/ERC1155.sol\":2343:2565  to.code.length == 0... */\n      jump(tag_370)\n    tag_364:\n      sub(shl(0xa0, 0x01), 0x01)\n        /* \"sosh/ERC1155.sol\":2381:2397  to != address(0) */\n      dup6\n      and\n      iszero\n      iszero\n        /* \"sosh/ERC1155.sol\":2343:2565  to.code.length == 0... */\n    tag_370:\n        /* \"sosh/ERC1155.sol\":2322:2607  require(... */\n      tag_371\n      jumpi\n      mload(0x40)\n      shl(0xe5, 0x461bcd)\n      dup2\n      mstore\n      0x04\n      add\n      tag_191\n      swap1\n      tag_220\n      jump\t// in\n    tag_371:\n        /* \"sosh/ERC1155.sol\":1915:2614  function safeTransferFrom(... */\n      pop\n      pop\n      pop\n      pop\n      pop\n      pop\n      jump\t// out\n        /* \"sosh/Sosh.sol\":2126:2663  function _curve(uint256 x) private pure returns (uint256) {... */\n    tag_251:\n        /* \"sosh/Sosh.sol\":2175:2182  uint256 */\n      0x00\n        /* \"sosh/Sosh.sol\":2203:2204  1 */\n      0x01\n        /* \"sosh/Sosh.sol\":2198:2199  x */\n      dup3\n        /* \"sosh/Sosh.sol\":2198:2204  x <= 1 */\n      gt\n        /* \"sosh/Sosh.sol\":2194:2214  if (x <= 1) return 0 */\n      tag_374\n      jumpi\n      pop\n        /* \"sosh/Sosh.sol\":2213:2214  0 */\n      0x00\n      swap2\n        /* \"sosh/Sosh.sol\":2126:2663  function _curve(uint256 x) private pure returns (uint256) {... */\n      swap1\n      pop\n      jump\t// out\n        /* \"sosh/Sosh.sol\":2194:2214  if (x <= 1) return 0 */\n    tag_374:\n        /* \"sosh/Sosh.sol\":2306:2312  100325 */\n      0x0187e5\n        /* \"sosh/Sosh.sol\":2388:2394  100000 */\n      0x0186a0\n        /* \"sosh/Sosh.sol\":2454:2461  1 ether */\n      0x0de0b6b3a7640000\n        /* \"sosh/Sosh.sol\":2291:2303  uint256 base */\n      0x00\n        /* \"sosh/Sosh.sol\":2541:2633  for(uint256 i = 0; i < x-1; ++i) {... */\n    tag_375:\n        /* \"sosh/Sosh.sol\":2564:2567  x-1 */\n      tag_378\n        /* \"sosh/Sosh.sol\":2566:2567  1 */\n      0x01\n        /* \"sosh/Sosh.sol\":2564:2565  x */\n      dup8\n        /* \"sosh/Sosh.sol\":2564:2567  x-1 */\n      tag_206\n      jump\t// in\n    tag_378:\n        /* \"sosh/Sosh.sol\":2560:2561  i */\n      dup2\n        /* \"sosh/Sosh.sol\":2560:2567  i < x-1 */\n      lt\n        /* \"sosh/Sosh.sol\":2541:2633  for(uint256 i = 0; i < x-1; ++i) {... */\n      iszero\n      tag_240\n      jumpi\n        /* \"sosh/Sosh.sol\":2613:2622  baseScale */\n      dup3\n        /* \"sosh/Sosh.sol\":2597:2610  result * base */\n      tag_379\n        /* \"sosh/Sosh.sol\":2606:2610  base */\n      dup6\n        /* \"sosh/Sosh.sol\":2597:2603  result */\n      dup5\n        /* \"sosh/Sosh.sol\":2597:2610  result * base */\n      tag_175\n      jump\t// in\n    tag_379:\n        /* \"sosh/Sosh.sol\":2597:2622  result * base / baseScale */\n      tag_380\n      swap2\n      swap1\n      tag_177\n      jump\t// in\n    tag_380:\n        /* \"sosh/Sosh.sol\":2588:2622  result = result * base / baseScale */\n      swap2\n      pop\n        /* \"sosh/Sosh.sol\":2569:2572  ++i */\n      0x01\n      add\n        /* \"sosh/Sosh.sol\":2541:2633  for(uint256 i = 0; i < x-1; ++i) {... */\n      jump(tag_375)\n        /* \"sosh/ERC1155.sol\":5140:5685  function _mint(... */\n    tag_283:\n      sub(shl(0xa0, 0x01), 0x01)\n        /* \"sosh/ERC1155.sol\":5279:5292  balanceOf[to] */\n      dup5\n      and\n        /* \"sosh/ERC1155.sol\":5279:5288  balanceOf */\n      0x00\n        /* \"sosh/ERC1155.sol\":5279:5292  balanceOf[to] */\n      swap1\n      dup2\n      mstore\n      0x20\n      dup2\n      dup2\n      mstore\n      0x40\n      dup1\n      dup4\n      keccak256\n        /* \"sosh/ERC1155.sol\":5279:5296  balanceOf[to][id] */\n      dup7\n      dup5\n      mstore\n      swap1\n      swap2\n      mstore\n      dup2\n      keccak256\n        /* \"sosh/ERC1155.sol\":5279:5306  balanceOf[to][id] += amount */\n      dup1\n      sload\n        /* \"sosh/ERC1155.sol\":5300:5306  amount */\n      dup5\n      swap3\n        /* \"sosh/ERC1155.sol\":5279:5288  balanceOf */\n      swap1\n        /* \"sosh/ERC1155.sol\":5279:5306  balanceOf[to][id] += amount */\n      tag_382\n      swap1\n        /* \"sosh/ERC1155.sol\":5300:5306  amount */\n      dup5\n      swap1\n        /* \"sosh/ERC1155.sol\":5279:5306  balanceOf[to][id] += amount */\n      tag_179\n      jump\t// in\n    tag_382:\n      swap1\n      swap2\n      sstore\n      pop\n      pop\n        /* \"sosh/ERC1155.sol\":5322:5376  TransferSingle(msg.sender, address(0), to, id, amount) */\n      0x40\n      dup1\n      mload\n        /* \"#utility.yul\":19330:19355   */\n      dup5\n      dup2\n      mstore\n        /* \"#utility.yul\":19386:19388   */\n      0x20\n        /* \"#utility.yul\":19371:19389   */\n      dup2\n      add\n        /* \"#utility.yul\":19364:19398   */\n      dup5\n      swap1\n      mstore\n      sub(shl(0xa0, 0x01), 0x01)\n        /* \"sosh/ERC1155.sol\":5322:5376  TransferSingle(msg.sender, address(0), to, id, amount) */\n      dup7\n      and\n      swap2\n        /* \"sosh/ERC1155.sol\":5357:5358  0 */\n      0x00\n      swap2\n        /* \"sosh/ERC1155.sol\":5337:5347  msg.sender */\n      caller\n      swap2\n        /* \"sosh/ERC1155.sol\":5322:5376  TransferSingle(msg.sender, address(0), to, id, amount) */\n      0xc3d58168c5ae7397731d063d5bbf3d657854427343f4c083240f7aacaa2d0f62\n      swap2\n        /* \"#utility.yul\":19303:19321   */\n      add\n        /* \"sosh/ERC1155.sol\":5322:5376  TransferSingle(msg.sender, address(0), to, id, amount) */\n      mload(0x40)\n      dup1\n      swap2\n      sub\n      swap1\n      log4\n      sub(shl(0xa0, 0x01), 0x01)\n        /* \"sosh/ERC1155.sol\":5408:5422  to.code.length */\n      dup5\n      and\n      extcodesize\n        /* \"sosh/ERC1155.sol\":5408:5427  to.code.length == 0 */\n      iszero\n        /* \"sosh/ERC1155.sol\":5408:5636  to.code.length == 0... */\n      tag_384\n      jumpi\n        /* \"sosh/ERC1155.sol\":5481:5565  ERC1155TokenReceiver(to).onERC1155Received(msg.sender, address(0), id, amount, data) */\n      mload(0x40)\n      shl(0xe0, 0xf23a6e61)\n      dup1\n      dup3\n      mstore\n        /* \"sosh/ERC1155.sol\":5589:5636  ERC1155TokenReceiver.onERC1155Received.selector */\n      swap1\n      sub(shl(0xa0, 0x01), 0x01)\n        /* \"sosh/ERC1155.sol\":5481:5523  ERC1155TokenReceiver(to).onERC1155Received */\n      dup7\n      and\n      swap1\n        /* \"sosh/ERC1155.sol\":5589:5636  ERC1155TokenReceiver.onERC1155Received.selector */\n      0xf23a6e61\n      swap1\n        /* \"sosh/ERC1155.sol\":5481:5565  ERC1155TokenReceiver(to).onERC1155Received(msg.sender, address(0), id, amount, data) */\n      tag_385\n      swap1\n        /* \"sosh/ERC1155.sol\":5524:5534  msg.sender */\n      caller\n      swap1\n        /* \"sosh/ERC1155.sol\":5544:5545  0 */\n      0x00\n      swap1\n        /* \"sosh/ERC1155.sol\":5548:5550  id */\n      dup10\n      swap1\n        /* \"sosh/ERC1155.sol\":5552:5558  amount */\n      dup10\n      swap1\n        /* \"sosh/ERC1155.sol\":5560:5564  data */\n      dup10\n      swap1\n        /* \"sosh/ERC1155.sol\":5481:5565  ERC1155TokenReceiver(to).onERC1155Received(msg.sender, address(0), id, amount, data) */\n      0x04\n      add\n      tag_386\n      jump\t// in\n    tag_385:\n      0x20\n      mload(0x40)\n      dup1\n      dup4\n      sub\n      dup2\n      0x00\n      dup8\n      gas\n      call\n      iszero\n      dup1\n      iszero\n      tag_388\n      jumpi\n      returndatasize\n      0x00\n      dup1\n      returndatacopy\n      revert(0x00, returndatasize)\n    tag_388:\n      pop\n      pop\n      pop\n      pop\n      mload(0x40)\n      returndatasize\n      not(0x1f)\n      0x1f\n      dup3\n      add\n      and\n      dup3\n      add\n      dup1\n      0x40\n      mstore\n      pop\n      dup2\n      add\n      swap1\n      tag_389\n      swap2\n      swap1\n      tag_216\n      jump\t// in\n    tag_389:\n      not(sub(shl(0xe0, 0x01), 0x01))\n        /* \"sosh/ERC1155.sol\":5481:5636  ERC1155TokenReceiver(to).onERC1155Received(msg.sender, address(0), id, amount, data) ==... */\n      and\n      eq\n        /* \"sosh/ERC1155.sol\":5408:5636  to.code.length == 0... */\n      jump(tag_390)\n    tag_384:\n      sub(shl(0xa0, 0x01), 0x01)\n        /* \"sosh/ERC1155.sol\":5446:5462  to != address(0) */\n      dup5\n      and\n      iszero\n      iszero\n        /* \"sosh/ERC1155.sol\":5408:5636  to.code.length == 0... */\n    tag_390:\n        /* \"sosh/ERC1155.sol\":5387:5678  require(... */\n      tag_391\n      jumpi\n      mload(0x40)\n      shl(0xe5, 0x461bcd)\n      dup2\n      mstore\n      0x04\n      add\n      tag_191\n      swap1\n      tag_220\n      jump\t// in\n    tag_391:\n        /* \"sosh/ERC1155.sol\":5140:5685  function _mint(... */\n      pop\n      pop\n      pop\n      pop\n      jump\t// out\n        /* \"sosh/ERC1155.sol\":7240:7462  function _burn(... */\n    tag_338:\n      sub(shl(0xa0, 0x01), 0x01)\n        /* \"sosh/ERC1155.sol\":7354:7369  balanceOf[from] */\n      dup4\n      and\n        /* \"sosh/ERC1155.sol\":7354:7363  balanceOf */\n      0x00\n        /* \"sosh/ERC1155.sol\":7354:7369  balanceOf[from] */\n      swap1\n      dup2\n      mstore\n      0x20\n      dup2\n      dup2\n      mstore\n      0x40\n      dup1\n      dup4\n      keccak256\n        /* \"sosh/ERC1155.sol\":7354:7373  balanceOf[from][id] */\n      dup6\n      dup5\n      mstore\n      swap1\n      swap2\n      mstore\n      dup2\n      keccak256\n        /* \"sosh/ERC1155.sol\":7354:7383  balanceOf[from][id] -= amount */\n      dup1\n      sload\n        /* \"sosh/ERC1155.sol\":7377:7383  amount */\n      dup4\n      swap3\n        /* \"sosh/ERC1155.sol\":7354:7363  balanceOf */\n      swap1\n        /* \"sosh/ERC1155.sol\":7354:7383  balanceOf[from][id] -= amount */\n      tag_394\n      swap1\n        /* \"sosh/ERC1155.sol\":7377:7383  amount */\n      dup5\n      swap1\n        /* \"sosh/ERC1155.sol\":7354:7383  balanceOf[from][id] -= amount */\n      tag_206\n      jump\t// in\n    tag_394:\n      swap1\n      swap2\n      sstore\n      pop\n      pop\n        /* \"sosh/ERC1155.sol\":7399:7455  TransferSingle(msg.sender, from, address(0), id, amount) */\n      0x40\n      dup1\n      mload\n        /* \"#utility.yul\":19330:19355   */\n      dup4\n      dup2\n      mstore\n        /* \"#utility.yul\":19386:19388   */\n      0x20\n        /* \"#utility.yul\":19371:19389   */\n      dup2\n      add\n        /* \"#utility.yul\":19364:19398   */\n      dup4\n      swap1\n      mstore\n        /* \"sosh/ERC1155.sol\":7440:7441  0 */\n      0x00\n      swap2\n      sub(shl(0xa0, 0x01), 0x01)\n        /* \"sosh/ERC1155.sol\":7399:7455  TransferSingle(msg.sender, from, address(0), id, amount) */\n      dup7\n      and\n      swap2\n        /* \"sosh/ERC1155.sol\":7414:7424  msg.sender */\n      caller\n      swap2\n        /* \"sosh/ERC1155.sol\":7399:7455  TransferSingle(msg.sender, from, address(0), id, amount) */\n      0xc3d58168c5ae7397731d063d5bbf3d657854427343f4c083240f7aacaa2d0f62\n      swap2\n        /* \"#utility.yul\":19303:19321   */\n      add\n        /* \"sosh/ERC1155.sol\":7399:7455  TransferSingle(msg.sender, from, address(0), id, amount) */\n      mload(0x40)\n      dup1\n      swap2\n      sub\n      swap1\n      log4\n        /* \"sosh/ERC1155.sol\":7240:7462  function _burn(... */\n      pop\n      pop\n      pop\n      jump\t// out\n    tag_231:\n      pop\n      dup1\n      sload\n      tag_396\n      swap1\n      tag_182\n      jump\t// in\n    tag_396:\n      0x00\n      dup3\n      sstore\n      dup1\n      0x1f\n      lt\n      tag_398\n      jumpi\n      pop\n      pop\n      jump\t// out\n    tag_398:\n      0x1f\n      add\n      0x20\n      swap1\n      div\n      swap1\n      0x00\n      mstore\n      keccak256(0x00, 0x20)\n      swap1\n      dup2\n      add\n      swap1\n      tag_399\n      swap2\n      swap1\n      tag_400\n      jump\t// in\n    tag_399:\n      pop\n      jump\t// out\n    tag_400:\n    tag_401:\n      dup1\n      dup3\n      gt\n      iszero\n      tag_402\n      jumpi\n      0x00\n      dup2\n      sstore\n      0x01\n      add\n      jump(tag_401)\n    tag_402:\n      pop\n      swap1\n      jump\t// out\n        /* \"#utility.yul\":14:187   */\n    tag_403:\n        /* \"#utility.yul\":82:102   */\n      dup1\n      calldataload\n      sub(shl(0xa0, 0x01), 0x01)\n        /* \"#utility.yul\":131:162   */\n      dup2\n      and\n        /* \"#utility.yul\":121:163   */\n      dup2\n      eq\n        /* \"#utility.yul\":111:181   */\n      tag_417\n      jumpi\n        /* \"#utility.yul\":177:178   */\n      0x00\n        /* \"#utility.yul\":174:175   */\n      dup1\n        /* \"#utility.yul\":167:179   */\n      revert\n        /* \"#utility.yul\":111:181   */\n    tag_417:\n        /* \"#utility.yul\":14:187   */\n      swap2\n      swap1\n      pop\n      jump\t// out\n        /* \"#utility.yul\":192:446   */\n    tag_36:\n        /* \"#utility.yul\":260:266   */\n      0x00\n        /* \"#utility.yul\":268:274   */\n      dup1\n        /* \"#utility.yul\":321:323   */\n      0x40\n        /* \"#utility.yul\":309:318   */\n      dup4\n        /* \"#utility.yul\":300:307   */\n      dup6\n        /* \"#utility.yul\":296:319   */\n      sub\n        /* \"#utility.yul\":292:324   */\n      slt\n        /* \"#utility.yul\":289:341   */\n      iszero\n      tag_419\n      jumpi\n        /* \"#utility.yul\":337:338   */\n      0x00\n        /* \"#utility.yul\":334:335   */\n      dup1\n        /* \"#utility.yul\":327:339   */\n      revert\n        /* \"#utility.yul\":289:341   */\n    tag_419:\n        /* \"#utility.yul\":360:389   */\n      tag_420\n        /* \"#utility.yul\":379:388   */\n      dup4\n        /* \"#utility.yul\":360:389   */\n      tag_403\n      jump\t// in\n    tag_420:\n        /* \"#utility.yul\":350:389   */\n      swap5\n        /* \"#utility.yul\":436:438   */\n      0x20\n        /* \"#utility.yul\":421:439   */\n      swap4\n      swap1\n      swap4\n      add\n        /* \"#utility.yul\":408:440   */\n      calldataload\n      swap4\n      pop\n      pop\n      pop\n        /* \"#utility.yul\":192:446   */\n      jump\t// out\n        /* \"#utility.yul\":633:764   */\n    tag_404:\n      not(sub(shl(0xe0, 0x01), 0x01))\n        /* \"#utility.yul\":707:739   */\n      dup2\n      and\n        /* \"#utility.yul\":697:740   */\n      dup2\n      eq\n        /* \"#utility.yul\":687:758   */\n      tag_399\n      jumpi\n        /* \"#utility.yul\":754:755   */\n      0x00\n        /* \"#utility.yul\":751:752   */\n      dup1\n        /* \"#utility.yul\":744:756   */\n      revert\n        /* \"#utility.yul\":769:1014   */\n    tag_43:\n        /* \"#utility.yul\":827:833   */\n      0x00\n        /* \"#utility.yul\":880:882   */\n      0x20\n        /* \"#utility.yul\":868:877   */\n      dup3\n        /* \"#utility.yul\":859:866   */\n      dup5\n        /* \"#utility.yul\":855:878   */\n      sub\n        /* \"#utility.yul\":851:883   */\n      slt\n        /* \"#utility.yul\":848:900   */\n      iszero\n      tag_425\n      jumpi\n        /* \"#utility.yul\":896:897   */\n      0x00\n        /* \"#utility.yul\":893:894   */\n      dup1\n        /* \"#utility.yul\":886:898   */\n      revert\n        /* \"#utility.yul\":848:900   */\n    tag_425:\n        /* \"#utility.yul\":935:944   */\n      dup2\n        /* \"#utility.yul\":922:945   */\n      calldataload\n        /* \"#utility.yul\":954:984   */\n      tag_257\n        /* \"#utility.yul\":978:983   */\n      dup2\n        /* \"#utility.yul\":954:984   */\n      tag_404\n      jump\t// in\n        /* \"#utility.yul\":1211:1459   */\n    tag_50:\n        /* \"#utility.yul\":1279:1285   */\n      0x00\n        /* \"#utility.yul\":1287:1293   */\n      dup1\n        /* \"#utility.yul\":1340:1342   */\n      0x40\n        /* \"#utility.yul\":1328:1337   */\n      dup4\n        /* \"#utility.yul\":1319:1326   */\n      dup6\n        /* \"#utility.yul\":1315:1338   */\n      sub\n        /* \"#utility.yul\":1311:1343   */\n      slt\n        /* \"#utility.yul\":1308:1360   */\n      iszero\n      tag_429\n      jumpi\n        /* \"#utility.yul\":1356:1357   */\n      0x00\n        /* \"#utility.yul\":1353:1354   */\n      dup1\n        /* \"#utility.yul\":1346:1358   */\n      revert\n        /* \"#utility.yul\":1308:1360   */\n    tag_429:\n      pop\n      pop\n        /* \"#utility.yul\":1379:1402   */\n      dup1\n      calldataload\n      swap3\n        /* \"#utility.yul\":1449:1451   */\n      0x20\n        /* \"#utility.yul\":1434:1452   */\n      swap1\n      swap2\n      add\n        /* \"#utility.yul\":1421:1453   */\n      calldataload\n      swap2\n      pop\n        /* \"#utility.yul\":1211:1459   */\n      jump\t// out\n        /* \"#utility.yul\":1464:1644   */\n    tag_56:\n        /* \"#utility.yul\":1523:1529   */\n      0x00\n        /* \"#utility.yul\":1576:1578   */\n      0x20\n        /* \"#utility.yul\":1564:1573   */\n      dup3\n        /* \"#utility.yul\":1555:1562   */\n      dup5\n        /* \"#utility.yul\":1551:1574   */\n      sub\n        /* \"#utility.yul\":1547:1579   */\n      slt\n        /* \"#utility.yul\":1544:1596   */\n      iszero\n      tag_431\n      jumpi\n        /* \"#utility.yul\":1592:1593   */\n      0x00\n        /* \"#utility.yul\":1589:1590   */\n      dup1\n        /* \"#utility.yul\":1582:1594   */\n      revert\n        /* \"#utility.yul\":1544:1596   */\n    tag_431:\n      pop\n        /* \"#utility.yul\":1615:1638   */\n      calldataload\n      swap2\n        /* \"#utility.yul\":1464:1644   */\n      swap1\n      pop\n      jump\t// out\n        /* \"#utility.yul\":1649:1899   */\n    tag_405:\n        /* \"#utility.yul\":1734:1735   */\n      0x00\n        /* \"#utility.yul\":1744:1857   */\n    tag_433:\n        /* \"#utility.yul\":1758:1764   */\n      dup4\n        /* \"#utility.yul\":1755:1756   */\n      dup2\n        /* \"#utility.yul\":1752:1765   */\n      lt\n        /* \"#utility.yul\":1744:1857   */\n      iszero\n      tag_435\n      jumpi\n        /* \"#utility.yul\":1834:1845   */\n      dup2\n      dup2\n      add\n        /* \"#utility.yul\":1828:1846   */\n      mload\n        /* \"#utility.yul\":1815:1826   */\n      dup4\n      dup3\n      add\n        /* \"#utility.yul\":1808:1847   */\n      mstore\n        /* \"#utility.yul\":1780:1782   */\n      0x20\n        /* \"#utility.yul\":1773:1783   */\n      add\n        /* \"#utility.yul\":1744:1857   */\n      jump(tag_433)\n    tag_435:\n      pop\n      pop\n        /* \"#utility.yul\":1891:1892   */\n      0x00\n        /* \"#utility.yul\":1873:1889   */\n      swap2\n      add\n        /* \"#utility.yul\":1866:1893   */\n      mstore\n        /* \"#utility.yul\":1649:1899   */\n      jump\t// out\n        /* \"#utility.yul\":1904:2175   */\n    tag_406:\n        /* \"#utility.yul\":1946:1949   */\n      0x00\n        /* \"#utility.yul\":1984:1989   */\n      dup2\n        /* \"#utility.yul\":1978:1990   */\n      mload\n        /* \"#utility.yul\":2011:2017   */\n      dup1\n        /* \"#utility.yul\":2006:2009   */\n      dup5\n        /* \"#utility.yul\":1999:2018   */\n      mstore\n        /* \"#utility.yul\":2027:2103   */\n      tag_437\n        /* \"#utility.yul\":2096:2102   */\n      dup2\n        /* \"#utility.yul\":2089:2093   */\n      0x20\n        /* \"#utility.yul\":2084:2087   */\n      dup7\n        /* \"#utility.yul\":2080:2094   */\n      add\n        /* \"#utility.yul\":2073:2077   */\n      0x20\n        /* \"#utility.yul\":2066:2071   */\n      dup7\n        /* \"#utility.yul\":2062:2078   */\n      add\n        /* \"#utility.yul\":2027:2103   */\n      tag_405\n      jump\t// in\n    tag_437:\n        /* \"#utility.yul\":2157:2159   */\n      0x1f\n        /* \"#utility.yul\":2136:2151   */\n      add\n      not(0x1f)\n        /* \"#utility.yul\":2132:2161   */\n      and\n        /* \"#utility.yul\":2123:2162   */\n      swap3\n      swap1\n      swap3\n      add\n        /* \"#utility.yul\":2164:2168   */\n      0x20\n        /* \"#utility.yul\":2119:2169   */\n      add\n      swap3\n        /* \"#utility.yul\":1904:2175   */\n      swap2\n      pop\n      pop\n      jump\t// out\n        /* \"#utility.yul\":2180:2400   */\n    tag_59:\n        /* \"#utility.yul\":2329:2331   */\n      0x20\n        /* \"#utility.yul\":2318:2327   */\n      dup2\n        /* \"#utility.yul\":2311:2332   */\n      mstore\n        /* \"#utility.yul\":2292:2296   */\n      0x00\n        /* \"#utility.yul\":2349:2394   */\n      tag_257\n        /* \"#utility.yul\":2390:2392   */\n      0x20\n        /* \"#utility.yul\":2379:2388   */\n      dup4\n        /* \"#utility.yul\":2375:2393   */\n      add\n        /* \"#utility.yul\":2367:2373   */\n      dup5\n        /* \"#utility.yul\":2349:2394   */\n      tag_406\n      jump\t// in\n        /* \"#utility.yul\":2405:2772   */\n    tag_407:\n        /* \"#utility.yul\":2468:2476   */\n      0x00\n        /* \"#utility.yul\":2478:2484   */\n      dup1\n        /* \"#utility.yul\":2532:2535   */\n      dup4\n        /* \"#utility.yul\":2525:2529   */\n      0x1f\n        /* \"#utility.yul\":2517:2523   */\n      dup5\n        /* \"#utility.yul\":2513:2530   */\n      add\n        /* \"#utility.yul\":2509:2536   */\n      slt\n        /* \"#utility.yul\":2499:2554   */\n      tag_441\n      jumpi\n        /* \"#utility.yul\":2550:2551   */\n      0x00\n        /* \"#utility.yul\":2547:2548   */\n      dup1\n        /* \"#utility.yul\":2540:2552   */\n      revert\n        /* \"#utility.yul\":2499:2554   */\n    tag_441:\n      pop\n        /* \"#utility.yul\":2573:2593   */\n      dup2\n      calldataload\n        /* \"#utility.yul\":2616:2634   */\n      0xffffffffffffffff\n        /* \"#utility.yul\":2605:2635   */\n      dup2\n      gt\n        /* \"#utility.yul\":2602:2652   */\n      iszero\n      tag_442\n      jumpi\n        /* \"#utility.yul\":2648:2649   */\n      0x00\n        /* \"#utility.yul\":2645:2646   */\n      dup1\n        /* \"#utility.yul\":2638:2650   */\n      revert\n        /* \"#utility.yul\":2602:2652   */\n    tag_442:\n        /* \"#utility.yul\":2685:2689   */\n      0x20\n        /* \"#utility.yul\":2677:2683   */\n      dup4\n        /* \"#utility.yul\":2673:2690   */\n      add\n        /* \"#utility.yul\":2661:2690   */\n      swap2\n      pop\n        /* \"#utility.yul\":2745:2748   */\n      dup4\n        /* \"#utility.yul\":2738:2742   */\n      0x20\n        /* \"#utility.yul\":2728:2734   */\n      dup3\n        /* \"#utility.yul\":2725:2726   */\n      0x05\n        /* \"#utility.yul\":2721:2735   */\n      shl\n        /* \"#utility.yul\":2713:2719   */\n      dup6\n        /* \"#utility.yul\":2709:2736   */\n      add\n        /* \"#utility.yul\":2705:2743   */\n      add\n        /* \"#utility.yul\":2702:2749   */\n      gt\n        /* \"#utility.yul\":2699:2766   */\n      iszero\n      tag_443\n      jumpi\n        /* \"#utility.yul\":2762:2763   */\n      0x00\n        /* \"#utility.yul\":2759:2760   */\n      dup1\n        /* \"#utility.yul\":2752:2764   */\n      revert\n        /* \"#utility.yul\":2699:2766   */\n    tag_443:\n        /* \"#utility.yul\":2405:2772   */\n      swap3\n      pop\n      swap3\n      swap1\n      pop\n      jump\t// out\n        /* \"#utility.yul\":2777:3124   */\n    tag_408:\n        /* \"#utility.yul\":2828:2836   */\n      0x00\n        /* \"#utility.yul\":2838:2844   */\n      dup1\n        /* \"#utility.yul\":2892:2895   */\n      dup4\n        /* \"#utility.yul\":2885:2889   */\n      0x1f\n        /* \"#utility.yul\":2877:2883   */\n      dup5\n        /* \"#utility.yul\":2873:2890   */\n      add\n        /* \"#utility.yul\":2869:2896   */\n      slt\n        /* \"#utility.yul\":2859:2914   */\n      tag_445\n      jumpi\n        /* \"#utility.yul\":2910:2911   */\n      0x00\n        /* \"#utility.yul\":2907:2908   */\n      dup1\n        /* \"#utility.yul\":2900:2912   */\n      revert\n        /* \"#utility.yul\":2859:2914   */\n    tag_445:\n      pop\n        /* \"#utility.yul\":2933:2953   */\n      dup2\n      calldataload\n        /* \"#utility.yul\":2976:2994   */\n      0xffffffffffffffff\n        /* \"#utility.yul\":2965:2995   */\n      dup2\n      gt\n        /* \"#utility.yul\":2962:3012   */\n      iszero\n      tag_446\n      jumpi\n        /* \"#utility.yul\":3008:3009   */\n      0x00\n        /* \"#utility.yul\":3005:3006   */\n      dup1\n        /* \"#utility.yul\":2998:3010   */\n      revert\n        /* \"#utility.yul\":2962:3012   */\n    tag_446:\n        /* \"#utility.yul\":3045:3049   */\n      0x20\n        /* \"#utility.yul\":3037:3043   */\n      dup4\n        /* \"#utility.yul\":3033:3050   */\n      add\n        /* \"#utility.yul\":3021:3050   */\n      swap2\n      pop\n        /* \"#utility.yul\":3097:3100   */\n      dup4\n        /* \"#utility.yul\":3090:3094   */\n      0x20\n        /* \"#utility.yul\":3081:3087   */\n      dup3\n        /* \"#utility.yul\":3073:3079   */\n      dup6\n        /* \"#utility.yul\":3069:3088   */\n      add\n        /* \"#utility.yul\":3065:3095   */\n      add\n        /* \"#utility.yul\":3062:3101   */\n      gt\n        /* \"#utility.yul\":3059:3118   */\n      iszero\n      tag_443\n      jumpi\n        /* \"#utility.yul\":3114:3115   */\n      0x00\n        /* \"#utility.yul\":3111:3112   */\n      dup1\n        /* \"#utility.yul\":3104:3116   */\n      revert\n        /* \"#utility.yul\":3129:4339   */\n    tag_68:\n        /* \"#utility.yul\":3289:3295   */\n      0x00\n        /* \"#utility.yul\":3297:3303   */\n      dup1\n        /* \"#utility.yul\":3305:3311   */\n      0x00\n        /* \"#utility.yul\":3313:3319   */\n      dup1\n        /* \"#utility.yul\":3321:3327   */\n      0x00\n        /* \"#utility.yul\":3329:3335   */\n      dup1\n        /* \"#utility.yul\":3337:3343   */\n      0x00\n        /* \"#utility.yul\":3345:3351   */\n      dup1\n        /* \"#utility.yul\":3398:3401   */\n      0xa0\n        /* \"#utility.yul\":3386:3395   */\n      dup10\n        /* \"#utility.yul\":3377:3384   */\n      dup12\n        /* \"#utility.yul\":3373:3396   */\n      sub\n        /* \"#utility.yul\":3369:3402   */\n      slt\n        /* \"#utility.yul\":3366:3419   */\n      iszero\n      tag_449\n      jumpi\n        /* \"#utility.yul\":3415:3416   */\n      0x00\n        /* \"#utility.yul\":3412:3413   */\n      dup1\n        /* \"#utility.yul\":3405:3417   */\n      revert\n        /* \"#utility.yul\":3366:3419   */\n    tag_449:\n        /* \"#utility.yul\":3438:3467   */\n      tag_450\n        /* \"#utility.yul\":3457:3466   */\n      dup10\n        /* \"#utility.yul\":3438:3467   */\n      tag_403\n      jump\t// in\n    tag_450:\n        /* \"#utility.yul\":3428:3467   */\n      swap8\n      pop\n        /* \"#utility.yul\":3486:3524   */\n      tag_451\n        /* \"#utility.yul\":3520:3522   */\n      0x20\n        /* \"#utility.yul\":3509:3518   */\n      dup11\n        /* \"#utility.yul\":3505:3523   */\n      add\n        /* \"#utility.yul\":3486:3524   */\n      tag_403\n      jump\t// in\n    tag_451:\n        /* \"#utility.yul\":3476:3524   */\n      swap7\n      pop\n        /* \"#utility.yul\":3575:3577   */\n      0x40\n        /* \"#utility.yul\":3564:3573   */\n      dup10\n        /* \"#utility.yul\":3560:3578   */\n      add\n        /* \"#utility.yul\":3547:3579   */\n      calldataload\n        /* \"#utility.yul\":3598:3616   */\n      0xffffffffffffffff\n        /* \"#utility.yul\":3639:3641   */\n      dup1\n        /* \"#utility.yul\":3631:3637   */\n      dup3\n        /* \"#utility.yul\":3628:3642   */\n      gt\n        /* \"#utility.yul\":3625:3659   */\n      iszero\n      tag_452\n      jumpi\n        /* \"#utility.yul\":3655:3656   */\n      0x00\n        /* \"#utility.yul\":3652:3653   */\n      dup1\n        /* \"#utility.yul\":3645:3657   */\n      revert\n        /* \"#utility.yul\":3625:3659   */\n    tag_452:\n        /* \"#utility.yul\":3694:3764   */\n      tag_453\n        /* \"#utility.yul\":3756:3763   */\n      dup13\n        /* \"#utility.yul\":3747:3753   */\n      dup4\n        /* \"#utility.yul\":3736:3745   */\n      dup14\n        /* \"#utility.yul\":3732:3754   */\n      add\n        /* \"#utility.yul\":3694:3764   */\n      tag_407\n      jump\t// in\n    tag_453:\n        /* \"#utility.yul\":3783:3791   */\n      swap1\n      swap9\n      pop\n        /* \"#utility.yul\":3668:3764   */\n      swap7\n      pop\n        /* \"#utility.yul\":3871:3873   */\n      0x60\n        /* \"#utility.yul\":3856:3874   */\n      dup12\n      add\n        /* \"#utility.yul\":3843:3875   */\n      calldataload\n      swap2\n      pop\n        /* \"#utility.yul\":3887:3903   */\n      dup1\n      dup3\n      gt\n        /* \"#utility.yul\":3884:3920   */\n      iszero\n      tag_454\n      jumpi\n        /* \"#utility.yul\":3916:3917   */\n      0x00\n        /* \"#utility.yul\":3913:3914   */\n      dup1\n        /* \"#utility.yul\":3906:3918   */\n      revert\n        /* \"#utility.yul\":3884:3920   */\n    tag_454:\n        /* \"#utility.yul\":3955:4027   */\n      tag_455\n        /* \"#utility.yul\":4019:4026   */\n      dup13\n        /* \"#utility.yul\":4008:4016   */\n      dup4\n        /* \"#utility.yul\":3997:4006   */\n      dup14\n        /* \"#utility.yul\":3993:4017   */\n      add\n        /* \"#utility.yul\":3955:4027   */\n      tag_407\n      jump\t// in\n    tag_455:\n        /* \"#utility.yul\":4046:4054   */\n      swap1\n      swap7\n      pop\n        /* \"#utility.yul\":3929:4027   */\n      swap5\n      pop\n        /* \"#utility.yul\":4134:4137   */\n      0x80\n        /* \"#utility.yul\":4119:4138   */\n      dup12\n      add\n        /* \"#utility.yul\":4106:4139   */\n      calldataload\n      swap2\n      pop\n        /* \"#utility.yul\":4151:4167   */\n      dup1\n      dup3\n      gt\n        /* \"#utility.yul\":4148:4184   */\n      iszero\n      tag_456\n      jumpi\n        /* \"#utility.yul\":4180:4181   */\n      0x00\n        /* \"#utility.yul\":4177:4178   */\n      dup1\n        /* \"#utility.yul\":4170:4182   */\n      revert\n        /* \"#utility.yul\":4148:4184   */\n    tag_456:\n      pop\n        /* \"#utility.yul\":4219:4279   */\n      tag_457\n        /* \"#utility.yul\":4271:4278   */\n      dup12\n        /* \"#utility.yul\":4260:4268   */\n      dup3\n        /* \"#utility.yul\":4249:4258   */\n      dup13\n        /* \"#utility.yul\":4245:4269   */\n      add\n        /* \"#utility.yul\":4219:4279   */\n      tag_408\n      jump\t// in\n    tag_457:\n        /* \"#utility.yul\":3129:4339   */\n      swap10\n      swap13\n      swap9\n      swap12\n      pop\n      swap7\n      swap10\n      pop\n      swap5\n      swap8\n      swap4\n      swap7\n      swap3\n      swap6\n        /* \"#utility.yul\":4298:4306   */\n      swap5\n      pop\n      pop\n      pop\n        /* \"#utility.yul\":3129:4339   */\n      jump\t// out\n        /* \"#utility.yul\":4344:5117   */\n    tag_77:\n        /* \"#utility.yul\":4466:4472   */\n      0x00\n        /* \"#utility.yul\":4474:4480   */\n      dup1\n        /* \"#utility.yul\":4482:4488   */\n      0x00\n        /* \"#utility.yul\":4490:4496   */\n      dup1\n        /* \"#utility.yul\":4543:4545   */\n      0x40\n        /* \"#utility.yul\":4531:4540   */\n      dup6\n        /* \"#utility.yul\":4522:4529   */\n      dup8\n        /* \"#utility.yul\":4518:4541   */\n      sub\n        /* \"#utility.yul\":4514:4546   */\n      slt\n        /* \"#utility.yul\":4511:4563   */\n      iszero\n      tag_459\n      jumpi\n        /* \"#utility.yul\":4559:4560   */\n      0x00\n        /* \"#utility.yul\":4556:4557   */\n      dup1\n        /* \"#utility.yul\":4549:4561   */\n      revert\n        /* \"#utility.yul\":4511:4563   */\n    tag_459:\n        /* \"#utility.yul\":4599:4608   */\n      dup5\n        /* \"#utility.yul\":4586:4609   */\n      calldataload\n        /* \"#utility.yul\":4628:4646   */\n      0xffffffffffffffff\n        /* \"#utility.yul\":4669:4671   */\n      dup1\n        /* \"#utility.yul\":4661:4667   */\n      dup3\n        /* \"#utility.yul\":4658:4672   */\n      gt\n        /* \"#utility.yul\":4655:4689   */\n      iszero\n      tag_460\n      jumpi\n        /* \"#utility.yul\":4685:4686   */\n      0x00\n        /* \"#utility.yul\":4682:4683   */\n      dup1\n        /* \"#utility.yul\":4675:4687   */\n      revert\n        /* \"#utility.yul\":4655:4689   */\n    tag_460:\n        /* \"#utility.yul\":4724:4794   */\n      tag_461\n        /* \"#utility.yul\":4786:4793   */\n      dup9\n        /* \"#utility.yul\":4777:4783   */\n      dup4\n        /* \"#utility.yul\":4766:4775   */\n      dup10\n        /* \"#utility.yul\":4762:4784   */\n      add\n        /* \"#utility.yul\":4724:4794   */\n      tag_407\n      jump\t// in\n    tag_461:\n        /* \"#utility.yul\":4813:4821   */\n      swap1\n      swap7\n      pop\n        /* \"#utility.yul\":4698:4794   */\n      swap5\n      pop\n        /* \"#utility.yul\":4901:4903   */\n      0x20\n        /* \"#utility.yul\":4886:4904   */\n      dup8\n      add\n        /* \"#utility.yul\":4873:4905   */\n      calldataload\n      swap2\n      pop\n        /* \"#utility.yul\":4917:4933   */\n      dup1\n      dup3\n      gt\n        /* \"#utility.yul\":4914:4950   */\n      iszero\n      tag_462\n      jumpi\n        /* \"#utility.yul\":4946:4947   */\n      0x00\n        /* \"#utility.yul\":4943:4944   */\n      dup1\n        /* \"#utility.yul\":4936:4948   */\n      revert\n        /* \"#utility.yul\":4914:4950   */\n    tag_462:\n      pop\n        /* \"#utility.yul\":4985:5057   */\n      tag_463\n        /* \"#utility.yul\":5049:5056   */\n      dup8\n        /* \"#utility.yul\":5038:5046   */\n      dup3\n        /* \"#utility.yul\":5027:5036   */\n      dup9\n        /* \"#utility.yul\":5023:5047   */\n      add\n        /* \"#utility.yul\":4985:5057   */\n      tag_407\n      jump\t// in\n    tag_463:\n        /* \"#utility.yul\":4344:5117   */\n      swap6\n      swap9\n      swap5\n      swap8\n      pop\n        /* \"#utility.yul\":5076:5084   */\n      swap6\n      pop\n      pop\n      pop\n      pop\n        /* \"#utility.yul\":4344:5117   */\n      jump\t// out\n        /* \"#utility.yul\":5122:5754   */\n    tag_80:\n        /* \"#utility.yul\":5293:5295   */\n      0x20\n        /* \"#utility.yul\":5345:5366   */\n      dup1\n      dup3\n      mstore\n        /* \"#utility.yul\":5415:5428   */\n      dup3\n      mload\n        /* \"#utility.yul\":5318:5336   */\n      dup3\n      dup3\n      add\n        /* \"#utility.yul\":5437:5459   */\n      dup2\n      swap1\n      mstore\n        /* \"#utility.yul\":5264:5268   */\n      0x00\n      swap2\n        /* \"#utility.yul\":5293:5295   */\n      swap1\n        /* \"#utility.yul\":5516:5531   */\n      dup5\n      dup3\n      add\n      swap1\n        /* \"#utility.yul\":5490:5492   */\n      0x40\n        /* \"#utility.yul\":5475:5493   */\n      dup6\n      add\n      swap1\n        /* \"#utility.yul\":5264:5268   */\n      dup5\n        /* \"#utility.yul\":5559:5728   */\n    tag_465:\n        /* \"#utility.yul\":5573:5579   */\n      dup2\n        /* \"#utility.yul\":5570:5571   */\n      dup2\n        /* \"#utility.yul\":5567:5580   */\n      lt\n        /* \"#utility.yul\":5559:5728   */\n      iszero\n      tag_467\n      jumpi\n        /* \"#utility.yul\":5634:5647   */\n      dup4\n      mload\n        /* \"#utility.yul\":5622:5648   */\n      dup4\n      mstore\n        /* \"#utility.yul\":5703:5718   */\n      swap3\n      dup5\n      add\n      swap3\n        /* \"#utility.yul\":5668:5680   */\n      swap2\n      dup5\n      add\n      swap2\n        /* \"#utility.yul\":5595:5596   */\n      0x01\n        /* \"#utility.yul\":5588:5597   */\n      add\n        /* \"#utility.yul\":5559:5728   */\n      jump(tag_465)\n    tag_467:\n      pop\n        /* \"#utility.yul\":5745:5748   */\n      swap1\n      swap7\n        /* \"#utility.yul\":5122:5754   */\n      swap6\n      pop\n      pop\n      pop\n      pop\n      pop\n      pop\n      jump\t// out\n        /* \"#utility.yul\":5759:6147   */\n    tag_95:\n        /* \"#utility.yul\":5964:5970   */\n      dup4\n        /* \"#utility.yul\":5953:5962   */\n      dup2\n        /* \"#utility.yul\":5946:5971   */\n      mstore\n        /* \"#utility.yul\":6007:6009   */\n      0x60\n        /* \"#utility.yul\":6002:6004   */\n      0x20\n        /* \"#utility.yul\":5991:6000   */\n      dup3\n        /* \"#utility.yul\":5987:6005   */\n      add\n        /* \"#utility.yul\":5980:6010   */\n      mstore\n        /* \"#utility.yul\":5927:5931   */\n      0x00\n        /* \"#utility.yul\":6027:6072   */\n      tag_469\n        /* \"#utility.yul\":6068:6070   */\n      0x60\n        /* \"#utility.yul\":6057:6066   */\n      dup4\n        /* \"#utility.yul\":6053:6071   */\n      add\n        /* \"#utility.yul\":6045:6051   */\n      dup6\n        /* \"#utility.yul\":6027:6072   */\n      tag_406\n      jump\t// in\n    tag_469:\n        /* \"#utility.yul\":6019:6072   */\n      swap1\n      pop\n        /* \"#utility.yul\":6137:6138   */\n      0x01\n        /* \"#utility.yul\":6133:6134   */\n      dup1\n        /* \"#utility.yul\":6128:6131   */\n      0xa0\n        /* \"#utility.yul\":6124:6135   */\n      shl\n        /* \"#utility.yul\":6120:6139   */\n      sub\n        /* \"#utility.yul\":6112:6118   */\n      dup4\n        /* \"#utility.yul\":6108:6140   */\n      and\n        /* \"#utility.yul\":6103:6105   */\n      0x40\n        /* \"#utility.yul\":6092:6101   */\n      dup4\n        /* \"#utility.yul\":6088:6106   */\n      add\n        /* \"#utility.yul\":6081:6141   */\n      mstore\n        /* \"#utility.yul\":5759:6147   */\n      swap5\n      swap4\n      pop\n      pop\n      pop\n      pop\n      jump\t// out\n        /* \"#utility.yul\":6152:6338   */\n    tag_103:\n        /* \"#utility.yul\":6211:6217   */\n      0x00\n        /* \"#utility.yul\":6264:6266   */\n      0x20\n        /* \"#utility.yul\":6252:6261   */\n      dup3\n        /* \"#utility.yul\":6243:6250   */\n      dup5\n        /* \"#utility.yul\":6239:6262   */\n      sub\n        /* \"#utility.yul\":6235:6267   */\n      slt\n        /* \"#utility.yul\":6232:6284   */\n      iszero\n      tag_471\n      jumpi\n        /* \"#utility.yul\":6280:6281   */\n      0x00\n        /* \"#utility.yul\":6277:6278   */\n      dup1\n        /* \"#utility.yul\":6270:6282   */\n      revert\n        /* \"#utility.yul\":6232:6284   */\n    tag_471:\n        /* \"#utility.yul\":6303:6332   */\n      tag_257\n        /* \"#utility.yul\":6322:6331   */\n      dup3\n        /* \"#utility.yul\":6303:6332   */\n      tag_403\n      jump\t// in\n        /* \"#utility.yul\":6528:6875   */\n    tag_120:\n        /* \"#utility.yul\":6593:6599   */\n      0x00\n        /* \"#utility.yul\":6601:6607   */\n      dup1\n        /* \"#utility.yul\":6654:6656   */\n      0x40\n        /* \"#utility.yul\":6642:6651   */\n      dup4\n        /* \"#utility.yul\":6633:6640   */\n      dup6\n        /* \"#utility.yul\":6629:6652   */\n      sub\n        /* \"#utility.yul\":6625:6657   */\n      slt\n        /* \"#utility.yul\":6622:6674   */\n      iszero\n      tag_476\n      jumpi\n        /* \"#utility.yul\":6670:6671   */\n      0x00\n        /* \"#utility.yul\":6667:6668   */\n      dup1\n        /* \"#utility.yul\":6660:6672   */\n      revert\n        /* \"#utility.yul\":6622:6674   */\n    tag_476:\n        /* \"#utility.yul\":6693:6722   */\n      tag_477\n        /* \"#utility.yul\":6712:6721   */\n      dup4\n        /* \"#utility.yul\":6693:6722   */\n      tag_403\n      jump\t// in\n    tag_477:\n        /* \"#utility.yul\":6683:6722   */\n      swap2\n      pop\n        /* \"#utility.yul\":6772:6774   */\n      0x20\n        /* \"#utility.yul\":6761:6770   */\n      dup4\n        /* \"#utility.yul\":6757:6775   */\n      add\n        /* \"#utility.yul\":6744:6776   */\n      calldataload\n        /* \"#utility.yul\":6819:6824   */\n      dup1\n        /* \"#utility.yul\":6812:6825   */\n      iszero\n        /* \"#utility.yul\":6805:6826   */\n      iszero\n        /* \"#utility.yul\":6798:6803   */\n      dup2\n        /* \"#utility.yul\":6795:6827   */\n      eq\n        /* \"#utility.yul\":6785:6845   */\n      tag_478\n      jumpi\n        /* \"#utility.yul\":6841:6842   */\n      0x00\n        /* \"#utility.yul\":6838:6839   */\n      dup1\n        /* \"#utility.yul\":6831:6843   */\n      revert\n        /* \"#utility.yul\":6785:6845   */\n    tag_478:\n        /* \"#utility.yul\":6864:6869   */\n      dup1\n        /* \"#utility.yul\":6854:6869   */\n      swap2\n      pop\n      pop\n        /* \"#utility.yul\":6528:6875   */\n      swap3\n      pop\n      swap3\n      swap1\n      pop\n      jump\t// out\n        /* \"#utility.yul\":6880:7290   */\n    tag_125:\n        /* \"#utility.yul\":6951:6957   */\n      0x00\n        /* \"#utility.yul\":6959:6965   */\n      dup1\n        /* \"#utility.yul\":7012:7014   */\n      0x20\n        /* \"#utility.yul\":7000:7009   */\n      dup4\n        /* \"#utility.yul\":6991:6998   */\n      dup6\n        /* \"#utility.yul\":6987:7010   */\n      sub\n        /* \"#utility.yul\":6983:7015   */\n      slt\n        /* \"#utility.yul\":6980:7032   */\n      iszero\n      tag_480\n      jumpi\n        /* \"#utility.yul\":7028:7029   */\n      0x00\n        /* \"#utility.yul\":7025:7026   */\n      dup1\n        /* \"#utility.yul\":7018:7030   */\n      revert\n        /* \"#utility.yul\":6980:7032   */\n    tag_480:\n        /* \"#utility.yul\":7068:7077   */\n      dup3\n        /* \"#utility.yul\":7055:7078   */\n      calldataload\n        /* \"#utility.yul\":7101:7119   */\n      0xffffffffffffffff\n        /* \"#utility.yul\":7093:7099   */\n      dup2\n        /* \"#utility.yul\":7090:7120   */\n      gt\n        /* \"#utility.yul\":7087:7137   */\n      iszero\n      tag_481\n      jumpi\n        /* \"#utility.yul\":7133:7134   */\n      0x00\n        /* \"#utility.yul\":7130:7131   */\n      dup1\n        /* \"#utility.yul\":7123:7135   */\n      revert\n        /* \"#utility.yul\":7087:7137   */\n    tag_481:\n        /* \"#utility.yul\":7172:7230   */\n      tag_482\n        /* \"#utility.yul\":7222:7229   */\n      dup6\n        /* \"#utility.yul\":7213:7219   */\n      dup3\n        /* \"#utility.yul\":7202:7211   */\n      dup7\n        /* \"#utility.yul\":7198:7220   */\n      add\n        /* \"#utility.yul\":7172:7230   */\n      tag_408\n      jump\t// in\n    tag_482:\n        /* \"#utility.yul\":7249:7257   */\n      swap1\n      swap7\n        /* \"#utility.yul\":7146:7230   */\n      swap1\n      swap6\n      pop\n        /* \"#utility.yul\":6880:7290   */\n      swap4\n      pop\n      pop\n      pop\n      pop\n      jump\t// out\n        /* \"#utility.yul\":7295:7555   */\n    tag_156:\n        /* \"#utility.yul\":7363:7369   */\n      0x00\n        /* \"#utility.yul\":7371:7377   */\n      dup1\n        /* \"#utility.yul\":7424:7426   */\n      0x40\n        /* \"#utility.yul\":7412:7421   */\n      dup4\n        /* \"#utility.yul\":7403:7410   */\n      dup6\n        /* \"#utility.yul\":7399:7422   */\n      sub\n        /* \"#utility.yul\":7395:7427   */\n      slt\n        /* \"#utility.yul\":7392:7444   */\n      iszero\n      tag_484\n      jumpi\n        /* \"#utility.yul\":7440:7441   */\n      0x00\n        /* \"#utility.yul\":7437:7438   */\n      dup1\n        /* \"#utility.yul\":7430:7442   */\n      revert\n        /* \"#utility.yul\":7392:7444   */\n    tag_484:\n        /* \"#utility.yul\":7463:7492   */\n      tag_485\n        /* \"#utility.yul\":7482:7491   */\n      dup4\n        /* \"#utility.yul\":7463:7492   */\n      tag_403\n      jump\t// in\n    tag_485:\n        /* \"#utility.yul\":7453:7492   */\n      swap2\n      pop\n        /* \"#utility.yul\":7511:7549   */\n      tag_486\n        /* \"#utility.yul\":7545:7547   */\n      0x20\n        /* \"#utility.yul\":7534:7543   */\n      dup5\n        /* \"#utility.yul\":7530:7548   */\n      add\n        /* \"#utility.yul\":7511:7549   */\n      tag_403\n      jump\t// in\n    tag_486:\n        /* \"#utility.yul\":7501:7549   */\n      swap1\n      pop\n        /* \"#utility.yul\":7295:7555   */\n      swap3\n      pop\n      swap3\n      swap1\n      pop\n      jump\t// out\n        /* \"#utility.yul\":7560:8255   */\n    tag_162:\n        /* \"#utility.yul\":7666:7672   */\n      0x00\n        /* \"#utility.yul\":7674:7680   */\n      dup1\n        /* \"#utility.yul\":7682:7688   */\n      0x00\n        /* \"#utility.yul\":7690:7696   */\n      dup1\n        /* \"#utility.yul\":7698:7704   */\n      0x00\n        /* \"#utility.yul\":7706:7712   */\n      dup1\n        /* \"#utility.yul\":7759:7762   */\n      0xa0\n        /* \"#utility.yul\":7747:7756   */\n      dup8\n        /* \"#utility.yul\":7738:7745   */\n      dup10\n        /* \"#utility.yul\":7734:7757   */\n      sub\n        /* \"#utility.yul\":7730:7763   */\n      slt\n        /* \"#utility.yul\":7727:7780   */\n      iszero\n      tag_488\n      jumpi\n        /* \"#utility.yul\":7776:7777   */\n      0x00\n        /* \"#utility.yul\":7773:7774   */\n      dup1\n        /* \"#utility.yul\":7766:7778   */\n      revert\n        /* \"#utility.yul\":7727:7780   */\n    tag_488:\n        /* \"#utility.yul\":7799:7828   */\n      tag_489\n        /* \"#utility.yul\":7818:7827   */\n      dup8\n        /* \"#utility.yul\":7799:7828   */\n      tag_403\n      jump\t// in\n    tag_489:\n        /* \"#utility.yul\":7789:7828   */\n      swap6\n      pop\n        /* \"#utility.yul\":7847:7885   */\n      tag_490\n        /* \"#utility.yul\":7881:7883   */\n      0x20\n        /* \"#utility.yul\":7870:7879   */\n      dup9\n        /* \"#utility.yul\":7866:7884   */\n      add\n        /* \"#utility.yul\":7847:7885   */\n      tag_403\n      jump\t// in\n    tag_490:\n        /* \"#utility.yul\":7837:7885   */\n      swap5\n      pop\n        /* \"#utility.yul\":7932:7934   */\n      0x40\n        /* \"#utility.yul\":7921:7930   */\n      dup8\n        /* \"#utility.yul\":7917:7935   */\n      add\n        /* \"#utility.yul\":7904:7936   */\n      calldataload\n        /* \"#utility.yul\":7894:7936   */\n      swap4\n      pop\n        /* \"#utility.yul\":7983:7985   */\n      0x60\n        /* \"#utility.yul\":7972:7981   */\n      dup8\n        /* \"#utility.yul\":7968:7986   */\n      add\n        /* \"#utility.yul\":7955:7987   */\n      calldataload\n        /* \"#utility.yul\":7945:7987   */\n      swap3\n      pop\n        /* \"#utility.yul\":8038:8041   */\n      0x80\n        /* \"#utility.yul\":8027:8036   */\n      dup8\n        /* \"#utility.yul\":8023:8042   */\n      add\n        /* \"#utility.yul\":8010:8043   */\n      calldataload\n        /* \"#utility.yul\":8066:8084   */\n      0xffffffffffffffff\n        /* \"#utility.yul\":8058:8064   */\n      dup2\n        /* \"#utility.yul\":8055:8085   */\n      gt\n        /* \"#utility.yul\":8052:8102   */\n      iszero\n      tag_491\n      jumpi\n        /* \"#utility.yul\":8098:8099   */\n      0x00\n        /* \"#utility.yul\":8095:8096   */\n      dup1\n        /* \"#utility.yul\":8088:8100   */\n      revert\n        /* \"#utility.yul\":8052:8102   */\n    tag_491:\n        /* \"#utility.yul\":8137:8195   */\n      tag_492\n        /* \"#utility.yul\":8187:8194   */\n      dup10\n        /* \"#utility.yul\":8178:8184   */\n      dup3\n        /* \"#utility.yul\":8167:8176   */\n      dup11\n        /* \"#utility.yul\":8163:8185   */\n      add\n        /* \"#utility.yul\":8137:8195   */\n      tag_408\n      jump\t// in\n    tag_492:\n        /* \"#utility.yul\":7560:8255   */\n      swap8\n      swap11\n      swap7\n      swap10\n      pop\n      swap5\n      swap8\n      pop\n      swap3\n      swap6\n        /* \"#utility.yul\":8214:8222   */\n      swap4\n      swap5\n        /* \"#utility.yul\":7560:8255   */\n      swap3\n      pop\n      pop\n      pop\n      jump\t// out\n        /* \"#utility.yul\":8260:8387   */\n    tag_409:\n        /* \"#utility.yul\":8321:8331   */\n      0x4e487b71\n        /* \"#utility.yul\":8316:8319   */\n      0xe0\n        /* \"#utility.yul\":8312:8332   */\n      shl\n        /* \"#utility.yul\":8309:8310   */\n      0x00\n        /* \"#utility.yul\":8302:8333   */\n      mstore\n        /* \"#utility.yul\":8352:8356   */\n      0x11\n        /* \"#utility.yul\":8349:8350   */\n      0x04\n        /* \"#utility.yul\":8342:8357   */\n      mstore\n        /* \"#utility.yul\":8376:8380   */\n      0x24\n        /* \"#utility.yul\":8373:8374   */\n      0x00\n        /* \"#utility.yul\":8366:8381   */\n      revert\n        /* \"#utility.yul\":8392:8560   */\n    tag_175:\n        /* \"#utility.yul\":8465:8474   */\n      dup1\n      dup3\n      mul\n        /* \"#utility.yul\":8496:8505   */\n      dup2\n      iszero\n        /* \"#utility.yul\":8513:8528   */\n      dup3\n      dup3\n      div\n        /* \"#utility.yul\":8507:8529   */\n      dup5\n      eq\n        /* \"#utility.yul\":8493:8530   */\n      or\n        /* \"#utility.yul\":8483:8554   */\n      tag_171\n      jumpi\n        /* \"#utility.yul\":8534:8552   */\n      tag_171\n      tag_409\n      jump\t// in\n        /* \"#utility.yul\":8565:8782   */\n    tag_177:\n        /* \"#utility.yul\":8605:8606   */\n      0x00\n        /* \"#utility.yul\":8631:8632   */\n      dup3\n        /* \"#utility.yul\":8621:8753   */\n      tag_498\n      jumpi\n        /* \"#utility.yul\":8675:8685   */\n      0x4e487b71\n        /* \"#utility.yul\":8670:8673   */\n      0xe0\n        /* \"#utility.yul\":8666:8686   */\n      shl\n        /* \"#utility.yul\":8663:8664   */\n      0x00\n        /* \"#utility.yul\":8656:8687   */\n      mstore\n        /* \"#utility.yul\":8710:8714   */\n      0x12\n        /* \"#utility.yul\":8707:8708   */\n      0x04\n        /* \"#utility.yul\":8700:8715   */\n      mstore\n        /* \"#utility.yul\":8738:8742   */\n      0x24\n        /* \"#utility.yul\":8735:8736   */\n      0x00\n        /* \"#utility.yul\":8728:8743   */\n      revert\n        /* \"#utility.yul\":8621:8753   */\n    tag_498:\n      pop\n        /* \"#utility.yul\":8767:8776   */\n      div\n      swap1\n        /* \"#utility.yul\":8565:8782   */\n      jump\t// out\n        /* \"#utility.yul\":8787:8912   */\n    tag_179:\n        /* \"#utility.yul\":8852:8861   */\n      dup1\n      dup3\n      add\n        /* \"#utility.yul\":8873:8883   */\n      dup1\n      dup3\n      gt\n        /* \"#utility.yul\":8870:8906   */\n      iszero\n      tag_171\n      jumpi\n        /* \"#utility.yul\":8886:8904   */\n      tag_171\n      tag_409\n      jump\t// in\n        /* \"#utility.yul\":8917:9297   */\n    tag_182:\n        /* \"#utility.yul\":8996:8997   */\n      0x01\n        /* \"#utility.yul\":8992:9004   */\n      dup2\n      dup2\n      shr\n      swap1\n        /* \"#utility.yul\":9039:9051   */\n      dup3\n      and\n      dup1\n        /* \"#utility.yul\":9060:9121   */\n      tag_503\n      jumpi\n        /* \"#utility.yul\":9114:9118   */\n      0x7f\n        /* \"#utility.yul\":9106:9112   */\n      dup3\n        /* \"#utility.yul\":9102:9119   */\n      and\n        /* \"#utility.yul\":9092:9119   */\n      swap2\n      pop\n        /* \"#utility.yul\":9060:9121   */\n    tag_503:\n        /* \"#utility.yul\":9167:9169   */\n      0x20\n        /* \"#utility.yul\":9159:9165   */\n      dup3\n        /* \"#utility.yul\":9156:9170   */\n      lt\n        /* \"#utility.yul\":9136:9154   */\n      dup2\n        /* \"#utility.yul\":9133:9171   */\n      sub\n        /* \"#utility.yul\":9130:9291   */\n      tag_504\n      jumpi\n        /* \"#utility.yul\":9213:9223   */\n      0x4e487b71\n        /* \"#utility.yul\":9208:9211   */\n      0xe0\n        /* \"#utility.yul\":9204:9224   */\n      shl\n        /* \"#utility.yul\":9201:9202   */\n      0x00\n        /* \"#utility.yul\":9194:9225   */\n      mstore\n        /* \"#utility.yul\":9248:9252   */\n      0x22\n        /* \"#utility.yul\":9245:9246   */\n      0x04\n        /* \"#utility.yul\":9238:9253   */\n      mstore\n        /* \"#utility.yul\":9276:9280   */\n      0x24\n        /* \"#utility.yul\":9273:9274   */\n      0x00\n        /* \"#utility.yul\":9266:9281   */\n      revert\n        /* \"#utility.yul\":9130:9291   */\n    tag_504:\n      pop\n        /* \"#utility.yul\":8917:9297   */\n      swap2\n      swap1\n      pop\n      jump\t// out\n        /* \"#utility.yul\":9989:10116   */\n    tag_202:\n        /* \"#utility.yul\":10050:10060   */\n      0x4e487b71\n        /* \"#utility.yul\":10045:10048   */\n      0xe0\n        /* \"#utility.yul\":10041:10061   */\n      shl\n        /* \"#utility.yul\":10038:10039   */\n      0x00\n        /* \"#utility.yul\":10031:10062   */\n      mstore\n        /* \"#utility.yul\":10081:10085   */\n      0x32\n        /* \"#utility.yul\":10078:10079   */\n      0x04\n        /* \"#utility.yul\":10071:10086   */\n      mstore\n        /* \"#utility.yul\":10105:10109   */\n      0x24\n        /* \"#utility.yul\":10102:10103   */\n      0x00\n        /* \"#utility.yul\":10095:10110   */\n      revert\n        /* \"#utility.yul\":10121:10249   */\n    tag_206:\n        /* \"#utility.yul\":10188:10197   */\n      dup2\n      dup2\n      sub\n        /* \"#utility.yul\":10209:10220   */\n      dup2\n      dup2\n      gt\n        /* \"#utility.yul\":10206:10243   */\n      iszero\n      tag_171\n      jumpi\n        /* \"#utility.yul\":10223:10241   */\n      tag_171\n      tag_409\n      jump\t// in\n        /* \"#utility.yul\":10254:10565   */\n    tag_410:\n        /* \"#utility.yul\":10342:10361   */\n      dup2\n      dup4\n      mstore\n        /* \"#utility.yul\":10324:10327   */\n      0x00\n      sub(shl(0xfb, 0x01), 0x01)\n        /* \"#utility.yul\":10373:10404   */\n      dup4\n      gt\n        /* \"#utility.yul\":10370:10421   */\n      iszero\n      tag_512\n      jumpi\n        /* \"#utility.yul\":10417:10418   */\n      0x00\n        /* \"#utility.yul\":10414:10415   */\n      dup1\n        /* \"#utility.yul\":10407:10419   */\n      revert\n        /* \"#utility.yul\":10370:10421   */\n    tag_512:\n        /* \"#utility.yul\":10453:10459   */\n      dup3\n        /* \"#utility.yul\":10450:10451   */\n      0x05\n        /* \"#utility.yul\":10446:10460   */\n      shl\n        /* \"#utility.yul\":10505:10513   */\n      dup1\n        /* \"#utility.yul\":10498:10503   */\n      dup4\n        /* \"#utility.yul\":10491:10495   */\n      0x20\n        /* \"#utility.yul\":10486:10489   */\n      dup8\n        /* \"#utility.yul\":10482:10496   */\n      add\n        /* \"#utility.yul\":10469:10514   */\n      calldatacopy\n        /* \"#utility.yul\":10534:10552   */\n      swap4\n      swap1\n      swap4\n      add\n        /* \"#utility.yul\":10554:10558   */\n      0x20\n        /* \"#utility.yul\":10530:10559   */\n      add\n      swap4\n        /* \"#utility.yul\":10254:10565   */\n      swap3\n      pop\n      pop\n      pop\n      jump\t// out\n        /* \"#utility.yul\":10570:11089   */\n    tag_209:\n        /* \"#utility.yul\":10847:10849   */\n      0x40\n        /* \"#utility.yul\":10836:10845   */\n      dup2\n        /* \"#utility.yul\":10829:10850   */\n      mstore\n        /* \"#utility.yul\":10810:10814   */\n      0x00\n        /* \"#utility.yul\":10873:10946   */\n      tag_514\n        /* \"#utility.yul\":10942:10944   */\n      0x40\n        /* \"#utility.yul\":10931:10940   */\n      dup4\n        /* \"#utility.yul\":10927:10945   */\n      add\n        /* \"#utility.yul\":10919:10925   */\n      dup7\n        /* \"#utility.yul\":10911:10917   */\n      dup9\n        /* \"#utility.yul\":10873:10946   */\n      tag_410\n      jump\t// in\n    tag_514:\n        /* \"#utility.yul\":10994:11003   */\n      dup3\n        /* \"#utility.yul\":10986:10992   */\n      dup2\n        /* \"#utility.yul\":10982:11004   */\n      sub\n        /* \"#utility.yul\":10977:10979   */\n      0x20\n        /* \"#utility.yul\":10966:10975   */\n      dup5\n        /* \"#utility.yul\":10962:10980   */\n      add\n        /* \"#utility.yul\":10955:11005   */\n      mstore\n        /* \"#utility.yul\":11022:11083   */\n      tag_515\n        /* \"#utility.yul\":11076:11082   */\n      dup2\n        /* \"#utility.yul\":11068:11074   */\n      dup6\n        /* \"#utility.yul\":11060:11066   */\n      dup8\n        /* \"#utility.yul\":11022:11083   */\n      tag_410\n      jump\t// in\n    tag_515:\n        /* \"#utility.yul\":11014:11083   */\n      swap8\n        /* \"#utility.yul\":10570:11089   */\n      swap7\n      pop\n      pop\n      pop\n      pop\n      pop\n      pop\n      pop\n      jump\t// out\n        /* \"#utility.yul\":11094:11360   */\n    tag_411:\n        /* \"#utility.yul\":11182:11188   */\n      dup2\n        /* \"#utility.yul\":11177:11180   */\n      dup4\n        /* \"#utility.yul\":11170:11189   */\n      mstore\n        /* \"#utility.yul\":11234:11240   */\n      dup2\n        /* \"#utility.yul\":11227:11232   */\n      dup2\n        /* \"#utility.yul\":11220:11224   */\n      0x20\n        /* \"#utility.yul\":11215:11218   */\n      dup6\n        /* \"#utility.yul\":11211:11225   */\n      add\n        /* \"#utility.yul\":11198:11241   */\n      calldatacopy\n      pop\n        /* \"#utility.yul\":11286:11287   */\n      0x00\n        /* \"#utility.yul\":11261:11277   */\n      dup3\n      dup3\n      add\n        /* \"#utility.yul\":11279:11283   */\n      0x20\n        /* \"#utility.yul\":11257:11284   */\n      swap1\n      dup2\n      add\n        /* \"#utility.yul\":11250:11288   */\n      swap2\n      swap1\n      swap2\n      mstore\n        /* \"#utility.yul\":11342:11344   */\n      0x1f\n        /* \"#utility.yul\":11321:11336   */\n      swap1\n      swap2\n      add\n      not(0x1f)\n        /* \"#utility.yul\":11317:11346   */\n      and\n        /* \"#utility.yul\":11308:11347   */\n      swap1\n      swap2\n      add\n        /* \"#utility.yul\":11304:11354   */\n      add\n      swap1\n        /* \"#utility.yul\":11094:11360   */\n      jump\t// out\n        /* \"#utility.yul\":11365:12272   */\n    tag_212:\n      sub(shl(0xa0, 0x01), 0x01)\n        /* \"#utility.yul\":11792:11807   */\n      dup10\n      dup2\n      and\n        /* \"#utility.yul\":11774:11808   */\n      dup3\n      mstore\n        /* \"#utility.yul\":11844:11859   */\n      dup9\n      and\n        /* \"#utility.yul\":11839:11841   */\n      0x20\n        /* \"#utility.yul\":11824:11842   */\n      dup3\n      add\n        /* \"#utility.yul\":11817:11860   */\n      mstore\n        /* \"#utility.yul\":11754:11757   */\n      0xa0\n        /* \"#utility.yul\":11891:11893   */\n      0x40\n        /* \"#utility.yul\":11876:11894   */\n      dup3\n      add\n        /* \"#utility.yul\":11869:11900   */\n      dup2\n      swap1\n      mstore\n        /* \"#utility.yul\":11717:11721   */\n      0x00\n      swap1\n        /* \"#utility.yul\":11923:11997   */\n      tag_518\n      swap1\n        /* \"#utility.yul\":11977:11996   */\n      dup4\n      add\n        /* \"#utility.yul\":11969:11975   */\n      dup9\n        /* \"#utility.yul\":11961:11967   */\n      dup11\n        /* \"#utility.yul\":11923:11997   */\n      tag_410\n      jump\t// in\n    tag_518:\n        /* \"#utility.yul\":12045:12054   */\n      dup3\n        /* \"#utility.yul\":12037:12043   */\n      dup2\n        /* \"#utility.yul\":12033:12055   */\n      sub\n        /* \"#utility.yul\":12028:12030   */\n      0x60\n        /* \"#utility.yul\":12017:12026   */\n      dup5\n        /* \"#utility.yul\":12013:12031   */\n      add\n        /* \"#utility.yul\":12006:12056   */\n      mstore\n        /* \"#utility.yul\":12079:12140   */\n      tag_519\n        /* \"#utility.yul\":12133:12139   */\n      dup2\n        /* \"#utility.yul\":12125:12131   */\n      dup8\n        /* \"#utility.yul\":12117:12123   */\n      dup10\n        /* \"#utility.yul\":12079:12140   */\n      tag_410\n      jump\t// in\n    tag_519:\n        /* \"#utility.yul\":12065:12140   */\n      swap1\n      pop\n        /* \"#utility.yul\":12189:12198   */\n      dup3\n        /* \"#utility.yul\":12181:12187   */\n      dup2\n        /* \"#utility.yul\":12177:12199   */\n      sub\n        /* \"#utility.yul\":12171:12174   */\n      0x80\n        /* \"#utility.yul\":12160:12169   */\n      dup5\n        /* \"#utility.yul\":12156:12175   */\n      add\n        /* \"#utility.yul\":12149:12200   */\n      mstore\n        /* \"#utility.yul\":12217:12266   */\n      tag_520\n        /* \"#utility.yul\":12259:12265   */\n      dup2\n        /* \"#utility.yul\":12251:12257   */\n      dup6\n        /* \"#utility.yul\":12243:12249   */\n      dup8\n        /* \"#utility.yul\":12217:12266   */\n      tag_411\n      jump\t// in\n    tag_520:\n        /* \"#utility.yul\":12209:12266   */\n      swap12\n        /* \"#utility.yul\":11365:12272   */\n      swap11\n      pop\n      pop\n      pop\n      pop\n      pop\n      pop\n      pop\n      pop\n      pop\n      pop\n      pop\n      jump\t// out\n        /* \"#utility.yul\":12277:12526   */\n    tag_216:\n        /* \"#utility.yul\":12346:12352   */\n      0x00\n        /* \"#utility.yul\":12399:12401   */\n      0x20\n        /* \"#utility.yul\":12387:12396   */\n      dup3\n        /* \"#utility.yul\":12378:12385   */\n      dup5\n        /* \"#utility.yul\":12374:12397   */\n      sub\n        /* \"#utility.yul\":12370:12402   */\n      slt\n        /* \"#utility.yul\":12367:12419   */\n      iszero\n      tag_522\n      jumpi\n        /* \"#utility.yul\":12415:12416   */\n      0x00\n        /* \"#utility.yul\":12412:12413   */\n      dup1\n        /* \"#utility.yul\":12405:12417   */\n      revert\n        /* \"#utility.yul\":12367:12419   */\n    tag_522:\n        /* \"#utility.yul\":12447:12456   */\n      dup2\n        /* \"#utility.yul\":12441:12457   */\n      mload\n        /* \"#utility.yul\":12466:12496   */\n      tag_257\n        /* \"#utility.yul\":12490:12495   */\n      dup2\n        /* \"#utility.yul\":12466:12496   */\n      tag_404\n      jump\t// in\n        /* \"#utility.yul\":12531:12871   */\n    tag_220:\n        /* \"#utility.yul\":12733:12735   */\n      0x20\n        /* \"#utility.yul\":12715:12736   */\n      dup1\n      dup3\n      mstore\n        /* \"#utility.yul\":12772:12774   */\n      0x10\n        /* \"#utility.yul\":12752:12770   */\n      swap1\n      dup3\n      add\n        /* \"#utility.yul\":12745:12775   */\n      mstore\n      shl(0x82, 0x155394d0519157d49150d25412515395)\n        /* \"#utility.yul\":12806:12808   */\n      0x40\n        /* \"#utility.yul\":12791:12809   */\n      dup3\n      add\n        /* \"#utility.yul\":12784:12830   */\n      mstore\n        /* \"#utility.yul\":12862:12864   */\n      0x60\n        /* \"#utility.yul\":12847:12865   */\n      add\n      swap1\n        /* \"#utility.yul\":12531:12871   */\n      jump\t// out\n        /* \"#utility.yul\":12876:13165   */\n    tag_229:\n        /* \"#utility.yul\":13007:13010   */\n      0x00\n        /* \"#utility.yul\":13045:13051   */\n      dup3\n        /* \"#utility.yul\":13039:13052   */\n      mload\n        /* \"#utility.yul\":13061:13127   */\n      tag_526\n        /* \"#utility.yul\":13120:13126   */\n      dup2\n        /* \"#utility.yul\":13115:13118   */\n      dup5\n        /* \"#utility.yul\":13108:13112   */\n      0x20\n        /* \"#utility.yul\":13100:13106   */\n      dup8\n        /* \"#utility.yul\":13096:13113   */\n      add\n        /* \"#utility.yul\":13061:13127   */\n      tag_405\n      jump\t// in\n    tag_526:\n        /* \"#utility.yul\":13143:13159   */\n      swap2\n      swap1\n      swap2\n      add\n      swap3\n        /* \"#utility.yul\":12876:13165   */\n      swap2\n      pop\n      pop\n      jump\t// out\n        /* \"#utility.yul\":13170:13297   */\n    tag_237:\n        /* \"#utility.yul\":13231:13241   */\n      0x4e487b71\n        /* \"#utility.yul\":13226:13229   */\n      0xe0\n        /* \"#utility.yul\":13222:13242   */\n      shl\n        /* \"#utility.yul\":13219:13220   */\n      0x00\n        /* \"#utility.yul\":13212:13243   */\n      mstore\n        /* \"#utility.yul\":13262:13266   */\n      0x41\n        /* \"#utility.yul\":13259:13260   */\n      0x04\n        /* \"#utility.yul\":13252:13267   */\n      mstore\n        /* \"#utility.yul\":13286:13290   */\n      0x24\n        /* \"#utility.yul\":13283:13284   */\n      0x00\n        /* \"#utility.yul\":13276:13291   */\n      revert\n        /* \"#utility.yul\":13302:13575   */\n    tag_273:\n        /* \"#utility.yul\":13487:13493   */\n      dup2\n        /* \"#utility.yul\":13479:13485   */\n      dup4\n        /* \"#utility.yul\":13474:13477   */\n      dup3\n        /* \"#utility.yul\":13461:13494   */\n      calldatacopy\n        /* \"#utility.yul\":13443:13446   */\n      0x00\n        /* \"#utility.yul\":13513:13529   */\n      swap2\n      add\n        /* \"#utility.yul\":13538:13551   */\n      swap1\n      dup2\n      mstore\n        /* \"#utility.yul\":13513:13529   */\n      swap2\n        /* \"#utility.yul\":13302:13575   */\n      swap1\n      pop\n      jump\t// out\n        /* \"#utility.yul\":14053:14571   */\n    tag_413:\n        /* \"#utility.yul\":14155:14157   */\n      0x1f\n        /* \"#utility.yul\":14150:14153   */\n      dup3\n        /* \"#utility.yul\":14147:14158   */\n      gt\n        /* \"#utility.yul\":14144:14565   */\n      iszero\n      tag_532\n      jumpi\n        /* \"#utility.yul\":14191:14196   */\n      dup1\n        /* \"#utility.yul\":14188:14189   */\n      0x00\n        /* \"#utility.yul\":14181:14197   */\n      mstore\n        /* \"#utility.yul\":14235:14239   */\n      0x20\n        /* \"#utility.yul\":14232:14233   */\n      0x00\n        /* \"#utility.yul\":14222:14240   */\n      keccak256\n        /* \"#utility.yul\":14305:14307   */\n      0x1f\n        /* \"#utility.yul\":14293:14303   */\n      dup5\n        /* \"#utility.yul\":14289:14308   */\n      add\n        /* \"#utility.yul\":14286:14287   */\n      0x05\n        /* \"#utility.yul\":14282:14309   */\n      shr\n        /* \"#utility.yul\":14276:14280   */\n      dup2\n        /* \"#utility.yul\":14272:14310   */\n      add\n        /* \"#utility.yul\":14341:14345   */\n      0x20\n        /* \"#utility.yul\":14329:14339   */\n      dup6\n        /* \"#utility.yul\":14326:14346   */\n      lt\n        /* \"#utility.yul\":14323:14370   */\n      iszero\n      tag_533\n      jumpi\n      pop\n        /* \"#utility.yul\":14364:14368   */\n      dup1\n        /* \"#utility.yul\":14323:14370   */\n    tag_533:\n        /* \"#utility.yul\":14419:14421   */\n      0x1f\n        /* \"#utility.yul\":14414:14417   */\n      dup5\n        /* \"#utility.yul\":14410:14422   */\n      add\n        /* \"#utility.yul\":14407:14408   */\n      0x05\n        /* \"#utility.yul\":14403:14423   */\n      shr\n        /* \"#utility.yul\":14397:14401   */\n      dup3\n        /* \"#utility.yul\":14393:14424   */\n      add\n        /* \"#utility.yul\":14383:14424   */\n      swap2\n      pop\n        /* \"#utility.yul\":14474:14555   */\n    tag_534:\n        /* \"#utility.yul\":14492:14494   */\n      dup2\n        /* \"#utility.yul\":14485:14490   */\n      dup2\n        /* \"#utility.yul\":14482:14495   */\n      lt\n        /* \"#utility.yul\":14474:14555   */\n      iszero\n      tag_321\n      jumpi\n        /* \"#utility.yul\":14551:14552   */\n      0x00\n        /* \"#utility.yul\":14537:14553   */\n      dup2\n      sstore\n        /* \"#utility.yul\":14518:14519   */\n      0x01\n        /* \"#utility.yul\":14507:14520   */\n      add\n        /* \"#utility.yul\":14474:14555   */\n      jump(tag_534)\n        /* \"#utility.yul\":14144:14565   */\n    tag_532:\n        /* \"#utility.yul\":14053:14571   */\n      pop\n      pop\n      pop\n      jump\t// out\n        /* \"#utility.yul\":14747:16092   */\n    tag_278:\n        /* \"#utility.yul\":14873:14876   */\n      dup2\n        /* \"#utility.yul\":14867:14877   */\n      mload\n        /* \"#utility.yul\":14900:14918   */\n      0xffffffffffffffff\n        /* \"#utility.yul\":14892:14898   */\n      dup2\n        /* \"#utility.yul\":14889:14919   */\n      gt\n        /* \"#utility.yul\":14886:14942   */\n      iszero\n      tag_540\n      jumpi\n        /* \"#utility.yul\":14922:14940   */\n      tag_540\n      tag_237\n      jump\t// in\n    tag_540:\n        /* \"#utility.yul\":14951:15048   */\n      tag_541\n        /* \"#utility.yul\":15041:15047   */\n      dup2\n        /* \"#utility.yul\":15001:15039   */\n      tag_542\n        /* \"#utility.yul\":15033:15037   */\n      dup5\n        /* \"#utility.yul\":15027:15038   */\n      sload\n        /* \"#utility.yul\":15001:15039   */\n      tag_182\n      jump\t// in\n    tag_542:\n        /* \"#utility.yul\":14995:14999   */\n      dup5\n        /* \"#utility.yul\":14951:15048   */\n      tag_413\n      jump\t// in\n    tag_541:\n        /* \"#utility.yul\":15103:15107   */\n      0x20\n      dup1\n        /* \"#utility.yul\":15160:15162   */\n      0x1f\n        /* \"#utility.yul\":15149:15163   */\n      dup4\n      gt\n        /* \"#utility.yul\":15177:15178   */\n      0x01\n        /* \"#utility.yul\":15172:15835   */\n      dup2\n      eq\n      tag_544\n      jumpi\n        /* \"#utility.yul\":15879:15880   */\n      0x00\n        /* \"#utility.yul\":15896:15902   */\n      dup5\n        /* \"#utility.yul\":15893:15982   */\n      iszero\n      tag_545\n      jumpi\n      pop\n        /* \"#utility.yul\":15948:15967   */\n      dup6\n      dup4\n      add\n        /* \"#utility.yul\":15942:15968   */\n      mload\n        /* \"#utility.yul\":15893:15982   */\n    tag_545:\n      not(0x00)\n        /* \"#utility.yul\":14704:14705   */\n      0x03\n        /* \"#utility.yul\":14700:14711   */\n      dup7\n      swap1\n      shl\n        /* \"#utility.yul\":14696:14720   */\n      shr\n        /* \"#utility.yul\":14692:14721   */\n      not\n        /* \"#utility.yul\":14682:14722   */\n      and\n        /* \"#utility.yul\":14728:14729   */\n      0x01\n        /* \"#utility.yul\":14724:14735   */\n      dup6\n      swap1\n      shl\n        /* \"#utility.yul\":14679:14736   */\n      or\n        /* \"#utility.yul\":15995:16076   */\n      dup6\n      sstore\n        /* \"#utility.yul\":15142:16086   */\n      jump(tag_371)\n        /* \"#utility.yul\":15172:15835   */\n    tag_544:\n        /* \"#utility.yul\":14000:14001   */\n      0x00\n        /* \"#utility.yul\":13993:14007   */\n      dup6\n      dup2\n      mstore\n        /* \"#utility.yul\":14037:14041   */\n      0x20\n        /* \"#utility.yul\":14024:14042   */\n      dup2\n      keccak256\n      not(0x1f)\n        /* \"#utility.yul\":15208:15228   */\n      dup7\n      and\n      swap2\n        /* \"#utility.yul\":15326:15562   */\n    tag_548:\n        /* \"#utility.yul\":15340:15347   */\n      dup3\n        /* \"#utility.yul\":15337:15338   */\n      dup2\n        /* \"#utility.yul\":15334:15348   */\n      lt\n        /* \"#utility.yul\":15326:15562   */\n      iszero\n      tag_550\n      jumpi\n        /* \"#utility.yul\":15429:15448   */\n      dup9\n      dup7\n      add\n        /* \"#utility.yul\":15423:15449   */\n      mload\n        /* \"#utility.yul\":15408:15450   */\n      dup3\n      sstore\n        /* \"#utility.yul\":15521:15548   */\n      swap5\n      dup5\n      add\n      swap5\n        /* \"#utility.yul\":15489:15490   */\n      0x01\n        /* \"#utility.yul\":15477:15491   */\n      swap1\n      swap2\n      add\n      swap1\n        /* \"#utility.yul\":15356:15375   */\n      dup5\n      add\n        /* \"#utility.yul\":15326:15562   */\n      jump(tag_548)\n    tag_550:\n        /* \"#utility.yul\":15330:15333   */\n      pop\n        /* \"#utility.yul\":15590:15596   */\n      dup6\n        /* \"#utility.yul\":15581:15588   */\n      dup3\n        /* \"#utility.yul\":15578:15597   */\n      lt\n        /* \"#utility.yul\":15575:15776   */\n      iszero\n      tag_551\n      jumpi\n        /* \"#utility.yul\":15651:15670   */\n      dup8\n      dup6\n      add\n        /* \"#utility.yul\":15645:15671   */\n      mload\n      not(0x00)\n        /* \"#utility.yul\":15734:15735   */\n      0x03\n        /* \"#utility.yul\":15730:15744   */\n      dup9\n      swap1\n      shl\n        /* \"#utility.yul\":15746:15749   */\n      0xf8\n        /* \"#utility.yul\":15726:15750   */\n      and\n        /* \"#utility.yul\":15722:15759   */\n      shr\n        /* \"#utility.yul\":15718:15760   */\n      not\n        /* \"#utility.yul\":15703:15761   */\n      and\n        /* \"#utility.yul\":15688:15762   */\n      dup2\n      sstore\n        /* \"#utility.yul\":15575:15776   */\n    tag_551:\n      pop\n      pop\n      pop\n      pop\n      pop\n        /* \"#utility.yul\":15822:15823   */\n      0x01\n        /* \"#utility.yul\":15806:15820   */\n      swap1\n      dup2\n      shl\n        /* \"#utility.yul\":15802:15824   */\n      add\n        /* \"#utility.yul\":15789:15825   */\n      swap1\n      sstore\n      pop\n        /* \"#utility.yul\":14747:16092   */\n      jump\t// out\n        /* \"#utility.yul\":16097:16343   */\n    tag_285:\n        /* \"#utility.yul\":16256:16258   */\n      0x20\n        /* \"#utility.yul\":16245:16254   */\n      dup2\n        /* \"#utility.yul\":16238:16259   */\n      mstore\n        /* \"#utility.yul\":16219:16223   */\n      0x00\n        /* \"#utility.yul\":16276:16337   */\n      tag_553\n        /* \"#utility.yul\":16333:16335   */\n      0x20\n        /* \"#utility.yul\":16322:16331   */\n      dup4\n        /* \"#utility.yul\":16318:16336   */\n      add\n        /* \"#utility.yul\":16310:16316   */\n      dup5\n        /* \"#utility.yul\":16302:16308   */\n      dup7\n        /* \"#utility.yul\":16276:16337   */\n      tag_411\n      jump\t// in\n    tag_553:\n        /* \"#utility.yul\":16268:16337   */\n      swap5\n        /* \"#utility.yul\":16097:16343   */\n      swap4\n      pop\n      pop\n      pop\n      pop\n      jump\t// out\n        /* \"#utility.yul\":19409:19996   */\n    tag_366:\n      sub(shl(0xa0, 0x01), 0x01)\n        /* \"#utility.yul\":19716:19731   */\n      dup8\n      dup2\n      and\n        /* \"#utility.yul\":19698:19732   */\n      dup3\n      mstore\n        /* \"#utility.yul\":19768:19783   */\n      dup7\n      and\n        /* \"#utility.yul\":19763:19765   */\n      0x20\n        /* \"#utility.yul\":19748:19766   */\n      dup3\n      add\n        /* \"#utility.yul\":19741:19784   */\n      mstore\n        /* \"#utility.yul\":19815:19817   */\n      0x40\n        /* \"#utility.yul\":19800:19818   */\n      dup2\n      add\n        /* \"#utility.yul\":19793:19827   */\n      dup6\n      swap1\n      mstore\n        /* \"#utility.yul\":19858:19860   */\n      0x60\n        /* \"#utility.yul\":19843:19861   */\n      dup2\n      add\n        /* \"#utility.yul\":19836:19870   */\n      dup5\n      swap1\n      mstore\n        /* \"#utility.yul\":19678:19681   */\n      0xa0\n        /* \"#utility.yul\":19901:19904   */\n      0x80\n        /* \"#utility.yul\":19886:19905   */\n      dup3\n      add\n        /* \"#utility.yul\":19879:19911   */\n      dup2\n      swap1\n      mstore\n        /* \"#utility.yul\":19641:19645   */\n      0x00\n      swap1\n        /* \"#utility.yul\":19928:19990   */\n      tag_565\n      swap1\n        /* \"#utility.yul\":19970:19989   */\n      dup4\n      add\n        /* \"#utility.yul\":19962:19968   */\n      dup5\n        /* \"#utility.yul\":19954:19960   */\n      dup7\n        /* \"#utility.yul\":19928:19990   */\n      tag_411\n      jump\t// in\n    tag_565:\n        /* \"#utility.yul\":19920:19990   */\n      swap9\n        /* \"#utility.yul\":19409:19996   */\n      swap8\n      pop\n      pop\n      pop\n      pop\n      pop\n      pop\n      pop\n      pop\n      jump\t// out\n        /* \"#utility.yul\":20001:20562   */\n    tag_386:\n      sub(shl(0xa0, 0x01), 0x01)\n        /* \"#utility.yul\":20298:20313   */\n      dup7\n      dup2\n      and\n        /* \"#utility.yul\":20280:20314   */\n      dup3\n      mstore\n        /* \"#utility.yul\":20350:20365   */\n      dup6\n      and\n        /* \"#utility.yul\":20345:20347   */\n      0x20\n        /* \"#utility.yul\":20330:20348   */\n      dup3\n      add\n        /* \"#utility.yul\":20323:20366   */\n      mstore\n        /* \"#utility.yul\":20397:20399   */\n      0x40\n        /* \"#utility.yul\":20382:20400   */\n      dup2\n      add\n        /* \"#utility.yul\":20375:20409   */\n      dup5\n      swap1\n      mstore\n        /* \"#utility.yul\":20440:20442   */\n      0x60\n        /* \"#utility.yul\":20425:20443   */\n      dup2\n      add\n        /* \"#utility.yul\":20418:20452   */\n      dup4\n      swap1\n      mstore\n        /* \"#utility.yul\":20260:20263   */\n      0xa0\n        /* \"#utility.yul\":20483:20486   */\n      0x80\n        /* \"#utility.yul\":20468:20487   */\n      dup3\n      add\n        /* \"#utility.yul\":20461:20493   */\n      dup2\n      swap1\n      mstore\n        /* \"#utility.yul\":20223:20227   */\n      0x00\n      swap1\n        /* \"#utility.yul\":20510:20556   */\n      tag_515\n      swap1\n        /* \"#utility.yul\":20536:20555   */\n      dup4\n      add\n        /* \"#utility.yul\":20528:20534   */\n      dup5\n        /* \"#utility.yul\":20510:20556   */\n      tag_406\n      jump\t// in\n\n    auxdata: 0xa2646970667358221220b5ebd2b14970d599fa4d6f22c3ff04f436ba140880d7f852d983d6b6c1c07cda64736f6c63430008180033\n}\n",
				"bytecode": {
					"linkReferences": {},
					"object": "608060405234801561000f575f80fd5b5061223c8061001d5f395ff3fe60806040526004361061017a575f3560e01c80639477d85d116100cd578063cd9c712111610087578063da23eb6311610062578063da23eb6314610488578063e985e9c5146104a2578063f242432a146104db578063fe313112146104fa575f80fd5b8063cd9c712114610437578063d6febde814610456578063d79875eb14610469575f80fd5b80639477d85d146103655780639a73062714610384578063a22cb465146103af578063b6a46b3b146103ce578063bd85b039146103ed578063c157253d14610418575f80fd5b80634cc8221511610138578063659d3a1d11610113578063659d3a1d146102e85780636cd3e0eb146102fd5780637ffb25ac1461032b5780638fe4466614610346575f80fd5b80634cc822151461027e5780634e1273f41461029d5780635cf4ee91146102c9575f80fd5b8062fdd58e1461017e57806301ffc9a7146101c4578063063a741f146101f35780630e89341c146102125780631f900ce41461023e5780632eb2c2d61461025d575b5f80fd5b348015610189575f80fd5b506101b1610198366004611a06565b5f60208181529281526040808220909352908152205481565b6040519081526020015b60405180910390f35b3480156101cf575f80fd5b506101e36101de366004611a43565b610525565b60405190151581526020016101bb565b3480156101fe575f80fd5b506101b161020d366004611a5e565b610576565b34801561021d575f80fd5b5061023161022c366004611a7e565b6105be565b6040516101bb9190611ae2565b348015610249575f80fd5b506101b1610258366004611a06565b610660565b348015610268575f80fd5b5061027c610277366004611b7a565b61068b565b005b348015610289575f80fd5b5061027c610298366004611a7e565b61092b565b3480156102a8575f80fd5b506102bc6102b7366004611c2d565b610ac3565b6040516101bb9190611c94565b3480156102d4575f80fd5b506101b16102e3366004611a5e565b610bf3565b3480156102f3575f80fd5b506101b160025481565b348015610308575f80fd5b5061031c610317366004611a7e565b610c4b565b6040516101bb93929190611cd7565b348015610336575f80fd5b506101b1670de0b6b3a764000081565b348015610351575f80fd5b506102bc610360366004611d07565b610cfc565b348015610370575f80fd5b506101b161037f366004611a5e565b610d64565b34801561038f575f80fd5b506101b161039e366004611a7e565b60056020525f908152604090205481565b3480156103ba575f80fd5b5061027c6103c9366004611d20565b610d87565b3480156103d9575f80fd5b5061027c6103e8366004611d59565b610df2565b3480156103f8575f80fd5b506101b1610407366004611a7e565b60066020525f908152604090205481565b348015610423575f80fd5b506101b1610432366004611a5e565b611031565b348015610442575f80fd5b506101b1610451366004611a5e565b611049565b61027c610464366004611a5e565b611088565b348015610474575f80fd5b5061027c610483366004611a5e565b6112a3565b348015610493575f80fd5b506101b1668e1bc9bf04000081565b3480156104ad575f80fd5b506101e36104bc366004611d98565b600160209081525f928352604080842090915290825290205460ff1681565b3480156104e6575f80fd5b5061027c6104f5366004611dc9565b61158d565b348015610505575f80fd5b506101b1610514366004611a7e565b60076020525f908152604090205481565b5f6301ffc9a760e01b6001600160e01b0319831614806105555750636cdb3d1360e11b6001600160e01b03198316145b8061057057506303a24d0760e21b6001600160e01b03198316145b92915050565b5f806105828484611031565b90505f670de0b6b3a764000061059f668e1bc9bf04000084611e50565b6105a99190611e67565b90506105b58183611e86565b95945050505050565b5f8181526003602052604090206001018054606091906105dd90611e99565b80601f016020809104026020016040519081016040528092919081815260200182805461060990611e99565b80156106545780601f1061062b57610100808354040283529160200191610654565b820191905f5260205f20905b81548152906001019060200180831161063757829003601f168201915b50505050509050919050565b6004602052815f5260405f208181548110610679575f80fd5b905f5260205f20015f91509150505481565b8483146106d15760405162461bcd60e51b815260206004820152600f60248201526e0988a9c8ea890be9a92a69a82a8869608b1b60448201526064015b60405180910390fd5b336001600160a01b038916148061070a57506001600160a01b0388165f90815260016020908152604080832033845290915290205460ff165b6107475760405162461bcd60e51b815260206004820152600e60248201526d1393d517d055551213d49256915160921b60448201526064016106c8565b5f805f5b878110156107fe5788888281811061076557610765611ed1565b90506020020135925086868281811061078057610780611ed1565b6001600160a01b038e165f90815260208181526040808320898452825282208054939091029490940135955085939250906107bc908490611ee5565b90915550506001600160a01b038a165f90815260208181526040808320868452909152812080548492906107f1908490611e86565b909155505060010161074b565b50886001600160a01b03168a6001600160a01b0316336001600160a01b03167f4a39dc06d4c0dbc64b70af90fd698a233a518aa5d07e595d983b8c0526c8f7fb8b8b8b8b6040516108529493929190611f28565b60405180910390a46001600160a01b0389163b156108f65760405163bc197c8160e01b808252906001600160a01b038b169063bc197c81906108a69033908f908e908e908e908e908e908e90600401611f81565b6020604051808303815f875af11580156108c2573d5f803e3d5ffd5b505050506040513d601f19601f820116820180604052508101906108e69190611fe4565b6001600160e01b03191614610903565b6001600160a01b03891615155b61091f5760405162461bcd60e51b81526004016106c890611fff565b50505050505050505050565b5f60035f8381526020019081526020015f206040518060600160405290815f820154815260200160018201805461096190611e99565b80601f016020809104026020016040519081016040528092919081815260200182805461098d90611e99565b80156109d85780601f106109af576101008083540402835291602001916109d8565b820191905f5260205f20905b8154815290600101906020018083116109bb57829003601f168201915b5050509183525050600291909101546001600160a01b039081166020909201919091526040820151919250163314610a22576040516282b42960e81b815260040160405180910390fd5b60055f8260200151604051602001610a3a9190612029565b60408051601f1981840301815291815281516020928301208352828201939093529082015f908120819055848152600390915290812081815590610a816001830182611999565b5060020180546001600160a01b0319169055604051339083907fe52b7042a48e37bfb277e8a210794950be40bfaedea374e2dfbe0c6edff8791d905f90a35050565b6060838214610b065760405162461bcd60e51b815260206004820152600f60248201526e0988a9c8ea890be9a92a69a82a8869608b1b60448201526064016106c8565b8367ffffffffffffffff811115610b1f57610b1f612044565b604051908082528060200260200182016040528015610b48578160200160208202803683370190505b5090505f5b84811015610bea575f80878784818110610b6957610b69611ed1565b9050602002016020810190610b7e9190611d07565b6001600160a01b03166001600160a01b031681526020019081526020015f205f858584818110610bb057610bb0611ed1565b9050602002013581526020019081526020015f2054828281518110610bd757610bd7611ed1565b6020908102919091010152600101610b4d565b50949350505050565b5f61c350670de0b6b3a764000080610c0a86611781565b610c1c610c178789611e86565b611781565b610c269190611ee5565b610c309190611e67565b610c3a9190611e67565b610c449190611e67565b9392505050565b60036020525f908152604090208054600182018054919291610c6c90611e99565b80601f0160208091040260200160405190810160405280929190818152602001828054610c9890611e99565b8015610ce35780601f10610cba57610100808354040283529160200191610ce3565b820191905f5260205f20905b815481529060010190602001808311610cc657829003601f168201915b505050600290930154919250506001600160a01b031683565b6001600160a01b0381165f9081526004602090815260409182902080548351818402810184019094528084526060939283018282801561065457602002820191905f5260205f20905b815481526020019060010190808311610d455750505050509050919050565b5f82815260066020526040812054610c4490610d81908490611ee5565b83610bf3565b335f8181526001602090815260408083206001600160a01b03871680855290835292819020805460ff191686151590811790915590519081529192917f17307eab39ab6107e8899845ad3d59bd9653f200f220920489ca2b5937696c31910160405180910390a35050565b5f8282604051602001610e06929190612058565b60408051601f1981840301815291815281516020928301205f818152600590935291205490915015610e6f5760405162461bcd60e51b815260206004820152601260248201527163637420616c72656164792065786973747360701b60448201526064016106c8565b5f6002549050604051806060016040528082815260200185858080601f0160208091040260200160405190810160405280939291908181526020018383808284375f92018290525093855250503360209384015250838152600382526040902082518155908201516001820190610ee690826120b0565b5060409182015160029190910180546001600160a01b0319166001600160a01b03909216919091179055335f9081526004602090815282822080546001810182559083528183200184905584825260058152828220849055838252600690529081208054670de0b6b3a76400009290610f60908490611e86565b90915550610f719050816001611e86565b600281905550610f993382670de0b6b3a764000060405180602001604052805f8152506117d5565b336001600160a01b0316817fb683691564ab594b1f9e9db91abaf085736871256a4741baa41bf30cb9d4f2368686604051610fd592919061216c565b60405180910390a333815f60408051670de0b6b3a764000081525f60208201819052918101919091527f4373618509eab3295fc837b6b78ce8f6fc820f403d4a22076932311ad1e4b51e9060600160405180910390a450505050565b5f82815260066020526040812054610c449083610bf3565b5f806110558484610d64565b90505f670de0b6b3a7640000611072668e1bc9bf04000084611e50565b61107c9190611e67565b90506105b58183611ee5565b60025482106110ce5760405162461bcd60e51b815260206004820152601260248201527118d8dd08191bd95cc81b9bdd08195e1a5cdd60721b60448201526064016106c8565b5f6110d98383611031565b90505f670de0b6b3a76400006110f6668e1bc9bf04000084611e50565b6111009190611e67565b905061110c8183611e86565b3410156111525760405162461bcd60e51b8152602060048201526014602482015273125b9cdd59999a58da595b9d081c185e5b595b9d60621b60448201526064016106c8565b5f848152600660205260408120805485929061116f908490611e86565b90915550505f8481526007602052604081208054849290611191908490611e86565b925050819055506111b233858560405180602001604052805f8152506117d5565b3384600160408051878152602081018790529081018590527f4373618509eab3295fc837b6b78ce8f6fc820f403d4a22076932311ad1e4b51e9060600160405180910390a45f848152600360205260408082206002015490516001600160a01b039091169083908381818185875af1925050503d805f811461124f576040519150601f19603f3d011682016040523d82523d5f602084013e611254565b606091505b505090508061129c5760405162461bcd60e51b81526020600482015260146024820152732330b4b632b2103a379039b2b7321022ba3432b960611b60448201526064016106c8565b5050505050565b60025482106112e95760405162461bcd60e51b815260206004820152601260248201527118d8dd08191bd95cc81b9bdd08195e1a5cdd60721b60448201526064016106c8565b335f908152602081815260408083208584529091529020548111156113475760405162461bcd60e51b8152602060048201526014602482015273496e73756666696369656e742062616c616e636560601b60448201526064016106c8565b5f82815260066020526040902054670de0b6b3a76400006113688383611ee5565b10156113c65760405162461bcd60e51b815260206004820152602760248201527f537570706c79206e6f7420616c6c6f7765642062656c6f77207072656d696e7460448201526608185b5bdd5b9d60ca1b60648201526084016106c8565b5f6113d18484610d64565b90505f670de0b6b3a76400006113ee668e1bc9bf04000084611e50565b6113f89190611e67565b9050611405338686611917565b61140f8484611ee5565b5f8681526006602090815260408083209390935560079052908120805484929061143a908490611ee5565b9091555033905085600260408051888152602081018790529081018590527f4373618509eab3295fc837b6b78ce8f6fc820f403d4a22076932311ad1e4b51e9060600160405180910390a45f336114918385611ee5565b6040515f81818185875af1925050503d805f81146114ca576040519150601f19603f3d011682016040523d82523d5f602084013e6114cf565b606091505b50505f8781526003602052604080822060020154905192935090916001600160a01b039091169084908381818185875af1925050503d805f811461152e576040519150601f19603f3d011682016040523d82523d5f602084013e611533565b606091505b505090508180156115415750805b6115845760405162461bcd60e51b81526020600482015260146024820152732330b4b632b2103a379039b2b7321022ba3432b960611b60448201526064016106c8565b50505050505050565b336001600160a01b03871614806115c657506001600160a01b0386165f90815260016020908152604080832033845290915290205460ff165b6116035760405162461bcd60e51b815260206004820152600e60248201526d1393d517d055551213d49256915160921b60448201526064016106c8565b6001600160a01b0386165f9081526020818152604080832087845290915281208054859290611633908490611ee5565b90915550506001600160a01b0385165f9081526020818152604080832087845290915281208054859290611668908490611e86565b909155505060408051858152602081018590526001600160a01b03808816929089169133917fc3d58168c5ae7397731d063d5bbf3d657854427343f4c083240f7aacaa2d0f62910160405180910390a46001600160a01b0385163b156117505760405163f23a6e6160e01b808252906001600160a01b0387169063f23a6e61906117009033908b908a908a908a908a90600401612187565b6020604051808303815f875af115801561171c573d5f803e3d5ffd5b505050506040513d601f19601f820116820180604052508101906117409190611fe4565b6001600160e01b0319161461175d565b6001600160a01b03851615155b6117795760405162461bcd60e51b81526004016106c890611fff565b505050505050565b5f6001821161179157505f919050565b620187e5620186a0670de0b6b3a76400005f5b6117af600187611ee5565b811015610bea57826117c18584611e50565b6117cb9190611e67565b91506001016117a4565b6001600160a01b0384165f9081526020818152604080832086845290915281208054849290611805908490611e86565b909155505060408051848152602081018490526001600160a01b038616915f9133917fc3d58168c5ae7397731d063d5bbf3d657854427343f4c083240f7aacaa2d0f62910160405180910390a46001600160a01b0384163b156118e85760405163f23a6e6160e01b808252906001600160a01b0386169063f23a6e61906118989033905f908990899089906004016121cd565b6020604051808303815f875af11580156118b4573d5f803e3d5ffd5b505050506040513d601f19601f820116820180604052508101906118d89190611fe4565b6001600160e01b031916146118f5565b6001600160a01b03841615155b6119115760405162461bcd60e51b81526004016106c890611fff565b50505050565b6001600160a01b0383165f9081526020818152604080832085845290915281208054839290611947908490611ee5565b909155505060408051838152602081018390525f916001600160a01b0386169133917fc3d58168c5ae7397731d063d5bbf3d657854427343f4c083240f7aacaa2d0f62910160405180910390a4505050565b5080546119a590611e99565b5f825580601f106119b4575050565b601f0160209004905f5260205f20908101906119d091906119d3565b50565b5b808211156119e7575f81556001016119d4565b5090565b80356001600160a01b0381168114611a01575f80fd5b919050565b5f8060408385031215611a17575f80fd5b611a20836119eb565b946020939093013593505050565b6001600160e01b0319811681146119d0575f80fd5b5f60208284031215611a53575f80fd5b8135610c4481611a2e565b5f8060408385031215611a6f575f80fd5b50508035926020909101359150565b5f60208284031215611a8e575f80fd5b5035919050565b5f5b83811015611aaf578181015183820152602001611a97565b50505f910152565b5f8151808452611ace816020860160208601611a95565b601f01601f19169290920160200192915050565b602081525f610c446020830184611ab7565b5f8083601f840112611b04575f80fd5b50813567ffffffffffffffff811115611b1b575f80fd5b6020830191508360208260051b8501011115611b35575f80fd5b9250929050565b5f8083601f840112611b4c575f80fd5b50813567ffffffffffffffff811115611b63575f80fd5b602083019150836020828501011115611b35575f80fd5b5f805f805f805f8060a0898b031215611b91575f80fd5b611b9a896119eb565b9750611ba860208a016119eb565b9650604089013567ffffffffffffffff80821115611bc4575f80fd5b611bd08c838d01611af4565b909850965060608b0135915080821115611be8575f80fd5b611bf48c838d01611af4565b909650945060808b0135915080821115611c0c575f80fd5b50611c198b828c01611b3c565b999c989b5096995094979396929594505050565b5f805f8060408587031215611c40575f80fd5b843567ffffffffffffffff80821115611c57575f80fd5b611c6388838901611af4565b90965094506020870135915080821115611c7b575f80fd5b50611c8887828801611af4565b95989497509550505050565b602080825282518282018190525f9190848201906040850190845b81811015611ccb57835183529284019291840191600101611caf565b50909695505050505050565b838152606060208201525f611cef6060830185611ab7565b905060018060a01b0383166040830152949350505050565b5f60208284031215611d17575f80fd5b610c44826119eb565b5f8060408385031215611d31575f80fd5b611d3a836119eb565b915060208301358015158114611d4e575f80fd5b809150509250929050565b5f8060208385031215611d6a575f80fd5b823567ffffffffffffffff811115611d80575f80fd5b611d8c85828601611b3c565b90969095509350505050565b5f8060408385031215611da9575f80fd5b611db2836119eb565b9150611dc0602084016119eb565b90509250929050565b5f805f805f8060a08789031215611dde575f80fd5b611de7876119eb565b9550611df5602088016119eb565b94506040870135935060608701359250608087013567ffffffffffffffff811115611e1e575f80fd5b611e2a89828a01611b3c565b979a9699509497509295939492505050565b634e487b7160e01b5f52601160045260245ffd5b808202811582820484141761057057610570611e3c565b5f82611e8157634e487b7160e01b5f52601260045260245ffd5b500490565b8082018082111561057057610570611e3c565b600181811c90821680611ead57607f821691505b602082108103611ecb57634e487b7160e01b5f52602260045260245ffd5b50919050565b634e487b7160e01b5f52603260045260245ffd5b8181038181111561057057610570611e3c565b8183525f6001600160fb1b03831115611f0f575f80fd5b8260051b80836020870137939093016020019392505050565b604081525f611f3b604083018688611ef8565b8281036020840152611f4e818587611ef8565b979650505050505050565b81835281816020850137505f828201602090810191909152601f909101601f19169091010190565b6001600160a01b0389811682528816602082015260a0604082018190525f90611fad908301888a611ef8565b8281036060840152611fc0818789611ef8565b90508281036080840152611fd5818587611f59565b9b9a5050505050505050505050565b5f60208284031215611ff4575f80fd5b8151610c4481611a2e565b60208082526010908201526f155394d0519157d49150d2541251539560821b604082015260600190565b5f825161203a818460208701611a95565b9190910192915050565b634e487b7160e01b5f52604160045260245ffd5b818382375f9101908152919050565b601f8211156120ab57805f5260205f20601f840160051c8101602085101561208c5750805b601f840160051c820191505b8181101561129c575f8155600101612098565b505050565b815167ffffffffffffffff8111156120ca576120ca612044565b6120de816120d88454611e99565b84612067565b602080601f831160018114612111575f84156120fa5750858301515b5f19600386901b1c1916600185901b178555611779565b5f85815260208120601f198616915b8281101561213f57888601518255948401946001909101908401612120565b508582101561215c57878501515f19600388901b60f8161c191681555b5050505050600190811b01905550565b602081525f61217f602083018486611f59565b949350505050565b6001600160a01b03878116825286166020820152604081018590526060810184905260a0608082018190525f906121c19083018486611f59565b98975050505050505050565b6001600160a01b03868116825285166020820152604081018490526060810183905260a0608082018190525f90611f4e90830184611ab756fea2646970667358221220b5ebd2b14970d599fa4d6f22c3ff04f436ba140880d7f852d983d6b6c1c07cda64736f6c63430008180033",
					"opcodes": "PUSH1 0x80 PUSH1 0x40 MSTORE CALLVALUE DUP1 ISZERO PUSH2 0xF JUMPI PUSH0 DUP1 REVERT JUMPDEST POP PUSH2 0x223C DUP1 PUSH2 0x1D PUSH0 CODECOPY PUSH0 RETURN INVALID PUSH1 0x80 PUSH1 0x40 MSTORE PUSH1 0x4 CALLDATASIZE LT PUSH2 0x17A JUMPI PUSH0 CALLDATALOAD PUSH1 0xE0 SHR DUP1 PUSH4 0x9477D85D GT PUSH2 0xCD JUMPI DUP1 PUSH4 0xCD9C7121 GT PUSH2 0x87 JUMPI DUP1 PUSH4 0xDA23EB63 GT PUSH2 0x62 JUMPI DUP1 PUSH4 0xDA23EB63 EQ PUSH2 0x488 JUMPI DUP1 PUSH4 0xE985E9C5 EQ PUSH2 0x4A2 JUMPI DUP1 PUSH4 0xF242432A EQ PUSH2 0x4DB JUMPI DUP1 PUSH4 0xFE313112 EQ PUSH2 0x4FA JUMPI PUSH0 DUP1 REVERT JUMPDEST DUP1 PUSH4 0xCD9C7121 EQ PUSH2 0x437 JUMPI DUP1 PUSH4 0xD6FEBDE8 EQ PUSH2 0x456 JUMPI DUP1 PUSH4 0xD79875EB EQ PUSH2 0x469 JUMPI PUSH0 DUP1 REVERT JUMPDEST DUP1 PUSH4 0x9477D85D EQ PUSH2 0x365 JUMPI DUP1 PUSH4 0x9A730627 EQ PUSH2 0x384 JUMPI DUP1 PUSH4 0xA22CB465 EQ PUSH2 0x3AF JUMPI DUP1 PUSH4 0xB6A46B3B EQ PUSH2 0x3CE JUMPI DUP1 PUSH4 0xBD85B039 EQ PUSH2 0x3ED JUMPI DUP1 PUSH4 0xC157253D EQ PUSH2 0x418 JUMPI PUSH0 DUP1 REVERT JUMPDEST DUP1 PUSH4 0x4CC82215 GT PUSH2 0x138 JUMPI DUP1 PUSH4 0x659D3A1D GT PUSH2 0x113 JUMPI DUP1 PUSH4 0x659D3A1D EQ PUSH2 0x2E8 JUMPI DUP1 PUSH4 0x6CD3E0EB EQ PUSH2 0x2FD JUMPI DUP1 PUSH4 0x7FFB25AC EQ PUSH2 0x32B JUMPI DUP1 PUSH4 0x8FE44666 EQ PUSH2 0x346 JUMPI PUSH0 DUP1 REVERT JUMPDEST DUP1 PUSH4 0x4CC82215 EQ PUSH2 0x27E JUMPI DUP1 PUSH4 0x4E1273F4 EQ PUSH2 0x29D JUMPI DUP1 PUSH4 0x5CF4EE91 EQ PUSH2 0x2C9 JUMPI PUSH0 DUP1 REVERT JUMPDEST DUP1 PUSH3 0xFDD58E EQ PUSH2 0x17E JUMPI DUP1 PUSH4 0x1FFC9A7 EQ PUSH2 0x1C4 JUMPI DUP1 PUSH4 0x63A741F EQ PUSH2 0x1F3 JUMPI DUP1 PUSH4 0xE89341C EQ PUSH2 0x212 JUMPI DUP1 PUSH4 0x1F900CE4 EQ PUSH2 0x23E JUMPI DUP1 PUSH4 0x2EB2C2D6 EQ PUSH2 0x25D JUMPI JUMPDEST PUSH0 DUP1 REVERT JUMPDEST CALLVALUE DUP1 ISZERO PUSH2 0x189 JUMPI PUSH0 DUP1 REVERT JUMPDEST POP PUSH2 0x1B1 PUSH2 0x198 CALLDATASIZE PUSH1 0x4 PUSH2 0x1A06 JUMP JUMPDEST PUSH0 PUSH1 0x20 DUP2 DUP2 MSTORE SWAP3 DUP2 MSTORE PUSH1 0x40 DUP1 DUP3 KECCAK256 SWAP1 SWAP4 MSTORE SWAP1 DUP2 MSTORE KECCAK256 SLOAD DUP2 JUMP JUMPDEST PUSH1 0x40 MLOAD SWAP1 DUP2 MSTORE PUSH1 0x20 ADD JUMPDEST PUSH1 0x40 MLOAD DUP1 SWAP2 SUB SWAP1 RETURN JUMPDEST CALLVALUE DUP1 ISZERO PUSH2 0x1CF JUMPI PUSH0 DUP1 REVERT JUMPDEST POP PUSH2 0x1E3 PUSH2 0x1DE CALLDATASIZE PUSH1 0x4 PUSH2 0x1A43 JUMP JUMPDEST PUSH2 0x525 JUMP JUMPDEST PUSH1 0x40 MLOAD SWAP1 ISZERO ISZERO DUP2 MSTORE PUSH1 0x20 ADD PUSH2 0x1BB JUMP JUMPDEST CALLVALUE DUP1 ISZERO PUSH2 0x1FE JUMPI PUSH0 DUP1 REVERT JUMPDEST POP PUSH2 0x1B1 PUSH2 0x20D CALLDATASIZE PUSH1 0x4 PUSH2 0x1A5E JUMP JUMPDEST PUSH2 0x576 JUMP JUMPDEST CALLVALUE DUP1 ISZERO PUSH2 0x21D JUMPI PUSH0 DUP1 REVERT JUMPDEST POP PUSH2 0x231 PUSH2 0x22C CALLDATASIZE PUSH1 0x4 PUSH2 0x1A7E JUMP JUMPDEST PUSH2 0x5BE JUMP JUMPDEST PUSH1 0x40 MLOAD PUSH2 0x1BB SWAP2 SWAP1 PUSH2 0x1AE2 JUMP JUMPDEST CALLVALUE DUP1 ISZERO PUSH2 0x249 JUMPI PUSH0 DUP1 REVERT JUMPDEST POP PUSH2 0x1B1 PUSH2 0x258 CALLDATASIZE PUSH1 0x4 PUSH2 0x1A06 JUMP JUMPDEST PUSH2 0x660 JUMP JUMPDEST CALLVALUE DUP1 ISZERO PUSH2 0x268 JUMPI PUSH0 DUP1 REVERT JUMPDEST POP PUSH2 0x27C PUSH2 0x277 CALLDATASIZE PUSH1 0x4 PUSH2 0x1B7A JUMP JUMPDEST PUSH2 0x68B JUMP JUMPDEST STOP JUMPDEST CALLVALUE DUP1 ISZERO PUSH2 0x289 JUMPI PUSH0 DUP1 REVERT JUMPDEST POP PUSH2 0x27C PUSH2 0x298 CALLDATASIZE PUSH1 0x4 PUSH2 0x1A7E JUMP JUMPDEST PUSH2 0x92B JUMP JUMPDEST CALLVALUE DUP1 ISZERO PUSH2 0x2A8 JUMPI PUSH0 DUP1 REVERT JUMPDEST POP PUSH2 0x2BC PUSH2 0x2B7 CALLDATASIZE PUSH1 0x4 PUSH2 0x1C2D JUMP JUMPDEST PUSH2 0xAC3 JUMP JUMPDEST PUSH1 0x40 MLOAD PUSH2 0x1BB SWAP2 SWAP1 PUSH2 0x1C94 JUMP JUMPDEST CALLVALUE DUP1 ISZERO PUSH2 0x2D4 JUMPI PUSH0 DUP1 REVERT JUMPDEST POP PUSH2 0x1B1 PUSH2 0x2E3 CALLDATASIZE PUSH1 0x4 PUSH2 0x1A5E JUMP JUMPDEST PUSH2 0xBF3 JUMP JUMPDEST CALLVALUE DUP1 ISZERO PUSH2 0x2F3 JUMPI PUSH0 DUP1 REVERT JUMPDEST POP PUSH2 0x1B1 PUSH1 0x2 SLOAD DUP2 JUMP JUMPDEST CALLVALUE DUP1 ISZERO PUSH2 0x308 JUMPI PUSH0 DUP1 REVERT JUMPDEST POP PUSH2 0x31C PUSH2 0x317 CALLDATASIZE PUSH1 0x4 PUSH2 0x1A7E JUMP JUMPDEST PUSH2 0xC4B JUMP JUMPDEST PUSH1 0x40 MLOAD PUSH2 0x1BB SWAP4 SWAP3 SWAP2 SWAP1 PUSH2 0x1CD7 JUMP JUMPDEST CALLVALUE DUP1 ISZERO PUSH2 0x336 JUMPI PUSH0 DUP1 REVERT JUMPDEST POP PUSH2 0x1B1 PUSH8 0xDE0B6B3A7640000 DUP2 JUMP JUMPDEST CALLVALUE DUP1 ISZERO PUSH2 0x351 JUMPI PUSH0 DUP1 REVERT JUMPDEST POP PUSH2 0x2BC PUSH2 0x360 CALLDATASIZE PUSH1 0x4 PUSH2 0x1D07 JUMP JUMPDEST PUSH2 0xCFC JUMP JUMPDEST CALLVALUE DUP1 ISZERO PUSH2 0x370 JUMPI PUSH0 DUP1 REVERT JUMPDEST POP PUSH2 0x1B1 PUSH2 0x37F CALLDATASIZE PUSH1 0x4 PUSH2 0x1A5E JUMP JUMPDEST PUSH2 0xD64 JUMP JUMPDEST CALLVALUE DUP1 ISZERO PUSH2 0x38F JUMPI PUSH0 DUP1 REVERT JUMPDEST POP PUSH2 0x1B1 PUSH2 0x39E CALLDATASIZE PUSH1 0x4 PUSH2 0x1A7E JUMP JUMPDEST PUSH1 0x5 PUSH1 0x20 MSTORE PUSH0 SWAP1 DUP2 MSTORE PUSH1 0x40 SWAP1 KECCAK256 SLOAD DUP2 JUMP JUMPDEST CALLVALUE DUP1 ISZERO PUSH2 0x3BA JUMPI PUSH0 DUP1 REVERT JUMPDEST POP PUSH2 0x27C PUSH2 0x3C9 CALLDATASIZE PUSH1 0x4 PUSH2 0x1D20 JUMP JUMPDEST PUSH2 0xD87 JUMP JUMPDEST CALLVALUE DUP1 ISZERO PUSH2 0x3D9 JUMPI PUSH0 DUP1 REVERT JUMPDEST POP PUSH2 0x27C PUSH2 0x3E8 CALLDATASIZE PUSH1 0x4 PUSH2 0x1D59 JUMP JUMPDEST PUSH2 0xDF2 JUMP JUMPDEST CALLVALUE DUP1 ISZERO PUSH2 0x3F8 JUMPI PUSH0 DUP1 REVERT JUMPDEST POP PUSH2 0x1B1 PUSH2 0x407 CALLDATASIZE PUSH1 0x4 PUSH2 0x1A7E JUMP JUMPDEST PUSH1 0x6 PUSH1 0x20 MSTORE PUSH0 SWAP1 DUP2 MSTORE PUSH1 0x40 SWAP1 KECCAK256 SLOAD DUP2 JUMP JUMPDEST CALLVALUE DUP1 ISZERO PUSH2 0x423 JUMPI PUSH0 DUP1 REVERT JUMPDEST POP PUSH2 0x1B1 PUSH2 0x432 CALLDATASIZE PUSH1 0x4 PUSH2 0x1A5E JUMP JUMPDEST PUSH2 0x1031 JUMP JUMPDEST CALLVALUE DUP1 ISZERO PUSH2 0x442 JUMPI PUSH0 DUP1 REVERT JUMPDEST POP PUSH2 0x1B1 PUSH2 0x451 CALLDATASIZE PUSH1 0x4 PUSH2 0x1A5E JUMP JUMPDEST PUSH2 0x1049 JUMP JUMPDEST PUSH2 0x27C PUSH2 0x464 CALLDATASIZE PUSH1 0x4 PUSH2 0x1A5E JUMP JUMPDEST PUSH2 0x1088 JUMP JUMPDEST CALLVALUE DUP1 ISZERO PUSH2 0x474 JUMPI PUSH0 DUP1 REVERT JUMPDEST POP PUSH2 0x27C PUSH2 0x483 CALLDATASIZE PUSH1 0x4 PUSH2 0x1A5E JUMP JUMPDEST PUSH2 0x12A3 JUMP JUMPDEST CALLVALUE DUP1 ISZERO PUSH2 0x493 JUMPI PUSH0 DUP1 REVERT JUMPDEST POP PUSH2 0x1B1 PUSH7 0x8E1BC9BF040000 DUP2 JUMP JUMPDEST CALLVALUE DUP1 ISZERO PUSH2 0x4AD JUMPI PUSH0 DUP1 REVERT JUMPDEST POP PUSH2 0x1E3 PUSH2 0x4BC CALLDATASIZE PUSH1 0x4 PUSH2 0x1D98 JUMP JUMPDEST PUSH1 0x1 PUSH1 0x20 SWAP1 DUP2 MSTORE PUSH0 SWAP3 DUP4 MSTORE PUSH1 0x40 DUP1 DUP5 KECCAK256 SWAP1 SWAP2 MSTORE SWAP1 DUP3 MSTORE SWAP1 KECCAK256 SLOAD PUSH1 0xFF AND DUP2 JUMP JUMPDEST CALLVALUE DUP1 ISZERO PUSH2 0x4E6 JUMPI PUSH0 DUP1 REVERT JUMPDEST POP PUSH2 0x27C PUSH2 0x4F5 CALLDATASIZE PUSH1 0x4 PUSH2 0x1DC9 JUMP JUMPDEST PUSH2 0x158D JUMP JUMPDEST CALLVALUE DUP1 ISZERO PUSH2 0x505 JUMPI PUSH0 DUP1 REVERT JUMPDEST POP PUSH2 0x1B1 PUSH2 0x514 CALLDATASIZE PUSH1 0x4 PUSH2 0x1A7E JUMP JUMPDEST PUSH1 0x7 PUSH1 0x20 MSTORE PUSH0 SWAP1 DUP2 MSTORE PUSH1 0x40 SWAP1 KECCAK256 SLOAD DUP2 JUMP JUMPDEST PUSH0 PUSH4 0x1FFC9A7 PUSH1 0xE0 SHL PUSH1 0x1 PUSH1 0x1 PUSH1 0xE0 SHL SUB NOT DUP4 AND EQ DUP1 PUSH2 0x555 JUMPI POP PUSH4 0x6CDB3D13 PUSH1 0xE1 SHL PUSH1 0x1 PUSH1 0x1 PUSH1 0xE0 SHL SUB NOT DUP4 AND EQ JUMPDEST DUP1 PUSH2 0x570 JUMPI POP PUSH4 0x3A24D07 PUSH1 0xE2 SHL PUSH1 0x1 PUSH1 0x1 PUSH1 0xE0 SHL SUB NOT DUP4 AND EQ JUMPDEST SWAP3 SWAP2 POP POP JUMP JUMPDEST PUSH0 DUP1 PUSH2 0x582 DUP5 DUP5 PUSH2 0x1031 JUMP JUMPDEST SWAP1 POP PUSH0 PUSH8 0xDE0B6B3A7640000 PUSH2 0x59F PUSH7 0x8E1BC9BF040000 DUP5 PUSH2 0x1E50 JUMP JUMPDEST PUSH2 0x5A9 SWAP2 SWAP1 PUSH2 0x1E67 JUMP JUMPDEST SWAP1 POP PUSH2 0x5B5 DUP2 DUP4 PUSH2 0x1E86 JUMP JUMPDEST SWAP6 SWAP5 POP POP POP POP POP JUMP JUMPDEST PUSH0 DUP2 DUP2 MSTORE PUSH1 0x3 PUSH1 0x20 MSTORE PUSH1 0x40 SWAP1 KECCAK256 PUSH1 0x1 ADD DUP1 SLOAD PUSH1 0x60 SWAP2 SWAP1 PUSH2 0x5DD SWAP1 PUSH2 0x1E99 JUMP JUMPDEST DUP1 PUSH1 0x1F ADD PUSH1 0x20 DUP1 SWAP2 DIV MUL PUSH1 0x20 ADD PUSH1 0x40 MLOAD SWAP1 DUP2 ADD PUSH1 0x40 MSTORE DUP1 SWAP3 SWAP2 SWAP1 DUP2 DUP2 MSTORE PUSH1 0x20 ADD DUP3 DUP1 SLOAD PUSH2 0x609 SWAP1 PUSH2 0x1E99 JUMP JUMPDEST DUP1 ISZERO PUSH2 0x654 JUMPI DUP1 PUSH1 0x1F LT PUSH2 0x62B JUMPI PUSH2 0x100 DUP1 DUP4 SLOAD DIV MUL DUP4 MSTORE SWAP2 PUSH1 0x20 ADD SWAP2 PUSH2 0x654 JUMP JUMPDEST DUP3 ADD SWAP2 SWAP1 PUSH0 MSTORE PUSH1 0x20 PUSH0 KECCAK256 SWAP1 JUMPDEST DUP2 SLOAD DUP2 MSTORE SWAP1 PUSH1 0x1 ADD SWAP1 PUSH1 0x20 ADD DUP1 DUP4 GT PUSH2 0x637 JUMPI DUP3 SWAP1 SUB PUSH1 0x1F AND DUP3 ADD SWAP2 JUMPDEST POP POP POP POP POP SWAP1 POP SWAP2 SWAP1 POP JUMP JUMPDEST PUSH1 0x4 PUSH1 0x20 MSTORE DUP2 PUSH0 MSTORE PUSH1 0x40 PUSH0 KECCAK256 DUP2 DUP2 SLOAD DUP2 LT PUSH2 0x679 JUMPI PUSH0 DUP1 REVERT JUMPDEST SWAP1 PUSH0 MSTORE PUSH1 0x20 PUSH0 KECCAK256 ADD PUSH0 SWAP2 POP SWAP2 POP POP SLOAD DUP2 JUMP JUMPDEST DUP5 DUP4 EQ PUSH2 0x6D1 JUMPI PUSH1 0x40 MLOAD PUSH3 0x461BCD PUSH1 0xE5 SHL DUP2 MSTORE PUSH1 0x20 PUSH1 0x4 DUP3 ADD MSTORE PUSH1 0xF PUSH1 0x24 DUP3 ADD MSTORE PUSH15 0x988A9C8EA890BE9A92A69A82A8869 PUSH1 0x8B SHL PUSH1 0x44 DUP3 ADD MSTORE PUSH1 0x64 ADD JUMPDEST PUSH1 0x40 MLOAD DUP1 SWAP2 SUB SWAP1 REVERT JUMPDEST CALLER PUSH1 0x1 PUSH1 0x1 PUSH1 0xA0 SHL SUB DUP10 AND EQ DUP1 PUSH2 0x70A JUMPI POP PUSH1 0x1 PUSH1 0x1 PUSH1 0xA0 SHL SUB DUP9 AND PUSH0 SWAP1 DUP2 MSTORE PUSH1 0x1 PUSH1 0x20 SWAP1 DUP2 MSTORE PUSH1 0x40 DUP1 DUP4 KECCAK256 CALLER DUP5 MSTORE SWAP1 SWAP2 MSTORE SWAP1 KECCAK256 SLOAD PUSH1 0xFF AND JUMPDEST PUSH2 0x747 JUMPI PUSH1 0x40 MLOAD PUSH3 0x461BCD PUSH1 0xE5 SHL DUP2 MSTORE PUSH1 0x20 PUSH1 0x4 DUP3 ADD MSTORE PUSH1 0xE PUSH1 0x24 DUP3 ADD MSTORE PUSH14 0x1393D517D055551213D492569151 PUSH1 0x92 SHL PUSH1 0x44 DUP3 ADD MSTORE PUSH1 0x64 ADD PUSH2 0x6C8 JUMP JUMPDEST PUSH0 DUP1 PUSH0 JUMPDEST DUP8 DUP2 LT ISZERO PUSH2 0x7FE JUMPI DUP9 DUP9 DUP3 DUP2 DUP2 LT PUSH2 0x765 JUMPI PUSH2 0x765 PUSH2 0x1ED1 JUMP JUMPDEST SWAP1 POP PUSH1 0x20 MUL ADD CALLDATALOAD SWAP3 POP DUP7 DUP7 DUP3 DUP2 DUP2 LT PUSH2 0x780 JUMPI PUSH2 0x780 PUSH2 0x1ED1 JUMP JUMPDEST PUSH1 0x1 PUSH1 0x1 PUSH1 0xA0 SHL SUB DUP15 AND PUSH0 SWAP1 DUP2 MSTORE PUSH1 0x20 DUP2 DUP2 MSTORE PUSH1 0x40 DUP1 DUP4 KECCAK256 DUP10 DUP5 MSTORE DUP3 MSTORE DUP3 KECCAK256 DUP1 SLOAD SWAP4 SWAP1 SWAP2 MUL SWAP5 SWAP1 SWAP5 ADD CALLDATALOAD SWAP6 POP DUP6 SWAP4 SWAP3 POP SWAP1 PUSH2 0x7BC SWAP1 DUP5 SWAP1 PUSH2 0x1EE5 JUMP JUMPDEST SWAP1 SWAP2 SSTORE POP POP PUSH1 0x1 PUSH1 0x1 PUSH1 0xA0 SHL SUB DUP11 AND PUSH0 SWAP1 DUP2 MSTORE PUSH1 0x20 DUP2 DUP2 MSTORE PUSH1 0x40 DUP1 DUP4 KECCAK256 DUP7 DUP5 MSTORE SWAP1 SWAP2 MSTORE DUP2 KECCAK256 DUP1 SLOAD DUP5 SWAP3 SWAP1 PUSH2 0x7F1 SWAP1 DUP5 SWAP1 PUSH2 0x1E86 JUMP JUMPDEST SWAP1 SWAP2 SSTORE POP POP PUSH1 0x1 ADD PUSH2 0x74B JUMP JUMPDEST POP DUP9 PUSH1 0x1 PUSH1 0x1 PUSH1 0xA0 SHL SUB AND DUP11 PUSH1 0x1 PUSH1 0x1 PUSH1 0xA0 SHL SUB AND CALLER PUSH1 0x1 PUSH1 0x1 PUSH1 0xA0 SHL SUB AND PUSH32 0x4A39DC06D4C0DBC64B70AF90FD698A233A518AA5D07E595D983B8C0526C8F7FB DUP12 DUP12 DUP12 DUP12 PUSH1 0x40 MLOAD PUSH2 0x852 SWAP5 SWAP4 SWAP3 SWAP2 SWAP1 PUSH2 0x1F28 JUMP JUMPDEST PUSH1 0x40 MLOAD DUP1 SWAP2 SUB SWAP1 LOG4 PUSH1 0x1 PUSH1 0x1 PUSH1 0xA0 SHL SUB DUP10 AND EXTCODESIZE ISZERO PUSH2 0x8F6 JUMPI PUSH1 0x40 MLOAD PUSH4 0xBC197C81 PUSH1 0xE0 SHL DUP1 DUP3 MSTORE SWAP1 PUSH1 0x1 PUSH1 0x1 PUSH1 0xA0 SHL SUB DUP12 AND SWAP1 PUSH4 0xBC197C81 SWAP1 PUSH2 0x8A6 SWAP1 CALLER SWAP1 DUP16 SWAP1 DUP15 SWAP1 DUP15 SWAP1 DUP15 SWAP1 DUP15 SWAP1 DUP15 SWAP1 DUP15 SWAP1 PUSH1 0x4 ADD PUSH2 0x1F81 JUMP JUMPDEST PUSH1 0x20 PUSH1 0x40 MLOAD DUP1 DUP4 SUB DUP2 PUSH0 DUP8 GAS CALL ISZERO DUP1 ISZERO PUSH2 0x8C2 JUMPI RETURNDATASIZE PUSH0 DUP1 RETURNDATACOPY RETURNDATASIZE PUSH0 REVERT JUMPDEST POP POP POP POP PUSH1 0x40 MLOAD RETURNDATASIZE PUSH1 0x1F NOT PUSH1 0x1F DUP3 ADD AND DUP3 ADD DUP1 PUSH1 0x40 MSTORE POP DUP2 ADD SWAP1 PUSH2 0x8E6 SWAP2 SWAP1 PUSH2 0x1FE4 JUMP JUMPDEST PUSH1 0x1 PUSH1 0x1 PUSH1 0xE0 SHL SUB NOT AND EQ PUSH2 0x903 JUMP JUMPDEST PUSH1 0x1 PUSH1 0x1 PUSH1 0xA0 SHL SUB DUP10 AND ISZERO ISZERO JUMPDEST PUSH2 0x91F JUMPI PUSH1 0x40 MLOAD PUSH3 0x461BCD PUSH1 0xE5 SHL DUP2 MSTORE PUSH1 0x4 ADD PUSH2 0x6C8 SWAP1 PUSH2 0x1FFF JUMP JUMPDEST POP POP POP POP POP POP POP POP POP POP JUMP JUMPDEST PUSH0 PUSH1 0x3 PUSH0 DUP4 DUP2 MSTORE PUSH1 0x20 ADD SWAP1 DUP2 MSTORE PUSH1 0x20 ADD PUSH0 KECCAK256 PUSH1 0x40 MLOAD DUP1 PUSH1 0x60 ADD PUSH1 0x40 MSTORE SWAP1 DUP2 PUSH0 DUP3 ADD SLOAD DUP2 MSTORE PUSH1 0x20 ADD PUSH1 0x1 DUP3 ADD DUP1 SLOAD PUSH2 0x961 SWAP1 PUSH2 0x1E99 JUMP JUMPDEST DUP1 PUSH1 0x1F ADD PUSH1 0x20 DUP1 SWAP2 DIV MUL PUSH1 0x20 ADD PUSH1 0x40 MLOAD SWAP1 DUP2 ADD PUSH1 0x40 MSTORE DUP1 SWAP3 SWAP2 SWAP1 DUP2 DUP2 MSTORE PUSH1 0x20 ADD DUP3 DUP1 SLOAD PUSH2 0x98D SWAP1 PUSH2 0x1E99 JUMP JUMPDEST DUP1 ISZERO PUSH2 0x9D8 JUMPI DUP1 PUSH1 0x1F LT PUSH2 0x9AF JUMPI PUSH2 0x100 DUP1 DUP4 SLOAD DIV MUL DUP4 MSTORE SWAP2 PUSH1 0x20 ADD SWAP2 PUSH2 0x9D8 JUMP JUMPDEST DUP3 ADD SWAP2 SWAP1 PUSH0 MSTORE PUSH1 0x20 PUSH0 KECCAK256 SWAP1 JUMPDEST DUP2 SLOAD DUP2 MSTORE SWAP1 PUSH1 0x1 ADD SWAP1 PUSH1 0x20 ADD DUP1 DUP4 GT PUSH2 0x9BB JUMPI DUP3 SWAP1 SUB PUSH1 0x1F AND DUP3 ADD SWAP2 JUMPDEST POP POP POP SWAP2 DUP4 MSTORE POP POP PUSH1 0x2 SWAP2 SWAP1 SWAP2 ADD SLOAD PUSH1 0x1 PUSH1 0x1 PUSH1 0xA0 SHL SUB SWAP1 DUP2 AND PUSH1 0x20 SWAP1 SWAP3 ADD SWAP2 SWAP1 SWAP2 MSTORE PUSH1 0x40 DUP3 ADD MLOAD SWAP2 SWAP3 POP AND CALLER EQ PUSH2 0xA22 JUMPI PUSH1 0x40 MLOAD PUSH3 0x82B429 PUSH1 0xE8 SHL DUP2 MSTORE PUSH1 0x4 ADD PUSH1 0x40 MLOAD DUP1 SWAP2 SUB SWAP1 REVERT JUMPDEST PUSH1 0x5 PUSH0 DUP3 PUSH1 0x20 ADD MLOAD PUSH1 0x40 MLOAD PUSH1 0x20 ADD PUSH2 0xA3A SWAP2 SWAP1 PUSH2 0x2029 JUMP JUMPDEST PUSH1 0x40 DUP1 MLOAD PUSH1 0x1F NOT DUP2 DUP5 SUB ADD DUP2 MSTORE SWAP2 DUP2 MSTORE DUP2 MLOAD PUSH1 0x20 SWAP3 DUP4 ADD KECCAK256 DUP4 MSTORE DUP3 DUP3 ADD SWAP4 SWAP1 SWAP4 MSTORE SWAP1 DUP3 ADD PUSH0 SWAP1 DUP2 KECCAK256 DUP2 SWAP1 SSTORE DUP5 DUP2 MSTORE PUSH1 0x3 SWAP1 SWAP2 MSTORE SWAP1 DUP2 KECCAK256 DUP2 DUP2 SSTORE SWAP1 PUSH2 0xA81 PUSH1 0x1 DUP4 ADD DUP3 PUSH2 0x1999 JUMP JUMPDEST POP PUSH1 0x2 ADD DUP1 SLOAD PUSH1 0x1 PUSH1 0x1 PUSH1 0xA0 SHL SUB NOT AND SWAP1 SSTORE PUSH1 0x40 MLOAD CALLER SWAP1 DUP4 SWAP1 PUSH32 0xE52B7042A48E37BFB277E8A210794950BE40BFAEDEA374E2DFBE0C6EDFF8791D SWAP1 PUSH0 SWAP1 LOG3 POP POP JUMP JUMPDEST PUSH1 0x60 DUP4 DUP3 EQ PUSH2 0xB06 JUMPI PUSH1 0x40 MLOAD PUSH3 0x461BCD PUSH1 0xE5 SHL DUP2 MSTORE PUSH1 0x20 PUSH1 0x4 DUP3 ADD MSTORE PUSH1 0xF PUSH1 0x24 DUP3 ADD MSTORE PUSH15 0x988A9C8EA890BE9A92A69A82A8869 PUSH1 0x8B SHL PUSH1 0x44 DUP3 ADD MSTORE PUSH1 0x64 ADD PUSH2 0x6C8 JUMP JUMPDEST DUP4 PUSH8 0xFFFFFFFFFFFFFFFF DUP2 GT ISZERO PUSH2 0xB1F JUMPI PUSH2 0xB1F PUSH2 0x2044 JUMP JUMPDEST PUSH1 0x40 MLOAD SWAP1 DUP1 DUP3 MSTORE DUP1 PUSH1 0x20 MUL PUSH1 0x20 ADD DUP3 ADD PUSH1 0x40 MSTORE DUP1 ISZERO PUSH2 0xB48 JUMPI DUP2 PUSH1 0x20 ADD PUSH1 0x20 DUP3 MUL DUP1 CALLDATASIZE DUP4 CALLDATACOPY ADD SWAP1 POP JUMPDEST POP SWAP1 POP PUSH0 JUMPDEST DUP5 DUP2 LT ISZERO PUSH2 0xBEA JUMPI PUSH0 DUP1 DUP8 DUP8 DUP5 DUP2 DUP2 LT PUSH2 0xB69 JUMPI PUSH2 0xB69 PUSH2 0x1ED1 JUMP JUMPDEST SWAP1 POP PUSH1 0x20 MUL ADD PUSH1 0x20 DUP2 ADD SWAP1 PUSH2 0xB7E SWAP2 SWAP1 PUSH2 0x1D07 JUMP JUMPDEST PUSH1 0x1 PUSH1 0x1 PUSH1 0xA0 SHL SUB AND PUSH1 0x1 PUSH1 0x1 PUSH1 0xA0 SHL SUB AND DUP2 MSTORE PUSH1 0x20 ADD SWAP1 DUP2 MSTORE PUSH1 0x20 ADD PUSH0 KECCAK256 PUSH0 DUP6 DUP6 DUP5 DUP2 DUP2 LT PUSH2 0xBB0 JUMPI PUSH2 0xBB0 PUSH2 0x1ED1 JUMP JUMPDEST SWAP1 POP PUSH1 0x20 MUL ADD CALLDATALOAD DUP2 MSTORE PUSH1 0x20 ADD SWAP1 DUP2 MSTORE PUSH1 0x20 ADD PUSH0 KECCAK256 SLOAD DUP3 DUP3 DUP2 MLOAD DUP2 LT PUSH2 0xBD7 JUMPI PUSH2 0xBD7 PUSH2 0x1ED1 JUMP JUMPDEST PUSH1 0x20 SWAP1 DUP2 MUL SWAP2 SWAP1 SWAP2 ADD ADD MSTORE PUSH1 0x1 ADD PUSH2 0xB4D JUMP JUMPDEST POP SWAP5 SWAP4 POP POP POP POP JUMP JUMPDEST PUSH0 PUSH2 0xC350 PUSH8 0xDE0B6B3A7640000 DUP1 PUSH2 0xC0A DUP7 PUSH2 0x1781 JUMP JUMPDEST PUSH2 0xC1C PUSH2 0xC17 DUP8 DUP10 PUSH2 0x1E86 JUMP JUMPDEST PUSH2 0x1781 JUMP JUMPDEST PUSH2 0xC26 SWAP2 SWAP1 PUSH2 0x1EE5 JUMP JUMPDEST PUSH2 0xC30 SWAP2 SWAP1 PUSH2 0x1E67 JUMP JUMPDEST PUSH2 0xC3A SWAP2 SWAP1 PUSH2 0x1E67 JUMP JUMPDEST PUSH2 0xC44 SWAP2 SWAP1 PUSH2 0x1E67 JUMP JUMPDEST SWAP4 SWAP3 POP POP POP JUMP JUMPDEST PUSH1 0x3 PUSH1 0x20 MSTORE PUSH0 SWAP1 DUP2 MSTORE PUSH1 0x40 SWAP1 KECCAK256 DUP1 SLOAD PUSH1 0x1 DUP3 ADD DUP1 SLOAD SWAP2 SWAP3 SWAP2 PUSH2 0xC6C SWAP1 PUSH2 0x1E99 JUMP JUMPDEST DUP1 PUSH1 0x1F ADD PUSH1 0x20 DUP1 SWAP2 DIV MUL PUSH1 0x20 ADD PUSH1 0x40 MLOAD SWAP1 DUP2 ADD PUSH1 0x40 MSTORE DUP1 SWAP3 SWAP2 SWAP1 DUP2 DUP2 MSTORE PUSH1 0x20 ADD DUP3 DUP1 SLOAD PUSH2 0xC98 SWAP1 PUSH2 0x1E99 JUMP JUMPDEST DUP1 ISZERO PUSH2 0xCE3 JUMPI DUP1 PUSH1 0x1F LT PUSH2 0xCBA JUMPI PUSH2 0x100 DUP1 DUP4 SLOAD DIV MUL DUP4 MSTORE SWAP2 PUSH1 0x20 ADD SWAP2 PUSH2 0xCE3 JUMP JUMPDEST DUP3 ADD SWAP2 SWAP1 PUSH0 MSTORE PUSH1 0x20 PUSH0 KECCAK256 SWAP1 JUMPDEST DUP2 SLOAD DUP2 MSTORE SWAP1 PUSH1 0x1 ADD SWAP1 PUSH1 0x20 ADD DUP1 DUP4 GT PUSH2 0xCC6 JUMPI DUP3 SWAP1 SUB PUSH1 0x1F AND DUP3 ADD SWAP2 JUMPDEST POP POP POP PUSH1 0x2 SWAP1 SWAP4 ADD SLOAD SWAP2 SWAP3 POP POP PUSH1 0x1 PUSH1 0x1 PUSH1 0xA0 SHL SUB AND DUP4 JUMP JUMPDEST PUSH1 0x1 PUSH1 0x1 PUSH1 0xA0 SHL SUB DUP2 AND PUSH0 SWAP1 DUP2 MSTORE PUSH1 0x4 PUSH1 0x20 SWAP1 DUP2 MSTORE PUSH1 0x40 SWAP2 DUP3 SWAP1 KECCAK256 DUP1 SLOAD DUP4 MLOAD DUP2 DUP5 MUL DUP2 ADD DUP5 ADD SWAP1 SWAP5 MSTORE DUP1 DUP5 MSTORE PUSH1 0x60 SWAP4 SWAP3 DUP4 ADD DUP3 DUP3 DUP1 ISZERO PUSH2 0x654 JUMPI PUSH1 0x20 MUL DUP3 ADD SWAP2 SWAP1 PUSH0 MSTORE PUSH1 0x20 PUSH0 KECCAK256 SWAP1 JUMPDEST DUP2 SLOAD DUP2 MSTORE PUSH1 0x20 ADD SWAP1 PUSH1 0x1 ADD SWAP1 DUP1 DUP4 GT PUSH2 0xD45 JUMPI POP POP POP POP POP SWAP1 POP SWAP2 SWAP1 POP JUMP JUMPDEST PUSH0 DUP3 DUP2 MSTORE PUSH1 0x6 PUSH1 0x20 MSTORE PUSH1 0x40 DUP2 KECCAK256 SLOAD PUSH2 0xC44 SWAP1 PUSH2 0xD81 SWAP1 DUP5 SWAP1 PUSH2 0x1EE5 JUMP JUMPDEST DUP4 PUSH2 0xBF3 JUMP JUMPDEST CALLER PUSH0 DUP2 DUP2 MSTORE PUSH1 0x1 PUSH1 0x20 SWAP1 DUP2 MSTORE PUSH1 0x40 DUP1 DUP4 KECCAK256 PUSH1 0x1 PUSH1 0x1 PUSH1 0xA0 SHL SUB DUP8 AND DUP1 DUP6 MSTORE SWAP1 DUP4 MSTORE SWAP3 DUP2 SWAP1 KECCAK256 DUP1 SLOAD PUSH1 0xFF NOT AND DUP7 ISZERO ISZERO SWAP1 DUP2 OR SWAP1 SWAP2 SSTORE SWAP1 MLOAD SWAP1 DUP2 MSTORE SWAP2 SWAP3 SWAP2 PUSH32 0x17307EAB39AB6107E8899845AD3D59BD9653F200F220920489CA2B5937696C31 SWAP2 ADD PUSH1 0x40 MLOAD DUP1 SWAP2 SUB SWAP1 LOG3 POP POP JUMP JUMPDEST PUSH0 DUP3 DUP3 PUSH1 0x40 MLOAD PUSH1 0x20 ADD PUSH2 0xE06 SWAP3 SWAP2 SWAP1 PUSH2 0x2058 JUMP JUMPDEST PUSH1 0x40 DUP1 MLOAD PUSH1 0x1F NOT DUP2 DUP5 SUB ADD DUP2 MSTORE SWAP2 DUP2 MSTORE DUP2 MLOAD PUSH1 0x20 SWAP3 DUP4 ADD KECCAK256 PUSH0 DUP2 DUP2 MSTORE PUSH1 0x5 SWAP1 SWAP4 MSTORE SWAP2 KECCAK256 SLOAD SWAP1 SWAP2 POP ISZERO PUSH2 0xE6F JUMPI PUSH1 0x40 MLOAD PUSH3 0x461BCD PUSH1 0xE5 SHL DUP2 MSTORE PUSH1 0x20 PUSH1 0x4 DUP3 ADD MSTORE PUSH1 0x12 PUSH1 0x24 DUP3 ADD MSTORE PUSH18 0x63637420616C726561647920657869737473 PUSH1 0x70 SHL PUSH1 0x44 DUP3 ADD MSTORE PUSH1 0x64 ADD PUSH2 0x6C8 JUMP JUMPDEST PUSH0 PUSH1 0x2 SLOAD SWAP1 POP PUSH1 0x40 MLOAD DUP1 PUSH1 0x60 ADD PUSH1 0x40 MSTORE DUP1 DUP3 DUP2 MSTORE PUSH1 0x20 ADD DUP6 DUP6 DUP1 DUP1 PUSH1 0x1F ADD PUSH1 0x20 DUP1 SWAP2 DIV MUL PUSH1 0x20 ADD PUSH1 0x40 MLOAD SWAP1 DUP2 ADD PUSH1 0x40 MSTORE DUP1 SWAP4 SWAP3 SWAP2 SWAP1 DUP2 DUP2 MSTORE PUSH1 0x20 ADD DUP4 DUP4 DUP1 DUP3 DUP5 CALLDATACOPY PUSH0 SWAP3 ADD DUP3 SWAP1 MSTORE POP SWAP4 DUP6 MSTORE POP POP CALLER PUSH1 0x20 SWAP4 DUP5 ADD MSTORE POP DUP4 DUP2 MSTORE PUSH1 0x3 DUP3 MSTORE PUSH1 0x40 SWAP1 KECCAK256 DUP3 MLOAD DUP2 SSTORE SWAP1 DUP3 ADD MLOAD PUSH1 0x1 DUP3 ADD SWAP1 PUSH2 0xEE6 SWAP1 DUP3 PUSH2 0x20B0 JUMP JUMPDEST POP PUSH1 0x40 SWAP2 DUP3 ADD MLOAD PUSH1 0x2 SWAP2 SWAP1 SWAP2 ADD DUP1 SLOAD PUSH1 0x1 PUSH1 0x1 PUSH1 0xA0 SHL SUB NOT AND PUSH1 0x1 PUSH1 0x1 PUSH1 0xA0 SHL SUB SWAP1 SWAP3 AND SWAP2 SWAP1 SWAP2 OR SWAP1 SSTORE CALLER PUSH0 SWAP1 DUP2 MSTORE PUSH1 0x4 PUSH1 0x20 SWAP1 DUP2 MSTORE DUP3 DUP3 KECCAK256 DUP1 SLOAD PUSH1 0x1 DUP2 ADD DUP3 SSTORE SWAP1 DUP4 MSTORE DUP2 DUP4 KECCAK256 ADD DUP5 SWAP1 SSTORE DUP5 DUP3 MSTORE PUSH1 0x5 DUP2 MSTORE DUP3 DUP3 KECCAK256 DUP5 SWAP1 SSTORE DUP4 DUP3 MSTORE PUSH1 0x6 SWAP1 MSTORE SWAP1 DUP2 KECCAK256 DUP1 SLOAD PUSH8 0xDE0B6B3A7640000 SWAP3 SWAP1 PUSH2 0xF60 SWAP1 DUP5 SWAP1 PUSH2 0x1E86 JUMP JUMPDEST SWAP1 SWAP2 SSTORE POP PUSH2 0xF71 SWAP1 POP DUP2 PUSH1 0x1 PUSH2 0x1E86 JUMP JUMPDEST PUSH1 0x2 DUP2 SWAP1 SSTORE POP PUSH2 0xF99 CALLER DUP3 PUSH8 0xDE0B6B3A7640000 PUSH1 0x40 MLOAD DUP1 PUSH1 0x20 ADD PUSH1 0x40 MSTORE DUP1 PUSH0 DUP2 MSTORE POP PUSH2 0x17D5 JUMP JUMPDEST CALLER PUSH1 0x1 PUSH1 0x1 PUSH1 0xA0 SHL SUB AND DUP2 PUSH32 0xB683691564AB594B1F9E9DB91ABAF085736871256A4741BAA41BF30CB9D4F236 DUP7 DUP7 PUSH1 0x40 MLOAD PUSH2 0xFD5 SWAP3 SWAP2 SWAP1 PUSH2 0x216C JUMP JUMPDEST PUSH1 0x40 MLOAD DUP1 SWAP2 SUB SWAP1 LOG3 CALLER DUP2 PUSH0 PUSH1 0x40 DUP1 MLOAD PUSH8 0xDE0B6B3A7640000 DUP2 MSTORE PUSH0 PUSH1 0x20 DUP3 ADD DUP2 SWAP1 MSTORE SWAP2 DUP2 ADD SWAP2 SWAP1 SWAP2 MSTORE PUSH32 0x4373618509EAB3295FC837B6B78CE8F6FC820F403D4A22076932311AD1E4B51E SWAP1 PUSH1 0x60 ADD PUSH1 0x40 MLOAD DUP1 SWAP2 SUB SWAP1 LOG4 POP POP POP POP JUMP JUMPDEST PUSH0 DUP3 DUP2 MSTORE PUSH1 0x6 PUSH1 0x20 MSTORE PUSH1 0x40 DUP2 KECCAK256 SLOAD PUSH2 0xC44 SWAP1 DUP4 PUSH2 0xBF3 JUMP JUMPDEST PUSH0 DUP1 PUSH2 0x1055 DUP5 DUP5 PUSH2 0xD64 JUMP JUMPDEST SWAP1 POP PUSH0 PUSH8 0xDE0B6B3A7640000 PUSH2 0x1072 PUSH7 0x8E1BC9BF040000 DUP5 PUSH2 0x1E50 JUMP JUMPDEST PUSH2 0x107C SWAP2 SWAP1 PUSH2 0x1E67 JUMP JUMPDEST SWAP1 POP PUSH2 0x5B5 DUP2 DUP4 PUSH2 0x1EE5 JUMP JUMPDEST PUSH1 0x2 SLOAD DUP3 LT PUSH2 0x10CE JUMPI PUSH1 0x40 MLOAD PUSH3 0x461BCD PUSH1 0xE5 SHL DUP2 MSTORE PUSH1 0x20 PUSH1 0x4 DUP3 ADD MSTORE PUSH1 0x12 PUSH1 0x24 DUP3 ADD MSTORE PUSH18 0x18D8DD08191BD95CC81B9BDD08195E1A5CDD PUSH1 0x72 SHL PUSH1 0x44 DUP3 ADD MSTORE PUSH1 0x64 ADD PUSH2 0x6C8 JUMP JUMPDEST PUSH0 PUSH2 0x10D9 DUP4 DUP4 PUSH2 0x1031 JUMP JUMPDEST SWAP1 POP PUSH0 PUSH8 0xDE0B6B3A7640000 PUSH2 0x10F6 PUSH7 0x8E1BC9BF040000 DUP5 PUSH2 0x1E50 JUMP JUMPDEST PUSH2 0x1100 SWAP2 SWAP1 PUSH2 0x1E67 JUMP JUMPDEST SWAP1 POP PUSH2 0x110C DUP2 DUP4 PUSH2 0x1E86 JUMP JUMPDEST CALLVALUE LT ISZERO PUSH2 0x1152 JUMPI PUSH1 0x40 MLOAD PUSH3 0x461BCD PUSH1 0xE5 SHL DUP2 MSTORE PUSH1 0x20 PUSH1 0x4 DUP3 ADD MSTORE PUSH1 0x14 PUSH1 0x24 DUP3 ADD MSTORE PUSH20 0x125B9CDD59999A58DA595B9D081C185E5B595B9D PUSH1 0x62 SHL PUSH1 0x44 DUP3 ADD MSTORE PUSH1 0x64 ADD PUSH2 0x6C8 JUMP JUMPDEST PUSH0 DUP5 DUP2 MSTORE PUSH1 0x6 PUSH1 0x20 MSTORE PUSH1 0x40 DUP2 KECCAK256 DUP1 SLOAD DUP6 SWAP3 SWAP1 PUSH2 0x116F SWAP1 DUP5 SWAP1 PUSH2 0x1E86 JUMP JUMPDEST SWAP1 SWAP2 SSTORE POP POP PUSH0 DUP5 DUP2 MSTORE PUSH1 0x7 PUSH1 0x20 MSTORE PUSH1 0x40 DUP2 KECCAK256 DUP1 SLOAD DUP5 SWAP3 SWAP1 PUSH2 0x1191 SWAP1 DUP5 SWAP1 PUSH2 0x1E86 JUMP JUMPDEST SWAP3 POP POP DUP2 SWAP1 SSTORE POP PUSH2 0x11B2 CALLER DUP6 DUP6 PUSH1 0x40 MLOAD DUP1 PUSH1 0x20 ADD PUSH1 0x40 MSTORE DUP1 PUSH0 DUP2 MSTORE POP PUSH2 0x17D5 JUMP JUMPDEST CALLER DUP5 PUSH1 0x1 PUSH1 0x40 DUP1 MLOAD DUP8 DUP2 MSTORE PUSH1 0x20 DUP2 ADD DUP8 SWAP1 MSTORE SWAP1 DUP2 ADD DUP6 SWAP1 MSTORE PUSH32 0x4373618509EAB3295FC837B6B78CE8F6FC820F403D4A22076932311AD1E4B51E SWAP1 PUSH1 0x60 ADD PUSH1 0x40 MLOAD DUP1 SWAP2 SUB SWAP1 LOG4 PUSH0 DUP5 DUP2 MSTORE PUSH1 0x3 PUSH1 0x20 MSTORE PUSH1 0x40 DUP1 DUP3 KECCAK256 PUSH1 0x2 ADD SLOAD SWAP1 MLOAD PUSH1 0x1 PUSH1 0x1 PUSH1 0xA0 SHL SUB SWAP1 SWAP2 AND SWAP1 DUP4 SWAP1 DUP4 DUP2 DUP2 DUP2 DUP6 DUP8 GAS CALL SWAP3 POP POP POP RETURNDATASIZE DUP1 PUSH0 DUP2 EQ PUSH2 0x124F JUMPI PUSH1 0x40 MLOAD SWAP2 POP PUSH1 0x1F NOT PUSH1 0x3F RETURNDATASIZE ADD AND DUP3 ADD PUSH1 0x40 MSTORE RETURNDATASIZE DUP3 MSTORE RETURNDATASIZE PUSH0 PUSH1 0x20 DUP5 ADD RETURNDATACOPY PUSH2 0x1254 JUMP JUMPDEST PUSH1 0x60 SWAP2 POP JUMPDEST POP POP SWAP1 POP DUP1 PUSH2 0x129C JUMPI PUSH1 0x40 MLOAD PUSH3 0x461BCD PUSH1 0xE5 SHL DUP2 MSTORE PUSH1 0x20 PUSH1 0x4 DUP3 ADD MSTORE PUSH1 0x14 PUSH1 0x24 DUP3 ADD MSTORE PUSH20 0x2330B4B632B2103A379039B2B7321022BA3432B9 PUSH1 0x61 SHL PUSH1 0x44 DUP3 ADD MSTORE PUSH1 0x64 ADD PUSH2 0x6C8 JUMP JUMPDEST POP POP POP POP POP JUMP JUMPDEST PUSH1 0x2 SLOAD DUP3 LT PUSH2 0x12E9 JUMPI PUSH1 0x40 MLOAD PUSH3 0x461BCD PUSH1 0xE5 SHL DUP2 MSTORE PUSH1 0x20 PUSH1 0x4 DUP3 ADD MSTORE PUSH1 0x12 PUSH1 0x24 DUP3 ADD MSTORE PUSH18 0x18D8DD08191BD95CC81B9BDD08195E1A5CDD PUSH1 0x72 SHL PUSH1 0x44 DUP3 ADD MSTORE PUSH1 0x64 ADD PUSH2 0x6C8 JUMP JUMPDEST CALLER PUSH0 SWAP1 DUP2 MSTORE PUSH1 0x20 DUP2 DUP2 MSTORE PUSH1 0x40 DUP1 DUP4 KECCAK256 DUP6 DUP5 MSTORE SWAP1 SWAP2 MSTORE SWAP1 KECCAK256 SLOAD DUP2 GT ISZERO PUSH2 0x1347 JUMPI PUSH1 0x40 MLOAD PUSH3 0x461BCD PUSH1 0xE5 SHL DUP2 MSTORE PUSH1 0x20 PUSH1 0x4 DUP3 ADD MSTORE PUSH1 0x14 PUSH1 0x24 DUP3 ADD MSTORE PUSH20 0x496E73756666696369656E742062616C616E6365 PUSH1 0x60 SHL PUSH1 0x44 DUP3 ADD MSTORE PUSH1 0x64 ADD PUSH2 0x6C8 JUMP JUMPDEST PUSH0 DUP3 DUP2 MSTORE PUSH1 0x6 PUSH1 0x20 MSTORE PUSH1 0x40 SWAP1 KECCAK256 SLOAD PUSH8 0xDE0B6B3A7640000 PUSH2 0x1368 DUP4 DUP4 PUSH2 0x1EE5 JUMP JUMPDEST LT ISZERO PUSH2 0x13C6 JUMPI PUSH1 0x40 MLOAD PUSH3 0x461BCD PUSH1 0xE5 SHL DUP2 MSTORE PUSH1 0x20 PUSH1 0x4 DUP3 ADD MSTORE PUSH1 0x27 PUSH1 0x24 DUP3 ADD MSTORE PUSH32 0x537570706C79206E6F7420616C6C6F7765642062656C6F77207072656D696E74 PUSH1 0x44 DUP3 ADD MSTORE PUSH7 0x8185B5BDD5B9D PUSH1 0xCA SHL PUSH1 0x64 DUP3 ADD MSTORE PUSH1 0x84 ADD PUSH2 0x6C8 JUMP JUMPDEST PUSH0 PUSH2 0x13D1 DUP5 DUP5 PUSH2 0xD64 JUMP JUMPDEST SWAP1 POP PUSH0 PUSH8 0xDE0B6B3A7640000 PUSH2 0x13EE PUSH7 0x8E1BC9BF040000 DUP5 PUSH2 0x1E50 JUMP JUMPDEST PUSH2 0x13F8 SWAP2 SWAP1 PUSH2 0x1E67 JUMP JUMPDEST SWAP1 POP PUSH2 0x1405 CALLER DUP7 DUP7 PUSH2 0x1917 JUMP JUMPDEST PUSH2 0x140F DUP5 DUP5 PUSH2 0x1EE5 JUMP JUMPDEST PUSH0 DUP7 DUP2 MSTORE PUSH1 0x6 PUSH1 0x20 SWAP1 DUP2 MSTORE PUSH1 0x40 DUP1 DUP4 KECCAK256 SWAP4 SWAP1 SWAP4 SSTORE PUSH1 0x7 SWAP1 MSTORE SWAP1 DUP2 KECCAK256 DUP1 SLOAD DUP5 SWAP3 SWAP1 PUSH2 0x143A SWAP1 DUP5 SWAP1 PUSH2 0x1EE5 JUMP JUMPDEST SWAP1 SWAP2 SSTORE POP CALLER SWAP1 POP DUP6 PUSH1 0x2 PUSH1 0x40 DUP1 MLOAD DUP9 DUP2 MSTORE PUSH1 0x20 DUP2 ADD DUP8 SWAP1 MSTORE SWAP1 DUP2 ADD DUP6 SWAP1 MSTORE PUSH32 0x4373618509EAB3295FC837B6B78CE8F6FC820F403D4A22076932311AD1E4B51E SWAP1 PUSH1 0x60 ADD PUSH1 0x40 MLOAD DUP1 SWAP2 SUB SWAP1 LOG4 PUSH0 CALLER PUSH2 0x1491 DUP4 DUP6 PUSH2 0x1EE5 JUMP JUMPDEST PUSH1 0x40 MLOAD PUSH0 DUP2 DUP2 DUP2 DUP6 DUP8 GAS CALL SWAP3 POP POP POP RETURNDATASIZE DUP1 PUSH0 DUP2 EQ PUSH2 0x14CA JUMPI PUSH1 0x40 MLOAD SWAP2 POP PUSH1 0x1F NOT PUSH1 0x3F RETURNDATASIZE ADD AND DUP3 ADD PUSH1 0x40 MSTORE RETURNDATASIZE DUP3 MSTORE RETURNDATASIZE PUSH0 PUSH1 0x20 DUP5 ADD RETURNDATACOPY PUSH2 0x14CF JUMP JUMPDEST PUSH1 0x60 SWAP2 POP JUMPDEST POP POP PUSH0 DUP8 DUP2 MSTORE PUSH1 0x3 PUSH1 0x20 MSTORE PUSH1 0x40 DUP1 DUP3 KECCAK256 PUSH1 0x2 ADD SLOAD SWAP1 MLOAD SWAP3 SWAP4 POP SWAP1 SWAP2 PUSH1 0x1 PUSH1 0x1 PUSH1 0xA0 SHL SUB SWAP1 SWAP2 AND SWAP1 DUP5 SWAP1 DUP4 DUP2 DUP2 DUP2 DUP6 DUP8 GAS CALL SWAP3 POP POP POP RETURNDATASIZE DUP1 PUSH0 DUP2 EQ PUSH2 0x152E JUMPI PUSH1 0x40 MLOAD SWAP2 POP PUSH1 0x1F NOT PUSH1 0x3F RETURNDATASIZE ADD AND DUP3 ADD PUSH1 0x40 MSTORE RETURNDATASIZE DUP3 MSTORE RETURNDATASIZE PUSH0 PUSH1 0x20 DUP5 ADD RETURNDATACOPY PUSH2 0x1533 JUMP JUMPDEST PUSH1 0x60 SWAP2 POP JUMPDEST POP POP SWAP1 POP DUP2 DUP1 ISZERO PUSH2 0x1541 JUMPI POP DUP1 JUMPDEST PUSH2 0x1584 JUMPI PUSH1 0x40 MLOAD PUSH3 0x461BCD PUSH1 0xE5 SHL DUP2 MSTORE PUSH1 0x20 PUSH1 0x4 DUP3 ADD MSTORE PUSH1 0x14 PUSH1 0x24 DUP3 ADD MSTORE PUSH20 0x2330B4B632B2103A379039B2B7321022BA3432B9 PUSH1 0x61 SHL PUSH1 0x44 DUP3 ADD MSTORE PUSH1 0x64 ADD PUSH2 0x6C8 JUMP JUMPDEST POP POP POP POP POP POP POP JUMP JUMPDEST CALLER PUSH1 0x1 PUSH1 0x1 PUSH1 0xA0 SHL SUB DUP8 AND EQ DUP1 PUSH2 0x15C6 JUMPI POP PUSH1 0x1 PUSH1 0x1 PUSH1 0xA0 SHL SUB DUP7 AND PUSH0 SWAP1 DUP2 MSTORE PUSH1 0x1 PUSH1 0x20 SWAP1 DUP2 MSTORE PUSH1 0x40 DUP1 DUP4 KECCAK256 CALLER DUP5 MSTORE SWAP1 SWAP2 MSTORE SWAP1 KECCAK256 SLOAD PUSH1 0xFF AND JUMPDEST PUSH2 0x1603 JUMPI PUSH1 0x40 MLOAD PUSH3 0x461BCD PUSH1 0xE5 SHL DUP2 MSTORE PUSH1 0x20 PUSH1 0x4 DUP3 ADD MSTORE PUSH1 0xE PUSH1 0x24 DUP3 ADD MSTORE PUSH14 0x1393D517D055551213D492569151 PUSH1 0x92 SHL PUSH1 0x44 DUP3 ADD MSTORE PUSH1 0x64 ADD PUSH2 0x6C8 JUMP JUMPDEST PUSH1 0x1 PUSH1 0x1 PUSH1 0xA0 SHL SUB DUP7 AND PUSH0 SWAP1 DUP2 MSTORE PUSH1 0x20 DUP2 DUP2 MSTORE PUSH1 0x40 DUP1 DUP4 KECCAK256 DUP8 DUP5 MSTORE SWAP1 SWAP2 MSTORE DUP2 KECCAK256 DUP1 SLOAD DUP6 SWAP3 SWAP1 PUSH2 0x1633 SWAP1 DUP5 SWAP1 PUSH2 0x1EE5 JUMP JUMPDEST SWAP1 SWAP2 SSTORE POP POP PUSH1 0x1 PUSH1 0x1 PUSH1 0xA0 SHL SUB DUP6 AND PUSH0 SWAP1 DUP2 MSTORE PUSH1 0x20 DUP2 DUP2 MSTORE PUSH1 0x40 DUP1 DUP4 KECCAK256 DUP8 DUP5 MSTORE SWAP1 SWAP2 MSTORE DUP2 KECCAK256 DUP1 SLOAD DUP6 SWAP3 SWAP1 PUSH2 0x1668 SWAP1 DUP5 SWAP1 PUSH2 0x1E86 JUMP JUMPDEST SWAP1 SWAP2 SSTORE POP POP PUSH1 0x40 DUP1 MLOAD DUP6 DUP2 MSTORE PUSH1 0x20 DUP2 ADD DUP6 SWAP1 MSTORE PUSH1 0x1 PUSH1 0x1 PUSH1 0xA0 SHL SUB DUP1 DUP9 AND SWAP3 SWAP1 DUP10 AND SWAP2 CALLER SWAP2 PUSH32 0xC3D58168C5AE7397731D063D5BBF3D657854427343F4C083240F7AACAA2D0F62 SWAP2 ADD PUSH1 0x40 MLOAD DUP1 SWAP2 SUB SWAP1 LOG4 PUSH1 0x1 PUSH1 0x1 PUSH1 0xA0 SHL SUB DUP6 AND EXTCODESIZE ISZERO PUSH2 0x1750 JUMPI PUSH1 0x40 MLOAD PUSH4 0xF23A6E61 PUSH1 0xE0 SHL DUP1 DUP3 MSTORE SWAP1 PUSH1 0x1 PUSH1 0x1 PUSH1 0xA0 SHL SUB DUP8 AND SWAP1 PUSH4 0xF23A6E61 SWAP1 PUSH2 0x1700 SWAP1 CALLER SWAP1 DUP12 SWAP1 DUP11 SWAP1 DUP11 SWAP1 DUP11 SWAP1 DUP11 SWAP1 PUSH1 0x4 ADD PUSH2 0x2187 JUMP JUMPDEST PUSH1 0x20 PUSH1 0x40 MLOAD DUP1 DUP4 SUB DUP2 PUSH0 DUP8 GAS CALL ISZERO DUP1 ISZERO PUSH2 0x171C JUMPI RETURNDATASIZE PUSH0 DUP1 RETURNDATACOPY RETURNDATASIZE PUSH0 REVERT JUMPDEST POP POP POP POP PUSH1 0x40 MLOAD RETURNDATASIZE PUSH1 0x1F NOT PUSH1 0x1F DUP3 ADD AND DUP3 ADD DUP1 PUSH1 0x40 MSTORE POP DUP2 ADD SWAP1 PUSH2 0x1740 SWAP2 SWAP1 PUSH2 0x1FE4 JUMP JUMPDEST PUSH1 0x1 PUSH1 0x1 PUSH1 0xE0 SHL SUB NOT AND EQ PUSH2 0x175D JUMP JUMPDEST PUSH1 0x1 PUSH1 0x1 PUSH1 0xA0 SHL SUB DUP6 AND ISZERO ISZERO JUMPDEST PUSH2 0x1779 JUMPI PUSH1 0x40 MLOAD PUSH3 0x461BCD PUSH1 0xE5 SHL DUP2 MSTORE PUSH1 0x4 ADD PUSH2 0x6C8 SWAP1 PUSH2 0x1FFF JUMP JUMPDEST POP POP POP POP POP POP JUMP JUMPDEST PUSH0 PUSH1 0x1 DUP3 GT PUSH2 0x1791 JUMPI POP PUSH0 SWAP2 SWAP1 POP JUMP JUMPDEST PUSH3 0x187E5 PUSH3 0x186A0 PUSH8 0xDE0B6B3A7640000 PUSH0 JUMPDEST PUSH2 0x17AF PUSH1 0x1 DUP8 PUSH2 0x1EE5 JUMP JUMPDEST DUP2 LT ISZERO PUSH2 0xBEA JUMPI DUP3 PUSH2 0x17C1 DUP6 DUP5 PUSH2 0x1E50 JUMP JUMPDEST PUSH2 0x17CB SWAP2 SWAP1 PUSH2 0x1E67 JUMP JUMPDEST SWAP2 POP PUSH1 0x1 ADD PUSH2 0x17A4 JUMP JUMPDEST PUSH1 0x1 PUSH1 0x1 PUSH1 0xA0 SHL SUB DUP5 AND PUSH0 SWAP1 DUP2 MSTORE PUSH1 0x20 DUP2 DUP2 MSTORE PUSH1 0x40 DUP1 DUP4 KECCAK256 DUP7 DUP5 MSTORE SWAP1 SWAP2 MSTORE DUP2 KECCAK256 DUP1 SLOAD DUP5 SWAP3 SWAP1 PUSH2 0x1805 SWAP1 DUP5 SWAP1 PUSH2 0x1E86 JUMP JUMPDEST SWAP1 SWAP2 SSTORE POP POP PUSH1 0x40 DUP1 MLOAD DUP5 DUP2 MSTORE PUSH1 0x20 DUP2 ADD DUP5 SWAP1 MSTORE PUSH1 0x1 PUSH1 0x1 PUSH1 0xA0 SHL SUB DUP7 AND SWAP2 PUSH0 SWAP2 CALLER SWAP2 PUSH32 0xC3D58168C5AE7397731D063D5BBF3D657854427343F4C083240F7AACAA2D0F62 SWAP2 ADD PUSH1 0x40 MLOAD DUP1 SWAP2 SUB SWAP1 LOG4 PUSH1 0x1 PUSH1 0x1 PUSH1 0xA0 SHL SUB DUP5 AND EXTCODESIZE ISZERO PUSH2 0x18E8 JUMPI PUSH1 0x40 MLOAD PUSH4 0xF23A6E61 PUSH1 0xE0 SHL DUP1 DUP3 MSTORE SWAP1 PUSH1 0x1 PUSH1 0x1 PUSH1 0xA0 SHL SUB DUP7 AND SWAP1 PUSH4 0xF23A6E61 SWAP1 PUSH2 0x1898 SWAP1 CALLER SWAP1 PUSH0 SWAP1 DUP10 SWAP1 DUP10 SWAP1 DUP10 SWAP1 PUSH1 0x4 ADD PUSH2 0x21CD JUMP JUMPDEST PUSH1 0x20 PUSH1 0x40 MLOAD DUP1 DUP4 SUB DUP2 PUSH0 DUP8 GAS CALL ISZERO DUP1 ISZERO PUSH2 0x18B4 JUMPI RETURNDATASIZE PUSH0 DUP1 RETURNDATACOPY RETURNDATASIZE PUSH0 REVERT JUMPDEST POP POP POP POP PUSH1 0x40 MLOAD RETURNDATASIZE PUSH1 0x1F NOT PUSH1 0x1F DUP3 ADD AND DUP3 ADD DUP1 PUSH1 0x40 MSTORE POP DUP2 ADD SWAP1 PUSH2 0x18D8 SWAP2 SWAP1 PUSH2 0x1FE4 JUMP JUMPDEST PUSH1 0x1 PUSH1 0x1 PUSH1 0xE0 SHL SUB NOT AND EQ PUSH2 0x18F5 JUMP JUMPDEST PUSH1 0x1 PUSH1 0x1 PUSH1 0xA0 SHL SUB DUP5 AND ISZERO ISZERO JUMPDEST PUSH2 0x1911 JUMPI PUSH1 0x40 MLOAD PUSH3 0x461BCD PUSH1 0xE5 SHL DUP2 MSTORE PUSH1 0x4 ADD PUSH2 0x6C8 SWAP1 PUSH2 0x1FFF JUMP JUMPDEST POP POP POP POP JUMP JUMPDEST PUSH1 0x1 PUSH1 0x1 PUSH1 0xA0 SHL SUB DUP4 AND PUSH0 SWAP1 DUP2 MSTORE PUSH1 0x20 DUP2 DUP2 MSTORE PUSH1 0x40 DUP1 DUP4 KECCAK256 DUP6 DUP5 MSTORE SWAP1 SWAP2 MSTORE DUP2 KECCAK256 DUP1 SLOAD DUP4 SWAP3 SWAP1 PUSH2 0x1947 SWAP1 DUP5 SWAP1 PUSH2 0x1EE5 JUMP JUMPDEST SWAP1 SWAP2 SSTORE POP POP PUSH1 0x40 DUP1 MLOAD DUP4 DUP2 MSTORE PUSH1 0x20 DUP2 ADD DUP4 SWAP1 MSTORE PUSH0 SWAP2 PUSH1 0x1 PUSH1 0x1 PUSH1 0xA0 SHL SUB DUP7 AND SWAP2 CALLER SWAP2 PUSH32 0xC3D58168C5AE7397731D063D5BBF3D657854427343F4C083240F7AACAA2D0F62 SWAP2 ADD PUSH1 0x40 MLOAD DUP1 SWAP2 SUB SWAP1 LOG4 POP POP POP JUMP JUMPDEST POP DUP1 SLOAD PUSH2 0x19A5 SWAP1 PUSH2 0x1E99 JUMP JUMPDEST PUSH0 DUP3 SSTORE DUP1 PUSH1 0x1F LT PUSH2 0x19B4 JUMPI POP POP JUMP JUMPDEST PUSH1 0x1F ADD PUSH1 0x20 SWAP1 DIV SWAP1 PUSH0 MSTORE PUSH1 0x20 PUSH0 KECCAK256 SWAP1 DUP2 ADD SWAP1 PUSH2 0x19D0 SWAP2 SWAP1 PUSH2 0x19D3 JUMP JUMPDEST POP JUMP JUMPDEST JUMPDEST DUP1 DUP3 GT ISZERO PUSH2 0x19E7 JUMPI PUSH0 DUP2 SSTORE PUSH1 0x1 ADD PUSH2 0x19D4 JUMP JUMPDEST POP SWAP1 JUMP JUMPDEST DUP1 CALLDATALOAD PUSH1 0x1 PUSH1 0x1 PUSH1 0xA0 SHL SUB DUP2 AND DUP2 EQ PUSH2 0x1A01 JUMPI PUSH0 DUP1 REVERT JUMPDEST SWAP2 SWAP1 POP JUMP JUMPDEST PUSH0 DUP1 PUSH1 0x40 DUP4 DUP6 SUB SLT ISZERO PUSH2 0x1A17 JUMPI PUSH0 DUP1 REVERT JUMPDEST PUSH2 0x1A20 DUP4 PUSH2 0x19EB JUMP JUMPDEST SWAP5 PUSH1 0x20 SWAP4 SWAP1 SWAP4 ADD CALLDATALOAD SWAP4 POP POP POP JUMP JUMPDEST PUSH1 0x1 PUSH1 0x1 PUSH1 0xE0 SHL SUB NOT DUP2 AND DUP2 EQ PUSH2 0x19D0 JUMPI PUSH0 DUP1 REVERT JUMPDEST PUSH0 PUSH1 0x20 DUP3 DUP5 SUB SLT ISZERO PUSH2 0x1A53 JUMPI PUSH0 DUP1 REVERT JUMPDEST DUP2 CALLDATALOAD PUSH2 0xC44 DUP2 PUSH2 0x1A2E JUMP JUMPDEST PUSH0 DUP1 PUSH1 0x40 DUP4 DUP6 SUB SLT ISZERO PUSH2 0x1A6F JUMPI PUSH0 DUP1 REVERT JUMPDEST POP POP DUP1 CALLDATALOAD SWAP3 PUSH1 0x20 SWAP1 SWAP2 ADD CALLDATALOAD SWAP2 POP JUMP JUMPDEST PUSH0 PUSH1 0x20 DUP3 DUP5 SUB SLT ISZERO PUSH2 0x1A8E JUMPI PUSH0 DUP1 REVERT JUMPDEST POP CALLDATALOAD SWAP2 SWAP1 POP JUMP JUMPDEST PUSH0 JUMPDEST DUP4 DUP2 LT ISZERO PUSH2 0x1AAF JUMPI DUP2 DUP2 ADD MLOAD DUP4 DUP3 ADD MSTORE PUSH1 0x20 ADD PUSH2 0x1A97 JUMP JUMPDEST POP POP PUSH0 SWAP2 ADD MSTORE JUMP JUMPDEST PUSH0 DUP2 MLOAD DUP1 DUP5 MSTORE PUSH2 0x1ACE DUP2 PUSH1 0x20 DUP7 ADD PUSH1 0x20 DUP7 ADD PUSH2 0x1A95 JUMP JUMPDEST PUSH1 0x1F ADD PUSH1 0x1F NOT AND SWAP3 SWAP1 SWAP3 ADD PUSH1 0x20 ADD SWAP3 SWAP2 POP POP JUMP JUMPDEST PUSH1 0x20 DUP2 MSTORE PUSH0 PUSH2 0xC44 PUSH1 0x20 DUP4 ADD DUP5 PUSH2 0x1AB7 JUMP JUMPDEST PUSH0 DUP1 DUP4 PUSH1 0x1F DUP5 ADD SLT PUSH2 0x1B04 JUMPI PUSH0 DUP1 REVERT JUMPDEST POP DUP2 CALLDATALOAD PUSH8 0xFFFFFFFFFFFFFFFF DUP2 GT ISZERO PUSH2 0x1B1B JUMPI PUSH0 DUP1 REVERT JUMPDEST PUSH1 0x20 DUP4 ADD SWAP2 POP DUP4 PUSH1 0x20 DUP3 PUSH1 0x5 SHL DUP6 ADD ADD GT ISZERO PUSH2 0x1B35 JUMPI PUSH0 DUP1 REVERT JUMPDEST SWAP3 POP SWAP3 SWAP1 POP JUMP JUMPDEST PUSH0 DUP1 DUP4 PUSH1 0x1F DUP5 ADD SLT PUSH2 0x1B4C JUMPI PUSH0 DUP1 REVERT JUMPDEST POP DUP2 CALLDATALOAD PUSH8 0xFFFFFFFFFFFFFFFF DUP2 GT ISZERO PUSH2 0x1B63 JUMPI PUSH0 DUP1 REVERT JUMPDEST PUSH1 0x20 DUP4 ADD SWAP2 POP DUP4 PUSH1 0x20 DUP3 DUP6 ADD ADD GT ISZERO PUSH2 0x1B35 JUMPI PUSH0 DUP1 REVERT JUMPDEST PUSH0 DUP1 PUSH0 DUP1 PUSH0 DUP1 PUSH0 DUP1 PUSH1 0xA0 DUP10 DUP12 SUB SLT ISZERO PUSH2 0x1B91 JUMPI PUSH0 DUP1 REVERT JUMPDEST PUSH2 0x1B9A DUP10 PUSH2 0x19EB JUMP JUMPDEST SWAP8 POP PUSH2 0x1BA8 PUSH1 0x20 DUP11 ADD PUSH2 0x19EB JUMP JUMPDEST SWAP7 POP PUSH1 0x40 DUP10 ADD CALLDATALOAD PUSH8 0xFFFFFFFFFFFFFFFF DUP1 DUP3 GT ISZERO PUSH2 0x1BC4 JUMPI PUSH0 DUP1 REVERT JUMPDEST PUSH2 0x1BD0 DUP13 DUP4 DUP14 ADD PUSH2 0x1AF4 JUMP JUMPDEST SWAP1 SWAP9 POP SWAP7 POP PUSH1 0x60 DUP12 ADD CALLDATALOAD SWAP2 POP DUP1 DUP3 GT ISZERO PUSH2 0x1BE8 JUMPI PUSH0 DUP1 REVERT JUMPDEST PUSH2 0x1BF4 DUP13 DUP4 DUP14 ADD PUSH2 0x1AF4 JUMP JUMPDEST SWAP1 SWAP7 POP SWAP5 POP PUSH1 0x80 DUP12 ADD CALLDATALOAD SWAP2 POP DUP1 DUP3 GT ISZERO PUSH2 0x1C0C JUMPI PUSH0 DUP1 REVERT JUMPDEST POP PUSH2 0x1C19 DUP12 DUP3 DUP13 ADD PUSH2 0x1B3C JUMP JUMPDEST SWAP10 SWAP13 SWAP9 SWAP12 POP SWAP7 SWAP10 POP SWAP5 SWAP8 SWAP4 SWAP7 SWAP3 SWAP6 SWAP5 POP POP POP JUMP JUMPDEST PUSH0 DUP1 PUSH0 DUP1 PUSH1 0x40 DUP6 DUP8 SUB SLT ISZERO PUSH2 0x1C40 JUMPI PUSH0 DUP1 REVERT JUMPDEST DUP5 CALLDATALOAD PUSH8 0xFFFFFFFFFFFFFFFF DUP1 DUP3 GT ISZERO PUSH2 0x1C57 JUMPI PUSH0 DUP1 REVERT JUMPDEST PUSH2 0x1C63 DUP9 DUP4 DUP10 ADD PUSH2 0x1AF4 JUMP JUMPDEST SWAP1 SWAP7 POP SWAP5 POP PUSH1 0x20 DUP8 ADD CALLDATALOAD SWAP2 POP DUP1 DUP3 GT ISZERO PUSH2 0x1C7B JUMPI PUSH0 DUP1 REVERT JUMPDEST POP PUSH2 0x1C88 DUP8 DUP3 DUP9 ADD PUSH2 0x1AF4 JUMP JUMPDEST SWAP6 SWAP9 SWAP5 SWAP8 POP SWAP6 POP POP POP POP JUMP JUMPDEST PUSH1 0x20 DUP1 DUP3 MSTORE DUP3 MLOAD DUP3 DUP3 ADD DUP2 SWAP1 MSTORE PUSH0 SWAP2 SWAP1 DUP5 DUP3 ADD SWAP1 PUSH1 0x40 DUP6 ADD SWAP1 DUP5 JUMPDEST DUP2 DUP2 LT ISZERO PUSH2 0x1CCB JUMPI DUP4 MLOAD DUP4 MSTORE SWAP3 DUP5 ADD SWAP3 SWAP2 DUP5 ADD SWAP2 PUSH1 0x1 ADD PUSH2 0x1CAF JUMP JUMPDEST POP SWAP1 SWAP7 SWAP6 POP POP POP POP POP POP JUMP JUMPDEST DUP4 DUP2 MSTORE PUSH1 0x60 PUSH1 0x20 DUP3 ADD MSTORE PUSH0 PUSH2 0x1CEF PUSH1 0x60 DUP4 ADD DUP6 PUSH2 0x1AB7 JUMP JUMPDEST SWAP1 POP PUSH1 0x1 DUP1 PUSH1 0xA0 SHL SUB DUP4 AND PUSH1 0x40 DUP4 ADD MSTORE SWAP5 SWAP4 POP POP POP POP JUMP JUMPDEST PUSH0 PUSH1 0x20 DUP3 DUP5 SUB SLT ISZERO PUSH2 0x1D17 JUMPI PUSH0 DUP1 REVERT JUMPDEST PUSH2 0xC44 DUP3 PUSH2 0x19EB JUMP JUMPDEST PUSH0 DUP1 PUSH1 0x40 DUP4 DUP6 SUB SLT ISZERO PUSH2 0x1D31 JUMPI PUSH0 DUP1 REVERT JUMPDEST PUSH2 0x1D3A DUP4 PUSH2 0x19EB JUMP JUMPDEST SWAP2 POP PUSH1 0x20 DUP4 ADD CALLDATALOAD DUP1 ISZERO ISZERO DUP2 EQ PUSH2 0x1D4E JUMPI PUSH0 DUP1 REVERT JUMPDEST DUP1 SWAP2 POP POP SWAP3 POP SWAP3 SWAP1 POP JUMP JUMPDEST PUSH0 DUP1 PUSH1 0x20 DUP4 DUP6 SUB SLT ISZERO PUSH2 0x1D6A JUMPI PUSH0 DUP1 REVERT JUMPDEST DUP3 CALLDATALOAD PUSH8 0xFFFFFFFFFFFFFFFF DUP2 GT ISZERO PUSH2 0x1D80 JUMPI PUSH0 DUP1 REVERT JUMPDEST PUSH2 0x1D8C DUP6 DUP3 DUP7 ADD PUSH2 0x1B3C JUMP JUMPDEST SWAP1 SWAP7 SWAP1 SWAP6 POP SWAP4 POP POP POP POP JUMP JUMPDEST PUSH0 DUP1 PUSH1 0x40 DUP4 DUP6 SUB SLT ISZERO PUSH2 0x1DA9 JUMPI PUSH0 DUP1 REVERT JUMPDEST PUSH2 0x1DB2 DUP4 PUSH2 0x19EB JUMP JUMPDEST SWAP2 POP PUSH2 0x1DC0 PUSH1 0x20 DUP5 ADD PUSH2 0x19EB JUMP JUMPDEST SWAP1 POP SWAP3 POP SWAP3 SWAP1 POP JUMP JUMPDEST PUSH0 DUP1 PUSH0 DUP1 PUSH0 DUP1 PUSH1 0xA0 DUP8 DUP10 SUB SLT ISZERO PUSH2 0x1DDE JUMPI PUSH0 DUP1 REVERT JUMPDEST PUSH2 0x1DE7 DUP8 PUSH2 0x19EB JUMP JUMPDEST SWAP6 POP PUSH2 0x1DF5 PUSH1 0x20 DUP9 ADD PUSH2 0x19EB JUMP JUMPDEST SWAP5 POP PUSH1 0x40 DUP8 ADD CALLDATALOAD SWAP4 POP PUSH1 0x60 DUP8 ADD CALLDATALOAD SWAP3 POP PUSH1 0x80 DUP8 ADD CALLDATALOAD PUSH8 0xFFFFFFFFFFFFFFFF DUP2 GT ISZERO PUSH2 0x1E1E JUMPI PUSH0 DUP1 REVERT JUMPDEST PUSH2 0x1E2A DUP10 DUP3 DUP11 ADD PUSH2 0x1B3C JUMP JUMPDEST SWAP8 SWAP11 SWAP7 SWAP10 POP SWAP5 SWAP8 POP SWAP3 SWAP6 SWAP4 SWAP5 SWAP3 POP POP POP JUMP JUMPDEST PUSH4 0x4E487B71 PUSH1 0xE0 SHL PUSH0 MSTORE PUSH1 0x11 PUSH1 0x4 MSTORE PUSH1 0x24 PUSH0 REVERT JUMPDEST DUP1 DUP3 MUL DUP2 ISZERO DUP3 DUP3 DIV DUP5 EQ OR PUSH2 0x570 JUMPI PUSH2 0x570 PUSH2 0x1E3C JUMP JUMPDEST PUSH0 DUP3 PUSH2 0x1E81 JUMPI PUSH4 0x4E487B71 PUSH1 0xE0 SHL PUSH0 MSTORE PUSH1 0x12 PUSH1 0x4 MSTORE PUSH1 0x24 PUSH0 REVERT JUMPDEST POP DIV SWAP1 JUMP JUMPDEST DUP1 DUP3 ADD DUP1 DUP3 GT ISZERO PUSH2 0x570 JUMPI PUSH2 0x570 PUSH2 0x1E3C JUMP JUMPDEST PUSH1 0x1 DUP2 DUP2 SHR SWAP1 DUP3 AND DUP1 PUSH2 0x1EAD JUMPI PUSH1 0x7F DUP3 AND SWAP2 POP JUMPDEST PUSH1 0x20 DUP3 LT DUP2 SUB PUSH2 0x1ECB JUMPI PUSH4 0x4E487B71 PUSH1 0xE0 SHL PUSH0 MSTORE PUSH1 0x22 PUSH1 0x4 MSTORE PUSH1 0x24 PUSH0 REVERT JUMPDEST POP SWAP2 SWAP1 POP JUMP JUMPDEST PUSH4 0x4E487B71 PUSH1 0xE0 SHL PUSH0 MSTORE PUSH1 0x32 PUSH1 0x4 MSTORE PUSH1 0x24 PUSH0 REVERT JUMPDEST DUP2 DUP2 SUB DUP2 DUP2 GT ISZERO PUSH2 0x570 JUMPI PUSH2 0x570 PUSH2 0x1E3C JUMP JUMPDEST DUP2 DUP4 MSTORE PUSH0 PUSH1 0x1 PUSH1 0x1 PUSH1 0xFB SHL SUB DUP4 GT ISZERO PUSH2 0x1F0F JUMPI PUSH0 DUP1 REVERT JUMPDEST DUP3 PUSH1 0x5 SHL DUP1 DUP4 PUSH1 0x20 DUP8 ADD CALLDATACOPY SWAP4 SWAP1 SWAP4 ADD PUSH1 0x20 ADD SWAP4 SWAP3 POP POP POP JUMP JUMPDEST PUSH1 0x40 DUP2 MSTORE PUSH0 PUSH2 0x1F3B PUSH1 0x40 DUP4 ADD DUP7 DUP9 PUSH2 0x1EF8 JUMP JUMPDEST DUP3 DUP2 SUB PUSH1 0x20 DUP5 ADD MSTORE PUSH2 0x1F4E DUP2 DUP6 DUP8 PUSH2 0x1EF8 JUMP JUMPDEST SWAP8 SWAP7 POP POP POP POP POP POP POP JUMP JUMPDEST DUP2 DUP4 MSTORE DUP2 DUP2 PUSH1 0x20 DUP6 ADD CALLDATACOPY POP PUSH0 DUP3 DUP3 ADD PUSH1 0x20 SWAP1 DUP2 ADD SWAP2 SWAP1 SWAP2 MSTORE PUSH1 0x1F SWAP1 SWAP2 ADD PUSH1 0x1F NOT AND SWAP1 SWAP2 ADD ADD SWAP1 JUMP JUMPDEST PUSH1 0x1 PUSH1 0x1 PUSH1 0xA0 SHL SUB DUP10 DUP2 AND DUP3 MSTORE DUP9 AND PUSH1 0x20 DUP3 ADD MSTORE PUSH1 0xA0 PUSH1 0x40 DUP3 ADD DUP2 SWAP1 MSTORE PUSH0 SWAP1 PUSH2 0x1FAD SWAP1 DUP4 ADD DUP9 DUP11 PUSH2 0x1EF8 JUMP JUMPDEST DUP3 DUP2 SUB PUSH1 0x60 DUP5 ADD MSTORE PUSH2 0x1FC0 DUP2 DUP8 DUP10 PUSH2 0x1EF8 JUMP JUMPDEST SWAP1 POP DUP3 DUP2 SUB PUSH1 0x80 DUP5 ADD MSTORE PUSH2 0x1FD5 DUP2 DUP6 DUP8 PUSH2 0x1F59 JUMP JUMPDEST SWAP12 SWAP11 POP POP POP POP POP POP POP POP POP POP POP JUMP JUMPDEST PUSH0 PUSH1 0x20 DUP3 DUP5 SUB SLT ISZERO PUSH2 0x1FF4 JUMPI PUSH0 DUP1 REVERT JUMPDEST DUP2 MLOAD PUSH2 0xC44 DUP2 PUSH2 0x1A2E JUMP JUMPDEST PUSH1 0x20 DUP1 DUP3 MSTORE PUSH1 0x10 SWAP1 DUP3 ADD MSTORE PUSH16 0x155394D0519157D49150D25412515395 PUSH1 0x82 SHL PUSH1 0x40 DUP3 ADD MSTORE PUSH1 0x60 ADD SWAP1 JUMP JUMPDEST PUSH0 DUP3 MLOAD PUSH2 0x203A DUP2 DUP5 PUSH1 0x20 DUP8 ADD PUSH2 0x1A95 JUMP JUMPDEST SWAP2 SWAP1 SWAP2 ADD SWAP3 SWAP2 POP POP JUMP JUMPDEST PUSH4 0x4E487B71 PUSH1 0xE0 SHL PUSH0 MSTORE PUSH1 0x41 PUSH1 0x4 MSTORE PUSH1 0x24 PUSH0 REVERT JUMPDEST DUP2 DUP4 DUP3 CALLDATACOPY PUSH0 SWAP2 ADD SWAP1 DUP2 MSTORE SWAP2 SWAP1 POP JUMP JUMPDEST PUSH1 0x1F DUP3 GT ISZERO PUSH2 0x20AB JUMPI DUP1 PUSH0 MSTORE PUSH1 0x20 PUSH0 KECCAK256 PUSH1 0x1F DUP5 ADD PUSH1 0x5 SHR DUP2 ADD PUSH1 0x20 DUP6 LT ISZERO PUSH2 0x208C JUMPI POP DUP1 JUMPDEST PUSH1 0x1F DUP5 ADD PUSH1 0x5 SHR DUP3 ADD SWAP2 POP JUMPDEST DUP2 DUP2 LT ISZERO PUSH2 0x129C JUMPI PUSH0 DUP2 SSTORE PUSH1 0x1 ADD PUSH2 0x2098 JUMP JUMPDEST POP POP POP JUMP JUMPDEST DUP2 MLOAD PUSH8 0xFFFFFFFFFFFFFFFF DUP2 GT ISZERO PUSH2 0x20CA JUMPI PUSH2 0x20CA PUSH2 0x2044 JUMP JUMPDEST PUSH2 0x20DE DUP2 PUSH2 0x20D8 DUP5 SLOAD PUSH2 0x1E99 JUMP JUMPDEST DUP5 PUSH2 0x2067 JUMP JUMPDEST PUSH1 0x20 DUP1 PUSH1 0x1F DUP4 GT PUSH1 0x1 DUP2 EQ PUSH2 0x2111 JUMPI PUSH0 DUP5 ISZERO PUSH2 0x20FA JUMPI POP DUP6 DUP4 ADD MLOAD JUMPDEST PUSH0 NOT PUSH1 0x3 DUP7 SWAP1 SHL SHR NOT AND PUSH1 0x1 DUP6 SWAP1 SHL OR DUP6 SSTORE PUSH2 0x1779 JUMP JUMPDEST PUSH0 DUP6 DUP2 MSTORE PUSH1 0x20 DUP2 KECCAK256 PUSH1 0x1F NOT DUP7 AND SWAP2 JUMPDEST DUP3 DUP2 LT ISZERO PUSH2 0x213F JUMPI DUP9 DUP7 ADD MLOAD DUP3 SSTORE SWAP5 DUP5 ADD SWAP5 PUSH1 0x1 SWAP1 SWAP2 ADD SWAP1 DUP5 ADD PUSH2 0x2120 JUMP JUMPDEST POP DUP6 DUP3 LT ISZERO PUSH2 0x215C JUMPI DUP8 DUP6 ADD MLOAD PUSH0 NOT PUSH1 0x3 DUP9 SWAP1 SHL PUSH1 0xF8 AND SHR NOT AND DUP2 SSTORE JUMPDEST POP POP POP POP POP PUSH1 0x1 SWAP1 DUP2 SHL ADD SWAP1 SSTORE POP JUMP JUMPDEST PUSH1 0x20 DUP2 MSTORE PUSH0 PUSH2 0x217F PUSH1 0x20 DUP4 ADD DUP5 DUP7 PUSH2 0x1F59 JUMP JUMPDEST SWAP5 SWAP4 POP POP POP POP JUMP JUMPDEST PUSH1 0x1 PUSH1 0x1 PUSH1 0xA0 SHL SUB DUP8 DUP2 AND DUP3 MSTORE DUP7 AND PUSH1 0x20 DUP3 ADD MSTORE PUSH1 0x40 DUP2 ADD DUP6 SWAP1 MSTORE PUSH1 0x60 DUP2 ADD DUP5 SWAP1 MSTORE PUSH1 0xA0 PUSH1 0x80 DUP3 ADD DUP2 SWAP1 MSTORE PUSH0 SWAP1 PUSH2 0x21C1 SWAP1 DUP4 ADD DUP5 DUP7 PUSH2 0x1F59 JUMP JUMPDEST SWAP9 SWAP8 POP POP POP POP POP POP POP POP JUMP JUMPDEST PUSH1 0x1 PUSH1 0x1 PUSH1 0xA0 SHL SUB DUP7 DUP2 AND DUP3 MSTORE DUP6 AND PUSH1 0x20 DUP3 ADD MSTORE PUSH1 0x40 DUP2 ADD DUP5 SWAP1 MSTORE PUSH1 0x60 DUP2 ADD DUP4 SWAP1 MSTORE PUSH1 0xA0 PUSH1 0x80 DUP3 ADD DUP2 SWAP1 MSTORE PUSH0 SWAP1 PUSH2 0x1F4E SWAP1 DUP4 ADD DUP5 PUSH2 0x1AB7 JUMP INVALID LOG2 PUSH5 0x6970667358 0x22 SLT KECCAK256 0xB5 0xEB 0xD2 0xB1 BLOBHASH PUSH17 0xD599FA4D6F22C3FF04F436BA140880D7F8 MSTORE 0xD9 DUP4 0xD6 0xB6 0xC1 0xC0 PUSH29 0xDA64736F6C634300081800330000000000000000000000000000000000 "
				},
				"gasEstimates": {
					"creation": {
						"codeDepositCost": "1752800",
						"executionCost": "1839",
						"totalCost": "1754639"
					},
					"external": {
						"CREATOR_FEE_PERCENT()": "227",
						"CREATOR_PREMINT()": "272",
						"balanceOf(address,uint256)": "2616",
						"balanceOfBatch(address[],uint256[])": "infinite",
						"buy(uint256,uint256)": "infinite",
						"cctIndex()": "2328",
						"ccts(uint256)": "infinite",
						"create(string)": "infinite",
						"getBuyPrice(uint256,uint256)": "infinite",
						"getBuyPriceAfterFee(uint256,uint256)": "infinite",
						"getPrice(uint256,uint256)": "infinite",
						"getSellPrice(uint256,uint256)": "infinite",
						"getSellPriceAfterFee(uint256,uint256)": "infinite",
						"getcctIdsByAddress(address)": "infinite",
						"isApprovedForAll(address,address)": "infinite",
						"pool(uint256)": "2534",
						"remove(uint256)": "infinite",
						"safeBatchTransferFrom(address,address,uint256[],uint256[],bytes)": "infinite",
						"safeTransferFrom(address,address,uint256,uint256,bytes)": "infinite",
						"sell(uint256,uint256)": "infinite",
						"setApprovalForAll(address,bool)": "26649",
						"supportsInterface(bytes4)": "564",
						"totalSupply(uint256)": "2535",
						"txTocctId(bytes32)": "2469",
						"uri(uint256)": "infinite",
						"userccts(address,uint256)": "4838"
					},
					"internal": {
						"_curve(uint256)": "infinite"
					}
				},
				"methodIdentifiers": {
					"CREATOR_FEE_PERCENT()": "da23eb63",
					"CREATOR_PREMINT()": "7ffb25ac",
					"balanceOf(address,uint256)": "00fdd58e",
					"balanceOfBatch(address[],uint256[])": "4e1273f4",
					"buy(uint256,uint256)": "d6febde8",
					"cctIndex()": "659d3a1d",
					"ccts(uint256)": "6cd3e0eb",
					"create(string)": "b6a46b3b",
					"getBuyPrice(uint256,uint256)": "c157253d",
					"getBuyPriceAfterFee(uint256,uint256)": "063a741f",
					"getPrice(uint256,uint256)": "5cf4ee91",
					"getSellPrice(uint256,uint256)": "9477d85d",
					"getSellPriceAfterFee(uint256,uint256)": "cd9c7121",
					"getcctIdsByAddress(address)": "8fe44666",
					"isApprovedForAll(address,address)": "e985e9c5",
					"pool(uint256)": "fe313112",
					"remove(uint256)": "4cc82215",
					"safeBatchTransferFrom(address,address,uint256[],uint256[],bytes)": "2eb2c2d6",
					"safeTransferFrom(address,address,uint256,uint256,bytes)": "f242432a",
					"sell(uint256,uint256)": "d79875eb",
					"setApprovalForAll(address,bool)": "a22cb465",
					"supportsInterface(bytes4)": "01ffc9a7",
					"totalSupply(uint256)": "bd85b039",
					"txTocctId(bytes32)": "9a730627",
					"uri(uint256)": "0e89341c",
					"userccts(address,uint256)": "1f900ce4"
				}
			},
			"storageLayout": {
				"storage": [
					{
						"astId": 48,
						"contract": "sosh/Sosh.sol:Sosh",
						"label": "balanceOf",
						"offset": 0,
						"slot": "0",
						"type": "t_mapping(t_address,t_mapping(t_uint256,t_uint256))"
					},
					{
						"astId": 54,
						"contract": "sosh/Sosh.sol:Sosh",
						"label": "isApprovedForAll",
						"offset": 0,
						"slot": "1",
						"type": "t_mapping(t_address,t_mapping(t_address,t_bool))"
					},
					{
						"astId": 724,
						"contract": "sosh/Sosh.sol:Sosh",
						"label": "cctIndex",
						"offset": 0,
						"slot": "2",
						"type": "t_uint256"
					},
					{
						"astId": 729,
						"contract": "sosh/Sosh.sol:Sosh",
						"label": "ccts",
						"offset": 0,
						"slot": "3",
						"type": "t_mapping(t_uint256,t_struct(Cct)722_storage)"
					},
					{
						"astId": 734,
						"contract": "sosh/Sosh.sol:Sosh",
						"label": "userccts",
						"offset": 0,
						"slot": "4",
						"type": "t_mapping(t_address,t_array(t_uint256)dyn_storage)"
					},
					{
						"astId": 738,
						"contract": "sosh/Sosh.sol:Sosh",
						"label": "txTocctId",
						"offset": 0,
						"slot": "5",
						"type": "t_mapping(t_bytes32,t_uint256)"
					},
					{
						"astId": 742,
						"contract": "sosh/Sosh.sol:Sosh",
						"label": "totalSupply",
						"offset": 0,
						"slot": "6",
						"type": "t_mapping(t_uint256,t_uint256)"
					},
					{
						"astId": 746,
						"contract": "sosh/Sosh.sol:Sosh",
						"label": "pool",
						"offset": 0,
						"slot": "7",
						"type": "t_mapping(t_uint256,t_uint256)"
					}
				],
				"types": {
					"t_address": {
						"encoding": "inplace",
						"label": "address",
						"numberOfBytes": "20"
					},
					"t_array(t_uint256)dyn_storage": {
						"base": "t_uint256",
						"encoding": "dynamic_array",
						"label": "uint256[]",
						"numberOfBytes": "32"
					},
					"t_bool": {
						"encoding": "inplace",
						"label": "bool",
						"numberOfBytes": "1"
					},
					"t_bytes32": {
						"encoding": "inplace",
						"label": "bytes32",
						"numberOfBytes": "32"
					},
					"t_mapping(t_address,t_array(t_uint256)dyn_storage)": {
						"encoding": "mapping",
						"key": "t_address",
						"label": "mapping(address => uint256[])",
						"numberOfBytes": "32",
						"value": "t_array(t_uint256)dyn_storage"
					},
					"t_mapping(t_address,t_bool)": {
						"encoding": "mapping",
						"key": "t_address",
						"label": "mapping(address => bool)",
						"numberOfBytes": "32",
						"value": "t_bool"
					},
					"t_mapping(t_address,t_mapping(t_address,t_bool))": {
						"encoding": "mapping",
						"key": "t_address",
						"label": "mapping(address => mapping(address => bool))",
						"numberOfBytes": "32",
						"value": "t_mapping(t_address,t_bool)"
					},
					"t_mapping(t_address,t_mapping(t_uint256,t_uint256))": {
						"encoding": "mapping",
						"key": "t_address",
						"label": "mapping(address => mapping(uint256 => uint256))",
						"numberOfBytes": "32",
						"value": "t_mapping(t_uint256,t_uint256)"
					},
					"t_mapping(t_bytes32,t_uint256)": {
						"encoding": "mapping",
						"key": "t_bytes32",
						"label": "mapping(bytes32 => uint256)",
						"numberOfBytes": "32",
						"value": "t_uint256"
					},
					"t_mapping(t_uint256,t_struct(Cct)722_storage)": {
						"encoding": "mapping",
						"key": "t_uint256",
						"label": "mapping(uint256 => struct Sosh.Cct)",
						"numberOfBytes": "32",
						"value": "t_struct(Cct)722_storage"
					},
					"t_mapping(t_uint256,t_uint256)": {
						"encoding": "mapping",
						"key": "t_uint256",
						"label": "mapping(uint256 => uint256)",
						"numberOfBytes": "32",
						"value": "t_uint256"
					},
					"t_string_storage": {
						"encoding": "bytes",
						"label": "string",
						"numberOfBytes": "32"
					},
					"t_struct(Cct)722_storage": {
						"encoding": "inplace",
						"label": "struct Sosh.Cct",
						"members": [
							{
								"astId": 717,
								"contract": "sosh/Sosh.sol:Sosh",
								"label": "id",
								"offset": 0,
								"slot": "0",
								"type": "t_uint256"
							},
							{
								"astId": 719,
								"contract": "sosh/Sosh.sol:Sosh",
								"label": "arTxId",
								"offset": 0,
								"slot": "1",
								"type": "t_string_storage"
							},
							{
								"astId": 721,
								"contract": "sosh/Sosh.sol:Sosh",
								"label": "creator",
								"offset": 0,
								"slot": "2",
								"type": "t_address"
							}
						],
						"numberOfBytes": "96"
					},
					"t_uint256": {
						"encoding": "inplace",
						"label": "uint256",
						"numberOfBytes": "32"
					}
				}
			},
			"userdoc": {
				"kind": "user",
				"methods": {},
				"version": 1
			}
		}
	}
}