{
	"data": {
		"bytecode": {
			"linkReferences": {},
			"object": "608060405234801561000f575f80fd5b506100193361001e565b61006d565b5f80546001600160a01b038381166001600160a01b0319831681178455604051919092169283917f8be0079c531659141344cd1fd0a4f28419497f9722a3daafe3b4186f6b6457e09190a35050565b610f198061007a5f395ff3fe608060405260043610610105575f3560e01c8063715018a611610092578063b51d053411610062578063b51d0534146102bc578063d6e6eb9f146102cf578063f2fde38b146102e4578063f9931be014610303578063fbe532341461032e575f80fd5b8063715018a61461024e5780638da5cb5b146102625780639ae717811461027e578063a49834211461029d575f80fd5b80634635256e116100d85780634635256e146101a55780634ce7957c146101c45780635a8a764e146101fb5780635cf4ee911461021c5780636945b1231461023b575f80fd5b8063020235ff146101095780630f026f6d146101525780632267a89c1461017157806324dc441d14610190575b5f80fd5b348015610114575f80fd5b5061013f610123366004610d86565b600460209081525f928352604080842090915290825290205481565b6040519081526020015b60405180910390f35b34801561015d575f80fd5b5061013f61016c366004610db7565b61034d565b34801561017c575f80fd5b5061013f61018b366004610db7565b6103c4565b34801561019b575f80fd5b5061013f60035481565b3480156101b0575f80fd5b5061013f6101bf366004610db7565b61042f565b3480156101cf575f80fd5b506001546101e3906001600160a01b031681565b6040516001600160a01b039091168152602001610149565b348015610206575f80fd5b5061021a610215366004610ddf565b610458565b005b348015610227575f80fd5b5061013f610236366004610df6565b610465565b61021a610249366004610db7565b610577565b348015610259575f80fd5b5061021a61087d565b34801561026d575f80fd5b505f546001600160a01b03166101e3565b348015610289575f80fd5b5061013f610298366004610db7565b610890565b3480156102a8575f80fd5b5061021a6102b7366004610ddf565b6108bd565b61021a6102ca366004610db7565b6108ca565b3480156102da575f80fd5b5061013f60025481565b3480156102ef575f80fd5b5061021a6102fe366004610e16565b610c20565b34801561030e575f80fd5b5061013f61031d366004610e16565b60056020525f908152604090205481565b348015610339575f80fd5b5061021a610348366004610e16565b610c99565b5f80610359848461042f565b90505f670de0b6b3a7640000600254836103739190610e43565b61037d9190610e5a565b90505f670de0b6b3a7640000600354846103979190610e43565b6103a19190610e5a565b9050806103ae8385610e79565b6103b89190610e79565b93505050505b92915050565b5f806103d08484610890565b90505f670de0b6b3a7640000600254836103ea9190610e43565b6103f49190610e5a565b90505f670de0b6b3a76400006003548461040e9190610e43565b6104189190610e5a565b9050806104258385610e8c565b6103b89190610e8c565b6001600160a01b0382165f908152600560205260408120546104519083610465565b9392505050565b610460610cc3565b600355565b5f8083156104bf57600661047a600186610e8c565b610485906002610e43565b610490906001610e79565b8561049c600182610e8c565b6104a69190610e43565b6104b09190610e43565b6104ba9190610e5a565b6104c1565b5f5b90505f841580156104d25750836001145b610547576006846104e4600188610e8c565b6104ee9190610e79565b6104f9906002610e43565b610504906001610e79565b61050e8688610e79565b8661051a60018a610e8c565b6105249190610e79565b61052e9190610e43565b6105389190610e43565b6105429190610e5a565b610549565b5f5b90505f6105568383610e8c565b9050613e8061056d82670de0b6b3a7640000610e43565b6103b89190610e5a565b6001600160a01b0382165f90815260056020526040902054801515806105a557506001600160a01b03831633145b61060f5760405162461bcd60e51b815260206004820152603060248201527f4f6e6c79207468652073686172657327207375626a6563742063616e2062757960448201526f2074686520666972737420736861726560801b60648201526084015b60405180910390fd5b5f61061a8284610465565b90505f670de0b6b3a7640000600254836106349190610e43565b61063e9190610e5a565b90505f670de0b6b3a7640000600354846106589190610e43565b6106629190610e5a565b90508061066f8385610e79565b6106799190610e79565b3410156106bf5760405162461bcd60e51b8152602060048201526014602482015273125b9cdd59999a58da595b9d081c185e5b595b9d60621b6044820152606401610606565b6001600160a01b0386165f9081526004602090815260408083203384529091529020546106ed908690610e79565b6001600160a01b0387165f90815260046020908152604080832033845290915290205561071a8585610e79565b6001600160a01b0387165f908152600560205260409020557f2c76e7a47fd53e2854856ac3f0a5f3ee40d15cfaa82266357ea9779c486ab9c33387600188878787610765848d610e79565b604051610779989796959493929190610e9f565b60405180910390a16001546040515f916001600160a01b03169084908381818185875af1925050503d805f81146107cb576040519150601f19603f3d011682016040523d82523d5f602084013e6107d0565b606091505b505090505f876001600160a01b0316836040515f6040518083038185875af1925050503d805f811461081d576040519150601f19603f3d011682016040523d82523d5f602084013e610822565b606091505b505090508180156108305750805b6108735760405162461bcd60e51b8152602060048201526014602482015273556e61626c6520746f2073656e642066756e647360601b6044820152606401610606565b5050505050505050565b610885610cc3565b61088e5f610d1c565b565b6001600160a01b0382165f90815260056020526040812054610451906108b7908490610e8c565b83610465565b6108c5610cc3565b600255565b6001600160a01b0382165f908152600560205260409020548181116109315760405162461bcd60e51b815260206004820152601a60248201527f43616e6e6f742073656c6c20746865206c6173742073686172650000000000006044820152606401610606565b5f61094561093f8484610e8c565b84610465565b90505f670de0b6b3a76400006002548361095f9190610e43565b6109699190610e5a565b90505f670de0b6b3a7640000600354846109839190610e43565b61098d9190610e5a565b6001600160a01b0387165f9081526004602090815260408083203384529091529020549091508511156109f85760405162461bcd60e51b8152602060048201526013602482015272496e73756666696369656e742073686172657360681b6044820152606401610606565b6001600160a01b0386165f908152600460209081526040808320338452909152902054610a26908690610e8c565b6001600160a01b0387165f908152600460209081526040808320338452909152902055610a538585610e8c565b6001600160a01b0387165f908152600560205260408120919091557f2c76e7a47fd53e2854856ac3f0a5f3ee40d15cfaa82266357ea9779c486ab9c3903390889088878787610aa2848d610e8c565b604051610ab6989796959493929190610e9f565b60405180910390a15f3382610acb8587610e8c565b610ad59190610e8c565b6040515f81818185875af1925050503d805f8114610b0e576040519150601f19603f3d011682016040523d82523d5f602084013e610b13565b606091505b50506001546040519192505f916001600160a01b039091169085908381818185875af1925050503d805f8114610b64576040519150601f19603f3d011682016040523d82523d5f602084013e610b69565b606091505b505090505f886001600160a01b0316846040515f6040518083038185875af1925050503d805f8114610bb6576040519150601f19603f3d011682016040523d82523d5f602084013e610bbb565b606091505b50509050828015610bc95750815b8015610bd25750805b610c155760405162461bcd60e51b8152602060048201526014602482015273556e61626c6520746f2073656e642066756e647360601b6044820152606401610606565b505050505050505050565b610c28610cc3565b6001600160a01b038116610c8d5760405162461bcd60e51b815260206004820152602660248201527f4f776e61626c653a206e6577206f776e657220697320746865207a65726f206160448201526564647265737360d01b6064820152608401610606565b610c9681610d1c565b50565b610ca1610cc3565b600180546001600160a01b0319166001600160a01b0392909216919091179055565b5f546001600160a01b0316331461088e5760405162461bcd60e51b815260206004820181905260248201527f4f776e61626c653a2063616c6c6572206973206e6f7420746865206f776e65726044820152606401610606565b5f80546001600160a01b038381166001600160a01b0319831681178455604051919092169283917f8be0079c531659141344cd1fd0a4f28419497f9722a3daafe3b4186f6b6457e09190a35050565b80356001600160a01b0381168114610d81575f80fd5b919050565b5f8060408385031215610d97575f80fd5b610da083610d6b565b9150610dae60208401610d6b565b90509250929050565b5f8060408385031215610dc8575f80fd5b610dd183610d6b565b946020939093013593505050565b5f60208284031215610def575f80fd5b5035919050565b5f8060408385031215610e07575f80fd5b50508035926020909101359150565b5f60208284031215610e26575f80fd5b61045182610d6b565b634e487b7160e01b5f52601160045260245ffd5b80820281158282048414176103be576103be610e2f565b5f82610e7457634e487b7160e01b5f52601260045260245ffd5b500490565b808201808211156103be576103be610e2f565b818103818111156103be576103be610e2f565b6001600160a01b03988916815296909716602087015293151560408601526060850192909252608084015260a083015260c082015260e0810191909152610100019056fea26469706673582212200f6f1f540079aca60e8c32d73ab0596f31a7b0796965089bf9747146c1e9f35064736f6c63430008180033",
			"opcodes": "PUSH1 0x80 PUSH1 0x40 MSTORE CALLVALUE DUP1 ISZERO PUSH2 0xF JUMPI PUSH0 DUP1 REVERT JUMPDEST POP PUSH2 0x19 CALLER PUSH2 0x1E JUMP JUMPDEST PUSH2 0x6D JUMP JUMPDEST PUSH0 DUP1 SLOAD PUSH1 0x1 PUSH1 0x1 PUSH1 0xA0 SHL SUB DUP4 DUP2 AND PUSH1 0x1 PUSH1 0x1 PUSH1 0xA0 SHL SUB NOT DUP4 AND DUP2 OR DUP5 SSTORE PUSH1 0x40 MLOAD SWAP2 SWAP1 SWAP3 AND SWAP3 DUP4 SWAP2 PUSH32 0x8BE0079C531659141344CD1FD0A4F28419497F9722A3DAAFE3B4186F6B6457E0 SWAP2 SWAP1 LOG3 POP POP JUMP JUMPDEST PUSH2 0xF19 DUP1 PUSH2 0x7A PUSH0 CODECOPY PUSH0 RETURN INVALID PUSH1 0x80 PUSH1 0x40 MSTORE PUSH1 0x4 CALLDATASIZE LT PUSH2 0x105 JUMPI PUSH0 CALLDATALOAD PUSH1 0xE0 SHR DUP1 PUSH4 0x715018A6 GT PUSH2 0x92 JUMPI DUP1 PUSH4 0xB51D0534 GT PUSH2 0x62 JUMPI DUP1 PUSH4 0xB51D0534 EQ PUSH2 0x2BC JUMPI DUP1 PUSH4 0xD6E6EB9F EQ PUSH2 0x2CF JUMPI DUP1 PUSH4 0xF2FDE38B EQ PUSH2 0x2E4 JUMPI DUP1 PUSH4 0xF9931BE0 EQ PUSH2 0x303 JUMPI DUP1 PUSH4 0xFBE53234 EQ PUSH2 0x32E JUMPI PUSH0 DUP1 REVERT JUMPDEST DUP1 PUSH4 0x715018A6 EQ PUSH2 0x24E JUMPI DUP1 PUSH4 0x8DA5CB5B EQ PUSH2 0x262 JUMPI DUP1 PUSH4 0x9AE71781 EQ PUSH2 0x27E JUMPI DUP1 PUSH4 0xA4983421 EQ PUSH2 0x29D JUMPI PUSH0 DUP1 REVERT JUMPDEST DUP1 PUSH4 0x4635256E GT PUSH2 0xD8 JUMPI DUP1 PUSH4 0x4635256E EQ PUSH2 0x1A5 JUMPI DUP1 PUSH4 0x4CE7957C EQ PUSH2 0x1C4 JUMPI DUP1 PUSH4 0x5A8A764E EQ PUSH2 0x1FB JUMPI DUP1 PUSH4 0x5CF4EE91 EQ PUSH2 0x21C JUMPI DUP1 PUSH4 0x6945B123 EQ PUSH2 0x23B JUMPI PUSH0 DUP1 REVERT JUMPDEST DUP1 PUSH4 0x20235FF EQ PUSH2 0x109 JUMPI DUP1 PUSH4 0xF026F6D EQ PUSH2 0x152 JUMPI DUP1 PUSH4 0x2267A89C EQ PUSH2 0x171 JUMPI DUP1 PUSH4 0x24DC441D EQ PUSH2 0x190 JUMPI JUMPDEST PUSH0 DUP1 REVERT JUMPDEST CALLVALUE DUP1 ISZERO PUSH2 0x114 JUMPI PUSH0 DUP1 REVERT JUMPDEST POP PUSH2 0x13F PUSH2 0x123 CALLDATASIZE PUSH1 0x4 PUSH2 0xD86 JUMP JUMPDEST PUSH1 0x4 PUSH1 0x20 SWAP1 DUP2 MSTORE PUSH0 SWAP3 DUP4 MSTORE PUSH1 0x40 DUP1 DUP5 KECCAK256 SWAP1 SWAP2 MSTORE SWAP1 DUP3 MSTORE SWAP1 KECCAK256 SLOAD DUP2 JUMP JUMPDEST PUSH1 0x40 MLOAD SWAP1 DUP2 MSTORE PUSH1 0x20 ADD JUMPDEST PUSH1 0x40 MLOAD DUP1 SWAP2 SUB SWAP1 RETURN JUMPDEST CALLVALUE DUP1 ISZERO PUSH2 0x15D JUMPI PUSH0 DUP1 REVERT JUMPDEST POP PUSH2 0x13F PUSH2 0x16C CALLDATASIZE PUSH1 0x4 PUSH2 0xDB7 JUMP JUMPDEST PUSH2 0x34D JUMP JUMPDEST CALLVALUE DUP1 ISZERO PUSH2 0x17C JUMPI PUSH0 DUP1 REVERT JUMPDEST POP PUSH2 0x13F PUSH2 0x18B CALLDATASIZE PUSH1 0x4 PUSH2 0xDB7 JUMP JUMPDEST PUSH2 0x3C4 JUMP JUMPDEST CALLVALUE DUP1 ISZERO PUSH2 0x19B JUMPI PUSH0 DUP1 REVERT JUMPDEST POP PUSH2 0x13F PUSH1 0x3 SLOAD DUP2 JUMP JUMPDEST CALLVALUE DUP1 ISZERO PUSH2 0x1B0 JUMPI PUSH0 DUP1 REVERT JUMPDEST POP PUSH2 0x13F PUSH2 0x1BF CALLDATASIZE PUSH1 0x4 PUSH2 0xDB7 JUMP JUMPDEST PUSH2 0x42F JUMP JUMPDEST CALLVALUE DUP1 ISZERO PUSH2 0x1CF JUMPI PUSH0 DUP1 REVERT JUMPDEST POP PUSH1 0x1 SLOAD PUSH2 0x1E3 SWAP1 PUSH1 0x1 PUSH1 0x1 PUSH1 0xA0 SHL SUB AND DUP2 JUMP JUMPDEST PUSH1 0x40 MLOAD PUSH1 0x1 PUSH1 0x1 PUSH1 0xA0 SHL SUB SWAP1 SWAP2 AND DUP2 MSTORE PUSH1 0x20 ADD PUSH2 0x149 JUMP JUMPDEST CALLVALUE DUP1 ISZERO PUSH2 0x206 JUMPI PUSH0 DUP1 REVERT JUMPDEST POP PUSH2 0x21A PUSH2 0x215 CALLDATASIZE PUSH1 0x4 PUSH2 0xDDF JUMP JUMPDEST PUSH2 0x458 JUMP JUMPDEST STOP JUMPDEST CALLVALUE DUP1 ISZERO PUSH2 0x227 JUMPI PUSH0 DUP1 REVERT JUMPDEST POP PUSH2 0x13F PUSH2 0x236 CALLDATASIZE PUSH1 0x4 PUSH2 0xDF6 JUMP JUMPDEST PUSH2 0x465 JUMP JUMPDEST PUSH2 0x21A PUSH2 0x249 CALLDATASIZE PUSH1 0x4 PUSH2 0xDB7 JUMP JUMPDEST PUSH2 0x577 JUMP JUMPDEST CALLVALUE DUP1 ISZERO PUSH2 0x259 JUMPI PUSH0 DUP1 REVERT JUMPDEST POP PUSH2 0x21A PUSH2 0x87D JUMP JUMPDEST CALLVALUE DUP1 ISZERO PUSH2 0x26D JUMPI PUSH0 DUP1 REVERT JUMPDEST POP PUSH0 SLOAD PUSH1 0x1 PUSH1 0x1 PUSH1 0xA0 SHL SUB AND PUSH2 0x1E3 JUMP JUMPDEST CALLVALUE DUP1 ISZERO PUSH2 0x289 JUMPI PUSH0 DUP1 REVERT JUMPDEST POP PUSH2 0x13F PUSH2 0x298 CALLDATASIZE PUSH1 0x4 PUSH2 0xDB7 JUMP JUMPDEST PUSH2 0x890 JUMP JUMPDEST CALLVALUE DUP1 ISZERO PUSH2 0x2A8 JUMPI PUSH0 DUP1 REVERT JUMPDEST POP PUSH2 0x21A PUSH2 0x2B7 CALLDATASIZE PUSH1 0x4 PUSH2 0xDDF JUMP JUMPDEST PUSH2 0x8BD JUMP JUMPDEST PUSH2 0x21A PUSH2 0x2CA CALLDATASIZE PUSH1 0x4 PUSH2 0xDB7 JUMP JUMPDEST PUSH2 0x8CA JUMP JUMPDEST CALLVALUE DUP1 ISZERO PUSH2 0x2DA JUMPI PUSH0 DUP1 REVERT JUMPDEST POP PUSH2 0x13F PUSH1 0x2 SLOAD DUP2 JUMP JUMPDEST CALLVALUE DUP1 ISZERO PUSH2 0x2EF JUMPI PUSH0 DUP1 REVERT JUMPDEST POP PUSH2 0x21A PUSH2 0x2FE CALLDATASIZE PUSH1 0x4 PUSH2 0xE16 JUMP JUMPDEST PUSH2 0xC20 JUMP JUMPDEST CALLVALUE DUP1 ISZERO PUSH2 0x30E JUMPI PUSH0 DUP1 REVERT JUMPDEST POP PUSH2 0x13F PUSH2 0x31D CALLDATASIZE PUSH1 0x4 PUSH2 0xE16 JUMP JUMPDEST PUSH1 0x5 PUSH1 0x20 MSTORE PUSH0 SWAP1 DUP2 MSTORE PUSH1 0x40 SWAP1 KECCAK256 SLOAD DUP2 JUMP JUMPDEST CALLVALUE DUP1 ISZERO PUSH2 0x339 JUMPI PUSH0 DUP1 REVERT JUMPDEST POP PUSH2 0x21A PUSH2 0x348 CALLDATASIZE PUSH1 0x4 PUSH2 0xE16 JUMP JUMPDEST PUSH2 0xC99 JUMP JUMPDEST PUSH0 DUP1 PUSH2 0x359 DUP5 DUP5 PUSH2 0x42F JUMP JUMPDEST SWAP1 POP PUSH0 PUSH8 0xDE0B6B3A7640000 PUSH1 0x2 SLOAD DUP4 PUSH2 0x373 SWAP2 SWAP1 PUSH2 0xE43 JUMP JUMPDEST PUSH2 0x37D SWAP2 SWAP1 PUSH2 0xE5A JUMP JUMPDEST SWAP1 POP PUSH0 PUSH8 0xDE0B6B3A7640000 PUSH1 0x3 SLOAD DUP5 PUSH2 0x397 SWAP2 SWAP1 PUSH2 0xE43 JUMP JUMPDEST PUSH2 0x3A1 SWAP2 SWAP1 PUSH2 0xE5A JUMP JUMPDEST SWAP1 POP DUP1 PUSH2 0x3AE DUP4 DUP6 PUSH2 0xE79 JUMP JUMPDEST PUSH2 0x3B8 SWAP2 SWAP1 PUSH2 0xE79 JUMP JUMPDEST SWAP4 POP POP POP POP JUMPDEST SWAP3 SWAP2 POP POP JUMP JUMPDEST PUSH0 DUP1 PUSH2 0x3D0 DUP5 DUP5 PUSH2 0x890 JUMP JUMPDEST SWAP1 POP PUSH0 PUSH8 0xDE0B6B3A7640000 PUSH1 0x2 SLOAD DUP4 PUSH2 0x3EA SWAP2 SWAP1 PUSH2 0xE43 JUMP JUMPDEST PUSH2 0x3F4 SWAP2 SWAP1 PUSH2 0xE5A JUMP JUMPDEST SWAP1 POP PUSH0 PUSH8 0xDE0B6B3A7640000 PUSH1 0x3 SLOAD DUP5 PUSH2 0x40E SWAP2 SWAP1 PUSH2 0xE43 JUMP JUMPDEST PUSH2 0x418 SWAP2 SWAP1 PUSH2 0xE5A JUMP JUMPDEST SWAP1 POP DUP1 PUSH2 0x425 DUP4 DUP6 PUSH2 0xE8C JUMP JUMPDEST PUSH2 0x3B8 SWAP2 SWAP1 PUSH2 0xE8C JUMP JUMPDEST PUSH1 0x1 PUSH1 0x1 PUSH1 0xA0 SHL SUB DUP3 AND PUSH0 SWAP1 DUP2 MSTORE PUSH1 0x5 PUSH1 0x20 MSTORE PUSH1 0x40 DUP2 KECCAK256 SLOAD PUSH2 0x451 SWAP1 DUP4 PUSH2 0x465 JUMP JUMPDEST SWAP4 SWAP3 POP POP POP JUMP JUMPDEST PUSH2 0x460 PUSH2 0xCC3 JUMP JUMPDEST PUSH1 0x3 SSTORE JUMP JUMPDEST PUSH0 DUP1 DUP4 ISZERO PUSH2 0x4BF JUMPI PUSH1 0x6 PUSH2 0x47A PUSH1 0x1 DUP7 PUSH2 0xE8C JUMP JUMPDEST PUSH2 0x485 SWAP1 PUSH1 0x2 PUSH2 0xE43 JUMP JUMPDEST PUSH2 0x490 SWAP1 PUSH1 0x1 PUSH2 0xE79 JUMP JUMPDEST DUP6 PUSH2 0x49C PUSH1 0x1 DUP3 PUSH2 0xE8C JUMP JUMPDEST PUSH2 0x4A6 SWAP2 SWAP1 PUSH2 0xE43 JUMP JUMPDEST PUSH2 0x4B0 SWAP2 SWAP1 PUSH2 0xE43 JUMP JUMPDEST PUSH2 0x4BA SWAP2 SWAP1 PUSH2 0xE5A JUMP JUMPDEST PUSH2 0x4C1 JUMP JUMPDEST PUSH0 JUMPDEST SWAP1 POP PUSH0 DUP5 ISZERO DUP1 ISZERO PUSH2 0x4D2 JUMPI POP DUP4 PUSH1 0x1 EQ JUMPDEST PUSH2 0x547 JUMPI PUSH1 0x6 DUP5 PUSH2 0x4E4 PUSH1 0x1 DUP9 PUSH2 0xE8C JUMP JUMPDEST PUSH2 0x4EE SWAP2 SWAP1 PUSH2 0xE79 JUMP JUMPDEST PUSH2 0x4F9 SWAP1 PUSH1 0x2 PUSH2 0xE43 JUMP JUMPDEST PUSH2 0x504 SWAP1 PUSH1 0x1 PUSH2 0xE79 JUMP JUMPDEST PUSH2 0x50E DUP7 DUP9 PUSH2 0xE79 JUMP JUMPDEST DUP7 PUSH2 0x51A PUSH1 0x1 DUP11 PUSH2 0xE8C JUMP JUMPDEST PUSH2 0x524 SWAP2 SWAP1 PUSH2 0xE79 JUMP JUMPDEST PUSH2 0x52E SWAP2 SWAP1 PUSH2 0xE43 JUMP JUMPDEST PUSH2 0x538 SWAP2 SWAP1 PUSH2 0xE43 JUMP JUMPDEST PUSH2 0x542 SWAP2 SWAP1 PUSH2 0xE5A JUMP JUMPDEST PUSH2 0x549 JUMP JUMPDEST PUSH0 JUMPDEST SWAP1 POP PUSH0 PUSH2 0x556 DUP4 DUP4 PUSH2 0xE8C JUMP JUMPDEST SWAP1 POP PUSH2 0x3E80 PUSH2 0x56D DUP3 PUSH8 0xDE0B6B3A7640000 PUSH2 0xE43 JUMP JUMPDEST PUSH2 0x3B8 SWAP2 SWAP1 PUSH2 0xE5A JUMP JUMPDEST PUSH1 0x1 PUSH1 0x1 PUSH1 0xA0 SHL SUB DUP3 AND PUSH0 SWAP1 DUP2 MSTORE PUSH1 0x5 PUSH1 0x20 MSTORE PUSH1 0x40 SWAP1 KECCAK256 SLOAD DUP1 ISZERO ISZERO DUP1 PUSH2 0x5A5 JUMPI POP PUSH1 0x1 PUSH1 0x1 PUSH1 0xA0 SHL SUB DUP4 AND CALLER EQ JUMPDEST PUSH2 0x60F JUMPI PUSH1 0x40 MLOAD PUSH3 0x461BCD PUSH1 0xE5 SHL DUP2 MSTORE PUSH1 0x20 PUSH1 0x4 DUP3 ADD MSTORE PUSH1 0x30 PUSH1 0x24 DUP3 ADD MSTORE PUSH32 0x4F6E6C79207468652073686172657327207375626A6563742063616E20627579 PUSH1 0x44 DUP3 ADD MSTORE PUSH16 0x20746865206669727374207368617265 PUSH1 0x80 SHL PUSH1 0x64 DUP3 ADD MSTORE PUSH1 0x84 ADD JUMPDEST PUSH1 0x40 MLOAD DUP1 SWAP2 SUB SWAP1 REVERT JUMPDEST PUSH0 PUSH2 0x61A DUP3 DUP5 PUSH2 0x465 JUMP JUMPDEST SWAP1 POP PUSH0 PUSH8 0xDE0B6B3A7640000 PUSH1 0x2 SLOAD DUP4 PUSH2 0x634 SWAP2 SWAP1 PUSH2 0xE43 JUMP JUMPDEST PUSH2 0x63E SWAP2 SWAP1 PUSH2 0xE5A JUMP JUMPDEST SWAP1 POP PUSH0 PUSH8 0xDE0B6B3A7640000 PUSH1 0x3 SLOAD DUP5 PUSH2 0x658 SWAP2 SWAP1 PUSH2 0xE43 JUMP JUMPDEST PUSH2 0x662 SWAP2 SWAP1 PUSH2 0xE5A JUMP JUMPDEST SWAP1 POP DUP1 PUSH2 0x66F DUP4 DUP6 PUSH2 0xE79 JUMP JUMPDEST PUSH2 0x679 SWAP2 SWAP1 PUSH2 0xE79 JUMP JUMPDEST CALLVALUE LT ISZERO PUSH2 0x6BF JUMPI PUSH1 0x40 MLOAD PUSH3 0x461BCD PUSH1 0xE5 SHL DUP2 MSTORE PUSH1 0x20 PUSH1 0x4 DUP3 ADD MSTORE PUSH1 0x14 PUSH1 0x24 DUP3 ADD MSTORE PUSH20 0x125B9CDD59999A58DA595B9D081C185E5B595B9D PUSH1 0x62 SHL PUSH1 0x44 DUP3 ADD MSTORE PUSH1 0x64 ADD PUSH2 0x606 JUMP JUMPDEST PUSH1 0x1 PUSH1 0x1 PUSH1 0xA0 SHL SUB DUP7 AND PUSH0 SWAP1 DUP2 MSTORE PUSH1 0x4 PUSH1 0x20 SWAP1 DUP2 MSTORE PUSH1 0x40 DUP1 DUP4 KECCAK256 CALLER DUP5 MSTORE SWAP1 SWAP2 MSTORE SWAP1 KECCAK256 SLOAD PUSH2 0x6ED SWAP1 DUP7 SWAP1 PUSH2 0xE79 JUMP JUMPDEST PUSH1 0x1 PUSH1 0x1 PUSH1 0xA0 SHL SUB DUP8 AND PUSH0 SWAP1 DUP2 MSTORE PUSH1 0x4 PUSH1 0x20 SWAP1 DUP2 MSTORE PUSH1 0x40 DUP1 DUP4 KECCAK256 CALLER DUP5 MSTORE SWAP1 SWAP2 MSTORE SWAP1 KECCAK256 SSTORE PUSH2 0x71A DUP6 DUP6 PUSH2 0xE79 JUMP JUMPDEST PUSH1 0x1 PUSH1 0x1 PUSH1 0xA0 SHL SUB DUP8 AND PUSH0 SWAP1 DUP2 MSTORE PUSH1 0x5 PUSH1 0x20 MSTORE PUSH1 0x40 SWAP1 KECCAK256 SSTORE PUSH32 0x2C76E7A47FD53E2854856AC3F0A5F3EE40D15CFAA82266357EA9779C486AB9C3 CALLER DUP8 PUSH1 0x1 DUP9 DUP8 DUP8 DUP8 PUSH2 0x765 DUP5 DUP14 PUSH2 0xE79 JUMP JUMPDEST PUSH1 0x40 MLOAD PUSH2 0x779 SWAP9 SWAP8 SWAP7 SWAP6 SWAP5 SWAP4 SWAP3 SWAP2 SWAP1 PUSH2 0xE9F JUMP JUMPDEST PUSH1 0x40 MLOAD DUP1 SWAP2 SUB SWAP1 LOG1 PUSH1 0x1 SLOAD PUSH1 0x40 MLOAD PUSH0 SWAP2 PUSH1 0x1 PUSH1 0x1 PUSH1 0xA0 SHL SUB AND SWAP1 DUP5 SWAP1 DUP4 DUP2 DUP2 DUP2 DUP6 DUP8 GAS CALL SWAP3 POP POP POP RETURNDATASIZE DUP1 PUSH0 DUP2 EQ PUSH2 0x7CB JUMPI PUSH1 0x40 MLOAD SWAP2 POP PUSH1 0x1F NOT PUSH1 0x3F RETURNDATASIZE ADD AND DUP3 ADD PUSH1 0x40 MSTORE RETURNDATASIZE DUP3 MSTORE RETURNDATASIZE PUSH0 PUSH1 0x20 DUP5 ADD RETURNDATACOPY PUSH2 0x7D0 JUMP JUMPDEST PUSH1 0x60 SWAP2 POP JUMPDEST POP POP SWAP1 POP PUSH0 DUP8 PUSH1 0x1 PUSH1 0x1 PUSH1 0xA0 SHL SUB AND DUP4 PUSH1 0x40 MLOAD PUSH0 PUSH1 0x40 MLOAD DUP1 DUP4 SUB DUP2 DUP6 DUP8 GAS CALL SWAP3 POP POP POP RETURNDATASIZE DUP1 PUSH0 DUP2 EQ PUSH2 0x81D JUMPI PUSH1 0x40 MLOAD SWAP2 POP PUSH1 0x1F NOT PUSH1 0x3F RETURNDATASIZE ADD AND DUP3 ADD PUSH1 0x40 MSTORE RETURNDATASIZE DUP3 MSTORE RETURNDATASIZE PUSH0 PUSH1 0x20 DUP5 ADD RETURNDATACOPY PUSH2 0x822 JUMP JUMPDEST PUSH1 0x60 SWAP2 POP JUMPDEST POP POP SWAP1 POP DUP2 DUP1 ISZERO PUSH2 0x830 JUMPI POP DUP1 JUMPDEST PUSH2 0x873 JUMPI PUSH1 0x40 MLOAD PUSH3 0x461BCD PUSH1 0xE5 SHL DUP2 MSTORE PUSH1 0x20 PUSH1 0x4 DUP3 ADD MSTORE PUSH1 0x14 PUSH1 0x24 DUP3 ADD MSTORE PUSH20 0x556E61626C6520746F2073656E642066756E6473 PUSH1 0x60 SHL PUSH1 0x44 DUP3 ADD MSTORE PUSH1 0x64 ADD PUSH2 0x606 JUMP JUMPDEST POP POP POP POP POP POP POP POP JUMP JUMPDEST PUSH2 0x885 PUSH2 0xCC3 JUMP JUMPDEST PUSH2 0x88E PUSH0 PUSH2 0xD1C JUMP JUMPDEST JUMP JUMPDEST PUSH1 0x1 PUSH1 0x1 PUSH1 0xA0 SHL SUB DUP3 AND PUSH0 SWAP1 DUP2 MSTORE PUSH1 0x5 PUSH1 0x20 MSTORE PUSH1 0x40 DUP2 KECCAK256 SLOAD PUSH2 0x451 SWAP1 PUSH2 0x8B7 SWAP1 DUP5 SWAP1 PUSH2 0xE8C JUMP JUMPDEST DUP4 PUSH2 0x465 JUMP JUMPDEST PUSH2 0x8C5 PUSH2 0xCC3 JUMP JUMPDEST PUSH1 0x2 SSTORE JUMP JUMPDEST PUSH1 0x1 PUSH1 0x1 PUSH1 0xA0 SHL SUB DUP3 AND PUSH0 SWAP1 DUP2 MSTORE PUSH1 0x5 PUSH1 0x20 MSTORE PUSH1 0x40 SWAP1 KECCAK256 SLOAD DUP2 DUP2 GT PUSH2 0x931 JUMPI PUSH1 0x40 MLOAD PUSH3 0x461BCD PUSH1 0xE5 SHL DUP2 MSTORE PUSH1 0x20 PUSH1 0x4 DUP3 ADD MSTORE PUSH1 0x1A PUSH1 0x24 DUP3 ADD MSTORE PUSH32 0x43616E6E6F742073656C6C20746865206C617374207368617265000000000000 PUSH1 0x44 DUP3 ADD MSTORE PUSH1 0x64 ADD PUSH2 0x606 JUMP JUMPDEST PUSH0 PUSH2 0x945 PUSH2 0x93F DUP5 DUP5 PUSH2 0xE8C JUMP JUMPDEST DUP5 PUSH2 0x465 JUMP JUMPDEST SWAP1 POP PUSH0 PUSH8 0xDE0B6B3A7640000 PUSH1 0x2 SLOAD DUP4 PUSH2 0x95F SWAP2 SWAP1 PUSH2 0xE43 JUMP JUMPDEST PUSH2 0x969 SWAP2 SWAP1 PUSH2 0xE5A JUMP JUMPDEST SWAP1 POP PUSH0 PUSH8 0xDE0B6B3A7640000 PUSH1 0x3 SLOAD DUP5 PUSH2 0x983 SWAP2 SWAP1 PUSH2 0xE43 JUMP JUMPDEST PUSH2 0x98D SWAP2 SWAP1 PUSH2 0xE5A JUMP JUMPDEST PUSH1 0x1 PUSH1 0x1 PUSH1 0xA0 SHL SUB DUP8 AND PUSH0 SWAP1 DUP2 MSTORE PUSH1 0x4 PUSH1 0x20 SWAP1 DUP2 MSTORE PUSH1 0x40 DUP1 DUP4 KECCAK256 CALLER DUP5 MSTORE SWAP1 SWAP2 MSTORE SWAP1 KECCAK256 SLOAD SWAP1 SWAP2 POP DUP6 GT ISZERO PUSH2 0x9F8 JUMPI PUSH1 0x40 MLOAD PUSH3 0x461BCD PUSH1 0xE5 SHL DUP2 MSTORE PUSH1 0x20 PUSH1 0x4 DUP3 ADD MSTORE PUSH1 0x13 PUSH1 0x24 DUP3 ADD MSTORE PUSH19 0x496E73756666696369656E7420736861726573 PUSH1 0x68 SHL PUSH1 0x44 DUP3 ADD MSTORE PUSH1 0x64 ADD PUSH2 0x606 JUMP JUMPDEST PUSH1 0x1 PUSH1 0x1 PUSH1 0xA0 SHL SUB DUP7 AND PUSH0 SWAP1 DUP2 MSTORE PUSH1 0x4 PUSH1 0x20 SWAP1 DUP2 MSTORE PUSH1 0x40 DUP1 DUP4 KECCAK256 CALLER DUP5 MSTORE SWAP1 SWAP2 MSTORE SWAP1 KECCAK256 SLOAD PUSH2 0xA26 SWAP1 DUP7 SWAP1 PUSH2 0xE8C JUMP JUMPDEST PUSH1 0x1 PUSH1 0x1 PUSH1 0xA0 SHL SUB DUP8 AND PUSH0 SWAP1 DUP2 MSTORE PUSH1 0x4 PUSH1 0x20 SWAP1 DUP2 MSTORE PUSH1 0x40 DUP1 DUP4 KECCAK256 CALLER DUP5 MSTORE SWAP1 SWAP2 MSTORE SWAP1 KECCAK256 SSTORE PUSH2 0xA53 DUP6 DUP6 PUSH2 0xE8C JUMP JUMPDEST PUSH1 0x1 PUSH1 0x1 PUSH1 0xA0 SHL SUB DUP8 AND PUSH0 SWAP1 DUP2 MSTORE PUSH1 0x5 PUSH1 0x20 MSTORE PUSH1 0x40 DUP2 KECCAK256 SWAP2 SWAP1 SWAP2 SSTORE PUSH32 0x2C76E7A47FD53E2854856AC3F0A5F3EE40D15CFAA82266357EA9779C486AB9C3 SWAP1 CALLER SWAP1 DUP9 SWAP1 DUP9 DUP8 DUP8 DUP8 PUSH2 0xAA2 DUP5 DUP14 PUSH2 0xE8C JUMP JUMPDEST PUSH1 0x40 MLOAD PUSH2 0xAB6 SWAP9 SWAP8 SWAP7 SWAP6 SWAP5 SWAP4 SWAP3 SWAP2 SWAP1 PUSH2 0xE9F JUMP JUMPDEST PUSH1 0x40 MLOAD DUP1 SWAP2 SUB SWAP1 LOG1 PUSH0 CALLER DUP3 PUSH2 0xACB DUP6 DUP8 PUSH2 0xE8C JUMP JUMPDEST PUSH2 0xAD5 SWAP2 SWAP1 PUSH2 0xE8C JUMP JUMPDEST PUSH1 0x40 MLOAD PUSH0 DUP2 DUP2 DUP2 DUP6 DUP8 GAS CALL SWAP3 POP POP POP RETURNDATASIZE DUP1 PUSH0 DUP2 EQ PUSH2 0xB0E JUMPI PUSH1 0x40 MLOAD SWAP2 POP PUSH1 0x1F NOT PUSH1 0x3F RETURNDATASIZE ADD AND DUP3 ADD PUSH1 0x40 MSTORE RETURNDATASIZE DUP3 MSTORE RETURNDATASIZE PUSH0 PUSH1 0x20 DUP5 ADD RETURNDATACOPY PUSH2 0xB13 JUMP JUMPDEST PUSH1 0x60 SWAP2 POP JUMPDEST POP POP PUSH1 0x1 SLOAD PUSH1 0x40 MLOAD SWAP2 SWAP3 POP PUSH0 SWAP2 PUSH1 0x1 PUSH1 0x1 PUSH1 0xA0 SHL SUB SWAP1 SWAP2 AND SWAP1 DUP6 SWAP1 DUP4 DUP2 DUP2 DUP2 DUP6 DUP8 GAS CALL SWAP3 POP POP POP RETURNDATASIZE DUP1 PUSH0 DUP2 EQ PUSH2 0xB64 JUMPI PUSH1 0x40 MLOAD SWAP2 POP PUSH1 0x1F NOT PUSH1 0x3F RETURNDATASIZE ADD AND DUP3 ADD PUSH1 0x40 MSTORE RETURNDATASIZE DUP3 MSTORE RETURNDATASIZE PUSH0 PUSH1 0x20 DUP5 ADD RETURNDATACOPY PUSH2 0xB69 JUMP JUMPDEST PUSH1 0x60 SWAP2 POP JUMPDEST POP POP SWAP1 POP PUSH0 DUP9 PUSH1 0x1 PUSH1 0x1 PUSH1 0xA0 SHL SUB AND DUP5 PUSH1 0x40 MLOAD PUSH0 PUSH1 0x40 MLOAD DUP1 DUP4 SUB DUP2 DUP6 DUP8 GAS CALL SWAP3 POP POP POP RETURNDATASIZE DUP1 PUSH0 DUP2 EQ PUSH2 0xBB6 JUMPI PUSH1 0x40 MLOAD SWAP2 POP PUSH1 0x1F NOT PUSH1 0x3F RETURNDATASIZE ADD AND DUP3 ADD PUSH1 0x40 MSTORE RETURNDATASIZE DUP3 MSTORE RETURNDATASIZE PUSH0 PUSH1 0x20 DUP5 ADD RETURNDATACOPY PUSH2 0xBBB JUMP JUMPDEST PUSH1 0x60 SWAP2 POP JUMPDEST POP POP SWAP1 POP DUP3 DUP1 ISZERO PUSH2 0xBC9 JUMPI POP DUP2 JUMPDEST DUP1 ISZERO PUSH2 0xBD2 JUMPI POP DUP1 JUMPDEST PUSH2 0xC15 JUMPI PUSH1 0x40 MLOAD PUSH3 0x461BCD PUSH1 0xE5 SHL DUP2 MSTORE PUSH1 0x20 PUSH1 0x4 DUP3 ADD MSTORE PUSH1 0x14 PUSH1 0x24 DUP3 ADD MSTORE PUSH20 0x556E61626C6520746F2073656E642066756E6473 PUSH1 0x60 SHL PUSH1 0x44 DUP3 ADD MSTORE PUSH1 0x64 ADD PUSH2 0x606 JUMP JUMPDEST POP POP POP POP POP POP POP POP POP JUMP JUMPDEST PUSH2 0xC28 PUSH2 0xCC3 JUMP JUMPDEST PUSH1 0x1 PUSH1 0x1 PUSH1 0xA0 SHL SUB DUP2 AND PUSH2 0xC8D JUMPI PUSH1 0x40 MLOAD PUSH3 0x461BCD PUSH1 0xE5 SHL DUP2 MSTORE PUSH1 0x20 PUSH1 0x4 DUP3 ADD MSTORE PUSH1 0x26 PUSH1 0x24 DUP3 ADD MSTORE PUSH32 0x4F776E61626C653A206E6577206F776E657220697320746865207A65726F2061 PUSH1 0x44 DUP3 ADD MSTORE PUSH6 0x646472657373 PUSH1 0xD0 SHL PUSH1 0x64 DUP3 ADD MSTORE PUSH1 0x84 ADD PUSH2 0x606 JUMP JUMPDEST PUSH2 0xC96 DUP2 PUSH2 0xD1C JUMP JUMPDEST POP JUMP JUMPDEST PUSH2 0xCA1 PUSH2 0xCC3 JUMP JUMPDEST PUSH1 0x1 DUP1 SLOAD PUSH1 0x1 PUSH1 0x1 PUSH1 0xA0 SHL SUB NOT AND PUSH1 0x1 PUSH1 0x1 PUSH1 0xA0 SHL SUB SWAP3 SWAP1 SWAP3 AND SWAP2 SWAP1 SWAP2 OR SWAP1 SSTORE JUMP JUMPDEST PUSH0 SLOAD PUSH1 0x1 PUSH1 0x1 PUSH1 0xA0 SHL SUB AND CALLER EQ PUSH2 0x88E JUMPI PUSH1 0x40 MLOAD PUSH3 0x461BCD PUSH1 0xE5 SHL DUP2 MSTORE PUSH1 0x20 PUSH1 0x4 DUP3 ADD DUP2 SWAP1 MSTORE PUSH1 0x24 DUP3 ADD MSTORE PUSH32 0x4F776E61626C653A2063616C6C6572206973206E6F7420746865206F776E6572 PUSH1 0x44 DUP3 ADD MSTORE PUSH1 0x64 ADD PUSH2 0x606 JUMP JUMPDEST PUSH0 DUP1 SLOAD PUSH1 0x1 PUSH1 0x1 PUSH1 0xA0 SHL SUB DUP4 DUP2 AND PUSH1 0x1 PUSH1 0x1 PUSH1 0xA0 SHL SUB NOT DUP4 AND DUP2 OR DUP5 SSTORE PUSH1 0x40 MLOAD SWAP2 SWAP1 SWAP3 AND SWAP3 DUP4 SWAP2 PUSH32 0x8BE0079C531659141344CD1FD0A4F28419497F9722A3DAAFE3B4186F6B6457E0 SWAP2 SWAP1 LOG3 POP POP JUMP JUMPDEST DUP1 CALLDATALOAD PUSH1 0x1 PUSH1 0x1 PUSH1 0xA0 SHL SUB DUP2 AND DUP2 EQ PUSH2 0xD81 JUMPI PUSH0 DUP1 REVERT JUMPDEST SWAP2 SWAP1 POP JUMP JUMPDEST PUSH0 DUP1 PUSH1 0x40 DUP4 DUP6 SUB SLT ISZERO PUSH2 0xD97 JUMPI PUSH0 DUP1 REVERT JUMPDEST PUSH2 0xDA0 DUP4 PUSH2 0xD6B JUMP JUMPDEST SWAP2 POP PUSH2 0xDAE PUSH1 0x20 DUP5 ADD PUSH2 0xD6B JUMP JUMPDEST SWAP1 POP SWAP3 POP SWAP3 SWAP1 POP JUMP JUMPDEST PUSH0 DUP1 PUSH1 0x40 DUP4 DUP6 SUB SLT ISZERO PUSH2 0xDC8 JUMPI PUSH0 DUP1 REVERT JUMPDEST PUSH2 0xDD1 DUP4 PUSH2 0xD6B JUMP JUMPDEST SWAP5 PUSH1 0x20 SWAP4 SWAP1 SWAP4 ADD CALLDATALOAD SWAP4 POP POP POP JUMP JUMPDEST PUSH0 PUSH1 0x20 DUP3 DUP5 SUB SLT ISZERO PUSH2 0xDEF JUMPI PUSH0 DUP1 REVERT JUMPDEST POP CALLDATALOAD SWAP2 SWAP1 POP JUMP JUMPDEST PUSH0 DUP1 PUSH1 0x40 DUP4 DUP6 SUB SLT ISZERO PUSH2 0xE07 JUMPI PUSH0 DUP1 REVERT JUMPDEST POP POP DUP1 CALLDATALOAD SWAP3 PUSH1 0x20 SWAP1 SWAP2 ADD CALLDATALOAD SWAP2 POP JUMP JUMPDEST PUSH0 PUSH1 0x20 DUP3 DUP5 SUB SLT ISZERO PUSH2 0xE26 JUMPI PUSH0 DUP1 REVERT JUMPDEST PUSH2 0x451 DUP3 PUSH2 0xD6B JUMP JUMPDEST PUSH4 0x4E487B71 PUSH1 0xE0 SHL PUSH0 MSTORE PUSH1 0x11 PUSH1 0x4 MSTORE PUSH1 0x24 PUSH0 REVERT JUMPDEST DUP1 DUP3 MUL DUP2 ISZERO DUP3 DUP3 DIV DUP5 EQ OR PUSH2 0x3BE JUMPI PUSH2 0x3BE PUSH2 0xE2F JUMP JUMPDEST PUSH0 DUP3 PUSH2 0xE74 JUMPI PUSH4 0x4E487B71 PUSH1 0xE0 SHL PUSH0 MSTORE PUSH1 0x12 PUSH1 0x4 MSTORE PUSH1 0x24 PUSH0 REVERT JUMPDEST POP DIV SWAP1 JUMP JUMPDEST DUP1 DUP3 ADD DUP1 DUP3 GT ISZERO PUSH2 0x3BE JUMPI PUSH2 0x3BE PUSH2 0xE2F JUMP JUMPDEST DUP2 DUP2 SUB DUP2 DUP2 GT ISZERO PUSH2 0x3BE JUMPI PUSH2 0x3BE PUSH2 0xE2F JUMP JUMPDEST PUSH1 0x1 PUSH1 0x1 PUSH1 0xA0 SHL SUB SWAP9 DUP10 AND DUP2 MSTORE SWAP7 SWAP1 SWAP8 AND PUSH1 0x20 DUP8 ADD MSTORE SWAP4 ISZERO ISZERO PUSH1 0x40 DUP7 ADD MSTORE PUSH1 0x60 DUP6 ADD SWAP3 SWAP1 SWAP3 MSTORE PUSH1 0x80 DUP5 ADD MSTORE PUSH1 0xA0 DUP4 ADD MSTORE PUSH1 0xC0 DUP3 ADD MSTORE PUSH1 0xE0 DUP2 ADD SWAP2 SWAP1 SWAP2 MSTORE PUSH2 0x100 ADD SWAP1 JUMP INVALID LOG2 PUSH5 0x6970667358 0x22 SLT KECCAK256 0xF PUSH16 0x1F540079ACA60E8C32D73AB0596F31A7 0xB0 PUSH26 0x6965089BF9747146C1E9F35064736F6C63430008180033000000 "
		},
		"gasEstimates": {
			"creation": {
				"codeDepositCost": "773000",
				"executionCost": "26643",
				"totalCost": "799643"
			},
			"external": {
				"buyShares(address,uint256)": "infinite",
				"getBuyPrice(address,uint256)": "infinite",
				"getBuyPriceAfterFee(address,uint256)": "infinite",
				"getPrice(uint256,uint256)": "infinite",
				"getSellPrice(address,uint256)": "infinite",
				"getSellPriceAfterFee(address,uint256)": "infinite",
				"owner()": "2374",
				"protocolFeeDestination()": "2381",
				"protocolFeePercent()": "2327",
				"renounceOwnership()": "infinite",
				"sellShares(address,uint256)": "infinite",
				"setFeeDestination(address)": "26842",
				"setProtocolFeePercent(uint256)": "24574",
				"setSubjectFeePercent(uint256)": "24552",
				"sharesBalance(address,address)": "infinite",
				"sharesSupply(address)": "2593",
				"subjectFeePercent()": "2373",
				"transferOwnership(address)": "28395"
			}
		},
		"methodIdentifiers": {
			"buyShares(address,uint256)": "6945b123",
			"getBuyPrice(address,uint256)": "4635256e",
			"getBuyPriceAfterFee(address,uint256)": "0f026f6d",
			"getPrice(uint256,uint256)": "5cf4ee91",
			"getSellPrice(address,uint256)": "9ae71781",
			"getSellPriceAfterFee(address,uint256)": "2267a89c",
			"owner()": "8da5cb5b",
			"protocolFeeDestination()": "4ce7957c",
			"protocolFeePercent()": "d6e6eb9f",
			"renounceOwnership()": "715018a6",
			"sellShares(address,uint256)": "b51d0534",
			"setFeeDestination(address)": "fbe53234",
			"setProtocolFeePercent(uint256)": "a4983421",
			"setSubjectFeePercent(uint256)": "5a8a764e",
			"sharesBalance(address,address)": "020235ff",
			"sharesSupply(address)": "f9931be0",
			"subjectFeePercent()": "24dc441d",
			"transferOwnership(address)": "f2fde38b"
		}
	},
	"abi": [
		{
			"anonymous": false,
			"inputs": [
				{
					"indexed": true,
					"internalType": "address",
					"name": "previousOwner",
					"type": "address"
				},
				{
					"indexed": true,
					"internalType": "address",
					"name": "newOwner",
					"type": "address"
				}
			],
			"name": "OwnershipTransferred",
			"type": "event"
		},
		{
			"anonymous": false,
			"inputs": [
				{
					"indexed": false,
					"internalType": "address",
					"name": "trader",
					"type": "address"
				},
				{
					"indexed": false,
					"internalType": "address",
					"name": "subject",
					"type": "address"
				},
				{
					"indexed": false,
					"internalType": "bool",
					"name": "isBuy",
					"type": "bool"
				},
				{
					"indexed": false,
					"internalType": "uint256",
					"name": "shareAmount",
					"type": "uint256"
				},
				{
					"indexed": false,
					"internalType": "uint256",
					"name": "ethAmount",
					"type": "uint256"
				},
				{
					"indexed": false,
					"internalType": "uint256",
					"name": "protocolEthAmount",
					"type": "uint256"
				},
				{
					"indexed": false,
					"internalType": "uint256",
					"name": "subjectEthAmount",
					"type": "uint256"
				},
				{
					"indexed": false,
					"internalType": "uint256",
					"name": "supply",
					"type": "uint256"
				}
			],
			"name": "Trade",
			"type": "event"
		},
		{
			"inputs": [
				{
					"internalType": "address",
					"name": "sharesSubject",
					"type": "address"
				},
				{
					"internalType": "uint256",
					"name": "amount",
					"type": "uint256"
				}
			],
			"name": "buyShares",
			"outputs": [],
			"stateMutability": "payable",
			"type": "function"
		},
		{
			"inputs": [
				{
					"internalType": "address",
					"name": "sharesSubject",
					"type": "address"
				},
				{
					"internalType": "uint256",
					"name": "amount",
					"type": "uint256"
				}
			],
			"name": "getBuyPrice",
			"outputs": [
				{
					"internalType": "uint256",
					"name": "",
					"type": "uint256"
				}
			],
			"stateMutability": "view",
			"type": "function"
		},
		{
			"inputs": [
				{
					"internalType": "address",
					"name": "sharesSubject",
					"type": "address"
				},
				{
					"internalType": "uint256",
					"name": "amount",
					"type": "uint256"
				}
			],
			"name": "getBuyPriceAfterFee",
			"outputs": [
				{
					"internalType": "uint256",
					"name": "",
					"type": "uint256"
				}
			],
			"stateMutability": "view",
			"type": "function"
		},
		{
			"inputs": [
				{
					"internalType": "uint256",
					"name": "supply",
					"type": "uint256"
				},
				{
					"internalType": "uint256",
					"name": "amount",
					"type": "uint256"
				}
			],
			"name": "getPrice",
			"outputs": [
				{
					"internalType": "uint256",
					"name": "",
					"type": "uint256"
				}
			],
			"stateMutability": "pure",
			"type": "function"
		},
		{
			"inputs": [
				{
					"internalType": "address",
					"name": "sharesSubject",
					"type": "address"
				},
				{
					"internalType": "uint256",
					"name": "amount",
					"type": "uint256"
				}
			],
			"name": "getSellPrice",
			"outputs": [
				{
					"internalType": "uint256",
					"name": "",
					"type": "uint256"
				}
			],
			"stateMutability": "view",
			"type": "function"
		},
		{
			"inputs": [
				{
					"internalType": "address",
					"name": "sharesSubject",
					"type": "address"
				},
				{
					"internalType": "uint256",
					"name": "amount",
					"type": "uint256"
				}
			],
			"name": "getSellPriceAfterFee",
			"outputs": [
				{
					"internalType": "uint256",
					"name": "",
					"type": "uint256"
				}
			],
			"stateMutability": "view",
			"type": "function"
		},
		{
			"inputs": [],
			"name": "owner",
			"outputs": [
				{
					"internalType": "address",
					"name": "",
					"type": "address"
				}
			],
			"stateMutability": "view",
			"type": "function"
		},
		{
			"inputs": [],
			"name": "protocolFeeDestination",
			"outputs": [
				{
					"internalType": "address",
					"name": "",
					"type": "address"
				}
			],
			"stateMutability": "view",
			"type": "function"
		},
		{
			"inputs": [],
			"name": "protocolFeePercent",
			"outputs": [
				{
					"internalType": "uint256",
					"name": "",
					"type": "uint256"
				}
			],
			"stateMutability": "view",
			"type": "function"
		},
		{
			"inputs": [],
			"name": "renounceOwnership",
			"outputs": [],
			"stateMutability": "nonpayable",
			"type": "function"
		},
		{
			"inputs": [
				{
					"internalType": "address",
					"name": "sharesSubject",
					"type": "address"
				},
				{
					"internalType": "uint256",
					"name": "amount",
					"type": "uint256"
				}
			],
			"name": "sellShares",
			"outputs": [],
			"stateMutability": "payable",
			"type": "function"
		},
		{
			"inputs": [
				{
					"internalType": "address",
					"name": "_feeDestination",
					"type": "address"
				}
			],
			"name": "setFeeDestination",
			"outputs": [],
			"stateMutability": "nonpayable",
			"type": "function"
		},
		{
			"inputs": [
				{
					"internalType": "uint256",
					"name": "_feePercent",
					"type": "uint256"
				}
			],
			"name": "setProtocolFeePercent",
			"outputs": [],
			"stateMutability": "nonpayable",
			"type": "function"
		},
		{
			"inputs": [
				{
					"internalType": "uint256",
					"name": "_feePercent",
					"type": "uint256"
				}
			],
			"name": "setSubjectFeePercent",
			"outputs": [],
			"stateMutability": "nonpayable",
			"type": "function"
		},
		{
			"inputs": [
				{
					"internalType": "address",
					"name": "",
					"type": "address"
				},
				{
					"internalType": "address",
					"name": "",
					"type": "address"
				}
			],
			"name": "sharesBalance",
			"outputs": [
				{
					"internalType": "uint256",
					"name": "",
					"type": "uint256"
				}
			],
			"stateMutability": "view",
			"type": "function"
		},
		{
			"inputs": [
				{
					"internalType": "address",
					"name": "",
					"type": "address"
				}
			],
			"name": "sharesSupply",
			"outputs": [
				{
					"internalType": "uint256",
					"name": "",
					"type": "uint256"
				}
			],
			"stateMutability": "view",
			"type": "function"
		},
		{
			"inputs": [],
			"name": "subjectFeePercent",
			"outputs": [
				{
					"internalType": "uint256",
					"name": "",
					"type": "uint256"
				}
			],
			"stateMutability": "view",
			"type": "function"
		},
		{
			"inputs": [
				{
					"internalType": "address",
					"name": "newOwner",
					"type": "address"
				}
			],
			"name": "transferOwnership",
			"outputs": [],
			"stateMutability": "nonpayable",
			"type": "function"
		}
	]
}