{
	"data": {
		"bytecode": {
			"linkReferences": {},
			"object": "608060405234801562000010575f80fd5b506200001c3362000022565b62000073565b600280546001600160a01b038381166001600160a01b0319831681179093556040519116919082907f8be0079c531659141344cd1fd0a4f28419497f9722a3daafe3b4186f6b6457e0905f90a35050565b614afc80620000815f395ff3fe60806040526004361061021c575f3560e01c8063a49834211161011e578063d6e6eb9f116100a8578063e985e9c51161006d578063e985e9c51461066c578063f242432a146106a5578063f2fde38b146106c4578063fbe53234146106e3578063fe31311214610702575f80fd5b8063d6e6eb9f146105e5578063d6febde8146105fa578063d79875eb1461060d578063e07b098a1461062c578063e0e1b2c014610641575f80fd5b8063bd85b039116100ee578063bd85b0391461052f578063c157253d1461055a578063c3a52f3314610579578063cd9c712114610598578063cf35bdd0146105b7575f80fd5b8063a4983421146104b3578063b5dfd735146104d2578063b6a46b3b146104f1578063bce854ff14610510575f80fd5b80634cc82215116101aa5780636a8a69aa1161016f5780636a8a69aa14610425578063715018a6146104445780638da5cb5b146104585780639477d85d14610475578063a22cb46514610494575f80fd5b80634cc82215146103655780634ce7957c146103845780634e1273f4146103bb5780635a8a764e146103e75780635cf4ee9114610406575f80fd5b80630e89341c116101f05780630e89341c146102d5578063131e6f6d1461030157806324dc441d146103165780632eb2c2d61461032b5780633398d4871461034a575f80fd5b8062fdd58e1461022057806301a1bf971461026657806301ffc9a714610287578063063a741f146102b6575b5f80fd5b34801561022b575f80fd5b5061025361023a366004614251565b5f60208181529281526040808220909352908152205481565b6040519081526020015b60405180910390f35b348015610271575f80fd5b50610285610280366004614279565b61072d565b005b348015610292575f80fd5b506102a66102a13660046142a7565b610757565b604051901515815260200161025d565b3480156102c1575f80fd5b506102536102d03660046142c2565b6107a8565b3480156102e0575f80fd5b506102f46102ef3660046142e2565b61081d565b60405161025d9190614346565b34801561030c575f80fd5b50610253600c5481565b348015610321575f80fd5b50610253600b5481565b348015610336575f80fd5b506102856103453660046143de565b6108bf565b348015610355575f80fd5b50610253670de0b6b3a764000081565b348015610370575f80fd5b5061028561037f3660046142e2565b610b5f565b34801561038f575f80fd5b506009546103a3906001600160a01b031681565b6040516001600160a01b03909116815260200161025d565b3480156103c6575f80fd5b506103da6103d5366004614491565b610cf7565b60405161025d91906144f8565b3480156103f2575f80fd5b506102856104013660046142e2565b610e27565b348015610411575f80fd5b506102536104203660046142c2565b610e34565b348015610430575f80fd5b5061025361043f366004614251565b610e8c565b34801561044f575f80fd5b50610285610eb7565b348015610463575f80fd5b506002546001600160a01b03166103a3565b348015610480575f80fd5b5061025361048f3660046142c2565b610eca565b34801561049f575f80fd5b506102856104ae366004614548565b610eed565b3480156104be575f80fd5b506102856104cd3660046142e2565b610f58565b3480156104dd575f80fd5b506103da6104ec366004614279565b610f65565b3480156104fc575f80fd5b5061028561050b36600461457d565b610fcd565b34801561051b575f80fd5b5061028561052a3660046142e2565b611359565b34801561053a575f80fd5b506102536105493660046142e2565b60076020525f908152604090205481565b348015610565575f80fd5b506102536105743660046142c2565b611366565b348015610584575f80fd5b50600d546103a3906001600160a01b031681565b3480156105a3575f80fd5b506102536105b23660046142c2565b61137e565b3480156105c2575f80fd5b506105d66105d13660046142e2565b6113e9565b60405161025d939291906145bc565b3480156105f0575f80fd5b50610253600a5481565b6102856106083660046142c2565b61149a565b348015610618575f80fd5b506102856106273660046142c2565b611888565b348015610637575f80fd5b5061025360035481565b34801561064c575f80fd5b5061025361065b3660046142e2565b60066020525f908152604090205481565b348015610677575f80fd5b506102a66106863660046145ec565b600160209081525f928352604080842090915290825290205460ff1681565b3480156106b0575f80fd5b506102856106bf36600461461d565b611c95565b3480156106cf575f80fd5b506102856106de366004614279565b611e89565b3480156106ee575f80fd5b506102856106fd366004614279565b611f02565b34801561070d575f80fd5b5061025361071c3660046142e2565b60086020525f908152604090205481565b610735611f2c565b600d80546001600160a01b0319166001600160a01b0392909216919091179055565b5f6301ffc9a760e01b6001600160e01b0319831614806107875750636cdb3d1360e11b6001600160e01b03198316145b806107a257506303a24d0760e21b6001600160e01b03198316145b92915050565b5f806107b48484611366565b90505f670de0b6b3a7640000600b54836107ce91906146a4565b6107d891906146cf565b90505f670de0b6b3a7640000600a54846107f291906146a4565b6107fc91906146cf565b90508061080983856146ee565b61081391906146ee565b9695505050505050565b5f81815260046020526040902060010180546060919061083c90614701565b80601f016020809104026020016040519081016040528092919081815260200182805461086890614701565b80156108b35780601f1061088a576101008083540402835291602001916108b3565b820191905f5260205f20905b81548152906001019060200180831161089657829003601f168201915b50505050509050919050565b8483146109055760405162461bcd60e51b815260206004820152600f60248201526e0988a9c8ea890be9a92a69a82a8869608b1b60448201526064015b60405180910390fd5b336001600160a01b038916148061093e57506001600160a01b0388165f90815260016020908152604080832033845290915290205460ff165b61097b5760405162461bcd60e51b815260206004820152600e60248201526d1393d517d055551213d49256915160921b60448201526064016108fc565b5f805f5b87811015610a325788888281811061099957610999614733565b9050602002013592508686828181106109b4576109b4614733565b6001600160a01b038e165f90815260208181526040808320898452825282208054939091029490940135955085939250906109f0908490614747565b90915550506001600160a01b038a165f9081526020818152604080832086845290915281208054849290610a259084906146ee565b909155505060010161097f565b50886001600160a01b03168a6001600160a01b0316336001600160a01b03167f4a39dc06d4c0dbc64b70af90fd698a233a518aa5d07e595d983b8c0526c8f7fb8b8b8b8b604051610a86949392919061478a565b60405180910390a46001600160a01b0389163b15610b2a5760405163bc197c8160e01b808252906001600160a01b038b169063bc197c8190610ada9033908f908e908e908e908e908e908e906004016147e3565b6020604051808303815f875af1158015610af6573d5f803e3d5ffd5b505050506040513d601f19601f82011682018060405250810190610b1a9190614837565b6001600160e01b03191614610b37565b6001600160a01b03891615155b610b535760405162461bcd60e51b81526004016108fc90614852565b50505050505050505050565b5f60045f8381526020019081526020015f206040518060600160405290815f8201548152602001600182018054610b9590614701565b80601f0160208091040260200160405190810160405280929190818152602001828054610bc190614701565b8015610c0c5780601f10610be357610100808354040283529160200191610c0c565b820191905f5260205f20905b815481529060010190602001808311610bef57829003601f168201915b5050509183525050600291909101546001600160a01b039081166020909201919091526040820151919250163314610c56576040516282b42960e81b815260040160405180910390fd5b60065f8260200151604051602001610c6e919061487c565b60408051601f1981840301815291815281516020928301208352828201939093529082015f908120819055848152600490915290812081815590610cb560018301826141f1565b5060020180546001600160a01b0319169055604051339083907fe52b7042a48e37bfb277e8a210794950be40bfaedea374e2dfbe0c6edff8791d905f90a35050565b6060838214610d3a5760405162461bcd60e51b815260206004820152600f60248201526e0988a9c8ea890be9a92a69a82a8869608b1b60448201526064016108fc565b8367ffffffffffffffff811115610d5357610d53614897565b604051908082528060200260200182016040528015610d7c578160200160208202803683370190505b5090505f5b84811015610e1e575f80878784818110610d9d57610d9d614733565b9050602002016020810190610db29190614279565b6001600160a01b03166001600160a01b031681526020019081526020015f205f858584818110610de457610de4614733565b9050602002013581526020019081526020015f2054828281518110610e0b57610e0b614733565b6020908102919091010152600101610d81565b50949350505050565b610e2f611f2c565b600b55565b5f61c350670de0b6b3a764000080610e4b86611f86565b610e5d610e5887896146ee565b611f86565b610e679190614747565b610e7191906146cf565b610e7b91906146cf565b610e8591906146cf565b9392505050565b6005602052815f5260405f208181548110610ea5575f80fd5b905f5260205f20015f91509150505481565b610ebf611f2c565b610ec85f612032565b565b5f82815260076020526040812054610e8590610ee7908490614747565b83610e34565b335f8181526001602090815260408083206001600160a01b03871680855290835292819020805460ff191686151590811790915590519081529192917f17307eab39ab6107e8899845ad3d59bd9653f200f220920489ca2b5937696c31910160405180910390a35050565b610f60611f2c565b600a55565b6001600160a01b0381165f908152600560209081526040918290208054835181840281018401909452808452606093928301828280156108b357602002820191905f5260205f20905b815481526020019060010190808311610fae5750505050509050919050565b5f8282604051602001610fe19291906148ab565b60408051601f1981840301815291815281516020928301205f81815260069093529120549091501561104c5760405162461bcd60e51b8152602060048201526014602482015273417373657420616c72656164792065786973747360601b60448201526064016108fc565b600c541561118c57600c54600d546040516370a0823160e01b81523360048201526001600160a01b03909116906370a0823190602401602060405180830381865afa15801561109d573d5f803e3d5ffd5b505050506040513d601f19601f820116820180604052508101906110c191906148ba565b101561110f5760405162461bcd60e51b815260206004820152601e60248201527f496e73756666696369656e742053535420746f6b656e2062616c616e6365000060448201526064016108fc565b600d54600954600c546040516323b872dd60e01b81526001600160a01b03938416936323b872dd9361114a93339392909116916004016148d1565b6020604051808303815f875af1158015611166573d5f803e3d5ffd5b505050506040513d601f19601f8201168201806040525081019061118a91906148f5565b505b5f6003549050604051806060016040528082815260200185858080601f0160208091040260200160405190810160405280939291908181526020018383808284375f92018290525093855250503360209384015250838152600482526040902082518155908201516001820190611203908261495c565b5060409182015160029190910180546001600160a01b0319166001600160a01b03909216919091179055335f9081526005602090815282822080546001810182559083528183200184905584825260068152828220849055838252600790529081208054670de0b6b3a7640000929061127d9084906146ee565b9091555061128e90508160016146ee565b6003819055506112b63382670de0b6b3a764000060405180602001604052805f815250612083565b336001600160a01b0316817fb683691564ab594b1f9e9db91abaf085736871256a4741baa41bf30cb9d4f23686866040516112f2929190614a18565b60405180910390a333815f600c5460408051670de0b6b3a764000081525f602082018190529181019190915260608101919091527f817bc0138a01add0b2c69b5a8be38829332e3b471218b3cbcd27a0a85efaedba9060800160405180910390a450505050565b611361611f2c565b600c55565b5f82815260076020526040812054610e859083610e34565b5f8061138a8484610eca565b90505f670de0b6b3a7640000600b54836113a491906146a4565b6113ae91906146cf565b90505f670de0b6b3a7640000600a54846113c891906146a4565b6113d291906146cf565b9050806113df8385614747565b6108139190614747565b60046020525f90815260409020805460018201805491929161140a90614701565b80601f016020809104026020016040519081016040528092919081815260200182805461143690614701565b80156114815780601f1061145857610100808354040283529160200191611481565b820191905f5260205f20905b81548152906001019060200180831161146457829003601f168201915b505050600290930154919250506001600160a01b031683565b60035482106114e25760405162461bcd60e51b8152602060048201526014602482015273105cdcd95d08191bd95cc81b9bdd08195e1a5cdd60621b60448201526064016108fc565b5f6114ed8383611366565b90505f670de0b6b3a7640000600b548361150791906146a4565b61151191906146cf565b90505f670de0b6b3a7640000600a548461152b91906146a4565b61153591906146cf565b90508061154283856146ee565b61154c91906146ee565b600d546040516370a0823160e01b81523360048201526001600160a01b03909116906370a0823190602401602060405180830381865afa158015611592573d5f803e3d5ffd5b505050506040513d601f19601f820116820180604052508101906115b691906148ba565b10156115fb5760405162461bcd60e51b8152602060048201526014602482015273125b9cdd59999a58da595b9d081c185e5b595b9d60621b60448201526064016108fc565b5f85815260076020526040812080548692906116189084906146ee565b90915550505f858152600860205260408120805485929061163a9084906146ee565b9250508190555061165b33868660405180602001604052805f815250612083565b338560016040805188815260208101889052908101869052606081018590527f817bc0138a01add0b2c69b5a8be38829332e3b471218b3cbcd27a0a85efaedba9060800160405180910390a4600d546040516323b872dd60e01b81525f916001600160a01b0316906323b872dd906116db903390309089906004016148d1565b6020604051808303815f875af11580156116f7573d5f803e3d5ffd5b505050506040513d601f19601f8201168201806040525081019061171b91906148f5565b600d545f8881526004602081905260408083206002015490516323b872dd60e01b815294955091936001600160a01b03938416936323b872dd9361176893339391909216918a91016148d1565b6020604051808303815f875af1158015611784573d5f803e3d5ffd5b505050506040513d601f19601f820116820180604052508101906117a891906148f5565b600d546009546040516323b872dd60e01b81529293505f926001600160a01b03928316926323b872dd926117e69233929091169089906004016148d1565b6020604051808303815f875af1158015611802573d5f803e3d5ffd5b505050506040513d601f19601f8201168201806040525081019061182691906148f5565b90508280156118325750815b801561183b5750805b61187e5760405162461bcd60e51b81526020600482015260146024820152734661696c656420746f2073656e642066756e647360601b60448201526064016108fc565b5050505050505050565b60035482106118d05760405162461bcd60e51b8152602060048201526014602482015273105cdcd95d08191bd95cc81b9bdd08195e1a5cdd60621b60448201526064016108fc565b335f9081526020818152604080832085845290915290205481111561192e5760405162461bcd60e51b8152602060048201526014602482015273496e73756666696369656e742062616c616e636560601b60448201526064016108fc565b5f82815260076020526040902054670de0b6b3a764000061194f8383614747565b10156119ad5760405162461bcd60e51b815260206004820152602760248201527f537570706c79206e6f7420616c6c6f7765642062656c6f77207072656d696e7460448201526608185b5bdd5b9d60ca1b60648201526084016108fc565b5f6119b88484610eca565b90505f670de0b6b3a7640000600b54836119d291906146a4565b6119dc91906146cf565b90505f670de0b6b3a7640000600a54846119f691906146a4565b611a0091906146cf565b9050611a0d3387876121c5565b611a178585614747565b5f87815260076020908152604080832093909355600890529081208054859290611a42908490614747565b909155503390508660026040805189815260208101889052908101869052606081018590527f817bc0138a01add0b2c69b5a8be38829332e3b471218b3cbcd27a0a85efaedba9060800160405180910390a4600d545f906001600160a01b031663a9059cbb3384611ab38789614747565b611abd9190614747565b6040516001600160e01b031960e085901b1681526001600160a01b03909216600483015260248201526044016020604051808303815f875af1158015611b05573d5f803e3d5ffd5b505050506040513d601f19601f82011682018060405250810190611b2991906148f5565b600d545f89815260046020819052604080832060020154905163a9059cbb60e01b81526001600160a01b03918216928101929092526024820188905293945090929091169063a9059cbb906044016020604051808303815f875af1158015611b93573d5f803e3d5ffd5b505050506040513d601f19601f82011682018060405250810190611bb791906148f5565b600d5460095460405163a9059cbb60e01b81526001600160a01b039182166004820152602481018790529293505f9291169063a9059cbb906044016020604051808303815f875af1158015611c0e573d5f803e3d5ffd5b505050506040513d601f19601f82011682018060405250810190611c3291906148f5565b9050828015611c3e5750815b8015611c475750805b611c8a5760405162461bcd60e51b81526020600482015260146024820152734661696c656420746f2073656e642066756e647360601b60448201526064016108fc565b505050505050505050565b336001600160a01b0387161480611cce57506001600160a01b0386165f90815260016020908152604080832033845290915290205460ff165b611d0b5760405162461bcd60e51b815260206004820152600e60248201526d1393d517d055551213d49256915160921b60448201526064016108fc565b6001600160a01b0386165f9081526020818152604080832087845290915281208054859290611d3b908490614747565b90915550506001600160a01b0385165f9081526020818152604080832087845290915281208054859290611d709084906146ee565b909155505060408051858152602081018590526001600160a01b03808816929089169133917fc3d58168c5ae7397731d063d5bbf3d657854427343f4c083240f7aacaa2d0f62910160405180910390a46001600160a01b0385163b15611e585760405163f23a6e6160e01b808252906001600160a01b0387169063f23a6e6190611e089033908b908a908a908a908a90600401614a33565b6020604051808303815f875af1158015611e24573d5f803e3d5ffd5b505050506040513d601f19601f82011682018060405250810190611e489190614837565b6001600160e01b03191614611e65565b6001600160a01b03851615155b611e815760405162461bcd60e51b81526004016108fc90614852565b505050505050565b611e91611f2c565b6001600160a01b038116611ef65760405162461bcd60e51b815260206004820152602660248201527f4f776e61626c653a206e6577206f776e657220697320746865207a65726f206160448201526564647265737360d01b60648201526084016108fc565b611eff81612032565b50565b611f0a611f2c565b600980546001600160a01b0319166001600160a01b0392909216919091179055565b6002546001600160a01b03163314610ec85760405162461bcd60e51b815260206004820181905260248201527f4f776e61626c653a2063616c6c6572206973206e6f7420746865206f776e657260448201526064016108fc565b5f670de0b6b3a76400008211611f9d57505f919050565b5f611faf670de0b6b3a7640000612247565b90505f611fbb84612247565b90505f611fc882846122af565b90505f611fd7620187e5612247565b90505f611fe6620186a0612247565b9050611ff282826122c0565b91505f611ffe8361257a565b90505f61200b828661259c565b90505f612017826127f9565b90505f6120238261281f565b9b9a5050505050505050505050565b600280546001600160a01b038381166001600160a01b0319831681179093556040519116919082907f8be0079c531659141344cd1fd0a4f28419497f9722a3daafe3b4186f6b6457e0905f90a35050565b6001600160a01b0384165f90815260208181526040808320868452909152812080548492906120b39084906146ee565b909155505060408051848152602081018490526001600160a01b038616915f9133917fc3d58168c5ae7397731d063d5bbf3d657854427343f4c083240f7aacaa2d0f62910160405180910390a46001600160a01b0384163b156121965760405163f23a6e6160e01b808252906001600160a01b0386169063f23a6e61906121469033905f90899089908990600401614a79565b6020604051808303815f875af1158015612162573d5f803e3d5ffd5b505050506040513d601f19601f820116820180604052508101906121869190614837565b6001600160e01b031916146121a3565b6001600160a01b03841615155b6121bf5760405162461bcd60e51b81526004016108fc90614852565b50505050565b6001600160a01b0383165f90815260208181526040808320858452909152812080548392906121f5908490614747565b909155505060408051838152602081018390525f916001600160a01b0386169133917fc3d58168c5ae7397731d063d5bbf3d657854427343f4c083240f7aacaa2d0f62910160405180910390a4505050565b5f815f0361225657505f919050565b815f6122618261289e565b9050607081101561227a578060700382901b915061228d565b607081111561228d576070810382901c91505b613fff0160701b6001600160701b03919091161760801b92915050565b919050565b5f610e8583600160ff1b8418612939565b5f617fff60f084811c8216919084901c8116908290036123045780617fff036122f3575061ffff60ef1b91506107a29050565b505050600160ff1b811682186107a2565b80617fff03612347576dffffffffffffffffffffffffffff60801b841615612336575061ffff60ef1b91506107a29050565b505050808218600160ff1b166107a2565b600160801b600160ff1b0384165f0361239557600160801b600160ff1b0385165f0361237d575061ffff60ef1b91506107a29050565b505050808218600160ff1b16617fff60f01b176107a2565b6001600160701b03608085901c165f8290036123b457600191506123bb565b600160701b175b6001600160701b03608087901c165f8490036123fc5780156123f7575f6123e18261289e565b6001955060e20393840160711901939190911b90505b612406565b600160701b1760721b5b818181612415576124156146bb565b049050805f0361244357600160ff1b87871816612432575f612438565b600160ff1b5b9450505050506107a2565b6001606c1b81101561245757612457614ab2565b5f600160731b82101561249557600160721b82101561248a57600160711b82101561248357607061248d565b607161248d565b60725b60ff1661249e565b61249e8261289e565b9050836140710181860111156124bb57617fff94505f915061254b565b83818601613ffc0110156124d4575f94505f915061254b565b83818601613f8c011015612520578385613ffc0111156124ff578385613ffc010382901b9150612518565b8385613ffc01101561251857613ffc8585030382901c91505b5f945061254b565b6070811115612533576070810382901c91505b6001600160701b038216915083818601613f8d010394505b81607086901b888a186001607f1b60801b1660801c6001600160801b0316171760801b955050505050506107a2565b5f6107a261258783612cee565b6f3ffe62e42fefa39ef35793c7673007e560801b5b5f617fff60f084811c8216919084901c8116908290036126395780617fff03612616576001600160801b0319808516908616036125e457505050600160ff1b811682186107a2565b6001600160801b031985851816600160ff1b03612606575050508181176107a2565b5061ffff60ef1b91506107a29050565b600160801b600160ff1b0384165f036122f3575061ffff60ef1b91506107a29050565b80617fff0361267657600160801b600160ff1b0385165f03612665575061ffff60ef1b91506107a29050565b505050600160ff1b821681186107a2565b6001600160701b03608086901c165f839003612695576001925061269c565b600160701b175b6001600160701b03608086901c165f8390036126bb57600192506126c2565b600160701b175b8082029150815f036126e157600160ff1b87871816612432575f612438565b928201925f600160e11b83101561271357600160e01b83101561270c576127078361289e565b612716565b60e0612716565b60e15b9050614070818601101561272f575f94505f92506127ca565b6140e081860110156127715761407085101561275457846140700383901c9250612769565b61407085111561276957614070850383901b92505b5f94506127ca565b61c0dd818601111561278a57617fff94505f92506127ca565b60708111156127a1576070810383901c92506127b4565b60708110156127b4578060700383901b92505b6001600160701b03831692506140df8186010394505b82607086901b888a186001607f1b60801b1660801c6001600160801b0316171760801b955050505050506107a2565b5f6107a261281a836f1fffb8aa3b295c17f0bbbe87fed0691d60811b61259c565b612ea0565b5f617fff60f083901c16613fff81101561283b57505f92915050565b6001607f1b608084901c1061284e575f80fd5b6140fe81111561285c575f80fd5b600160701b6001600160701b03608085901c161761406f8210156128865761406f8290031c610e85565b61406f821115610e855761406e1982011b9392505050565b5f8082116128aa575f80fd5b5f600160801b83106128be57608092831c92015b600160401b83106128d157604092831c92015b64010000000083106128e557602092831c92015b6201000083106128f757601092831c92015b610100831061290857600892831c92015b6010831061291857600492831c92015b6004831061292857600292831c92015b600283106107a25760010192915050565b5f617fff60f084811c8216919084901c8116908290036129845780617fff0361297a576001600160801b0319808516908616036126065784925050506107a2565b84925050506107a2565b80617fff036129975783925050506107a2565b6001607f1b608086901c90811015906001600160701b03165f8490036129c057600193506129c7565b600160701b175b6001607f1b608087901c90811015906001600160701b03165f8590036129f057600194506129f7565b600160701b175b825f03612a28576001600160801b03198816600160ff1b14612a195787612a1b565b5f5b96505050505050506107a2565b805f03612a4a576001600160801b03198916600160ff1b14612a195788612a1b565b84860382151585151503612b4e576070811315612a7057899750505050505050506107a2565b5f811315612a815790811c90612aae565b606f19811215612a9a57889750505050505050506107a2565b5f811215612aae57805f0384901c93508596505b92810192600160711b8410612ac9576001968701969390931c925b86617fff03612afa5784612ae257617fff60f01b612aec565b6001600160f01b03195b9750505050505050506107a2565b600160701b841015612b0e575f9650612b1b565b6001600160701b03841693505b83607088901b86612b2c575f612b32565b6001607f1b5b6001600160801b0316171760801b9750505050505050506107a2565b5f811315612b6857600184901b9350600187039650612b7e565b5f811215612b7e57600182901b91506001860396505b6070811315612b905760019150612bdb565b6001811315612bad576001810360018303901c6001019150612bdb565b606f19811215612bc05760019350612bdb565b5f19811215612bdb576001815f030360018503901c60010193505b818410612bec578184039350612bf5565b83820393508294505b835f03612c0c57505f96506107a295505050505050565b5f612c168561289e565b905080607103612c3b57600185901c6001600160701b03169450600188019750612c88565b6070811015612c7b57607081900380891115612c6a578086901b6001600160701b031695508089039850612c75565b5f985f19019590951b945b50612c88565b6001600160701b03851694505b87617fff03612cba5785612ca157617fff60f01b612cab565b6001600160f01b03195b985050505050505050506107a2565b84607089901b87612ccb575f612cd1565b6001607f1b5b6001600160801b0316171760801b985050505050505050506107a2565b5f6001607f1b608083901c1115612d0b575061ffff60ef1b919050565b6001600160801b03198216613fff60f01b03612d2857505f919050565b617fff60f083901c811690819003612d41575090919050565b6001600160701b03608084901c165f829003612d605760019150612d67565b600160701b175b805f03612d7f57506001600160f01b03199392505050565b5f61406f81613fff8510612da35750600f9290921b915f9150613ffe198401612de1565b60019250600160701b8410612dc55784613ffe039050600f84901b9350612de1565b5f612dcf8561289e565b607f8190039590951b9461406d039150505b836001607f1b03612e16578215612df6576001015b5f612e008261289e565b60700390508082901b9150808303925050612e61565b5f83612e22575f612e25565b60015b60ff1690505b600160701b821015612e5f5793800260ff81901c607f81019190911c945f19939093019260019290921b9082180190612e2b565b505b806001600160701b0316607083901b84612e7b575f612e81565b6001607f1b5b6001600160801b0316171760801b979650505050505050565b50919050565b5f6001607f1b608083901c90811190617fff60f085901c8116916001600160701b03169082148015612ed157508015155b15612ee5575061ffff60ef1b949350505050565b61400d821115612f0a5782612eff57617fff60f01b612f01565b5f5b95945050505050565b613f7f821015612f235750613fff60f01b949350505050565b815f03612f335760019150612f3a565b600160701b175b613fef821115612f5057613fee1982011b612f62565b613fef821015612f6257613fef8290031c5b828015612f73575061203760811b81115b15612f8257505f949350505050565b82158015612fa15750713fffffffffffffffffffffffffffffffffff81115b15612fb55750617fff60f01b949350505050565b6001600160801b0381169060801c838015612fcf57508115155b15612fdb579019906001015b6001607f1b82811615612fff5770016a09e667f3bcc908b2fb1366ea957d3e0260801c5b6001607e1b831615613022577001306fe0a31b7152de8d5a46305c85edec0260801c5b6001607d1b831615613045577001172b83c7d517adcdf7c8c50eb14a791f0260801c5b6001607c1b8316156130685770010b5586cf9890f6298b92b71842a983630260801c5b6001607b1b83161561308b577001059b0d31585743ae7c548eb68ca417fd0260801c5b6001607a1b8316156130ae57700102c9a3e778060ee6f7caca4f7a29bde80260801c5b600160791b8316156130d15770010163da9fb33356d84a66ae336dcdfa3f0260801c5b600160781b8316156130f457700100b1afa5abcbed6129ab13ec11dc95430260801c5b600160771b8316156131175770010058c86da1c09ea1ff19d294cf2f679b0260801c5b600160761b83161561313a577001002c605e2e8cec506d21bfc89a23a00f0260801c5b600160751b83161561315d57700100162f3904051fa128bca9c55c31e5df0260801c5b600160741b831615613180577001000b175effdc76ba38e31671ca9397250260801c5b600160731b8316156131a357700100058ba01fb9f96d6cacd4b180917c3d0260801c5b600160721b8316156131c65770010002c5cc37da9491d0985c348c68e7b30260801c5b600160711b8316156131e9577001000162e525ee054754457d59952920260260801c5b600160701b83161561320c5770010000b17255775c040618bf4a4ade83fc0260801c5b6001606f1b83161561322f577001000058b91b5bc9ae2eed81e9b7d4cfab0260801c5b6001606e1b83161561325257700100002c5c89d5ec6ca4d7c8acc017b7c90260801c5b6001606d1b8316156132755770010000162e43f4f831060e02d839a9d16d0260801c5b6001606c1b83161561329857700100000b1721bcfc99d9f890ea069117630260801c5b6001606b1b8316156132bb5770010000058b90cf1e6d97f9ca14dbcc16280260801c5b6001606a1b8316156132de577001000002c5c863b73f016468f6bac5ca2b0260801c5b600160691b83161561330157700100000162e430e5a18f6119e3c02282a50260801c5b600160681b831615613324577001000000b1721835514b86e6d96efd1bfe0260801c5b600160671b83161561334757700100000058b90c0b48c6be5df846c5b2ef0260801c5b600160661b83161561336a5770010000002c5c8601cc6b9e94213c72737a0260801c5b600160651b83161561338d577001000000162e42fff037df38aa2b219f060260801c5b600160641b8316156133b05770010000000b17217fba9c739aa5819f44f90260801c5b600160631b8316156133d3577001000000058b90bfcdee5acd3c1cedc8230260801c5b600160621b8316156133f657700100000002c5c85fe31f35a6a30da1be500260801c5b600160611b8316156134195770010000000162e42ff0999ce3541b9fffcf0260801c5b600160601b83161561343c57700100000000b17217f80f4ef5aadda455540260801c5b6001605f1b83161561345f5770010000000058b90bfbf8479bd5a81b51ad0260801c5b6001605e1b831615613482577001000000002c5c85fdf84bd62ae30a74cc0260801c5b6001605d1b8316156134a557700100000000162e42fefb2fed257559bdaa0260801c5b6001605c1b8316156134c8577001000000000b17217f7d5a7716bba4a9ae0260801c5b6001605b1b8316156134eb57700100000000058b90bfbe9ddbac5e109cce0260801c5b6001605a1b83161561350e5770010000000002c5c85fdf4b15de6f17eb0d0260801c5b600160591b831615613531577001000000000162e42fefa494f1478fde050260801c5b600160581b8316156135545770010000000000b17217f7d20cf927c8e94c0260801c5b600160571b831615613577577001000000000058b90bfbe8f71cb4e4b33d0260801c5b600160561b83161561359a57700100000000002c5c85fdf477b662b269450260801c5b600160551b8316156135bd5770010000000000162e42fefa3ae53369388c0260801c5b600160541b8316156135e057700100000000000b17217f7d1d351a389d400260801c5b600160531b8316156136035770010000000000058b90bfbe8e8b2d3d4ede0260801c5b600160521b831615613626577001000000000002c5c85fdf4741bea6e77e0260801c5b600160511b83161561364957700100000000000162e42fefa39fe95583c20260801c5b600160501b83161561366c577001000000000000b17217f7d1cfb72b45e10260801c5b698000000000000000000083161561369557700100000000000058b90bfbe8e7cc35c3f00260801c5b69400000000000000000008316156136be5770010000000000002c5c85fdf473e242ea380260801c5b69200000000000000000008316156136e7577001000000000000162e42fefa39f02b772c0260801c5b69100000000000000000008316156137105770010000000000000b17217f7d1cf7d83c1a0260801c5b6908000000000000000000831615613739577001000000000000058b90bfbe8e7bdcbe2e0260801c5b690400000000000000000083161561376257700100000000000002c5c85fdf473dea871f0260801c5b690200000000000000000083161561378b5770010000000000000162e42fefa39ef44d910260801c5b69010000000000000000008316156137b457700100000000000000b17217f7d1cf79e9490260801c5b688000000000000000008316156137dc5770010000000000000058b90bfbe8e7bce5440260801c5b68400000000000000000831615613804577001000000000000002c5c85fdf473de6eca0260801c5b6820000000000000000083161561382c57700100000000000000162e42fefa39ef366f0260801c5b68100000000000000000831615613854577001000000000000000b17217f7d1cf79afa0260801c5b6808000000000000000083161561387c57700100000000000000058b90bfbe8e7bcd6d0260801c5b680400000000000000008316156138a45770010000000000000002c5c85fdf473de6b20260801c5b680200000000000000008316156138cc577001000000000000000162e42fefa39ef3580260801c5b600160401b8316156138ef5770010000000000000000b17217f7d1cf79ab0260801c5b678000000000000000831615613916577001000000000000000058b90bfbe8e7bcd50260801c5b67400000000000000083161561393d57700100000000000000002c5c85fdf473de6a0260801c5b6720000000000000008316156139645770010000000000000000162e42fefa39ef340260801c5b67100000000000000083161561398b57700100000000000000000b17217f7d1cf7990260801c5b6708000000000000008316156139b25770010000000000000000058b90bfbe8e7bcc0260801c5b6704000000000000008316156139d9577001000000000000000002c5c85fdf473de50260801c5b670200000000000000831615613a0057700100000000000000000162e42fefa39ef20260801c5b670100000000000000831615613a27577001000000000000000000b17217f7d1cf780260801c5b6680000000000000831615613a4d57700100000000000000000058b90bfbe8e7bb0260801c5b6640000000000000831615613a735770010000000000000000002c5c85fdf473dd0260801c5b6620000000000000831615613a99577001000000000000000000162e42fefa39ee0260801c5b6610000000000000831615613abf5770010000000000000000000b17217f7d1cf60260801c5b6608000000000000831615613ae5577001000000000000000000058b90bfbe8e7a0260801c5b6604000000000000831615613b0b57700100000000000000000002c5c85fdf473c0260801c5b6602000000000000831615613b315770010000000000000000000162e42fefa39d0260801c5b6601000000000000831615613b5757700100000000000000000000b17217f7d1ce0260801c5b65800000000000831615613b7c5770010000000000000000000058b90bfbe8e60260801c5b65400000000000831615613ba1577001000000000000000000002c5c85fdf4720260801c5b65200000000000831615613bc657700100000000000000000000162e42fefa380260801c5b65100000000000831615613beb577001000000000000000000000b17217f7d1b0260801c5b65080000000000831615613c1057700100000000000000000000058b90bfbe8d0260801c5b65040000000000831615613c355770010000000000000000000002c5c85fdf460260801c5b65020000000000831615613c5a577001000000000000000000000162e42fefa20260801c5b65010000000000831615613c7f5770010000000000000000000000b17217f7d00260801c5b648000000000831615613ca3577001000000000000000000000058b90bfbe70260801c5b644000000000831615613cc757700100000000000000000000002c5c85fdf30260801c5b642000000000831615613ceb5770010000000000000000000000162e42fef90260801c5b641000000000831615613d0f57700100000000000000000000000b17217f7c0260801c5b640800000000831615613d335770010000000000000000000000058b90bfbd0260801c5b640400000000831615613d57577001000000000000000000000002c5c85fde0260801c5b640200000000831615613d7b57700100000000000000000000000162e42fee0260801c5b640100000000831615613d9f577001000000000000000000000000b17217f60260801c5b6380000000831615613dc257700100000000000000000000000058b90bfa0260801c5b6340000000831615613de55770010000000000000000000000002c5c85fc0260801c5b6320000000831615613e08577001000000000000000000000000162e42fd0260801c5b6310000000831615613e2b5770010000000000000000000000000b17217e0260801c5b6308000000831615613e4e577001000000000000000000000000058b90be0260801c5b6304000000831615613e7157700100000000000000000000000002c5c85e0260801c5b6302000000831615613e945770010000000000000000000000000162e42e0260801c5b6301000000831615613eb757700100000000000000000000000000b172160260801c5b62800000831615613ed95770010000000000000000000000000058b90a0260801c5b62400000831615613efb577001000000000000000000000000002c5c840260801c5b62200000831615613f1d57700100000000000000000000000000162e410260801c5b62100000831615613f3f577001000000000000000000000000000b17200260801c5b62080000831615613f6157700100000000000000000000000000058b8f0260801c5b62040000831615613f835770010000000000000000000000000002c5c70260801c5b62020000831615613fa5577001000000000000000000000000000162e30260801c5b62010000831615613fc75770010000000000000000000000000000b1710260801c5b618000831615613fe8577001000000000000000000000000000058b80260801c5b61400083161561400957700100000000000000000000000000002c5b0260801c5b61200083161561402a5770010000000000000000000000000000162d0260801c5b61100083161561404b57700100000000000000000000000000000b160260801c5b61080083161561406c5770010000000000000000000000000000058a0260801c5b61040083161561408d577001000000000000000000000000000002c40260801c5b6102008316156140ae577001000000000000000000000000000001610260801c5b6101008316156140cf577001000000000000000000000000000000b00260801c5b60808316156140ef577001000000000000000000000000000000570260801c5b604083161561410f5770010000000000000000000000000000002b0260801c5b602083161561412f577001000000000000000000000000000000150260801c5b601083161561414f5770010000000000000000000000000000000a0260801c5b600883161561416f577001000000000000000000000000000000040260801c5b600483161561418f577001000000000000000000000000000000010260801c5b846141b057600f81901c6001600160701b03169050613fff820191506141de565b613ffe82116141d557600f81901c6001600160701b0316905081613fff0391506141de565b5f91613fee19011c5b60709190911b1760801b95945050505050565b5080546141fd90614701565b5f825580601f1061420c575050565b601f0160209004905f5260205f2090810190611eff91905b80821115614237575f8155600101614224565b5090565b80356001600160a01b03811681146122aa575f80fd5b5f8060408385031215614262575f80fd5b61426b8361423b565b946020939093013593505050565b5f60208284031215614289575f80fd5b610e858261423b565b6001600160e01b031981168114611eff575f80fd5b5f602082840312156142b7575f80fd5b8135610e8581614292565b5f80604083850312156142d3575f80fd5b50508035926020909101359150565b5f602082840312156142f2575f80fd5b5035919050565b5f5b838110156143135781810151838201526020016142fb565b50505f910152565b5f81518084526143328160208601602086016142f9565b601f01601f19169290920160200192915050565b602081525f610e85602083018461431b565b5f8083601f840112614368575f80fd5b50813567ffffffffffffffff81111561437f575f80fd5b6020830191508360208260051b8501011115614399575f80fd5b9250929050565b5f8083601f8401126143b0575f80fd5b50813567ffffffffffffffff8111156143c7575f80fd5b602083019150836020828501011115614399575f80fd5b5f805f805f805f8060a0898b0312156143f5575f80fd5b6143fe8961423b565b975061440c60208a0161423b565b9650604089013567ffffffffffffffff80821115614428575f80fd5b6144348c838d01614358565b909850965060608b013591508082111561444c575f80fd5b6144588c838d01614358565b909650945060808b0135915080821115614470575f80fd5b5061447d8b828c016143a0565b999c989b5096995094979396929594505050565b5f805f80604085870312156144a4575f80fd5b843567ffffffffffffffff808211156144bb575f80fd5b6144c788838901614358565b909650945060208701359150808211156144df575f80fd5b506144ec87828801614358565b95989497509550505050565b602080825282518282018190525f9190848201906040850190845b8181101561452f57835183529284019291840191600101614513565b50909695505050505050565b8015158114611eff575f80fd5b5f8060408385031215614559575f80fd5b6145628361423b565b915060208301356145728161453b565b809150509250929050565b5f806020838503121561458e575f80fd5b823567ffffffffffffffff8111156145a4575f80fd5b6145b0858286016143a0565b90969095509350505050565b838152606060208201525f6145d4606083018561431b565b905060018060a01b0383166040830152949350505050565b5f80604083850312156145fd575f80fd5b6146068361423b565b91506146146020840161423b565b90509250929050565b5f805f805f8060a08789031215614632575f80fd5b61463b8761423b565b95506146496020880161423b565b94506040870135935060608701359250608087013567ffffffffffffffff811115614672575f80fd5b61467e89828a016143a0565b979a9699509497509295939492505050565b634e487b7160e01b5f52601160045260245ffd5b80820281158282048414176107a2576107a2614690565b634e487b7160e01b5f52601260045260245ffd5b5f826146e957634e487b7160e01b5f52601260045260245ffd5b500490565b808201808211156107a2576107a2614690565b600181811c9082168061471557607f821691505b602082108103612e9a57634e487b7160e01b5f52602260045260245ffd5b634e487b7160e01b5f52603260045260245ffd5b818103818111156107a2576107a2614690565b8183525f6001600160fb1b03831115614771575f80fd5b8260051b80836020870137939093016020019392505050565b604081525f61479d60408301868861475a565b82810360208401526147b081858761475a565b979650505050505050565b81835281816020850137505f828201602090810191909152601f909101601f19169091010190565b6001600160a01b0389811682528816602082015260a0604082018190525f9061480f908301888a61475a565b828103606084015261482281878961475a565b905082810360808401526120238185876147bb565b5f60208284031215614847575f80fd5b8151610e8581614292565b60208082526010908201526f155394d0519157d49150d2541251539560821b604082015260600190565b5f825161488d8184602087016142f9565b9190910192915050565b634e487b7160e01b5f52604160045260245ffd5b818382375f9101908152919050565b5f602082840312156148ca575f80fd5b5051919050565b6001600160a01b039384168152919092166020820152604081019190915260600190565b5f60208284031215614905575f80fd5b8151610e858161453b565b601f82111561495757805f5260205f20601f840160051c810160208510156149355750805b601f840160051c820191505b81811015614954575f8155600101614941565b50505b505050565b815167ffffffffffffffff81111561497657614976614897565b61498a816149848454614701565b84614910565b602080601f8311600181146149bd575f84156149a65750858301515b5f19600386901b1c1916600185901b178555611e81565b5f85815260208120601f198616915b828110156149eb578886015182559484019460019091019084016149cc565b5085821015614a0857878501515f19600388901b60f8161c191681555b5050505050600190811b01905550565b602081525f614a2b6020830184866147bb565b949350505050565b6001600160a01b03878116825286166020820152604081018590526060810184905260a0608082018190525f90614a6d90830184866147bb565b98975050505050505050565b6001600160a01b03868116825285166020820152604081018490526060810183905260a0608082018190525f906147b09083018461431b565b634e487b7160e01b5f52600160045260245ffdfea264697066735822122072436f0a09903e220cb68f5abb47a326fe6b57d4abe85cb33e47470648222c4664736f6c63430008180033",
			"opcodes": "PUSH1 0x80 PUSH1 0x40 MSTORE CALLVALUE DUP1 ISZERO PUSH3 0x10 JUMPI PUSH0 DUP1 REVERT JUMPDEST POP PUSH3 0x1C CALLER PUSH3 0x22 JUMP JUMPDEST PUSH3 0x73 JUMP JUMPDEST PUSH1 0x2 DUP1 SLOAD PUSH1 0x1 PUSH1 0x1 PUSH1 0xA0 SHL SUB DUP4 DUP2 AND PUSH1 0x1 PUSH1 0x1 PUSH1 0xA0 SHL SUB NOT DUP4 AND DUP2 OR SWAP1 SWAP4 SSTORE PUSH1 0x40 MLOAD SWAP2 AND SWAP2 SWAP1 DUP3 SWAP1 PUSH32 0x8BE0079C531659141344CD1FD0A4F28419497F9722A3DAAFE3B4186F6B6457E0 SWAP1 PUSH0 SWAP1 LOG3 POP POP JUMP JUMPDEST PUSH2 0x4AFC DUP1 PUSH3 0x81 PUSH0 CODECOPY PUSH0 RETURN INVALID PUSH1 0x80 PUSH1 0x40 MSTORE PUSH1 0x4 CALLDATASIZE LT PUSH2 0x21C JUMPI PUSH0 CALLDATALOAD PUSH1 0xE0 SHR DUP1 PUSH4 0xA4983421 GT PUSH2 0x11E JUMPI DUP1 PUSH4 0xD6E6EB9F GT PUSH2 0xA8 JUMPI DUP1 PUSH4 0xE985E9C5 GT PUSH2 0x6D JUMPI DUP1 PUSH4 0xE985E9C5 EQ PUSH2 0x66C JUMPI DUP1 PUSH4 0xF242432A EQ PUSH2 0x6A5 JUMPI DUP1 PUSH4 0xF2FDE38B EQ PUSH2 0x6C4 JUMPI DUP1 PUSH4 0xFBE53234 EQ PUSH2 0x6E3 JUMPI DUP1 PUSH4 0xFE313112 EQ PUSH2 0x702 JUMPI PUSH0 DUP1 REVERT JUMPDEST DUP1 PUSH4 0xD6E6EB9F EQ PUSH2 0x5E5 JUMPI DUP1 PUSH4 0xD6FEBDE8 EQ PUSH2 0x5FA JUMPI DUP1 PUSH4 0xD79875EB EQ PUSH2 0x60D JUMPI DUP1 PUSH4 0xE07B098A EQ PUSH2 0x62C JUMPI DUP1 PUSH4 0xE0E1B2C0 EQ PUSH2 0x641 JUMPI PUSH0 DUP1 REVERT JUMPDEST DUP1 PUSH4 0xBD85B039 GT PUSH2 0xEE JUMPI DUP1 PUSH4 0xBD85B039 EQ PUSH2 0x52F JUMPI DUP1 PUSH4 0xC157253D EQ PUSH2 0x55A JUMPI DUP1 PUSH4 0xC3A52F33 EQ PUSH2 0x579 JUMPI DUP1 PUSH4 0xCD9C7121 EQ PUSH2 0x598 JUMPI DUP1 PUSH4 0xCF35BDD0 EQ PUSH2 0x5B7 JUMPI PUSH0 DUP1 REVERT JUMPDEST DUP1 PUSH4 0xA4983421 EQ PUSH2 0x4B3 JUMPI DUP1 PUSH4 0xB5DFD735 EQ PUSH2 0x4D2 JUMPI DUP1 PUSH4 0xB6A46B3B EQ PUSH2 0x4F1 JUMPI DUP1 PUSH4 0xBCE854FF EQ PUSH2 0x510 JUMPI PUSH0 DUP1 REVERT JUMPDEST DUP1 PUSH4 0x4CC82215 GT PUSH2 0x1AA JUMPI DUP1 PUSH4 0x6A8A69AA GT PUSH2 0x16F JUMPI DUP1 PUSH4 0x6A8A69AA EQ PUSH2 0x425 JUMPI DUP1 PUSH4 0x715018A6 EQ PUSH2 0x444 JUMPI DUP1 PUSH4 0x8DA5CB5B EQ PUSH2 0x458 JUMPI DUP1 PUSH4 0x9477D85D EQ PUSH2 0x475 JUMPI DUP1 PUSH4 0xA22CB465 EQ PUSH2 0x494 JUMPI PUSH0 DUP1 REVERT JUMPDEST DUP1 PUSH4 0x4CC82215 EQ PUSH2 0x365 JUMPI DUP1 PUSH4 0x4CE7957C EQ PUSH2 0x384 JUMPI DUP1 PUSH4 0x4E1273F4 EQ PUSH2 0x3BB JUMPI DUP1 PUSH4 0x5A8A764E EQ PUSH2 0x3E7 JUMPI DUP1 PUSH4 0x5CF4EE91 EQ PUSH2 0x406 JUMPI PUSH0 DUP1 REVERT JUMPDEST DUP1 PUSH4 0xE89341C GT PUSH2 0x1F0 JUMPI DUP1 PUSH4 0xE89341C EQ PUSH2 0x2D5 JUMPI DUP1 PUSH4 0x131E6F6D EQ PUSH2 0x301 JUMPI DUP1 PUSH4 0x24DC441D EQ PUSH2 0x316 JUMPI DUP1 PUSH4 0x2EB2C2D6 EQ PUSH2 0x32B JUMPI DUP1 PUSH4 0x3398D487 EQ PUSH2 0x34A JUMPI PUSH0 DUP1 REVERT JUMPDEST DUP1 PUSH3 0xFDD58E EQ PUSH2 0x220 JUMPI DUP1 PUSH4 0x1A1BF97 EQ PUSH2 0x266 JUMPI DUP1 PUSH4 0x1FFC9A7 EQ PUSH2 0x287 JUMPI DUP1 PUSH4 0x63A741F EQ PUSH2 0x2B6 JUMPI JUMPDEST PUSH0 DUP1 REVERT JUMPDEST CALLVALUE DUP1 ISZERO PUSH2 0x22B JUMPI PUSH0 DUP1 REVERT JUMPDEST POP PUSH2 0x253 PUSH2 0x23A CALLDATASIZE PUSH1 0x4 PUSH2 0x4251 JUMP JUMPDEST PUSH0 PUSH1 0x20 DUP2 DUP2 MSTORE SWAP3 DUP2 MSTORE PUSH1 0x40 DUP1 DUP3 KECCAK256 SWAP1 SWAP4 MSTORE SWAP1 DUP2 MSTORE KECCAK256 SLOAD DUP2 JUMP JUMPDEST PUSH1 0x40 MLOAD SWAP1 DUP2 MSTORE PUSH1 0x20 ADD JUMPDEST PUSH1 0x40 MLOAD DUP1 SWAP2 SUB SWAP1 RETURN JUMPDEST CALLVALUE DUP1 ISZERO PUSH2 0x271 JUMPI PUSH0 DUP1 REVERT JUMPDEST POP PUSH2 0x285 PUSH2 0x280 CALLDATASIZE PUSH1 0x4 PUSH2 0x4279 JUMP JUMPDEST PUSH2 0x72D JUMP JUMPDEST STOP JUMPDEST CALLVALUE DUP1 ISZERO PUSH2 0x292 JUMPI PUSH0 DUP1 REVERT JUMPDEST POP PUSH2 0x2A6 PUSH2 0x2A1 CALLDATASIZE PUSH1 0x4 PUSH2 0x42A7 JUMP JUMPDEST PUSH2 0x757 JUMP JUMPDEST PUSH1 0x40 MLOAD SWAP1 ISZERO ISZERO DUP2 MSTORE PUSH1 0x20 ADD PUSH2 0x25D JUMP JUMPDEST CALLVALUE DUP1 ISZERO PUSH2 0x2C1 JUMPI PUSH0 DUP1 REVERT JUMPDEST POP PUSH2 0x253 PUSH2 0x2D0 CALLDATASIZE PUSH1 0x4 PUSH2 0x42C2 JUMP JUMPDEST PUSH2 0x7A8 JUMP JUMPDEST CALLVALUE DUP1 ISZERO PUSH2 0x2E0 JUMPI PUSH0 DUP1 REVERT JUMPDEST POP PUSH2 0x2F4 PUSH2 0x2EF CALLDATASIZE PUSH1 0x4 PUSH2 0x42E2 JUMP JUMPDEST PUSH2 0x81D JUMP JUMPDEST PUSH1 0x40 MLOAD PUSH2 0x25D SWAP2 SWAP1 PUSH2 0x4346 JUMP JUMPDEST CALLVALUE DUP1 ISZERO PUSH2 0x30C JUMPI PUSH0 DUP1 REVERT JUMPDEST POP PUSH2 0x253 PUSH1 0xC SLOAD DUP2 JUMP JUMPDEST CALLVALUE DUP1 ISZERO PUSH2 0x321 JUMPI PUSH0 DUP1 REVERT JUMPDEST POP PUSH2 0x253 PUSH1 0xB SLOAD DUP2 JUMP JUMPDEST CALLVALUE DUP1 ISZERO PUSH2 0x336 JUMPI PUSH0 DUP1 REVERT JUMPDEST POP PUSH2 0x285 PUSH2 0x345 CALLDATASIZE PUSH1 0x4 PUSH2 0x43DE JUMP JUMPDEST PUSH2 0x8BF JUMP JUMPDEST CALLVALUE DUP1 ISZERO PUSH2 0x355 JUMPI PUSH0 DUP1 REVERT JUMPDEST POP PUSH2 0x253 PUSH8 0xDE0B6B3A7640000 DUP2 JUMP JUMPDEST CALLVALUE DUP1 ISZERO PUSH2 0x370 JUMPI PUSH0 DUP1 REVERT JUMPDEST POP PUSH2 0x285 PUSH2 0x37F CALLDATASIZE PUSH1 0x4 PUSH2 0x42E2 JUMP JUMPDEST PUSH2 0xB5F JUMP JUMPDEST CALLVALUE DUP1 ISZERO PUSH2 0x38F JUMPI PUSH0 DUP1 REVERT JUMPDEST POP PUSH1 0x9 SLOAD PUSH2 0x3A3 SWAP1 PUSH1 0x1 PUSH1 0x1 PUSH1 0xA0 SHL SUB AND DUP2 JUMP JUMPDEST PUSH1 0x40 MLOAD PUSH1 0x1 PUSH1 0x1 PUSH1 0xA0 SHL SUB SWAP1 SWAP2 AND DUP2 MSTORE PUSH1 0x20 ADD PUSH2 0x25D JUMP JUMPDEST CALLVALUE DUP1 ISZERO PUSH2 0x3C6 JUMPI PUSH0 DUP1 REVERT JUMPDEST POP PUSH2 0x3DA PUSH2 0x3D5 CALLDATASIZE PUSH1 0x4 PUSH2 0x4491 JUMP JUMPDEST PUSH2 0xCF7 JUMP JUMPDEST PUSH1 0x40 MLOAD PUSH2 0x25D SWAP2 SWAP1 PUSH2 0x44F8 JUMP JUMPDEST CALLVALUE DUP1 ISZERO PUSH2 0x3F2 JUMPI PUSH0 DUP1 REVERT JUMPDEST POP PUSH2 0x285 PUSH2 0x401 CALLDATASIZE PUSH1 0x4 PUSH2 0x42E2 JUMP JUMPDEST PUSH2 0xE27 JUMP JUMPDEST CALLVALUE DUP1 ISZERO PUSH2 0x411 JUMPI PUSH0 DUP1 REVERT JUMPDEST POP PUSH2 0x253 PUSH2 0x420 CALLDATASIZE PUSH1 0x4 PUSH2 0x42C2 JUMP JUMPDEST PUSH2 0xE34 JUMP JUMPDEST CALLVALUE DUP1 ISZERO PUSH2 0x430 JUMPI PUSH0 DUP1 REVERT JUMPDEST POP PUSH2 0x253 PUSH2 0x43F CALLDATASIZE PUSH1 0x4 PUSH2 0x4251 JUMP JUMPDEST PUSH2 0xE8C JUMP JUMPDEST CALLVALUE DUP1 ISZERO PUSH2 0x44F JUMPI PUSH0 DUP1 REVERT JUMPDEST POP PUSH2 0x285 PUSH2 0xEB7 JUMP JUMPDEST CALLVALUE DUP1 ISZERO PUSH2 0x463 JUMPI PUSH0 DUP1 REVERT JUMPDEST POP PUSH1 0x2 SLOAD PUSH1 0x1 PUSH1 0x1 PUSH1 0xA0 SHL SUB AND PUSH2 0x3A3 JUMP JUMPDEST CALLVALUE DUP1 ISZERO PUSH2 0x480 JUMPI PUSH0 DUP1 REVERT JUMPDEST POP PUSH2 0x253 PUSH2 0x48F CALLDATASIZE PUSH1 0x4 PUSH2 0x42C2 JUMP JUMPDEST PUSH2 0xECA JUMP JUMPDEST CALLVALUE DUP1 ISZERO PUSH2 0x49F JUMPI PUSH0 DUP1 REVERT JUMPDEST POP PUSH2 0x285 PUSH2 0x4AE CALLDATASIZE PUSH1 0x4 PUSH2 0x4548 JUMP JUMPDEST PUSH2 0xEED JUMP JUMPDEST CALLVALUE DUP1 ISZERO PUSH2 0x4BE JUMPI PUSH0 DUP1 REVERT JUMPDEST POP PUSH2 0x285 PUSH2 0x4CD CALLDATASIZE PUSH1 0x4 PUSH2 0x42E2 JUMP JUMPDEST PUSH2 0xF58 JUMP JUMPDEST CALLVALUE DUP1 ISZERO PUSH2 0x4DD JUMPI PUSH0 DUP1 REVERT JUMPDEST POP PUSH2 0x3DA PUSH2 0x4EC CALLDATASIZE PUSH1 0x4 PUSH2 0x4279 JUMP JUMPDEST PUSH2 0xF65 JUMP JUMPDEST CALLVALUE DUP1 ISZERO PUSH2 0x4FC JUMPI PUSH0 DUP1 REVERT JUMPDEST POP PUSH2 0x285 PUSH2 0x50B CALLDATASIZE PUSH1 0x4 PUSH2 0x457D JUMP JUMPDEST PUSH2 0xFCD JUMP JUMPDEST CALLVALUE DUP1 ISZERO PUSH2 0x51B JUMPI PUSH0 DUP1 REVERT JUMPDEST POP PUSH2 0x285 PUSH2 0x52A CALLDATASIZE PUSH1 0x4 PUSH2 0x42E2 JUMP JUMPDEST PUSH2 0x1359 JUMP JUMPDEST CALLVALUE DUP1 ISZERO PUSH2 0x53A JUMPI PUSH0 DUP1 REVERT JUMPDEST POP PUSH2 0x253 PUSH2 0x549 CALLDATASIZE PUSH1 0x4 PUSH2 0x42E2 JUMP JUMPDEST PUSH1 0x7 PUSH1 0x20 MSTORE PUSH0 SWAP1 DUP2 MSTORE PUSH1 0x40 SWAP1 KECCAK256 SLOAD DUP2 JUMP JUMPDEST CALLVALUE DUP1 ISZERO PUSH2 0x565 JUMPI PUSH0 DUP1 REVERT JUMPDEST POP PUSH2 0x253 PUSH2 0x574 CALLDATASIZE PUSH1 0x4 PUSH2 0x42C2 JUMP JUMPDEST PUSH2 0x1366 JUMP JUMPDEST CALLVALUE DUP1 ISZERO PUSH2 0x584 JUMPI PUSH0 DUP1 REVERT JUMPDEST POP PUSH1 0xD SLOAD PUSH2 0x3A3 SWAP1 PUSH1 0x1 PUSH1 0x1 PUSH1 0xA0 SHL SUB AND DUP2 JUMP JUMPDEST CALLVALUE DUP1 ISZERO PUSH2 0x5A3 JUMPI PUSH0 DUP1 REVERT JUMPDEST POP PUSH2 0x253 PUSH2 0x5B2 CALLDATASIZE PUSH1 0x4 PUSH2 0x42C2 JUMP JUMPDEST PUSH2 0x137E JUMP JUMPDEST CALLVALUE DUP1 ISZERO PUSH2 0x5C2 JUMPI PUSH0 DUP1 REVERT JUMPDEST POP PUSH2 0x5D6 PUSH2 0x5D1 CALLDATASIZE PUSH1 0x4 PUSH2 0x42E2 JUMP JUMPDEST PUSH2 0x13E9 JUMP JUMPDEST PUSH1 0x40 MLOAD PUSH2 0x25D SWAP4 SWAP3 SWAP2 SWAP1 PUSH2 0x45BC JUMP JUMPDEST CALLVALUE DUP1 ISZERO PUSH2 0x5F0 JUMPI PUSH0 DUP1 REVERT JUMPDEST POP PUSH2 0x253 PUSH1 0xA SLOAD DUP2 JUMP JUMPDEST PUSH2 0x285 PUSH2 0x608 CALLDATASIZE PUSH1 0x4 PUSH2 0x42C2 JUMP JUMPDEST PUSH2 0x149A JUMP JUMPDEST CALLVALUE DUP1 ISZERO PUSH2 0x618 JUMPI PUSH0 DUP1 REVERT JUMPDEST POP PUSH2 0x285 PUSH2 0x627 CALLDATASIZE PUSH1 0x4 PUSH2 0x42C2 JUMP JUMPDEST PUSH2 0x1888 JUMP JUMPDEST CALLVALUE DUP1 ISZERO PUSH2 0x637 JUMPI PUSH0 DUP1 REVERT JUMPDEST POP PUSH2 0x253 PUSH1 0x3 SLOAD DUP2 JUMP JUMPDEST CALLVALUE DUP1 ISZERO PUSH2 0x64C JUMPI PUSH0 DUP1 REVERT JUMPDEST POP PUSH2 0x253 PUSH2 0x65B CALLDATASIZE PUSH1 0x4 PUSH2 0x42E2 JUMP JUMPDEST PUSH1 0x6 PUSH1 0x20 MSTORE PUSH0 SWAP1 DUP2 MSTORE PUSH1 0x40 SWAP1 KECCAK256 SLOAD DUP2 JUMP JUMPDEST CALLVALUE DUP1 ISZERO PUSH2 0x677 JUMPI PUSH0 DUP1 REVERT JUMPDEST POP PUSH2 0x2A6 PUSH2 0x686 CALLDATASIZE PUSH1 0x4 PUSH2 0x45EC JUMP JUMPDEST PUSH1 0x1 PUSH1 0x20 SWAP1 DUP2 MSTORE PUSH0 SWAP3 DUP4 MSTORE PUSH1 0x40 DUP1 DUP5 KECCAK256 SWAP1 SWAP2 MSTORE SWAP1 DUP3 MSTORE SWAP1 KECCAK256 SLOAD PUSH1 0xFF AND DUP2 JUMP JUMPDEST CALLVALUE DUP1 ISZERO PUSH2 0x6B0 JUMPI PUSH0 DUP1 REVERT JUMPDEST POP PUSH2 0x285 PUSH2 0x6BF CALLDATASIZE PUSH1 0x4 PUSH2 0x461D JUMP JUMPDEST PUSH2 0x1C95 JUMP JUMPDEST CALLVALUE DUP1 ISZERO PUSH2 0x6CF JUMPI PUSH0 DUP1 REVERT JUMPDEST POP PUSH2 0x285 PUSH2 0x6DE CALLDATASIZE PUSH1 0x4 PUSH2 0x4279 JUMP JUMPDEST PUSH2 0x1E89 JUMP JUMPDEST CALLVALUE DUP1 ISZERO PUSH2 0x6EE JUMPI PUSH0 DUP1 REVERT JUMPDEST POP PUSH2 0x285 PUSH2 0x6FD CALLDATASIZE PUSH1 0x4 PUSH2 0x4279 JUMP JUMPDEST PUSH2 0x1F02 JUMP JUMPDEST CALLVALUE DUP1 ISZERO PUSH2 0x70D JUMPI PUSH0 DUP1 REVERT JUMPDEST POP PUSH2 0x253 PUSH2 0x71C CALLDATASIZE PUSH1 0x4 PUSH2 0x42E2 JUMP JUMPDEST PUSH1 0x8 PUSH1 0x20 MSTORE PUSH0 SWAP1 DUP2 MSTORE PUSH1 0x40 SWAP1 KECCAK256 SLOAD DUP2 JUMP JUMPDEST PUSH2 0x735 PUSH2 0x1F2C JUMP JUMPDEST PUSH1 0xD DUP1 SLOAD PUSH1 0x1 PUSH1 0x1 PUSH1 0xA0 SHL SUB NOT AND PUSH1 0x1 PUSH1 0x1 PUSH1 0xA0 SHL SUB SWAP3 SWAP1 SWAP3 AND SWAP2 SWAP1 SWAP2 OR SWAP1 SSTORE JUMP JUMPDEST PUSH0 PUSH4 0x1FFC9A7 PUSH1 0xE0 SHL PUSH1 0x1 PUSH1 0x1 PUSH1 0xE0 SHL SUB NOT DUP4 AND EQ DUP1 PUSH2 0x787 JUMPI POP PUSH4 0x6CDB3D13 PUSH1 0xE1 SHL PUSH1 0x1 PUSH1 0x1 PUSH1 0xE0 SHL SUB NOT DUP4 AND EQ JUMPDEST DUP1 PUSH2 0x7A2 JUMPI POP PUSH4 0x3A24D07 PUSH1 0xE2 SHL PUSH1 0x1 PUSH1 0x1 PUSH1 0xE0 SHL SUB NOT DUP4 AND EQ JUMPDEST SWAP3 SWAP2 POP POP JUMP JUMPDEST PUSH0 DUP1 PUSH2 0x7B4 DUP5 DUP5 PUSH2 0x1366 JUMP JUMPDEST SWAP1 POP PUSH0 PUSH8 0xDE0B6B3A7640000 PUSH1 0xB SLOAD DUP4 PUSH2 0x7CE SWAP2 SWAP1 PUSH2 0x46A4 JUMP JUMPDEST PUSH2 0x7D8 SWAP2 SWAP1 PUSH2 0x46CF JUMP JUMPDEST SWAP1 POP PUSH0 PUSH8 0xDE0B6B3A7640000 PUSH1 0xA SLOAD DUP5 PUSH2 0x7F2 SWAP2 SWAP1 PUSH2 0x46A4 JUMP JUMPDEST PUSH2 0x7FC SWAP2 SWAP1 PUSH2 0x46CF JUMP JUMPDEST SWAP1 POP DUP1 PUSH2 0x809 DUP4 DUP6 PUSH2 0x46EE JUMP JUMPDEST PUSH2 0x813 SWAP2 SWAP1 PUSH2 0x46EE JUMP JUMPDEST SWAP7 SWAP6 POP POP POP POP POP POP JUMP JUMPDEST PUSH0 DUP2 DUP2 MSTORE PUSH1 0x4 PUSH1 0x20 MSTORE PUSH1 0x40 SWAP1 KECCAK256 PUSH1 0x1 ADD DUP1 SLOAD PUSH1 0x60 SWAP2 SWAP1 PUSH2 0x83C SWAP1 PUSH2 0x4701 JUMP JUMPDEST DUP1 PUSH1 0x1F ADD PUSH1 0x20 DUP1 SWAP2 DIV MUL PUSH1 0x20 ADD PUSH1 0x40 MLOAD SWAP1 DUP2 ADD PUSH1 0x40 MSTORE DUP1 SWAP3 SWAP2 SWAP1 DUP2 DUP2 MSTORE PUSH1 0x20 ADD DUP3 DUP1 SLOAD PUSH2 0x868 SWAP1 PUSH2 0x4701 JUMP JUMPDEST DUP1 ISZERO PUSH2 0x8B3 JUMPI DUP1 PUSH1 0x1F LT PUSH2 0x88A JUMPI PUSH2 0x100 DUP1 DUP4 SLOAD DIV MUL DUP4 MSTORE SWAP2 PUSH1 0x20 ADD SWAP2 PUSH2 0x8B3 JUMP JUMPDEST DUP3 ADD SWAP2 SWAP1 PUSH0 MSTORE PUSH1 0x20 PUSH0 KECCAK256 SWAP1 JUMPDEST DUP2 SLOAD DUP2 MSTORE SWAP1 PUSH1 0x1 ADD SWAP1 PUSH1 0x20 ADD DUP1 DUP4 GT PUSH2 0x896 JUMPI DUP3 SWAP1 SUB PUSH1 0x1F AND DUP3 ADD SWAP2 JUMPDEST POP POP POP POP POP SWAP1 POP SWAP2 SWAP1 POP JUMP JUMPDEST DUP5 DUP4 EQ PUSH2 0x905 JUMPI PUSH1 0x40 MLOAD PUSH3 0x461BCD PUSH1 0xE5 SHL DUP2 MSTORE PUSH1 0x20 PUSH1 0x4 DUP3 ADD MSTORE PUSH1 0xF PUSH1 0x24 DUP3 ADD MSTORE PUSH15 0x988A9C8EA890BE9A92A69A82A8869 PUSH1 0x8B SHL PUSH1 0x44 DUP3 ADD MSTORE PUSH1 0x64 ADD JUMPDEST PUSH1 0x40 MLOAD DUP1 SWAP2 SUB SWAP1 REVERT JUMPDEST CALLER PUSH1 0x1 PUSH1 0x1 PUSH1 0xA0 SHL SUB DUP10 AND EQ DUP1 PUSH2 0x93E JUMPI POP PUSH1 0x1 PUSH1 0x1 PUSH1 0xA0 SHL SUB DUP9 AND PUSH0 SWAP1 DUP2 MSTORE PUSH1 0x1 PUSH1 0x20 SWAP1 DUP2 MSTORE PUSH1 0x40 DUP1 DUP4 KECCAK256 CALLER DUP5 MSTORE SWAP1 SWAP2 MSTORE SWAP1 KECCAK256 SLOAD PUSH1 0xFF AND JUMPDEST PUSH2 0x97B JUMPI PUSH1 0x40 MLOAD PUSH3 0x461BCD PUSH1 0xE5 SHL DUP2 MSTORE PUSH1 0x20 PUSH1 0x4 DUP3 ADD MSTORE PUSH1 0xE PUSH1 0x24 DUP3 ADD MSTORE PUSH14 0x1393D517D055551213D492569151 PUSH1 0x92 SHL PUSH1 0x44 DUP3 ADD MSTORE PUSH1 0x64 ADD PUSH2 0x8FC JUMP JUMPDEST PUSH0 DUP1 PUSH0 JUMPDEST DUP8 DUP2 LT ISZERO PUSH2 0xA32 JUMPI DUP9 DUP9 DUP3 DUP2 DUP2 LT PUSH2 0x999 JUMPI PUSH2 0x999 PUSH2 0x4733 JUMP JUMPDEST SWAP1 POP PUSH1 0x20 MUL ADD CALLDATALOAD SWAP3 POP DUP7 DUP7 DUP3 DUP2 DUP2 LT PUSH2 0x9B4 JUMPI PUSH2 0x9B4 PUSH2 0x4733 JUMP JUMPDEST PUSH1 0x1 PUSH1 0x1 PUSH1 0xA0 SHL SUB DUP15 AND PUSH0 SWAP1 DUP2 MSTORE PUSH1 0x20 DUP2 DUP2 MSTORE PUSH1 0x40 DUP1 DUP4 KECCAK256 DUP10 DUP5 MSTORE DUP3 MSTORE DUP3 KECCAK256 DUP1 SLOAD SWAP4 SWAP1 SWAP2 MUL SWAP5 SWAP1 SWAP5 ADD CALLDATALOAD SWAP6 POP DUP6 SWAP4 SWAP3 POP SWAP1 PUSH2 0x9F0 SWAP1 DUP5 SWAP1 PUSH2 0x4747 JUMP JUMPDEST SWAP1 SWAP2 SSTORE POP POP PUSH1 0x1 PUSH1 0x1 PUSH1 0xA0 SHL SUB DUP11 AND PUSH0 SWAP1 DUP2 MSTORE PUSH1 0x20 DUP2 DUP2 MSTORE PUSH1 0x40 DUP1 DUP4 KECCAK256 DUP7 DUP5 MSTORE SWAP1 SWAP2 MSTORE DUP2 KECCAK256 DUP1 SLOAD DUP5 SWAP3 SWAP1 PUSH2 0xA25 SWAP1 DUP5 SWAP1 PUSH2 0x46EE JUMP JUMPDEST SWAP1 SWAP2 SSTORE POP POP PUSH1 0x1 ADD PUSH2 0x97F JUMP JUMPDEST POP DUP9 PUSH1 0x1 PUSH1 0x1 PUSH1 0xA0 SHL SUB AND DUP11 PUSH1 0x1 PUSH1 0x1 PUSH1 0xA0 SHL SUB AND CALLER PUSH1 0x1 PUSH1 0x1 PUSH1 0xA0 SHL SUB AND PUSH32 0x4A39DC06D4C0DBC64B70AF90FD698A233A518AA5D07E595D983B8C0526C8F7FB DUP12 DUP12 DUP12 DUP12 PUSH1 0x40 MLOAD PUSH2 0xA86 SWAP5 SWAP4 SWAP3 SWAP2 SWAP1 PUSH2 0x478A JUMP JUMPDEST PUSH1 0x40 MLOAD DUP1 SWAP2 SUB SWAP1 LOG4 PUSH1 0x1 PUSH1 0x1 PUSH1 0xA0 SHL SUB DUP10 AND EXTCODESIZE ISZERO PUSH2 0xB2A JUMPI PUSH1 0x40 MLOAD PUSH4 0xBC197C81 PUSH1 0xE0 SHL DUP1 DUP3 MSTORE SWAP1 PUSH1 0x1 PUSH1 0x1 PUSH1 0xA0 SHL SUB DUP12 AND SWAP1 PUSH4 0xBC197C81 SWAP1 PUSH2 0xADA SWAP1 CALLER SWAP1 DUP16 SWAP1 DUP15 SWAP1 DUP15 SWAP1 DUP15 SWAP1 DUP15 SWAP1 DUP15 SWAP1 DUP15 SWAP1 PUSH1 0x4 ADD PUSH2 0x47E3 JUMP JUMPDEST PUSH1 0x20 PUSH1 0x40 MLOAD DUP1 DUP4 SUB DUP2 PUSH0 DUP8 GAS CALL ISZERO DUP1 ISZERO PUSH2 0xAF6 JUMPI RETURNDATASIZE PUSH0 DUP1 RETURNDATACOPY RETURNDATASIZE PUSH0 REVERT JUMPDEST POP POP POP POP PUSH1 0x40 MLOAD RETURNDATASIZE PUSH1 0x1F NOT PUSH1 0x1F DUP3 ADD AND DUP3 ADD DUP1 PUSH1 0x40 MSTORE POP DUP2 ADD SWAP1 PUSH2 0xB1A SWAP2 SWAP1 PUSH2 0x4837 JUMP JUMPDEST PUSH1 0x1 PUSH1 0x1 PUSH1 0xE0 SHL SUB NOT AND EQ PUSH2 0xB37 JUMP JUMPDEST PUSH1 0x1 PUSH1 0x1 PUSH1 0xA0 SHL SUB DUP10 AND ISZERO ISZERO JUMPDEST PUSH2 0xB53 JUMPI PUSH1 0x40 MLOAD PUSH3 0x461BCD PUSH1 0xE5 SHL DUP2 MSTORE PUSH1 0x4 ADD PUSH2 0x8FC SWAP1 PUSH2 0x4852 JUMP JUMPDEST POP POP POP POP POP POP POP POP POP POP JUMP JUMPDEST PUSH0 PUSH1 0x4 PUSH0 DUP4 DUP2 MSTORE PUSH1 0x20 ADD SWAP1 DUP2 MSTORE PUSH1 0x20 ADD PUSH0 KECCAK256 PUSH1 0x40 MLOAD DUP1 PUSH1 0x60 ADD PUSH1 0x40 MSTORE SWAP1 DUP2 PUSH0 DUP3 ADD SLOAD DUP2 MSTORE PUSH1 0x20 ADD PUSH1 0x1 DUP3 ADD DUP1 SLOAD PUSH2 0xB95 SWAP1 PUSH2 0x4701 JUMP JUMPDEST DUP1 PUSH1 0x1F ADD PUSH1 0x20 DUP1 SWAP2 DIV MUL PUSH1 0x20 ADD PUSH1 0x40 MLOAD SWAP1 DUP2 ADD PUSH1 0x40 MSTORE DUP1 SWAP3 SWAP2 SWAP1 DUP2 DUP2 MSTORE PUSH1 0x20 ADD DUP3 DUP1 SLOAD PUSH2 0xBC1 SWAP1 PUSH2 0x4701 JUMP JUMPDEST DUP1 ISZERO PUSH2 0xC0C JUMPI DUP1 PUSH1 0x1F LT PUSH2 0xBE3 JUMPI PUSH2 0x100 DUP1 DUP4 SLOAD DIV MUL DUP4 MSTORE SWAP2 PUSH1 0x20 ADD SWAP2 PUSH2 0xC0C JUMP JUMPDEST DUP3 ADD SWAP2 SWAP1 PUSH0 MSTORE PUSH1 0x20 PUSH0 KECCAK256 SWAP1 JUMPDEST DUP2 SLOAD DUP2 MSTORE SWAP1 PUSH1 0x1 ADD SWAP1 PUSH1 0x20 ADD DUP1 DUP4 GT PUSH2 0xBEF JUMPI DUP3 SWAP1 SUB PUSH1 0x1F AND DUP3 ADD SWAP2 JUMPDEST POP POP POP SWAP2 DUP4 MSTORE POP POP PUSH1 0x2 SWAP2 SWAP1 SWAP2 ADD SLOAD PUSH1 0x1 PUSH1 0x1 PUSH1 0xA0 SHL SUB SWAP1 DUP2 AND PUSH1 0x20 SWAP1 SWAP3 ADD SWAP2 SWAP1 SWAP2 MSTORE PUSH1 0x40 DUP3 ADD MLOAD SWAP2 SWAP3 POP AND CALLER EQ PUSH2 0xC56 JUMPI PUSH1 0x40 MLOAD PUSH3 0x82B429 PUSH1 0xE8 SHL DUP2 MSTORE PUSH1 0x4 ADD PUSH1 0x40 MLOAD DUP1 SWAP2 SUB SWAP1 REVERT JUMPDEST PUSH1 0x6 PUSH0 DUP3 PUSH1 0x20 ADD MLOAD PUSH1 0x40 MLOAD PUSH1 0x20 ADD PUSH2 0xC6E SWAP2 SWAP1 PUSH2 0x487C JUMP JUMPDEST PUSH1 0x40 DUP1 MLOAD PUSH1 0x1F NOT DUP2 DUP5 SUB ADD DUP2 MSTORE SWAP2 DUP2 MSTORE DUP2 MLOAD PUSH1 0x20 SWAP3 DUP4 ADD KECCAK256 DUP4 MSTORE DUP3 DUP3 ADD SWAP4 SWAP1 SWAP4 MSTORE SWAP1 DUP3 ADD PUSH0 SWAP1 DUP2 KECCAK256 DUP2 SWAP1 SSTORE DUP5 DUP2 MSTORE PUSH1 0x4 SWAP1 SWAP2 MSTORE SWAP1 DUP2 KECCAK256 DUP2 DUP2 SSTORE SWAP1 PUSH2 0xCB5 PUSH1 0x1 DUP4 ADD DUP3 PUSH2 0x41F1 JUMP JUMPDEST POP PUSH1 0x2 ADD DUP1 SLOAD PUSH1 0x1 PUSH1 0x1 PUSH1 0xA0 SHL SUB NOT AND SWAP1 SSTORE PUSH1 0x40 MLOAD CALLER SWAP1 DUP4 SWAP1 PUSH32 0xE52B7042A48E37BFB277E8A210794950BE40BFAEDEA374E2DFBE0C6EDFF8791D SWAP1 PUSH0 SWAP1 LOG3 POP POP JUMP JUMPDEST PUSH1 0x60 DUP4 DUP3 EQ PUSH2 0xD3A JUMPI PUSH1 0x40 MLOAD PUSH3 0x461BCD PUSH1 0xE5 SHL DUP2 MSTORE PUSH1 0x20 PUSH1 0x4 DUP3 ADD MSTORE PUSH1 0xF PUSH1 0x24 DUP3 ADD MSTORE PUSH15 0x988A9C8EA890BE9A92A69A82A8869 PUSH1 0x8B SHL PUSH1 0x44 DUP3 ADD MSTORE PUSH1 0x64 ADD PUSH2 0x8FC JUMP JUMPDEST DUP4 PUSH8 0xFFFFFFFFFFFFFFFF DUP2 GT ISZERO PUSH2 0xD53 JUMPI PUSH2 0xD53 PUSH2 0x4897 JUMP JUMPDEST PUSH1 0x40 MLOAD SWAP1 DUP1 DUP3 MSTORE DUP1 PUSH1 0x20 MUL PUSH1 0x20 ADD DUP3 ADD PUSH1 0x40 MSTORE DUP1 ISZERO PUSH2 0xD7C JUMPI DUP2 PUSH1 0x20 ADD PUSH1 0x20 DUP3 MUL DUP1 CALLDATASIZE DUP4 CALLDATACOPY ADD SWAP1 POP JUMPDEST POP SWAP1 POP PUSH0 JUMPDEST DUP5 DUP2 LT ISZERO PUSH2 0xE1E JUMPI PUSH0 DUP1 DUP8 DUP8 DUP5 DUP2 DUP2 LT PUSH2 0xD9D JUMPI PUSH2 0xD9D PUSH2 0x4733 JUMP JUMPDEST SWAP1 POP PUSH1 0x20 MUL ADD PUSH1 0x20 DUP2 ADD SWAP1 PUSH2 0xDB2 SWAP2 SWAP1 PUSH2 0x4279 JUMP JUMPDEST PUSH1 0x1 PUSH1 0x1 PUSH1 0xA0 SHL SUB AND PUSH1 0x1 PUSH1 0x1 PUSH1 0xA0 SHL SUB AND DUP2 MSTORE PUSH1 0x20 ADD SWAP1 DUP2 MSTORE PUSH1 0x20 ADD PUSH0 KECCAK256 PUSH0 DUP6 DUP6 DUP5 DUP2 DUP2 LT PUSH2 0xDE4 JUMPI PUSH2 0xDE4 PUSH2 0x4733 JUMP JUMPDEST SWAP1 POP PUSH1 0x20 MUL ADD CALLDATALOAD DUP2 MSTORE PUSH1 0x20 ADD SWAP1 DUP2 MSTORE PUSH1 0x20 ADD PUSH0 KECCAK256 SLOAD DUP3 DUP3 DUP2 MLOAD DUP2 LT PUSH2 0xE0B JUMPI PUSH2 0xE0B PUSH2 0x4733 JUMP JUMPDEST PUSH1 0x20 SWAP1 DUP2 MUL SWAP2 SWAP1 SWAP2 ADD ADD MSTORE PUSH1 0x1 ADD PUSH2 0xD81 JUMP JUMPDEST POP SWAP5 SWAP4 POP POP POP POP JUMP JUMPDEST PUSH2 0xE2F PUSH2 0x1F2C JUMP JUMPDEST PUSH1 0xB SSTORE JUMP JUMPDEST PUSH0 PUSH2 0xC350 PUSH8 0xDE0B6B3A7640000 DUP1 PUSH2 0xE4B DUP7 PUSH2 0x1F86 JUMP JUMPDEST PUSH2 0xE5D PUSH2 0xE58 DUP8 DUP10 PUSH2 0x46EE JUMP JUMPDEST PUSH2 0x1F86 JUMP JUMPDEST PUSH2 0xE67 SWAP2 SWAP1 PUSH2 0x4747 JUMP JUMPDEST PUSH2 0xE71 SWAP2 SWAP1 PUSH2 0x46CF JUMP JUMPDEST PUSH2 0xE7B SWAP2 SWAP1 PUSH2 0x46CF JUMP JUMPDEST PUSH2 0xE85 SWAP2 SWAP1 PUSH2 0x46CF JUMP JUMPDEST SWAP4 SWAP3 POP POP POP JUMP JUMPDEST PUSH1 0x5 PUSH1 0x20 MSTORE DUP2 PUSH0 MSTORE PUSH1 0x40 PUSH0 KECCAK256 DUP2 DUP2 SLOAD DUP2 LT PUSH2 0xEA5 JUMPI PUSH0 DUP1 REVERT JUMPDEST SWAP1 PUSH0 MSTORE PUSH1 0x20 PUSH0 KECCAK256 ADD PUSH0 SWAP2 POP SWAP2 POP POP SLOAD DUP2 JUMP JUMPDEST PUSH2 0xEBF PUSH2 0x1F2C JUMP JUMPDEST PUSH2 0xEC8 PUSH0 PUSH2 0x2032 JUMP JUMPDEST JUMP JUMPDEST PUSH0 DUP3 DUP2 MSTORE PUSH1 0x7 PUSH1 0x20 MSTORE PUSH1 0x40 DUP2 KECCAK256 SLOAD PUSH2 0xE85 SWAP1 PUSH2 0xEE7 SWAP1 DUP5 SWAP1 PUSH2 0x4747 JUMP JUMPDEST DUP4 PUSH2 0xE34 JUMP JUMPDEST CALLER PUSH0 DUP2 DUP2 MSTORE PUSH1 0x1 PUSH1 0x20 SWAP1 DUP2 MSTORE PUSH1 0x40 DUP1 DUP4 KECCAK256 PUSH1 0x1 PUSH1 0x1 PUSH1 0xA0 SHL SUB DUP8 AND DUP1 DUP6 MSTORE SWAP1 DUP4 MSTORE SWAP3 DUP2 SWAP1 KECCAK256 DUP1 SLOAD PUSH1 0xFF NOT AND DUP7 ISZERO ISZERO SWAP1 DUP2 OR SWAP1 SWAP2 SSTORE SWAP1 MLOAD SWAP1 DUP2 MSTORE SWAP2 SWAP3 SWAP2 PUSH32 0x17307EAB39AB6107E8899845AD3D59BD9653F200F220920489CA2B5937696C31 SWAP2 ADD PUSH1 0x40 MLOAD DUP1 SWAP2 SUB SWAP1 LOG3 POP POP JUMP JUMPDEST PUSH2 0xF60 PUSH2 0x1F2C JUMP JUMPDEST PUSH1 0xA SSTORE JUMP JUMPDEST PUSH1 0x1 PUSH1 0x1 PUSH1 0xA0 SHL SUB DUP2 AND PUSH0 SWAP1 DUP2 MSTORE PUSH1 0x5 PUSH1 0x20 SWAP1 DUP2 MSTORE PUSH1 0x40 SWAP2 DUP3 SWAP1 KECCAK256 DUP1 SLOAD DUP4 MLOAD DUP2 DUP5 MUL DUP2 ADD DUP5 ADD SWAP1 SWAP5 MSTORE DUP1 DUP5 MSTORE PUSH1 0x60 SWAP4 SWAP3 DUP4 ADD DUP3 DUP3 DUP1 ISZERO PUSH2 0x8B3 JUMPI PUSH1 0x20 MUL DUP3 ADD SWAP2 SWAP1 PUSH0 MSTORE PUSH1 0x20 PUSH0 KECCAK256 SWAP1 JUMPDEST DUP2 SLOAD DUP2 MSTORE PUSH1 0x20 ADD SWAP1 PUSH1 0x1 ADD SWAP1 DUP1 DUP4 GT PUSH2 0xFAE JUMPI POP POP POP POP POP SWAP1 POP SWAP2 SWAP1 POP JUMP JUMPDEST PUSH0 DUP3 DUP3 PUSH1 0x40 MLOAD PUSH1 0x20 ADD PUSH2 0xFE1 SWAP3 SWAP2 SWAP1 PUSH2 0x48AB JUMP JUMPDEST PUSH1 0x40 DUP1 MLOAD PUSH1 0x1F NOT DUP2 DUP5 SUB ADD DUP2 MSTORE SWAP2 DUP2 MSTORE DUP2 MLOAD PUSH1 0x20 SWAP3 DUP4 ADD KECCAK256 PUSH0 DUP2 DUP2 MSTORE PUSH1 0x6 SWAP1 SWAP4 MSTORE SWAP2 KECCAK256 SLOAD SWAP1 SWAP2 POP ISZERO PUSH2 0x104C JUMPI PUSH1 0x40 MLOAD PUSH3 0x461BCD PUSH1 0xE5 SHL DUP2 MSTORE PUSH1 0x20 PUSH1 0x4 DUP3 ADD MSTORE PUSH1 0x14 PUSH1 0x24 DUP3 ADD MSTORE PUSH20 0x417373657420616C726561647920657869737473 PUSH1 0x60 SHL PUSH1 0x44 DUP3 ADD MSTORE PUSH1 0x64 ADD PUSH2 0x8FC JUMP JUMPDEST PUSH1 0xC SLOAD ISZERO PUSH2 0x118C JUMPI PUSH1 0xC SLOAD PUSH1 0xD SLOAD PUSH1 0x40 MLOAD PUSH4 0x70A08231 PUSH1 0xE0 SHL DUP2 MSTORE CALLER PUSH1 0x4 DUP3 ADD MSTORE PUSH1 0x1 PUSH1 0x1 PUSH1 0xA0 SHL SUB SWAP1 SWAP2 AND SWAP1 PUSH4 0x70A08231 SWAP1 PUSH1 0x24 ADD PUSH1 0x20 PUSH1 0x40 MLOAD DUP1 DUP4 SUB DUP2 DUP7 GAS STATICCALL ISZERO DUP1 ISZERO PUSH2 0x109D JUMPI RETURNDATASIZE PUSH0 DUP1 RETURNDATACOPY RETURNDATASIZE PUSH0 REVERT JUMPDEST POP POP POP POP PUSH1 0x40 MLOAD RETURNDATASIZE PUSH1 0x1F NOT PUSH1 0x1F DUP3 ADD AND DUP3 ADD DUP1 PUSH1 0x40 MSTORE POP DUP2 ADD SWAP1 PUSH2 0x10C1 SWAP2 SWAP1 PUSH2 0x48BA JUMP JUMPDEST LT ISZERO PUSH2 0x110F JUMPI PUSH1 0x40 MLOAD PUSH3 0x461BCD PUSH1 0xE5 SHL DUP2 MSTORE PUSH1 0x20 PUSH1 0x4 DUP3 ADD MSTORE PUSH1 0x1E PUSH1 0x24 DUP3 ADD MSTORE PUSH32 0x496E73756666696369656E742053535420746F6B656E2062616C616E63650000 PUSH1 0x44 DUP3 ADD MSTORE PUSH1 0x64 ADD PUSH2 0x8FC JUMP JUMPDEST PUSH1 0xD SLOAD PUSH1 0x9 SLOAD PUSH1 0xC SLOAD PUSH1 0x40 MLOAD PUSH4 0x23B872DD PUSH1 0xE0 SHL DUP2 MSTORE PUSH1 0x1 PUSH1 0x1 PUSH1 0xA0 SHL SUB SWAP4 DUP5 AND SWAP4 PUSH4 0x23B872DD SWAP4 PUSH2 0x114A SWAP4 CALLER SWAP4 SWAP3 SWAP1 SWAP2 AND SWAP2 PUSH1 0x4 ADD PUSH2 0x48D1 JUMP JUMPDEST PUSH1 0x20 PUSH1 0x40 MLOAD DUP1 DUP4 SUB DUP2 PUSH0 DUP8 GAS CALL ISZERO DUP1 ISZERO PUSH2 0x1166 JUMPI RETURNDATASIZE PUSH0 DUP1 RETURNDATACOPY RETURNDATASIZE PUSH0 REVERT JUMPDEST POP POP POP POP PUSH1 0x40 MLOAD RETURNDATASIZE PUSH1 0x1F NOT PUSH1 0x1F DUP3 ADD AND DUP3 ADD DUP1 PUSH1 0x40 MSTORE POP DUP2 ADD SWAP1 PUSH2 0x118A SWAP2 SWAP1 PUSH2 0x48F5 JUMP JUMPDEST POP JUMPDEST PUSH0 PUSH1 0x3 SLOAD SWAP1 POP PUSH1 0x40 MLOAD DUP1 PUSH1 0x60 ADD PUSH1 0x40 MSTORE DUP1 DUP3 DUP2 MSTORE PUSH1 0x20 ADD DUP6 DUP6 DUP1 DUP1 PUSH1 0x1F ADD PUSH1 0x20 DUP1 SWAP2 DIV MUL PUSH1 0x20 ADD PUSH1 0x40 MLOAD SWAP1 DUP2 ADD PUSH1 0x40 MSTORE DUP1 SWAP4 SWAP3 SWAP2 SWAP1 DUP2 DUP2 MSTORE PUSH1 0x20 ADD DUP4 DUP4 DUP1 DUP3 DUP5 CALLDATACOPY PUSH0 SWAP3 ADD DUP3 SWAP1 MSTORE POP SWAP4 DUP6 MSTORE POP POP CALLER PUSH1 0x20 SWAP4 DUP5 ADD MSTORE POP DUP4 DUP2 MSTORE PUSH1 0x4 DUP3 MSTORE PUSH1 0x40 SWAP1 KECCAK256 DUP3 MLOAD DUP2 SSTORE SWAP1 DUP3 ADD MLOAD PUSH1 0x1 DUP3 ADD SWAP1 PUSH2 0x1203 SWAP1 DUP3 PUSH2 0x495C JUMP JUMPDEST POP PUSH1 0x40 SWAP2 DUP3 ADD MLOAD PUSH1 0x2 SWAP2 SWAP1 SWAP2 ADD DUP1 SLOAD PUSH1 0x1 PUSH1 0x1 PUSH1 0xA0 SHL SUB NOT AND PUSH1 0x1 PUSH1 0x1 PUSH1 0xA0 SHL SUB SWAP1 SWAP3 AND SWAP2 SWAP1 SWAP2 OR SWAP1 SSTORE CALLER PUSH0 SWAP1 DUP2 MSTORE PUSH1 0x5 PUSH1 0x20 SWAP1 DUP2 MSTORE DUP3 DUP3 KECCAK256 DUP1 SLOAD PUSH1 0x1 DUP2 ADD DUP3 SSTORE SWAP1 DUP4 MSTORE DUP2 DUP4 KECCAK256 ADD DUP5 SWAP1 SSTORE DUP5 DUP3 MSTORE PUSH1 0x6 DUP2 MSTORE DUP3 DUP3 KECCAK256 DUP5 SWAP1 SSTORE DUP4 DUP3 MSTORE PUSH1 0x7 SWAP1 MSTORE SWAP1 DUP2 KECCAK256 DUP1 SLOAD PUSH8 0xDE0B6B3A7640000 SWAP3 SWAP1 PUSH2 0x127D SWAP1 DUP5 SWAP1 PUSH2 0x46EE JUMP JUMPDEST SWAP1 SWAP2 SSTORE POP PUSH2 0x128E SWAP1 POP DUP2 PUSH1 0x1 PUSH2 0x46EE JUMP JUMPDEST PUSH1 0x3 DUP2 SWAP1 SSTORE POP PUSH2 0x12B6 CALLER DUP3 PUSH8 0xDE0B6B3A7640000 PUSH1 0x40 MLOAD DUP1 PUSH1 0x20 ADD PUSH1 0x40 MSTORE DUP1 PUSH0 DUP2 MSTORE POP PUSH2 0x2083 JUMP JUMPDEST CALLER PUSH1 0x1 PUSH1 0x1 PUSH1 0xA0 SHL SUB AND DUP2 PUSH32 0xB683691564AB594B1F9E9DB91ABAF085736871256A4741BAA41BF30CB9D4F236 DUP7 DUP7 PUSH1 0x40 MLOAD PUSH2 0x12F2 SWAP3 SWAP2 SWAP1 PUSH2 0x4A18 JUMP JUMPDEST PUSH1 0x40 MLOAD DUP1 SWAP2 SUB SWAP1 LOG3 CALLER DUP2 PUSH0 PUSH1 0xC SLOAD PUSH1 0x40 DUP1 MLOAD PUSH8 0xDE0B6B3A7640000 DUP2 MSTORE PUSH0 PUSH1 0x20 DUP3 ADD DUP2 SWAP1 MSTORE SWAP2 DUP2 ADD SWAP2 SWAP1 SWAP2 MSTORE PUSH1 0x60 DUP2 ADD SWAP2 SWAP1 SWAP2 MSTORE PUSH32 0x817BC0138A01ADD0B2C69B5A8BE38829332E3B471218B3CBCD27A0A85EFAEDBA SWAP1 PUSH1 0x80 ADD PUSH1 0x40 MLOAD DUP1 SWAP2 SUB SWAP1 LOG4 POP POP POP POP JUMP JUMPDEST PUSH2 0x1361 PUSH2 0x1F2C JUMP JUMPDEST PUSH1 0xC SSTORE JUMP JUMPDEST PUSH0 DUP3 DUP2 MSTORE PUSH1 0x7 PUSH1 0x20 MSTORE PUSH1 0x40 DUP2 KECCAK256 SLOAD PUSH2 0xE85 SWAP1 DUP4 PUSH2 0xE34 JUMP JUMPDEST PUSH0 DUP1 PUSH2 0x138A DUP5 DUP5 PUSH2 0xECA JUMP JUMPDEST SWAP1 POP PUSH0 PUSH8 0xDE0B6B3A7640000 PUSH1 0xB SLOAD DUP4 PUSH2 0x13A4 SWAP2 SWAP1 PUSH2 0x46A4 JUMP JUMPDEST PUSH2 0x13AE SWAP2 SWAP1 PUSH2 0x46CF JUMP JUMPDEST SWAP1 POP PUSH0 PUSH8 0xDE0B6B3A7640000 PUSH1 0xA SLOAD DUP5 PUSH2 0x13C8 SWAP2 SWAP1 PUSH2 0x46A4 JUMP JUMPDEST PUSH2 0x13D2 SWAP2 SWAP1 PUSH2 0x46CF JUMP JUMPDEST SWAP1 POP DUP1 PUSH2 0x13DF DUP4 DUP6 PUSH2 0x4747 JUMP JUMPDEST PUSH2 0x813 SWAP2 SWAP1 PUSH2 0x4747 JUMP JUMPDEST PUSH1 0x4 PUSH1 0x20 MSTORE PUSH0 SWAP1 DUP2 MSTORE PUSH1 0x40 SWAP1 KECCAK256 DUP1 SLOAD PUSH1 0x1 DUP3 ADD DUP1 SLOAD SWAP2 SWAP3 SWAP2 PUSH2 0x140A SWAP1 PUSH2 0x4701 JUMP JUMPDEST DUP1 PUSH1 0x1F ADD PUSH1 0x20 DUP1 SWAP2 DIV MUL PUSH1 0x20 ADD PUSH1 0x40 MLOAD SWAP1 DUP2 ADD PUSH1 0x40 MSTORE DUP1 SWAP3 SWAP2 SWAP1 DUP2 DUP2 MSTORE PUSH1 0x20 ADD DUP3 DUP1 SLOAD PUSH2 0x1436 SWAP1 PUSH2 0x4701 JUMP JUMPDEST DUP1 ISZERO PUSH2 0x1481 JUMPI DUP1 PUSH1 0x1F LT PUSH2 0x1458 JUMPI PUSH2 0x100 DUP1 DUP4 SLOAD DIV MUL DUP4 MSTORE SWAP2 PUSH1 0x20 ADD SWAP2 PUSH2 0x1481 JUMP JUMPDEST DUP3 ADD SWAP2 SWAP1 PUSH0 MSTORE PUSH1 0x20 PUSH0 KECCAK256 SWAP1 JUMPDEST DUP2 SLOAD DUP2 MSTORE SWAP1 PUSH1 0x1 ADD SWAP1 PUSH1 0x20 ADD DUP1 DUP4 GT PUSH2 0x1464 JUMPI DUP3 SWAP1 SUB PUSH1 0x1F AND DUP3 ADD SWAP2 JUMPDEST POP POP POP PUSH1 0x2 SWAP1 SWAP4 ADD SLOAD SWAP2 SWAP3 POP POP PUSH1 0x1 PUSH1 0x1 PUSH1 0xA0 SHL SUB AND DUP4 JUMP JUMPDEST PUSH1 0x3 SLOAD DUP3 LT PUSH2 0x14E2 JUMPI PUSH1 0x40 MLOAD PUSH3 0x461BCD PUSH1 0xE5 SHL DUP2 MSTORE PUSH1 0x20 PUSH1 0x4 DUP3 ADD MSTORE PUSH1 0x14 PUSH1 0x24 DUP3 ADD MSTORE PUSH20 0x105CDCD95D08191BD95CC81B9BDD08195E1A5CDD PUSH1 0x62 SHL PUSH1 0x44 DUP3 ADD MSTORE PUSH1 0x64 ADD PUSH2 0x8FC JUMP JUMPDEST PUSH0 PUSH2 0x14ED DUP4 DUP4 PUSH2 0x1366 JUMP JUMPDEST SWAP1 POP PUSH0 PUSH8 0xDE0B6B3A7640000 PUSH1 0xB SLOAD DUP4 PUSH2 0x1507 SWAP2 SWAP1 PUSH2 0x46A4 JUMP JUMPDEST PUSH2 0x1511 SWAP2 SWAP1 PUSH2 0x46CF JUMP JUMPDEST SWAP1 POP PUSH0 PUSH8 0xDE0B6B3A7640000 PUSH1 0xA SLOAD DUP5 PUSH2 0x152B SWAP2 SWAP1 PUSH2 0x46A4 JUMP JUMPDEST PUSH2 0x1535 SWAP2 SWAP1 PUSH2 0x46CF JUMP JUMPDEST SWAP1 POP DUP1 PUSH2 0x1542 DUP4 DUP6 PUSH2 0x46EE JUMP JUMPDEST PUSH2 0x154C SWAP2 SWAP1 PUSH2 0x46EE JUMP JUMPDEST PUSH1 0xD SLOAD PUSH1 0x40 MLOAD PUSH4 0x70A08231 PUSH1 0xE0 SHL DUP2 MSTORE CALLER PUSH1 0x4 DUP3 ADD MSTORE PUSH1 0x1 PUSH1 0x1 PUSH1 0xA0 SHL SUB SWAP1 SWAP2 AND SWAP1 PUSH4 0x70A08231 SWAP1 PUSH1 0x24 ADD PUSH1 0x20 PUSH1 0x40 MLOAD DUP1 DUP4 SUB DUP2 DUP7 GAS STATICCALL ISZERO DUP1 ISZERO PUSH2 0x1592 JUMPI RETURNDATASIZE PUSH0 DUP1 RETURNDATACOPY RETURNDATASIZE PUSH0 REVERT JUMPDEST POP POP POP POP PUSH1 0x40 MLOAD RETURNDATASIZE PUSH1 0x1F NOT PUSH1 0x1F DUP3 ADD AND DUP3 ADD DUP1 PUSH1 0x40 MSTORE POP DUP2 ADD SWAP1 PUSH2 0x15B6 SWAP2 SWAP1 PUSH2 0x48BA JUMP JUMPDEST LT ISZERO PUSH2 0x15FB JUMPI PUSH1 0x40 MLOAD PUSH3 0x461BCD PUSH1 0xE5 SHL DUP2 MSTORE PUSH1 0x20 PUSH1 0x4 DUP3 ADD MSTORE PUSH1 0x14 PUSH1 0x24 DUP3 ADD MSTORE PUSH20 0x125B9CDD59999A58DA595B9D081C185E5B595B9D PUSH1 0x62 SHL PUSH1 0x44 DUP3 ADD MSTORE PUSH1 0x64 ADD PUSH2 0x8FC JUMP JUMPDEST PUSH0 DUP6 DUP2 MSTORE PUSH1 0x7 PUSH1 0x20 MSTORE PUSH1 0x40 DUP2 KECCAK256 DUP1 SLOAD DUP7 SWAP3 SWAP1 PUSH2 0x1618 SWAP1 DUP5 SWAP1 PUSH2 0x46EE JUMP JUMPDEST SWAP1 SWAP2 SSTORE POP POP PUSH0 DUP6 DUP2 MSTORE PUSH1 0x8 PUSH1 0x20 MSTORE PUSH1 0x40 DUP2 KECCAK256 DUP1 SLOAD DUP6 SWAP3 SWAP1 PUSH2 0x163A SWAP1 DUP5 SWAP1 PUSH2 0x46EE JUMP JUMPDEST SWAP3 POP POP DUP2 SWAP1 SSTORE POP PUSH2 0x165B CALLER DUP7 DUP7 PUSH1 0x40 MLOAD DUP1 PUSH1 0x20 ADD PUSH1 0x40 MSTORE DUP1 PUSH0 DUP2 MSTORE POP PUSH2 0x2083 JUMP JUMPDEST CALLER DUP6 PUSH1 0x1 PUSH1 0x40 DUP1 MLOAD DUP9 DUP2 MSTORE PUSH1 0x20 DUP2 ADD DUP9 SWAP1 MSTORE SWAP1 DUP2 ADD DUP7 SWAP1 MSTORE PUSH1 0x60 DUP2 ADD DUP6 SWAP1 MSTORE PUSH32 0x817BC0138A01ADD0B2C69B5A8BE38829332E3B471218B3CBCD27A0A85EFAEDBA SWAP1 PUSH1 0x80 ADD PUSH1 0x40 MLOAD DUP1 SWAP2 SUB SWAP1 LOG4 PUSH1 0xD SLOAD PUSH1 0x40 MLOAD PUSH4 0x23B872DD PUSH1 0xE0 SHL DUP2 MSTORE PUSH0 SWAP2 PUSH1 0x1 PUSH1 0x1 PUSH1 0xA0 SHL SUB AND SWAP1 PUSH4 0x23B872DD SWAP1 PUSH2 0x16DB SWAP1 CALLER SWAP1 ADDRESS SWAP1 DUP10 SWAP1 PUSH1 0x4 ADD PUSH2 0x48D1 JUMP JUMPDEST PUSH1 0x20 PUSH1 0x40 MLOAD DUP1 DUP4 SUB DUP2 PUSH0 DUP8 GAS CALL ISZERO DUP1 ISZERO PUSH2 0x16F7 JUMPI RETURNDATASIZE PUSH0 DUP1 RETURNDATACOPY RETURNDATASIZE PUSH0 REVERT JUMPDEST POP POP POP POP PUSH1 0x40 MLOAD RETURNDATASIZE PUSH1 0x1F NOT PUSH1 0x1F DUP3 ADD AND DUP3 ADD DUP1 PUSH1 0x40 MSTORE POP DUP2 ADD SWAP1 PUSH2 0x171B SWAP2 SWAP1 PUSH2 0x48F5 JUMP JUMPDEST PUSH1 0xD SLOAD PUSH0 DUP9 DUP2 MSTORE PUSH1 0x4 PUSH1 0x20 DUP2 SWAP1 MSTORE PUSH1 0x40 DUP1 DUP4 KECCAK256 PUSH1 0x2 ADD SLOAD SWAP1 MLOAD PUSH4 0x23B872DD PUSH1 0xE0 SHL DUP2 MSTORE SWAP5 SWAP6 POP SWAP2 SWAP4 PUSH1 0x1 PUSH1 0x1 PUSH1 0xA0 SHL SUB SWAP4 DUP5 AND SWAP4 PUSH4 0x23B872DD SWAP4 PUSH2 0x1768 SWAP4 CALLER SWAP4 SWAP2 SWAP1 SWAP3 AND SWAP2 DUP11 SWAP2 ADD PUSH2 0x48D1 JUMP JUMPDEST PUSH1 0x20 PUSH1 0x40 MLOAD DUP1 DUP4 SUB DUP2 PUSH0 DUP8 GAS CALL ISZERO DUP1 ISZERO PUSH2 0x1784 JUMPI RETURNDATASIZE PUSH0 DUP1 RETURNDATACOPY RETURNDATASIZE PUSH0 REVERT JUMPDEST POP POP POP POP PUSH1 0x40 MLOAD RETURNDATASIZE PUSH1 0x1F NOT PUSH1 0x1F DUP3 ADD AND DUP3 ADD DUP1 PUSH1 0x40 MSTORE POP DUP2 ADD SWAP1 PUSH2 0x17A8 SWAP2 SWAP1 PUSH2 0x48F5 JUMP JUMPDEST PUSH1 0xD SLOAD PUSH1 0x9 SLOAD PUSH1 0x40 MLOAD PUSH4 0x23B872DD PUSH1 0xE0 SHL DUP2 MSTORE SWAP3 SWAP4 POP PUSH0 SWAP3 PUSH1 0x1 PUSH1 0x1 PUSH1 0xA0 SHL SUB SWAP3 DUP4 AND SWAP3 PUSH4 0x23B872DD SWAP3 PUSH2 0x17E6 SWAP3 CALLER SWAP3 SWAP1 SWAP2 AND SWAP1 DUP10 SWAP1 PUSH1 0x4 ADD PUSH2 0x48D1 JUMP JUMPDEST PUSH1 0x20 PUSH1 0x40 MLOAD DUP1 DUP4 SUB DUP2 PUSH0 DUP8 GAS CALL ISZERO DUP1 ISZERO PUSH2 0x1802 JUMPI RETURNDATASIZE PUSH0 DUP1 RETURNDATACOPY RETURNDATASIZE PUSH0 REVERT JUMPDEST POP POP POP POP PUSH1 0x40 MLOAD RETURNDATASIZE PUSH1 0x1F NOT PUSH1 0x1F DUP3 ADD AND DUP3 ADD DUP1 PUSH1 0x40 MSTORE POP DUP2 ADD SWAP1 PUSH2 0x1826 SWAP2 SWAP1 PUSH2 0x48F5 JUMP JUMPDEST SWAP1 POP DUP3 DUP1 ISZERO PUSH2 0x1832 JUMPI POP DUP2 JUMPDEST DUP1 ISZERO PUSH2 0x183B JUMPI POP DUP1 JUMPDEST PUSH2 0x187E JUMPI PUSH1 0x40 MLOAD PUSH3 0x461BCD PUSH1 0xE5 SHL DUP2 MSTORE PUSH1 0x20 PUSH1 0x4 DUP3 ADD MSTORE PUSH1 0x14 PUSH1 0x24 DUP3 ADD MSTORE PUSH20 0x4661696C656420746F2073656E642066756E6473 PUSH1 0x60 SHL PUSH1 0x44 DUP3 ADD MSTORE PUSH1 0x64 ADD PUSH2 0x8FC JUMP JUMPDEST POP POP POP POP POP POP POP POP JUMP JUMPDEST PUSH1 0x3 SLOAD DUP3 LT PUSH2 0x18D0 JUMPI PUSH1 0x40 MLOAD PUSH3 0x461BCD PUSH1 0xE5 SHL DUP2 MSTORE PUSH1 0x20 PUSH1 0x4 DUP3 ADD MSTORE PUSH1 0x14 PUSH1 0x24 DUP3 ADD MSTORE PUSH20 0x105CDCD95D08191BD95CC81B9BDD08195E1A5CDD PUSH1 0x62 SHL PUSH1 0x44 DUP3 ADD MSTORE PUSH1 0x64 ADD PUSH2 0x8FC JUMP JUMPDEST CALLER PUSH0 SWAP1 DUP2 MSTORE PUSH1 0x20 DUP2 DUP2 MSTORE PUSH1 0x40 DUP1 DUP4 KECCAK256 DUP6 DUP5 MSTORE SWAP1 SWAP2 MSTORE SWAP1 KECCAK256 SLOAD DUP2 GT ISZERO PUSH2 0x192E JUMPI PUSH1 0x40 MLOAD PUSH3 0x461BCD PUSH1 0xE5 SHL DUP2 MSTORE PUSH1 0x20 PUSH1 0x4 DUP3 ADD MSTORE PUSH1 0x14 PUSH1 0x24 DUP3 ADD MSTORE PUSH20 0x496E73756666696369656E742062616C616E6365 PUSH1 0x60 SHL PUSH1 0x44 DUP3 ADD MSTORE PUSH1 0x64 ADD PUSH2 0x8FC JUMP JUMPDEST PUSH0 DUP3 DUP2 MSTORE PUSH1 0x7 PUSH1 0x20 MSTORE PUSH1 0x40 SWAP1 KECCAK256 SLOAD PUSH8 0xDE0B6B3A7640000 PUSH2 0x194F DUP4 DUP4 PUSH2 0x4747 JUMP JUMPDEST LT ISZERO PUSH2 0x19AD JUMPI PUSH1 0x40 MLOAD PUSH3 0x461BCD PUSH1 0xE5 SHL DUP2 MSTORE PUSH1 0x20 PUSH1 0x4 DUP3 ADD MSTORE PUSH1 0x27 PUSH1 0x24 DUP3 ADD MSTORE PUSH32 0x537570706C79206E6F7420616C6C6F7765642062656C6F77207072656D696E74 PUSH1 0x44 DUP3 ADD MSTORE PUSH7 0x8185B5BDD5B9D PUSH1 0xCA SHL PUSH1 0x64 DUP3 ADD MSTORE PUSH1 0x84 ADD PUSH2 0x8FC JUMP JUMPDEST PUSH0 PUSH2 0x19B8 DUP5 DUP5 PUSH2 0xECA JUMP JUMPDEST SWAP1 POP PUSH0 PUSH8 0xDE0B6B3A7640000 PUSH1 0xB SLOAD DUP4 PUSH2 0x19D2 SWAP2 SWAP1 PUSH2 0x46A4 JUMP JUMPDEST PUSH2 0x19DC SWAP2 SWAP1 PUSH2 0x46CF JUMP JUMPDEST SWAP1 POP PUSH0 PUSH8 0xDE0B6B3A7640000 PUSH1 0xA SLOAD DUP5 PUSH2 0x19F6 SWAP2 SWAP1 PUSH2 0x46A4 JUMP JUMPDEST PUSH2 0x1A00 SWAP2 SWAP1 PUSH2 0x46CF JUMP JUMPDEST SWAP1 POP PUSH2 0x1A0D CALLER DUP8 DUP8 PUSH2 0x21C5 JUMP JUMPDEST PUSH2 0x1A17 DUP6 DUP6 PUSH2 0x4747 JUMP JUMPDEST PUSH0 DUP8 DUP2 MSTORE PUSH1 0x7 PUSH1 0x20 SWAP1 DUP2 MSTORE PUSH1 0x40 DUP1 DUP4 KECCAK256 SWAP4 SWAP1 SWAP4 SSTORE PUSH1 0x8 SWAP1 MSTORE SWAP1 DUP2 KECCAK256 DUP1 SLOAD DUP6 SWAP3 SWAP1 PUSH2 0x1A42 SWAP1 DUP5 SWAP1 PUSH2 0x4747 JUMP JUMPDEST SWAP1 SWAP2 SSTORE POP CALLER SWAP1 POP DUP7 PUSH1 0x2 PUSH1 0x40 DUP1 MLOAD DUP10 DUP2 MSTORE PUSH1 0x20 DUP2 ADD DUP9 SWAP1 MSTORE SWAP1 DUP2 ADD DUP7 SWAP1 MSTORE PUSH1 0x60 DUP2 ADD DUP6 SWAP1 MSTORE PUSH32 0x817BC0138A01ADD0B2C69B5A8BE38829332E3B471218B3CBCD27A0A85EFAEDBA SWAP1 PUSH1 0x80 ADD PUSH1 0x40 MLOAD DUP1 SWAP2 SUB SWAP1 LOG4 PUSH1 0xD SLOAD PUSH0 SWAP1 PUSH1 0x1 PUSH1 0x1 PUSH1 0xA0 SHL SUB AND PUSH4 0xA9059CBB CALLER DUP5 PUSH2 0x1AB3 DUP8 DUP10 PUSH2 0x4747 JUMP JUMPDEST PUSH2 0x1ABD SWAP2 SWAP1 PUSH2 0x4747 JUMP JUMPDEST PUSH1 0x40 MLOAD PUSH1 0x1 PUSH1 0x1 PUSH1 0xE0 SHL SUB NOT PUSH1 0xE0 DUP6 SWAP1 SHL AND DUP2 MSTORE PUSH1 0x1 PUSH1 0x1 PUSH1 0xA0 SHL SUB SWAP1 SWAP3 AND PUSH1 0x4 DUP4 ADD MSTORE PUSH1 0x24 DUP3 ADD MSTORE PUSH1 0x44 ADD PUSH1 0x20 PUSH1 0x40 MLOAD DUP1 DUP4 SUB DUP2 PUSH0 DUP8 GAS CALL ISZERO DUP1 ISZERO PUSH2 0x1B05 JUMPI RETURNDATASIZE PUSH0 DUP1 RETURNDATACOPY RETURNDATASIZE PUSH0 REVERT JUMPDEST POP POP POP POP PUSH1 0x40 MLOAD RETURNDATASIZE PUSH1 0x1F NOT PUSH1 0x1F DUP3 ADD AND DUP3 ADD DUP1 PUSH1 0x40 MSTORE POP DUP2 ADD SWAP1 PUSH2 0x1B29 SWAP2 SWAP1 PUSH2 0x48F5 JUMP JUMPDEST PUSH1 0xD SLOAD PUSH0 DUP10 DUP2 MSTORE PUSH1 0x4 PUSH1 0x20 DUP2 SWAP1 MSTORE PUSH1 0x40 DUP1 DUP4 KECCAK256 PUSH1 0x2 ADD SLOAD SWAP1 MLOAD PUSH4 0xA9059CBB PUSH1 0xE0 SHL DUP2 MSTORE PUSH1 0x1 PUSH1 0x1 PUSH1 0xA0 SHL SUB SWAP2 DUP3 AND SWAP3 DUP2 ADD SWAP3 SWAP1 SWAP3 MSTORE PUSH1 0x24 DUP3 ADD DUP9 SWAP1 MSTORE SWAP4 SWAP5 POP SWAP1 SWAP3 SWAP1 SWAP2 AND SWAP1 PUSH4 0xA9059CBB SWAP1 PUSH1 0x44 ADD PUSH1 0x20 PUSH1 0x40 MLOAD DUP1 DUP4 SUB DUP2 PUSH0 DUP8 GAS CALL ISZERO DUP1 ISZERO PUSH2 0x1B93 JUMPI RETURNDATASIZE PUSH0 DUP1 RETURNDATACOPY RETURNDATASIZE PUSH0 REVERT JUMPDEST POP POP POP POP PUSH1 0x40 MLOAD RETURNDATASIZE PUSH1 0x1F NOT PUSH1 0x1F DUP3 ADD AND DUP3 ADD DUP1 PUSH1 0x40 MSTORE POP DUP2 ADD SWAP1 PUSH2 0x1BB7 SWAP2 SWAP1 PUSH2 0x48F5 JUMP JUMPDEST PUSH1 0xD SLOAD PUSH1 0x9 SLOAD PUSH1 0x40 MLOAD PUSH4 0xA9059CBB PUSH1 0xE0 SHL DUP2 MSTORE PUSH1 0x1 PUSH1 0x1 PUSH1 0xA0 SHL SUB SWAP2 DUP3 AND PUSH1 0x4 DUP3 ADD MSTORE PUSH1 0x24 DUP2 ADD DUP8 SWAP1 MSTORE SWAP3 SWAP4 POP PUSH0 SWAP3 SWAP2 AND SWAP1 PUSH4 0xA9059CBB SWAP1 PUSH1 0x44 ADD PUSH1 0x20 PUSH1 0x40 MLOAD DUP1 DUP4 SUB DUP2 PUSH0 DUP8 GAS CALL ISZERO DUP1 ISZERO PUSH2 0x1C0E JUMPI RETURNDATASIZE PUSH0 DUP1 RETURNDATACOPY RETURNDATASIZE PUSH0 REVERT JUMPDEST POP POP POP POP PUSH1 0x40 MLOAD RETURNDATASIZE PUSH1 0x1F NOT PUSH1 0x1F DUP3 ADD AND DUP3 ADD DUP1 PUSH1 0x40 MSTORE POP DUP2 ADD SWAP1 PUSH2 0x1C32 SWAP2 SWAP1 PUSH2 0x48F5 JUMP JUMPDEST SWAP1 POP DUP3 DUP1 ISZERO PUSH2 0x1C3E JUMPI POP DUP2 JUMPDEST DUP1 ISZERO PUSH2 0x1C47 JUMPI POP DUP1 JUMPDEST PUSH2 0x1C8A JUMPI PUSH1 0x40 MLOAD PUSH3 0x461BCD PUSH1 0xE5 SHL DUP2 MSTORE PUSH1 0x20 PUSH1 0x4 DUP3 ADD MSTORE PUSH1 0x14 PUSH1 0x24 DUP3 ADD MSTORE PUSH20 0x4661696C656420746F2073656E642066756E6473 PUSH1 0x60 SHL PUSH1 0x44 DUP3 ADD MSTORE PUSH1 0x64 ADD PUSH2 0x8FC JUMP JUMPDEST POP POP POP POP POP POP POP POP POP JUMP JUMPDEST CALLER PUSH1 0x1 PUSH1 0x1 PUSH1 0xA0 SHL SUB DUP8 AND EQ DUP1 PUSH2 0x1CCE JUMPI POP PUSH1 0x1 PUSH1 0x1 PUSH1 0xA0 SHL SUB DUP7 AND PUSH0 SWAP1 DUP2 MSTORE PUSH1 0x1 PUSH1 0x20 SWAP1 DUP2 MSTORE PUSH1 0x40 DUP1 DUP4 KECCAK256 CALLER DUP5 MSTORE SWAP1 SWAP2 MSTORE SWAP1 KECCAK256 SLOAD PUSH1 0xFF AND JUMPDEST PUSH2 0x1D0B JUMPI PUSH1 0x40 MLOAD PUSH3 0x461BCD PUSH1 0xE5 SHL DUP2 MSTORE PUSH1 0x20 PUSH1 0x4 DUP3 ADD MSTORE PUSH1 0xE PUSH1 0x24 DUP3 ADD MSTORE PUSH14 0x1393D517D055551213D492569151 PUSH1 0x92 SHL PUSH1 0x44 DUP3 ADD MSTORE PUSH1 0x64 ADD PUSH2 0x8FC JUMP JUMPDEST PUSH1 0x1 PUSH1 0x1 PUSH1 0xA0 SHL SUB DUP7 AND PUSH0 SWAP1 DUP2 MSTORE PUSH1 0x20 DUP2 DUP2 MSTORE PUSH1 0x40 DUP1 DUP4 KECCAK256 DUP8 DUP5 MSTORE SWAP1 SWAP2 MSTORE DUP2 KECCAK256 DUP1 SLOAD DUP6 SWAP3 SWAP1 PUSH2 0x1D3B SWAP1 DUP5 SWAP1 PUSH2 0x4747 JUMP JUMPDEST SWAP1 SWAP2 SSTORE POP POP PUSH1 0x1 PUSH1 0x1 PUSH1 0xA0 SHL SUB DUP6 AND PUSH0 SWAP1 DUP2 MSTORE PUSH1 0x20 DUP2 DUP2 MSTORE PUSH1 0x40 DUP1 DUP4 KECCAK256 DUP8 DUP5 MSTORE SWAP1 SWAP2 MSTORE DUP2 KECCAK256 DUP1 SLOAD DUP6 SWAP3 SWAP1 PUSH2 0x1D70 SWAP1 DUP5 SWAP1 PUSH2 0x46EE JUMP JUMPDEST SWAP1 SWAP2 SSTORE POP POP PUSH1 0x40 DUP1 MLOAD DUP6 DUP2 MSTORE PUSH1 0x20 DUP2 ADD DUP6 SWAP1 MSTORE PUSH1 0x1 PUSH1 0x1 PUSH1 0xA0 SHL SUB DUP1 DUP9 AND SWAP3 SWAP1 DUP10 AND SWAP2 CALLER SWAP2 PUSH32 0xC3D58168C5AE7397731D063D5BBF3D657854427343F4C083240F7AACAA2D0F62 SWAP2 ADD PUSH1 0x40 MLOAD DUP1 SWAP2 SUB SWAP1 LOG4 PUSH1 0x1 PUSH1 0x1 PUSH1 0xA0 SHL SUB DUP6 AND EXTCODESIZE ISZERO PUSH2 0x1E58 JUMPI PUSH1 0x40 MLOAD PUSH4 0xF23A6E61 PUSH1 0xE0 SHL DUP1 DUP3 MSTORE SWAP1 PUSH1 0x1 PUSH1 0x1 PUSH1 0xA0 SHL SUB DUP8 AND SWAP1 PUSH4 0xF23A6E61 SWAP1 PUSH2 0x1E08 SWAP1 CALLER SWAP1 DUP12 SWAP1 DUP11 SWAP1 DUP11 SWAP1 DUP11 SWAP1 DUP11 SWAP1 PUSH1 0x4 ADD PUSH2 0x4A33 JUMP JUMPDEST PUSH1 0x20 PUSH1 0x40 MLOAD DUP1 DUP4 SUB DUP2 PUSH0 DUP8 GAS CALL ISZERO DUP1 ISZERO PUSH2 0x1E24 JUMPI RETURNDATASIZE PUSH0 DUP1 RETURNDATACOPY RETURNDATASIZE PUSH0 REVERT JUMPDEST POP POP POP POP PUSH1 0x40 MLOAD RETURNDATASIZE PUSH1 0x1F NOT PUSH1 0x1F DUP3 ADD AND DUP3 ADD DUP1 PUSH1 0x40 MSTORE POP DUP2 ADD SWAP1 PUSH2 0x1E48 SWAP2 SWAP1 PUSH2 0x4837 JUMP JUMPDEST PUSH1 0x1 PUSH1 0x1 PUSH1 0xE0 SHL SUB NOT AND EQ PUSH2 0x1E65 JUMP JUMPDEST PUSH1 0x1 PUSH1 0x1 PUSH1 0xA0 SHL SUB DUP6 AND ISZERO ISZERO JUMPDEST PUSH2 0x1E81 JUMPI PUSH1 0x40 MLOAD PUSH3 0x461BCD PUSH1 0xE5 SHL DUP2 MSTORE PUSH1 0x4 ADD PUSH2 0x8FC SWAP1 PUSH2 0x4852 JUMP JUMPDEST POP POP POP POP POP POP JUMP JUMPDEST PUSH2 0x1E91 PUSH2 0x1F2C JUMP JUMPDEST PUSH1 0x1 PUSH1 0x1 PUSH1 0xA0 SHL SUB DUP2 AND PUSH2 0x1EF6 JUMPI PUSH1 0x40 MLOAD PUSH3 0x461BCD PUSH1 0xE5 SHL DUP2 MSTORE PUSH1 0x20 PUSH1 0x4 DUP3 ADD MSTORE PUSH1 0x26 PUSH1 0x24 DUP3 ADD MSTORE PUSH32 0x4F776E61626C653A206E6577206F776E657220697320746865207A65726F2061 PUSH1 0x44 DUP3 ADD MSTORE PUSH6 0x646472657373 PUSH1 0xD0 SHL PUSH1 0x64 DUP3 ADD MSTORE PUSH1 0x84 ADD PUSH2 0x8FC JUMP JUMPDEST PUSH2 0x1EFF DUP2 PUSH2 0x2032 JUMP JUMPDEST POP JUMP JUMPDEST PUSH2 0x1F0A PUSH2 0x1F2C JUMP JUMPDEST PUSH1 0x9 DUP1 SLOAD PUSH1 0x1 PUSH1 0x1 PUSH1 0xA0 SHL SUB NOT AND PUSH1 0x1 PUSH1 0x1 PUSH1 0xA0 SHL SUB SWAP3 SWAP1 SWAP3 AND SWAP2 SWAP1 SWAP2 OR SWAP1 SSTORE JUMP JUMPDEST PUSH1 0x2 SLOAD PUSH1 0x1 PUSH1 0x1 PUSH1 0xA0 SHL SUB AND CALLER EQ PUSH2 0xEC8 JUMPI PUSH1 0x40 MLOAD PUSH3 0x461BCD PUSH1 0xE5 SHL DUP2 MSTORE PUSH1 0x20 PUSH1 0x4 DUP3 ADD DUP2 SWAP1 MSTORE PUSH1 0x24 DUP3 ADD MSTORE PUSH32 0x4F776E61626C653A2063616C6C6572206973206E6F7420746865206F776E6572 PUSH1 0x44 DUP3 ADD MSTORE PUSH1 0x64 ADD PUSH2 0x8FC JUMP JUMPDEST PUSH0 PUSH8 0xDE0B6B3A7640000 DUP3 GT PUSH2 0x1F9D JUMPI POP PUSH0 SWAP2 SWAP1 POP JUMP JUMPDEST PUSH0 PUSH2 0x1FAF PUSH8 0xDE0B6B3A7640000 PUSH2 0x2247 JUMP JUMPDEST SWAP1 POP PUSH0 PUSH2 0x1FBB DUP5 PUSH2 0x2247 JUMP JUMPDEST SWAP1 POP PUSH0 PUSH2 0x1FC8 DUP3 DUP5 PUSH2 0x22AF JUMP JUMPDEST SWAP1 POP PUSH0 PUSH2 0x1FD7 PUSH3 0x187E5 PUSH2 0x2247 JUMP JUMPDEST SWAP1 POP PUSH0 PUSH2 0x1FE6 PUSH3 0x186A0 PUSH2 0x2247 JUMP JUMPDEST SWAP1 POP PUSH2 0x1FF2 DUP3 DUP3 PUSH2 0x22C0 JUMP JUMPDEST SWAP2 POP PUSH0 PUSH2 0x1FFE DUP4 PUSH2 0x257A JUMP JUMPDEST SWAP1 POP PUSH0 PUSH2 0x200B DUP3 DUP7 PUSH2 0x259C JUMP JUMPDEST SWAP1 POP PUSH0 PUSH2 0x2017 DUP3 PUSH2 0x27F9 JUMP JUMPDEST SWAP1 POP PUSH0 PUSH2 0x2023 DUP3 PUSH2 0x281F JUMP JUMPDEST SWAP12 SWAP11 POP POP POP POP POP POP POP POP POP POP POP JUMP JUMPDEST PUSH1 0x2 DUP1 SLOAD PUSH1 0x1 PUSH1 0x1 PUSH1 0xA0 SHL SUB DUP4 DUP2 AND PUSH1 0x1 PUSH1 0x1 PUSH1 0xA0 SHL SUB NOT DUP4 AND DUP2 OR SWAP1 SWAP4 SSTORE PUSH1 0x40 MLOAD SWAP2 AND SWAP2 SWAP1 DUP3 SWAP1 PUSH32 0x8BE0079C531659141344CD1FD0A4F28419497F9722A3DAAFE3B4186F6B6457E0 SWAP1 PUSH0 SWAP1 LOG3 POP POP JUMP JUMPDEST PUSH1 0x1 PUSH1 0x1 PUSH1 0xA0 SHL SUB DUP5 AND PUSH0 SWAP1 DUP2 MSTORE PUSH1 0x20 DUP2 DUP2 MSTORE PUSH1 0x40 DUP1 DUP4 KECCAK256 DUP7 DUP5 MSTORE SWAP1 SWAP2 MSTORE DUP2 KECCAK256 DUP1 SLOAD DUP5 SWAP3 SWAP1 PUSH2 0x20B3 SWAP1 DUP5 SWAP1 PUSH2 0x46EE JUMP JUMPDEST SWAP1 SWAP2 SSTORE POP POP PUSH1 0x40 DUP1 MLOAD DUP5 DUP2 MSTORE PUSH1 0x20 DUP2 ADD DUP5 SWAP1 MSTORE PUSH1 0x1 PUSH1 0x1 PUSH1 0xA0 SHL SUB DUP7 AND SWAP2 PUSH0 SWAP2 CALLER SWAP2 PUSH32 0xC3D58168C5AE7397731D063D5BBF3D657854427343F4C083240F7AACAA2D0F62 SWAP2 ADD PUSH1 0x40 MLOAD DUP1 SWAP2 SUB SWAP1 LOG4 PUSH1 0x1 PUSH1 0x1 PUSH1 0xA0 SHL SUB DUP5 AND EXTCODESIZE ISZERO PUSH2 0x2196 JUMPI PUSH1 0x40 MLOAD PUSH4 0xF23A6E61 PUSH1 0xE0 SHL DUP1 DUP3 MSTORE SWAP1 PUSH1 0x1 PUSH1 0x1 PUSH1 0xA0 SHL SUB DUP7 AND SWAP1 PUSH4 0xF23A6E61 SWAP1 PUSH2 0x2146 SWAP1 CALLER SWAP1 PUSH0 SWAP1 DUP10 SWAP1 DUP10 SWAP1 DUP10 SWAP1 PUSH1 0x4 ADD PUSH2 0x4A79 JUMP JUMPDEST PUSH1 0x20 PUSH1 0x40 MLOAD DUP1 DUP4 SUB DUP2 PUSH0 DUP8 GAS CALL ISZERO DUP1 ISZERO PUSH2 0x2162 JUMPI RETURNDATASIZE PUSH0 DUP1 RETURNDATACOPY RETURNDATASIZE PUSH0 REVERT JUMPDEST POP POP POP POP PUSH1 0x40 MLOAD RETURNDATASIZE PUSH1 0x1F NOT PUSH1 0x1F DUP3 ADD AND DUP3 ADD DUP1 PUSH1 0x40 MSTORE POP DUP2 ADD SWAP1 PUSH2 0x2186 SWAP2 SWAP1 PUSH2 0x4837 JUMP JUMPDEST PUSH1 0x1 PUSH1 0x1 PUSH1 0xE0 SHL SUB NOT AND EQ PUSH2 0x21A3 JUMP JUMPDEST PUSH1 0x1 PUSH1 0x1 PUSH1 0xA0 SHL SUB DUP5 AND ISZERO ISZERO JUMPDEST PUSH2 0x21BF JUMPI PUSH1 0x40 MLOAD PUSH3 0x461BCD PUSH1 0xE5 SHL DUP2 MSTORE PUSH1 0x4 ADD PUSH2 0x8FC SWAP1 PUSH2 0x4852 JUMP JUMPDEST POP POP POP POP JUMP JUMPDEST PUSH1 0x1 PUSH1 0x1 PUSH1 0xA0 SHL SUB DUP4 AND PUSH0 SWAP1 DUP2 MSTORE PUSH1 0x20 DUP2 DUP2 MSTORE PUSH1 0x40 DUP1 DUP4 KECCAK256 DUP6 DUP5 MSTORE SWAP1 SWAP2 MSTORE DUP2 KECCAK256 DUP1 SLOAD DUP4 SWAP3 SWAP1 PUSH2 0x21F5 SWAP1 DUP5 SWAP1 PUSH2 0x4747 JUMP JUMPDEST SWAP1 SWAP2 SSTORE POP POP PUSH1 0x40 DUP1 MLOAD DUP4 DUP2 MSTORE PUSH1 0x20 DUP2 ADD DUP4 SWAP1 MSTORE PUSH0 SWAP2 PUSH1 0x1 PUSH1 0x1 PUSH1 0xA0 SHL SUB DUP7 AND SWAP2 CALLER SWAP2 PUSH32 0xC3D58168C5AE7397731D063D5BBF3D657854427343F4C083240F7AACAA2D0F62 SWAP2 ADD PUSH1 0x40 MLOAD DUP1 SWAP2 SUB SWAP1 LOG4 POP POP POP JUMP JUMPDEST PUSH0 DUP2 PUSH0 SUB PUSH2 0x2256 JUMPI POP PUSH0 SWAP2 SWAP1 POP JUMP JUMPDEST DUP2 PUSH0 PUSH2 0x2261 DUP3 PUSH2 0x289E JUMP JUMPDEST SWAP1 POP PUSH1 0x70 DUP2 LT ISZERO PUSH2 0x227A JUMPI DUP1 PUSH1 0x70 SUB DUP3 SWAP1 SHL SWAP2 POP PUSH2 0x228D JUMP JUMPDEST PUSH1 0x70 DUP2 GT ISZERO PUSH2 0x228D JUMPI PUSH1 0x70 DUP2 SUB DUP3 SWAP1 SHR SWAP2 POP JUMPDEST PUSH2 0x3FFF ADD PUSH1 0x70 SHL PUSH1 0x1 PUSH1 0x1 PUSH1 0x70 SHL SUB SWAP2 SWAP1 SWAP2 AND OR PUSH1 0x80 SHL SWAP3 SWAP2 POP POP JUMP JUMPDEST SWAP2 SWAP1 POP JUMP JUMPDEST PUSH0 PUSH2 0xE85 DUP4 PUSH1 0x1 PUSH1 0xFF SHL DUP5 XOR PUSH2 0x2939 JUMP JUMPDEST PUSH0 PUSH2 0x7FFF PUSH1 0xF0 DUP5 DUP2 SHR DUP3 AND SWAP2 SWAP1 DUP5 SWAP1 SHR DUP2 AND SWAP1 DUP3 SWAP1 SUB PUSH2 0x2304 JUMPI DUP1 PUSH2 0x7FFF SUB PUSH2 0x22F3 JUMPI POP PUSH2 0xFFFF PUSH1 0xEF SHL SWAP2 POP PUSH2 0x7A2 SWAP1 POP JUMP JUMPDEST POP POP POP PUSH1 0x1 PUSH1 0xFF SHL DUP2 AND DUP3 XOR PUSH2 0x7A2 JUMP JUMPDEST DUP1 PUSH2 0x7FFF SUB PUSH2 0x2347 JUMPI PUSH14 0xFFFFFFFFFFFFFFFFFFFFFFFFFFFF PUSH1 0x80 SHL DUP5 AND ISZERO PUSH2 0x2336 JUMPI POP PUSH2 0xFFFF PUSH1 0xEF SHL SWAP2 POP PUSH2 0x7A2 SWAP1 POP JUMP JUMPDEST POP POP POP DUP1 DUP3 XOR PUSH1 0x1 PUSH1 0xFF SHL AND PUSH2 0x7A2 JUMP JUMPDEST PUSH1 0x1 PUSH1 0x80 SHL PUSH1 0x1 PUSH1 0xFF SHL SUB DUP5 AND PUSH0 SUB PUSH2 0x2395 JUMPI PUSH1 0x1 PUSH1 0x80 SHL PUSH1 0x1 PUSH1 0xFF SHL SUB DUP6 AND PUSH0 SUB PUSH2 0x237D JUMPI POP PUSH2 0xFFFF PUSH1 0xEF SHL SWAP2 POP PUSH2 0x7A2 SWAP1 POP JUMP JUMPDEST POP POP POP DUP1 DUP3 XOR PUSH1 0x1 PUSH1 0xFF SHL AND PUSH2 0x7FFF PUSH1 0xF0 SHL OR PUSH2 0x7A2 JUMP JUMPDEST PUSH1 0x1 PUSH1 0x1 PUSH1 0x70 SHL SUB PUSH1 0x80 DUP6 SWAP1 SHR AND PUSH0 DUP3 SWAP1 SUB PUSH2 0x23B4 JUMPI PUSH1 0x1 SWAP2 POP PUSH2 0x23BB JUMP JUMPDEST PUSH1 0x1 PUSH1 0x70 SHL OR JUMPDEST PUSH1 0x1 PUSH1 0x1 PUSH1 0x70 SHL SUB PUSH1 0x80 DUP8 SWAP1 SHR AND PUSH0 DUP5 SWAP1 SUB PUSH2 0x23FC JUMPI DUP1 ISZERO PUSH2 0x23F7 JUMPI PUSH0 PUSH2 0x23E1 DUP3 PUSH2 0x289E JUMP JUMPDEST PUSH1 0x1 SWAP6 POP PUSH1 0xE2 SUB SWAP4 DUP5 ADD PUSH1 0x71 NOT ADD SWAP4 SWAP2 SWAP1 SWAP2 SHL SWAP1 POP JUMPDEST PUSH2 0x2406 JUMP JUMPDEST PUSH1 0x1 PUSH1 0x70 SHL OR PUSH1 0x72 SHL JUMPDEST DUP2 DUP2 DUP2 PUSH2 0x2415 JUMPI PUSH2 0x2415 PUSH2 0x46BB JUMP JUMPDEST DIV SWAP1 POP DUP1 PUSH0 SUB PUSH2 0x2443 JUMPI PUSH1 0x1 PUSH1 0xFF SHL DUP8 DUP8 XOR AND PUSH2 0x2432 JUMPI PUSH0 PUSH2 0x2438 JUMP JUMPDEST PUSH1 0x1 PUSH1 0xFF SHL JUMPDEST SWAP5 POP POP POP POP POP PUSH2 0x7A2 JUMP JUMPDEST PUSH1 0x1 PUSH1 0x6C SHL DUP2 LT ISZERO PUSH2 0x2457 JUMPI PUSH2 0x2457 PUSH2 0x4AB2 JUMP JUMPDEST PUSH0 PUSH1 0x1 PUSH1 0x73 SHL DUP3 LT ISZERO PUSH2 0x2495 JUMPI PUSH1 0x1 PUSH1 0x72 SHL DUP3 LT ISZERO PUSH2 0x248A JUMPI PUSH1 0x1 PUSH1 0x71 SHL DUP3 LT ISZERO PUSH2 0x2483 JUMPI PUSH1 0x70 PUSH2 0x248D JUMP JUMPDEST PUSH1 0x71 PUSH2 0x248D JUMP JUMPDEST PUSH1 0x72 JUMPDEST PUSH1 0xFF AND PUSH2 0x249E JUMP JUMPDEST PUSH2 0x249E DUP3 PUSH2 0x289E JUMP JUMPDEST SWAP1 POP DUP4 PUSH2 0x4071 ADD DUP2 DUP7 ADD GT ISZERO PUSH2 0x24BB JUMPI PUSH2 0x7FFF SWAP5 POP PUSH0 SWAP2 POP PUSH2 0x254B JUMP JUMPDEST DUP4 DUP2 DUP7 ADD PUSH2 0x3FFC ADD LT ISZERO PUSH2 0x24D4 JUMPI PUSH0 SWAP5 POP PUSH0 SWAP2 POP PUSH2 0x254B JUMP JUMPDEST DUP4 DUP2 DUP7 ADD PUSH2 0x3F8C ADD LT ISZERO PUSH2 0x2520 JUMPI DUP4 DUP6 PUSH2 0x3FFC ADD GT ISZERO PUSH2 0x24FF JUMPI DUP4 DUP6 PUSH2 0x3FFC ADD SUB DUP3 SWAP1 SHL SWAP2 POP PUSH2 0x2518 JUMP JUMPDEST DUP4 DUP6 PUSH2 0x3FFC ADD LT ISZERO PUSH2 0x2518 JUMPI PUSH2 0x3FFC DUP6 DUP6 SUB SUB DUP3 SWAP1 SHR SWAP2 POP JUMPDEST PUSH0 SWAP5 POP PUSH2 0x254B JUMP JUMPDEST PUSH1 0x70 DUP2 GT ISZERO PUSH2 0x2533 JUMPI PUSH1 0x70 DUP2 SUB DUP3 SWAP1 SHR SWAP2 POP JUMPDEST PUSH1 0x1 PUSH1 0x1 PUSH1 0x70 SHL SUB DUP3 AND SWAP2 POP DUP4 DUP2 DUP7 ADD PUSH2 0x3F8D ADD SUB SWAP5 POP JUMPDEST DUP2 PUSH1 0x70 DUP7 SWAP1 SHL DUP9 DUP11 XOR PUSH1 0x1 PUSH1 0x7F SHL PUSH1 0x80 SHL AND PUSH1 0x80 SHR PUSH1 0x1 PUSH1 0x1 PUSH1 0x80 SHL SUB AND OR OR PUSH1 0x80 SHL SWAP6 POP POP POP POP POP POP PUSH2 0x7A2 JUMP JUMPDEST PUSH0 PUSH2 0x7A2 PUSH2 0x2587 DUP4 PUSH2 0x2CEE JUMP JUMPDEST PUSH16 0x3FFE62E42FEFA39EF35793C7673007E5 PUSH1 0x80 SHL JUMPDEST PUSH0 PUSH2 0x7FFF PUSH1 0xF0 DUP5 DUP2 SHR DUP3 AND SWAP2 SWAP1 DUP5 SWAP1 SHR DUP2 AND SWAP1 DUP3 SWAP1 SUB PUSH2 0x2639 JUMPI DUP1 PUSH2 0x7FFF SUB PUSH2 0x2616 JUMPI PUSH1 0x1 PUSH1 0x1 PUSH1 0x80 SHL SUB NOT DUP1 DUP6 AND SWAP1 DUP7 AND SUB PUSH2 0x25E4 JUMPI POP POP POP PUSH1 0x1 PUSH1 0xFF SHL DUP2 AND DUP3 XOR PUSH2 0x7A2 JUMP JUMPDEST PUSH1 0x1 PUSH1 0x1 PUSH1 0x80 SHL SUB NOT DUP6 DUP6 XOR AND PUSH1 0x1 PUSH1 0xFF SHL SUB PUSH2 0x2606 JUMPI POP POP POP DUP2 DUP2 OR PUSH2 0x7A2 JUMP JUMPDEST POP PUSH2 0xFFFF PUSH1 0xEF SHL SWAP2 POP PUSH2 0x7A2 SWAP1 POP JUMP JUMPDEST PUSH1 0x1 PUSH1 0x80 SHL PUSH1 0x1 PUSH1 0xFF SHL SUB DUP5 AND PUSH0 SUB PUSH2 0x22F3 JUMPI POP PUSH2 0xFFFF PUSH1 0xEF SHL SWAP2 POP PUSH2 0x7A2 SWAP1 POP JUMP JUMPDEST DUP1 PUSH2 0x7FFF SUB PUSH2 0x2676 JUMPI PUSH1 0x1 PUSH1 0x80 SHL PUSH1 0x1 PUSH1 0xFF SHL SUB DUP6 AND PUSH0 SUB PUSH2 0x2665 JUMPI POP PUSH2 0xFFFF PUSH1 0xEF SHL SWAP2 POP PUSH2 0x7A2 SWAP1 POP JUMP JUMPDEST POP POP POP PUSH1 0x1 PUSH1 0xFF SHL DUP3 AND DUP2 XOR PUSH2 0x7A2 JUMP JUMPDEST PUSH1 0x1 PUSH1 0x1 PUSH1 0x70 SHL SUB PUSH1 0x80 DUP7 SWAP1 SHR AND PUSH0 DUP4 SWAP1 SUB PUSH2 0x2695 JUMPI PUSH1 0x1 SWAP3 POP PUSH2 0x269C JUMP JUMPDEST PUSH1 0x1 PUSH1 0x70 SHL OR JUMPDEST PUSH1 0x1 PUSH1 0x1 PUSH1 0x70 SHL SUB PUSH1 0x80 DUP7 SWAP1 SHR AND PUSH0 DUP4 SWAP1 SUB PUSH2 0x26BB JUMPI PUSH1 0x1 SWAP3 POP PUSH2 0x26C2 JUMP JUMPDEST PUSH1 0x1 PUSH1 0x70 SHL OR JUMPDEST DUP1 DUP3 MUL SWAP2 POP DUP2 PUSH0 SUB PUSH2 0x26E1 JUMPI PUSH1 0x1 PUSH1 0xFF SHL DUP8 DUP8 XOR AND PUSH2 0x2432 JUMPI PUSH0 PUSH2 0x2438 JUMP JUMPDEST SWAP3 DUP3 ADD SWAP3 PUSH0 PUSH1 0x1 PUSH1 0xE1 SHL DUP4 LT ISZERO PUSH2 0x2713 JUMPI PUSH1 0x1 PUSH1 0xE0 SHL DUP4 LT ISZERO PUSH2 0x270C JUMPI PUSH2 0x2707 DUP4 PUSH2 0x289E JUMP JUMPDEST PUSH2 0x2716 JUMP JUMPDEST PUSH1 0xE0 PUSH2 0x2716 JUMP JUMPDEST PUSH1 0xE1 JUMPDEST SWAP1 POP PUSH2 0x4070 DUP2 DUP7 ADD LT ISZERO PUSH2 0x272F JUMPI PUSH0 SWAP5 POP PUSH0 SWAP3 POP PUSH2 0x27CA JUMP JUMPDEST PUSH2 0x40E0 DUP2 DUP7 ADD LT ISZERO PUSH2 0x2771 JUMPI PUSH2 0x4070 DUP6 LT ISZERO PUSH2 0x2754 JUMPI DUP5 PUSH2 0x4070 SUB DUP4 SWAP1 SHR SWAP3 POP PUSH2 0x2769 JUMP JUMPDEST PUSH2 0x4070 DUP6 GT ISZERO PUSH2 0x2769 JUMPI PUSH2 0x4070 DUP6 SUB DUP4 SWAP1 SHL SWAP3 POP JUMPDEST PUSH0 SWAP5 POP PUSH2 0x27CA JUMP JUMPDEST PUSH2 0xC0DD DUP2 DUP7 ADD GT ISZERO PUSH2 0x278A JUMPI PUSH2 0x7FFF SWAP5 POP PUSH0 SWAP3 POP PUSH2 0x27CA JUMP JUMPDEST PUSH1 0x70 DUP2 GT ISZERO PUSH2 0x27A1 JUMPI PUSH1 0x70 DUP2 SUB DUP4 SWAP1 SHR SWAP3 POP PUSH2 0x27B4 JUMP JUMPDEST PUSH1 0x70 DUP2 LT ISZERO PUSH2 0x27B4 JUMPI DUP1 PUSH1 0x70 SUB DUP4 SWAP1 SHL SWAP3 POP JUMPDEST PUSH1 0x1 PUSH1 0x1 PUSH1 0x70 SHL SUB DUP4 AND SWAP3 POP PUSH2 0x40DF DUP2 DUP7 ADD SUB SWAP5 POP JUMPDEST DUP3 PUSH1 0x70 DUP7 SWAP1 SHL DUP9 DUP11 XOR PUSH1 0x1 PUSH1 0x7F SHL PUSH1 0x80 SHL AND PUSH1 0x80 SHR PUSH1 0x1 PUSH1 0x1 PUSH1 0x80 SHL SUB AND OR OR PUSH1 0x80 SHL SWAP6 POP POP POP POP POP POP PUSH2 0x7A2 JUMP JUMPDEST PUSH0 PUSH2 0x7A2 PUSH2 0x281A DUP4 PUSH16 0x1FFFB8AA3B295C17F0BBBE87FED0691D PUSH1 0x81 SHL PUSH2 0x259C JUMP JUMPDEST PUSH2 0x2EA0 JUMP JUMPDEST PUSH0 PUSH2 0x7FFF PUSH1 0xF0 DUP4 SWAP1 SHR AND PUSH2 0x3FFF DUP2 LT ISZERO PUSH2 0x283B JUMPI POP PUSH0 SWAP3 SWAP2 POP POP JUMP JUMPDEST PUSH1 0x1 PUSH1 0x7F SHL PUSH1 0x80 DUP5 SWAP1 SHR LT PUSH2 0x284E JUMPI PUSH0 DUP1 REVERT JUMPDEST PUSH2 0x40FE DUP2 GT ISZERO PUSH2 0x285C JUMPI PUSH0 DUP1 REVERT JUMPDEST PUSH1 0x1 PUSH1 0x70 SHL PUSH1 0x1 PUSH1 0x1 PUSH1 0x70 SHL SUB PUSH1 0x80 DUP6 SWAP1 SHR AND OR PUSH2 0x406F DUP3 LT ISZERO PUSH2 0x2886 JUMPI PUSH2 0x406F DUP3 SWAP1 SUB SHR PUSH2 0xE85 JUMP JUMPDEST PUSH2 0x406F DUP3 GT ISZERO PUSH2 0xE85 JUMPI PUSH2 0x406E NOT DUP3 ADD SHL SWAP4 SWAP3 POP POP POP JUMP JUMPDEST PUSH0 DUP1 DUP3 GT PUSH2 0x28AA JUMPI PUSH0 DUP1 REVERT JUMPDEST PUSH0 PUSH1 0x1 PUSH1 0x80 SHL DUP4 LT PUSH2 0x28BE JUMPI PUSH1 0x80 SWAP3 DUP4 SHR SWAP3 ADD JUMPDEST PUSH1 0x1 PUSH1 0x40 SHL DUP4 LT PUSH2 0x28D1 JUMPI PUSH1 0x40 SWAP3 DUP4 SHR SWAP3 ADD JUMPDEST PUSH5 0x100000000 DUP4 LT PUSH2 0x28E5 JUMPI PUSH1 0x20 SWAP3 DUP4 SHR SWAP3 ADD JUMPDEST PUSH3 0x10000 DUP4 LT PUSH2 0x28F7 JUMPI PUSH1 0x10 SWAP3 DUP4 SHR SWAP3 ADD JUMPDEST PUSH2 0x100 DUP4 LT PUSH2 0x2908 JUMPI PUSH1 0x8 SWAP3 DUP4 SHR SWAP3 ADD JUMPDEST PUSH1 0x10 DUP4 LT PUSH2 0x2918 JUMPI PUSH1 0x4 SWAP3 DUP4 SHR SWAP3 ADD JUMPDEST PUSH1 0x4 DUP4 LT PUSH2 0x2928 JUMPI PUSH1 0x2 SWAP3 DUP4 SHR SWAP3 ADD JUMPDEST PUSH1 0x2 DUP4 LT PUSH2 0x7A2 JUMPI PUSH1 0x1 ADD SWAP3 SWAP2 POP POP JUMP JUMPDEST PUSH0 PUSH2 0x7FFF PUSH1 0xF0 DUP5 DUP2 SHR DUP3 AND SWAP2 SWAP1 DUP5 SWAP1 SHR DUP2 AND SWAP1 DUP3 SWAP1 SUB PUSH2 0x2984 JUMPI DUP1 PUSH2 0x7FFF SUB PUSH2 0x297A JUMPI PUSH1 0x1 PUSH1 0x1 PUSH1 0x80 SHL SUB NOT DUP1 DUP6 AND SWAP1 DUP7 AND SUB PUSH2 0x2606 JUMPI DUP5 SWAP3 POP POP POP PUSH2 0x7A2 JUMP JUMPDEST DUP5 SWAP3 POP POP POP PUSH2 0x7A2 JUMP JUMPDEST DUP1 PUSH2 0x7FFF SUB PUSH2 0x2997 JUMPI DUP4 SWAP3 POP POP POP PUSH2 0x7A2 JUMP JUMPDEST PUSH1 0x1 PUSH1 0x7F SHL PUSH1 0x80 DUP7 SWAP1 SHR SWAP1 DUP2 LT ISZERO SWAP1 PUSH1 0x1 PUSH1 0x1 PUSH1 0x70 SHL SUB AND PUSH0 DUP5 SWAP1 SUB PUSH2 0x29C0 JUMPI PUSH1 0x1 SWAP4 POP PUSH2 0x29C7 JUMP JUMPDEST PUSH1 0x1 PUSH1 0x70 SHL OR JUMPDEST PUSH1 0x1 PUSH1 0x7F SHL PUSH1 0x80 DUP8 SWAP1 SHR SWAP1 DUP2 LT ISZERO SWAP1 PUSH1 0x1 PUSH1 0x1 PUSH1 0x70 SHL SUB AND PUSH0 DUP6 SWAP1 SUB PUSH2 0x29F0 JUMPI PUSH1 0x1 SWAP5 POP PUSH2 0x29F7 JUMP JUMPDEST PUSH1 0x1 PUSH1 0x70 SHL OR JUMPDEST DUP3 PUSH0 SUB PUSH2 0x2A28 JUMPI PUSH1 0x1 PUSH1 0x1 PUSH1 0x80 SHL SUB NOT DUP9 AND PUSH1 0x1 PUSH1 0xFF SHL EQ PUSH2 0x2A19 JUMPI DUP8 PUSH2 0x2A1B JUMP JUMPDEST PUSH0 JUMPDEST SWAP7 POP POP POP POP POP POP POP PUSH2 0x7A2 JUMP JUMPDEST DUP1 PUSH0 SUB PUSH2 0x2A4A JUMPI PUSH1 0x1 PUSH1 0x1 PUSH1 0x80 SHL SUB NOT DUP10 AND PUSH1 0x1 PUSH1 0xFF SHL EQ PUSH2 0x2A19 JUMPI DUP9 PUSH2 0x2A1B JUMP JUMPDEST DUP5 DUP7 SUB DUP3 ISZERO ISZERO DUP6 ISZERO ISZERO SUB PUSH2 0x2B4E JUMPI PUSH1 0x70 DUP2 SGT ISZERO PUSH2 0x2A70 JUMPI DUP10 SWAP8 POP POP POP POP POP POP POP POP PUSH2 0x7A2 JUMP JUMPDEST PUSH0 DUP2 SGT ISZERO PUSH2 0x2A81 JUMPI SWAP1 DUP2 SHR SWAP1 PUSH2 0x2AAE JUMP JUMPDEST PUSH1 0x6F NOT DUP2 SLT ISZERO PUSH2 0x2A9A JUMPI DUP9 SWAP8 POP POP POP POP POP POP POP POP PUSH2 0x7A2 JUMP JUMPDEST PUSH0 DUP2 SLT ISZERO PUSH2 0x2AAE JUMPI DUP1 PUSH0 SUB DUP5 SWAP1 SHR SWAP4 POP DUP6 SWAP7 POP JUMPDEST SWAP3 DUP2 ADD SWAP3 PUSH1 0x1 PUSH1 0x71 SHL DUP5 LT PUSH2 0x2AC9 JUMPI PUSH1 0x1 SWAP7 DUP8 ADD SWAP7 SWAP4 SWAP1 SWAP4 SHR SWAP3 JUMPDEST DUP7 PUSH2 0x7FFF SUB PUSH2 0x2AFA JUMPI DUP5 PUSH2 0x2AE2 JUMPI PUSH2 0x7FFF PUSH1 0xF0 SHL PUSH2 0x2AEC JUMP JUMPDEST PUSH1 0x1 PUSH1 0x1 PUSH1 0xF0 SHL SUB NOT JUMPDEST SWAP8 POP POP POP POP POP POP POP POP PUSH2 0x7A2 JUMP JUMPDEST PUSH1 0x1 PUSH1 0x70 SHL DUP5 LT ISZERO PUSH2 0x2B0E JUMPI PUSH0 SWAP7 POP PUSH2 0x2B1B JUMP JUMPDEST PUSH1 0x1 PUSH1 0x1 PUSH1 0x70 SHL SUB DUP5 AND SWAP4 POP JUMPDEST DUP4 PUSH1 0x70 DUP9 SWAP1 SHL DUP7 PUSH2 0x2B2C JUMPI PUSH0 PUSH2 0x2B32 JUMP JUMPDEST PUSH1 0x1 PUSH1 0x7F SHL JUMPDEST PUSH1 0x1 PUSH1 0x1 PUSH1 0x80 SHL SUB AND OR OR PUSH1 0x80 SHL SWAP8 POP POP POP POP POP POP POP POP PUSH2 0x7A2 JUMP JUMPDEST PUSH0 DUP2 SGT ISZERO PUSH2 0x2B68 JUMPI PUSH1 0x1 DUP5 SWAP1 SHL SWAP4 POP PUSH1 0x1 DUP8 SUB SWAP7 POP PUSH2 0x2B7E JUMP JUMPDEST PUSH0 DUP2 SLT ISZERO PUSH2 0x2B7E JUMPI PUSH1 0x1 DUP3 SWAP1 SHL SWAP2 POP PUSH1 0x1 DUP7 SUB SWAP7 POP JUMPDEST PUSH1 0x70 DUP2 SGT ISZERO PUSH2 0x2B90 JUMPI PUSH1 0x1 SWAP2 POP PUSH2 0x2BDB JUMP JUMPDEST PUSH1 0x1 DUP2 SGT ISZERO PUSH2 0x2BAD JUMPI PUSH1 0x1 DUP2 SUB PUSH1 0x1 DUP4 SUB SWAP1 SHR PUSH1 0x1 ADD SWAP2 POP PUSH2 0x2BDB JUMP JUMPDEST PUSH1 0x6F NOT DUP2 SLT ISZERO PUSH2 0x2BC0 JUMPI PUSH1 0x1 SWAP4 POP PUSH2 0x2BDB JUMP JUMPDEST PUSH0 NOT DUP2 SLT ISZERO PUSH2 0x2BDB JUMPI PUSH1 0x1 DUP2 PUSH0 SUB SUB PUSH1 0x1 DUP6 SUB SWAP1 SHR PUSH1 0x1 ADD SWAP4 POP JUMPDEST DUP2 DUP5 LT PUSH2 0x2BEC JUMPI DUP2 DUP5 SUB SWAP4 POP PUSH2 0x2BF5 JUMP JUMPDEST DUP4 DUP3 SUB SWAP4 POP DUP3 SWAP5 POP JUMPDEST DUP4 PUSH0 SUB PUSH2 0x2C0C JUMPI POP PUSH0 SWAP7 POP PUSH2 0x7A2 SWAP6 POP POP POP POP POP POP JUMP JUMPDEST PUSH0 PUSH2 0x2C16 DUP6 PUSH2 0x289E JUMP JUMPDEST SWAP1 POP DUP1 PUSH1 0x71 SUB PUSH2 0x2C3B JUMPI PUSH1 0x1 DUP6 SWAP1 SHR PUSH1 0x1 PUSH1 0x1 PUSH1 0x70 SHL SUB AND SWAP5 POP PUSH1 0x1 DUP9 ADD SWAP8 POP PUSH2 0x2C88 JUMP JUMPDEST PUSH1 0x70 DUP2 LT ISZERO PUSH2 0x2C7B JUMPI PUSH1 0x70 DUP2 SWAP1 SUB DUP1 DUP10 GT ISZERO PUSH2 0x2C6A JUMPI DUP1 DUP7 SWAP1 SHL PUSH1 0x1 PUSH1 0x1 PUSH1 0x70 SHL SUB AND SWAP6 POP DUP1 DUP10 SUB SWAP9 POP PUSH2 0x2C75 JUMP JUMPDEST PUSH0 SWAP9 PUSH0 NOT ADD SWAP6 SWAP1 SWAP6 SHL SWAP5 JUMPDEST POP PUSH2 0x2C88 JUMP JUMPDEST PUSH1 0x1 PUSH1 0x1 PUSH1 0x70 SHL SUB DUP6 AND SWAP5 POP JUMPDEST DUP8 PUSH2 0x7FFF SUB PUSH2 0x2CBA JUMPI DUP6 PUSH2 0x2CA1 JUMPI PUSH2 0x7FFF PUSH1 0xF0 SHL PUSH2 0x2CAB JUMP JUMPDEST PUSH1 0x1 PUSH1 0x1 PUSH1 0xF0 SHL SUB NOT JUMPDEST SWAP9 POP POP POP POP POP POP POP POP POP PUSH2 0x7A2 JUMP JUMPDEST DUP5 PUSH1 0x70 DUP10 SWAP1 SHL DUP8 PUSH2 0x2CCB JUMPI PUSH0 PUSH2 0x2CD1 JUMP JUMPDEST PUSH1 0x1 PUSH1 0x7F SHL JUMPDEST PUSH1 0x1 PUSH1 0x1 PUSH1 0x80 SHL SUB AND OR OR PUSH1 0x80 SHL SWAP9 POP POP POP POP POP POP POP POP POP PUSH2 0x7A2 JUMP JUMPDEST PUSH0 PUSH1 0x1 PUSH1 0x7F SHL PUSH1 0x80 DUP4 SWAP1 SHR GT ISZERO PUSH2 0x2D0B JUMPI POP PUSH2 0xFFFF PUSH1 0xEF SHL SWAP2 SWAP1 POP JUMP JUMPDEST PUSH1 0x1 PUSH1 0x1 PUSH1 0x80 SHL SUB NOT DUP3 AND PUSH2 0x3FFF PUSH1 0xF0 SHL SUB PUSH2 0x2D28 JUMPI POP PUSH0 SWAP2 SWAP1 POP JUMP JUMPDEST PUSH2 0x7FFF PUSH1 0xF0 DUP4 SWAP1 SHR DUP2 AND SWAP1 DUP2 SWAP1 SUB PUSH2 0x2D41 JUMPI POP SWAP1 SWAP2 SWAP1 POP JUMP JUMPDEST PUSH1 0x1 PUSH1 0x1 PUSH1 0x70 SHL SUB PUSH1 0x80 DUP5 SWAP1 SHR AND PUSH0 DUP3 SWAP1 SUB PUSH2 0x2D60 JUMPI PUSH1 0x1 SWAP2 POP PUSH2 0x2D67 JUMP JUMPDEST PUSH1 0x1 PUSH1 0x70 SHL OR JUMPDEST DUP1 PUSH0 SUB PUSH2 0x2D7F JUMPI POP PUSH1 0x1 PUSH1 0x1 PUSH1 0xF0 SHL SUB NOT SWAP4 SWAP3 POP POP POP JUMP JUMPDEST PUSH0 PUSH2 0x406F DUP2 PUSH2 0x3FFF DUP6 LT PUSH2 0x2DA3 JUMPI POP PUSH1 0xF SWAP3 SWAP1 SWAP3 SHL SWAP2 PUSH0 SWAP2 POP PUSH2 0x3FFE NOT DUP5 ADD PUSH2 0x2DE1 JUMP JUMPDEST PUSH1 0x1 SWAP3 POP PUSH1 0x1 PUSH1 0x70 SHL DUP5 LT PUSH2 0x2DC5 JUMPI DUP5 PUSH2 0x3FFE SUB SWAP1 POP PUSH1 0xF DUP5 SWAP1 SHL SWAP4 POP PUSH2 0x2DE1 JUMP JUMPDEST PUSH0 PUSH2 0x2DCF DUP6 PUSH2 0x289E JUMP JUMPDEST PUSH1 0x7F DUP2 SWAP1 SUB SWAP6 SWAP1 SWAP6 SHL SWAP5 PUSH2 0x406D SUB SWAP2 POP POP JUMPDEST DUP4 PUSH1 0x1 PUSH1 0x7F SHL SUB PUSH2 0x2E16 JUMPI DUP3 ISZERO PUSH2 0x2DF6 JUMPI PUSH1 0x1 ADD JUMPDEST PUSH0 PUSH2 0x2E00 DUP3 PUSH2 0x289E JUMP JUMPDEST PUSH1 0x70 SUB SWAP1 POP DUP1 DUP3 SWAP1 SHL SWAP2 POP DUP1 DUP4 SUB SWAP3 POP POP PUSH2 0x2E61 JUMP JUMPDEST PUSH0 DUP4 PUSH2 0x2E22 JUMPI PUSH0 PUSH2 0x2E25 JUMP JUMPDEST PUSH1 0x1 JUMPDEST PUSH1 0xFF AND SWAP1 POP JUMPDEST PUSH1 0x1 PUSH1 0x70 SHL DUP3 LT ISZERO PUSH2 0x2E5F JUMPI SWAP4 DUP1 MUL PUSH1 0xFF DUP2 SWAP1 SHR PUSH1 0x7F DUP2 ADD SWAP2 SWAP1 SWAP2 SHR SWAP5 PUSH0 NOT SWAP4 SWAP1 SWAP4 ADD SWAP3 PUSH1 0x1 SWAP3 SWAP1 SWAP3 SHL SWAP1 DUP3 XOR ADD SWAP1 PUSH2 0x2E2B JUMP JUMPDEST POP JUMPDEST DUP1 PUSH1 0x1 PUSH1 0x1 PUSH1 0x70 SHL SUB AND PUSH1 0x70 DUP4 SWAP1 SHL DUP5 PUSH2 0x2E7B JUMPI PUSH0 PUSH2 0x2E81 JUMP JUMPDEST PUSH1 0x1 PUSH1 0x7F SHL JUMPDEST PUSH1 0x1 PUSH1 0x1 PUSH1 0x80 SHL SUB AND OR OR PUSH1 0x80 SHL SWAP8 SWAP7 POP POP POP POP POP POP POP JUMP JUMPDEST POP SWAP2 SWAP1 POP JUMP JUMPDEST PUSH0 PUSH1 0x1 PUSH1 0x7F SHL PUSH1 0x80 DUP4 SWAP1 SHR SWAP1 DUP2 GT SWAP1 PUSH2 0x7FFF PUSH1 0xF0 DUP6 SWAP1 SHR DUP2 AND SWAP2 PUSH1 0x1 PUSH1 0x1 PUSH1 0x70 SHL SUB AND SWAP1 DUP3 EQ DUP1 ISZERO PUSH2 0x2ED1 JUMPI POP DUP1 ISZERO ISZERO JUMPDEST ISZERO PUSH2 0x2EE5 JUMPI POP PUSH2 0xFFFF PUSH1 0xEF SHL SWAP5 SWAP4 POP POP POP POP JUMP JUMPDEST PUSH2 0x400D DUP3 GT ISZERO PUSH2 0x2F0A JUMPI DUP3 PUSH2 0x2EFF JUMPI PUSH2 0x7FFF PUSH1 0xF0 SHL PUSH2 0x2F01 JUMP JUMPDEST PUSH0 JUMPDEST SWAP6 SWAP5 POP POP POP POP POP JUMP JUMPDEST PUSH2 0x3F7F DUP3 LT ISZERO PUSH2 0x2F23 JUMPI POP PUSH2 0x3FFF PUSH1 0xF0 SHL SWAP5 SWAP4 POP POP POP POP JUMP JUMPDEST DUP2 PUSH0 SUB PUSH2 0x2F33 JUMPI PUSH1 0x1 SWAP2 POP PUSH2 0x2F3A JUMP JUMPDEST PUSH1 0x1 PUSH1 0x70 SHL OR JUMPDEST PUSH2 0x3FEF DUP3 GT ISZERO PUSH2 0x2F50 JUMPI PUSH2 0x3FEE NOT DUP3 ADD SHL PUSH2 0x2F62 JUMP JUMPDEST PUSH2 0x3FEF DUP3 LT ISZERO PUSH2 0x2F62 JUMPI PUSH2 0x3FEF DUP3 SWAP1 SUB SHR JUMPDEST DUP3 DUP1 ISZERO PUSH2 0x2F73 JUMPI POP PUSH2 0x2037 PUSH1 0x81 SHL DUP2 GT JUMPDEST ISZERO PUSH2 0x2F82 JUMPI POP PUSH0 SWAP5 SWAP4 POP POP POP POP JUMP JUMPDEST DUP3 ISZERO DUP1 ISZERO PUSH2 0x2FA1 JUMPI POP PUSH18 0x3FFFFFFFFFFFFFFFFFFFFFFFFFFFFFFFFFFF DUP2 GT JUMPDEST ISZERO PUSH2 0x2FB5 JUMPI POP PUSH2 0x7FFF PUSH1 0xF0 SHL SWAP5 SWAP4 POP POP POP POP JUMP JUMPDEST PUSH1 0x1 PUSH1 0x1 PUSH1 0x80 SHL SUB DUP2 AND SWAP1 PUSH1 0x80 SHR DUP4 DUP1 ISZERO PUSH2 0x2FCF JUMPI POP DUP2 ISZERO ISZERO JUMPDEST ISZERO PUSH2 0x2FDB JUMPI SWAP1 NOT SWAP1 PUSH1 0x1 ADD JUMPDEST PUSH1 0x1 PUSH1 0x7F SHL DUP3 DUP2 AND ISZERO PUSH2 0x2FFF JUMPI PUSH17 0x16A09E667F3BCC908B2FB1366EA957D3E MUL PUSH1 0x80 SHR JUMPDEST PUSH1 0x1 PUSH1 0x7E SHL DUP4 AND ISZERO PUSH2 0x3022 JUMPI PUSH17 0x1306FE0A31B7152DE8D5A46305C85EDEC MUL PUSH1 0x80 SHR JUMPDEST PUSH1 0x1 PUSH1 0x7D SHL DUP4 AND ISZERO PUSH2 0x3045 JUMPI PUSH17 0x1172B83C7D517ADCDF7C8C50EB14A791F MUL PUSH1 0x80 SHR JUMPDEST PUSH1 0x1 PUSH1 0x7C SHL DUP4 AND ISZERO PUSH2 0x3068 JUMPI PUSH17 0x10B5586CF9890F6298B92B71842A98363 MUL PUSH1 0x80 SHR JUMPDEST PUSH1 0x1 PUSH1 0x7B SHL DUP4 AND ISZERO PUSH2 0x308B JUMPI PUSH17 0x1059B0D31585743AE7C548EB68CA417FD MUL PUSH1 0x80 SHR JUMPDEST PUSH1 0x1 PUSH1 0x7A SHL DUP4 AND ISZERO PUSH2 0x30AE JUMPI PUSH17 0x102C9A3E778060EE6F7CACA4F7A29BDE8 MUL PUSH1 0x80 SHR JUMPDEST PUSH1 0x1 PUSH1 0x79 SHL DUP4 AND ISZERO PUSH2 0x30D1 JUMPI PUSH17 0x10163DA9FB33356D84A66AE336DCDFA3F MUL PUSH1 0x80 SHR JUMPDEST PUSH1 0x1 PUSH1 0x78 SHL DUP4 AND ISZERO PUSH2 0x30F4 JUMPI PUSH17 0x100B1AFA5ABCBED6129AB13EC11DC9543 MUL PUSH1 0x80 SHR JUMPDEST PUSH1 0x1 PUSH1 0x77 SHL DUP4 AND ISZERO PUSH2 0x3117 JUMPI PUSH17 0x10058C86DA1C09EA1FF19D294CF2F679B MUL PUSH1 0x80 SHR JUMPDEST PUSH1 0x1 PUSH1 0x76 SHL DUP4 AND ISZERO PUSH2 0x313A JUMPI PUSH17 0x1002C605E2E8CEC506D21BFC89A23A00F MUL PUSH1 0x80 SHR JUMPDEST PUSH1 0x1 PUSH1 0x75 SHL DUP4 AND ISZERO PUSH2 0x315D JUMPI PUSH17 0x100162F3904051FA128BCA9C55C31E5DF MUL PUSH1 0x80 SHR JUMPDEST PUSH1 0x1 PUSH1 0x74 SHL DUP4 AND ISZERO PUSH2 0x3180 JUMPI PUSH17 0x1000B175EFFDC76BA38E31671CA939725 MUL PUSH1 0x80 SHR JUMPDEST PUSH1 0x1 PUSH1 0x73 SHL DUP4 AND ISZERO PUSH2 0x31A3 JUMPI PUSH17 0x100058BA01FB9F96D6CACD4B180917C3D MUL PUSH1 0x80 SHR JUMPDEST PUSH1 0x1 PUSH1 0x72 SHL DUP4 AND ISZERO PUSH2 0x31C6 JUMPI PUSH17 0x10002C5CC37DA9491D0985C348C68E7B3 MUL PUSH1 0x80 SHR JUMPDEST PUSH1 0x1 PUSH1 0x71 SHL DUP4 AND ISZERO PUSH2 0x31E9 JUMPI PUSH17 0x1000162E525EE054754457D5995292026 MUL PUSH1 0x80 SHR JUMPDEST PUSH1 0x1 PUSH1 0x70 SHL DUP4 AND ISZERO PUSH2 0x320C JUMPI PUSH17 0x10000B17255775C040618BF4A4ADE83FC MUL PUSH1 0x80 SHR JUMPDEST PUSH1 0x1 PUSH1 0x6F SHL DUP4 AND ISZERO PUSH2 0x322F JUMPI PUSH17 0x1000058B91B5BC9AE2EED81E9B7D4CFAB MUL PUSH1 0x80 SHR JUMPDEST PUSH1 0x1 PUSH1 0x6E SHL DUP4 AND ISZERO PUSH2 0x3252 JUMPI PUSH17 0x100002C5C89D5EC6CA4D7C8ACC017B7C9 MUL PUSH1 0x80 SHR JUMPDEST PUSH1 0x1 PUSH1 0x6D SHL DUP4 AND ISZERO PUSH2 0x3275 JUMPI PUSH17 0x10000162E43F4F831060E02D839A9D16D MUL PUSH1 0x80 SHR JUMPDEST PUSH1 0x1 PUSH1 0x6C SHL DUP4 AND ISZERO PUSH2 0x3298 JUMPI PUSH17 0x100000B1721BCFC99D9F890EA06911763 MUL PUSH1 0x80 SHR JUMPDEST PUSH1 0x1 PUSH1 0x6B SHL DUP4 AND ISZERO PUSH2 0x32BB JUMPI PUSH17 0x10000058B90CF1E6D97F9CA14DBCC1628 MUL PUSH1 0x80 SHR JUMPDEST PUSH1 0x1 PUSH1 0x6A SHL DUP4 AND ISZERO PUSH2 0x32DE JUMPI PUSH17 0x1000002C5C863B73F016468F6BAC5CA2B MUL PUSH1 0x80 SHR JUMPDEST PUSH1 0x1 PUSH1 0x69 SHL DUP4 AND ISZERO PUSH2 0x3301 JUMPI PUSH17 0x100000162E430E5A18F6119E3C02282A5 MUL PUSH1 0x80 SHR JUMPDEST PUSH1 0x1 PUSH1 0x68 SHL DUP4 AND ISZERO PUSH2 0x3324 JUMPI PUSH17 0x1000000B1721835514B86E6D96EFD1BFE MUL PUSH1 0x80 SHR JUMPDEST PUSH1 0x1 PUSH1 0x67 SHL DUP4 AND ISZERO PUSH2 0x3347 JUMPI PUSH17 0x100000058B90C0B48C6BE5DF846C5B2EF MUL PUSH1 0x80 SHR JUMPDEST PUSH1 0x1 PUSH1 0x66 SHL DUP4 AND ISZERO PUSH2 0x336A JUMPI PUSH17 0x10000002C5C8601CC6B9E94213C72737A MUL PUSH1 0x80 SHR JUMPDEST PUSH1 0x1 PUSH1 0x65 SHL DUP4 AND ISZERO PUSH2 0x338D JUMPI PUSH17 0x1000000162E42FFF037DF38AA2B219F06 MUL PUSH1 0x80 SHR JUMPDEST PUSH1 0x1 PUSH1 0x64 SHL DUP4 AND ISZERO PUSH2 0x33B0 JUMPI PUSH17 0x10000000B17217FBA9C739AA5819F44F9 MUL PUSH1 0x80 SHR JUMPDEST PUSH1 0x1 PUSH1 0x63 SHL DUP4 AND ISZERO PUSH2 0x33D3 JUMPI PUSH17 0x1000000058B90BFCDEE5ACD3C1CEDC823 MUL PUSH1 0x80 SHR JUMPDEST PUSH1 0x1 PUSH1 0x62 SHL DUP4 AND ISZERO PUSH2 0x33F6 JUMPI PUSH17 0x100000002C5C85FE31F35A6A30DA1BE50 MUL PUSH1 0x80 SHR JUMPDEST PUSH1 0x1 PUSH1 0x61 SHL DUP4 AND ISZERO PUSH2 0x3419 JUMPI PUSH17 0x10000000162E42FF0999CE3541B9FFFCF MUL PUSH1 0x80 SHR JUMPDEST PUSH1 0x1 PUSH1 0x60 SHL DUP4 AND ISZERO PUSH2 0x343C JUMPI PUSH17 0x100000000B17217F80F4EF5AADDA45554 MUL PUSH1 0x80 SHR JUMPDEST PUSH1 0x1 PUSH1 0x5F SHL DUP4 AND ISZERO PUSH2 0x345F JUMPI PUSH17 0x10000000058B90BFBF8479BD5A81B51AD MUL PUSH1 0x80 SHR JUMPDEST PUSH1 0x1 PUSH1 0x5E SHL DUP4 AND ISZERO PUSH2 0x3482 JUMPI PUSH17 0x1000000002C5C85FDF84BD62AE30A74CC MUL PUSH1 0x80 SHR JUMPDEST PUSH1 0x1 PUSH1 0x5D SHL DUP4 AND ISZERO PUSH2 0x34A5 JUMPI PUSH17 0x100000000162E42FEFB2FED257559BDAA MUL PUSH1 0x80 SHR JUMPDEST PUSH1 0x1 PUSH1 0x5C SHL DUP4 AND ISZERO PUSH2 0x34C8 JUMPI PUSH17 0x1000000000B17217F7D5A7716BBA4A9AE MUL PUSH1 0x80 SHR JUMPDEST PUSH1 0x1 PUSH1 0x5B SHL DUP4 AND ISZERO PUSH2 0x34EB JUMPI PUSH17 0x100000000058B90BFBE9DDBAC5E109CCE MUL PUSH1 0x80 SHR JUMPDEST PUSH1 0x1 PUSH1 0x5A SHL DUP4 AND ISZERO PUSH2 0x350E JUMPI PUSH17 0x10000000002C5C85FDF4B15DE6F17EB0D MUL PUSH1 0x80 SHR JUMPDEST PUSH1 0x1 PUSH1 0x59 SHL DUP4 AND ISZERO PUSH2 0x3531 JUMPI PUSH17 0x1000000000162E42FEFA494F1478FDE05 MUL PUSH1 0x80 SHR JUMPDEST PUSH1 0x1 PUSH1 0x58 SHL DUP4 AND ISZERO PUSH2 0x3554 JUMPI PUSH17 0x10000000000B17217F7D20CF927C8E94C MUL PUSH1 0x80 SHR JUMPDEST PUSH1 0x1 PUSH1 0x57 SHL DUP4 AND ISZERO PUSH2 0x3577 JUMPI PUSH17 0x1000000000058B90BFBE8F71CB4E4B33D MUL PUSH1 0x80 SHR JUMPDEST PUSH1 0x1 PUSH1 0x56 SHL DUP4 AND ISZERO PUSH2 0x359A JUMPI PUSH17 0x100000000002C5C85FDF477B662B26945 MUL PUSH1 0x80 SHR JUMPDEST PUSH1 0x1 PUSH1 0x55 SHL DUP4 AND ISZERO PUSH2 0x35BD JUMPI PUSH17 0x10000000000162E42FEFA3AE53369388C MUL PUSH1 0x80 SHR JUMPDEST PUSH1 0x1 PUSH1 0x54 SHL DUP4 AND ISZERO PUSH2 0x35E0 JUMPI PUSH17 0x100000000000B17217F7D1D351A389D40 MUL PUSH1 0x80 SHR JUMPDEST PUSH1 0x1 PUSH1 0x53 SHL DUP4 AND ISZERO PUSH2 0x3603 JUMPI PUSH17 0x10000000000058B90BFBE8E8B2D3D4EDE MUL PUSH1 0x80 SHR JUMPDEST PUSH1 0x1 PUSH1 0x52 SHL DUP4 AND ISZERO PUSH2 0x3626 JUMPI PUSH17 0x1000000000002C5C85FDF4741BEA6E77E MUL PUSH1 0x80 SHR JUMPDEST PUSH1 0x1 PUSH1 0x51 SHL DUP4 AND ISZERO PUSH2 0x3649 JUMPI PUSH17 0x100000000000162E42FEFA39FE95583C2 MUL PUSH1 0x80 SHR JUMPDEST PUSH1 0x1 PUSH1 0x50 SHL DUP4 AND ISZERO PUSH2 0x366C JUMPI PUSH17 0x1000000000000B17217F7D1CFB72B45E1 MUL PUSH1 0x80 SHR JUMPDEST PUSH10 0x80000000000000000000 DUP4 AND ISZERO PUSH2 0x3695 JUMPI PUSH17 0x100000000000058B90BFBE8E7CC35C3F0 MUL PUSH1 0x80 SHR JUMPDEST PUSH10 0x40000000000000000000 DUP4 AND ISZERO PUSH2 0x36BE JUMPI PUSH17 0x10000000000002C5C85FDF473E242EA38 MUL PUSH1 0x80 SHR JUMPDEST PUSH10 0x20000000000000000000 DUP4 AND ISZERO PUSH2 0x36E7 JUMPI PUSH17 0x1000000000000162E42FEFA39F02B772C MUL PUSH1 0x80 SHR JUMPDEST PUSH10 0x10000000000000000000 DUP4 AND ISZERO PUSH2 0x3710 JUMPI PUSH17 0x10000000000000B17217F7D1CF7D83C1A MUL PUSH1 0x80 SHR JUMPDEST PUSH10 0x8000000000000000000 DUP4 AND ISZERO PUSH2 0x3739 JUMPI PUSH17 0x1000000000000058B90BFBE8E7BDCBE2E MUL PUSH1 0x80 SHR JUMPDEST PUSH10 0x4000000000000000000 DUP4 AND ISZERO PUSH2 0x3762 JUMPI PUSH17 0x100000000000002C5C85FDF473DEA871F MUL PUSH1 0x80 SHR JUMPDEST PUSH10 0x2000000000000000000 DUP4 AND ISZERO PUSH2 0x378B JUMPI PUSH17 0x10000000000000162E42FEFA39EF44D91 MUL PUSH1 0x80 SHR JUMPDEST PUSH10 0x1000000000000000000 DUP4 AND ISZERO PUSH2 0x37B4 JUMPI PUSH17 0x100000000000000B17217F7D1CF79E949 MUL PUSH1 0x80 SHR JUMPDEST PUSH9 0x800000000000000000 DUP4 AND ISZERO PUSH2 0x37DC JUMPI PUSH17 0x10000000000000058B90BFBE8E7BCE544 MUL PUSH1 0x80 SHR JUMPDEST PUSH9 0x400000000000000000 DUP4 AND ISZERO PUSH2 0x3804 JUMPI PUSH17 0x1000000000000002C5C85FDF473DE6ECA MUL PUSH1 0x80 SHR JUMPDEST PUSH9 0x200000000000000000 DUP4 AND ISZERO PUSH2 0x382C JUMPI PUSH17 0x100000000000000162E42FEFA39EF366F MUL PUSH1 0x80 SHR JUMPDEST PUSH9 0x100000000000000000 DUP4 AND ISZERO PUSH2 0x3854 JUMPI PUSH17 0x1000000000000000B17217F7D1CF79AFA MUL PUSH1 0x80 SHR JUMPDEST PUSH9 0x80000000000000000 DUP4 AND ISZERO PUSH2 0x387C JUMPI PUSH17 0x100000000000000058B90BFBE8E7BCD6D MUL PUSH1 0x80 SHR JUMPDEST PUSH9 0x40000000000000000 DUP4 AND ISZERO PUSH2 0x38A4 JUMPI PUSH17 0x10000000000000002C5C85FDF473DE6B2 MUL PUSH1 0x80 SHR JUMPDEST PUSH9 0x20000000000000000 DUP4 AND ISZERO PUSH2 0x38CC JUMPI PUSH17 0x1000000000000000162E42FEFA39EF358 MUL PUSH1 0x80 SHR JUMPDEST PUSH1 0x1 PUSH1 0x40 SHL DUP4 AND ISZERO PUSH2 0x38EF JUMPI PUSH17 0x10000000000000000B17217F7D1CF79AB MUL PUSH1 0x80 SHR JUMPDEST PUSH8 0x8000000000000000 DUP4 AND ISZERO PUSH2 0x3916 JUMPI PUSH17 0x1000000000000000058B90BFBE8E7BCD5 MUL PUSH1 0x80 SHR JUMPDEST PUSH8 0x4000000000000000 DUP4 AND ISZERO PUSH2 0x393D JUMPI PUSH17 0x100000000000000002C5C85FDF473DE6A MUL PUSH1 0x80 SHR JUMPDEST PUSH8 0x2000000000000000 DUP4 AND ISZERO PUSH2 0x3964 JUMPI PUSH17 0x10000000000000000162E42FEFA39EF34 MUL PUSH1 0x80 SHR JUMPDEST PUSH8 0x1000000000000000 DUP4 AND ISZERO PUSH2 0x398B JUMPI PUSH17 0x100000000000000000B17217F7D1CF799 MUL PUSH1 0x80 SHR JUMPDEST PUSH8 0x800000000000000 DUP4 AND ISZERO PUSH2 0x39B2 JUMPI PUSH17 0x10000000000000000058B90BFBE8E7BCC MUL PUSH1 0x80 SHR JUMPDEST PUSH8 0x400000000000000 DUP4 AND ISZERO PUSH2 0x39D9 JUMPI PUSH17 0x1000000000000000002C5C85FDF473DE5 MUL PUSH1 0x80 SHR JUMPDEST PUSH8 0x200000000000000 DUP4 AND ISZERO PUSH2 0x3A00 JUMPI PUSH17 0x100000000000000000162E42FEFA39EF2 MUL PUSH1 0x80 SHR JUMPDEST PUSH8 0x100000000000000 DUP4 AND ISZERO PUSH2 0x3A27 JUMPI PUSH17 0x1000000000000000000B17217F7D1CF78 MUL PUSH1 0x80 SHR JUMPDEST PUSH7 0x80000000000000 DUP4 AND ISZERO PUSH2 0x3A4D JUMPI PUSH17 0x100000000000000000058B90BFBE8E7BB MUL PUSH1 0x80 SHR JUMPDEST PUSH7 0x40000000000000 DUP4 AND ISZERO PUSH2 0x3A73 JUMPI PUSH17 0x10000000000000000002C5C85FDF473DD MUL PUSH1 0x80 SHR JUMPDEST PUSH7 0x20000000000000 DUP4 AND ISZERO PUSH2 0x3A99 JUMPI PUSH17 0x1000000000000000000162E42FEFA39EE MUL PUSH1 0x80 SHR JUMPDEST PUSH7 0x10000000000000 DUP4 AND ISZERO PUSH2 0x3ABF JUMPI PUSH17 0x10000000000000000000B17217F7D1CF6 MUL PUSH1 0x80 SHR JUMPDEST PUSH7 0x8000000000000 DUP4 AND ISZERO PUSH2 0x3AE5 JUMPI PUSH17 0x1000000000000000000058B90BFBE8E7A MUL PUSH1 0x80 SHR JUMPDEST PUSH7 0x4000000000000 DUP4 AND ISZERO PUSH2 0x3B0B JUMPI PUSH17 0x100000000000000000002C5C85FDF473C MUL PUSH1 0x80 SHR JUMPDEST PUSH7 0x2000000000000 DUP4 AND ISZERO PUSH2 0x3B31 JUMPI PUSH17 0x10000000000000000000162E42FEFA39D MUL PUSH1 0x80 SHR JUMPDEST PUSH7 0x1000000000000 DUP4 AND ISZERO PUSH2 0x3B57 JUMPI PUSH17 0x100000000000000000000B17217F7D1CE MUL PUSH1 0x80 SHR JUMPDEST PUSH6 0x800000000000 DUP4 AND ISZERO PUSH2 0x3B7C JUMPI PUSH17 0x10000000000000000000058B90BFBE8E6 MUL PUSH1 0x80 SHR JUMPDEST PUSH6 0x400000000000 DUP4 AND ISZERO PUSH2 0x3BA1 JUMPI PUSH17 0x1000000000000000000002C5C85FDF472 MUL PUSH1 0x80 SHR JUMPDEST PUSH6 0x200000000000 DUP4 AND ISZERO PUSH2 0x3BC6 JUMPI PUSH17 0x100000000000000000000162E42FEFA38 MUL PUSH1 0x80 SHR JUMPDEST PUSH6 0x100000000000 DUP4 AND ISZERO PUSH2 0x3BEB JUMPI PUSH17 0x1000000000000000000000B17217F7D1B MUL PUSH1 0x80 SHR JUMPDEST PUSH6 0x80000000000 DUP4 AND ISZERO PUSH2 0x3C10 JUMPI PUSH17 0x100000000000000000000058B90BFBE8D MUL PUSH1 0x80 SHR JUMPDEST PUSH6 0x40000000000 DUP4 AND ISZERO PUSH2 0x3C35 JUMPI PUSH17 0x10000000000000000000002C5C85FDF46 MUL PUSH1 0x80 SHR JUMPDEST PUSH6 0x20000000000 DUP4 AND ISZERO PUSH2 0x3C5A JUMPI PUSH17 0x1000000000000000000000162E42FEFA2 MUL PUSH1 0x80 SHR JUMPDEST PUSH6 0x10000000000 DUP4 AND ISZERO PUSH2 0x3C7F JUMPI PUSH17 0x10000000000000000000000B17217F7D0 MUL PUSH1 0x80 SHR JUMPDEST PUSH5 0x8000000000 DUP4 AND ISZERO PUSH2 0x3CA3 JUMPI PUSH17 0x1000000000000000000000058B90BFBE7 MUL PUSH1 0x80 SHR JUMPDEST PUSH5 0x4000000000 DUP4 AND ISZERO PUSH2 0x3CC7 JUMPI PUSH17 0x100000000000000000000002C5C85FDF3 MUL PUSH1 0x80 SHR JUMPDEST PUSH5 0x2000000000 DUP4 AND ISZERO PUSH2 0x3CEB JUMPI PUSH17 0x10000000000000000000000162E42FEF9 MUL PUSH1 0x80 SHR JUMPDEST PUSH5 0x1000000000 DUP4 AND ISZERO PUSH2 0x3D0F JUMPI PUSH17 0x100000000000000000000000B17217F7C MUL PUSH1 0x80 SHR JUMPDEST PUSH5 0x800000000 DUP4 AND ISZERO PUSH2 0x3D33 JUMPI PUSH17 0x10000000000000000000000058B90BFBD MUL PUSH1 0x80 SHR JUMPDEST PUSH5 0x400000000 DUP4 AND ISZERO PUSH2 0x3D57 JUMPI PUSH17 0x1000000000000000000000002C5C85FDE MUL PUSH1 0x80 SHR JUMPDEST PUSH5 0x200000000 DUP4 AND ISZERO PUSH2 0x3D7B JUMPI PUSH17 0x100000000000000000000000162E42FEE MUL PUSH1 0x80 SHR JUMPDEST PUSH5 0x100000000 DUP4 AND ISZERO PUSH2 0x3D9F JUMPI PUSH17 0x1000000000000000000000000B17217F6 MUL PUSH1 0x80 SHR JUMPDEST PUSH4 0x80000000 DUP4 AND ISZERO PUSH2 0x3DC2 JUMPI PUSH17 0x100000000000000000000000058B90BFA MUL PUSH1 0x80 SHR JUMPDEST PUSH4 0x40000000 DUP4 AND ISZERO PUSH2 0x3DE5 JUMPI PUSH17 0x10000000000000000000000002C5C85FC MUL PUSH1 0x80 SHR JUMPDEST PUSH4 0x20000000 DUP4 AND ISZERO PUSH2 0x3E08 JUMPI PUSH17 0x1000000000000000000000000162E42FD MUL PUSH1 0x80 SHR JUMPDEST PUSH4 0x10000000 DUP4 AND ISZERO PUSH2 0x3E2B JUMPI PUSH17 0x10000000000000000000000000B17217E MUL PUSH1 0x80 SHR JUMPDEST PUSH4 0x8000000 DUP4 AND ISZERO PUSH2 0x3E4E JUMPI PUSH17 0x1000000000000000000000000058B90BE MUL PUSH1 0x80 SHR JUMPDEST PUSH4 0x4000000 DUP4 AND ISZERO PUSH2 0x3E71 JUMPI PUSH17 0x100000000000000000000000002C5C85E MUL PUSH1 0x80 SHR JUMPDEST PUSH4 0x2000000 DUP4 AND ISZERO PUSH2 0x3E94 JUMPI PUSH17 0x10000000000000000000000000162E42E MUL PUSH1 0x80 SHR JUMPDEST PUSH4 0x1000000 DUP4 AND ISZERO PUSH2 0x3EB7 JUMPI PUSH17 0x100000000000000000000000000B17216 MUL PUSH1 0x80 SHR JUMPDEST PUSH3 0x800000 DUP4 AND ISZERO PUSH2 0x3ED9 JUMPI PUSH17 0x10000000000000000000000000058B90A MUL PUSH1 0x80 SHR JUMPDEST PUSH3 0x400000 DUP4 AND ISZERO PUSH2 0x3EFB JUMPI PUSH17 0x1000000000000000000000000002C5C84 MUL PUSH1 0x80 SHR JUMPDEST PUSH3 0x200000 DUP4 AND ISZERO PUSH2 0x3F1D JUMPI PUSH17 0x100000000000000000000000000162E41 MUL PUSH1 0x80 SHR JUMPDEST PUSH3 0x100000 DUP4 AND ISZERO PUSH2 0x3F3F JUMPI PUSH17 0x1000000000000000000000000000B1720 MUL PUSH1 0x80 SHR JUMPDEST PUSH3 0x80000 DUP4 AND ISZERO PUSH2 0x3F61 JUMPI PUSH17 0x100000000000000000000000000058B8F MUL PUSH1 0x80 SHR JUMPDEST PUSH3 0x40000 DUP4 AND ISZERO PUSH2 0x3F83 JUMPI PUSH17 0x10000000000000000000000000002C5C7 MUL PUSH1 0x80 SHR JUMPDEST PUSH3 0x20000 DUP4 AND ISZERO PUSH2 0x3FA5 JUMPI PUSH17 0x1000000000000000000000000000162E3 MUL PUSH1 0x80 SHR JUMPDEST PUSH3 0x10000 DUP4 AND ISZERO PUSH2 0x3FC7 JUMPI PUSH17 0x10000000000000000000000000000B171 MUL PUSH1 0x80 SHR JUMPDEST PUSH2 0x8000 DUP4 AND ISZERO PUSH2 0x3FE8 JUMPI PUSH17 0x1000000000000000000000000000058B8 MUL PUSH1 0x80 SHR JUMPDEST PUSH2 0x4000 DUP4 AND ISZERO PUSH2 0x4009 JUMPI PUSH17 0x100000000000000000000000000002C5B MUL PUSH1 0x80 SHR JUMPDEST PUSH2 0x2000 DUP4 AND ISZERO PUSH2 0x402A JUMPI PUSH17 0x10000000000000000000000000000162D MUL PUSH1 0x80 SHR JUMPDEST PUSH2 0x1000 DUP4 AND ISZERO PUSH2 0x404B JUMPI PUSH17 0x100000000000000000000000000000B16 MUL PUSH1 0x80 SHR JUMPDEST PUSH2 0x800 DUP4 AND ISZERO PUSH2 0x406C JUMPI PUSH17 0x10000000000000000000000000000058A MUL PUSH1 0x80 SHR JUMPDEST PUSH2 0x400 DUP4 AND ISZERO PUSH2 0x408D JUMPI PUSH17 0x1000000000000000000000000000002C4 MUL PUSH1 0x80 SHR JUMPDEST PUSH2 0x200 DUP4 AND ISZERO PUSH2 0x40AE JUMPI PUSH17 0x100000000000000000000000000000161 MUL PUSH1 0x80 SHR JUMPDEST PUSH2 0x100 DUP4 AND ISZERO PUSH2 0x40CF JUMPI PUSH17 0x1000000000000000000000000000000B0 MUL PUSH1 0x80 SHR JUMPDEST PUSH1 0x80 DUP4 AND ISZERO PUSH2 0x40EF JUMPI PUSH17 0x100000000000000000000000000000057 MUL PUSH1 0x80 SHR JUMPDEST PUSH1 0x40 DUP4 AND ISZERO PUSH2 0x410F JUMPI PUSH17 0x10000000000000000000000000000002B MUL PUSH1 0x80 SHR JUMPDEST PUSH1 0x20 DUP4 AND ISZERO PUSH2 0x412F JUMPI PUSH17 0x100000000000000000000000000000015 MUL PUSH1 0x80 SHR JUMPDEST PUSH1 0x10 DUP4 AND ISZERO PUSH2 0x414F JUMPI PUSH17 0x10000000000000000000000000000000A MUL PUSH1 0x80 SHR JUMPDEST PUSH1 0x8 DUP4 AND ISZERO PUSH2 0x416F JUMPI PUSH17 0x100000000000000000000000000000004 MUL PUSH1 0x80 SHR JUMPDEST PUSH1 0x4 DUP4 AND ISZERO PUSH2 0x418F JUMPI PUSH17 0x100000000000000000000000000000001 MUL PUSH1 0x80 SHR JUMPDEST DUP5 PUSH2 0x41B0 JUMPI PUSH1 0xF DUP2 SWAP1 SHR PUSH1 0x1 PUSH1 0x1 PUSH1 0x70 SHL SUB AND SWAP1 POP PUSH2 0x3FFF DUP3 ADD SWAP2 POP PUSH2 0x41DE JUMP JUMPDEST PUSH2 0x3FFE DUP3 GT PUSH2 0x41D5 JUMPI PUSH1 0xF DUP2 SWAP1 SHR PUSH1 0x1 PUSH1 0x1 PUSH1 0x70 SHL SUB AND SWAP1 POP DUP2 PUSH2 0x3FFF SUB SWAP2 POP PUSH2 0x41DE JUMP JUMPDEST PUSH0 SWAP2 PUSH2 0x3FEE NOT ADD SHR JUMPDEST PUSH1 0x70 SWAP2 SWAP1 SWAP2 SHL OR PUSH1 0x80 SHL SWAP6 SWAP5 POP POP POP POP POP JUMP JUMPDEST POP DUP1 SLOAD PUSH2 0x41FD SWAP1 PUSH2 0x4701 JUMP JUMPDEST PUSH0 DUP3 SSTORE DUP1 PUSH1 0x1F LT PUSH2 0x420C JUMPI POP POP JUMP JUMPDEST PUSH1 0x1F ADD PUSH1 0x20 SWAP1 DIV SWAP1 PUSH0 MSTORE PUSH1 0x20 PUSH0 KECCAK256 SWAP1 DUP2 ADD SWAP1 PUSH2 0x1EFF SWAP2 SWAP1 JUMPDEST DUP1 DUP3 GT ISZERO PUSH2 0x4237 JUMPI PUSH0 DUP2 SSTORE PUSH1 0x1 ADD PUSH2 0x4224 JUMP JUMPDEST POP SWAP1 JUMP JUMPDEST DUP1 CALLDATALOAD PUSH1 0x1 PUSH1 0x1 PUSH1 0xA0 SHL SUB DUP2 AND DUP2 EQ PUSH2 0x22AA JUMPI PUSH0 DUP1 REVERT JUMPDEST PUSH0 DUP1 PUSH1 0x40 DUP4 DUP6 SUB SLT ISZERO PUSH2 0x4262 JUMPI PUSH0 DUP1 REVERT JUMPDEST PUSH2 0x426B DUP4 PUSH2 0x423B JUMP JUMPDEST SWAP5 PUSH1 0x20 SWAP4 SWAP1 SWAP4 ADD CALLDATALOAD SWAP4 POP POP POP JUMP JUMPDEST PUSH0 PUSH1 0x20 DUP3 DUP5 SUB SLT ISZERO PUSH2 0x4289 JUMPI PUSH0 DUP1 REVERT JUMPDEST PUSH2 0xE85 DUP3 PUSH2 0x423B JUMP JUMPDEST PUSH1 0x1 PUSH1 0x1 PUSH1 0xE0 SHL SUB NOT DUP2 AND DUP2 EQ PUSH2 0x1EFF JUMPI PUSH0 DUP1 REVERT JUMPDEST PUSH0 PUSH1 0x20 DUP3 DUP5 SUB SLT ISZERO PUSH2 0x42B7 JUMPI PUSH0 DUP1 REVERT JUMPDEST DUP2 CALLDATALOAD PUSH2 0xE85 DUP2 PUSH2 0x4292 JUMP JUMPDEST PUSH0 DUP1 PUSH1 0x40 DUP4 DUP6 SUB SLT ISZERO PUSH2 0x42D3 JUMPI PUSH0 DUP1 REVERT JUMPDEST POP POP DUP1 CALLDATALOAD SWAP3 PUSH1 0x20 SWAP1 SWAP2 ADD CALLDATALOAD SWAP2 POP JUMP JUMPDEST PUSH0 PUSH1 0x20 DUP3 DUP5 SUB SLT ISZERO PUSH2 0x42F2 JUMPI PUSH0 DUP1 REVERT JUMPDEST POP CALLDATALOAD SWAP2 SWAP1 POP JUMP JUMPDEST PUSH0 JUMPDEST DUP4 DUP2 LT ISZERO PUSH2 0x4313 JUMPI DUP2 DUP2 ADD MLOAD DUP4 DUP3 ADD MSTORE PUSH1 0x20 ADD PUSH2 0x42FB JUMP JUMPDEST POP POP PUSH0 SWAP2 ADD MSTORE JUMP JUMPDEST PUSH0 DUP2 MLOAD DUP1 DUP5 MSTORE PUSH2 0x4332 DUP2 PUSH1 0x20 DUP7 ADD PUSH1 0x20 DUP7 ADD PUSH2 0x42F9 JUMP JUMPDEST PUSH1 0x1F ADD PUSH1 0x1F NOT AND SWAP3 SWAP1 SWAP3 ADD PUSH1 0x20 ADD SWAP3 SWAP2 POP POP JUMP JUMPDEST PUSH1 0x20 DUP2 MSTORE PUSH0 PUSH2 0xE85 PUSH1 0x20 DUP4 ADD DUP5 PUSH2 0x431B JUMP JUMPDEST PUSH0 DUP1 DUP4 PUSH1 0x1F DUP5 ADD SLT PUSH2 0x4368 JUMPI PUSH0 DUP1 REVERT JUMPDEST POP DUP2 CALLDATALOAD PUSH8 0xFFFFFFFFFFFFFFFF DUP2 GT ISZERO PUSH2 0x437F JUMPI PUSH0 DUP1 REVERT JUMPDEST PUSH1 0x20 DUP4 ADD SWAP2 POP DUP4 PUSH1 0x20 DUP3 PUSH1 0x5 SHL DUP6 ADD ADD GT ISZERO PUSH2 0x4399 JUMPI PUSH0 DUP1 REVERT JUMPDEST SWAP3 POP SWAP3 SWAP1 POP JUMP JUMPDEST PUSH0 DUP1 DUP4 PUSH1 0x1F DUP5 ADD SLT PUSH2 0x43B0 JUMPI PUSH0 DUP1 REVERT JUMPDEST POP DUP2 CALLDATALOAD PUSH8 0xFFFFFFFFFFFFFFFF DUP2 GT ISZERO PUSH2 0x43C7 JUMPI PUSH0 DUP1 REVERT JUMPDEST PUSH1 0x20 DUP4 ADD SWAP2 POP DUP4 PUSH1 0x20 DUP3 DUP6 ADD ADD GT ISZERO PUSH2 0x4399 JUMPI PUSH0 DUP1 REVERT JUMPDEST PUSH0 DUP1 PUSH0 DUP1 PUSH0 DUP1 PUSH0 DUP1 PUSH1 0xA0 DUP10 DUP12 SUB SLT ISZERO PUSH2 0x43F5 JUMPI PUSH0 DUP1 REVERT JUMPDEST PUSH2 0x43FE DUP10 PUSH2 0x423B JUMP JUMPDEST SWAP8 POP PUSH2 0x440C PUSH1 0x20 DUP11 ADD PUSH2 0x423B JUMP JUMPDEST SWAP7 POP PUSH1 0x40 DUP10 ADD CALLDATALOAD PUSH8 0xFFFFFFFFFFFFFFFF DUP1 DUP3 GT ISZERO PUSH2 0x4428 JUMPI PUSH0 DUP1 REVERT JUMPDEST PUSH2 0x4434 DUP13 DUP4 DUP14 ADD PUSH2 0x4358 JUMP JUMPDEST SWAP1 SWAP9 POP SWAP7 POP PUSH1 0x60 DUP12 ADD CALLDATALOAD SWAP2 POP DUP1 DUP3 GT ISZERO PUSH2 0x444C JUMPI PUSH0 DUP1 REVERT JUMPDEST PUSH2 0x4458 DUP13 DUP4 DUP14 ADD PUSH2 0x4358 JUMP JUMPDEST SWAP1 SWAP7 POP SWAP5 POP PUSH1 0x80 DUP12 ADD CALLDATALOAD SWAP2 POP DUP1 DUP3 GT ISZERO PUSH2 0x4470 JUMPI PUSH0 DUP1 REVERT JUMPDEST POP PUSH2 0x447D DUP12 DUP3 DUP13 ADD PUSH2 0x43A0 JUMP JUMPDEST SWAP10 SWAP13 SWAP9 SWAP12 POP SWAP7 SWAP10 POP SWAP5 SWAP8 SWAP4 SWAP7 SWAP3 SWAP6 SWAP5 POP POP POP JUMP JUMPDEST PUSH0 DUP1 PUSH0 DUP1 PUSH1 0x40 DUP6 DUP8 SUB SLT ISZERO PUSH2 0x44A4 JUMPI PUSH0 DUP1 REVERT JUMPDEST DUP5 CALLDATALOAD PUSH8 0xFFFFFFFFFFFFFFFF DUP1 DUP3 GT ISZERO PUSH2 0x44BB JUMPI PUSH0 DUP1 REVERT JUMPDEST PUSH2 0x44C7 DUP9 DUP4 DUP10 ADD PUSH2 0x4358 JUMP JUMPDEST SWAP1 SWAP7 POP SWAP5 POP PUSH1 0x20 DUP8 ADD CALLDATALOAD SWAP2 POP DUP1 DUP3 GT ISZERO PUSH2 0x44DF JUMPI PUSH0 DUP1 REVERT JUMPDEST POP PUSH2 0x44EC DUP8 DUP3 DUP9 ADD PUSH2 0x4358 JUMP JUMPDEST SWAP6 SWAP9 SWAP5 SWAP8 POP SWAP6 POP POP POP POP JUMP JUMPDEST PUSH1 0x20 DUP1 DUP3 MSTORE DUP3 MLOAD DUP3 DUP3 ADD DUP2 SWAP1 MSTORE PUSH0 SWAP2 SWAP1 DUP5 DUP3 ADD SWAP1 PUSH1 0x40 DUP6 ADD SWAP1 DUP5 JUMPDEST DUP2 DUP2 LT ISZERO PUSH2 0x452F JUMPI DUP4 MLOAD DUP4 MSTORE SWAP3 DUP5 ADD SWAP3 SWAP2 DUP5 ADD SWAP2 PUSH1 0x1 ADD PUSH2 0x4513 JUMP JUMPDEST POP SWAP1 SWAP7 SWAP6 POP POP POP POP POP POP JUMP JUMPDEST DUP1 ISZERO ISZERO DUP2 EQ PUSH2 0x1EFF JUMPI PUSH0 DUP1 REVERT JUMPDEST PUSH0 DUP1 PUSH1 0x40 DUP4 DUP6 SUB SLT ISZERO PUSH2 0x4559 JUMPI PUSH0 DUP1 REVERT JUMPDEST PUSH2 0x4562 DUP4 PUSH2 0x423B JUMP JUMPDEST SWAP2 POP PUSH1 0x20 DUP4 ADD CALLDATALOAD PUSH2 0x4572 DUP2 PUSH2 0x453B JUMP JUMPDEST DUP1 SWAP2 POP POP SWAP3 POP SWAP3 SWAP1 POP JUMP JUMPDEST PUSH0 DUP1 PUSH1 0x20 DUP4 DUP6 SUB SLT ISZERO PUSH2 0x458E JUMPI PUSH0 DUP1 REVERT JUMPDEST DUP3 CALLDATALOAD PUSH8 0xFFFFFFFFFFFFFFFF DUP2 GT ISZERO PUSH2 0x45A4 JUMPI PUSH0 DUP1 REVERT JUMPDEST PUSH2 0x45B0 DUP6 DUP3 DUP7 ADD PUSH2 0x43A0 JUMP JUMPDEST SWAP1 SWAP7 SWAP1 SWAP6 POP SWAP4 POP POP POP POP JUMP JUMPDEST DUP4 DUP2 MSTORE PUSH1 0x60 PUSH1 0x20 DUP3 ADD MSTORE PUSH0 PUSH2 0x45D4 PUSH1 0x60 DUP4 ADD DUP6 PUSH2 0x431B JUMP JUMPDEST SWAP1 POP PUSH1 0x1 DUP1 PUSH1 0xA0 SHL SUB DUP4 AND PUSH1 0x40 DUP4 ADD MSTORE SWAP5 SWAP4 POP POP POP POP JUMP JUMPDEST PUSH0 DUP1 PUSH1 0x40 DUP4 DUP6 SUB SLT ISZERO PUSH2 0x45FD JUMPI PUSH0 DUP1 REVERT JUMPDEST PUSH2 0x4606 DUP4 PUSH2 0x423B JUMP JUMPDEST SWAP2 POP PUSH2 0x4614 PUSH1 0x20 DUP5 ADD PUSH2 0x423B JUMP JUMPDEST SWAP1 POP SWAP3 POP SWAP3 SWAP1 POP JUMP JUMPDEST PUSH0 DUP1 PUSH0 DUP1 PUSH0 DUP1 PUSH1 0xA0 DUP8 DUP10 SUB SLT ISZERO PUSH2 0x4632 JUMPI PUSH0 DUP1 REVERT JUMPDEST PUSH2 0x463B DUP8 PUSH2 0x423B JUMP JUMPDEST SWAP6 POP PUSH2 0x4649 PUSH1 0x20 DUP9 ADD PUSH2 0x423B JUMP JUMPDEST SWAP5 POP PUSH1 0x40 DUP8 ADD CALLDATALOAD SWAP4 POP PUSH1 0x60 DUP8 ADD CALLDATALOAD SWAP3 POP PUSH1 0x80 DUP8 ADD CALLDATALOAD PUSH8 0xFFFFFFFFFFFFFFFF DUP2 GT ISZERO PUSH2 0x4672 JUMPI PUSH0 DUP1 REVERT JUMPDEST PUSH2 0x467E DUP10 DUP3 DUP11 ADD PUSH2 0x43A0 JUMP JUMPDEST SWAP8 SWAP11 SWAP7 SWAP10 POP SWAP5 SWAP8 POP SWAP3 SWAP6 SWAP4 SWAP5 SWAP3 POP POP POP JUMP JUMPDEST PUSH4 0x4E487B71 PUSH1 0xE0 SHL PUSH0 MSTORE PUSH1 0x11 PUSH1 0x4 MSTORE PUSH1 0x24 PUSH0 REVERT JUMPDEST DUP1 DUP3 MUL DUP2 ISZERO DUP3 DUP3 DIV DUP5 EQ OR PUSH2 0x7A2 JUMPI PUSH2 0x7A2 PUSH2 0x4690 JUMP JUMPDEST PUSH4 0x4E487B71 PUSH1 0xE0 SHL PUSH0 MSTORE PUSH1 0x12 PUSH1 0x4 MSTORE PUSH1 0x24 PUSH0 REVERT JUMPDEST PUSH0 DUP3 PUSH2 0x46E9 JUMPI PUSH4 0x4E487B71 PUSH1 0xE0 SHL PUSH0 MSTORE PUSH1 0x12 PUSH1 0x4 MSTORE PUSH1 0x24 PUSH0 REVERT JUMPDEST POP DIV SWAP1 JUMP JUMPDEST DUP1 DUP3 ADD DUP1 DUP3 GT ISZERO PUSH2 0x7A2 JUMPI PUSH2 0x7A2 PUSH2 0x4690 JUMP JUMPDEST PUSH1 0x1 DUP2 DUP2 SHR SWAP1 DUP3 AND DUP1 PUSH2 0x4715 JUMPI PUSH1 0x7F DUP3 AND SWAP2 POP JUMPDEST PUSH1 0x20 DUP3 LT DUP2 SUB PUSH2 0x2E9A JUMPI PUSH4 0x4E487B71 PUSH1 0xE0 SHL PUSH0 MSTORE PUSH1 0x22 PUSH1 0x4 MSTORE PUSH1 0x24 PUSH0 REVERT JUMPDEST PUSH4 0x4E487B71 PUSH1 0xE0 SHL PUSH0 MSTORE PUSH1 0x32 PUSH1 0x4 MSTORE PUSH1 0x24 PUSH0 REVERT JUMPDEST DUP2 DUP2 SUB DUP2 DUP2 GT ISZERO PUSH2 0x7A2 JUMPI PUSH2 0x7A2 PUSH2 0x4690 JUMP JUMPDEST DUP2 DUP4 MSTORE PUSH0 PUSH1 0x1 PUSH1 0x1 PUSH1 0xFB SHL SUB DUP4 GT ISZERO PUSH2 0x4771 JUMPI PUSH0 DUP1 REVERT JUMPDEST DUP3 PUSH1 0x5 SHL DUP1 DUP4 PUSH1 0x20 DUP8 ADD CALLDATACOPY SWAP4 SWAP1 SWAP4 ADD PUSH1 0x20 ADD SWAP4 SWAP3 POP POP POP JUMP JUMPDEST PUSH1 0x40 DUP2 MSTORE PUSH0 PUSH2 0x479D PUSH1 0x40 DUP4 ADD DUP7 DUP9 PUSH2 0x475A JUMP JUMPDEST DUP3 DUP2 SUB PUSH1 0x20 DUP5 ADD MSTORE PUSH2 0x47B0 DUP2 DUP6 DUP8 PUSH2 0x475A JUMP JUMPDEST SWAP8 SWAP7 POP POP POP POP POP POP POP JUMP JUMPDEST DUP2 DUP4 MSTORE DUP2 DUP2 PUSH1 0x20 DUP6 ADD CALLDATACOPY POP PUSH0 DUP3 DUP3 ADD PUSH1 0x20 SWAP1 DUP2 ADD SWAP2 SWAP1 SWAP2 MSTORE PUSH1 0x1F SWAP1 SWAP2 ADD PUSH1 0x1F NOT AND SWAP1 SWAP2 ADD ADD SWAP1 JUMP JUMPDEST PUSH1 0x1 PUSH1 0x1 PUSH1 0xA0 SHL SUB DUP10 DUP2 AND DUP3 MSTORE DUP9 AND PUSH1 0x20 DUP3 ADD MSTORE PUSH1 0xA0 PUSH1 0x40 DUP3 ADD DUP2 SWAP1 MSTORE PUSH0 SWAP1 PUSH2 0x480F SWAP1 DUP4 ADD DUP9 DUP11 PUSH2 0x475A JUMP JUMPDEST DUP3 DUP2 SUB PUSH1 0x60 DUP5 ADD MSTORE PUSH2 0x4822 DUP2 DUP8 DUP10 PUSH2 0x475A JUMP JUMPDEST SWAP1 POP DUP3 DUP2 SUB PUSH1 0x80 DUP5 ADD MSTORE PUSH2 0x2023 DUP2 DUP6 DUP8 PUSH2 0x47BB JUMP JUMPDEST PUSH0 PUSH1 0x20 DUP3 DUP5 SUB SLT ISZERO PUSH2 0x4847 JUMPI PUSH0 DUP1 REVERT JUMPDEST DUP2 MLOAD PUSH2 0xE85 DUP2 PUSH2 0x4292 JUMP JUMPDEST PUSH1 0x20 DUP1 DUP3 MSTORE PUSH1 0x10 SWAP1 DUP3 ADD MSTORE PUSH16 0x155394D0519157D49150D25412515395 PUSH1 0x82 SHL PUSH1 0x40 DUP3 ADD MSTORE PUSH1 0x60 ADD SWAP1 JUMP JUMPDEST PUSH0 DUP3 MLOAD PUSH2 0x488D DUP2 DUP5 PUSH1 0x20 DUP8 ADD PUSH2 0x42F9 JUMP JUMPDEST SWAP2 SWAP1 SWAP2 ADD SWAP3 SWAP2 POP POP JUMP JUMPDEST PUSH4 0x4E487B71 PUSH1 0xE0 SHL PUSH0 MSTORE PUSH1 0x41 PUSH1 0x4 MSTORE PUSH1 0x24 PUSH0 REVERT JUMPDEST DUP2 DUP4 DUP3 CALLDATACOPY PUSH0 SWAP2 ADD SWAP1 DUP2 MSTORE SWAP2 SWAP1 POP JUMP JUMPDEST PUSH0 PUSH1 0x20 DUP3 DUP5 SUB SLT ISZERO PUSH2 0x48CA JUMPI PUSH0 DUP1 REVERT JUMPDEST POP MLOAD SWAP2 SWAP1 POP JUMP JUMPDEST PUSH1 0x1 PUSH1 0x1 PUSH1 0xA0 SHL SUB SWAP4 DUP5 AND DUP2 MSTORE SWAP2 SWAP1 SWAP3 AND PUSH1 0x20 DUP3 ADD MSTORE PUSH1 0x40 DUP2 ADD SWAP2 SWAP1 SWAP2 MSTORE PUSH1 0x60 ADD SWAP1 JUMP JUMPDEST PUSH0 PUSH1 0x20 DUP3 DUP5 SUB SLT ISZERO PUSH2 0x4905 JUMPI PUSH0 DUP1 REVERT JUMPDEST DUP2 MLOAD PUSH2 0xE85 DUP2 PUSH2 0x453B JUMP JUMPDEST PUSH1 0x1F DUP3 GT ISZERO PUSH2 0x4957 JUMPI DUP1 PUSH0 MSTORE PUSH1 0x20 PUSH0 KECCAK256 PUSH1 0x1F DUP5 ADD PUSH1 0x5 SHR DUP2 ADD PUSH1 0x20 DUP6 LT ISZERO PUSH2 0x4935 JUMPI POP DUP1 JUMPDEST PUSH1 0x1F DUP5 ADD PUSH1 0x5 SHR DUP3 ADD SWAP2 POP JUMPDEST DUP2 DUP2 LT ISZERO PUSH2 0x4954 JUMPI PUSH0 DUP2 SSTORE PUSH1 0x1 ADD PUSH2 0x4941 JUMP JUMPDEST POP POP JUMPDEST POP POP POP JUMP JUMPDEST DUP2 MLOAD PUSH8 0xFFFFFFFFFFFFFFFF DUP2 GT ISZERO PUSH2 0x4976 JUMPI PUSH2 0x4976 PUSH2 0x4897 JUMP JUMPDEST PUSH2 0x498A DUP2 PUSH2 0x4984 DUP5 SLOAD PUSH2 0x4701 JUMP JUMPDEST DUP5 PUSH2 0x4910 JUMP JUMPDEST PUSH1 0x20 DUP1 PUSH1 0x1F DUP4 GT PUSH1 0x1 DUP2 EQ PUSH2 0x49BD JUMPI PUSH0 DUP5 ISZERO PUSH2 0x49A6 JUMPI POP DUP6 DUP4 ADD MLOAD JUMPDEST PUSH0 NOT PUSH1 0x3 DUP7 SWAP1 SHL SHR NOT AND PUSH1 0x1 DUP6 SWAP1 SHL OR DUP6 SSTORE PUSH2 0x1E81 JUMP JUMPDEST PUSH0 DUP6 DUP2 MSTORE PUSH1 0x20 DUP2 KECCAK256 PUSH1 0x1F NOT DUP7 AND SWAP2 JUMPDEST DUP3 DUP2 LT ISZERO PUSH2 0x49EB JUMPI DUP9 DUP7 ADD MLOAD DUP3 SSTORE SWAP5 DUP5 ADD SWAP5 PUSH1 0x1 SWAP1 SWAP2 ADD SWAP1 DUP5 ADD PUSH2 0x49CC JUMP JUMPDEST POP DUP6 DUP3 LT ISZERO PUSH2 0x4A08 JUMPI DUP8 DUP6 ADD MLOAD PUSH0 NOT PUSH1 0x3 DUP9 SWAP1 SHL PUSH1 0xF8 AND SHR NOT AND DUP2 SSTORE JUMPDEST POP POP POP POP POP PUSH1 0x1 SWAP1 DUP2 SHL ADD SWAP1 SSTORE POP JUMP JUMPDEST PUSH1 0x20 DUP2 MSTORE PUSH0 PUSH2 0x4A2B PUSH1 0x20 DUP4 ADD DUP5 DUP7 PUSH2 0x47BB JUMP JUMPDEST SWAP5 SWAP4 POP POP POP POP JUMP JUMPDEST PUSH1 0x1 PUSH1 0x1 PUSH1 0xA0 SHL SUB DUP8 DUP2 AND DUP3 MSTORE DUP7 AND PUSH1 0x20 DUP3 ADD MSTORE PUSH1 0x40 DUP2 ADD DUP6 SWAP1 MSTORE PUSH1 0x60 DUP2 ADD DUP5 SWAP1 MSTORE PUSH1 0xA0 PUSH1 0x80 DUP3 ADD DUP2 SWAP1 MSTORE PUSH0 SWAP1 PUSH2 0x4A6D SWAP1 DUP4 ADD DUP5 DUP7 PUSH2 0x47BB JUMP JUMPDEST SWAP9 SWAP8 POP POP POP POP POP POP POP POP JUMP JUMPDEST PUSH1 0x1 PUSH1 0x1 PUSH1 0xA0 SHL SUB DUP7 DUP2 AND DUP3 MSTORE DUP6 AND PUSH1 0x20 DUP3 ADD MSTORE PUSH1 0x40 DUP2 ADD DUP5 SWAP1 MSTORE PUSH1 0x60 DUP2 ADD DUP4 SWAP1 MSTORE PUSH1 0xA0 PUSH1 0x80 DUP3 ADD DUP2 SWAP1 MSTORE PUSH0 SWAP1 PUSH2 0x47B0 SWAP1 DUP4 ADD DUP5 PUSH2 0x431B JUMP JUMPDEST PUSH4 0x4E487B71 PUSH1 0xE0 SHL PUSH0 MSTORE PUSH1 0x1 PUSH1 0x4 MSTORE PUSH1 0x24 PUSH0 REVERT INVALID LOG2 PUSH5 0x6970667358 0x22 SLT KECCAK256 PUSH19 0x436F0A09903E220CB68F5ABB47A326FE6B57D4 0xAB 0xE8 TLOAD 0xB3 RETURNDATACOPY SELFBALANCE SELFBALANCE MOD BASEFEE 0x22 0x2C CHAINID PUSH5 0x736F6C6343 STOP ADDMOD XOR STOP CALLER "
		},
		"gasEstimates": {
			"creation": {
				"codeDepositCost": "3839200",
				"executionCost": "30195",
				"totalCost": "3869395"
			},
			"external": {
				"CURATOR_PREMINT()": "317",
				"assetIndex()": "2394",
				"assets(uint256)": "infinite",
				"balanceOf(address,uint256)": "2639",
				"balanceOfBatch(address[],uint256[])": "infinite",
				"buy(uint256,uint256)": "infinite",
				"create(string)": "infinite",
				"getAssetIdsByAddress(address)": "infinite",
				"getBuyPrice(uint256,uint256)": "infinite",
				"getBuyPriceAfterFee(uint256,uint256)": "infinite",
				"getPrice(uint256,uint256)": "infinite",
				"getSellPrice(uint256,uint256)": "infinite",
				"getSellPriceAfterFee(uint256,uint256)": "infinite",
				"isApprovedForAll(address,address)": "infinite",
				"owner()": "2419",
				"pool(uint256)": "2556",
				"protocolFeeDestination()": "2404",
				"protocolFeePercent()": "2328",
				"remove(uint256)": "infinite",
				"renounceOwnership()": "infinite",
				"requiredInitialSSTAmount()": "2351",
				"safeBatchTransferFrom(address,address,uint256[],uint256[],bytes)": "infinite",
				"safeTransferFrom(address,address,uint256,uint256,bytes)": "infinite",
				"sell(uint256,uint256)": "infinite",
				"setApprovalForAll(address,bool)": "26744",
				"setFeeDestination(address)": "26843",
				"setProtocolFeePercent(uint256)": "24532",
				"setSSTAddress(address)": "26802",
				"setSubjectFeePercent(uint256)": "24598",
				"setrequiredInitialSSTAmount(uint256)": "24598",
				"sst()": "2425",
				"subjectFeePercent()": "2373",
				"supportsInterface(bytes4)": "609",
				"totalSupply(uint256)": "2469",
				"transferOwnership(address)": "28421",
				"txToAssetId(bytes32)": "2557",
				"uri(uint256)": "infinite",
				"userAssets(address,uint256)": "4771"
			},
			"internal": {
				"_curve(uint256)": "infinite"
			}
		},
		"methodIdentifiers": {
			"CURATOR_PREMINT()": "3398d487",
			"assetIndex()": "e07b098a",
			"assets(uint256)": "cf35bdd0",
			"balanceOf(address,uint256)": "00fdd58e",
			"balanceOfBatch(address[],uint256[])": "4e1273f4",
			"buy(uint256,uint256)": "d6febde8",
			"create(string)": "b6a46b3b",
			"getAssetIdsByAddress(address)": "b5dfd735",
			"getBuyPrice(uint256,uint256)": "c157253d",
			"getBuyPriceAfterFee(uint256,uint256)": "063a741f",
			"getPrice(uint256,uint256)": "5cf4ee91",
			"getSellPrice(uint256,uint256)": "9477d85d",
			"getSellPriceAfterFee(uint256,uint256)": "cd9c7121",
			"isApprovedForAll(address,address)": "e985e9c5",
			"owner()": "8da5cb5b",
			"pool(uint256)": "fe313112",
			"protocolFeeDestination()": "4ce7957c",
			"protocolFeePercent()": "d6e6eb9f",
			"remove(uint256)": "4cc82215",
			"renounceOwnership()": "715018a6",
			"requiredInitialSSTAmount()": "131e6f6d",
			"safeBatchTransferFrom(address,address,uint256[],uint256[],bytes)": "2eb2c2d6",
			"safeTransferFrom(address,address,uint256,uint256,bytes)": "f242432a",
			"sell(uint256,uint256)": "d79875eb",
			"setApprovalForAll(address,bool)": "a22cb465",
			"setFeeDestination(address)": "fbe53234",
			"setProtocolFeePercent(uint256)": "a4983421",
			"setSSTAddress(address)": "01a1bf97",
			"setSubjectFeePercent(uint256)": "5a8a764e",
			"setrequiredInitialSSTAmount(uint256)": "bce854ff",
			"sst()": "c3a52f33",
			"subjectFeePercent()": "24dc441d",
			"supportsInterface(bytes4)": "01ffc9a7",
			"totalSupply(uint256)": "bd85b039",
			"transferOwnership(address)": "f2fde38b",
			"txToAssetId(bytes32)": "e0e1b2c0",
			"uri(uint256)": "0e89341c",
			"userAssets(address,uint256)": "6a8a69aa"
		}
	},
	"abi": [
		{
			"inputs": [],
			"name": "Unauthorized",
			"type": "error"
		},
		{
			"anonymous": false,
			"inputs": [
				{
					"indexed": true,
					"internalType": "address",
					"name": "owner",
					"type": "address"
				},
				{
					"indexed": true,
					"internalType": "address",
					"name": "operator",
					"type": "address"
				},
				{
					"indexed": false,
					"internalType": "bool",
					"name": "approved",
					"type": "bool"
				}
			],
			"name": "ApprovalForAll",
			"type": "event"
		},
		{
			"anonymous": false,
			"inputs": [
				{
					"indexed": true,
					"internalType": "uint256",
					"name": "assetId",
					"type": "uint256"
				},
				{
					"indexed": true,
					"internalType": "address",
					"name": "sender",
					"type": "address"
				},
				{
					"indexed": false,
					"internalType": "string",
					"name": "ipfsId",
					"type": "string"
				}
			],
			"name": "Create",
			"type": "event"
		},
		{
			"anonymous": false,
			"inputs": [
				{
					"indexed": true,
					"internalType": "address",
					"name": "previousOwner",
					"type": "address"
				},
				{
					"indexed": true,
					"internalType": "address",
					"name": "newOwner",
					"type": "address"
				}
			],
			"name": "OwnershipTransferred",
			"type": "event"
		},
		{
			"anonymous": false,
			"inputs": [
				{
					"indexed": true,
					"internalType": "uint256",
					"name": "assetId",
					"type": "uint256"
				},
				{
					"indexed": true,
					"internalType": "address",
					"name": "sender",
					"type": "address"
				}
			],
			"name": "Remove",
			"type": "event"
		},
		{
			"anonymous": false,
			"inputs": [
				{
					"indexed": true,
					"internalType": "enum Sosh.TradeType",
					"name": "tradeType",
					"type": "uint8"
				},
				{
					"indexed": true,
					"internalType": "uint256",
					"name": "assetId",
					"type": "uint256"
				},
				{
					"indexed": true,
					"internalType": "address",
					"name": "sender",
					"type": "address"
				},
				{
					"indexed": false,
					"internalType": "uint256",
					"name": "tokenAmount",
					"type": "uint256"
				},
				{
					"indexed": false,
					"internalType": "uint256",
					"name": "ethAmount",
					"type": "uint256"
				},
				{
					"indexed": false,
					"internalType": "uint256",
					"name": "curatorFee",
					"type": "uint256"
				},
				{
					"indexed": false,
					"internalType": "uint256",
					"name": "protocolFee",
					"type": "uint256"
				}
			],
			"name": "Trade",
			"type": "event"
		},
		{
			"anonymous": false,
			"inputs": [
				{
					"indexed": true,
					"internalType": "address",
					"name": "operator",
					"type": "address"
				},
				{
					"indexed": true,
					"internalType": "address",
					"name": "from",
					"type": "address"
				},
				{
					"indexed": true,
					"internalType": "address",
					"name": "to",
					"type": "address"
				},
				{
					"indexed": false,
					"internalType": "uint256[]",
					"name": "ids",
					"type": "uint256[]"
				},
				{
					"indexed": false,
					"internalType": "uint256[]",
					"name": "amounts",
					"type": "uint256[]"
				}
			],
			"name": "TransferBatch",
			"type": "event"
		},
		{
			"anonymous": false,
			"inputs": [
				{
					"indexed": true,
					"internalType": "address",
					"name": "operator",
					"type": "address"
				},
				{
					"indexed": true,
					"internalType": "address",
					"name": "from",
					"type": "address"
				},
				{
					"indexed": true,
					"internalType": "address",
					"name": "to",
					"type": "address"
				},
				{
					"indexed": false,
					"internalType": "uint256",
					"name": "id",
					"type": "uint256"
				},
				{
					"indexed": false,
					"internalType": "uint256",
					"name": "amount",
					"type": "uint256"
				}
			],
			"name": "TransferSingle",
			"type": "event"
		},
		{
			"anonymous": false,
			"inputs": [
				{
					"indexed": false,
					"internalType": "string",
					"name": "value",
					"type": "string"
				},
				{
					"indexed": true,
					"internalType": "uint256",
					"name": "id",
					"type": "uint256"
				}
			],
			"name": "URI",
			"type": "event"
		},
		{
			"inputs": [],
			"name": "CURATOR_PREMINT",
			"outputs": [
				{
					"internalType": "uint256",
					"name": "",
					"type": "uint256"
				}
			],
			"stateMutability": "view",
			"type": "function"
		},
		{
			"inputs": [],
			"name": "assetIndex",
			"outputs": [
				{
					"internalType": "uint256",
					"name": "",
					"type": "uint256"
				}
			],
			"stateMutability": "view",
			"type": "function"
		},
		{
			"inputs": [
				{
					"internalType": "uint256",
					"name": "",
					"type": "uint256"
				}
			],
			"name": "assets",
			"outputs": [
				{
					"internalType": "uint256",
					"name": "id",
					"type": "uint256"
				},
				{
					"internalType": "string",
					"name": "ipfsId",
					"type": "string"
				},
				{
					"internalType": "address",
					"name": "curator",
					"type": "address"
				}
			],
			"stateMutability": "view",
			"type": "function"
		},
		{
			"inputs": [
				{
					"internalType": "address",
					"name": "",
					"type": "address"
				},
				{
					"internalType": "uint256",
					"name": "",
					"type": "uint256"
				}
			],
			"name": "balanceOf",
			"outputs": [
				{
					"internalType": "uint256",
					"name": "",
					"type": "uint256"
				}
			],
			"stateMutability": "view",
			"type": "function"
		},
		{
			"inputs": [
				{
					"internalType": "address[]",
					"name": "owners",
					"type": "address[]"
				},
				{
					"internalType": "uint256[]",
					"name": "ids",
					"type": "uint256[]"
				}
			],
			"name": "balanceOfBatch",
			"outputs": [
				{
					"internalType": "uint256[]",
					"name": "balances",
					"type": "uint256[]"
				}
			],
			"stateMutability": "view",
			"type": "function"
		},
		{
			"inputs": [
				{
					"internalType": "uint256",
					"name": "assetId",
					"type": "uint256"
				},
				{
					"internalType": "uint256",
					"name": "amount",
					"type": "uint256"
				}
			],
			"name": "buy",
			"outputs": [],
			"stateMutability": "payable",
			"type": "function"
		},
		{
			"inputs": [
				{
					"internalType": "string",
					"name": "ipfsId",
					"type": "string"
				}
			],
			"name": "create",
			"outputs": [],
			"stateMutability": "nonpayable",
			"type": "function"
		},
		{
			"inputs": [
				{
					"internalType": "address",
					"name": "addr",
					"type": "address"
				}
			],
			"name": "getAssetIdsByAddress",
			"outputs": [
				{
					"internalType": "uint256[]",
					"name": "",
					"type": "uint256[]"
				}
			],
			"stateMutability": "view",
			"type": "function"
		},
		{
			"inputs": [
				{
					"internalType": "uint256",
					"name": "assetId",
					"type": "uint256"
				},
				{
					"internalType": "uint256",
					"name": "amount",
					"type": "uint256"
				}
			],
			"name": "getBuyPrice",
			"outputs": [
				{
					"internalType": "uint256",
					"name": "",
					"type": "uint256"
				}
			],
			"stateMutability": "view",
			"type": "function"
		},
		{
			"inputs": [
				{
					"internalType": "uint256",
					"name": "assetId",
					"type": "uint256"
				},
				{
					"internalType": "uint256",
					"name": "amount",
					"type": "uint256"
				}
			],
			"name": "getBuyPriceAfterFee",
			"outputs": [
				{
					"internalType": "uint256",
					"name": "",
					"type": "uint256"
				}
			],
			"stateMutability": "view",
			"type": "function"
		},
		{
			"inputs": [
				{
					"internalType": "uint256",
					"name": "supply",
					"type": "uint256"
				},
				{
					"internalType": "uint256",
					"name": "amount",
					"type": "uint256"
				}
			],
			"name": "getPrice",
			"outputs": [
				{
					"internalType": "uint256",
					"name": "",
					"type": "uint256"
				}
			],
			"stateMutability": "pure",
			"type": "function"
		},
		{
			"inputs": [
				{
					"internalType": "uint256",
					"name": "assetId",
					"type": "uint256"
				},
				{
					"internalType": "uint256",
					"name": "amount",
					"type": "uint256"
				}
			],
			"name": "getSellPrice",
			"outputs": [
				{
					"internalType": "uint256",
					"name": "",
					"type": "uint256"
				}
			],
			"stateMutability": "view",
			"type": "function"
		},
		{
			"inputs": [
				{
					"internalType": "uint256",
					"name": "assetId",
					"type": "uint256"
				},
				{
					"internalType": "uint256",
					"name": "amount",
					"type": "uint256"
				}
			],
			"name": "getSellPriceAfterFee",
			"outputs": [
				{
					"internalType": "uint256",
					"name": "",
					"type": "uint256"
				}
			],
			"stateMutability": "view",
			"type": "function"
		},
		{
			"inputs": [
				{
					"internalType": "address",
					"name": "",
					"type": "address"
				},
				{
					"internalType": "address",
					"name": "",
					"type": "address"
				}
			],
			"name": "isApprovedForAll",
			"outputs": [
				{
					"internalType": "bool",
					"name": "",
					"type": "bool"
				}
			],
			"stateMutability": "view",
			"type": "function"
		},
		{
			"inputs": [],
			"name": "owner",
			"outputs": [
				{
					"internalType": "address",
					"name": "",
					"type": "address"
				}
			],
			"stateMutability": "view",
			"type": "function"
		},
		{
			"inputs": [
				{
					"internalType": "uint256",
					"name": "",
					"type": "uint256"
				}
			],
			"name": "pool",
			"outputs": [
				{
					"internalType": "uint256",
					"name": "",
					"type": "uint256"
				}
			],
			"stateMutability": "view",
			"type": "function"
		},
		{
			"inputs": [],
			"name": "protocolFeeDestination",
			"outputs": [
				{
					"internalType": "address",
					"name": "",
					"type": "address"
				}
			],
			"stateMutability": "view",
			"type": "function"
		},
		{
			"inputs": [],
			"name": "protocolFeePercent",
			"outputs": [
				{
					"internalType": "uint256",
					"name": "",
					"type": "uint256"
				}
			],
			"stateMutability": "view",
			"type": "function"
		},
		{
			"inputs": [
				{
					"internalType": "uint256",
					"name": "assetId",
					"type": "uint256"
				}
			],
			"name": "remove",
			"outputs": [],
			"stateMutability": "nonpayable",
			"type": "function"
		},
		{
			"inputs": [],
			"name": "renounceOwnership",
			"outputs": [],
			"stateMutability": "nonpayable",
			"type": "function"
		},
		{
			"inputs": [],
			"name": "requiredInitialSSTAmount",
			"outputs": [
				{
					"internalType": "uint256",
					"name": "",
					"type": "uint256"
				}
			],
			"stateMutability": "view",
			"type": "function"
		},
		{
			"inputs": [
				{
					"internalType": "address",
					"name": "from",
					"type": "address"
				},
				{
					"internalType": "address",
					"name": "to",
					"type": "address"
				},
				{
					"internalType": "uint256[]",
					"name": "ids",
					"type": "uint256[]"
				},
				{
					"internalType": "uint256[]",
					"name": "amounts",
					"type": "uint256[]"
				},
				{
					"internalType": "bytes",
					"name": "data",
					"type": "bytes"
				}
			],
			"name": "safeBatchTransferFrom",
			"outputs": [],
			"stateMutability": "nonpayable",
			"type": "function"
		},
		{
			"inputs": [
				{
					"internalType": "address",
					"name": "from",
					"type": "address"
				},
				{
					"internalType": "address",
					"name": "to",
					"type": "address"
				},
				{
					"internalType": "uint256",
					"name": "id",
					"type": "uint256"
				},
				{
					"internalType": "uint256",
					"name": "amount",
					"type": "uint256"
				},
				{
					"internalType": "bytes",
					"name": "data",
					"type": "bytes"
				}
			],
			"name": "safeTransferFrom",
			"outputs": [],
			"stateMutability": "nonpayable",
			"type": "function"
		},
		{
			"inputs": [
				{
					"internalType": "uint256",
					"name": "assetId",
					"type": "uint256"
				},
				{
					"internalType": "uint256",
					"name": "amount",
					"type": "uint256"
				}
			],
			"name": "sell",
			"outputs": [],
			"stateMutability": "nonpayable",
			"type": "function"
		},
		{
			"inputs": [
				{
					"internalType": "address",
					"name": "operator",
					"type": "address"
				},
				{
					"internalType": "bool",
					"name": "approved",
					"type": "bool"
				}
			],
			"name": "setApprovalForAll",
			"outputs": [],
			"stateMutability": "nonpayable",
			"type": "function"
		},
		{
			"inputs": [
				{
					"internalType": "address",
					"name": "_feeDestination",
					"type": "address"
				}
			],
			"name": "setFeeDestination",
			"outputs": [],
			"stateMutability": "nonpayable",
			"type": "function"
		},
		{
			"inputs": [
				{
					"internalType": "uint256",
					"name": "_feePercent",
					"type": "uint256"
				}
			],
			"name": "setProtocolFeePercent",
			"outputs": [],
			"stateMutability": "nonpayable",
			"type": "function"
		},
		{
			"inputs": [
				{
					"internalType": "address",
					"name": "_sstAddress",
					"type": "address"
				}
			],
			"name": "setSSTAddress",
			"outputs": [],
			"stateMutability": "nonpayable",
			"type": "function"
		},
		{
			"inputs": [
				{
					"internalType": "uint256",
					"name": "_feePercent",
					"type": "uint256"
				}
			],
			"name": "setSubjectFeePercent",
			"outputs": [],
			"stateMutability": "nonpayable",
			"type": "function"
		},
		{
			"inputs": [
				{
					"internalType": "uint256",
					"name": "_requiredInitialSSTAmount",
					"type": "uint256"
				}
			],
			"name": "setrequiredInitialSSTAmount",
			"outputs": [],
			"stateMutability": "nonpayable",
			"type": "function"
		},
		{
			"inputs": [],
			"name": "sst",
			"outputs": [
				{
					"internalType": "contract SST",
					"name": "",
					"type": "address"
				}
			],
			"stateMutability": "view",
			"type": "function"
		},
		{
			"inputs": [],
			"name": "subjectFeePercent",
			"outputs": [
				{
					"internalType": "uint256",
					"name": "",
					"type": "uint256"
				}
			],
			"stateMutability": "view",
			"type": "function"
		},
		{
			"inputs": [
				{
					"internalType": "bytes4",
					"name": "interfaceId",
					"type": "bytes4"
				}
			],
			"name": "supportsInterface",
			"outputs": [
				{
					"internalType": "bool",
					"name": "",
					"type": "bool"
				}
			],
			"stateMutability": "view",
			"type": "function"
		},
		{
			"inputs": [
				{
					"internalType": "uint256",
					"name": "",
					"type": "uint256"
				}
			],
			"name": "totalSupply",
			"outputs": [
				{
					"internalType": "uint256",
					"name": "",
					"type": "uint256"
				}
			],
			"stateMutability": "view",
			"type": "function"
		},
		{
			"inputs": [
				{
					"internalType": "address",
					"name": "newOwner",
					"type": "address"
				}
			],
			"name": "transferOwnership",
			"outputs": [],
			"stateMutability": "nonpayable",
			"type": "function"
		},
		{
			"inputs": [
				{
					"internalType": "bytes32",
					"name": "",
					"type": "bytes32"
				}
			],
			"name": "txToAssetId",
			"outputs": [
				{
					"internalType": "uint256",
					"name": "",
					"type": "uint256"
				}
			],
			"stateMutability": "view",
			"type": "function"
		},
		{
			"inputs": [
				{
					"internalType": "uint256",
					"name": "id",
					"type": "uint256"
				}
			],
			"name": "uri",
			"outputs": [
				{
					"internalType": "string",
					"name": "",
					"type": "string"
				}
			],
			"stateMutability": "view",
			"type": "function"
		},
		{
			"inputs": [
				{
					"internalType": "address",
					"name": "",
					"type": "address"
				},
				{
					"internalType": "uint256",
					"name": "",
					"type": "uint256"
				}
			],
			"name": "userAssets",
			"outputs": [
				{
					"internalType": "uint256",
					"name": "",
					"type": "uint256"
				}
			],
			"stateMutability": "view",
			"type": "function"
		}
	]
}