{
	"data": {
		"bytecode": {
			"linkReferences": {
				"sosh/FuzzyMath.sol": {
					"FuzzyMath": [
						{
							"length": 20,
							"start": 4841
						},
						{
							"length": 20,
							"start": 5440
						}
					]
				}
			},
			"object": "608060405234801562000010575f80fd5b5060405162001cab38038062001cab833981016040819052620000339162000296565b878787878787878787878787838360036200004f8382620003f9565b5060046200005e8282620003f9565b5050506200007b620000756200015360201b60201c565b62000157565b600680546001600160a01b0319166001600160a01b0393909316929092179091556008555050600560ff841611801590620000bb57508260ff168460ff16105b620000c4575f80fd5b6040805160808101825260ff958616808252948616602082018190526001600160801b03949094169181018290529190941660609091018190526009805461ffff19169093176101009092029190911762010000600160981b0319166201000090930260ff60901b191692909217600160901b90920291909117905550620004c59a5050505050505050505050565b3390565b600580546001600160a01b038381166001600160a01b0319831681179093556040519116919082907f8be0079c531659141344cd1fd0a4f28419497f9722a3daafe3b4186f6b6457e0905f90a35050565b634e487b7160e01b5f52604160045260245ffd5b5f82601f830112620001cc575f80fd5b81516001600160401b0380821115620001e957620001e9620001a8565b604051601f8301601f19908116603f01168101908282118183101715620002145762000214620001a8565b816040528381526020925086602085880101111562000231575f80fd5b5f91505b8382101562000254578582018301518183018401529082019062000235565b5f602085830101528094505050505092915050565b805160ff811681146200027a575f80fd5b919050565b80516001600160801b03811681146200027a575f80fd5b5f805f805f805f80610100898b031215620002af575f80fd5b88516001600160401b0380821115620002c6575f80fd5b620002d48c838d01620001bc565b995060208b0151915080821115620002ea575f80fd5b50620002f98b828c01620001bc565b60408b015190985090506001600160a01b038116811462000318575f80fd5b60608a015190965094506200033060808a0162000269565b93506200034060a08a0162000269565b92506200035060c08a016200027f565b91506200036060e08a0162000269565b90509295985092959890939650565b600181811c908216806200038457607f821691505b602082108103620003a357634e487b7160e01b5f52602260045260245ffd5b50919050565b601f821115620003f457805f5260205f20601f840160051c81016020851015620003d05750805b601f840160051c820191505b81811015620003f1575f8155600101620003dc565b50505b505050565b81516001600160401b03811115620004155762000415620001a8565b6200042d816200042684546200036f565b84620003a9565b602080601f83116001811462000463575f84156200044b5750858301515b5f19600386901b1c1916600185901b178555620004bd565b5f85815260208120601f198616915b82811015620004935788860151825594840194600190910190840162000472565b5085821015620004b157878501515f19600388901b60f8161c191681555b505060018460011b0185555b505050505050565b6117d880620004d35f395ff3fe608060405234801561000f575f80fd5b50600436106101a1575f3560e01c8063715018a6116100f3578063a457c2d711610093578063b9380b6b1161006e578063b9380b6b14610407578063dd62ed3e1461041a578063f2fde38b1461042d578063f4325d6714610440575f80fd5b8063a457c2d7146103ce578063a9059cbb146103e1578063b921e163146103f4575f80fd5b80638da5cb5b116100ce5780638da5cb5b1461037b57806395d89b41146103a057806398e52f9a146103a8578063a0712d68146103bb575f80fd5b8063715018a6146102b35780637f3c587e146102bb57806383990311146102c3575f80fd5b8063313ce5671161015e5780633ba0b9a9116101395780633ba0b9a91461025d57806342966c68146102655780634c3980e21461027857806370a082311461028b575f80fd5b8063313ce56714610233578063313dab2014610242578063395093511461024a575f80fd5b806306fdde03146101a5578063095ea7b3146101c357806318160ddd146101e657806323b872dd146101f85780632bbdb7e61461020b5780632e1a7d4d1461021e575b5f80fd5b6101ad610451565b6040516101ba919061146d565b60405180910390f35b6101d66101d13660046114d4565b6104e1565b60405190151581526020016101ba565b6002545b6040519081526020016101ba565b6101d66102063660046114fc565b6104fa565b6101ea610219366004611535565b61051d565b61023161022c366004611535565b610527565b005b604051601281526020016101ba565b6101ea6105db565b6101d66102583660046114d4565b61064a565b6101ea61066b565b610231610273366004611535565b61067d565b6101ea610286366004611535565b610797565b6101ea61029936600461154c565b6001600160a01b03165f9081526020819052604090205490565b610231610840565b6007546101ea565b610332604080516080810182525f808252602082018190529181018290526060810191909152506040805160808101825260095460ff80821683526101008204811660208401526001600160801b036201000083041693830193909352600160901b9004909116606082015290565b6040516101ba91905f60808201905060ff835116825260ff60208401511660208301526001600160801b03604084015116604083015260ff606084015116606083015292915050565b6005546001600160a01b03165b6040516001600160a01b0390911681526020016101ba565b6101ad610853565b6102316103b6366004611535565b610862565b6102316103c9366004611535565b61087f565b6101d66103dc3660046114d4565b610925565b6101d66103ef3660046114d4565b61099f565b610231610402366004611535565b6109ac565b6101ea610415366004611535565b6109be565b6101ea61042836600461156c565b6109ec565b61023161043b36600461154c565b610a16565b6006546001600160a01b0316610388565b6060600380546104609061159d565b80601f016020809104026020016040519081016040528092919081815260200182805461048c9061159d565b80156104d75780601f106104ae576101008083540402835291602001916104d7565b820191905f5260205f20905b8154815290600101906020018083116104ba57829003601f168201915b5050505050905090565b5f336104ee818585610a8c565b60019150505b92915050565b5f33610507858285610bb0565b610512858585610c28565b506001949350505050565b5f6104f482610df4565b61052f610fc5565b60075461053a6105db565b61054491906115e9565b81111561054f575f80fd5b6006546001600160a01b03166323b872dd30336040516001600160e01b031960e085901b1681526001600160a01b03928316600482015291166024820152604481018490526064016020604051808303815f875af11580156105b3573d5f803e3d5ffd5b505050506040513d601f19601f820116820180604052508101906105d791906115fc565b5050565b6006546040516370a0823160e01b81523060048201525f916001600160a01b0316906370a0823190602401602060405180830381865afa158015610621573d5f803e3d5ffd5b505050506040513d601f19601f82011682018060405250810190610645919061161b565b905090565b5f336104ee81858561065c83836109ec565b6106669190611632565b610a8c565b5f61064561067860025490565b61101f565b5f61068782610797565b90506106933383611188565b600654604051633950935160e01b8152306004820152602481018390526001600160a01b03909116906339509351906044016020604051808303815f875af11580156106e1573d5f803e3d5ffd5b505050506040513d601f19601f8201168201806040525081019061070591906115fc565b506006546001600160a01b03166323b872dd30336040516001600160e01b031960e085901b1681526001600160a01b03928316600482015291166024820152604481018490526064016020604051808303815f875af115801561076a573d5f803e3d5ffd5b505050506040513d601f19601f8201168201806040525081019061078e91906115fc565b506105d76112cb565b5f6107a160025490565b8211156107f55760405162461bcd60e51b815260206004820152601b60248201527f4552433230446572697665643a206275726e203e20737570706c79000000000060448201526064015b60405180910390fd5b60646108138361080460025490565b61080e91906115e9565b610df4565b61081f61080e60025490565b61082991906115e9565b6008546108369190611645565b6104f4919061165c565b610848610fc5565b6108515f61133b565b565b6060600480546104609061159d565b61086a610fc5565b6108743382611188565b61087c6112cb565b50565b5f610889826109be565b6006549091506001600160a01b03166323b872dd336040516001600160e01b031960e084901b1681526001600160a01b039091166004820152306024820152604481018490526064016020604051808303815f875af11580156108ee573d5f803e3d5ffd5b505050506040513d601f19601f8201168201806040525081019061091291906115fc565b5061091d338361138c565b6105d76112cb565b5f338161093282866109ec565b9050838110156109925760405162461bcd60e51b815260206004820152602560248201527f45524332303a2064656372656173656420616c6c6f77616e63652062656c6f77604482015264207a65726f60d81b60648201526084016107ec565b6105128286868403610a8c565b5f336104ee818585610c28565b6109b4610fc5565b610874338261138c565b5f6109cb61080e60025490565b6109e2836109d860025490565b61080e9190611632565b6104f491906115e9565b6001600160a01b039182165f90815260016020908152604080832093909416825291909152205490565b610a1e610fc5565b6001600160a01b038116610a835760405162461bcd60e51b815260206004820152602660248201527f4f776e61626c653a206e6577206f776e657220697320746865207a65726f206160448201526564647265737360d01b60648201526084016107ec565b61087c8161133b565b6001600160a01b038316610aee5760405162461bcd60e51b8152602060048201526024808201527f45524332303a20617070726f76652066726f6d20746865207a65726f206164646044820152637265737360e01b60648201526084016107ec565b6001600160a01b038216610b4f5760405162461bcd60e51b815260206004820152602260248201527f45524332303a20617070726f766520746f20746865207a65726f206164647265604482015261737360f01b60648201526084016107ec565b6001600160a01b038381165f8181526001602090815260408083209487168084529482529182902085905590518481527f8c5be1e5ebec7d5bd14f71427d1e84f3dd0314c0f7b2291e5b200ac8c7c3b92591015b60405180910390a3505050565b5f610bbb84846109ec565b90505f198114610c225781811015610c155760405162461bcd60e51b815260206004820152601d60248201527f45524332303a20696e73756666696369656e7420616c6c6f77616e636500000060448201526064016107ec565b610c228484848403610a8c565b50505050565b6001600160a01b038316610c8c5760405162461bcd60e51b815260206004820152602560248201527f45524332303a207472616e736665722066726f6d20746865207a65726f206164604482015264647265737360d81b60648201526084016107ec565b6001600160a01b038216610cee5760405162461bcd60e51b815260206004820152602360248201527f45524332303a207472616e7366657220746f20746865207a65726f206164647260448201526265737360e81b60648201526084016107ec565b6001600160a01b0383165f9081526020819052604090205481811015610d655760405162461bcd60e51b815260206004820152602660248201527f45524332303a207472616e7366657220616d6f756e7420657863656564732062604482015265616c616e636560d01b60648201526084016107ec565b6001600160a01b038085165f90815260208190526040808220858503905591851681529081208054849290610d9b908490611632565b92505081905550826001600160a01b0316846001600160a01b03167fddf252ad1be2c89b69c2b068fc378daa952ba7f163c4a11628f55a4df523b3ef84604051610de791815260200190565b60405180910390a3610c22565b5f80610e026012600a61175b565b610e0c908461165c565b6009549091505f9073__$d1ceab9d406991e07aa76e978a779fc730$__9063d2b5a370908490610e469060ff610100820481169116611769565b60095460405160e085901b6001600160e01b0319168152600481019390935260ff91821660248401526101009004166044820152606401602060405180830381865af4158015610e98573d5f803e3d5ffd5b505050506040513d601f19601f82011682018060405250810190610ebc919061161b565b600954909150610ed790600160901b900460ff16600a61175b565b600954610eee9060ff610100820481169116611769565b60095460ff91821691610100820416906001600160801b03620100009091041684610f216006546001600160a01b031690565b6001600160a01b031663313ce5676040518163ffffffff1660e01b8152600401602060405180830381865afa158015610f5c573d5f803e3d5ffd5b505050506040513d601f19601f82011682018060405250810190610f809190611782565b610f8b90600a61175b565b610f959190611645565b610f9f9190611645565b610fa99190611645565b610fb3919061165c565b610fbd919061165c565b949350505050565b6005546001600160a01b031633146108515760405162461bcd60e51b815260206004820181905260248201527f4f776e61626c653a2063616c6c6572206973206e6f7420746865206f776e657260448201526064016107ec565b5f8061102d6012600a61175b565b611037908461165c565b600954604051630d2b5a3760e41b81526004810183905260ff808316602483015261010090920490911660448201529091505f9073__$d1ceab9d406991e07aa76e978a779fc730$__9063d2b5a37090606401602060405180830381865af41580156110a5573d5f803e3d5ffd5b505050506040513d601f19601f820116820180604052508101906110c9919061161b565b6009549091506110e490600160901b900460ff16600a61175b565b6009546001600160801b0362010000909104168261110a6006546001600160a01b031690565b6001600160a01b031663313ce5676040518163ffffffff1660e01b8152600401602060405180830381865afa158015611145573d5f803e3d5ffd5b505050506040513d601f19601f820116820180604052508101906111699190611782565b61117490600a61175b565b61117e9190611645565b610fb39190611645565b6001600160a01b0382166111e85760405162461bcd60e51b815260206004820152602160248201527f45524332303a206275726e2066726f6d20746865207a65726f206164647265736044820152607360f81b60648201526084016107ec565b6001600160a01b0382165f908152602081905260409020548181101561125b5760405162461bcd60e51b815260206004820152602260248201527f45524332303a206275726e20616d6f756e7420657863656564732062616c616e604482015261636560f01b60648201526084016107ec565b6001600160a01b0383165f9081526020819052604081208383039055600280548492906112899084906115e9565b90915550506040518281525f906001600160a01b038516907fddf252ad1be2c89b69c2b068fc378daa952ba7f163c4a11628f55a4df523b3ef90602001610ba3565b5f60646112da61080e60025490565b6008546112e79190611645565b6112f1919061165c565b90507f662bba5204670f2cf469216a8ec814482c75743b43b86b8de4e8dc0cb49976ad33604080516001600160a01b039092168252602082018490520160405180910390a1600755565b600580546001600160a01b038381166001600160a01b0319831681179093556040519116919082907f8be0079c531659141344cd1fd0a4f28419497f9722a3daafe3b4186f6b6457e0905f90a35050565b6105d782826001600160a01b0382166113e75760405162461bcd60e51b815260206004820152601f60248201527f45524332303a206d696e7420746f20746865207a65726f20616464726573730060448201526064016107ec565b8060025f8282546113f89190611632565b90915550506001600160a01b0382165f9081526020819052604081208054839290611424908490611632565b90915550506040518181526001600160a01b038316905f907fddf252ad1be2c89b69c2b068fc378daa952ba7f163c4a11628f55a4df523b3ef9060200160405180910390a35050565b5f602080835283518060208501525f5b818110156114995785810183015185820160400152820161147d565b505f604082860101526040601f19601f8301168501019250505092915050565b80356001600160a01b03811681146114cf575f80fd5b919050565b5f80604083850312156114e5575f80fd5b6114ee836114b9565b946020939093013593505050565b5f805f6060848603121561150e575f80fd5b611517846114b9565b9250611525602085016114b9565b9150604084013590509250925092565b5f60208284031215611545575f80fd5b5035919050565b5f6020828403121561155c575f80fd5b611565826114b9565b9392505050565b5f806040838503121561157d575f80fd5b611586836114b9565b9150611594602084016114b9565b90509250929050565b600181811c908216806115b157607f821691505b6020821081036115cf57634e487b7160e01b5f52602260045260245ffd5b50919050565b634e487b7160e01b5f52601160045260245ffd5b818103818111156104f4576104f46115d5565b5f6020828403121561160c575f80fd5b81518015158114611565575f80fd5b5f6020828403121561162b575f80fd5b5051919050565b808201808211156104f4576104f46115d5565b80820281158282048414176104f4576104f46115d5565b5f8261167657634e487b7160e01b5f52601260045260245ffd5b500490565b600181815b808511156116b557815f190482111561169b5761169b6115d5565b808516156116a857918102915b93841c9390800290611680565b509250929050565b5f826116cb575060016104f4565b816116d757505f6104f4565b81600181146116ed57600281146116f757611713565b60019150506104f4565b60ff841115611708576117086115d5565b50506001821b6104f4565b5060208310610133831016604e8410600b8410161715611736575081810a6104f4565b611740838361167b565b805f1904821115611753576117536115d5565b029392505050565b5f61156560ff8416836116bd565b60ff81811683821601908111156104f4576104f46115d5565b5f60208284031215611792575f80fd5b815160ff81168114611565575f80fdfea26469706673582212209cd4d0fe318110bc8603ab51908277690cf5956084664ca702b1411932e6848c64736f6c63430008180033",
			"opcodes": "PUSH1 0x80 PUSH1 0x40 MSTORE CALLVALUE DUP1 ISZERO PUSH3 0x10 JUMPI PUSH0 DUP1 REVERT JUMPDEST POP PUSH1 0x40 MLOAD PUSH3 0x1CAB CODESIZE SUB DUP1 PUSH3 0x1CAB DUP4 CODECOPY DUP2 ADD PUSH1 0x40 DUP2 SWAP1 MSTORE PUSH3 0x33 SWAP2 PUSH3 0x296 JUMP JUMPDEST DUP8 DUP8 DUP8 DUP8 DUP8 DUP8 DUP8 DUP8 DUP8 DUP8 DUP8 DUP8 DUP4 DUP4 PUSH1 0x3 PUSH3 0x4F DUP4 DUP3 PUSH3 0x3F9 JUMP JUMPDEST POP PUSH1 0x4 PUSH3 0x5E DUP3 DUP3 PUSH3 0x3F9 JUMP JUMPDEST POP POP POP PUSH3 0x7B PUSH3 0x75 PUSH3 0x153 PUSH1 0x20 SHL PUSH1 0x20 SHR JUMP JUMPDEST PUSH3 0x157 JUMP JUMPDEST PUSH1 0x6 DUP1 SLOAD PUSH1 0x1 PUSH1 0x1 PUSH1 0xA0 SHL SUB NOT AND PUSH1 0x1 PUSH1 0x1 PUSH1 0xA0 SHL SUB SWAP4 SWAP1 SWAP4 AND SWAP3 SWAP1 SWAP3 OR SWAP1 SWAP2 SSTORE PUSH1 0x8 SSTORE POP POP PUSH1 0x5 PUSH1 0xFF DUP5 AND GT DUP1 ISZERO SWAP1 PUSH3 0xBB JUMPI POP DUP3 PUSH1 0xFF AND DUP5 PUSH1 0xFF AND LT JUMPDEST PUSH3 0xC4 JUMPI PUSH0 DUP1 REVERT JUMPDEST PUSH1 0x40 DUP1 MLOAD PUSH1 0x80 DUP2 ADD DUP3 MSTORE PUSH1 0xFF SWAP6 DUP7 AND DUP1 DUP3 MSTORE SWAP5 DUP7 AND PUSH1 0x20 DUP3 ADD DUP2 SWAP1 MSTORE PUSH1 0x1 PUSH1 0x1 PUSH1 0x80 SHL SUB SWAP5 SWAP1 SWAP5 AND SWAP2 DUP2 ADD DUP3 SWAP1 MSTORE SWAP2 SWAP1 SWAP5 AND PUSH1 0x60 SWAP1 SWAP2 ADD DUP2 SWAP1 MSTORE PUSH1 0x9 DUP1 SLOAD PUSH2 0xFFFF NOT AND SWAP1 SWAP4 OR PUSH2 0x100 SWAP1 SWAP3 MUL SWAP2 SWAP1 SWAP2 OR PUSH3 0x10000 PUSH1 0x1 PUSH1 0x98 SHL SUB NOT AND PUSH3 0x10000 SWAP1 SWAP4 MUL PUSH1 0xFF PUSH1 0x90 SHL NOT AND SWAP3 SWAP1 SWAP3 OR PUSH1 0x1 PUSH1 0x90 SHL SWAP1 SWAP3 MUL SWAP2 SWAP1 SWAP2 OR SWAP1 SSTORE POP PUSH3 0x4C5 SWAP11 POP POP POP POP POP POP POP POP POP POP POP JUMP JUMPDEST CALLER SWAP1 JUMP JUMPDEST PUSH1 0x5 DUP1 SLOAD PUSH1 0x1 PUSH1 0x1 PUSH1 0xA0 SHL SUB DUP4 DUP2 AND PUSH1 0x1 PUSH1 0x1 PUSH1 0xA0 SHL SUB NOT DUP4 AND DUP2 OR SWAP1 SWAP4 SSTORE PUSH1 0x40 MLOAD SWAP2 AND SWAP2 SWAP1 DUP3 SWAP1 PUSH32 0x8BE0079C531659141344CD1FD0A4F28419497F9722A3DAAFE3B4186F6B6457E0 SWAP1 PUSH0 SWAP1 LOG3 POP POP JUMP JUMPDEST PUSH4 0x4E487B71 PUSH1 0xE0 SHL PUSH0 MSTORE PUSH1 0x41 PUSH1 0x4 MSTORE PUSH1 0x24 PUSH0 REVERT JUMPDEST PUSH0 DUP3 PUSH1 0x1F DUP4 ADD SLT PUSH3 0x1CC JUMPI PUSH0 DUP1 REVERT JUMPDEST DUP2 MLOAD PUSH1 0x1 PUSH1 0x1 PUSH1 0x40 SHL SUB DUP1 DUP3 GT ISZERO PUSH3 0x1E9 JUMPI PUSH3 0x1E9 PUSH3 0x1A8 JUMP JUMPDEST PUSH1 0x40 MLOAD PUSH1 0x1F DUP4 ADD PUSH1 0x1F NOT SWAP1 DUP2 AND PUSH1 0x3F ADD AND DUP2 ADD SWAP1 DUP3 DUP3 GT DUP2 DUP4 LT OR ISZERO PUSH3 0x214 JUMPI PUSH3 0x214 PUSH3 0x1A8 JUMP JUMPDEST DUP2 PUSH1 0x40 MSTORE DUP4 DUP2 MSTORE PUSH1 0x20 SWAP3 POP DUP7 PUSH1 0x20 DUP6 DUP9 ADD ADD GT ISZERO PUSH3 0x231 JUMPI PUSH0 DUP1 REVERT JUMPDEST PUSH0 SWAP2 POP JUMPDEST DUP4 DUP3 LT ISZERO PUSH3 0x254 JUMPI DUP6 DUP3 ADD DUP4 ADD MLOAD DUP2 DUP4 ADD DUP5 ADD MSTORE SWAP1 DUP3 ADD SWAP1 PUSH3 0x235 JUMP JUMPDEST PUSH0 PUSH1 0x20 DUP6 DUP4 ADD ADD MSTORE DUP1 SWAP5 POP POP POP POP POP SWAP3 SWAP2 POP POP JUMP JUMPDEST DUP1 MLOAD PUSH1 0xFF DUP2 AND DUP2 EQ PUSH3 0x27A JUMPI PUSH0 DUP1 REVERT JUMPDEST SWAP2 SWAP1 POP JUMP JUMPDEST DUP1 MLOAD PUSH1 0x1 PUSH1 0x1 PUSH1 0x80 SHL SUB DUP2 AND DUP2 EQ PUSH3 0x27A JUMPI PUSH0 DUP1 REVERT JUMPDEST PUSH0 DUP1 PUSH0 DUP1 PUSH0 DUP1 PUSH0 DUP1 PUSH2 0x100 DUP10 DUP12 SUB SLT ISZERO PUSH3 0x2AF JUMPI PUSH0 DUP1 REVERT JUMPDEST DUP9 MLOAD PUSH1 0x1 PUSH1 0x1 PUSH1 0x40 SHL SUB DUP1 DUP3 GT ISZERO PUSH3 0x2C6 JUMPI PUSH0 DUP1 REVERT JUMPDEST PUSH3 0x2D4 DUP13 DUP4 DUP14 ADD PUSH3 0x1BC JUMP JUMPDEST SWAP10 POP PUSH1 0x20 DUP12 ADD MLOAD SWAP2 POP DUP1 DUP3 GT ISZERO PUSH3 0x2EA JUMPI PUSH0 DUP1 REVERT JUMPDEST POP PUSH3 0x2F9 DUP12 DUP3 DUP13 ADD PUSH3 0x1BC JUMP JUMPDEST PUSH1 0x40 DUP12 ADD MLOAD SWAP1 SWAP9 POP SWAP1 POP PUSH1 0x1 PUSH1 0x1 PUSH1 0xA0 SHL SUB DUP2 AND DUP2 EQ PUSH3 0x318 JUMPI PUSH0 DUP1 REVERT JUMPDEST PUSH1 0x60 DUP11 ADD MLOAD SWAP1 SWAP7 POP SWAP5 POP PUSH3 0x330 PUSH1 0x80 DUP11 ADD PUSH3 0x269 JUMP JUMPDEST SWAP4 POP PUSH3 0x340 PUSH1 0xA0 DUP11 ADD PUSH3 0x269 JUMP JUMPDEST SWAP3 POP PUSH3 0x350 PUSH1 0xC0 DUP11 ADD PUSH3 0x27F JUMP JUMPDEST SWAP2 POP PUSH3 0x360 PUSH1 0xE0 DUP11 ADD PUSH3 0x269 JUMP JUMPDEST SWAP1 POP SWAP3 SWAP6 SWAP9 POP SWAP3 SWAP6 SWAP9 SWAP1 SWAP4 SWAP7 POP JUMP JUMPDEST PUSH1 0x1 DUP2 DUP2 SHR SWAP1 DUP3 AND DUP1 PUSH3 0x384 JUMPI PUSH1 0x7F DUP3 AND SWAP2 POP JUMPDEST PUSH1 0x20 DUP3 LT DUP2 SUB PUSH3 0x3A3 JUMPI PUSH4 0x4E487B71 PUSH1 0xE0 SHL PUSH0 MSTORE PUSH1 0x22 PUSH1 0x4 MSTORE PUSH1 0x24 PUSH0 REVERT JUMPDEST POP SWAP2 SWAP1 POP JUMP JUMPDEST PUSH1 0x1F DUP3 GT ISZERO PUSH3 0x3F4 JUMPI DUP1 PUSH0 MSTORE PUSH1 0x20 PUSH0 KECCAK256 PUSH1 0x1F DUP5 ADD PUSH1 0x5 SHR DUP2 ADD PUSH1 0x20 DUP6 LT ISZERO PUSH3 0x3D0 JUMPI POP DUP1 JUMPDEST PUSH1 0x1F DUP5 ADD PUSH1 0x5 SHR DUP3 ADD SWAP2 POP JUMPDEST DUP2 DUP2 LT ISZERO PUSH3 0x3F1 JUMPI PUSH0 DUP2 SSTORE PUSH1 0x1 ADD PUSH3 0x3DC JUMP JUMPDEST POP POP JUMPDEST POP POP POP JUMP JUMPDEST DUP2 MLOAD PUSH1 0x1 PUSH1 0x1 PUSH1 0x40 SHL SUB DUP2 GT ISZERO PUSH3 0x415 JUMPI PUSH3 0x415 PUSH3 0x1A8 JUMP JUMPDEST PUSH3 0x42D DUP2 PUSH3 0x426 DUP5 SLOAD PUSH3 0x36F JUMP JUMPDEST DUP5 PUSH3 0x3A9 JUMP JUMPDEST PUSH1 0x20 DUP1 PUSH1 0x1F DUP4 GT PUSH1 0x1 DUP2 EQ PUSH3 0x463 JUMPI PUSH0 DUP5 ISZERO PUSH3 0x44B JUMPI POP DUP6 DUP4 ADD MLOAD JUMPDEST PUSH0 NOT PUSH1 0x3 DUP7 SWAP1 SHL SHR NOT AND PUSH1 0x1 DUP6 SWAP1 SHL OR DUP6 SSTORE PUSH3 0x4BD JUMP JUMPDEST PUSH0 DUP6 DUP2 MSTORE PUSH1 0x20 DUP2 KECCAK256 PUSH1 0x1F NOT DUP7 AND SWAP2 JUMPDEST DUP3 DUP2 LT ISZERO PUSH3 0x493 JUMPI DUP9 DUP7 ADD MLOAD DUP3 SSTORE SWAP5 DUP5 ADD SWAP5 PUSH1 0x1 SWAP1 SWAP2 ADD SWAP1 DUP5 ADD PUSH3 0x472 JUMP JUMPDEST POP DUP6 DUP3 LT ISZERO PUSH3 0x4B1 JUMPI DUP8 DUP6 ADD MLOAD PUSH0 NOT PUSH1 0x3 DUP9 SWAP1 SHL PUSH1 0xF8 AND SHR NOT AND DUP2 SSTORE JUMPDEST POP POP PUSH1 0x1 DUP5 PUSH1 0x1 SHL ADD DUP6 SSTORE JUMPDEST POP POP POP POP POP POP JUMP JUMPDEST PUSH2 0x17D8 DUP1 PUSH3 0x4D3 PUSH0 CODECOPY PUSH0 RETURN INVALID PUSH1 0x80 PUSH1 0x40 MSTORE CALLVALUE DUP1 ISZERO PUSH2 0xF JUMPI PUSH0 DUP1 REVERT JUMPDEST POP PUSH1 0x4 CALLDATASIZE LT PUSH2 0x1A1 JUMPI PUSH0 CALLDATALOAD PUSH1 0xE0 SHR DUP1 PUSH4 0x715018A6 GT PUSH2 0xF3 JUMPI DUP1 PUSH4 0xA457C2D7 GT PUSH2 0x93 JUMPI DUP1 PUSH4 0xB9380B6B GT PUSH2 0x6E JUMPI DUP1 PUSH4 0xB9380B6B EQ PUSH2 0x407 JUMPI DUP1 PUSH4 0xDD62ED3E EQ PUSH2 0x41A JUMPI DUP1 PUSH4 0xF2FDE38B EQ PUSH2 0x42D JUMPI DUP1 PUSH4 0xF4325D67 EQ PUSH2 0x440 JUMPI PUSH0 DUP1 REVERT JUMPDEST DUP1 PUSH4 0xA457C2D7 EQ PUSH2 0x3CE JUMPI DUP1 PUSH4 0xA9059CBB EQ PUSH2 0x3E1 JUMPI DUP1 PUSH4 0xB921E163 EQ PUSH2 0x3F4 JUMPI PUSH0 DUP1 REVERT JUMPDEST DUP1 PUSH4 0x8DA5CB5B GT PUSH2 0xCE JUMPI DUP1 PUSH4 0x8DA5CB5B EQ PUSH2 0x37B JUMPI DUP1 PUSH4 0x95D89B41 EQ PUSH2 0x3A0 JUMPI DUP1 PUSH4 0x98E52F9A EQ PUSH2 0x3A8 JUMPI DUP1 PUSH4 0xA0712D68 EQ PUSH2 0x3BB JUMPI PUSH0 DUP1 REVERT JUMPDEST DUP1 PUSH4 0x715018A6 EQ PUSH2 0x2B3 JUMPI DUP1 PUSH4 0x7F3C587E EQ PUSH2 0x2BB JUMPI DUP1 PUSH4 0x83990311 EQ PUSH2 0x2C3 JUMPI PUSH0 DUP1 REVERT JUMPDEST DUP1 PUSH4 0x313CE567 GT PUSH2 0x15E JUMPI DUP1 PUSH4 0x3BA0B9A9 GT PUSH2 0x139 JUMPI DUP1 PUSH4 0x3BA0B9A9 EQ PUSH2 0x25D JUMPI DUP1 PUSH4 0x42966C68 EQ PUSH2 0x265 JUMPI DUP1 PUSH4 0x4C3980E2 EQ PUSH2 0x278 JUMPI DUP1 PUSH4 0x70A08231 EQ PUSH2 0x28B JUMPI PUSH0 DUP1 REVERT JUMPDEST DUP1 PUSH4 0x313CE567 EQ PUSH2 0x233 JUMPI DUP1 PUSH4 0x313DAB20 EQ PUSH2 0x242 JUMPI DUP1 PUSH4 0x39509351 EQ PUSH2 0x24A JUMPI PUSH0 DUP1 REVERT JUMPDEST DUP1 PUSH4 0x6FDDE03 EQ PUSH2 0x1A5 JUMPI DUP1 PUSH4 0x95EA7B3 EQ PUSH2 0x1C3 JUMPI DUP1 PUSH4 0x18160DDD EQ PUSH2 0x1E6 JUMPI DUP1 PUSH4 0x23B872DD EQ PUSH2 0x1F8 JUMPI DUP1 PUSH4 0x2BBDB7E6 EQ PUSH2 0x20B JUMPI DUP1 PUSH4 0x2E1A7D4D EQ PUSH2 0x21E JUMPI JUMPDEST PUSH0 DUP1 REVERT JUMPDEST PUSH2 0x1AD PUSH2 0x451 JUMP JUMPDEST PUSH1 0x40 MLOAD PUSH2 0x1BA SWAP2 SWAP1 PUSH2 0x146D JUMP JUMPDEST PUSH1 0x40 MLOAD DUP1 SWAP2 SUB SWAP1 RETURN JUMPDEST PUSH2 0x1D6 PUSH2 0x1D1 CALLDATASIZE PUSH1 0x4 PUSH2 0x14D4 JUMP JUMPDEST PUSH2 0x4E1 JUMP JUMPDEST PUSH1 0x40 MLOAD SWAP1 ISZERO ISZERO DUP2 MSTORE PUSH1 0x20 ADD PUSH2 0x1BA JUMP JUMPDEST PUSH1 0x2 SLOAD JUMPDEST PUSH1 0x40 MLOAD SWAP1 DUP2 MSTORE PUSH1 0x20 ADD PUSH2 0x1BA JUMP JUMPDEST PUSH2 0x1D6 PUSH2 0x206 CALLDATASIZE PUSH1 0x4 PUSH2 0x14FC JUMP JUMPDEST PUSH2 0x4FA JUMP JUMPDEST PUSH2 0x1EA PUSH2 0x219 CALLDATASIZE PUSH1 0x4 PUSH2 0x1535 JUMP JUMPDEST PUSH2 0x51D JUMP JUMPDEST PUSH2 0x231 PUSH2 0x22C CALLDATASIZE PUSH1 0x4 PUSH2 0x1535 JUMP JUMPDEST PUSH2 0x527 JUMP JUMPDEST STOP JUMPDEST PUSH1 0x40 MLOAD PUSH1 0x12 DUP2 MSTORE PUSH1 0x20 ADD PUSH2 0x1BA JUMP JUMPDEST PUSH2 0x1EA PUSH2 0x5DB JUMP JUMPDEST PUSH2 0x1D6 PUSH2 0x258 CALLDATASIZE PUSH1 0x4 PUSH2 0x14D4 JUMP JUMPDEST PUSH2 0x64A JUMP JUMPDEST PUSH2 0x1EA PUSH2 0x66B JUMP JUMPDEST PUSH2 0x231 PUSH2 0x273 CALLDATASIZE PUSH1 0x4 PUSH2 0x1535 JUMP JUMPDEST PUSH2 0x67D JUMP JUMPDEST PUSH2 0x1EA PUSH2 0x286 CALLDATASIZE PUSH1 0x4 PUSH2 0x1535 JUMP JUMPDEST PUSH2 0x797 JUMP JUMPDEST PUSH2 0x1EA PUSH2 0x299 CALLDATASIZE PUSH1 0x4 PUSH2 0x154C JUMP JUMPDEST PUSH1 0x1 PUSH1 0x1 PUSH1 0xA0 SHL SUB AND PUSH0 SWAP1 DUP2 MSTORE PUSH1 0x20 DUP2 SWAP1 MSTORE PUSH1 0x40 SWAP1 KECCAK256 SLOAD SWAP1 JUMP JUMPDEST PUSH2 0x231 PUSH2 0x840 JUMP JUMPDEST PUSH1 0x7 SLOAD PUSH2 0x1EA JUMP JUMPDEST PUSH2 0x332 PUSH1 0x40 DUP1 MLOAD PUSH1 0x80 DUP2 ADD DUP3 MSTORE PUSH0 DUP1 DUP3 MSTORE PUSH1 0x20 DUP3 ADD DUP2 SWAP1 MSTORE SWAP2 DUP2 ADD DUP3 SWAP1 MSTORE PUSH1 0x60 DUP2 ADD SWAP2 SWAP1 SWAP2 MSTORE POP PUSH1 0x40 DUP1 MLOAD PUSH1 0x80 DUP2 ADD DUP3 MSTORE PUSH1 0x9 SLOAD PUSH1 0xFF DUP1 DUP3 AND DUP4 MSTORE PUSH2 0x100 DUP3 DIV DUP2 AND PUSH1 0x20 DUP5 ADD MSTORE PUSH1 0x1 PUSH1 0x1 PUSH1 0x80 SHL SUB PUSH3 0x10000 DUP4 DIV AND SWAP4 DUP4 ADD SWAP4 SWAP1 SWAP4 MSTORE PUSH1 0x1 PUSH1 0x90 SHL SWAP1 DIV SWAP1 SWAP2 AND PUSH1 0x60 DUP3 ADD MSTORE SWAP1 JUMP JUMPDEST PUSH1 0x40 MLOAD PUSH2 0x1BA SWAP2 SWAP1 PUSH0 PUSH1 0x80 DUP3 ADD SWAP1 POP PUSH1 0xFF DUP4 MLOAD AND DUP3 MSTORE PUSH1 0xFF PUSH1 0x20 DUP5 ADD MLOAD AND PUSH1 0x20 DUP4 ADD MSTORE PUSH1 0x1 PUSH1 0x1 PUSH1 0x80 SHL SUB PUSH1 0x40 DUP5 ADD MLOAD AND PUSH1 0x40 DUP4 ADD MSTORE PUSH1 0xFF PUSH1 0x60 DUP5 ADD MLOAD AND PUSH1 0x60 DUP4 ADD MSTORE SWAP3 SWAP2 POP POP JUMP JUMPDEST PUSH1 0x5 SLOAD PUSH1 0x1 PUSH1 0x1 PUSH1 0xA0 SHL SUB AND JUMPDEST PUSH1 0x40 MLOAD PUSH1 0x1 PUSH1 0x1 PUSH1 0xA0 SHL SUB SWAP1 SWAP2 AND DUP2 MSTORE PUSH1 0x20 ADD PUSH2 0x1BA JUMP JUMPDEST PUSH2 0x1AD PUSH2 0x853 JUMP JUMPDEST PUSH2 0x231 PUSH2 0x3B6 CALLDATASIZE PUSH1 0x4 PUSH2 0x1535 JUMP JUMPDEST PUSH2 0x862 JUMP JUMPDEST PUSH2 0x231 PUSH2 0x3C9 CALLDATASIZE PUSH1 0x4 PUSH2 0x1535 JUMP JUMPDEST PUSH2 0x87F JUMP JUMPDEST PUSH2 0x1D6 PUSH2 0x3DC CALLDATASIZE PUSH1 0x4 PUSH2 0x14D4 JUMP JUMPDEST PUSH2 0x925 JUMP JUMPDEST PUSH2 0x1D6 PUSH2 0x3EF CALLDATASIZE PUSH1 0x4 PUSH2 0x14D4 JUMP JUMPDEST PUSH2 0x99F JUMP JUMPDEST PUSH2 0x231 PUSH2 0x402 CALLDATASIZE PUSH1 0x4 PUSH2 0x1535 JUMP JUMPDEST PUSH2 0x9AC JUMP JUMPDEST PUSH2 0x1EA PUSH2 0x415 CALLDATASIZE PUSH1 0x4 PUSH2 0x1535 JUMP JUMPDEST PUSH2 0x9BE JUMP JUMPDEST PUSH2 0x1EA PUSH2 0x428 CALLDATASIZE PUSH1 0x4 PUSH2 0x156C JUMP JUMPDEST PUSH2 0x9EC JUMP JUMPDEST PUSH2 0x231 PUSH2 0x43B CALLDATASIZE PUSH1 0x4 PUSH2 0x154C JUMP JUMPDEST PUSH2 0xA16 JUMP JUMPDEST PUSH1 0x6 SLOAD PUSH1 0x1 PUSH1 0x1 PUSH1 0xA0 SHL SUB AND PUSH2 0x388 JUMP JUMPDEST PUSH1 0x60 PUSH1 0x3 DUP1 SLOAD PUSH2 0x460 SWAP1 PUSH2 0x159D JUMP JUMPDEST DUP1 PUSH1 0x1F ADD PUSH1 0x20 DUP1 SWAP2 DIV MUL PUSH1 0x20 ADD PUSH1 0x40 MLOAD SWAP1 DUP2 ADD PUSH1 0x40 MSTORE DUP1 SWAP3 SWAP2 SWAP1 DUP2 DUP2 MSTORE PUSH1 0x20 ADD DUP3 DUP1 SLOAD PUSH2 0x48C SWAP1 PUSH2 0x159D JUMP JUMPDEST DUP1 ISZERO PUSH2 0x4D7 JUMPI DUP1 PUSH1 0x1F LT PUSH2 0x4AE JUMPI PUSH2 0x100 DUP1 DUP4 SLOAD DIV MUL DUP4 MSTORE SWAP2 PUSH1 0x20 ADD SWAP2 PUSH2 0x4D7 JUMP JUMPDEST DUP3 ADD SWAP2 SWAP1 PUSH0 MSTORE PUSH1 0x20 PUSH0 KECCAK256 SWAP1 JUMPDEST DUP2 SLOAD DUP2 MSTORE SWAP1 PUSH1 0x1 ADD SWAP1 PUSH1 0x20 ADD DUP1 DUP4 GT PUSH2 0x4BA JUMPI DUP3 SWAP1 SUB PUSH1 0x1F AND DUP3 ADD SWAP2 JUMPDEST POP POP POP POP POP SWAP1 POP SWAP1 JUMP JUMPDEST PUSH0 CALLER PUSH2 0x4EE DUP2 DUP6 DUP6 PUSH2 0xA8C JUMP JUMPDEST PUSH1 0x1 SWAP2 POP POP JUMPDEST SWAP3 SWAP2 POP POP JUMP JUMPDEST PUSH0 CALLER PUSH2 0x507 DUP6 DUP3 DUP6 PUSH2 0xBB0 JUMP JUMPDEST PUSH2 0x512 DUP6 DUP6 DUP6 PUSH2 0xC28 JUMP JUMPDEST POP PUSH1 0x1 SWAP5 SWAP4 POP POP POP POP JUMP JUMPDEST PUSH0 PUSH2 0x4F4 DUP3 PUSH2 0xDF4 JUMP JUMPDEST PUSH2 0x52F PUSH2 0xFC5 JUMP JUMPDEST PUSH1 0x7 SLOAD PUSH2 0x53A PUSH2 0x5DB JUMP JUMPDEST PUSH2 0x544 SWAP2 SWAP1 PUSH2 0x15E9 JUMP JUMPDEST DUP2 GT ISZERO PUSH2 0x54F JUMPI PUSH0 DUP1 REVERT JUMPDEST PUSH1 0x6 SLOAD PUSH1 0x1 PUSH1 0x1 PUSH1 0xA0 SHL SUB AND PUSH4 0x23B872DD ADDRESS CALLER PUSH1 0x40 MLOAD PUSH1 0x1 PUSH1 0x1 PUSH1 0xE0 SHL SUB NOT PUSH1 0xE0 DUP6 SWAP1 SHL AND DUP2 MSTORE PUSH1 0x1 PUSH1 0x1 PUSH1 0xA0 SHL SUB SWAP3 DUP4 AND PUSH1 0x4 DUP3 ADD MSTORE SWAP2 AND PUSH1 0x24 DUP3 ADD MSTORE PUSH1 0x44 DUP2 ADD DUP5 SWAP1 MSTORE PUSH1 0x64 ADD PUSH1 0x20 PUSH1 0x40 MLOAD DUP1 DUP4 SUB DUP2 PUSH0 DUP8 GAS CALL ISZERO DUP1 ISZERO PUSH2 0x5B3 JUMPI RETURNDATASIZE PUSH0 DUP1 RETURNDATACOPY RETURNDATASIZE PUSH0 REVERT JUMPDEST POP POP POP POP PUSH1 0x40 MLOAD RETURNDATASIZE PUSH1 0x1F NOT PUSH1 0x1F DUP3 ADD AND DUP3 ADD DUP1 PUSH1 0x40 MSTORE POP DUP2 ADD SWAP1 PUSH2 0x5D7 SWAP2 SWAP1 PUSH2 0x15FC JUMP JUMPDEST POP POP JUMP JUMPDEST PUSH1 0x6 SLOAD PUSH1 0x40 MLOAD PUSH4 0x70A08231 PUSH1 0xE0 SHL DUP2 MSTORE ADDRESS PUSH1 0x4 DUP3 ADD MSTORE PUSH0 SWAP2 PUSH1 0x1 PUSH1 0x1 PUSH1 0xA0 SHL SUB AND SWAP1 PUSH4 0x70A08231 SWAP1 PUSH1 0x24 ADD PUSH1 0x20 PUSH1 0x40 MLOAD DUP1 DUP4 SUB DUP2 DUP7 GAS STATICCALL ISZERO DUP1 ISZERO PUSH2 0x621 JUMPI RETURNDATASIZE PUSH0 DUP1 RETURNDATACOPY RETURNDATASIZE PUSH0 REVERT JUMPDEST POP POP POP POP PUSH1 0x40 MLOAD RETURNDATASIZE PUSH1 0x1F NOT PUSH1 0x1F DUP3 ADD AND DUP3 ADD DUP1 PUSH1 0x40 MSTORE POP DUP2 ADD SWAP1 PUSH2 0x645 SWAP2 SWAP1 PUSH2 0x161B JUMP JUMPDEST SWAP1 POP SWAP1 JUMP JUMPDEST PUSH0 CALLER PUSH2 0x4EE DUP2 DUP6 DUP6 PUSH2 0x65C DUP4 DUP4 PUSH2 0x9EC JUMP JUMPDEST PUSH2 0x666 SWAP2 SWAP1 PUSH2 0x1632 JUMP JUMPDEST PUSH2 0xA8C JUMP JUMPDEST PUSH0 PUSH2 0x645 PUSH2 0x678 PUSH1 0x2 SLOAD SWAP1 JUMP JUMPDEST PUSH2 0x101F JUMP JUMPDEST PUSH0 PUSH2 0x687 DUP3 PUSH2 0x797 JUMP JUMPDEST SWAP1 POP PUSH2 0x693 CALLER DUP4 PUSH2 0x1188 JUMP JUMPDEST PUSH1 0x6 SLOAD PUSH1 0x40 MLOAD PUSH4 0x39509351 PUSH1 0xE0 SHL DUP2 MSTORE ADDRESS PUSH1 0x4 DUP3 ADD MSTORE PUSH1 0x24 DUP2 ADD DUP4 SWAP1 MSTORE PUSH1 0x1 PUSH1 0x1 PUSH1 0xA0 SHL SUB SWAP1 SWAP2 AND SWAP1 PUSH4 0x39509351 SWAP1 PUSH1 0x44 ADD PUSH1 0x20 PUSH1 0x40 MLOAD DUP1 DUP4 SUB DUP2 PUSH0 DUP8 GAS CALL ISZERO DUP1 ISZERO PUSH2 0x6E1 JUMPI RETURNDATASIZE PUSH0 DUP1 RETURNDATACOPY RETURNDATASIZE PUSH0 REVERT JUMPDEST POP POP POP POP PUSH1 0x40 MLOAD RETURNDATASIZE PUSH1 0x1F NOT PUSH1 0x1F DUP3 ADD AND DUP3 ADD DUP1 PUSH1 0x40 MSTORE POP DUP2 ADD SWAP1 PUSH2 0x705 SWAP2 SWAP1 PUSH2 0x15FC JUMP JUMPDEST POP PUSH1 0x6 SLOAD PUSH1 0x1 PUSH1 0x1 PUSH1 0xA0 SHL SUB AND PUSH4 0x23B872DD ADDRESS CALLER PUSH1 0x40 MLOAD PUSH1 0x1 PUSH1 0x1 PUSH1 0xE0 SHL SUB NOT PUSH1 0xE0 DUP6 SWAP1 SHL AND DUP2 MSTORE PUSH1 0x1 PUSH1 0x1 PUSH1 0xA0 SHL SUB SWAP3 DUP4 AND PUSH1 0x4 DUP3 ADD MSTORE SWAP2 AND PUSH1 0x24 DUP3 ADD MSTORE PUSH1 0x44 DUP2 ADD DUP5 SWAP1 MSTORE PUSH1 0x64 ADD PUSH1 0x20 PUSH1 0x40 MLOAD DUP1 DUP4 SUB DUP2 PUSH0 DUP8 GAS CALL ISZERO DUP1 ISZERO PUSH2 0x76A JUMPI RETURNDATASIZE PUSH0 DUP1 RETURNDATACOPY RETURNDATASIZE PUSH0 REVERT JUMPDEST POP POP POP POP PUSH1 0x40 MLOAD RETURNDATASIZE PUSH1 0x1F NOT PUSH1 0x1F DUP3 ADD AND DUP3 ADD DUP1 PUSH1 0x40 MSTORE POP DUP2 ADD SWAP1 PUSH2 0x78E SWAP2 SWAP1 PUSH2 0x15FC JUMP JUMPDEST POP PUSH2 0x5D7 PUSH2 0x12CB JUMP JUMPDEST PUSH0 PUSH2 0x7A1 PUSH1 0x2 SLOAD SWAP1 JUMP JUMPDEST DUP3 GT ISZERO PUSH2 0x7F5 JUMPI PUSH1 0x40 MLOAD PUSH3 0x461BCD PUSH1 0xE5 SHL DUP2 MSTORE PUSH1 0x20 PUSH1 0x4 DUP3 ADD MSTORE PUSH1 0x1B PUSH1 0x24 DUP3 ADD MSTORE PUSH32 0x4552433230446572697665643A206275726E203E20737570706C790000000000 PUSH1 0x44 DUP3 ADD MSTORE PUSH1 0x64 ADD JUMPDEST PUSH1 0x40 MLOAD DUP1 SWAP2 SUB SWAP1 REVERT JUMPDEST PUSH1 0x64 PUSH2 0x813 DUP4 PUSH2 0x804 PUSH1 0x2 SLOAD SWAP1 JUMP JUMPDEST PUSH2 0x80E SWAP2 SWAP1 PUSH2 0x15E9 JUMP JUMPDEST PUSH2 0xDF4 JUMP JUMPDEST PUSH2 0x81F PUSH2 0x80E PUSH1 0x2 SLOAD SWAP1 JUMP JUMPDEST PUSH2 0x829 SWAP2 SWAP1 PUSH2 0x15E9 JUMP JUMPDEST PUSH1 0x8 SLOAD PUSH2 0x836 SWAP2 SWAP1 PUSH2 0x1645 JUMP JUMPDEST PUSH2 0x4F4 SWAP2 SWAP1 PUSH2 0x165C JUMP JUMPDEST PUSH2 0x848 PUSH2 0xFC5 JUMP JUMPDEST PUSH2 0x851 PUSH0 PUSH2 0x133B JUMP JUMPDEST JUMP JUMPDEST PUSH1 0x60 PUSH1 0x4 DUP1 SLOAD PUSH2 0x460 SWAP1 PUSH2 0x159D JUMP JUMPDEST PUSH2 0x86A PUSH2 0xFC5 JUMP JUMPDEST PUSH2 0x874 CALLER DUP3 PUSH2 0x1188 JUMP JUMPDEST PUSH2 0x87C PUSH2 0x12CB JUMP JUMPDEST POP JUMP JUMPDEST PUSH0 PUSH2 0x889 DUP3 PUSH2 0x9BE JUMP JUMPDEST PUSH1 0x6 SLOAD SWAP1 SWAP2 POP PUSH1 0x1 PUSH1 0x1 PUSH1 0xA0 SHL SUB AND PUSH4 0x23B872DD CALLER PUSH1 0x40 MLOAD PUSH1 0x1 PUSH1 0x1 PUSH1 0xE0 SHL SUB NOT PUSH1 0xE0 DUP5 SWAP1 SHL AND DUP2 MSTORE PUSH1 0x1 PUSH1 0x1 PUSH1 0xA0 SHL SUB SWAP1 SWAP2 AND PUSH1 0x4 DUP3 ADD MSTORE ADDRESS PUSH1 0x24 DUP3 ADD MSTORE PUSH1 0x44 DUP2 ADD DUP5 SWAP1 MSTORE PUSH1 0x64 ADD PUSH1 0x20 PUSH1 0x40 MLOAD DUP1 DUP4 SUB DUP2 PUSH0 DUP8 GAS CALL ISZERO DUP1 ISZERO PUSH2 0x8EE JUMPI RETURNDATASIZE PUSH0 DUP1 RETURNDATACOPY RETURNDATASIZE PUSH0 REVERT JUMPDEST POP POP POP POP PUSH1 0x40 MLOAD RETURNDATASIZE PUSH1 0x1F NOT PUSH1 0x1F DUP3 ADD AND DUP3 ADD DUP1 PUSH1 0x40 MSTORE POP DUP2 ADD SWAP1 PUSH2 0x912 SWAP2 SWAP1 PUSH2 0x15FC JUMP JUMPDEST POP PUSH2 0x91D CALLER DUP4 PUSH2 0x138C JUMP JUMPDEST PUSH2 0x5D7 PUSH2 0x12CB JUMP JUMPDEST PUSH0 CALLER DUP2 PUSH2 0x932 DUP3 DUP7 PUSH2 0x9EC JUMP JUMPDEST SWAP1 POP DUP4 DUP2 LT ISZERO PUSH2 0x992 JUMPI PUSH1 0x40 MLOAD PUSH3 0x461BCD PUSH1 0xE5 SHL DUP2 MSTORE PUSH1 0x20 PUSH1 0x4 DUP3 ADD MSTORE PUSH1 0x25 PUSH1 0x24 DUP3 ADD MSTORE PUSH32 0x45524332303A2064656372656173656420616C6C6F77616E63652062656C6F77 PUSH1 0x44 DUP3 ADD MSTORE PUSH5 0x207A65726F PUSH1 0xD8 SHL PUSH1 0x64 DUP3 ADD MSTORE PUSH1 0x84 ADD PUSH2 0x7EC JUMP JUMPDEST PUSH2 0x512 DUP3 DUP7 DUP7 DUP5 SUB PUSH2 0xA8C JUMP JUMPDEST PUSH0 CALLER PUSH2 0x4EE DUP2 DUP6 DUP6 PUSH2 0xC28 JUMP JUMPDEST PUSH2 0x9B4 PUSH2 0xFC5 JUMP JUMPDEST PUSH2 0x874 CALLER DUP3 PUSH2 0x138C JUMP JUMPDEST PUSH0 PUSH2 0x9CB PUSH2 0x80E PUSH1 0x2 SLOAD SWAP1 JUMP JUMPDEST PUSH2 0x9E2 DUP4 PUSH2 0x9D8 PUSH1 0x2 SLOAD SWAP1 JUMP JUMPDEST PUSH2 0x80E SWAP2 SWAP1 PUSH2 0x1632 JUMP JUMPDEST PUSH2 0x4F4 SWAP2 SWAP1 PUSH2 0x15E9 JUMP JUMPDEST PUSH1 0x1 PUSH1 0x1 PUSH1 0xA0 SHL SUB SWAP2 DUP3 AND PUSH0 SWAP1 DUP2 MSTORE PUSH1 0x1 PUSH1 0x20 SWAP1 DUP2 MSTORE PUSH1 0x40 DUP1 DUP4 KECCAK256 SWAP4 SWAP1 SWAP5 AND DUP3 MSTORE SWAP2 SWAP1 SWAP2 MSTORE KECCAK256 SLOAD SWAP1 JUMP JUMPDEST PUSH2 0xA1E PUSH2 0xFC5 JUMP JUMPDEST PUSH1 0x1 PUSH1 0x1 PUSH1 0xA0 SHL SUB DUP2 AND PUSH2 0xA83 JUMPI PUSH1 0x40 MLOAD PUSH3 0x461BCD PUSH1 0xE5 SHL DUP2 MSTORE PUSH1 0x20 PUSH1 0x4 DUP3 ADD MSTORE PUSH1 0x26 PUSH1 0x24 DUP3 ADD MSTORE PUSH32 0x4F776E61626C653A206E6577206F776E657220697320746865207A65726F2061 PUSH1 0x44 DUP3 ADD MSTORE PUSH6 0x646472657373 PUSH1 0xD0 SHL PUSH1 0x64 DUP3 ADD MSTORE PUSH1 0x84 ADD PUSH2 0x7EC JUMP JUMPDEST PUSH2 0x87C DUP2 PUSH2 0x133B JUMP JUMPDEST PUSH1 0x1 PUSH1 0x1 PUSH1 0xA0 SHL SUB DUP4 AND PUSH2 0xAEE JUMPI PUSH1 0x40 MLOAD PUSH3 0x461BCD PUSH1 0xE5 SHL DUP2 MSTORE PUSH1 0x20 PUSH1 0x4 DUP3 ADD MSTORE PUSH1 0x24 DUP1 DUP3 ADD MSTORE PUSH32 0x45524332303A20617070726F76652066726F6D20746865207A65726F20616464 PUSH1 0x44 DUP3 ADD MSTORE PUSH4 0x72657373 PUSH1 0xE0 SHL PUSH1 0x64 DUP3 ADD MSTORE PUSH1 0x84 ADD PUSH2 0x7EC JUMP JUMPDEST PUSH1 0x1 PUSH1 0x1 PUSH1 0xA0 SHL SUB DUP3 AND PUSH2 0xB4F JUMPI PUSH1 0x40 MLOAD PUSH3 0x461BCD PUSH1 0xE5 SHL DUP2 MSTORE PUSH1 0x20 PUSH1 0x4 DUP3 ADD MSTORE PUSH1 0x22 PUSH1 0x24 DUP3 ADD MSTORE PUSH32 0x45524332303A20617070726F766520746F20746865207A65726F206164647265 PUSH1 0x44 DUP3 ADD MSTORE PUSH2 0x7373 PUSH1 0xF0 SHL PUSH1 0x64 DUP3 ADD MSTORE PUSH1 0x84 ADD PUSH2 0x7EC JUMP JUMPDEST PUSH1 0x1 PUSH1 0x1 PUSH1 0xA0 SHL SUB DUP4 DUP2 AND PUSH0 DUP2 DUP2 MSTORE PUSH1 0x1 PUSH1 0x20 SWAP1 DUP2 MSTORE PUSH1 0x40 DUP1 DUP4 KECCAK256 SWAP5 DUP8 AND DUP1 DUP5 MSTORE SWAP5 DUP3 MSTORE SWAP2 DUP3 SWAP1 KECCAK256 DUP6 SWAP1 SSTORE SWAP1 MLOAD DUP5 DUP2 MSTORE PUSH32 0x8C5BE1E5EBEC7D5BD14F71427D1E84F3DD0314C0F7B2291E5B200AC8C7C3B925 SWAP2 ADD JUMPDEST PUSH1 0x40 MLOAD DUP1 SWAP2 SUB SWAP1 LOG3 POP POP POP JUMP JUMPDEST PUSH0 PUSH2 0xBBB DUP5 DUP5 PUSH2 0x9EC JUMP JUMPDEST SWAP1 POP PUSH0 NOT DUP2 EQ PUSH2 0xC22 JUMPI DUP2 DUP2 LT ISZERO PUSH2 0xC15 JUMPI PUSH1 0x40 MLOAD PUSH3 0x461BCD PUSH1 0xE5 SHL DUP2 MSTORE PUSH1 0x20 PUSH1 0x4 DUP3 ADD MSTORE PUSH1 0x1D PUSH1 0x24 DUP3 ADD MSTORE PUSH32 0x45524332303A20696E73756666696369656E7420616C6C6F77616E6365000000 PUSH1 0x44 DUP3 ADD MSTORE PUSH1 0x64 ADD PUSH2 0x7EC JUMP JUMPDEST PUSH2 0xC22 DUP5 DUP5 DUP5 DUP5 SUB PUSH2 0xA8C JUMP JUMPDEST POP POP POP POP JUMP JUMPDEST PUSH1 0x1 PUSH1 0x1 PUSH1 0xA0 SHL SUB DUP4 AND PUSH2 0xC8C JUMPI PUSH1 0x40 MLOAD PUSH3 0x461BCD PUSH1 0xE5 SHL DUP2 MSTORE PUSH1 0x20 PUSH1 0x4 DUP3 ADD MSTORE PUSH1 0x25 PUSH1 0x24 DUP3 ADD MSTORE PUSH32 0x45524332303A207472616E736665722066726F6D20746865207A65726F206164 PUSH1 0x44 DUP3 ADD MSTORE PUSH5 0x6472657373 PUSH1 0xD8 SHL PUSH1 0x64 DUP3 ADD MSTORE PUSH1 0x84 ADD PUSH2 0x7EC JUMP JUMPDEST PUSH1 0x1 PUSH1 0x1 PUSH1 0xA0 SHL SUB DUP3 AND PUSH2 0xCEE JUMPI PUSH1 0x40 MLOAD PUSH3 0x461BCD PUSH1 0xE5 SHL DUP2 MSTORE PUSH1 0x20 PUSH1 0x4 DUP3 ADD MSTORE PUSH1 0x23 PUSH1 0x24 DUP3 ADD MSTORE PUSH32 0x45524332303A207472616E7366657220746F20746865207A65726F2061646472 PUSH1 0x44 DUP3 ADD MSTORE PUSH3 0x657373 PUSH1 0xE8 SHL PUSH1 0x64 DUP3 ADD MSTORE PUSH1 0x84 ADD PUSH2 0x7EC JUMP JUMPDEST PUSH1 0x1 PUSH1 0x1 PUSH1 0xA0 SHL SUB DUP4 AND PUSH0 SWAP1 DUP2 MSTORE PUSH1 0x20 DUP2 SWAP1 MSTORE PUSH1 0x40 SWAP1 KECCAK256 SLOAD DUP2 DUP2 LT ISZERO PUSH2 0xD65 JUMPI PUSH1 0x40 MLOAD PUSH3 0x461BCD PUSH1 0xE5 SHL DUP2 MSTORE PUSH1 0x20 PUSH1 0x4 DUP3 ADD MSTORE PUSH1 0x26 PUSH1 0x24 DUP3 ADD MSTORE PUSH32 0x45524332303A207472616E7366657220616D6F756E7420657863656564732062 PUSH1 0x44 DUP3 ADD MSTORE PUSH6 0x616C616E6365 PUSH1 0xD0 SHL PUSH1 0x64 DUP3 ADD MSTORE PUSH1 0x84 ADD PUSH2 0x7EC JUMP JUMPDEST PUSH1 0x1 PUSH1 0x1 PUSH1 0xA0 SHL SUB DUP1 DUP6 AND PUSH0 SWAP1 DUP2 MSTORE PUSH1 0x20 DUP2 SWAP1 MSTORE PUSH1 0x40 DUP1 DUP3 KECCAK256 DUP6 DUP6 SUB SWAP1 SSTORE SWAP2 DUP6 AND DUP2 MSTORE SWAP1 DUP2 KECCAK256 DUP1 SLOAD DUP5 SWAP3 SWAP1 PUSH2 0xD9B SWAP1 DUP5 SWAP1 PUSH2 0x1632 JUMP JUMPDEST SWAP3 POP POP DUP2 SWAP1 SSTORE POP DUP3 PUSH1 0x1 PUSH1 0x1 PUSH1 0xA0 SHL SUB AND DUP5 PUSH1 0x1 PUSH1 0x1 PUSH1 0xA0 SHL SUB AND PUSH32 0xDDF252AD1BE2C89B69C2B068FC378DAA952BA7F163C4A11628F55A4DF523B3EF DUP5 PUSH1 0x40 MLOAD PUSH2 0xDE7 SWAP2 DUP2 MSTORE PUSH1 0x20 ADD SWAP1 JUMP JUMPDEST PUSH1 0x40 MLOAD DUP1 SWAP2 SUB SWAP1 LOG3 PUSH2 0xC22 JUMP JUMPDEST PUSH0 DUP1 PUSH2 0xE02 PUSH1 0x12 PUSH1 0xA PUSH2 0x175B JUMP JUMPDEST PUSH2 0xE0C SWAP1 DUP5 PUSH2 0x165C JUMP JUMPDEST PUSH1 0x9 SLOAD SWAP1 SWAP2 POP PUSH0 SWAP1 PUSH20 0x0 SWAP1 PUSH4 0xD2B5A370 SWAP1 DUP5 SWAP1 PUSH2 0xE46 SWAP1 PUSH1 0xFF PUSH2 0x100 DUP3 DIV DUP2 AND SWAP2 AND PUSH2 0x1769 JUMP JUMPDEST PUSH1 0x9 SLOAD PUSH1 0x40 MLOAD PUSH1 0xE0 DUP6 SWAP1 SHL PUSH1 0x1 PUSH1 0x1 PUSH1 0xE0 SHL SUB NOT AND DUP2 MSTORE PUSH1 0x4 DUP2 ADD SWAP4 SWAP1 SWAP4 MSTORE PUSH1 0xFF SWAP2 DUP3 AND PUSH1 0x24 DUP5 ADD MSTORE PUSH2 0x100 SWAP1 DIV AND PUSH1 0x44 DUP3 ADD MSTORE PUSH1 0x64 ADD PUSH1 0x20 PUSH1 0x40 MLOAD DUP1 DUP4 SUB DUP2 DUP7 GAS DELEGATECALL ISZERO DUP1 ISZERO PUSH2 0xE98 JUMPI RETURNDATASIZE PUSH0 DUP1 RETURNDATACOPY RETURNDATASIZE PUSH0 REVERT JUMPDEST POP POP POP POP PUSH1 0x40 MLOAD RETURNDATASIZE PUSH1 0x1F NOT PUSH1 0x1F DUP3 ADD AND DUP3 ADD DUP1 PUSH1 0x40 MSTORE POP DUP2 ADD SWAP1 PUSH2 0xEBC SWAP2 SWAP1 PUSH2 0x161B JUMP JUMPDEST PUSH1 0x9 SLOAD SWAP1 SWAP2 POP PUSH2 0xED7 SWAP1 PUSH1 0x1 PUSH1 0x90 SHL SWAP1 DIV PUSH1 0xFF AND PUSH1 0xA PUSH2 0x175B JUMP JUMPDEST PUSH1 0x9 SLOAD PUSH2 0xEEE SWAP1 PUSH1 0xFF PUSH2 0x100 DUP3 DIV DUP2 AND SWAP2 AND PUSH2 0x1769 JUMP JUMPDEST PUSH1 0x9 SLOAD PUSH1 0xFF SWAP2 DUP3 AND SWAP2 PUSH2 0x100 DUP3 DIV AND SWAP1 PUSH1 0x1 PUSH1 0x1 PUSH1 0x80 SHL SUB PUSH3 0x10000 SWAP1 SWAP2 DIV AND DUP5 PUSH2 0xF21 PUSH1 0x6 SLOAD PUSH1 0x1 PUSH1 0x1 PUSH1 0xA0 SHL SUB AND SWAP1 JUMP JUMPDEST PUSH1 0x1 PUSH1 0x1 PUSH1 0xA0 SHL SUB AND PUSH4 0x313CE567 PUSH1 0x40 MLOAD DUP2 PUSH4 0xFFFFFFFF AND PUSH1 0xE0 SHL DUP2 MSTORE PUSH1 0x4 ADD PUSH1 0x20 PUSH1 0x40 MLOAD DUP1 DUP4 SUB DUP2 DUP7 GAS STATICCALL ISZERO DUP1 ISZERO PUSH2 0xF5C JUMPI RETURNDATASIZE PUSH0 DUP1 RETURNDATACOPY RETURNDATASIZE PUSH0 REVERT JUMPDEST POP POP POP POP PUSH1 0x40 MLOAD RETURNDATASIZE PUSH1 0x1F NOT PUSH1 0x1F DUP3 ADD AND DUP3 ADD DUP1 PUSH1 0x40 MSTORE POP DUP2 ADD SWAP1 PUSH2 0xF80 SWAP2 SWAP1 PUSH2 0x1782 JUMP JUMPDEST PUSH2 0xF8B SWAP1 PUSH1 0xA PUSH2 0x175B JUMP JUMPDEST PUSH2 0xF95 SWAP2 SWAP1 PUSH2 0x1645 JUMP JUMPDEST PUSH2 0xF9F SWAP2 SWAP1 PUSH2 0x1645 JUMP JUMPDEST PUSH2 0xFA9 SWAP2 SWAP1 PUSH2 0x1645 JUMP JUMPDEST PUSH2 0xFB3 SWAP2 SWAP1 PUSH2 0x165C JUMP JUMPDEST PUSH2 0xFBD SWAP2 SWAP1 PUSH2 0x165C JUMP JUMPDEST SWAP5 SWAP4 POP POP POP POP JUMP JUMPDEST PUSH1 0x5 SLOAD PUSH1 0x1 PUSH1 0x1 PUSH1 0xA0 SHL SUB AND CALLER EQ PUSH2 0x851 JUMPI PUSH1 0x40 MLOAD PUSH3 0x461BCD PUSH1 0xE5 SHL DUP2 MSTORE PUSH1 0x20 PUSH1 0x4 DUP3 ADD DUP2 SWAP1 MSTORE PUSH1 0x24 DUP3 ADD MSTORE PUSH32 0x4F776E61626C653A2063616C6C6572206973206E6F7420746865206F776E6572 PUSH1 0x44 DUP3 ADD MSTORE PUSH1 0x64 ADD PUSH2 0x7EC JUMP JUMPDEST PUSH0 DUP1 PUSH2 0x102D PUSH1 0x12 PUSH1 0xA PUSH2 0x175B JUMP JUMPDEST PUSH2 0x1037 SWAP1 DUP5 PUSH2 0x165C JUMP JUMPDEST PUSH1 0x9 SLOAD PUSH1 0x40 MLOAD PUSH4 0xD2B5A37 PUSH1 0xE4 SHL DUP2 MSTORE PUSH1 0x4 DUP2 ADD DUP4 SWAP1 MSTORE PUSH1 0xFF DUP1 DUP4 AND PUSH1 0x24 DUP4 ADD MSTORE PUSH2 0x100 SWAP1 SWAP3 DIV SWAP1 SWAP2 AND PUSH1 0x44 DUP3 ADD MSTORE SWAP1 SWAP2 POP PUSH0 SWAP1 PUSH20 0x0 SWAP1 PUSH4 0xD2B5A370 SWAP1 PUSH1 0x64 ADD PUSH1 0x20 PUSH1 0x40 MLOAD DUP1 DUP4 SUB DUP2 DUP7 GAS DELEGATECALL ISZERO DUP1 ISZERO PUSH2 0x10A5 JUMPI RETURNDATASIZE PUSH0 DUP1 RETURNDATACOPY RETURNDATASIZE PUSH0 REVERT JUMPDEST POP POP POP POP PUSH1 0x40 MLOAD RETURNDATASIZE PUSH1 0x1F NOT PUSH1 0x1F DUP3 ADD AND DUP3 ADD DUP1 PUSH1 0x40 MSTORE POP DUP2 ADD SWAP1 PUSH2 0x10C9 SWAP2 SWAP1 PUSH2 0x161B JUMP JUMPDEST PUSH1 0x9 SLOAD SWAP1 SWAP2 POP PUSH2 0x10E4 SWAP1 PUSH1 0x1 PUSH1 0x90 SHL SWAP1 DIV PUSH1 0xFF AND PUSH1 0xA PUSH2 0x175B JUMP JUMPDEST PUSH1 0x9 SLOAD PUSH1 0x1 PUSH1 0x1 PUSH1 0x80 SHL SUB PUSH3 0x10000 SWAP1 SWAP2 DIV AND DUP3 PUSH2 0x110A PUSH1 0x6 SLOAD PUSH1 0x1 PUSH1 0x1 PUSH1 0xA0 SHL SUB AND SWAP1 JUMP JUMPDEST PUSH1 0x1 PUSH1 0x1 PUSH1 0xA0 SHL SUB AND PUSH4 0x313CE567 PUSH1 0x40 MLOAD DUP2 PUSH4 0xFFFFFFFF AND PUSH1 0xE0 SHL DUP2 MSTORE PUSH1 0x4 ADD PUSH1 0x20 PUSH1 0x40 MLOAD DUP1 DUP4 SUB DUP2 DUP7 GAS STATICCALL ISZERO DUP1 ISZERO PUSH2 0x1145 JUMPI RETURNDATASIZE PUSH0 DUP1 RETURNDATACOPY RETURNDATASIZE PUSH0 REVERT JUMPDEST POP POP POP POP PUSH1 0x40 MLOAD RETURNDATASIZE PUSH1 0x1F NOT PUSH1 0x1F DUP3 ADD AND DUP3 ADD DUP1 PUSH1 0x40 MSTORE POP DUP2 ADD SWAP1 PUSH2 0x1169 SWAP2 SWAP1 PUSH2 0x1782 JUMP JUMPDEST PUSH2 0x1174 SWAP1 PUSH1 0xA PUSH2 0x175B JUMP JUMPDEST PUSH2 0x117E SWAP2 SWAP1 PUSH2 0x1645 JUMP JUMPDEST PUSH2 0xFB3 SWAP2 SWAP1 PUSH2 0x1645 JUMP JUMPDEST PUSH1 0x1 PUSH1 0x1 PUSH1 0xA0 SHL SUB DUP3 AND PUSH2 0x11E8 JUMPI PUSH1 0x40 MLOAD PUSH3 0x461BCD PUSH1 0xE5 SHL DUP2 MSTORE PUSH1 0x20 PUSH1 0x4 DUP3 ADD MSTORE PUSH1 0x21 PUSH1 0x24 DUP3 ADD MSTORE PUSH32 0x45524332303A206275726E2066726F6D20746865207A65726F20616464726573 PUSH1 0x44 DUP3 ADD MSTORE PUSH1 0x73 PUSH1 0xF8 SHL PUSH1 0x64 DUP3 ADD MSTORE PUSH1 0x84 ADD PUSH2 0x7EC JUMP JUMPDEST PUSH1 0x1 PUSH1 0x1 PUSH1 0xA0 SHL SUB DUP3 AND PUSH0 SWAP1 DUP2 MSTORE PUSH1 0x20 DUP2 SWAP1 MSTORE PUSH1 0x40 SWAP1 KECCAK256 SLOAD DUP2 DUP2 LT ISZERO PUSH2 0x125B JUMPI PUSH1 0x40 MLOAD PUSH3 0x461BCD PUSH1 0xE5 SHL DUP2 MSTORE PUSH1 0x20 PUSH1 0x4 DUP3 ADD MSTORE PUSH1 0x22 PUSH1 0x24 DUP3 ADD MSTORE PUSH32 0x45524332303A206275726E20616D6F756E7420657863656564732062616C616E PUSH1 0x44 DUP3 ADD MSTORE PUSH2 0x6365 PUSH1 0xF0 SHL PUSH1 0x64 DUP3 ADD MSTORE PUSH1 0x84 ADD PUSH2 0x7EC JUMP JUMPDEST PUSH1 0x1 PUSH1 0x1 PUSH1 0xA0 SHL SUB DUP4 AND PUSH0 SWAP1 DUP2 MSTORE PUSH1 0x20 DUP2 SWAP1 MSTORE PUSH1 0x40 DUP2 KECCAK256 DUP4 DUP4 SUB SWAP1 SSTORE PUSH1 0x2 DUP1 SLOAD DUP5 SWAP3 SWAP1 PUSH2 0x1289 SWAP1 DUP5 SWAP1 PUSH2 0x15E9 JUMP JUMPDEST SWAP1 SWAP2 SSTORE POP POP PUSH1 0x40 MLOAD DUP3 DUP2 MSTORE PUSH0 SWAP1 PUSH1 0x1 PUSH1 0x1 PUSH1 0xA0 SHL SUB DUP6 AND SWAP1 PUSH32 0xDDF252AD1BE2C89B69C2B068FC378DAA952BA7F163C4A11628F55A4DF523B3EF SWAP1 PUSH1 0x20 ADD PUSH2 0xBA3 JUMP JUMPDEST PUSH0 PUSH1 0x64 PUSH2 0x12DA PUSH2 0x80E PUSH1 0x2 SLOAD SWAP1 JUMP JUMPDEST PUSH1 0x8 SLOAD PUSH2 0x12E7 SWAP2 SWAP1 PUSH2 0x1645 JUMP JUMPDEST PUSH2 0x12F1 SWAP2 SWAP1 PUSH2 0x165C JUMP JUMPDEST SWAP1 POP PUSH32 0x662BBA5204670F2CF469216A8EC814482C75743B43B86B8DE4E8DC0CB49976AD CALLER PUSH1 0x40 DUP1 MLOAD PUSH1 0x1 PUSH1 0x1 PUSH1 0xA0 SHL SUB SWAP1 SWAP3 AND DUP3 MSTORE PUSH1 0x20 DUP3 ADD DUP5 SWAP1 MSTORE ADD PUSH1 0x40 MLOAD DUP1 SWAP2 SUB SWAP1 LOG1 PUSH1 0x7 SSTORE JUMP JUMPDEST PUSH1 0x5 DUP1 SLOAD PUSH1 0x1 PUSH1 0x1 PUSH1 0xA0 SHL SUB DUP4 DUP2 AND PUSH1 0x1 PUSH1 0x1 PUSH1 0xA0 SHL SUB NOT DUP4 AND DUP2 OR SWAP1 SWAP4 SSTORE PUSH1 0x40 MLOAD SWAP2 AND SWAP2 SWAP1 DUP3 SWAP1 PUSH32 0x8BE0079C531659141344CD1FD0A4F28419497F9722A3DAAFE3B4186F6B6457E0 SWAP1 PUSH0 SWAP1 LOG3 POP POP JUMP JUMPDEST PUSH2 0x5D7 DUP3 DUP3 PUSH1 0x1 PUSH1 0x1 PUSH1 0xA0 SHL SUB DUP3 AND PUSH2 0x13E7 JUMPI PUSH1 0x40 MLOAD PUSH3 0x461BCD PUSH1 0xE5 SHL DUP2 MSTORE PUSH1 0x20 PUSH1 0x4 DUP3 ADD MSTORE PUSH1 0x1F PUSH1 0x24 DUP3 ADD MSTORE PUSH32 0x45524332303A206D696E7420746F20746865207A65726F206164647265737300 PUSH1 0x44 DUP3 ADD MSTORE PUSH1 0x64 ADD PUSH2 0x7EC JUMP JUMPDEST DUP1 PUSH1 0x2 PUSH0 DUP3 DUP3 SLOAD PUSH2 0x13F8 SWAP2 SWAP1 PUSH2 0x1632 JUMP JUMPDEST SWAP1 SWAP2 SSTORE POP POP PUSH1 0x1 PUSH1 0x1 PUSH1 0xA0 SHL SUB DUP3 AND PUSH0 SWAP1 DUP2 MSTORE PUSH1 0x20 DUP2 SWAP1 MSTORE PUSH1 0x40 DUP2 KECCAK256 DUP1 SLOAD DUP4 SWAP3 SWAP1 PUSH2 0x1424 SWAP1 DUP5 SWAP1 PUSH2 0x1632 JUMP JUMPDEST SWAP1 SWAP2 SSTORE POP POP PUSH1 0x40 MLOAD DUP2 DUP2 MSTORE PUSH1 0x1 PUSH1 0x1 PUSH1 0xA0 SHL SUB DUP4 AND SWAP1 PUSH0 SWAP1 PUSH32 0xDDF252AD1BE2C89B69C2B068FC378DAA952BA7F163C4A11628F55A4DF523B3EF SWAP1 PUSH1 0x20 ADD PUSH1 0x40 MLOAD DUP1 SWAP2 SUB SWAP1 LOG3 POP POP JUMP JUMPDEST PUSH0 PUSH1 0x20 DUP1 DUP4 MSTORE DUP4 MLOAD DUP1 PUSH1 0x20 DUP6 ADD MSTORE PUSH0 JUMPDEST DUP2 DUP2 LT ISZERO PUSH2 0x1499 JUMPI DUP6 DUP2 ADD DUP4 ADD MLOAD DUP6 DUP3 ADD PUSH1 0x40 ADD MSTORE DUP3 ADD PUSH2 0x147D JUMP JUMPDEST POP PUSH0 PUSH1 0x40 DUP3 DUP7 ADD ADD MSTORE PUSH1 0x40 PUSH1 0x1F NOT PUSH1 0x1F DUP4 ADD AND DUP6 ADD ADD SWAP3 POP POP POP SWAP3 SWAP2 POP POP JUMP JUMPDEST DUP1 CALLDATALOAD PUSH1 0x1 PUSH1 0x1 PUSH1 0xA0 SHL SUB DUP2 AND DUP2 EQ PUSH2 0x14CF JUMPI PUSH0 DUP1 REVERT JUMPDEST SWAP2 SWAP1 POP JUMP JUMPDEST PUSH0 DUP1 PUSH1 0x40 DUP4 DUP6 SUB SLT ISZERO PUSH2 0x14E5 JUMPI PUSH0 DUP1 REVERT JUMPDEST PUSH2 0x14EE DUP4 PUSH2 0x14B9 JUMP JUMPDEST SWAP5 PUSH1 0x20 SWAP4 SWAP1 SWAP4 ADD CALLDATALOAD SWAP4 POP POP POP JUMP JUMPDEST PUSH0 DUP1 PUSH0 PUSH1 0x60 DUP5 DUP7 SUB SLT ISZERO PUSH2 0x150E JUMPI PUSH0 DUP1 REVERT JUMPDEST PUSH2 0x1517 DUP5 PUSH2 0x14B9 JUMP JUMPDEST SWAP3 POP PUSH2 0x1525 PUSH1 0x20 DUP6 ADD PUSH2 0x14B9 JUMP JUMPDEST SWAP2 POP PUSH1 0x40 DUP5 ADD CALLDATALOAD SWAP1 POP SWAP3 POP SWAP3 POP SWAP3 JUMP JUMPDEST PUSH0 PUSH1 0x20 DUP3 DUP5 SUB SLT ISZERO PUSH2 0x1545 JUMPI PUSH0 DUP1 REVERT JUMPDEST POP CALLDATALOAD SWAP2 SWAP1 POP JUMP JUMPDEST PUSH0 PUSH1 0x20 DUP3 DUP5 SUB SLT ISZERO PUSH2 0x155C JUMPI PUSH0 DUP1 REVERT JUMPDEST PUSH2 0x1565 DUP3 PUSH2 0x14B9 JUMP JUMPDEST SWAP4 SWAP3 POP POP POP JUMP JUMPDEST PUSH0 DUP1 PUSH1 0x40 DUP4 DUP6 SUB SLT ISZERO PUSH2 0x157D JUMPI PUSH0 DUP1 REVERT JUMPDEST PUSH2 0x1586 DUP4 PUSH2 0x14B9 JUMP JUMPDEST SWAP2 POP PUSH2 0x1594 PUSH1 0x20 DUP5 ADD PUSH2 0x14B9 JUMP JUMPDEST SWAP1 POP SWAP3 POP SWAP3 SWAP1 POP JUMP JUMPDEST PUSH1 0x1 DUP2 DUP2 SHR SWAP1 DUP3 AND DUP1 PUSH2 0x15B1 JUMPI PUSH1 0x7F DUP3 AND SWAP2 POP JUMPDEST PUSH1 0x20 DUP3 LT DUP2 SUB PUSH2 0x15CF JUMPI PUSH4 0x4E487B71 PUSH1 0xE0 SHL PUSH0 MSTORE PUSH1 0x22 PUSH1 0x4 MSTORE PUSH1 0x24 PUSH0 REVERT JUMPDEST POP SWAP2 SWAP1 POP JUMP JUMPDEST PUSH4 0x4E487B71 PUSH1 0xE0 SHL PUSH0 MSTORE PUSH1 0x11 PUSH1 0x4 MSTORE PUSH1 0x24 PUSH0 REVERT JUMPDEST DUP2 DUP2 SUB DUP2 DUP2 GT ISZERO PUSH2 0x4F4 JUMPI PUSH2 0x4F4 PUSH2 0x15D5 JUMP JUMPDEST PUSH0 PUSH1 0x20 DUP3 DUP5 SUB SLT ISZERO PUSH2 0x160C JUMPI PUSH0 DUP1 REVERT JUMPDEST DUP2 MLOAD DUP1 ISZERO ISZERO DUP2 EQ PUSH2 0x1565 JUMPI PUSH0 DUP1 REVERT JUMPDEST PUSH0 PUSH1 0x20 DUP3 DUP5 SUB SLT ISZERO PUSH2 0x162B JUMPI PUSH0 DUP1 REVERT JUMPDEST POP MLOAD SWAP2 SWAP1 POP JUMP JUMPDEST DUP1 DUP3 ADD DUP1 DUP3 GT ISZERO PUSH2 0x4F4 JUMPI PUSH2 0x4F4 PUSH2 0x15D5 JUMP JUMPDEST DUP1 DUP3 MUL DUP2 ISZERO DUP3 DUP3 DIV DUP5 EQ OR PUSH2 0x4F4 JUMPI PUSH2 0x4F4 PUSH2 0x15D5 JUMP JUMPDEST PUSH0 DUP3 PUSH2 0x1676 JUMPI PUSH4 0x4E487B71 PUSH1 0xE0 SHL PUSH0 MSTORE PUSH1 0x12 PUSH1 0x4 MSTORE PUSH1 0x24 PUSH0 REVERT JUMPDEST POP DIV SWAP1 JUMP JUMPDEST PUSH1 0x1 DUP2 DUP2 JUMPDEST DUP1 DUP6 GT ISZERO PUSH2 0x16B5 JUMPI DUP2 PUSH0 NOT DIV DUP3 GT ISZERO PUSH2 0x169B JUMPI PUSH2 0x169B PUSH2 0x15D5 JUMP JUMPDEST DUP1 DUP6 AND ISZERO PUSH2 0x16A8 JUMPI SWAP2 DUP2 MUL SWAP2 JUMPDEST SWAP4 DUP5 SHR SWAP4 SWAP1 DUP1 MUL SWAP1 PUSH2 0x1680 JUMP JUMPDEST POP SWAP3 POP SWAP3 SWAP1 POP JUMP JUMPDEST PUSH0 DUP3 PUSH2 0x16CB JUMPI POP PUSH1 0x1 PUSH2 0x4F4 JUMP JUMPDEST DUP2 PUSH2 0x16D7 JUMPI POP PUSH0 PUSH2 0x4F4 JUMP JUMPDEST DUP2 PUSH1 0x1 DUP2 EQ PUSH2 0x16ED JUMPI PUSH1 0x2 DUP2 EQ PUSH2 0x16F7 JUMPI PUSH2 0x1713 JUMP JUMPDEST PUSH1 0x1 SWAP2 POP POP PUSH2 0x4F4 JUMP JUMPDEST PUSH1 0xFF DUP5 GT ISZERO PUSH2 0x1708 JUMPI PUSH2 0x1708 PUSH2 0x15D5 JUMP JUMPDEST POP POP PUSH1 0x1 DUP3 SHL PUSH2 0x4F4 JUMP JUMPDEST POP PUSH1 0x20 DUP4 LT PUSH2 0x133 DUP4 LT AND PUSH1 0x4E DUP5 LT PUSH1 0xB DUP5 LT AND OR ISZERO PUSH2 0x1736 JUMPI POP DUP2 DUP2 EXP PUSH2 0x4F4 JUMP JUMPDEST PUSH2 0x1740 DUP4 DUP4 PUSH2 0x167B JUMP JUMPDEST DUP1 PUSH0 NOT DIV DUP3 GT ISZERO PUSH2 0x1753 JUMPI PUSH2 0x1753 PUSH2 0x15D5 JUMP JUMPDEST MUL SWAP4 SWAP3 POP POP POP JUMP JUMPDEST PUSH0 PUSH2 0x1565 PUSH1 0xFF DUP5 AND DUP4 PUSH2 0x16BD JUMP JUMPDEST PUSH1 0xFF DUP2 DUP2 AND DUP4 DUP3 AND ADD SWAP1 DUP2 GT ISZERO PUSH2 0x4F4 JUMPI PUSH2 0x4F4 PUSH2 0x15D5 JUMP JUMPDEST PUSH0 PUSH1 0x20 DUP3 DUP5 SUB SLT ISZERO PUSH2 0x1792 JUMPI PUSH0 DUP1 REVERT JUMPDEST DUP2 MLOAD PUSH1 0xFF DUP2 AND DUP2 EQ PUSH2 0x1565 JUMPI PUSH0 DUP1 REVERT INVALID LOG2 PUSH5 0x6970667358 0x22 SLT KECCAK256 SWAP13 0xD4 0xD0 INVALID BALANCE DUP2 LT 0xBC DUP7 SUB 0xAB MLOAD SWAP1 DUP3 PUSH24 0x690CF5956084664CA702B1411932E6848C64736F6C634300 ADDMOD XOR STOP CALLER "
		},
		"gasEstimates": {
			"creation": {
				"codeDepositCost": "1220800",
				"executionCost": "infinite",
				"totalCost": "infinite"
			},
			"external": {
				"allowance(address,address)": "infinite",
				"approve(address,uint256)": "24648",
				"areaUnderCurve(uint256)": "infinite",
				"balanceOf(address)": "2648",
				"burn(uint256)": "infinite",
				"calculateBurnReturn(uint256)": "infinite",
				"calculateMintCost(uint256)": "infinite",
				"decimals()": "222",
				"decreaseAllowance(address,uint256)": "26991",
				"decreaseSupply(uint256)": "infinite",
				"exchangeRate()": "infinite",
				"increaseAllowance(address,uint256)": "infinite",
				"increaseSupply(uint256)": "infinite",
				"mint(uint256)": "infinite",
				"name()": "infinite",
				"owner()": "2364",
				"priceMapping()": "2807",
				"renounceOwnership()": "infinite",
				"reserveRequirement()": "2359",
				"reserveToken()": "2440",
				"symbol()": "infinite",
				"totalSupply()": "2348",
				"transfer(address,uint256)": "infinite",
				"transferFrom(address,address,uint256)": "infinite",
				"transferOwnership(address)": "28421",
				"treasuryBalance()": "infinite",
				"withdraw(uint256)": "infinite"
			},
			"internal": {
				"_mint(address,uint256)": "infinite"
			}
		},
		"methodIdentifiers": {
			"allowance(address,address)": "dd62ed3e",
			"approve(address,uint256)": "095ea7b3",
			"areaUnderCurve(uint256)": "2bbdb7e6",
			"balanceOf(address)": "70a08231",
			"burn(uint256)": "42966c68",
			"calculateBurnReturn(uint256)": "4c3980e2",
			"calculateMintCost(uint256)": "b9380b6b",
			"decimals()": "313ce567",
			"decreaseAllowance(address,uint256)": "a457c2d7",
			"decreaseSupply(uint256)": "98e52f9a",
			"exchangeRate()": "3ba0b9a9",
			"increaseAllowance(address,uint256)": "39509351",
			"increaseSupply(uint256)": "b921e163",
			"mint(uint256)": "a0712d68",
			"name()": "06fdde03",
			"owner()": "8da5cb5b",
			"priceMapping()": "83990311",
			"renounceOwnership()": "715018a6",
			"reserveRequirement()": "7f3c587e",
			"reserveToken()": "f4325d67",
			"symbol()": "95d89b41",
			"totalSupply()": "18160ddd",
			"transfer(address,uint256)": "a9059cbb",
			"transferFrom(address,address,uint256)": "23b872dd",
			"transferOwnership(address)": "f2fde38b",
			"treasuryBalance()": "313dab20",
			"withdraw(uint256)": "2e1a7d4d"
		}
	},
	"abi": [
		{
			"inputs": [
				{
					"internalType": "string",
					"name": "name_",
					"type": "string"
				},
				{
					"internalType": "string",
					"name": "symbol_",
					"type": "string"
				},
				{
					"internalType": "address",
					"name": "reserveTokenAddr_",
					"type": "address"
				},
				{
					"internalType": "uint256",
					"name": "priceWindowRatio_",
					"type": "uint256"
				},
				{
					"internalType": "uint8",
					"name": "exponentNumerator_",
					"type": "uint8"
				},
				{
					"internalType": "uint8",
					"name": "exponentDenominator_",
					"type": "uint8"
				},
				{
					"internalType": "uint128",
					"name": "mappingScale_",
					"type": "uint128"
				},
				{
					"internalType": "uint8",
					"name": "mappingScaleDecimals_",
					"type": "uint8"
				}
			],
			"stateMutability": "nonpayable",
			"type": "constructor"
		},
		{
			"anonymous": false,
			"inputs": [
				{
					"indexed": true,
					"internalType": "address",
					"name": "owner",
					"type": "address"
				},
				{
					"indexed": true,
					"internalType": "address",
					"name": "spender",
					"type": "address"
				},
				{
					"indexed": false,
					"internalType": "uint256",
					"name": "value",
					"type": "uint256"
				}
			],
			"name": "Approval",
			"type": "event"
		},
		{
			"anonymous": false,
			"inputs": [
				{
					"indexed": true,
					"internalType": "address",
					"name": "previousOwner",
					"type": "address"
				},
				{
					"indexed": true,
					"internalType": "address",
					"name": "newOwner",
					"type": "address"
				}
			],
			"name": "OwnershipTransferred",
			"type": "event"
		},
		{
			"anonymous": false,
			"inputs": [
				{
					"indexed": false,
					"internalType": "address",
					"name": "updater",
					"type": "address"
				},
				{
					"indexed": false,
					"internalType": "uint256",
					"name": "value",
					"type": "uint256"
				}
			],
			"name": "ReserveRequirementUpdated",
			"type": "event"
		},
		{
			"anonymous": false,
			"inputs": [
				{
					"indexed": true,
					"internalType": "address",
					"name": "from",
					"type": "address"
				},
				{
					"indexed": true,
					"internalType": "address",
					"name": "to",
					"type": "address"
				},
				{
					"indexed": false,
					"internalType": "uint256",
					"name": "value",
					"type": "uint256"
				}
			],
			"name": "Transfer",
			"type": "event"
		},
		{
			"inputs": [
				{
					"internalType": "address",
					"name": "owner",
					"type": "address"
				},
				{
					"internalType": "address",
					"name": "spender",
					"type": "address"
				}
			],
			"name": "allowance",
			"outputs": [
				{
					"internalType": "uint256",
					"name": "",
					"type": "uint256"
				}
			],
			"stateMutability": "view",
			"type": "function"
		},
		{
			"inputs": [
				{
					"internalType": "address",
					"name": "spender",
					"type": "address"
				},
				{
					"internalType": "uint256",
					"name": "amount",
					"type": "uint256"
				}
			],
			"name": "approve",
			"outputs": [
				{
					"internalType": "bool",
					"name": "",
					"type": "bool"
				}
			],
			"stateMutability": "nonpayable",
			"type": "function"
		},
		{
			"inputs": [
				{
					"internalType": "uint256",
					"name": "supply",
					"type": "uint256"
				}
			],
			"name": "areaUnderCurve",
			"outputs": [
				{
					"internalType": "uint256",
					"name": "",
					"type": "uint256"
				}
			],
			"stateMutability": "view",
			"type": "function"
		},
		{
			"inputs": [
				{
					"internalType": "address",
					"name": "account",
					"type": "address"
				}
			],
			"name": "balanceOf",
			"outputs": [
				{
					"internalType": "uint256",
					"name": "",
					"type": "uint256"
				}
			],
			"stateMutability": "view",
			"type": "function"
		},
		{
			"inputs": [
				{
					"internalType": "uint256",
					"name": "amount",
					"type": "uint256"
				}
			],
			"name": "burn",
			"outputs": [],
			"stateMutability": "nonpayable",
			"type": "function"
		},
		{
			"inputs": [
				{
					"internalType": "uint256",
					"name": "amount",
					"type": "uint256"
				}
			],
			"name": "calculateBurnReturn",
			"outputs": [
				{
					"internalType": "uint256",
					"name": "",
					"type": "uint256"
				}
			],
			"stateMutability": "view",
			"type": "function"
		},
		{
			"inputs": [
				{
					"internalType": "uint256",
					"name": "amount",
					"type": "uint256"
				}
			],
			"name": "calculateMintCost",
			"outputs": [
				{
					"internalType": "uint256",
					"name": "",
					"type": "uint256"
				}
			],
			"stateMutability": "view",
			"type": "function"
		},
		{
			"inputs": [],
			"name": "decimals",
			"outputs": [
				{
					"internalType": "uint8",
					"name": "",
					"type": "uint8"
				}
			],
			"stateMutability": "view",
			"type": "function"
		},
		{
			"inputs": [
				{
					"internalType": "address",
					"name": "spender",
					"type": "address"
				},
				{
					"internalType": "uint256",
					"name": "subtractedValue",
					"type": "uint256"
				}
			],
			"name": "decreaseAllowance",
			"outputs": [
				{
					"internalType": "bool",
					"name": "",
					"type": "bool"
				}
			],
			"stateMutability": "nonpayable",
			"type": "function"
		},
		{
			"inputs": [
				{
					"internalType": "uint256",
					"name": "amount",
					"type": "uint256"
				}
			],
			"name": "decreaseSupply",
			"outputs": [],
			"stateMutability": "nonpayable",
			"type": "function"
		},
		{
			"inputs": [],
			"name": "exchangeRate",
			"outputs": [
				{
					"internalType": "uint256",
					"name": "",
					"type": "uint256"
				}
			],
			"stateMutability": "view",
			"type": "function"
		},
		{
			"inputs": [
				{
					"internalType": "address",
					"name": "spender",
					"type": "address"
				},
				{
					"internalType": "uint256",
					"name": "addedValue",
					"type": "uint256"
				}
			],
			"name": "increaseAllowance",
			"outputs": [
				{
					"internalType": "bool",
					"name": "",
					"type": "bool"
				}
			],
			"stateMutability": "nonpayable",
			"type": "function"
		},
		{
			"inputs": [
				{
					"internalType": "uint256",
					"name": "amount",
					"type": "uint256"
				}
			],
			"name": "increaseSupply",
			"outputs": [],
			"stateMutability": "nonpayable",
			"type": "function"
		},
		{
			"inputs": [
				{
					"internalType": "uint256",
					"name": "amount",
					"type": "uint256"
				}
			],
			"name": "mint",
			"outputs": [],
			"stateMutability": "nonpayable",
			"type": "function"
		},
		{
			"inputs": [],
			"name": "name",
			"outputs": [
				{
					"internalType": "string",
					"name": "",
					"type": "string"
				}
			],
			"stateMutability": "view",
			"type": "function"
		},
		{
			"inputs": [],
			"name": "owner",
			"outputs": [
				{
					"internalType": "address",
					"name": "",
					"type": "address"
				}
			],
			"stateMutability": "view",
			"type": "function"
		},
		{
			"inputs": [],
			"name": "priceMapping",
			"outputs": [
				{
					"components": [
						{
							"internalType": "uint8",
							"name": "n",
							"type": "uint8"
						},
						{
							"internalType": "uint8",
							"name": "d",
							"type": "uint8"
						},
						{
							"internalType": "uint128",
							"name": "k",
							"type": "uint128"
						},
						{
							"internalType": "uint8",
							"name": "kDecimals",
							"type": "uint8"
						}
					],
					"internalType": "struct ERC20DerivedSublinear.MappingParams",
					"name": "",
					"type": "tuple"
				}
			],
			"stateMutability": "view",
			"type": "function"
		},
		{
			"inputs": [],
			"name": "renounceOwnership",
			"outputs": [],
			"stateMutability": "nonpayable",
			"type": "function"
		},
		{
			"inputs": [],
			"name": "reserveRequirement",
			"outputs": [
				{
					"internalType": "uint256",
					"name": "",
					"type": "uint256"
				}
			],
			"stateMutability": "view",
			"type": "function"
		},
		{
			"inputs": [],
			"name": "reserveToken",
			"outputs": [
				{
					"internalType": "contract ERC20",
					"name": "",
					"type": "address"
				}
			],
			"stateMutability": "view",
			"type": "function"
		},
		{
			"inputs": [],
			"name": "symbol",
			"outputs": [
				{
					"internalType": "string",
					"name": "",
					"type": "string"
				}
			],
			"stateMutability": "view",
			"type": "function"
		},
		{
			"inputs": [],
			"name": "totalSupply",
			"outputs": [
				{
					"internalType": "uint256",
					"name": "",
					"type": "uint256"
				}
			],
			"stateMutability": "view",
			"type": "function"
		},
		{
			"inputs": [
				{
					"internalType": "address",
					"name": "to",
					"type": "address"
				},
				{
					"internalType": "uint256",
					"name": "amount",
					"type": "uint256"
				}
			],
			"name": "transfer",
			"outputs": [
				{
					"internalType": "bool",
					"name": "",
					"type": "bool"
				}
			],
			"stateMutability": "nonpayable",
			"type": "function"
		},
		{
			"inputs": [
				{
					"internalType": "address",
					"name": "from",
					"type": "address"
				},
				{
					"internalType": "address",
					"name": "to",
					"type": "address"
				},
				{
					"internalType": "uint256",
					"name": "amount",
					"type": "uint256"
				}
			],
			"name": "transferFrom",
			"outputs": [
				{
					"internalType": "bool",
					"name": "",
					"type": "bool"
				}
			],
			"stateMutability": "nonpayable",
			"type": "function"
		},
		{
			"inputs": [
				{
					"internalType": "address",
					"name": "newOwner",
					"type": "address"
				}
			],
			"name": "transferOwnership",
			"outputs": [],
			"stateMutability": "nonpayable",
			"type": "function"
		},
		{
			"inputs": [],
			"name": "treasuryBalance",
			"outputs": [
				{
					"internalType": "uint256",
					"name": "",
					"type": "uint256"
				}
			],
			"stateMutability": "view",
			"type": "function"
		},
		{
			"inputs": [
				{
					"internalType": "uint256",
					"name": "amount",
					"type": "uint256"
				}
			],
			"name": "withdraw",
			"outputs": [],
			"stateMutability": "nonpayable",
			"type": "function"
		}
	]
}